:020000040800F2
:1000000000000120EDF7000821410008254100080B
:10001000294100082D41000831410008000000007E
:100020000000000000000000000000003541000852
:1000300039410008000000003D410008414100082E
:100040003DF800083DF800083DF80008514100085F
:100050003DF800083DF800083DF800083DF80008AC
:100060003DF800088D4100083DF800083DF8000803
:10007000A1410008AD4100083DF800083DF8000826
:10008000B9410008C54100083DF800083DF80008E6
:100090003DF800083DF800083DF800083DF800086C
:1000A0003DF800083DF800083DF800083DF800085C
:1000B0003DF8000800000000000000003DF80008C6
:1000C0003DF80008D14100083DF800083DF800085F
:1000D0003DF800083DF80008295500083DF80008E3
:1000E000F9410008E942000800000000000000009B
:1000F0000000000000000000000000000000000000
:10010000000000003DF80008000000003DF8000875
:1001100000000000000000003DF800083DF8000865
:100120003DF800083DF800083DF800083DF80008DB
:100130003DF8000800000000000000000000000082
:100140003DF800083DF800083DF8000800000000F8
:100150003DF800083DF800083DF800083DF80008AB
:100160003DF800083DF800083DF8000800000000D8
:100170003DF800083DF80008000000000000000005
:100180003DF800083DF800083DF8000800000000B8
:10019000B0F1904F84B017D0234B984204D0234B3A
:1001A00098422CD004B0704711B303F1784303F5A3
:1001B0000333DA6C42F00202DA64DB6C03F0020310
:1001C0000293029B04B0704759B1194BDA6C42F0AC
:1001D0000102DA64DB6C03F001030193019B04B0BC
:1001E0007047134AD36C23F00103D36404B0704703
:1001F0000F4AD36C23F00203D36404B0704769B193
:1002000003F1784303F5FA33DA6C42F08002DA64E2
:10021000DB6C03F080030393039BC3E7044AD36CB6
:1002200023F08003D364BDE700040048001C0048AD
:100230000010024090F824C0BCF1010F3CD070B512
:1002400090F825C00124A44580F824405FFA8CFE74
:1002500004D0002380F82430022070BD022580F8ED
:10026000255004680025C5632668456C26F0010604
:10027000266005F01C05066C0EFA05F575606360D6
:100280008368102B036B0BBFA260A160E160E2608A
:100290004BB1236843F00E032360236843F001034E
:1002A0000020236070BD236823F0040323602368CB
:1002B00043F00A032360F0E7022070472DE9F04184
:1002C000764C0023237094F86530012B0D46E168CD
:1002D00008D0B1F5827F60D1D8B22369002B5CD100
:1002E00004285AD1002D58D092B2002A55D094F843
:1002F0006430012B51D094F86530A6682564042B36
:100300001CBF052384F8653001210023A36684F80F
:100310006410A4F84620A4F84E20C4E9153373688D
:10032000A4F8442023F4C043A564A4F84C207360CF
:100330006369206EB3F5E06F31D8E36D9969736836
:10034000B1F5806F43F4805373607DD08369B3F55A
:10035000806F65D094F86530514A042B514B18BF1B
:100360001346514A0363514B4363514B18BF134625
:10037000C362B4F84E304FF00008C0F838809BB22A
:1003800006F10C012A46FFF755FF074660B1A36E40
:1003900084F8648043F01003A366BDE8F0817368BD
:1003A00023F480537360D5E77368E06D43F0010375
:1003B0007360B4F846300A46C0E90B77C0E90D77A0
:1003C00029469BB2FFF736FF00284AD133685B0607
:1003D00021D5002384F86430736843F020037360F0
:1003E000736843F002037360E26E2378002BD4D16C
:1003F00041F2873109E072B6237803B930BF62B6A3
:10040000BFF36F8F2378002BC7D1E36E9B1A8B420B
:10041000F1D9BDE8F081336843F040033360D8E799
:10042000736823F480537360B4F84E3013F0010FF7
:1004300073681DD123F400537360B4F84E30C3F3D6
:100440004E03A4F84E3085E7D20773681BD423F41B
:1004500080437360B4F84630C3F34E03A4F84630CB
:1004600074E7A36E84F8647043F01003A36694E706
:1004700043F400537360B4F84E30C3F34E030133BA
:10048000A4F84E3066E743F480437360B4F8463016
:10049000C3F34E030133A4F8463057E78800002029
:1004A0005D12000859120008412800086112000876
:1004B0009527000890F82520022A03D00422C26361
:1004C000012070470168426C10B50C6824F00E04DE
:1004D0000C600C6824F001040C6002F01C02046C37
:1004E000012101FA02F26260826B80F8251000247B
:1004F00080F8244002B19047002010BD70B4436CD6
:10050000066C056831682C6803F01C0304229A40CD
:100510000A420ED014F0040F0BD02B689B0603D4B4
:100520002B6823F004032B60036B7260CBB170BCAB
:10053000184702229A400A4215D014F0020F12D036
:100540002B68990606D42B6823F00A032B6001233D
:1005500080F82530C36A7260002180F82410002BD7
:10056000E5D170BC704708229A400A42F9D02207B0
:10057000F7D52A68416B22F00E022A60012202FAA6
:1005800003F300247360C26380F8244080F82520C0
:100590000029E6D070BC08472DE9F04F00233E4EFD
:1005A0004FF00F094FF0030A4DE03C4FB84265D0C1
:1005B0003B4FB84266D03B4FB84268D0DFF8E8B056
:1005C00058450CBF4FF0040B4FF0070B0BFA04F427
:1005D000A44513D1346824EA0E043460746824EA14
:1005E0000E047460F46824EA0E04F460B46824EA2B
:1005F0000E04B460AC6824EA0804AC6004685D00D2
:100600000AFA05F54FEAD30C2C4300EB8C0C04607E
:1006100003F00704DCF820E0A40009FA04F42EEA51
:100620000404CCF82040846824EA0504846044680B
:1006300024EA02024260C26822EA0502C260013373
:1006400031FA03F218D001229A4012EA010EF6D0D4
:1006500023F0030505F1804505F5803503F003041B
:10066000D5F808C0A40009FA04F8B0F1904F08EAE0
:100670000C0C9AD10024ABE7BDE8F08F012707FAF4
:1006800004F4A5E74FF0020B0BFA04F4A0E74FF0D7
:10069000030B0BFA04F49BE700040140000400483C
:1006A00000080048000C004800100048002310B467
:1006B00080F8423090F84120212A4FF0200118D1D3
:1006C000112280F84110026390F84110046801F093
:1006D000280122684363282914BF6FF0F2016FF0EC
:1006E00042010A40002322605DF8044B80F840304C
:1006F0007047122280F84110026390F8412001688F
:1007000002F028020C684363282A14BF6FF0F40239
:100710006FF04402224000230A605DF8044B80F829
:100720004030704701680B68002280F842205A046C
:100730000CD50B6823F480430B6090F84130292BD3
:100740000ED090F841302A2B20D070471B04F4D5EE
:100750000B6823F400430B6090F84130292BF0D153
:100760002822212380F84120036390F841300A6851
:1007700003F02803282B14BF6FF0F2036FF042033D
:10078000134000220B6080F840207047282222236B
:1007900080F84120036390F841300A6803F0280391
:1007A000282B14BF6FF0F4036FF0440313400022B2
:1007B0000B6080F84020704710B400232022174CB3
:1007C000C4624363036380F8412080F842304B07E2
:1007D000026811D5436A526A1A70436A028D013366
:1007E00043624AB1438D013B9BB24385436C013A5E
:1007F00043F0040302854364036890F8412090F8B5
:1008000041201A68102422F0FE0200211A60DC61E7
:100810005DF8044B80F84010704700BF0000FFFFF8
:1008200010B50446514A94F84130002084F8420043
:10083000E2626085626C1143A3F12802022A2368F8
:1008400061645DD894F8411094F8412001F02801CA
:10085000282902F0280214BFF6214621282A1A6806
:100860000CBFC9436FF0F6010A40282040491A60C6
:1008700084F84100A06B226B616318B1112A11D07A
:10088000212A0FD0E06B18B1122A20D0222A1ED0C4
:1008900094F84130602B4FF0000360D0236384F85C
:1008A000403010BD1A68510454D490F82530012B03
:1008B000EED0304A8263002384F84030FFF7FAFD1F
:1008C0000028EED0A06BBDE81040836B18471A6873
:1008D000120403D51A6822F400421A6090F82530F9
:1008E000012BD5D0234A8263002384F84030FFF7E0
:1008F000E1FD0028D5D0E06BBDE81040836B1847C0
:1009000094F8412094F841201A6822F0FE021A60FF
:100910009A69920748BF98629A69D10703D49A6985
:1009200042F001029A6194F84120602A10D02022FE
:1009300084F841209A6992060AD59A69D00605D5AD
:100940001022DA61626C42F0040262642022DA61F1
:1009500000218FE71A6822F480421A60A5E720225E
:1009600084F8412084F84030236310BD0000FFFF6D
:1009700025250008D90F000830B40368202282B072
:10098000DA6190F84120212A90F841204AD0222AA9
:1009900056D05A68324C002522405A60314C45638B
:1009A000CD06C46205D51022DA61426C42F0040221
:1009B000426490F84120602A2DD09A69910744BF83
:1009C00000229A629A69D20703D49A6942F001021E
:1009D0009A61436C90F84120602A0BD053B990F88B
:1009E0004120212A0AD090F84120222A06D002B0C4
:1009F00030BC7047416C02B030BC11E7202280F857
:100A00004120036390F8422080F8403080F8423063
:100A100002B030BC70474C07CFD55A6AD2B20192AF
:100A2000019ACAE702F028021C68282A14BF6FF056
:100A3000F2026FF04202224011241A600463A8E718
:100A400090F841201C6802F02802282A14BF6FF099
:100A5000F4026FF04402224012241A60046398E703
:100A600000E800FE0000FFFF38B590F84030012B91
:100A700000F085800123CD06044680F8403001D582
:100A8000D00659D40D063AD550064DD523681A68BC
:100A900022F040021A60628D92B2002A71D058682A
:100AA000628D92B2FF2AC0F3090078D8618DE26AA4
:100AB00089B212F5803F218500F082805FFA81FCC7
:100AC000E26A4FEA0C4C42EA0C020243404D58687D
:100AD00022F00042284002435A60628D521A92B2BC
:100AE000628594F84120222A1A680CBF42F4004221
:100AF00042F480421A60002084F8400038BD4D0660
:100B000012D5500610D5638D9BB2002B40D12368BF
:100B10005A689201EFD4E26A12F5803F34D15A68E4
:100B200042F480425A60E6E78B06E4D59306E2D5AC
:100B30002046FFF721FFDEE7236826481022DA610E
:100B4000616C626B41F004018242616425D02249EC
:100B50008A4222D021498A4214BF20226022196889
:100B60000A431A609A69910744BF00229A629A69FF
:100B7000D207C0D49A6942F001029A61BBE7022011
:100B800038BD5B689A0103D42046FFF78FFDB2E7BA
:100B900040212046FFF744FEADE76022DFE79A6977
:100BA000D10306D5012121854FF4803C4FF080729E
:100BB00089E7FF2121854FF47F0C4FF0807282E797
:100BC0005FFA81FC4FEA0C4C4FF000727BE700BFEC
:100BD000009C00FC690A00085D260008E10B000883
:100BE00038B590F84030012B00F0D680012380F812
:100BF0004030CB06044602D5D00600F1A9808B0711
:100C00000BD5900709D52268216D91624FF0FF3313
:100C10002365002084F8400038BD0B063AD5550600
:100C200040F18C8094F84120236802F02802196872
:100C3000282A14BF6FF0F2026FF042020A401A60D5
:100C40001A6842F090021A60628D92B2002A00F097
:100C5000B880628D92B2FF2A40F2A2809869654DF9
:100C6000E16C5A68C0F3004000280CBF4FF47F00CD
:100C70004FF4803002EA0502C1F3090142EA0002A2
:100C800042EA010242F080720CBFFF21012121855E
:100C90005A6040E04B0651D550064FD594F84110AC
:100CA000236855481A6801F02801282914BF6FF0FD
:100CB000F2016FF042010A401A601A684F4942F08F
:100CC00090021A6094F841C0628D92B2BCF1220F7A
:100CD00008BF0846FF2A79D99A69C2F30042002A60
:100CE000E26CC2F309020CBF4FF47F054FF480356C
:100CF00042EA000242EA05025868414D22F00042F1
:100D000000EA050042EA00020CBFFF21012142F087
:100D1000807221855A60628D521A92B2628594F86F
:100D20004120222A1A684FF000000CBF42F4004212
:100D300042F480421A6084F840006DE788067FF52F
:100D400068AF93067FF565AF2046FFF715FE60E7B5
:100D500023682C481022DA61616C626B41F0040157
:100D6000824261641AD028498A4217D027498A42B0
:100D700014BF2022602219680A431A609A699107F9
:100D800044BF00229A629A69D2073FF542AF9A693E
:100D900042F001029A613CE7022038BD6022EAE796
:100DA000618D144DE26C586889B22840C2F3090283
:100DB000CDB242EA0542024342F0007221855A60F8
:100DC000A9E740212046FFF72BFD22E7618DE26C69
:100DD00089B2CDB2C2F3090242EA05420243084D8C
:100DE0005868218522F000422840024342F00072F8
:100DF0005A6090E7009C00FC0020008000240080E6
:100E0000009800FC690A00085D260008E10B000854
:100E100070B5036804460D461968C06A94F841200D
:100E20002026213ADE61092A0ED8DFE802F06E059D
:100E30000D0D0D0D0DA16E0594F841201A6822F0DC
:100E4000FC021A60222222635A68614E42F4004278
:100E50005A605A6832405A609A69920744BF002229
:100E60009A629A69D60703D49A6942F001029A619C
:100E70004A0435D51A6822F480421A60A26B1AB16E
:100E80001268526892B262856A070AD55A6A636A22
:100E90001A70636A01336362238D25F00405002B09
:100EA0005FD1638D9BB21BB1636C43F00403636439
:100EB000EB0601D5CE0631D4002384F84230666CAF
:100EC0006363002E5FD1E36A424DAB4212D194F8C6
:100ED000413084F84060202384F84130266370BD9F
:100EE0000E04D1D51A6822F400421A60E26B002A7F
:100EF000C6D1C9E72046FFF715FC2023E56284F838
:100F0000406084F84130266370BD94F841201A682F
:100F100022F0FA021A602122226395E7638D9BB2C8
:100F2000002B3DD194F84130282B48D094F8412033
:100F30002368292A4FF01002DA61BDD110F5803FF5
:100F4000BAD09A69910744BF00229A629A69D2077F
:100F500003D49A6942F001029A612046FFF7E2FB4E
:100F6000AAE7013B2385638D013B9BB2638598E72C
:100F700094F8412094F841201A6822F0FE021A6089
:100F80000022226360E7616C2046FFF749FC94F879
:100F90004130282BA3D129462046BDE870400BE400
:100FA00023681022DA61636C43F00403636430F059
:100FB000807381D1616C2046FFF732FC7CE7B0F191
:100FC000007FB3D129462046FFF7F6FB74E700BF48
:100FD00000E800FE0000FFFF836A9A6B0AB100215F
:100FE0009163DA6B0AB10021916393F84120602A82
:100FF00009BF00220022202183F841101A63002239
:1010000083F84020704700BF264A9368D26813F0E7
:101010000C0305D00C2B32D0042B3ED12248704754
:10102000204A1168090754BFD2F8942012681F495A
:1010300054BFC2F30322C2F3031251F82200002B63
:10104000EDD0184BDB6803F00303022B23D0184AC2
:10105000032B08BF1046134BD968DA68DB68C3F36B
:101060004163C2F30622C1F30211013300FB02F215
:1010700001315B00B2FBF1F2B2FBF3F0704702F01A
:101080000302012ACCD0074BDB6803F00303022BD9
:101090004FF00000DBD10448DDE7082B044818BFFF
:1010A00000207047001002400024F40000340108C2
:1010B00000127A0021498B6DDB0082B01CD5204BD9
:1010C0001B6803F4C063B3F5007F29D080282ED8B5
:1010D00031D0A0F17002B2FA82F2520919490B68BC
:1010E00023F0070313430B60086800F00700801A21
:1010F00018BF012002B070478B6D114A43F0805336
:101100008B658B6D03F080530193019B13688A6D8F
:1011100003F4C06322F08052B3F5007F8A65D5D115
:10112000802806D9A0288CBF02220122D6E70322FC
:10113000D4E70022D2E70222D0E700BF001002402D
:101140000070004000200240414A036830B4D46877
:10115000A40707D0D46804F003049C4246D00120C1
:1011600030BC7047022B52D0032B49D0012BF6D153
:1011700012689207F3D5364CE26822F073021343EB
:101180004268013A43EA0213E360314C314A236872
:1011900023F080632360D56E03E0D36E5B1B022BCC
:1011A00039D823681B01F8D483681B02002934D185
:1011B0002169C56821F0784121F4FE4143EAC56305
:1011C0000B43236122490B6843F080630B60D46EAC
:1011D00003E0D36E1B1B022B1DD80B681B01F8D537
:1011E00082690B69134300200B61B9E7002CB6D06C
:1011F000D3684268C3F3021301339342AFD1C4E70B
:101200001468A403B7D412685203A8D5B3E71268D0
:101210005505A4D5AFE70320A2E7012921690BD02A
:1012200021F0C06121F4FE41194343695B08013B91
:1012300041EA43612161C5E721F4C00121F4FE4187
:101240000B4301694908013943EA41532361B9E776
:101250000010024088000020704700BF704700BFA8
:10126000836A19684A6822F003024A601A6E4FF0D6
:10127000010C42F010021A6683F85DC0704700BF8F
:101280000368806A1A6812F0200228D10368A0F867
:101290005A2053E8002F22F4807243E800210029ED
:1012A000F7D103F1080252E8002F22F0010203F106
:1012B000080C4CE800210029F3D103F1080252E8A0
:1012C000002F22F0400203F1080C4CE80021002915
:1012D000F3D12022C0F88020026E012A03D000231F
:1012E0004366036E704753E8002F22F0100243E874
:1012F00000210029F3D053E8002F22F0100243E828
:1013000000210029EFD1EAE7836A01225A661B6EA9
:10131000704700BF836A0022A3F85A20A3F8522026
:10132000704700BFD0F88010B0F85C300268222906
:1013300005D0138B9BB243F0080313837047918C45
:10134000426D0B401370B0F85A30426D013B9BB2B6
:10135000A0F85A30B0F85A3001329BB24265002BE7
:1013600045D110B4036853E8002F22F4907243E88B
:1013700000210029F7D103F1080252E8002F22F0E2
:10138000010203F1080444E800210029F3D1184ABE
:10139000816620249342C0F88040416612D05A688A
:1013A00011020FD553E8002F22F0806243E800219C
:1013B00041B1016851E8002F22F0806241E8002429
:1013C000002CF7D1026E012A0ED10022026653E8EA
:1013D000002F22F0100243E800210029F7D1DA693A
:1013E000D20601D510221A625DF8044B704770478F
:1013F00000800040D0F88010B0F85C3002682229EC
:1014000005D0138B9BB243F008031383704710B4CD
:10141000948C416D234021F8023BB0F85A3041656D
:10142000013B9BB2A0F85A30B0F85A309BB2002B67
:1014300040D152E8003F23F4907342E80031002984
:10144000F7D1016801F1080353E8003F23F00103DD
:1014500001F1080C4CE80034002CF3D12023C0F833
:101460008030164B84669942446611D04B681C024A
:101470000ED551E8003F23F0806341E800343CB1D1
:1014800052E8003F23F0806342E80034002CF7D19B
:10149000036E012B0ED10023036651E8003F23F0B9
:1014A000100341E80032002AF7D1CB69DB0601D5F1
:1014B00010230B625DF8044B704700BF00800040B2
:1014C00010B418B10C4B04689C4208D00B4B0C4A6A
:1014D000D3F880300B495DF8044B00201847032AED
:1014E00002D9064B084AF3E702EB820200EB8200C6
:1014F0005DF8044B416070470FB03713880000203F
:10150000DC730108F4730108FC73010810B418B10E
:101510000C4B04689C4208D00B4B0C4AD3F880302B
:101520000B495DF8044B00201847032A02D9064BEB
:10153000084AF3E702EB820200EB82005DF8044BFD
:10154000018170470FB0371388000020DC73010859
:10155000F4730108FC73010810B418B10C4B046853
:101560009C4208D00B4B0C4AD3F880300B495DF8F5
:10157000044B00201847032A02D9064B084AF3E718
:1015800002EB820200EB82005DF8044B4181704760
:101590000FB0371388000020DC730108F4730108D2
:1015A000FC73010810B418B10C4B04689C4208D0BD
:1015B0000B4B0C4AD3F880300B495DF8044B0020EC
:1015C0001847032A02D9064B084AF3E702EB8202C6
:1015D00000EB820001755DF8044B70470FB03713C4
:1015E00088000020DC730108F4730108FC73010813
:1015F00010B418B10C4B04689C4208D00B4B0C4A39
:10160000D3F880300B495DF8044B00201847032ABB
:1016100002D9064B084AF3E702EB820200EB820094
:101620005DF8044B818170470FB0371388000020AC
:10163000DC730108F4730108FC73010810B418B1DD
:101640000C4B04689C4208D00B4B0C4AD3F88030FA
:101650000B495DF8044B00201847032A02D9064BBA
:10166000084AF3E702EB820200EB820081735DF827
:10167000044B70470FB0371388000020DC7301085B
:10168000F4730108FC73010810B418B10C4B046822
:101690009C4208D00B4B0C4AD3F880300B495DF8C4
:1016A000044B00201847032A02D9064B084AF3E7E7
:1016B00002EB820200EB82005DF8044B017470477C
:1016C0000FB0371388000020DC730108F4730108A1
:1016D000FC73010810B418B10C4B04689C4208D08C
:1016E0000B4B0C4AD3F880300B495DF8044B0020BB
:1016F0001847032A02D9064B084AF3E702EB820295
:1017000000EB82005DF8044B417470470FB0371353
:1017100088000020DC730108F4730108FC730108E1
:1017200010B418B10C4B04689C4208D00B4B0C4A07
:10173000D3F880300B495DF8044B00201847032A8A
:1017400002D9064B084AF3E702EB820200EB820063
:10175000C1745DF8044B70470FB037138800002048
:10176000DC730108F4730108FC730108B1F804C0CC
:1017700093680A899A80BCF1000C18BF4FF0010CE5
:10178000CA7983F800C091F806C083F801C09A7046
:101790009860704703460068D3F8E8104268C3F8C1
:1017A000F0101047D0E90F23816B0069184700BF84
:1017B0000068C368184700BF704700BF00688368AF
:1017C000184700BF08B518B1074B02689A4208D005
:1017D000064B074AD3F8803006490020984700207E
:1017E00008BD012008BD00BF0EB0371388000020DF
:1017F000147401082C7401082DE9F047D0F800801A
:101800000546B8F1000F1ED0D8F898700FB3124EED
:1018100007F148044FF00009583754F8040F18B185
:10182000B36F9847C4F80090A742F6D1D8F8980053
:10183000B36F00B19847B36F40469847B36F2846DF
:10184000BDE8F0471847044E2846B36FBDE8F0479F
:101850001847014EEFE700BF88000020F8B50546A5
:101860000088002A1C460CBF4FF400534FF48053ED
:10187000B0F59C6F0E460FD300F151077F008342F5
:10188000BFB236D21C4B1D4AD3F880301C49002011
:1018900098474FF0000C03E040F662274FF0010C30
:1018A0001849194AC4E9011202F11912E26002F161
:1018B000191222612346002262805122A28223F85B
:1018C000167B29686A68A868EF68C4F816105A6021
:1018D0009860DF602969A8696A699861196196E86A
:1018E00003005A61AA8B9A83343484E8030060466B
:1018F000F8BD4FF0010CD3E78800002034740108D4
:10190000547401080100020003001B0010B50C4CC8
:1019100094F88810012982B010D90A49D4F880407F
:1019200012F4006F0346084818BF0846C2F30A01C4
:10193000CDE90001054A06490220A04702B010BDCA
:101940008800002068740108707401087874010828
:101950008C74010810B50A4C94F888C0BCF1010FD2
:1019600082B00BD92C3989B203461046D4F8804096
:10197000044ACDE9001004490220A04702B010BD7E
:1019800088000020A07401088C74010830B5094952
:1019900091F88840012C83B009D902F00F04D1F8E6
:1019A0008050054A0549009403460220A84703B029
:1019B00030BD00BF88000020C87401088C74010885
:1019C00010B50A4C94F888C0BCF1010F82B00BD955
:1019D0007D3989B203461046D4F88040044ACDE9E7
:1019E000001004490220A04702B010BD880000206A
:1019F000E87401088C74010810B5A1F1620C144C54
:101A00001CF0010F034694F888E084B01FFA8CF0B4
:101A10000ED1BEF1010F09D94008D4F880400292DE
:101A2000CDE900010B4A0C490220A04704B010BDCB
:101A3000BEF1010FFAD94008D4F880400292CDE9F6
:101A40000001064A04490220A04704B010BD00BFAF
:101A500088000020187501088C7401085075010871
:101A600010B50B4C94F888C0BCF1010F84B00CD9B0
:101A70000346A1F58C7080B2D4F880400090CDE987
:101A800001120220034A0449A04704B010BD00BF60
:101A900088000020887501088C7401082DE9F04F3A
:101AA0001F4EDFF888B0804615460FCE91B002ACCD
:101AB0000FC40FCE0FC40FCE0FC49BF888C096E89A
:101AC0000300BCF1010F84E8030007D9DBF8804074
:101AD000144A1549009543460220A047DFF850A05C
:101AE000DFF8449002AC10AE02E00834B44213D0E8
:101AF000A3881D42F9D09BF88820012A434652460C
:101B000049464FF00200F0D927680097DBF8807053
:101B10000834B847B442EBD111B0BDE8F08F00BF34
:101B200030340108B07501088C7401088800002069
:101B3000CC7501082DE9F047C36D8769056900245C
:101B40007C8081461C7000F14806A04656F8043F90
:101B5000FBB1B3F838C0B3F89400B3F89610B3F8FB
:101B6000DC2005EB400005EB410105EB420205EBF3
:101B70004C0CC3E91301C3F8A820C3F814C03C708F
:101B80001868D3F8E020416883F8E880C3F8E420BF
:101B900088470134E4B2042CD8D1D9F80000BDE85C
:101BA000F0474368184700BF70B50446806980B1AC
:101BB000E3694BB1104B93F888202AB1D3F88030F9
:101BC0000E4A0F49012098472068BDE8704083689D
:101BD0001847094D0B4AD5F8803009499847E36901
:101BE00043B195F888302BB1D5F88030034A0449C9
:101BF00001209847002070BD88000020E075010892
:101C0000F07501080076010830B40269B0F842307E
:101C100090F8381032F81330032908BF83F40043DA
:101C200040F2E51101FB03F31B0C816C8446A3F524
:101C300089700880BCF83C10DCF84C0032F81110B8
:101C400039B1BCF8401032F81110012994BF0021BD
:101C500001210170BCF83E00BCF83A10DCF850508D
:101C600032F8111032F81020DCF8544040F2E51040
:101C700000FB02F2A3EB12431BB2002BBCF9442081
:101C8000DCF80000B8BF5B421BB29A42A1F101022E
:101C9000B2FA82F2ACBF0023012352092A702370EA
:101CA00030BC4368184700BF0068C368184700BFCE
:101CB000836910B50446CBB10E4B93F8882052B916
:101CC00063698BB10B4B0C4AD3F880300B49002071
:101CD0009847002010BDD3F88030094A07490120F9
:101CE00098476369002BEDD1012010BDC369002B1B
:101CF000E2D1E5E788000020547601083876010833
:101D00001C7601080068C368184700BF0068836834
:101D1000184700BF70B5114E114A3368A2FB032368
:101D20009B09013BB3F1807F01D3012070BD4FF0CF
:101D3000E0220C495361F02381F82330002507236A
:101D40000F28956104461361EFD801464FF0FF302C
:101D50000BF06EF87460284670BD00BF00000020D4
:101D6000D34D621000ED00E0F0B5884B02689D682D
:101D7000DE680446D00683B005F00C0506F00306C5
:101D800040F12981002D40F0F180804B1B689907BC
:101D900000F159817D4B276A1A68120756BFD3F8A4
:101DA00094301B681B0903F0F0039F4200F2D081BE
:101DB000764B1A6842F008021A601A6822F0F002A4
:101DC0003A431A605A68E16922F47F4242EA0122EA
:101DD0005A60002D00F0F081FFF716F96B4B9A68FE
:101DE0006B4BC2F3031213446A4A93F8683003F052
:101DF0001F0320FA03F350681360FFF78BFF0028DE
:101E000040F026812268D00700F1E98090071DD5B7
:101E10000C2D00F0B581E3685C48002B00F06F8169
:101E2000036843F4807303605B4BDE6E04E0D96E9D
:101E3000891B022900F23E8101684905F7D54368F4
:101E4000216923F0F85343EA01634360160716D56E
:101E500063694E48002B00F00981D0F8943043F0BC
:101E60000103C0F894304C4BDE6E04E0D96E891B40
:101E7000022900F21F81D0F894108907F6D5500787
:101E80003DD5424B996DC90000F13781996D41F004
:101E9000805199659B6D03F080530193019B012054
:101EA0003E4E3368DF0540F1F7803B4BA1680129C6
:101EB00000F03481052900F09381344ED6F89070FB
:101EC00027F00107C6F89070D6F8907027F0040745
:101ED000C6F89070002940F02881D3F86CC041F218
:101EE000883705E0D96EA1EB0C01B94200F2E2801F
:101EF000D6F890108907F5D4002840F0578197064E
:101F000016D5636A2149002B00F03E81D1F8982054
:101F1000214B42F00102C1F89820D86E04E0DA6E3D
:101F2000121A022A00F2C680D1F898209607F6D538
:101F3000A36ACBB1022B00F061810C2D00F08780E9
:101F40001249154B0A6822F080720A60D86E04E0CC
:101F5000DA6E121A022A00F2AD800A689201F7D4F2
:101F6000CA680F4B1340CB60002071E00C2D00F0CD
:101F70008F80A3690548002B00F09F800168064B05
:101F800041F001010160DF6E11E000BF001002406E
:101F9000003401080000002088000020007000408C
:101FA000FCFFEEFED96EC91B022900F28380016896
:101FB0008907F7D5036843F0080303600368216AC3
:101FC00023F0F0030B4303604368E16923F47F438C
:101FD00043EA01234360D30720D5082D3CD00C2DC4
:101FE00038D06368B3F5803F76D0B3F5A02F00F00A
:101FF000EA808D48016821F480310160016821F494
:1020000080210160002B6CD1884BDF6E03E0D96E1C
:10201000C91B64294ED801688903F8D497077FF556
:1020200015AF042D7FF4F4AE7F4B1B68580501D526
:10203000E36863B17C4920694B6823F0F85343EAB5
:1020400000634B6002E7A369002B7FF4A3AE01207D
:1020500003B0F0BD032EC4D1734B1B689F037FF503
:10206000D5AE6368002B7FF4D1AEF0E7D0F89430A2
:1020700023F00103C0F894306C4BDE6E03E0D96EA0
:10208000891B022916D8D0F894108F07F7D4F6E6EA
:10209000012E7FF46EAF78E6336843F480733360CB
:1020A000624BDF6E3168C9053FF500AFD96EC91BC1
:1020B0000229F7D9032003B0F0BD01685B4B21F082
:1020C00001010160DF6E03E0D96EC91B0229F1D85E
:1020D00001688907F8D47EE753490B6843F48033DD
:1020E0000B60524B5048DF6E03E0D96EC91B642968
:1020F000E0D801688903F8D590E70020D0E60368AE
:1021000023F480730360494BDE6E03E0D96E891BB4
:102110000229CFD801684F05F8D497E6424ED6F889
:10212000901041F00101C6F89010D3F86CC03E4EFB
:1021300041F2883704E0D96EA1EB0C01B942B9D85D
:10214000D6F890108907F6D500283FF4D8AE2DE0D8
:102150003846FEF7AFFF00287FF479AF324B1A689C
:1021600042F008021A601A6822F0F0023A431A603C
:102170005A68E16922F47F4242EA01225A602BE662
:10218000022E7FF448AE4FE7D1F89820274B22F07B
:102190000102C1F89820D86E03E0DA6E121A022A02
:1021A00088D8D1F898209207F7D4C1E61E498B6DE4
:1021B00023F080538B65A2E63846FEF77BFF0028AC
:1021C0003FF40AAE43E703F18043A3F53C331968BB
:1021D00041F480211960196841F48031196080E769
:1021E0001149D1F8906046F00406C1F89060D1F82A
:1021F000906046F00106C1F8906096E70A4AE66AE8
:10220000D36803F00301B14247D00C2D3FF41FAF58
:1022100005490B685F013FF51AAF0A68034B22F0CE
:1022200080720A60D86E08E000100240880000202A
:10223000DA6E121A022A3FF63DAF0A689501F7D40A
:10224000C868334A0240606B324342EA0022A06B06
:1022500042EAC062206B013842EA0012D4E90F5012
:102260006C08013C4008013842EA445242EA4062AC
:10227000CA600A68274842F080720A60CA6842F061
:102280008072CA60D96E04E0DA6E521A022A3FF6F2
:1022900011AF02689401F7D566E6216B03F0700078
:1022A0000139B0EB011FB0D1606B03F4FE41B1EB1B
:1022B000002FAAD1A06B03F07841B1EBC06FA4D17D
:1022C000E16B4908013903F4C000B0EB415F9CD1D8
:1022D000216C490803F0C0630139B3EB416F94D11D
:1022E000136898013FF540AE11680B4B41F08071C7
:1022F0001160D16841F08071D160D86E04E0D96E70
:10230000091A02293FF6D6AE11688901F7D52BE6E6
:102310008C809D010010024088000020504AF8B5D2
:10232000136803F007038B420BD2136823F00703F3
:102330000B431360136803F007038B4201D00120A5
:10234000F8BD046814F0020E04F0010367D0454E96
:102350008568B26802F0F002954204D9B26822F0B2
:10236000F0022A43B260002B64D04268032A5BD09B
:102370003C4B022A1B6869D0002A6CD19E07DED52F
:10238000384D394EAB6823F003031343AB60F76E4F
:10239000920041F2883C03E0F36EDB1B634558D8A2
:1023A000AB6803F00C039342F6D1BEF1000F40D1AD
:1023B0002B4A136803F007038B4209D9136823F0F3
:1023C00007030B431360136803F007038B42B6D176
:1023D000620706D5234AC168936823F4E0630B4380
:1023E0009360230707D51F4A0169936823F460535C
:1023F00043EAC1039360FEF707FE1A491B4A896846
:102400001B4CC1F303110A44034692F8682060682C
:1024100002F01F02D3402360BDE8F8407AE4002BAD
:10242000C6D04268032AA3D10E4B1B689B01A7D4D8
:1024300085E785680B4A936803F0F0039D42B7D2A5
:10244000936823F0F0032B439360B1E79F0397D485
:1024500075E70320F8BD5D057FF571AF90E700BF1C
:1024600000200240001002408800002000340108D3
:10247000000000200CB4F0B5ADB032AB06AE53F89E
:10248000042B059304460D46304696210FF060FF5D
:102490009528C4BF1B4BCDF8AA301B4B1B49DF6EE0
:1024A000A1FB07311A4BA3FB0723980B194BA3FB86
:1024B00007234FEA931C184B4FF47A7202FB1C77E8
:1024C000A3FB00E25209042CC2EB0212A0EB820231
:1024D000A3FB0CE398BF114800974FEA531394BF36
:1024E000005D3F20C3EB03130190CDE90256490D77
:1024F000ACEB83030A480FF005FF2DB0BDE8F040B8
:1025000002B070472E2E2E0088000020B17C21954D
:1025100073B2E745D34D621089888888A076010898
:102520007C76010838B590F840C0C56ABCF1010F4F
:1025300067D04FF0010C11F0200F04460B4680F8D5
:1025400040C002D012F0200F51D1D80615D5D106C7
:1025500013D5628D92B2002A55D194F84120282AD1
:1025600074D094F841202368292A4FF01002DA61D0
:102570005CD0002084F8400038BD590719D41907F1
:1025800001D5100739D49907F3D59307F1D5638D99
:102590009BB2002B46D0616A236811F8012B9A6226
:1025A000638D228D6162013B9BB2013A6385228576
:1025B000DFE75007E3D5638D9BB26BB12268636A96
:1025C000526A1A70638D616A228D013B0131013AB2
:1025D0009BB2616222856385638D9BB2002BC8D15B
:1025E00015F5803FC5D02046FEF79CF8C1E7FEF701
:1025F0000FFC002084F84000BEE720460BF0C8FF27
:10260000B7E7022038BD23681022DA61636C43F01B
:102610000403636435F08073ABD1616C2046FEF730
:10262000FFF8A6E735F08073A3D1DCE715F5803F0E
:102630009FD09A69950744BF00229A629A69D00791
:10264000D1D49A6942F001029A61CCE7B5F1007FDA
:1026500087D119462046FEF7AFF88AE738B590F8DB
:1026600040C0C56ABCF1010F46D04FF0010C11F01B
:10267000200F04460B4680F840C002D012F0200F15
:1026800030D1D90626D5D00624D55104C2F38030E6
:1026900034D5E16B09B1120435D4A26B1AB11268BA
:1026A0005268002A37D023681022DA61636C43F045
:1026B0000403636494F8413035F08072DBB20DD1CD
:1026C000213B092B4CD8DFE803F049504B4B4B4BD7
:1026D0004B4B4950190701D5130709D4002084F842
:1026E000400038BDFEF794FB002084F84000F8E776
:1026F00020460BF04DFFF1E7022038BD110429D52B
:10270000E16B0029CFD00A685268002A30D1A26B51
:102710000AB100283AD194F84120282A2ED094F802
:1027200041202368292A4FF01002DA61D6D115F52D
:10273000803FD3D09A69950744BF00229A629A6974
:10274000D00703D49A6942F001029A612046FDF74E
:10275000E9FFC3E723681022DA61BFE7212323637F
:10276000616C2046FEF75CF8B8E722232363F7E7A5
:10277000A26B002A97D0002895D090E7B5F1007F92
:10278000CDD119462046FEF717F8A7E71268526820
:10279000C1E700BF38B5294A0368D56E1B689B06A0
:1027A0001BD4846A2368A2685868616820F02000FE
:1027B00058609AB15868B1F5827F20F001005860E6
:1027C00022D02946204609F0DDFFB0B901230022BE
:1027D000A4F8462084F85D30236E38BD5A68B1F500
:1027E000827F0CBF22F0030222F001025A602946C8
:1027F000204609F0C7FF0028E8D0236E43F02003ED
:10280000236620232366E1E7B2F5004F12D11A6850
:1028100022F0400229461A60204609F0B3FF002842
:10282000EBD12A464FF4C061204609F047FF00284B
:10283000CCD0E2E7B2F5806FE9D0C2E78800002093
:10284000F8B51B4D0368EF6E1B68846A9B062CD499
:102850002668736823F0200373603A464FF4C05132
:10286000204609F02BFF58B93946204609F08AFF67
:1028700030B93A464FF4C061204609F01FFF38B125
:10288000236E43F020032366236E43F02003236668
:10289000736823F00303736000220123E287A4F826
:1028A000462084F85D30236E0BB901232B70F8BDF0
:1028B00088000020F8B595692B7802EB43030F469A
:1028C000B3F84460536901466888144603EB40003E
:1028D00072000FF05BFC6B88E26D1E4413786E8013
:1028E00003B93B791370F8BD2DE9F04F2DED048B42
:1028F000038F8DB00546002B00F01581B0F84030F5
:10290000428F0469B0F850E007925B000293838F16
:10291000C28F34F913300B92BEF1000F00F0038127
:102920001B010893D0E91223D718B0F85200B5F86C
:102930004230DFED8A8ADFF830B20193FE434FF078
:102940000008F6EE009A0990C1460496CDF828E0FA
:10295000834B83FB0710F917C1EBA00101EB41008A
:10296000A7EBC00000281FFA89F886B2C0F2EB80FE
:10297000002FC0F2F180089B09B2090481FB03011A
:10298000002906DA4FF6FF7C10EB0C0C604641F193
:102990000001079B000C40EA0140991934F911101D
:1029A000A0EB011007EE900AB8EEE79A29EE289AFC
:1029B000B0EE490A0DF0E4FBB0EE408AB0EE490AF1
:1029C0000CF0EEFF019B002B00F0A2800B9BB5F8F2
:1029D00044A01E4404EB46030020CDE90597039371
:1029E0000646009059E095F838C0BCF1000F4BD076
:1029F00007EE101A07EE903AF8EEC76AF8EEE77A9B
:102A000026EE806A27EE887A66EE886A37EE467A86
:102A100067EE807AB5EEC07A77EEA67AF1EE10FA1C
:102A20004CBF37EE697A37EE297AF5EEC07AF1EECF
:102A300010FABDEEC77A4CBF77EEE97A77EEA97A45
:102A400017EE103AFDEEE77A5B4517EE901A47F65F
:102A5000FF70B8BF5B468342D5F85490A8BF0346C9
:102A60005945B8BF594699F800E08142A8BF0146D0
:102A7000BEF1000F04D117EE100A98425BD0E64673
:102A800089F800E01BB209B2A352009B798053443D
:102A90000093019B01369E4238D0009B95F839C0C7
:102AA00008EB5302029B92B203EB8202A718A35ECB
:102AB000B7F90210BCF1000F95D00398B0F800C030
:102AC0000CF01F0E0EF1300E03FB0EFE4FEA9C239E
:102AD000203BCCF3441C01FB03F3BEF1000F0CF1CF
:102AE000300C01FB0CFCB8BF0EF13F0E002BB8BF41
:102AF0001F334FEAAE1EBCF1000F0EEB6313B8BFDD
:102B00000CF13F0C1BB24CF38F116CE7DDE905971C
:102B1000099B049A1F44D31A04930A9B09F10109E3
:102B200099457FF415AF286843680DB0BDEC048B60
:102B3000BDE8F04F184717EE900AB0EB010E18BF32
:102B40004FF0010E9CE71836B6B2049B054AA2FB73
:102B500003016FEA11110EE70026F6E70000803747
:102B6000ABAAAA2AABAAAAAA0080FFFFF8B516460C
:102B70000D464FF4E272014618461C460FF032FB38
:102B8000B6F8581021B196F85E30191E18BF012111
:102B9000012396F85B2084F8C6312B4684F8C521C2
:102BA00033F8262B84F8C411A4F8C82105F1560186
:102BB00004F5E5721F685E689868D3F80CC0C2F827
:102BC0000CC010338B4217605660906002F1100207
:102BD000F0D1B5F85630A4F8FA3105F1580604F5ED
:102BE000FE7E05F18807B446BCE80F00BC450EF137
:102BF000100E06F110064EF8100C4EF80C1C4EF894
:102C0000082C4EF8043CEED1B5F88830A4F82C32EC
:102C100005F18A0304F22E24BA35186859689A68B7
:102C2000DE68E6601033AB4220606160A26004F1B0
:102C30001004F2D1F8BD00BF2DE9F04F2DED108B3F
:102C40009BB090F85E401D4690F85C300893042CD1
:102C5000B0F8583003938046894616461AD8D0ED0E
:102C6000147AF5EEC07AF1EE10FA00F1F88190F8DE
:102C70006630002B00F0978290F85B30002B00F05C
:102C80009282024C024A059407E000BF88000020AF
:102C9000EC760108C74CC84A0594D4F88030C7497F
:102CA00000209847D8ED157AD4F88C30009307EEC1
:102CB000103AF5EEC07AF1EE10FAB8EE478A40F31A
:102CC000D281C8EE278AF6EE007A78EEA78A039BB7
:102CD000002B00F0A88198F85E30049398F85A30E1
:102CE000002B40F0A78198F86020022A41F03E8135
:102CF00098F85E40012C00F0ED83002422463499C0
:102D00000C71A6F8AC21002B00F0998198F85F3087
:102D1000012B00F01184022B00F0F883002B40F00F
:102D2000E98301231A46F384328598F86030012B39
:102D300000F0D983022B00F0D583002B00F014841F
:102D4000059B9F4AD3F880309C4900209847B9F1F1
:102D5000000F00F0788100230093B9F8E410B9F86F
:102D600008307180B9F8E610B180B9F8E21031800E
:102D7000B9F8E810F180B9F8021031819B00B9F878
:102D8000041071819BB2B9F80610B18103F13002D1
:102D9000B9F80A10F18192B2B9F8201031825F2A95
:102DA000B9F82210718240F2F2818649A1FB02013A
:102DB000890901EB4101A2EB411189B200201A46B9
:102DC00004460B460121F2820322B3827283002360
:102DD000009A7384B483F083318331846B80012340
:102DE000C5F80A30002A00F066870027CDE9017790
:102DF00006F13E039FED749A9FED74AADFED779A7A
:102E0000CDE90696B34605F10E0A44461E46049ADD
:102E1000FBB29A4200F22A810023AAF80030AAF8F5
:102E2000083033800137042F0AF1020A06F1020646
:102E30000BF1560B04F11404E9D1039BAA89DDF8C8
:102E400004E012FB03F26B8992B213449BB2DDE9FA
:102E50000696591C012089B20090B6F8AC010128F1
:102E600004D1DDE9020404FB00F00290029FB8F8EF
:102E7000640098F863C098F862B04FF6FF74A742F8
:102E800028BF27464408A4F1030A98F86640A6F82C
:102E90009EB18CF0010C0338A6F8A6C1A6F8A47167
:102EA000A6F8A0E1A6F8A801A6F8AAA1AA81AB807D
:102EB000E980002C00F02B81413399B2402401239A
:102EC00029802C81A6F8C031B9F1000F03D0B9F8E0
:102ED0000C30A6F8C231009B002B40F04281349A9E
:102EE00098ED145A00231360089BA6F8B231039B97
:102EF000012B40F23381B8F85830023B01229BB2DB
:102F00009FED336ADFED335A98F85A10F1EE007AEC
:102F1000C8EE066A68EE277A68EE255A87EE867A4A
:102F2000C5EE867AB6EE006A76EE866A37EE067AE7
:102F3000FCEEE66AB5EE405AD8ED155AA6F8AE3169
:102F4000F1EE10FA16EE903A77EE867ABCEEC77A7A
:102F5000A6F8B02114BF01220022FCEEE77A3287E6
:102F600098F85B20A6F8B43117EE103AA6F8B631FF
:102F700017EE903AF5EE405AA6F8B831009BF1EE04
:102F800010FA14BF01200020002B40F0C2803186CF
:102F90007286708598F861300F4A0098C6F8BA2199
:102FA0000121B184A6F8BE311BB0BDEC108BBDE889
:102FB000F08F00BF88000020A8760108C4760108C1
:102FC000E8770108ABAAAAAA2549123E8FC2753D2F
:102FD0000024744900009643FF0701080000000028
:102FE000B5EEC07AF1EE10FA00F1158398F85A2088
:102FF000002A00F01383B5EE407AF1EE10FA05D105
:10300000F5EE407AF1EE10FA40F0C8835FED0D8ADC
:10301000059B754AD3F88030744900209847039B7C
:10302000002B7FF458AE039B049398F85A30002B82
:103030003FF459AE349A00231371A6F8AC31B9F1BC
:10304000000F7FF488AE0123A5F802906B81CE4675
:1030500002214A46CDF80890CDF80090FDE6644C78
:10306000644A059419E6DFED648A30E60123338073
:1030700098F85C90228940F2FF3340F2FF11B9F1D9
:10308000000F18BF0B4652B39A4228D8A27B237C6C
:1030900042B1022B06D1059B584AD3F88030DDE9B6
:1030A000069622E0E07B002840F04982012B00F0E8
:1030B000AF80059B524AD3F880304C490090DDE93F
:1030C00006969847DDF804E0039BAA8912FB03F2F9
:1030D0006B8992B213449BB2591C89B2BDE6059B21
:1030E000484AD3F88030DDE90696404900209847E9
:1030F000039BAA89DDF804E012FB03F26B8992B20C
:1031000013449BB2591C002089B20090A5E62346C7
:10311000D6E6B5EE405AF1EE10FA0AD0C8EE057ABE
:1031200077EE867AFCEEE77A17EE903AB3871B0CBF
:103130007387002361F30F03F5EE405A62F31F43D8
:10314000F1EE10FA708533633FF424AFFCEEE87AB9
:1031500017EE903A1A0CB285F3851BE7002213464E
:10316000CEE698F85D30072B15D8274C9FED229AB4
:10317000234493F87C30A6F8A231349B83ED009A67
:10318000049B002B40F04D8298ED145AACE60320CE
:103190000124002117E6349A98ED145A0023136095
:1031A00000230093A0E6012C40F2EA8198F80F106A
:1031B0004246012303E00133A34200F0E1810846C7
:1031C00092F82310814202F11402F4D2084F0F4A00
:1031D000D7F88040054905970020A047D8ED157A1B
:1031E000D7F88C3062E500BF4C770108C47601083F
:1031F00088000020D8760108000000001878010837
:10320000447801080878010800340108187701089B
:103210006FF00B030993E288A3880A92182A00939F
:1032200040F29D8202EB820303EB031303EB0323C3
:1032300002EB4303C3F3CC0242EA43339BB240F6B2
:10324000AA22934200F2DE82B24B0A9AA3FB022327
:103250001B090E93013B9BB215935C230D9318231E
:103260000B930098002840F0E084059BAA4AD3F80D
:103270008030AA499847B9F1000F00F0C9844FF097
:1032800000090222009B099913FB02F292B20092FC
:10329000226811440A460C910A99013B01FB032361
:1032A000099302F5C34328334CF25032934208D9B4
:1032B000059B9B4AD3F880309849002098474FF0EF
:1032C0000009099B03F5C34328334CF25032934263
:1032D00008D9059B934AD3F880309049002098473D
:1032E0004FF000090C9A002AC0F242838E4880FBFE
:1032F0000230D217C2EBA00000B2099B002BC0F233
:103300002B83894981FB0331099BDB17C3EBA101A7
:10331000119309B280B2091A0C9B0F90824880FB6E
:1033200003C0C2EBA00288B209B20E9B1091B0FBA1
:10333000F3F0411C0A901FFA81FE0B981821B1FB93
:10334000F0F30E930C9B02EB4202B3EBC20200F1CE
:10335000FC8213B2139393B20C93099A7248119B97
:103360000B9980FB020CC3EBAC0303EB430C0C9BEF
:10337000B3FBF1F001FB103081B2B2EBCC03099149
:1033800000F100831AB219929BB20E9A0B98511E4B
:10339000099A89B21891BEF1010F11FB002189B27F
:1033A00000F0F682099A0C98824240F00483994218
:1033B00000F0588400230122139316921493129262
:1033C0000E930C9B9A00099BABF882209B00ABF8F4
:1033D0008430B9F1000F40F0FA826C231793362342
:1033E0000C937D223D234FF00009ABF87C300F9BFE
:1033F000ABF87A200C9A1099C3F1290313441AB23E
:103400001192521A9BB2292A0F9308DC059B474A56
:10341000D3F880304149002098474FF00009119BB4
:10342000179A934208DB059B414AD3F880303B4909
:10343000002098474FF000090D9B2C2B00F21282C0
:103440001E2B40F2E8831E3B0F229BB20D92ABF87D
:103450009A30159B0C99ABF89430139BABF87E1007
:10346000ABF88E300F990A9BABF880100D99ABF832
:103470009610ABF89820002B40F0D281149B002BC3
:103480000E9B08BF00230E93129B002B00F0DD83E0
:10349000099A199B9B1A0B9A93FBF2F39BB2169A0B
:1034A000ABF89220ABF88C300E9AABF88820002352
:1034B000ABF89030ABF88A300A9BABF88630B9F1A4
:1034C000000F40F0BF82CDF80090DDF804E0DDE9A8
:1034D0000696F9E598F81020013A012A7FF60DAC1E
:1034E00022460CE400237363B9F1000F42D001239C
:1034F000009332E4059B0F4AD3F88030074900203F
:103500009847B9F1000F7FF426AC9CE500231A46DA
:1035100009E400BFABAAAAAA90780108C476010802
:10352000DC780108F0780108ABAAAA2A24790108FE
:1035300044790108C87701080022FFF7F4BB013B7A
:10354000042B00F23B8501A252F823F0113200084F
:1035500095370008613500088D370008613500088F
:103560006FF00C03099356E64FF001137363B9F142
:10357000000FBCD100236B800123C5F80A3034E46E
:10358000BA4B98ED157A0593D3F88C30009306EE7C
:10359000903AB5EEC07AF1EE10FAB8EE668A7FF78F
:1035A0001FADC8EE078AF6EE007A78EEA78A18EE0D
:1035B000900A0FF09BFD59B1059BAD4AD3F88030BE
:1035C000AC4900209847039B002B7FF484AB2BE58C
:1035D00098F85A20002A7FF41BAD039B98F85F10DF
:1035E000002B98F8603014BF2046002099420490C8
:1035F00008D9059BA04AD3F880309E4900209847FF
:10360000FFF76CBB022B00F0BB84349B1A71A6F849
:10361000AC21FFF77BBBDFED998ACDE7DFED978A21
:10362000DBE7B6F8AC31B6F8A421012B00F0CC8072
:1036300007EE902ADFED929AB8EE67AAB7EE089AE5
:10364000F2EE02DA059B9FED8F0AD3F88C300193DE
:1036500007EE903AB8EE67FA80EE0F0A0CF04EFAD9
:1036600098F86030022B2FEE00FA00F21F8104EB75
:10367000830498F85E3094ED21EAD4ED24FA002B0F
:1036800000F02681009BDFED7DEA9FED7FBA9FED84
:103690007FDADFED7FCA9FED7FCADFED7FBADFED16
:1036A0007FAADDF8149044460025227C052A00F20A
:1036B0009280022A40F29A804FF0300A0827E27B7B
:1036C000052A00F27084DFE802F03E413B034744E4
:1036D000F0EE4B7A8FEE276A228998F85E1002FB93
:1036E000077702377F00BFB2A288013514349FEDFF
:1036F0006C7AC6EE076A07EE90AAF8EE677A87EE54
:10370000A66A07EE907AF8EE677A87EEA67A07EE59
:10371000902AF8EE677AEAB267EE277A914277EE5E
:10372000867A77EEA97A77EE897A7EEEA7EABCD818
:1037300098ED145A002B40F0CF800093FFF7D4BBD4
:10374000F0EE6A7AC6E7F0EE6C7AC3E7F0EE4D7AF7
:10375000C0E7F0EE4C7ABDE7F0EE6B7ABAE70A9A72
:10376000002A4FD01823B3FBF2F302FB03F3C3F19B
:1037700018039BB21593002B44D10A9A0B92531E47
:103780009B009BB20D9301230E936AE56FF00F032C
:10379000099340E56FF0060309933CE598F85F2034
:1037A00098F860309A427FF431AC039B349ADFED95
:1037B000338A002B14BF2346002304930023137184
:1037C000A6F8AC31FFF7A2BAF0EE499AF0EE49DA6A
:1037D000B0EE49AA36E7D9F88030324A25490020B0
:1037E00098474FF0180A0427002368E7012A05D0FC
:1037F000022AF0D14FF03C0A0A2760E74FF0480A4E
:103800000C275CE7059B284AD3F880301949002033
:10381000984700230122CDE90D3215930B922AE53A
:10382000149B002B0E9B08BF00230E93129B33B1F9
:10383000099A199B9B1A0B9A93FBF2F39BB2ABF874
:103840008C300A9B169AABF89220013B0E9AABF88B
:1038500088209BB2189A0A930123ABF88A20ABF810
:10386000903029E600230D931A46F0E588000020E9
:1038700038770108C4760108787701080000000055
:103880009A999D41F902154F000090430000204392
:10389000000000430000F0430000C043000040432C
:1038A000002474496C7801087C780108059BC04AA3
:1038B000D3F88030BF490020984798F85E30002B3D
:1038C00000F0F481DFEDBCFA0023B0EE6FEADAE637
:1038D00098ED145ADFEDB8EA9FEDB87ADFEDB86ADB
:1038E000349BCFEE077AB1EE0C7AC7EEA65A2AEED9
:1038F00007AA7FEE8EFACAEE257A9FEDB27A77EEAE
:10390000AD7AB0EE006A77EEAE7A77EEAF7A27EE58
:10391000877A37EE067A77EE277A86EEA77AB4EEC4
:10392000C57AF1EE10FA83ED007A7FF5DDAA059BEA
:10393000A54AD3F880409F49FDEEC77A002017EED4
:10394000903AA047002300931EE402F1180083B2CE
:103950000C9303B2139300E509999C4BC943A3FB55
:103960000131099B6FEA1111DB1709B21193D1E400
:103970000C9A964BD043A3FB00306FEA101000B2B4
:10398000D217BAE403F1180002B283B21992FCE430
:103990000C98824200F0638100220A9216921292E1
:1039A000139A9B1A0B9A93FBF2F39BB20E9301238B
:1039B000CDE9133305E5994200F05E810A9B013B96
:1039C0009BB20A930123169312930B46E8E7E37B1D
:1039D000052B00F21983DFE803F01A130C032B21E7
:1039E0004FF486731793D6230C9340F21D128D2348
:1039F000FBE4AC23179376230C93BD225D23F4E400
:103A00008C23179356230C939D224D23EDE46C23B6
:103A1000179336230C937D223D23E6E44FF4E6739F
:103A200017934FF4CB730C9340F2DD12ED23DCE4DB
:103A30004FF4B67317934FF49B730C9340F27D12BF
:103A4000BD23D2E4A37A172B00F20181092B00F2E7
:103A50001F81C3F109039AB21523ABF84630069BC8
:103A6000ABF84820002B00F0608203EB4202938900
:103A7000ABF84A30237C013B042B00F2A682DFE83E
:103A800003F0BC7703AB85004FF000094FF40072E0
:103A90004FF4C063CDE909234FF0C00E02204FF070
:103AA000040C08214A464B46ABF86E000A98ABF866
:103AB00056000998ABF870C0ABF85800ABF84E1040
:103AC000ABF85010ABF852E0ABF854E098F85D104A
:103AD000B9F1000F00F00A81002B00F007810229E4
:103AE00000F27C813A4B0B4493F87830ABF85A30B3
:103AF000069B002B00F01D810023ABF85E300123F4
:103B0000ABF86A30069B0021D3E932ECD3F8C490BD
:103B10000B460EEB1140A0EB09009042614480F28D
:103B2000328201330F2BF4D1069AABF86030D2E920
:103B300036E303EB83020EEB1242F92A00F3F18124
:103B4000062003FB00F0052103E0BCF1FA0C40F174
:103B5000DC810A46013189B214290EEB104C18445D
:103B6000F3D1059B1B4AD3F88030DDE906963BE193
:103B700000214FF40073CDE909134FF0400E0320EC
:103B80004FF0020C08219622FA238DE74FF000092E
:103B90004FF4F0504FF47853CDE909034FF4F86E29
:103BA00002204FF00B0C08214A464B467CE700BF31
:103BB000E8770108C47601080000000000002043F7
:103BC000002474490AD7233CC0790108ABAAAAAAE9
:103BD00000340108947901084FF000094FF4C06CDB
:103BE0004FF46063CDE909C34FF4E07E02204FF04B
:103BF000060C08214A464B4656E7069B9B8C04223E
:103C0000082BCBF86E205DD9DDE90696FFF770BA78
:103C10000422FFF737BB0D9B0F2B32D9A3F10F0204
:103C20000F230D9392B2002311E4B9F1000F2CD1B0
:103C3000237B002B35D0059BC64AD3F88030C6497C
:103C4000484698470422FFF71DBB0A9B27E4059BC3
:103C5000C24AD3F88030DDE90696FFF746BA9942AA
:103C60007FF49AAE0023CDE91333CDF828E0169304
:103C700012930E93FFF7A5BB0023169312930B46E6
:103C80008EE600221346FFF7E2BB0222FFF7FABAE4
:103C9000102B94BFC3F11E03C3F117039BB2002284
:103CA000DBE64FF001090422FFF7ECBA98ED145A55
:103CB0000093FFF719B90098029086460221024648
:103CC000FFF7CBB8ABF84E30ABF8503040230022B2
:103CD000ABF85230ABF854304FF40073ABF85630B9
:103CE000ABF8582098F85D1013469146072975D80F
:103CF0009B48014491F87C10ABF85A100699C1B169
:103D00000021ABF85E10B9F1000F40F08480ABF8F1
:103D10006A90ABF86090ABF85C90ABF86290ABF84F
:103D20006890ABF864904A460023ABF86620ABF885
:103D30006C302389E27AABF87620012B68D0023B05
:103D40009BB20121ABF87230A37BABF84C3083F00F
:103D50000103ABF87410ABF878300099AB89AAF87E
:103D600000300B44AAF80810AB81A388217C06EE32
:103D7000903A2389012907EE103ABBF86E302AD019
:103D8000022914BFF0EE695AF0EE4A5A01339BB291
:103D900007EE903AF8EE677AB1EE006AF8EE666ADE
:103DA00067EE867AB8EE477A67EEA67A0198029BAC
:103DB00067EE877A014667EEA57A002808BF1146AC
:103DC00067EE897A0191FCEEE77A17EE902A1344A8
:103DD0000293FFF727B8DFED635AD7E7059B624AE6
:103DE000D3F88030DDE906965B4900209847039BB5
:103DF000AA89DDF804E012FB03F26B8913FA82F35F
:103E00009BB2591C002092B289B20090FFF725B8EE
:103E10000023194696E70121ABF86A10002B7FF4C6
:103E200071AEABF8603019461A46ABF85C20002240
:103E3000ABF86220ABF868204BBBABF864301A4695
:103E400002EB0109069AD2E92FE1CE451DDA0846B8
:103E5000002202F1010C09921FFA8CF2162A3FF49B
:103E600080AE0EEB104CBCEB090C0844F1D4002BD7
:103E70007FF45AAF099800FB01F10EEB1143A9EB57
:103E800003039C45C8BF02464EE700224CE7069B51
:103E9000D3E9349C894546DA134662469E4601338F
:103EA0009BB2162B3FF45DAE09EB1240401A624400
:103EB000F4D40CFB0EF209EB12428A1A9042D8BFDE
:103EC0009E460699BBF86020D1F8CC30BBF85C0068
:103ED000099002FB03F3D1F8C820ABF864E002EBD1
:103EE00013420B46D1F8C410521AD3E936303FF5CD
:103EF00038AE09990CFB0EFE00FB01F103EB1143F8
:103F000009EB1E401918FA239AE702FB03F30EEBA4
:103F10001343C3F1FA039C45D8BF0A46FA210B4666
:103F200083E70522FAE79646CBE7069BABF84A30D3
:103F3000237C013B042B48D801A252F823F000BF98
:103F40008B3F0008713B0008893A0008D93B000804
:103F50008D3B0008A4780108C47601085C7901084B
:103F600000340108CDCC4C3E74790108349A1371A9
:103F7000A6F8AC31B9F1000F7EF4EDAEFFF763B8EF
:103F80000123FEF7B7BE9BB2CEE54FF000094FF418
:103F90000073CDE909934FF0400E0420CC46022176
:103FA0004A464B4680E5D9F880301C4A1C4900201F
:103FB0009847DFED1C7A0023FFF78CBB059B1A4A5C
:103FC000D3F88030DDE906960EE7059B164AD3F854
:103FD000803013490020DDE906969847AA89039BA3
:103FE000DDF804E012FB03F26B89562113FA82F329
:103FF00001FB076100209BB2C1F86E00591C92B210
:10400000009089B2FEF729BF059B044AD3F880309F
:10401000034900209847FFF7E0B900BF187901086D
:10402000C4760108000000436C78010870B5FEB04A
:104030004FF4E27204460D460DA8002103AE0DF0C8
:10404000A3FC00960DAA05AB00212046FEF7F4FD67
:1040500008B97EB070BD94F85B202B46314605A8A8
:10406000FDF7FCFB7EB070BDBFF34F8F0549064BDB
:10407000CA6802F4E0621343CB60BFF34F8F00BF06
:10408000FDE700BF00ED00E00400FA0530B4224B6C
:10409000D3F89020D36813F00803FBD1946A156914
:1040A00011685268C1F3015000EB800001F07F32CB
:1040B000C1F3034111EB400118BF184B22F0FE423F
:1040C00018BF4B43C2F3023101EB8101C2F303205D
:1040D00010EB41001CBF4EF6602101FB0033C2F320
:1040E000021101EB810102F00F0212EB4102C5F354
:1040F0000E0518BF4FF47A71A5EB040018BF01FB41
:1041000002334FF47A72013502FB00F0B0FBF5F098
:1041100030BC1844704700BF8800002080EE360095
:10412000FEE700BFFEE700BFFEE700BFFEE700BFFF
:10413000FEE700BF704700BF704700BF704700BF79
:10414000024AD36E0133D366704700BF8800002057
:104150000C4B0D49D3F890204FF480104861D16882
:10416000490503D4012283F8B1207047D168C9B250
:1041700061F49061D1600120012283F8B40083F8DA
:10418000B12070478800002000040140034B5A69A9
:10419000120744BF08225A61704700BF0004014063
:1041A0000148FCF7ABB900BF400100200148FCF713
:1041B000A5B900BF880100200148FCF79FB900BFE6
:1041C000D00100200148FCF799B900BF1802002077
:1041D000084810B4D0F8D831D0F80C4299691A6860
:1041E0002CB1234600F5EC705DF8044B18475DF8E0
:1041F000044B704788000020034B5A69120544BFE6
:104200004FF400625A61704700040140034AD2F83B
:10421000883043F47003C2F88830704700ED00E046
:1042200030B52B4D8DB02C22002101A80DF0ACFB38
:10423000D5F82C42002C43D0FFF728FF254BD5F8AA
:104240009C1003910444A3FB0423234A5B0D02FB4F
:104250001344224AA2FB0402920B4EF6602505FB92
:1042600012448DF805201E4A1E48A2FB0352120973
:1042700002EB4202A3EBC2038DF80430A0FB04233F
:104280009B094FF47A7202FB134401FB0444A0FB28
:1042900004048DF80630A1EB94114FF480704FF0B8
:1042A00000424FF0606302910B900692089308F071
:1042B000BDFA18B901A808F04DFC38B1FFF7D4FEDB
:1042C00008F0B4FA0028F9D185F830020DB030BDFD
:1042D00088000020B17C219580EE360073B2E7455E
:1042E000ABAAAAAAD34D621010B5164C164AD4F840
:1042F00090304FF4802151619A68D20402D5DA6877
:10430000D00512D49A68910402D5DA68920503D4D4
:10431000012384F8B13010BDDA68D2B262F42072A1
:10432000DA60012384F8B13010BDDA68D2B262F4E9
:10433000C072DA60012184F83012FFF771FFD4F8FF
:104340009030DFE78800002000040140F0B50468E9
:104350000546200583B000F1F3800026A1034ED569
:10436000A34B9A6DD20040F1F5800027A149A24AE3
:104370000B6843F480730B60D06E04E0D36E1B1A9D
:10438000022B00F200810B68DB05F7D5A6BB98492C
:10439000A86DD1F8903013F4407325D0834223D018
:1043A000D1F890C0D1F8903043F48033C1F8903008
:1043B000D1F8903023F48033C1F890301CF0010F15
:1043C0002CF44073C1F890300ED0D2F86CE041F27A
:1043D000883C05E0D36EA3EB0E03634500F2D38067
:1043E000D1F890309B07F5D5814AD2F8903023F46C
:1043F00040730343C2F89030002F40F0C880E107BB
:1044000008D57B4A296AD2F8883023F003030B438E
:10441000C2F88830A20708D5754A696AD2F8883090
:1044200023F00C030B43C2F88830630708D5704AA9
:10443000A96AD2F8883023F030030B43C2F88830E1
:10444000A70608D56A4AE96AD2F8883023F440639F
:104450000B43C2F88830A00508D5654AE96BD2F84D
:10446000883023F440230B43C2F88830610508D517
:104470005F4A296CD2F8883023F440130B43C2F80A
:104480008830620608D55A4A296BD2F8883023F45E
:1044900040530B43C2F88830230608D5544A696B51
:1044A000D2F8883023F440430B43C2F88830E70544
:1044B00008D54F4AA96BD2F8883023F440330B4318
:1044C000C2F8883020030ED5494AA96CD2F888304A
:1044D00023F040630B43B1F1006FC2F888305CD029
:1044E000B1F1806F74D061030ED5414AE96CD2F806
:1044F000883023F040630B43B1F1006FC2F888307D
:1045000050D0B1F1806F6BD062040BD538492A6D61
:10451000D1F8883023F040531343B2F1805FC1F8E3
:1045200088304DD0230408D5314A696DD2F88830DF
:1045300023F080430B43C2F88830304603B0F0BD0F
:104540006F6CB7F5000F10D0B7F5400F12D077B3EE
:10455000012603E79A6D42F080529A659B6D03F045
:1045600080530193019B012700E7214AD36843F45C
:104570008033D3601E4AD2F8883023F440033B4393
:10458000C2F88830E9E60326002F3FF438AF184A16
:10459000936D23F08053936531E7D36843F4801320
:1045A000D360A0E7D36843F48013D360ACE7394607
:1045B000281DFCF7C9FD064600287FF4CFAED9E7D9
:1045C0000221281DFCF7C0FD002818BF0646A9E7F8
:1045D0000121281DFCF7B8FD002818BF064682E718
:1045E0000121281DFCF7B0FD002818BF06468BE707
:1045F0000010024000700040880000202DE9F041CA
:10460000C16F05689EB00446002947D02423E367A4
:104610002A68636A22F001022A60002B40F0AD8014
:10462000D4E90412A36828680B431343E169A74A3D
:104630000B43024013432B606B68E26823F4405342
:104640001343A34A6B609542A369AA6800F0DB801C
:10465000206A22F43062034313439E4AAB609542C2
:1046600000F048819C4B9D4240F00C8103F5E633FD
:10467000D3F8883003F00C030C2B00F26181DFE8E3
:1046800013F0D2015F015F015F0110015F015F0163
:104690005F016F015F015F015F01680180F87810C1
:1046A0005C2207A80DF070F98A4B9D4200F0EE8164
:1046B000894B9D42AAD1022707A80797FFF746FE1C
:1046C0000646002840F01882844B854D9A6D42F4CE
:1046D00000329A659A6D02F400320492049ADA6C00
:1046E00042F00102DA64DB6C03F00103039307225A
:1046F0000323CDE90032039903463A464FF0904038
:104700000F214FF0800809F075FFC5E95376C5E920
:104710005568C5E95766C5E9596605F5A476714B34
:10472000C5F84831304608F0E1FA002840F0E4814D
:104730006667102305F5C876C5E96708C5E969000D
:10474000C5E96B00C5F898313046674BC5F89471E0
:10475000C5F87041C5F8903108F0C8FA0146002844
:1047600040F0CA8126672620C5F8B84108F060FBF2
:104770005E4B40225A60256848E71E0705D56A68E7
:10478000616B22F400420A436A60D80705D56A6863
:10479000A16A22F400320A436A60990705D56A6863
:1047A000E16A22F480320A436A605A0705D56A68D2
:1047B000216B22F480220A436A60DF0605D5AA68CD
:1047C000A16B22F480520A43AA609E0605D5AA680E
:1047D000E16B22F400520A43AA60580609D56A68C0
:1047E000216C22F480120A43B1F5801F6A6000F048
:1047F000028119067FF514AF6B68A26C23F40023C5
:1048000013436B600CE722F4306213433349AB600F
:10481000D1F8883003F44063B3F5006F00F087806F
:1048200000F2E380002B00F05781FCF7EDFB064619
:10483000002E7DD16A682A49002322F49042C4E9FF
:104840001A336A60AA6822F02A02AA602A6842F033
:1048500001022A60C4F88430CE6E2B681A0700F17A
:1048600085802B685B0700F19C800023202218467E
:10487000E26784F87830C4F88020236663661EB04F
:10488000BDE8F0811A4B9D425AD103F5E433D3F8C9
:10489000883003F03003202B62D058D8002B00F072
:1048A000C280B1F5004F00F02E81FCF7ADFB00286F
:1048B000C0D0636800EB5300B0FBF3F04FF6EF732A
:1048C000A0F110029A423BD8E860B3E7F369FFEF2A
:1048D00000800040003801400044004000100240C9
:1048E000880000206C0002408000024000E100E0EF
:1048F0000048004002F55842D2F8883003F0030324
:10490000022B2DD0032B24D0012BCAD0864BB1F51E
:10491000004F186800F098809268844BC2F3C2225E
:10492000134493F89C3003F01F03D840BFE7804E38
:10493000626802EB4203B34202D8B6EB023F61D990
:104940000023C4E91A3301201EB0BDE8F081302BEA
:10495000F6D1B1F5004F00F0D3804FF40040A8E746
:10496000B1F5004F00F0CA807148A2E76FF07E43B6
:1049700032464FF40011204608F01CFA00283FF49C
:1049800070AF236853E8002F22F0800243E8002133
:104990000029F7D12023E367002384F8783003202F
:1049A000D2E76FF07E4332464FF48001204608F094
:1049B00001FA00283FF459AF236853E8002F22F48E
:1049C000907243E800210029F7D103F1080252E870
:1049D000002F22F0010203F1080040E80021002925
:1049E000F3D12023C4F88030D6E7B3F5406FA7D1C8
:1049F0004FF400469CE76A68616C22F4C0020A43E7
:104A00006A60F6E60023500819464FF48077E6FB0B
:104A100007010AF0ADF8474BA0F540729A428FD8D3
:104A2000454BD86006E7B1F5004F6FD0434A3F4B86
:104A300092683D49C2F302221344086893F89C30FF
:104A400003F01F03D84032E79268384BC2F3C2220A
:104A5000134493F89C3003F01F03D84000283FF420
:104A6000E9AE4300626803EB5203B3FBF2F34FF687
:104A7000EF72A3F1100191423FF662AF23F00F02F3
:104A800092B2C3F342031343EB60D3E6012307A8BA
:104A90000793FFF75BFC034670BB284A116E41F495
:104AA00080411166116E01F4804106910699D16C26
:104AB00041F00101D164D26C02F00102059207219C
:104AC0000322CDE90021059802224FF4C0614FF086
:104AD000904009F08FFD99E58A68144BC2F30222D9
:104AE0001344114A93F89C30166803F01F03DE400C
:104AF000002E3FF49FAE1BE7FFF7B6FA104BB1E76D
:104B00004FF48033AEE7FCF77FFAA7E70B4A074B79
:104B100092680549C2F302221344086893F89C3056
:104B200003F01F03D84099E700000020003401087B
:104B30000024F400FFFC0F00008000400010024041
:104B40000048E801F0B5CA4CD4F82C328BB0002BE9
:104B500000F0D981C74B1A683F21C4F844135203AF
:104B600058BF1A68C34B54BF02F480324FF4A022DE
:104B7000C4F8482319685A68186801F00101C2F3A3
:104B80000722C4E9D71219685A6800F0F00001F44E
:104B90008071C4F86403C4F85013D3F89010B64879
:104BA000C2F30462C4F854234F0758BFD3F89020CF
:104BB000B04B54BF02F001020522D3F89410C4F8A0
:104BC0004C23D3F8982001F0010102F00102C4F84F
:104BD0005813C4F868231968DA6811F0807F0CBF95
:104BE0000121022102F00302C4E9DB12DA68D9686C
:104BF000C2F302120132C1F30621C4E9DD21D968F2
:104C0000DA68C1F34151C2F3416201310132490016
:104C10005200C4E9E012D9689A68C90E02F0030292
:104C20000F25C4F88853C4F87C13C4F88C23996802
:104C30009A6801F0F00102F4E062C4E9E4129A68B3
:104C4000016894F8190284F8A003D20802F4E06223
:104C500001F00701C4E9E621242284F81922D4F8DE
:104C6000D82186481168824221F00101116000F0CC
:104C7000ED810023A268C4F81C32022184F81932A5
:104C800084F81832C4F8083284F81A3284F86510AF
:104C900013687B4923F040038A42136000F0EC81E3
:104CA0000022A266D4F8343284F865202421D4F896
:104CB000B40284F86420C4F8B0121968C4F8A403DC
:104CC00021F0010119606F491A608B425A609A60A5
:104CD00000F0AD816C4A934200F08C820023D4F83E
:104CE000BC22C4F8B8322421C4F8B03284F8AC3203
:104CF000C4F8B432C4F89432C4F89832C4F8381303
:104D00001168604821F00101824211601360536014
:104D1000936000F045825C4B9A4200F08782554ACE
:104D20000023C4F84033C4F83833C4F83C33C4F823
:104D30001C33C4F82033D06CD16C84F8343300F0C9
:104D40000100C1F34001C4F8C403C4F8E413D06CFB
:104D5000D16C41F00101D164D16CC0F3C01001F0FD
:104D600001010491C4F804040499D16C41F00201DA
:104D7000D164D16C01F0020103910399D16C41F02F
:104D80008001D164D26C4FF0904C02F0800202920C
:104D90000299DCF80010C4F8A813DCF80410C4F879
:104DA000AC13DCF80810C4F8B013DCF80C10C4F82D
:104DB000B413DCF82010C4F8B813DCF82410334A1C
:104DC000C4F8BC131168C4F8C8135168C4F8CC13F4
:104DD0009168C4F8D013D168C4F8D413106A516A2A
:104DE000C4F8DC1302F5C052C4F8D8031168C4F843
:104DF000E8135168C4F8EC139168C4F8F013D16853
:104E0000C4F8F413116A089D526A099EC4F8F81395
:104E1000C4F8FC2301204FF60F714FF0030E00FA87
:104E200003F20A424FEA430203F1010306D0DCF821
:104E300000700EFA02F23A43CCF80020102BEED1AB
:104E4000CDE900561148002303224EF6F57109F012
:104E5000D1FBCDE900560E48002303224FF6F67130
:104E600009F0C8FB034BDA6C22F0010212E000BF2C
:104E7000880000200010024000200240005800403E
:104E80000030014000380140004400400004004868
:104E9000001C0048DA64DA6C22F00202DA64DA6C90
:104EA0004FF0E02122F08002DA640B6923F0020364
:104EB0000B61FFF7EBF894F8303205464BBBBE4967
:104EC000BE4A07E062B6BFF34F8FBFF36F8F94F80F
:104ED0003032F3B972B6BFF34F8FBFF36F8F94F8D0
:104EE0003032002BEED10B6823F0070343F00103AF
:104EF0000B60136943F00403136130BF136923F09F
:104F000004031361DEE7AE480BB0BDE8F0400DF0DE
:104F1000E7B9002384F83032FFF7B8F8401B05D515
:104F200000F1A46000F5CB2000F58060E36E4FF047
:104F3000E0220344E3661369A24843F002031361CD
:104F4000FCF712FFD4F89C139F48FDF7E7F94FF0E8
:104F500090400121FBF71CF9D4F8A823D4F8C4131E
:104F60000260D4F8AC234260D4F8B0238260D4F855
:104F7000B423C260D4F8B8230262D4F8BC234262DE
:104F8000003918BF0121FBF703F900F5806001210A
:104F9000FBF7FEF8D4F8C833D4F8E4130360D4F870
:104FA000CC334360D4F8D0338360D4F8D433C360B7
:104FB000D4F8D83303620039D4F8DC33436218BF25
:104FC0000121FBF7E5F800F5C0500121FBF7E0F8FF
:104FD000D4F8E833D4F804140360D4F8EC33436015
:104FE000D4F8F0338360D4F8F433C360D4F8F833E2
:104FF0000362D4F8FC334362003918BF0121FBF788
:10500000C7F809F0F3FB94F8A033282B00F0B78021
:1050100009F080FC6D48FFF7F1FAD4F8A433222B95
:105020003BD06B480BB0BDE8F040FFF7E7BA02F1A8
:10503000804202F504324FF4C061136E23F48043C2
:105040004FF090401366FBF7A7FA47E69A6D614868
:1050500022F480029A654FF48061FBF79DFA4FF4C9
:105060000061FBF799FA5C4B0222C3F88420BFF37E
:105070004F8FBFF36F8FFCE5584A136E23F48053B4
:10508000E02113664FF09040FBF786FA206E09F09E
:105090000BFDE06D09F008FD02E6D4F8A802D4F893
:1050A0008822B4F88C32D4F8B412002800F0D980E9
:1050B0002029B6D1002AB4D0002BB2D00021D4F8D8
:1050C0003452C4F8941246498D4203D069680E02E6
:1050D00000F147810021C4F8B8122221C4F88822C7
:1050E000A4F88C32C4F8B4123E49C1623E4901634F
:1050F0003E4941630021816305F12401FBF79AF8E1
:10510000002840F05181D4F8443293B155E8003F73
:1051100043F4807345E800324AB1D4F8342252E8AF
:10512000003F43F4807342E800310029F5D1D4F800
:10513000345205F1080353E8003F43F0010305F141
:10514000080141E8003262B1D4F8342202F10803C8
:1051500053E8003F43F00103083242E800310029E0
:10516000F2D1D4F8342202F1080353E8003F43F0AF
:105170004003083242E800310029F2D151E794F8A7
:105180001922202A7FF444AFD4F8D82184F81932A8
:1051900013681749C4F80C1243F0B803136037E7DB
:1051A0000E4A136E23F480434FF4C0614FF09040D9
:1051B0001366FBF7F1F9B2E50070004000ED00E086
:1051C000E0790108CC03002010040020BC0200207C
:1051D000440300200004004800E100E00010024009
:1051E000008000408112000809130008E1580008FF
:1051F0002525000802F5E6320F21936D23F40033D4
:1052000093654FF09040FBF7C7F9D4F8A80209F076
:105210004BFCD4F8A40209F047FC734B4022C3F8BE
:105220008420BFF34F8FBFF36F8F57E56F4A936DA5
:1052300023F4003393650F214FF09040FBF7ACF956
:10524000D4F8300309F030FCD4F82C0309F02CFC1E
:10525000654B4022C3F88420BFF34F8FBFF36F8F9D
:105260005DE520297FF4DDAE002A3FF4DAAE002BA5
:105270003FF4D7AED4F83412C4F894025C488142AB
:1052800015D04868000212D551E8000F40F0806048
:1052900041E800054DB1D4F8340250E8001F41F058
:1052A000806140E80015002DF5D1D4F83412D4F80F
:1052B0003C52C4F888220020B5F5805FA4F88C32F7
:1052C000A4F88E32C4F89C0200F08580002D78D1BD
:1052D000D4F84432002B0CBFFF207F200022222371
:1052E000C4F8B822A4F89002C4F8B43201F108035B
:1052F00053E8003F43F00103083141E8003262B156
:10530000D4F8342202F1080353E8003F43F00103CC
:10531000083242E800310029F2D1D4F83C22D4F816
:105320004432B2F5805F46D0324AC4F89C226BB159
:10533000D4F8342252E8003F43F4907342E800313D
:105340000029F5D16DE62C4BC4F89C32D4F83422F8
:1053500052E8003F43F0200342E800310029F5D134
:105360005FE655E8001F41F0806145E8001048B154
:10537000D4F8340250E8001F41F0806140E8001585
:10538000002DF5D10021D4F8A802C4F8B8122221CA
:10539000D4F83452C4F88822A4F88C32C4F8B41279
:1053A00000283FF4B0AE9FE610222023C4F8B822B4
:1053B000C4F8B43235E6002BC5D00E4BC4F89C328D
:1053C000B6E7B5F1805F89D1D4F84432002B0CBF29
:1053D0007F203F2082E7D4F84432002B40F2FF10B8
:1053E00018BFFF207AE700BF00E100E00010024094
:1053F0000080004025130008F5130008F0B4C56FC5
:10540000202D4AD10C4601B112B90120F0BC7047E1
:10541000194600252123C0F88450C3678368294FAB
:10542000A0F85020B3F5805FFE6EA0F8522037D070
:10543000B0F85220036892B2B2B1DA69120604D40D
:105440004A1C1DD1DA691206FCD504B314F8012BED
:105450001A85B0F85220013A92B2A0F85220B0F862
:10546000522092B2002AE8D1DA69520604D44C1CC8
:105470001CD1DA695106FCD52023C3670020C5E79B
:10548000FA6E921B914218D3B9B11A68D5E735F874
:10549000022BC2F308021A85DBE70220F0BC70473A
:1054A0000369002BC4D125461C46C1E7FA6E921B46
:1054B000914202D309B11A68D6E72023C367F0BC32
:1054C0000320704788000020026852E8003F23F460
:1054D000907342E800310029F7D102F1080353E844
:1054E000003F23F0010302F1080C4CE800310029D1
:1054F000F3D1036E012B06D000232022C0F88020B8
:1055000083660366704752E8003F23F0100342E8C9
:1055100000310029F0D052E8003F23F0100342E8A8
:1055200000310029EFD1E7E770B5AE4CD4F8345222
:10553000EB692A68A96840F60F00034240F08780B3
:10554000980602D5960600F1F380D4F8940201285B
:1055500016D0D80202D5490200F1F4801E0605D407
:10556000590602D5530600F1258170BD1006F7D506
:10557000D4F8A032002BF8D0BDE870409A48184704
:10558000DE06E6D5D006E4D510232B62AB68B4F86E
:105590008C225B0640F14281D4F8A83219684B682E
:1055A0009BB2002B00F07C81934280F07981A4F8BB
:1055B0008E320B689E0644D455E8003F23F4807376
:1055C00045E800324AB1D4F8342252E8003F23F4CF
:1055D000807342E800310029F5D1D4F8342202F179
:1055E000080353E8003F23F00103083242E800318A
:1055F0000029F2D1D4F8342202F1080353E8003F25
:1056000023F04003083242E800310029F2D1202380
:10561000C4F8B432C4F89412D4F8342252E8003FEB
:1056200023F0100342E800310029F5D1D4F8A83264
:1056300093F82520022A00F03A810422DA6383F8E5
:1056400024100223C4F89832B4F88E3270BD11F0E1
:10565000010640F09E80654802423FF476AFD807CD
:105660000FD5D10540F1D68001212962D4F8B812B6
:1056700041F00101C4F8B81299076BD5002E40F033
:105680008C8058077DD51E0700F1C1801E050AD504
:10569000500108D54FF400612962D4F8B81241F0E6
:1056A0002001C4F8B812D4F8B81200293FF45DAF55
:1056B000990602D5920600F1A080D4F8B822AB6812
:1056C00002F0280203F04003134300F0E68046484E
:1056D000FFF7FAFEAB685B067FF547AF05F10803FD
:1056E00053E8003F23F0400305F1080141E8003290
:1056F00062B1D4F8342202F1080353E8003F23F0EA
:105700004003083242E800310029F2D1D4F8A8025F
:1057100000283FF42AAF364B8363FAF7CBFE00280C
:105720003FF423AFD4F8A802BDE87040836B18475C
:10573000D4F89C32002B3FF418AF04F50D70BDE88F
:10574000704018474FF480132B6270BDD1058BD485
:10575000980722D4590714D5002E94D00421296229
:10576000D4F8B812180741F00201C4F8B8128DD568
:1057700008212962D4F8B81241F00801C4F8B8121F
:1057800084E7190782D502F0200131433FF47EAF50
:10579000EEE7D807DAD499072CD502212962D4F88C
:1057A000B8125E0741F00401C4F8B812D6D4190744
:1057B000DED46BE755E8003F23F0400345E80032B4
:1057C0004AB1D4F8342252E8003F23F0400342E8C3
:1057D00000310029F5D120220023C4F8B022C4F8FA
:1057E000A03270BD88000020BC020020200100040F
:1057F000151300085E07B1D4D9E7D4F89C32002B0A
:105800003FF45BAF35489847D4F8345255E79006DB
:10581000AED43BE798073FF534AF9BE7B4F88E1260
:10582000B4F88E329BB289B2002B3FF49EAE914207
:105830003FF49BAE55E8003F23F4907345E80032F7
:105840004AB1D4F8342252E8003F23F4907342E87E
:1058500000310029F5D1D4F8342202F1080353E8CD
:10586000003F23F00103083242E800310029F2D161
:105870002023C4F8B432C4F89C12C4F89412D4F8AB
:10588000342252E8003F23F0100342E8003100299F
:10589000F5D10223C4F8983270BDC4F8B83270BD97
:1058A00093427FF462AE0B689D06F2D470BD1A6815
:1058B0001D6C106820F00E001060106820F00100D0
:1058C00010605A6C012002F01C0200FA02F26A60B9
:1058D00083F8250083F82410B3E600BFBC02002043
:1058E000806A0368C16F10B5D0F880409A681206CC
:1058F00001D521290BD09B685B0601D5222C1DD038
:10590000D0F8843043F01003C0F8843010BD00227A
:10591000A0F8522053E8002F22F0C00243E80021F3
:10592000026839B152E8003F23F0C00342E8003179
:105930000029F7D12023C3671346DCE70023A0F832
:105940005A30FFF7C1FDD0F8843043F01003C0F89F
:10595000843010BD10B5084950226C2006F0A6FF17
:10596000044630B1054B40F8043B054968220CF071
:1059700039FC204610BD00BFF47301080FB0371387
:10598000A434010808B518B1074B02689A4208D040
:10599000064B074AD3F8803006490020984701207B
:1059A00008BD90F8620008BD0FB0371388000020D2
:1059B000DC730108F473010808B518B1074B0268DD
:1059C0009A4208D0064B074AD3F880300649002097
:1059D0009847002008BD012008BD00BF0FB0371355
:1059E00088000020DC730108F473010838B5044610
:1059F0000D46FFF7E1FF08B184F8625038BD00BFE3
:105A000038B504460D46FFF7D7FF08B1A4F85C503F
:105A100038BD00BF10B1024B9B6F1847704700BFE5
:105A20008800002010B50446FFF7C6FF00B910BD7E
:105A3000002323602046BDE81040EBE770B50C461C
:105A400018B11F4B0168994208D01E4D1E4AD5F867
:105A500080301E490020984754B370BD3CB3416864
:105A600082600868B0F89430028F04EB430304EBC3
:105A70004202C364B0F896304261D0F8982004EB3B
:105A8000430303654AB1B0F89C3004EB4303136150
:105A9000B0F89E3004EB43035361B0F8E4204B6848
:105AA00004EB4204C0F8B040BDE870401847054D13
:105AB000D5F88030064A0549BDE8704000201847F7
:105AC0000DB0371388000020587A01084C7A01087D
:105AD000347A010810B520B10C4B02689A42044692
