:020000040800F2
:10000000000001202DC00008B11E0008B51E000828
:10001000B91E0008BD1E0008C11E00080000000037
:10002000000000000000000000000000C51E0008E5
:10003000C91E000800000000CD1E0008D11E0008E7
:100040007DC000087DC000087DC00008E11E0008DA
:100050007DC000087DC000087DC000087DC000088C
:100060007DC000081D1F00087DC000087DC000087D
:10007000311F00083D1F00087DC000087DC000083A
:10008000491F0008551F00087DC000087DC00008FA
:100090007DC000087DC000087DC000087DC000084C
:1000A0007DC000087DC000087DC000087DC000083C
:1000B0007DC0000800000000000000007DC00008B6
:1000C0007DC00008611F00087DC000087DC00008D9
:1000D0007DC000087DC00008F13500087DC0000823
:1000E000891F00080921000800000000000000002E
:1000F0000000000000000000000000000000000000
:10010000000000007DC00008000000007DC0000865
:1001100000000000000000007DC000087DC0000855
:100120007DC000087DC000087DC000087DC00008BB
:100130007DC000080000000000000000000000007A
:100140007DC000087DC000087DC0000800000000E0
:100150007DC000087DC000087DC000087DC000088B
:100160007DC000087DC000087DC0000800000000C0
:100170007DC000087DC000080000000000000000F5
:100180007DC000087DC000087DC0000800000000A0
:1001900090F82520022A03D00422C2630120704770
:1001A0000168426C10B50C6824F00E040C600C68F9
:1001B00024F001040C6002F01C02046C012101FA1D
:1001C00002F26260826B80F82510002480F82440DF
:1001D00002B19047002010BD70B4436C066C0568F6
:1001E00031682C6803F01C0304229A400A420ED0A6
:1001F00014F0040F0BD02B689B0603D42B6823F05C
:1002000004032B60036B7260CBB170BC18470222F1
:100210009A400A4215D014F0020F12D02B689906AA
:1002200006D42B6823F00A032B60012380F82530C5
:10023000C36A7260002180F82410002BE5D170BCE5
:10024000704708229A400A42F9D02207F7D52A6857
:10025000416B22F00E022A60012202FA03F300240D
:100260007360C26380F8244080F825200029E6D01E
:1002700070BC0847002310B480F8423090F8412049
:10028000212A4FF0200118D1112280F84110026379
:1002900090F84110046801F028012268436328297E
:1002A00014BF6FF0F2016FF042010A400023226098
:1002B0005DF8044B80F840307047122280F84110FE
:1002C000026390F84120016802F028020C68436341
:1002D000282A14BF6FF0F4026FF04402224000237A
:1002E0000A605DF8044B80F84030704701680B6885
:1002F000002280F842205A040CD50B6823F4804376
:100300000B6090F84130292B0ED090F841302A2B09
:1003100020D070471B04F4D50B6823F400430B6016
:1003200090F84130292BF0D12822212380F8412058
:10033000036390F841300A6803F02803282B14BFA8
:100340006FF0F2036FF04203134000220B6080F85D
:10035000402070472822222380F84120036390F830
:1003600041300A6803F02803282B14BF6FF0F40310
:100370006FF04403134000220B6080F84020704768
:1003800010B400232022174CC4624363036380F837
:10039000412080F842304B07026811D5436A526A07
:1003A0001A70436A028D013343624AB1438D013BA7
:1003B0009BB24385436C013A43F0040302854364D6
:1003C000036890F8412090F841201A68102422F028
:1003D000FE0200211A60DC615DF8044B80F84010D9
:1003E000704700BF0000FFFF10B50446514A94F863
:1003F0004130002084F84200E2626085626C114363
:10040000A3F12802022A236861645DD894F84110A0
:1004100094F8412001F02801282902F0280214BF95
:10042000F6214621282A1A680CBFC9436FF0F6014D
:100430000A40282040491A6084F84100A06B226BD2
:10044000616318B1112A11D0212A0FD0E06B18B1C5
:10045000122A20D0222A1ED094F84130602B4FF06F
:10046000000360D0236384F8403010BD1A68510443
:1004700054D490F82530012BEED0304A826300230B
:1004800084F84030FFF784FE0028EED0A06BBDE872
:100490001040836B18471A68120403D51A6822F4B7
:1004A00000421A6090F82530012BD5D0234A826390
:1004B000002384F84030FFF76BFE0028D5D0E06BB6
:1004C000BDE81040836B184794F8412094F8412010
:1004D0001A6822F0FE021A609A69920748BF986271
:1004E0009A69D10703D49A6942F001029A6194F89B
:1004F0004120602A10D0202284F841209A69920677
:100500000AD59A69D00605D51022DA61626C42F0EC
:10051000040262642022DA6100218FE71A6822F463
:1005200080421A60A5E7202284F8412084F84030F8
:10053000236310BD0000FFFF91170008A10B000806
:1005400030B40368202282B0DA6190F84120212A79
:1005500090F841204AD0222A56D05A68324C0025C1
:1005600022405A60314C4563CD06C46205D5102245
:10057000DA61426C42F00402426490F84120602A41
:100580002DD09A69910744BF00229A629A69D207D6
:1005900003D49A6942F001029A61436C90F84120B9
:1005A000602A0BD053B990F84120212A0AD090F844
:1005B0004120222A06D002B030BC7047416C02B004
:1005C00030BC11E7202280F84120036390F84220DC
:1005D00080F8403080F8423002B030BC70474C07A1
:1005E000CFD55A6AD2B20192019ACAE702F0280224
:1005F0001C68282A14BF6FF0F2026FF042022240FA
:1006000011241A600463A8E790F841201C6802F0E6
:100610002802282A14BF6FF0F4026FF0440222402F
:1006200012241A60046398E700E800FE0000FFFF50
:1006300038B590F84030012B00F085800123CD06BD
:10064000044680F8403001D5D00659D40D063AD57D
:1006500050064DD523681A6822F040021A60628D58
:1006600092B2002A71D05868628D92B2FF2AC0F30C
:10067000090078D8618DE26A89B212F5803F218540
:1006800000F082805FFA81FCE26A4FEA0C4C42EA99
:100690000C020243404D586822F0004228400243B9
:1006A0005A60628D521A92B2628594F84120222AD1
:1006B0001A680CBF42F4004242F480421A600020E3
:1006C00084F8400038BD4D0612D5500610D5638D14
:1006D0009BB2002B40D123685A689201EFD4E26AA2
:1006E00012F5803F34D15A6842F480425A60E6E7FE
:1006F0008B06E4D59306E2D52046FFF721FFDEE71F
:10070000236826481022DA61616C626B41F00401B3
:100710008242616425D022498A4222D021498A42FC
:1007200014BF2022602219680A431A609A6991074F
:1007300044BF00229A629A69D207C0D49A6942F0F3
:1007400001029A61BBE7022038BD5B689A0103D4BD
:100750002046FFF78FFDB2E740212046FFF744FE19
:10076000ADE76022DFE79A69D10306D50121218533
:100770004FF4803C4FF0807289E7FF2121854FF4D0
:100780007F0C4FF0807282E75FFA81FC4FEA0C4CDD
:100790004FF000727BE700BF009C00FC31060008B0
:1007A000C9180008A907000838B590F84030012B97
:1007B00000F0D680012380F84030CB06044602D5F5
:1007C000D00600F1A9808B070BD5900709D52268C8
:1007D000216D91624FF0FF332365002084F84000C3
:1007E00038BD0B063AD5550640F18C8094F841206F
:1007F000236802F028021968282A14BF6FF0F20259
:100800006FF042020A401A601A6842F090021A60C1
:10081000628D92B2002A00F0B880628D92B2FF2AF7
:1008200040F2A2809869654DE16C5A68C0F30040BF
:1008300000280CBF4FF47F004FF4803002EA05021D
:10084000C1F3090142EA000242EA010242F0807269
:100850000CBFFF21012121855A6040E04B0651D594
:1008600050064FD594F84110236855481A6801F096
:100870002801282914BF6FF0F2016FF042010A40ED
:100880001A601A684F4942F090021A6094F841C009
:10089000628D92B2BCF1220F08BF0846FF2A79D9B7
:1008A0009A69C2F30042002AE26CC2F309020CBF4B
:1008B0004FF47F054FF4803542EA000242EA050218
:1008C0005868414D22F0004200EA050042EA000269
:1008D0000CBFFF21012142F0807221855A60628D98
:1008E000521A92B2628594F84120222A1A684FF077
:1008F00000000CBF42F4004242F480421A6084F8C7
:1009000040006DE788067FF568AF93067FF565AF19
:100910002046FFF715FE60E723682C481022DA61B5
:10092000616C626B41F00401824261641AD0284913
:100930008A4217D027498A4214BF202260221968B0
:100940000A431A609A69910744BF00229A629A6921
:10095000D2073FF542AF9A6942F001029A613CE743
:10096000022038BD6022EAE7618D144DE26C5868C0
:1009700089B22840C2F30902CDB242EA05420243DD
:1009800042F0007221855A60A9E740212046FFF716
:100990002BFD22E7618DE26C89B2CDB2C2F3090270
:1009A00042EA05420243084D5868218522F0004280
:1009B0002840024342F000725A6090E7009C00FC1D
:1009C0000020008000240080009800FC3106000810
:1009D000C9180008A907000870B5036804460D4649
:1009E0001968C06A94F841202026213ADE61092A5C
:1009F0000ED8DFE802F06E050D0D0D0D0DA16E0590
:100A000094F841201A6822F0FC021A602222226324
:100A10005A68614E42F400425A605A6832405A6045
:100A20009A69920744BF00229A629A69D60703D452
:100A30009A6942F001029A614A0435D51A6822F493
:100A400080421A60A26B1AB11268526892B2628533
:100A50006A070AD55A6A636A1A70636A0133636265
:100A6000238D25F00405002B5FD1638D9BB21BB154
:100A7000636C43F004036364EB0601D5CE0631D406
:100A8000002384F84230666C6363002E5FD1E36A12
:100A9000424DAB4212D194F8413084F8406020239B
:100AA00084F84130266370BD0E04D1D51A6822F453
:100AB00000421A60E26B002AC6D1C9E72046FFF760
:100AC00015FC2023E56284F8406084F841302663F9
:100AD00070BD94F841201A6822F0FA021A602122AF
:100AE000226395E7638D9BB2002B3DD194F8413092
:100AF000282B48D094F841202368292A4FF010026F
:100B0000DA61BDD110F5803FBAD09A69910744BF30
:100B100000229A629A69D20703D49A6942F00102CC
:100B20009A612046FFF7E2FBAAE7013B2385638D2C
:100B3000013B9BB2638598E794F8412094F84120EB
:100B40001A6822F0FE021A600022226360E7616CDC
:100B50002046FFF749FC94F84130282BA3D12946C1
:100B60002046BDE870400BE423681022DA61636C14
:100B700043F00403636430F0807381D1616C2046DC
:100B8000FFF732FC7CE7B0F1007FB3D12946204665
:100B9000FFF7F6FB74E700BF00E800FE0000FFFF70
:100BA000836A9A6B0AB100219163DA6B0AB1002162
:100BB000916393F84120602A09BF0022002220217E
:100BC00083F841101A63002283F84020704700BF69
:100BD000264A9368D26813F00C0305D00C2B32D050
:100BE000042B3ED122487047204A1168090754BFA0
:100BF000D2F8942012681F4954BFC2F30322C2F3F3
:100C0000031251F82200002BEDD0184BDB6803F0E3
:100C10000303022B23D0184A032B08BF1046134BA3
:100C2000D968DA68DB68C3F34163C2F30622C1F313
:100C30000211013300FB02F201315B00B2FBF1F261
:100C4000B2FBF3F0704702F00302012ACCD0074B4D
:100C5000DB6803F00303022B4FF00000DBD10448F4
:100C6000DDE7082B044818BF002070470010024041
:100C70000024F400B0EE000800127A0021498B6DC8
:100C8000DB0082B01CD5204B1B6803F4C063B3F5B6
:100C9000007F29D080282ED831D0A0F17002B2FA7E
:100CA00082F2520919490B6823F0070313430B60C2
:100CB000086800F00700801A18BF012002B07047D2
:100CC0008B6D114A43F080538B658B6D03F080531D
:100CD0000193019B13688A6D03F4C06322F0805274
:100CE000B3F5007F8A65D5D1802806D9A0288CBFAE
:100CF00002220122D6E70322D4E70022D2E7022211
:100D0000D0E700BF00100240007000400020024009
:100D1000414A036830B4D468A40707D0D46804F00B
:100D200003049C4246D0012030BC7047022B52D0B5
:100D3000032B49D0012BF6D112689207F3D5364C1C
:100D4000E26822F0730213434268013A43EA021355
:100D5000E360314C314A236823F0806323601568D7
:100D600003E013685B1B022B39D823681B01F8D4FE
:100D700083681B02002934D12169C56821F07841BC
:100D800021F4FE4143EAC5630B43236122490B680A
:100D900043F080630B60146803E013681B1B022B95
:100DA0001DD80B681B01F8D582690B69134300201D
:100DB0000B61B9E7002CB6D0D3684268C3F30213C5
:100DC00001339342AFD1C4E71468A403B7D41268C7
:100DD0005203A8D5B3E712685505A4D5AFE70320A1
:100DE000A2E7012921690BD021F0C06121F4FE4165
:100DF000194343695B08013B41EA43612161C5E74F
:100E000021F4C00121F4FE410B4301694908013975
:100E100043EA41532361B9E7001002407800002003
:100E2000704700BF704700BF836A19684A6822F0A4
:100E300003024A601A6E4FF0010C42F010021A666B
:100E400083F85DC0704700BF0368806A1A6812F0BB
:100E5000200228D10368A0F85A2053E8002F22F47A
:100E6000807243E800210029F7D103F1080252E81B
:100E7000002F22F0010203F1080C4CE800210029A8
:100E8000F3D103F1080252E8002F22F0400203F1EF
:100E9000080C4CE800210029F3D12022C0F8802062
:100EA000026E012A03D000234366036E704753E8A5
:100EB000002F22F0100243E800210029F3D053E86C
:100EC000002F22F0100243E800210029EFD1EAE7C9
:100ED000836A01225A661B6E704700BF836A002234
:100EE000A3F85A20A3F85220704700BFD0F8801012
:100EF000B0F85C300268222905D0138B9BB243F016
:100F0000080313837047918C426D0B401370B0F847
:100F10005A30426D013B9BB2A0F85A30B0F85A30BB
:100F200001329BB24265002B45D110B4036853E8EF
:100F3000002F22F4907243E800210029F7D103F139
:100F4000080252E8002F22F0010203F1080444E8ED
:100F500000210029F3D1184A816620249342C0F869
:100F60008040416612D05A6811020FD553E8002F15
:100F700022F0806243E8002141B1016851E8002F6E
:100F800022F0806241E80024002CF7D1026E012A91
:100F90000ED10022026653E8002F22F0100243E82F
:100FA00000210029F7D1DA69D20601D510221A6290
:100FB0005DF8044B7047704700800040D0F8801007
:100FC000B0F85C300268222905D0138B9BB243F045
:100FD00008031383704710B4948C416D234021F8AB
:100FE000023BB0F85A304165013B9BB2A0F85A3041
:100FF000B0F85A309BB2002B40D152E8003F23F4A6
:10100000907342E800310029F7D1016801F108032B
:1010100053E8003F23F0010301F1080C4CE80034D1
:10102000002CF3D12023C0F88030164B84669942FF
:10103000446611D04B681C020ED551E8003F23F0E6
:10104000806341E800343CB152E8003F23F0806304
:1010500042E80034002CF7D1036E012B0ED100239F
:10106000036651E8003F23F0100341E80032002AF4
:10107000F7D1CB69DB0601D510230B625DF8044B79
:10108000704700BF0080004008B518B1074B0268E8
:101090009A4207D0064B074A5B69074900209847E8
:1010A000012008BD90F8620008BD00BF0FB03713E3
:1010B00078000020582D0108702D0108B1F804C0F7
:1010C00093680A899A80BCF1000C18BF4FF0010C9C
:1010D000CA7983F800C091F806C083F801C09A70FD
:1010E0009860704703460068D3F8E8104268C3F878
:1010F000F0101047704700BF2DE9F047D0F800808E
:101100000546B8F1000F1ED0D8F898700FB3124EF4
:1011100007F148044FF00009583754F8040F18B18C
:10112000F3689847C4F80090A742F6D1D8F8980021
:10113000F36800B19847F36840469847F36828463B
:10114000BDE8F0471847044E2846F368BDE8F0476D
:101150001847014EEFE700BF780000202DE9F04767
:1011600082B0BDF828400B9F03EBC4056B88002BB1
:1011700044D06E68844601EB0208043E4FF0000E36
:1011800056F8044F620092B28A4233D3424531DAB4
:10119000C4F30170012817D002283AD090BB521A2C
:1011A00093B2C4F34459012202FA09F2974249D397
:1011B0003349013A4C6901923249334A0097A047BA
:1011C000002002B0BDE8F087521A92B20CEB42093F
:1011D0003CF81200B9F8023043EA004323F00F0351
:1011E00017B1C4F303442343180C2CF81200A9F8D8
:1011F00002306B880EF1010E7345C1D8012002B098
:10120000BDE8F0871E4B214A5B691E4900209847C4
:10121000D6E7521A92B20CEB42003CF81290438887
:1012200043EA094323F00F0317B9C4F303442343EC
:101230001C0C2CF8124043806B880EF1010E734594
:101240009ED8DBE7C4F3044A0CEB43043CF81300DC
:101250006288C9F1200942EA00424FF0FF3020FACB
:1012600009F000FA0AF022EA000207FA0AFA42EA52
:101270000A02100C2CF8130062806B88BAE700BFDA
:1012800078000020B02D0108782D0108BC2D010840
:101290002DE9F0470646804602EB42008CB0154629
:1012A00006EB8000002289460DF10C0A0146174624
:1012B0004FEA870E54469FED767AB31A75B103EB69
:1012C000020CF444DCED007A9C46DCED006A0C3341
:1012D00067EEA67A8B4237EE277AF0D10EF1040E34
:1012E000BEF10C0FA4EC017AE5D10137032F0AF10E
:1012F000100AA2F1040201F10401D9D19DED045AB2
:10130000DDED055ADDED086A6A4606F10C01DFEDF8
:10131000607A43463DB11C4694ED007A0C3383421B
:1013200077EE877AF7D108F104088845E2EC017A74
:1013300000F10400EBD19DED037AF0EEC77AF4EEF4
:10134000677AF1EE10FA12D69FED526AF4EE467A01
:10135000F1EE10FA0BDC9FED506AF4EEC67AF1EE76
:1013600010FA04DAB5EE407AF1EE10FA7DD0F7EE1D
:10137000007A87EE872A9DED073A9DED0B7A65EEA0
:10138000023A25EE824A65EE237A65EEA34A33EEF1
:10139000673A25EE846AF0EEC32A65EE047AF4EE2D
:1013A000622AF1EE10FA76EEE44A76EEE77A37EE4C
:1013B000466A06D69FED377AF4EE472AF1EE10FA28
:1013C00047DDB7EE007AC7EE032ADDED006A9DED3A
:1013D000017A9DED023A63EEA63A67EEA27A37EE05
:1013E000637A64EEA73A67EE877A36EE636A24EE94
:1013F000264AF0EEC63A73EE677AF4EE633AF1EEFF
:1014000010FA77EEC47A06D69FED224AF4EE443AFB
:10141000F1EE10FA2FDD87EE864A0120002364EEFC
:10142000844A65EE845A77EE647A89ED024A67EE63
:10143000A27A25EE275AC9ED017A76EEC57A77EEC3
:10144000E57A67EE827AC9ED007A33600CB0BDE8C8
:10145000F0879FED117AF4EEC72AF1EE10FAB0DAB8
:10146000B5EE403AF1EE10FAABD100200023336024
:101470000CB0BDE8F0879FED084AF4EEC43AF1EEF7
:1014800010FAC8DAB5EE406AF1EE10FAEDD0C2E714
:1014900000000000FFFF7F7F000080002DE9F04783
:1014A000C36D8769056900247C8081461C7000F14A
:1014B0004806A04656F8043FFBB1B3F838C0B3F86D
:1014C0009400B3F89610B3F8DC2005EB400005EB70
:1014D000410105EB420205EB4C0CC3E91301C3F8D3
:1014E000A820C3F814C03C701868D3F8E020416805
:1014F00083F8E880C3F8E42088470134E4B2042C80
:10150000D8D1D9F80000BDE8F0474368184700BFBC
:101510000068C368184700BF70B50446806970B1A1
:10152000E3693BB10E4B1A7F22B15B690D4A0E494C
:10153000012098472068BDE8704083681847084D2F
:101540000A4A6B6908499847E36933B12B7F23B195
:101550006B69044A044901209847002070BD00BF10
:1015600078000020E02D0108F02D0108002E010870
:1015700030B40269B0F8423090F8381032F81330C5
:10158000032908BF83F4004340F2E51101FB03F394
:101590001B0C816C8446A3F589700880BCF83C1054
:1015A000DCF84C0032F8111039B1BCF8401032F8B8
:1015B0001110012994BF002101210170BCF83E00E7
:1015C000BCF83A10DCF8505032F8111032F8102004
:1015D000DCF8544040F2E51000FB02F2A3EB1243AA
:1015E0001BB2002BBCF94420DCF80000B8BF5B4202
:1015F0001BB29A42A1F10102B2FA82F2ACBF0023FF
:10160000012352092A70237030BC4368184700BF79
:101610000068C368184700BF00688368184700BFA8
:10162000D0E90F23816B0069184700BF836910B5AB
:101630000446B3B10D4B1A7F4AB963697BB10B4BBA
:101640000B4A5B690B4900209847002010BD5B697D
:10165000094A0849012098476369002BEFD101200E
:1016600010BDC369002BE5D1E7E700BF780000207B
:10167000542E0108382E01081C2E01080068C3688A
:10168000184700BF00688368184700BF70B5114E47
:10169000114A3368A2FB03239B09013BB3F1807F0E
:1016A00001D3012070BD4FF0E0220C495361F023BB
:1016B00081F82330002507230F2895610446136124
:1016C000EFD801464FF0FF3007F044FD7460284624
:1016D00070BD00BF00000020D34D621000ED00E09F
:1016E0000CB4F0B5ADB032AB06AE53F8042B059395
:1016F00004460D46304696210CF0E6FC9528C4BF02
:101700001B4BCDF8AA301B4B1B491F68A1FB0731AF
:101710001A4BA3FB0723980B194BA3FB07234FEA94
:10172000931C184B4FF47A7202FB1C77A3FB00E268
:101730005209042CC2EB0212A0EB8202A3FB0CE3C1
:1017400098BF114800974FEA531394BF005D3F20A4
:10175000C3EB03130190CDE90256490DACEB8303B3
:101760000A480CF08BFC2DB0BDE8F04002B0704789
:101770002E2E2E0078000020B17C219573B2E74513
:10178000D34D621089888888A02E01087C2E01081C
:1017900038B590F840C0C56ABCF1010F67D04FF072
:1017A000010C11F0200F04460B4680F840C002D017
:1017B00012F0200F51D1D80615D5D10613D5628D60
:1017C00092B2002A55D194F84120282A74D094F876
:1017D00041202368292A4FF01002DA615CD00020F2
:1017E00084F8400038BD590719D4190701D51007EE
:1017F00039D49907F3D59307F1D5638D9BB2002BAC
:1018000046D0616A236811F8012B9A62638D228D9C
:101810006162013B9BB2013A63852285DFE7500795
:10182000E3D5638D9BB26BB12268636A526A1A700A
:10183000638D616A228D013B0131013A9BB2616285
:1018400022856385638D9BB2002BC8D115F5803F3F
:10185000C5D02046FEF74AFDC1E7FFF7BDF80020DE
:1018600084F84000BEE7204609F086FDB7E7022075
:1018700038BD23681022DA61636C43F004036364AB
:1018800035F08073ABD1616C2046FEF7ADFDA6E765
:1018900035F08073A3D1DCE715F5803F9FD09A69BE
:1018A000950744BF00229A629A69D007D1D49A69F9
:1018B00042F001029A61CCE7B5F1007F87D1194669
:1018C0002046FEF75DFD8AE738B590F840C0C56A4E
:1018D000BCF1010F46D04FF0010C11F0200F04466F
:1018E0000B4680F840C002D012F0200F30D1D9064C
:1018F00026D5D00624D55104C2F3803034D5E16B0F
:1019000009B1120435D4A26B1AB112685268002AC8
:1019100037D023681022DA61636C43F004036364F8
:1019200094F8413035F08072DBB20DD1213B092BA8
:101930004CD8DFE803F049504B4B4B4B4B4B4950D5
:10194000190701D5130709D4002084F8400038BDD9
:10195000FFF742F8002084F84000F8E7204609F03D
:101960000BFDF1E7022038BD110429D5E16B0029F8
:10197000CFD00A685268002A30D1A26B0AB1002881
:101980003AD194F84120282A2ED094F84120236897
:10199000292A4FF01002DA61D6D115F5803FD3D055
:1019A0009A69950744BF00229A629A69D00703D4C6
:1019B0009A6942F001029A612046FEF797FCC3E75C
:1019C00023681022DA61BFE721232363616C20467C
:1019D000FEF70AFDB8E722232363F7E7A26B002A8C
:1019E00097D0002895D090E7B5F1007FCDD119466A
:1019F0002046FEF7C5FCA7E712685268C1E700BFA2
:101A000038B5294A036815681B689B061BD4846A8D
:101A10002368A2685868616820F0200058609AB175
:101A20005868B1F5827F20F00100586022D0294625
:101A3000204606F0D7FAB0B901230022A4F84620C8
:101A400084F85D30236E38BD5A68B1F5827F0CBFD3
:101A500022F0030222F001025A602946204606F0D5
:101A6000C1FA0028E8D0236E43F020032366202328
:101A70002366E1E7B2F5004F12D11A6822F0400266
:101A800029461A60204606F0ADFA0028EBD12A4616
:101A90004FF4C061204606F041FA0028CCD0E2E7BE
:101AA000B2F5806FE9D0C2E778000020F8B51B4D91
:101AB00003682F681B68846A9B062CD426687368A9
:101AC00023F0200373603A464FF4C051204606F0DD
:101AD00025FA58B93946204606F084FA30B93A4614
:101AE0004FF4C061204606F019FA38B1236E43F076
:101AF00020032366236E43F020032366736823F0DC
:101B00000303736000220123E287A4F8462084F8CF
:101B10005D30236E0BB901236B77F8BD7800002090
:101B200008B5144B9FED140A2DED028B93ED088A36
:101B3000B8EE488A08EE900A80EE080A0AF0D4FB54
:101B400028EE008AF3EE087A28EE278AB7EE007AAC
:101B5000C7EE087AF8EEE88A9FED087A67EEA87A71
:101B6000BDEC028B67EE877AB6EE000A27EE800A9C
:101B700008BD00BF78000020F902154FC2F38E4D5A
:101B8000F8B595692B7802EB43030F46B3F8446030
:101B9000536901466888144603EB400072000CF05C
:101BA0000FFA6B88E26D1E4413786E8003B93B799F
:101BB0001370F8BDC0EE207A9FED107AF4EEC77A6C
:101BC000F1EE10FA17D89FED0E0A08B527EE800A3D
:101BD0000AF006FBB7EE007AF0EE475A40EE005AE4
:101BE00030EE006AF1EEE56A76EEC07A06EE677ACC
:101BF000B0EE470A08BD9FED030A7047A800003FFA
:101C0000DB0F4940000000002DE9F04F2DED048B63
:101C1000038F8DB00546002B00F01581B0F84030E1
:101C2000428F0469B0F850E007925B000293838F03
:101C3000C28F34F913300B92BEF1000F00F0038114
:101C40001B010893D0E91223D718B0F85200B5F859
:101C50004230DFED8A8ADFF830B20193FE434FF065
:101C60000008F6EE009A0990C1460496CDF828E0E7
:101C7000834B83FB0710F917C1EBA00101EB410077
:101C8000A7EBC00000281FFA89F886B2C0F2EB80EB
:101C9000002FC0F2F180089B09B2090481FB030107
:101CA000002906DA4FF6FF7C10EB0C0C604641F180
:101CB0000001079B000C40EA0140991934F911100A
:101CC000A0EB011007EE900AB8EEE79A29EE289AE9
:101CD000B0EE490A0AF06AFDB0EE408AB0EE490A59
:101CE0000AF07EFA019B002B00F0A2800B9BB5F856
:101CF00044A01E4404EB46030020CDE9059703935E
:101D00000646009059E095F838C0BCF1000F4BD062
:101D100007EE101A07EE903AF8EEC76AF8EEE77A87
:101D200026EE806A27EE887A66EE886A37EE467A73
:101D300067EE807AB5EEC07A77EEA67AF1EE10FA09
:101D40004CBF37EE697A37EE297AF5EEC07AF1EEBC
:101D500010FABDEEC77A4CBF77EEE97A77EEA97A32
:101D600017EE103AFDEEE77A5B4517EE901A47F64C
:101D7000FF70B8BF5B468342D5F85490A8BF0346B6
:101D80005945B8BF594699F800E08142A8BF0146BD
:101D9000BEF1000F04D117EE100A98425BD0E64660
:101DA00089F800E01BB209B2A352009B798053442A
:101DB0000093019B01369E4238D0009B95F839C0B4
:101DC00008EB5302029B92B203EB8202A718A35EB8
:101DD000B7F90210BCF1000F95D00398B0F800C01D
:101DE0000CF01F0E0EF1300E03FB0EFE4FEA9C238B
:101DF000203BCCF3441C01FB03F3BEF1000F0CF1BC
:101E0000300C01FB0CFCB8BF0EF13F0E002BB8BF2D
:101E10001F334FEAAE1EBCF1000F0EEB6313B8BFC9
:101E20000CF13F0C1BB24CF38F116CE7DDE9059709
:101E3000099B049A1F44D31A04930A9B09F10109D0
:101E400099457FF415AF286843680DB0BDEC048B4D
:101E5000BDE8F04F184717EE900AB0EB010E18BF1F
:101E60004FF0010E9CE71836B6B2049B054AA2FB60
:101E700003016FEA11110EE70026F6E70000803734
:101E8000ABAAAA2AABAAAAAA0080FFFFBFF34F8F72
:101E90000549064BCA6802F4E0621343CB60BFF306
:101EA0004F8F00BFFDE700BF00ED00E00400FA0522
:101EB000FEE700BFFEE700BFFEE700BFFEE700BF92
:101EC000FEE700BF704700BF704700BF704700BF0C
:101ED000024A136801331360704700BF7800002086
:101EE0000C4B0D495A6A4FF480104861D16849057E
:101EF00003D4012283F845207047D168C9B261F448
:101F00009061D1600120012283F8480083F84520C8
:101F1000704700BF7800002000040140034B5A695D
:101F2000120744BF08225A61704700BF00040140F5
:101F30000148FEF751B900BFC40000200148FEF778
:101F40004BB900BF0C0100200148FEF745B900BFA6
:101F5000540100200148FEF73FB900BF9C0100205A
:101F6000084810B4D0F86C31D0F8A04199691A68CB
:101F70002CB1234600F5B6705DF8044B18475DF8A8
:101F8000044B704778000020034B5A69120544BF88
:101F90004FF400625A61704700040140034AD2F8CE
:101FA000883043F47003C2F88830704700ED00E0D9
:101FB00030B4214B5A6AD36813F00803FBD1946AFA
:101FC000156911685268C1F3015000EB800001F0FF
:101FD0007F32C1F3034111EB400118BF174B22F0D0
:101FE000FE4218BF4B43C2F3023101EB8101C2F341
:101FF000032010EB41001CBF4EF6602101FB0033B3
:10200000C2F3021101EB810102F00F0212EB410257
:10201000C5F30E0518BF4FF47A71A5EB040018BF85
:1020200001FB02334FF47A72013502FB00F0B0FB82
:10203000F5F030BC184470477800002080EE360080
:1020400030B52B4D8DB02C22002101A80BF0A6FE3F
:10205000D5F8C041002C42D0FFF7AAFF254B296BD1
:1020600003910444A3FB0423234A5B0D02FB1344A6
:10207000224AA2FB0402920B4EF6602505FB124495
:102080008DF805201E4A1F48A2FB0352120902EBDD
:102090004202A3EBC2038DF80430A0FB04239B098A
:1020A0004FF47A7202FB134401FB0444A0FB0404C6
:1020B0008DF80630A1EB94114FF480704FF0004280
:1020C0004FF0606302910B900692089305F0DEFFDB
:1020D00018B901A806F0D0FE38B1FFF7D7FE05F019
:1020E000D5FF0028F9D185F8C4010DB030BD00BF7F
:1020F00078000020B17C219580EE360073B2E74570
:10210000ABAAAAAAD34D621010B5154C154A636A42
:102110004FF4802151619A68D20402D5DA68D00563
:1021200012D49A68910402D5DA68920503D4012387
:1021300084F8453010BDDA68D2B262F42072DA60F9
:10214000012384F8453010BDDA68D2B262F4C0725F
:10215000DA60012184F8C411FFF772FF636AE0E7D7
:102160007800002000040140B0F1904F84B017D0F7
:10217000234B984204D0234B98422CD004B0704794
:1021800011B303F1784303F50333DA6C42F0020232
:10219000DA64DB6C03F002030293029B04B0704725
:1021A00059B1194BDA6C42F00102DA64DB6C03F0CE
:1021B00001030193019B04B07047134AD36C23F0D1
:1021C0000103D36404B070470F4AD36C23F00203B9
:1021D000D36404B0704769B103F1784303F5FA336F
:1021E000DA6C42F08002DA64DB6C03F08003039364
:1021F000039BC3E7044AD36C23F08003D364BDE799
:1022000000040048001C00480010024090F824C060
:10221000BCF1010F3CD070B590F825C00124A44555
:1022200080F824405FFA8CFE04D0002380F824302C
:10223000022070BD022580F8255004680025C56382
:102240002668456C26F00106266005F01C05066C24
:102250000EFA05F5756063608368102B036B0BBF86
:10226000A260A160E160E2604BB1236843F00E031D
:102270002360236843F001030020236070BD2368BE
:1022800023F004032360236843F00A032360F0E78C
:10229000022070472DE9F0417E4C0023637794F8CB
:1022A0002532012B0D46D4F8CC1109D0B1F5827F2F
:1022B0006BD1D8B2D4F8D031002B66D1042864D1C8
:1022C000002D62D092B2002A5FD094F82432012B04
:1022D0005BD094F82532D4F8C861C4F80052042BBE
:1022E0001CBF052384F8253201210023C4F82832BD
:1022F00084F82412A4F80622A4F80E22C4E9853337
:102300007368A4F8042223F4C043C4F80852A4F864
:102310000C227360D4F8D431D4F82002B3F5E06F06
:1023200035D8D4F81C3299697368B1F5806F43F4DD
:102330008053736000F081808369B3F5806F68D04B
:1023400094F82532544A042B544B18BF1346544A70
:102350000363544B4363544B18BF1346C362B4F832
:102360000E324FF00008C0F838809BB206F10C0125
:102370002A46FFF74BFF074670B1D4F8283284F89D
:10238000248243F01003C4F82832BDE8F08173685A
:1023900023F480537360D3E77368D4F81C0243F0CE
:1023A00001037360B4F806320A46C0E90B77C0E94E
:1023B0000D7729469BB2FFF729FF00284AD13368E1
:1023C0005B0621D5002384F82432736843F0200390
:1023D0007360736843F0020373602268637F002BAD
:1023E000D3D141F2873109E072B6637F03B930BFC0
:1023F00062B6BFF36F8F637F002BC6D123689B1A31
:102400008B42F1D9BDE8F081336843F0400333607B
:10241000D8E7736823F480537360B4F80E3213F076
:10242000010F73681FD123F400537360B4F80E32A8
:10243000C3F34E03A4F80E3282E7D20773681DD4AB
:1024400023F480437360B4F80632C3F34E03A4F858
:10245000063271E7D4F8283284F8247243F010036E
:10246000C4F8283291E743F400537360B4F80E3295
:10247000C3F34E030133A4F80E3261E743F4804303
:102480007360B4F80632C3F34E030133A4F8063286
:1024900052E700BF78000020250E0008210E00083A
:1024A000AD1A0008290E0008011A00082DE9F04FA6
:1024B00000233E4E4FF00F094FF0030A4DE03C4F12
:1024C000B84265D03B4FB84266D03B4FB84268D067
:1024D000DFF8E8B058450CBF4FF0040B4FF0070B86
:1024E0000BFA04F4A44513D1346824EA0E043460D2
:1024F000746824EA0E047460F46824EA0E04F4603C
:10250000B46824EA0E04B460AC6824EA0804AC6041
:1025100004685D000AFA05F54FEAD30C2C4300EB82
:102520008C0C046003F00704DCF820E0A40009FA36
:1025300004F42EEA0404CCF82040846824EA05045C
:102540008460446824EA02024260C26822EA05020A
:10255000C260013331FA03F218D001229A4012EA24
:10256000010EF6D023F0030505F1804505F5803511
:1025700003F00304D5F808C0A40009FA04F8B0F188
:10258000904F08EA0C0C9AD10024ABE7BDE8F08F1D
:10259000012707FA04F4A5E74FF0020B0BFA04F445
:1025A000A0E74FF0030B0BFA04F49BE70004014093
:1025B0000004004800080048000C004800100048D3
:1025C000F0B5884B02689D68DE680446D00683B08B
:1025D00005F00C0506F0030640F12981002D40F0BE
:1025E000F180804B1B68990700F159817D4B276A68
:1025F0001A68120756BFD3F894301B681B0903F002
:10260000F0039F4200F2D081764B1A6842F0080234
:102610001A601A6822F0F0023A431A605A68E169B7
:1026200022F47F4242EA01225A60002D00F0F0813C
:10263000FEF7CEFA6B4B9A686B4BC2F3031213444E
:102640006A4A93F8303003F01F0320FA03F350680E
:102650001360FFF71BF8002840F026812268D0079E
:1026600000F1E98090071DD50C2D00F0B581E368DD
:102670005C48002B00F06F81036843F480730360B3
:102680005B4B1E6804E01968891B022900F23E8139
:1026900001684905F7D54368216923F0F85343EAF7
:1026A00001634360160716D563694E48002B00F09E
:1026B0000981D0F8943043F00103C0F894304C4BBA
:1026C0001E6804E01968891B022900F21F81D0F8F6
:1026D00094108907F6D550073DD5424B996DC90036
:1026E00000F13781996D41F0805199659B6D03F040
:1026F00080530193019B01203E4E3368DF0540F17A
:10270000F7803B4BA168012900F03481052900F0D6
:102710009381344ED6F8907027F00107C6F8907078
:10272000D6F8907027F00407C6F89070002940F0A2
:102730002881D3F800C041F2883705E01968A1EB81
:102740000C01B94200F2E280D6F890108907F5D466
:10275000002840F05781970616D5636A2149002B5F
:1027600000F03E81D1F89820214B42F00102C1F8DF
:102770009820186804E01A68121A022A00F2C6802B
:10278000D1F898209607F6D5A36ACBB1022B00F0BA
:1027900061810C2D00F087801249154B0A6822F0E8
:1027A00080720A60186804E01A68121A022A00F29D
:1027B000AD800A689201F7D4CA680F4B1340CB6012
:1027C000002071E00C2D00F08F80A3690548002BDC
:1027D00000F09F800168064B41F0010101601F6815
:1027E00011E000BF00100240B0EE00080000002021
:1027F0007800002000700040FCFFEEFE1968C91B45
:10280000022900F2838001688907F7D5036843F045
:10281000080303600368216A23F0F0030B4303609D
:102820004368E16923F47F4343EA01234360D3070C
:1028300020D5082D3CD00C2D38D06368B3F5803FEF
:1028400076D0B3F5A02F00F0EA808D48016821F41E
:1028500080310160016821F480210160002B6CD17E
:10286000884B1F6803E01968C91B64294ED80168AA
:102870008903F8D497077FF515AF042D7FF4F4AEE4
:102880007F4B1B68580501D5E36863B17C4920691B
:102890004B6823F0F85343EA00634B6002E7A369F7
:1028A000002B7FF4A3AE012003B0F0BD032EC4D1F2
:1028B000734B1B689F037FF5D5AE6368002B7FF4D5
:1028C000D1AEF0E7D0F8943023F00103C0F8943093
:1028D0006C4B1E6803E01968891B022916D8D0F8D2
:1028E00094108F07F7D4F6E6012E7FF46EAF78E6EA
:1028F000336843F480733360624B1F683168C905E5
:102900003FF500AF1968C91B0229F7D9032003B0AE
:10291000F0BD01685B4B21F0010101601F6803E01D
:102920001968C91B0229F1D801688907F8D47EE724
:1029300053490B6843F480330B60524B50481F6877
:1029400003E01968C91B6429E0D801688903F8D538
:1029500090E70020D0E6036823F480730360494BBE
:102960001E6803E01968891B0229CFD801684F054A
:10297000F8D497E6424ED6F8901041F00101C6F81F
:102980009010D3F800C03E4E41F2883704E0196839
:10299000A1EB0C01B942B9D8D6F890108907F6D549
:1029A00000283FF4D8AE2DE03846FEF767F900283E
:1029B0007FF479AF324B1A6842F008021A601A6845
:1029C00022F0F0023A431A605A68E16922F47F4229
:1029D00042EA01225A602BE6022E7FF448AE4FE70E
:1029E000D1F89820274B22F00102C1F898201868EE
:1029F00003E01A68121A022A88D8D1F898209207A0
:102A0000F7D4C1E61E498B6D23F080538B65A2E697
:102A10003846FEF733F900283FF40AAE43E703F1E6
:102A20008043A3F53C33196841F48021196019688B
:102A300041F48031196080E71149D1F8906046F087
:102A40000406C1F89060D1F8906046F00106C1F824
:102A5000906096E70A4AE66AD36803F00301B14240
:102A600047D00C2D3FF41FAF05490B685F013FF5C0
:102A70001AAF0A68034B22F080720A60186808E0F7
:102A800000100240780000201A68121A022A3FF64D
:102A90003DAF0A689501F7D4C868334A0240606BBD
:102AA000324342EA0022A06B42EAC062206B013846
:102AB00042EA0012D4E90F506C08013C400801388A
:102AC00042EA445242EA4062CA600A68274842F039
:102AD00080720A60CA6842F08072CA60196804E0B5
:102AE0001A68521A022A3FF611AF02689401F7D50C
:102AF00066E6216B03F070000139B0EB011FB0D125
:102B0000606B03F4FE41B1EB002FAAD1A06B03F080
:102B10007841B1EBC06FA4D1E16B4908013903F4EE
:102B2000C000B0EB415F9CD1216C490803F0C06349
:102B30000139B3EB416F94D1136898013FF540AE72
:102B400011680B4B41F080711160D16841F08071C8
:102B5000D160186804E01968091A02293FF6D6AE58
:102B600011688901F7D52BE68C809D010010024089
:102B700078000020504AF8B5136803F007038B4231
:102B80000BD2136823F007030B431360136803F0A1
:102B900007038B4201D00120F8BD046814F0020E37
:102BA00004F0010368D0454E8568B26802F0F00277
:102BB000954204D9B26822F0F0022A43B260002B99
:102BC00065D04268032A5CD03C4B022A1B686AD05D
:102BD000002A6DD19E07DED5384D394EAB6823F003
:102BE00003031343AB603768920041F2883C03E073
:102BF0003368DB1B634559D8AB6803F00C03934281
:102C0000F6D1BEF1000F41D12B4A136803F0070340
:102C10008B4209D9136823F007030B431360136831
:102C200003F007038B42B6D1620706D5234AC16879
:102C3000936823F4E0630B439360230707D51F4A8F
:102C40000169936823F4605343EAC1039360FDF77D
:102C5000BFFF1A491B4A89681B4CC1F303110A4480
:102C6000034692F83020606802F01F02D3402360D0
:102C7000BDE8F840FEF70ABD002BC5D04268032A24
:102C8000A2D10E4B1B689B01A6D484E785680B4A32
:102C9000936803F0F0039D42B6D2936823F0F003EB
:102CA0002B439360B0E79F0396D474E70320F8BDED
:102CB0005D057FF570AF8FE70020024000100240F5
:102CC00078000020B0EE000800000020F0B5046895
:102CD0000546200583B000F1F3800026A1034ED500
:102CE000A34B9A6DD20040F1F5800027A149A24A7A
:102CF0000B6843F480730B60106804E013681B1AC0
:102D0000022B00F200810B68DB05F7D5A6BB9849C2
:102D1000A86DD1F8903013F4407325D0834223D0AE
:102D2000D1F890C0D1F8903043F48033C1F890309E
:102D3000D1F8903023F48033C1F890301CF0010FAB
:102D40002CF44073C1F890300ED0D2F800E041F27C
:102D5000883C05E01368A3EB0E03634500F2D380C3
:102D6000D1F890309B07F5D5814AD2F8903023F402
:102D700040730343C2F89030002F40F0C880E10751
:102D800008D57B4A296AD2F8883023F003030B4325
:102D9000C2F88830A20708D5754A696AD2F8883027
:102DA00023F00C030B43C2F88830630708D5704A40
:102DB000A96AD2F8883023F030030B43C2F8883078
:102DC000A70608D56A4AE96AD2F8883023F4406336
:102DD0000B43C2F88830A00508D5654AE96BD2F8E4
:102DE000883023F440230B43C2F88830610508D5AE
:102DF0005F4A296CD2F8883023F440130B43C2F8A1
:102E00008830620608D55A4A296BD2F8883023F4F4
:102E100040530B43C2F88830230608D5544A696BE7
:102E2000D2F8883023F440430B43C2F88830E705DA
:102E300008D54F4AA96BD2F8883023F440330B43AE
:102E4000C2F8883020030ED5494AA96CD2F88830E0
:102E500023F040630B43B1F1006FC2F888305CD0BF
:102E6000B1F1806F74D061030ED5414AE96CD2F89C
:102E7000883023F040630B43B1F1006FC2F8883013
:102E800050D0B1F1806F6BD062040BD538492A6DF8
:102E9000D1F8883023F040531343B2F1805FC1F87A
:102EA00088304DD0230408D5314A696DD2F8883076
:102EB00023F080430B43C2F88830304603B0F0BDA6
:102EC0006F6CB7F5000F10D0B7F5400F12D077B385
:102ED000012603E79A6D42F080529A659B6D03F0DC
:102EE00080530193019B012700E7214AD36843F4F3
:102EF0008033D3601E4AD2F8883023F440033B432A
:102F0000C2F88830E9E60326002F3FF438AF184AAC
:102F1000936D23F08053936531E7D36843F48013B6
:102F2000D360A0E7D36843F48013D360ACE739469D
:102F3000281DFDF7EDFE064600287FF4CFAED9E749
:102F40000221281DFDF7E4FE002818BF0646A9E768
:102F50000121281DFDF7DCFE002818BF064682E788
:102F60000121281DFDF7D4FE002818BF06468BE777
:102F70000010024000700040780000202DE9F04170
:102F8000C16F05689EB00446002947D02423E3673B
:102F90002A68636A22F001022A60002B40F0AD80AB
:102FA000D4E90412A36828680B431343E169A74AD4
:102FB0000B43024013432B606B68E26823F44053D9
:102FC0001343A34A6B609542A369AA6800F0DB80B3
:102FD000206A22F43062034313439E4AAB60954259
:102FE00000F048819C4B9D4240F00C8103F5E63394
:102FF000D3F8883003F00C030C2B00F26181DFE87A
:1030000013F0D2015F015F015F0110015F015F01F9
:103010005F016F015F015F015F01680180F8781057
:103020005C2207A80AF0BAFE8A4B9D4200F0EE81AE
:10303000894B9D42AAD1022707A80797FFF746FEB2
:103040000646002840F01882844B854D9A6D42F464
:1030500000329A659A6D02F400320492049ADA6C96
:1030600042F00102DA64DB6C03F0010303930722F0
:103070000323CDE90032039903463A464FF09040CE
:103080000F214FF0800806F0E1F9C5E93876C5E96F
:103090003A68C5E93C66C5E93E6605F1DC06714B58
:1030A000C5F8DC30304605F0B3FF002840F0E4817D
:1030B0006667102305F59276C5E94C08C5E94E0010
:1030C000C5E95000C5F82C313046674BC5F828716A
:1030D000C5F80441C5F8243105F09AFF01460028DF
:1030E00040F0CA8126672620C5F84C4106F032F828
:1030F0005E4B40225A60256848E71E0705D56A687E
:10310000616B22F400420A436A60D80705D56A68F9
:10311000A16A22F400320A436A60990705D56A68F9
:10312000E16A22F480320A436A605A0705D56A6868
:10313000216B22F480220A436A60DF0605D5AA6863
:10314000A16B22F480520A43AA609E0605D5AA68A4
:10315000E16B22F400520A43AA60580609D56A6856
:10316000216C22F480120A43B1F5801F6A6000F0DE
:10317000028119067FF514AF6B68A26C23F400235B
:1031800013436B600CE722F4306213433349AB60A6
:10319000D1F8883003F44063B3F5006F00F0878006
:1031A00000F2E380002B00F05781FDF711FD064689
:1031B000002E7DD16A682A49002322F49042C4E996
:1031C0001A336A60AA6822F02A02AA602A6842F0CA
:1031D00001022A60C4F884300E682B681A0700F1D7
:1031E00085802B685B0700F19C8000232022184615
:1031F000E26784F87830C4F88020236663661EB0E6
:10320000BDE8F0811A4B9D425AD103F5E433D3F85F
:10321000883003F03003202B62D058D8002B00F008
:10322000C280B1F5004F00F02E81FDF7D1FC0028DF
:10323000C0D0636800EB5300B0FBF3F04FF6EF73C0
:10324000A0F110029A423BD8E860B3E7F369FFEFC0
:10325000008000400038014000440040001002405F
:10326000780000206C0002408000024000E100E095
:103270000048004002F55842D2F8883003F00303BA
:10328000022B2DD0032B24D0012BCAD0864BB1F5B5
:10329000004F186800F098809268844BC2F3C222F5
:1032A000134493F8403003F01F03D840BFE7804E2B
:1032B000626802EB4203B34202D8B6EB023F61D927
:1032C0000023C4E91A3301201EB0BDE8F081302B81
:1032D000F6D1B1F5004F00F0D3804FF40040A8E7DD
:1032E000B1F5004F00F0CA807148A2E76FF07E434D
:1032F00032464FF40011204605F0EEFE00283FF460
:1033000070AF236853E8002F22F0800243E80021C9
:103310000029F7D12023E367002384F878300320C5
:10332000D2E76FF07E4332464FF48001204605F02D
:10333000D3FE00283FF459AF236853E8002F22F44E
:10334000907243E800210029F7D103F1080252E806
:10335000002F22F0010203F1080040E800210029BB
:10336000F3D12023C4F88030D6E7B3F5406FA7D15E
:103370004FF400469CE76A68616C22F4C0020A437D
:103380006A60F6E60023500819464FF48077E6FBA2
:10339000070108F02BF8474BA0F540729A428FD8EE
:1033A000454BD86006E7B1F5004F6FD0434A3F4B1D
:1033B00092683D49C2F302221344086893F84030F2
:1033C00003F01F03D84032E79268384BC2F3C222A1
:1033D000134493F8403003F01F03D84000283FF413
:1033E000E9AE4300626803EB5203B3FBF2F34FF61E
:1033F000EF72A3F1100191423FF662AF23F00F028A
:1034000092B2C3F342031343EB60D3E6012307A850
:103410000793FFF75BFC034670BB284A116E41F42B
:1034200080411166116E01F4804106910699D16CBC
:1034300041F00101D164D26C02F001020592072132
:103440000322CDE90021059802224FF4C0614FF01C
:10345000904005F0FBFF99E58A68144BC2F3022205
:103460001344114A93F84030166803F01F03DE40FE
:10347000002E3FF49FAE1BE7FEF708FD104BB1E7AF
:103480004FF48033AEE7FDF7A3FBA7E70B4A074BEA
:1034900092680549C2F302221344086893F8403049
:1034A00003F01F03D84099E700000020B0EE0008A9
:1034B0000024F400FFFC0F000080004000100240D8
:1034C0000048E801F0B4C56F202D4AD10C4601B187
:1034D00012B90120F0BC7047194600252123C0F81D
:1034E0008450C3678368294FA0F85020B3F5805FEC
:1034F0003E68A0F8522037D0B0F85220036892B24C
:10350000B2B1DA69120604D44A1C1DD1DA69120676
:10351000FCD504B314F8012B1A85B0F85220013AF7
:1035200092B2A0F85220B0F8522092B2002AE8D10C
:10353000DA69520604D44C1C1CD1DA695106FCD558
:103540002023C3670020C5E73A68921B914218D335
:10355000B9B11A68D5E735F8022BC2F308021A850B
:10356000DBE70220F0BC70470369002BC4D125467D
:103570001C46C1E73A68921B914202D309B11A680E
:10358000D6E72023C367F0BC0320704778000020F3
:10359000026852E8003F23F4907342E800310029AA
:1035A000F7D102F1080353E8003F23F0010302F1D1
:1035B000080C4CE800310029F3D1036E012B06D032
:1035C00000232022C0F8802083660366704752E8FB
:1035D000003F23F0100342E800310029F0D052E808
:1035E000003F23F0100342E800310029EFD1E7E764
:1035F00070B5AE4CD4F82C52EB692A68A96840F635
:103600000F00034240F08780980602D5960600F12D
:10361000F380D4F88C02012816D0D80202D54902D2
:1036200000F1F4801E0605D4590602D5530600F1B8
:10363000258170BD1006F7D5D4F89832002BF8D04C
:10364000BDE870409A481847DE06E6D5D006E4D5B6
:1036500010232B62AB68B4F884225B0640F14281F0
:10366000D4F8A03219684B689BB2002B00F07C8123
:10367000934280F07981A4F886320B689E0644D488
:1036800055E8003F23F4807345E800324AB1D4F88E
:103690002C2252E8003F23F4807342E800310029D5
:1036A000F5D1D4F82C2202F1080353E8003F23F0AF
:1036B0000103083242E800310029F2D1D4F82C226B
:1036C00002F1080353E8003F23F04003083242E8C8
:1036D00000310029F2D12023C4F8AC32C4F88C1296
:1036E000D4F82C2252E8003F23F0100342E80031C6
:1036F0000029F5D1D4F8A03293F82520022A00F051
:103700003A810422DA6383F824100223C4F8903249
:10371000B4F8863270BD11F0010640F09E80654815
:1037200002423FF476AFD8070FD5D10540F1D680DD
:1037300001212962D4F8B01241F00101C4F8B0129D
:1037400099076BD5002E40F08C8058077DD51E0759
:1037500000F1C1801E050AD5500108D54FF4006163
:103760002962D4F8B01241F02001C4F8B012D4F8A4
:10377000B01200293FF45DAF990602D5920600F120
:10378000A080D4F8B022AB6802F0280203F0400316
:10379000134300F0E6804648FFF7FAFEAB685B068D
:1037A0007FF547AF05F1080353E8003F23F04003DE
:1037B00005F1080141E8003262B1D4F82C2202F18F
:1037C000080353E8003F23F04003083242E8003189
:1037D0000029F2D1D4F8A00200283FF42AAF364BDA
:1037E0008363FCF7D5FC00283FF423AFD4F8A00294
:1037F000BDE87040836B1847D4F89432002B3FF437
:1038000018AF04F50B70BDE8704018474FF48013F3
:103810002B6270BDD1058BD4980722D4590714D5DB
:10382000002E94D004212962D4F8B012180741F078
:103830000201C4F8B0128DD508212962D4F8B01263
:1038400041F00801C4F8B01284E7190782D502F0EC
:10385000200131433FF47EAFEEE7D807DAD4990771
:103860002CD502212962D4F8B0125E0741F0040180
:10387000C4F8B012D6D41907DED46BE755E8003F80
:1038800023F0400345E800324AB1D4F82C2252E834
:10389000003F23F0400342E800310029F5D1202207
:1038A0000023C4F8A822C4F8983270BD7800002024
:1038B000A402002020010004DD0E00085E07B1D440
:1038C000D9E7D4F89432002B3FF45BAF35489847E2
:1038D000D4F82C5255E79006AED43BE798073FF555
:1038E00034AF9BE7B4F88612B4F886329BB289B243
:1038F000002B3FF49EAE91423FF49BAE55E8003F53
:1039000023F4907345E800324AB1D4F82C2252E8EF
:10391000003F23F4907342E800310029F5D1D4F838
:103920002C2202F1080353E8003F23F00103083280
:1039300042E800310029F2D12023C4F8AC32C4F8A7
:103940009412C4F88C12D4F82C2252E8003F23F0D1
:10395000100342E800310029F5D10223C4F8903267
:1039600070BDC4F8B03270BD93427FF462AE0B6894
:103970009D06F2D470BD1A681D6C106820F00E0010
:103980001060106820F0010010605A6C012002F0F5
:103990001C0200FA02F26A6083F8250083F8241002
:1039A000B3E600BFA4020020806A0368C16F10B5AF
:1039B000D0F880409A68120601D521290BD09B6867
:1039C0005B0601D5222C1DD0D0F8843043F01003C3
:1039D000C0F8843010BD0022A0F8522053E8002F18
:1039E00022F0C00243E80021026839B152E8003FEA
:1039F00023F0C00342E800310029F7D12023C36738
:103A00001346DCE70023A0F85A30FFF7C1FDD0F8D9
:103A1000843043F01003C0F8843010BD08B518B1ED
:103A2000064B02689A4207D0054B064A5B69064975
:103A300000209847002008BD012008BD0FB03713B3
:103A400078000020582D0108702D010810B418B11D
:103A50000C4B04689C4207D00B4B0C4A5B690C4929
:103A60005DF8044B00201847032A02D9064B094A87
:103A7000F4E702EB820200EB82005DF8044B018167
:103A8000704700BF0FB0371378000020582D010891
:103A9000702D0108A82E010808B518B10D4B026859
:103AA0009A4207D00C4B0D4A5B690D49002098479C
:103AB000002008BD032906D9074B0A4A5B6908495B
:103AC00000209847F4E701EB810100EB81000089B9
:103AD00008BD00BF0FB0371378000020582D010833
:103AE000702D0108A82E01082DE9F041174F1D4641
:103AF000BB6913B1BDE8F04118473B694FEA420882
:103B0000002AF7D08F1EA8F1020406468E460C4408
:103B10003A4632F802CF9CFA9CFCA242A2F800C0BE
:103B2000F7D142467146304698470DB9BDE8F0815D
:103B300037F8023F5BBAA7423B80F7D037F8023F25
:103B40005BBAA7423B80F3D1F0E700BF78000020CA
:103B500000B583B041F4A041012394464FEA124ED0
:103B6000ADF80010ADF80230042200236946ADF82C
:103B700004E0ADF806C0FFF7B7FF03B05DF804FB43
:103B800010B1024BDB681847704700BF7800002077
:103B900010B520B10C4B02689A42044607D00B4B7B
:103BA0000B4A5B690B49BDE810400020184740688C
:103BB00018B1C36898470023636000232360204640
:103BC000BDE81040DCE700BF0DB0371378000020DF
:103BD000C02E0108DC2E010810B520B10B4B026885
:103BE0009A42044607D00A4B0A4A5B690A49BDE873
:103BF00010400020184700690023236008B1FFF738
:103C0000BFFF2046BDE81040BAE700BF0EB0371333
:103C100078000020E82E0108002F0108F8B50546BD
:103C20000088002A1C460CBF4FF400534FF4805309
:103C3000B0F59C6F0E460ED300F151077F00834212
:103C4000BFB235D21C4B1D4A5B691D490020984705
:103C50004FF0000C03E040F662274FF0010C1949C9
:103C6000194AC4E9011202F11912E26002F11912B3
:103C700022612346002262805122A28223F8167B11
:103C800029686A68A868EF68C4F816105A609860D6
:103C9000DF602969A8696A699861196196E803007B
:103CA0005A61AA8B9A83343484E803006046F8BDD5
:103CB0004FF0010CD3E700BF78000020082F010867
:103CC000282F01080100020003001B00F8B516466A
:103CD0000D464FF4E272014618461C460AF08AF976
:103CE000B6F8581021B196F85E30191E18BF0121A0
:103CF000012396F85B2084F8C6312B4684F8C52151
:103D000033F8262B84F8C411A4F8C82105F1560114
:103D100004F5E5721F685E689868D3F80CC0C2F8B5
:103D20000CC010338B4217605660906002F1100295
:103D3000F0D1B5F85630A4F8FA3105F1580604F57B
:103D4000FE7E05F18807B446BCE80F00BC450EF1C5
:103D5000100E06F110064EF8100C4EF80C1C4EF822
:103D6000082C4EF8043CEED1B5F88830A4F82C327B
:103D700005F18A0304F22E24BA35186859689A6846
:103D8000DE68E6601033AB4220606160A26004F13F
:103D90001004F2D1F8BD00BF10B50E4C8C46114690
:103DA000A28803F1020EB2EB4E0F06D263690A4AF3
:103DB0000A49BDE8104000201847013B4CF4A04CD4
:103DC0004B802EF00042A1F800C0BDE81040002357
:103DD0008AE600BF780000203C2F01085C2F010814
:103DE000F0B583B043F21C02009201230E4600247A
:103DF000032269460746ADF80440FFF775FEBDF89B
:103E0000043013F4006517D141F21B042B466946B8
:103E100038460222009446F40066FFF765FE3846F5
:103E20002B4669460222ADF80040ADF80260FFF76C
:103E30005BFE012003B0F0BD044B054A5D690549F6
:103E400020463B46A847204603B0F0BD780000203E
:103E5000702F0108A02F0108F0B5012983B0054695
:103E6000144621D0022909D01B4B1C4A5C691C490D
:103E700003460020A047002003B0F0BD43F24603F4
:103E800084270026ADF80030284601230322694626
:103E9000ADF80260ADF80460FFF726FEBDF804003F
:103EA00030B164B90120E7E743F245038327E8E72F
:103EB000094B0C4A5C690A492B46A047DBE747F4EB
:103EC00080573346694628460222ADF80070ADF8A7
:103ED0000260FFF709FEE5E778000020B82F01082F
:103EE000A02F0108D42F0108F0B5012985B006469E
:103EF000154631D0022924D143F232030124002790
:103F0000ADF808300322012302A93046ADF80A704B
:103F1000ADF80C70FFF7E8FDBDF80C306B8003F0D6
:103F20000702012A2A8027D013F0060018D116496B
:103F3000164A4C6916490096A0470024204605B051
:103F4000F0BD114B134A5C69114903460020A0479C
:103F50004FF440530024D2E743F233030C46CEE73C
:103F6000023A012AEAD9084A0096546908490A4ADD
:103F70003846A0472F80E0E70349084A4C690449C6
:103F800000963846A047D8E778000020083001089E
:103F9000A02F0108B82F01086C3001083830010843
:103FA00010B582B001AA01210446FFF79DFF00224F
:103FB00001212046FFF750FFBDF80430022B08D046
:103FC0000549064A4C6906490020A047002002B076
:103FD00010BD012002B010BD78000020A030010803
:103FE000E83001082DE9F04F2DED108B9BB090F8D3
:103FF0005E401D4690F85C300893042CB0F85830B1
:1040000003938046894616461AD8D0ED147AF5EE09
:10401000C07AF1EE10FA00F1F38190F86630002BCF
:1040200000F08F8290F85B30002B00F08A82024C07
:10403000024A059407E000BF780000204C310108D7
:10404000C54CC64A05946369C54900209847D8ED18
:10405000157A236A009307EE103AF5EEC07AF1EE76
:1040600010FAB8EE478A40F3CF81C8EE278AF6EE01
:10407000007A78EEA78A039B002B00F0A58198F8C0
:104080005E30049398F85A30002B40F0A48198F8E1
:104090006020022A41F0248198F85E40012C00F053
:1040A000E0830024224634990C71A6F8AC21002B41
:1040B00000F0968198F85F30012B00F00384022B0A
:1040C00000F0EA83002B40F0DC8301231A46F384DE
:1040D000328598F86030012B00F0CC83022B00F081
:1040E000C883002B00F00684059B9E4A5B699C49AF
:1040F00000209847B9F1000F00F07681002300936B
:10410000B9F8E410B9F808307180B9F8E610B18058
:10411000B9F8E2103180B9F8E810F180B9F802106E
:1041200031819B00B9F8041071819BB2B9F8061077
:10413000B18103F13002B9F80A10F18192B2B9F8F5
:10414000201031825F2AB9F82210718240F2ED818D
:104150008549A1FB0201890901EB4101A2EB411153
:1041600089B200201A4604460B460121F28203223E
:10417000B38272830023009A7384B483F083318303
:1041800031846B800123C5F80A30002A00F04F8784
:104190000027CDE9017706F13E039FED749A9FED6C
:1041A00074AADFED779ACDE90696B34605F10E0ABB
:1041B00044461E46049AFBB29A4200F2288100232C
:1041C000AAF80030AAF8083033800137042F0AF12A
:1041D000020A06F102060BF1560B04F11404E9D1B0
:1041E000039BAA89DDF804E012FB03F26B8992B20B
:1041F00013449BB2DDE90696591C012089B2009058
:10420000B6F8AC01012804D1DDE9020404FB00F09A
:104210000290029FB8F8640098F863C098F862B002
:104220004FF6FF74A74228BF27464408A4F1030AAB
:1042300098F86640A6F89EB18CF0010C0338A6F8F9
:10424000A6C1A6F8A471A6F8A0E1A6F8A801A6F850
:10425000AAA1AA81AB80E980002C00F0268141331D
:1042600099B24024012329802C81A6F8C031B9F1EC
:10427000000F03D0B9F80C30A6F8C231009B002B18
:1042800040F03D81349A98ED145A00231360089B46
:10429000A6F8B231039B012B40F22E81B8F85830BA
:1042A000023B01229BB29FED336ADFED335A98F84F
:1042B0005A10F1EE007AC8EE066A68EE277A68EEC8
:1042C000255A87EE867AC5EE867AB6EE006A76EED5
:1042D000866A37EE067AFCEEE66AB5EE405AD8ED0D
:1042E000155AA6F8AE31F1EE10FA16EE903A77EEC6
:1042F000867ABCEEC77AA6F8B02114BF012200224C
:10430000FCEEE77A328798F85B20A6F8B43117EE16
:10431000103AA6F8B63117EE903AF5EE405AA6F8E4
:10432000B831009BF1EE10FA14BF01200020002BE1
:1043300040F0BD8031867286708598F861300F4AF2
:104340000098C6F8BA210121B184A6F8BE311BB08D
:10435000BDEC108BBDE8F08F78000020083101081B
:104360002431010848320108ABAAAAAA2549123E05
:104370008FC2753D0024744900009643FF07010871
:1043800000000000B5EEC07AF1EE10FA00F10683ED
:1043900098F85A20002A00F00483B5EE407AF1EE36
:1043A00010FA05D1F5EE407AF1EE10FA40F0B8833C
:1043B0005FED0D8A059B724A5B6972490020984740
:1043C000039B002B7FF45BAE039B049398F85A3059
:1043D000002B3FF45CAE349A00231371A6F8AC3185
:1043E000B9F1000F7FF48AAE0123A5F802906B812A
:1043F000CE4602214A46CDF80890CDF80090FFE65F
:10440000614C624A05941EE6DFED618A33E60123C2
:10441000338098F85C90228940F2FF3340F2FF111C
:10442000B9F1000F18BF0B4642B39A4226D8A27BBF
:10443000237C3AB1022B05D1059B564A5B69DDE925
:10444000069620E0E07B002840F03E82012B00F041
:10445000AB80059B504A5B694A490090DDE90696AE
:104460009847DDF804E0039BAA8912FB03F26B89ED
:1044700092B213449BB2591C89B2C1E6059B474ACC
:104480005B69DDE906963F4900209847039BAA89AE
:10449000DDF804E012FB03F26B8992B213449BB285
:1044A000591C002089B20090AAE62346DBE6B5EE4F
:1044B000405AF1EE10FA0AD0C8EE057A77EE867A05
:1044C000FCEEE77A17EE903AB3871B0C7387002354
:1044D00061F30F03F5EE405A62F31F43F1EE10FA59
:1044E000708533633FF429AFFCEEE87A17EE903A1B
:1044F0001A0CB285F38520E700221346D3E698F81C
:104500005D30072B15D8264C9FED219A234493F854
:104510004C30A6F8A231349B83ED009A049B002B0B
:1045200040F0428298ED145AB1E6032001240021A4
:104530001CE6349A98ED145A00231360002300936C
:10454000A5E6012C40F2E28198F80F1042460123C3
:1045500003E00133A34200F0D981084692F823100A
:10456000814202F11402F4D2074F0E4A7C690549D8
:1045700005970020A047D8ED157A3B6A6AE500BF91
:10458000AC310108243101087800002038310108DD
:104590000000000078320108A432010868320108E6
:1045A000B0EE0008783101086FF00B030993E28840
:1045B000A3880A92182A009340F2938202EB8203A6
:1045C00003EB031303EB032302EB4303C3F3CC021C
:1045D00042EA43339BB240F6AA22934200F2D482CD
:1045E000AF4B0A9AA3FB02231B090E93013B9BB21C
:1045F00015935C230D9318230B930098002840F02B
:10460000D284059BA74A5B69A7499847B9F1000F77
:1046100000F0BC844FF000090222009B099913FBB3
:1046200002F292B20092226811440A460C910A9951
:10463000013B01FB0323099302F5C34328334CF2EA
:104640005032934207D9059B984A5B6996490020EE
:1046500098474FF00009099B03F5C34328334CF2F8
:104660005032934207D9059B914A5B698E490020DD
:1046700098474FF000090C9A002AC0F239838D4800
:1046800080FB0230D217C2EBA00000B2099B002BC6
:10469000C0F22283874981FB0331099BDB17C3EBFF
:1046A000A101119309B280B2091A0C9B0F908148A5
:1046B00080FB03C0C2EBA00288B209B20E9B10912E
:1046C000B0FBF3F0411C0A901FFA81FE0B981821F1
:1046D000B1FBF0F30E930C9B02EB4202B3EBC20270
:1046E00000F1F38213B2139393B20C93099A7148B9
:1046F000119B0B9980FB020CC3EBAC0303EB430C47
:104700000C9BB3FBF1F001FB103081B2B2EBCC0398
:10471000099100F1F7821AB219929BB20E9A0B9886
:10472000511E099A89B21891BEF1010F11FB0021A7
:1047300089B200F0ED82099A0C98824240F0FB8227
:10474000994200F04B840023012213931692149394
:1047500012920E930C9B9A00099BABF882209B004F
:10476000ABF88430B9F1000F40F0F1826C2317935D
:1047700036230C937D223D234FF00009ABF87C30AB
:104780000F9BABF87A200C9A1099C3F129031344BC
:104790001AB21192521A9BB2292A0F9307DC059B79
:1047A000454A5B694049002098474FF00009119B3A
:1047B000179A934207DB059B404A5B693A49002000
:1047C00098474FF000090D9B2C2B00F20C821E2BFA
:1047D00040F2DF831E3B0F229BB20D92ABF89A3062
:1047E000159B0C99ABF89430139BABF87E10ABF88B
:1047F0008E300F990A9BABF880100D99ABF896108C
:10480000ABF89820002B40F0CC81149B002B0E9B22
:1048100008BF00230E93129B002B00F0D383099A4C
:10482000199B9B1A0B9A93FBF2F39BB2169AABF867
:104830009220ABF88C300E9AABF888200023ABF8AE
:104840009030ABF88A300A9BABF88630B9F1000F94
:1048500040F0B882CDF80090DDF804E0DDE906967E
:1048600001E698F81020013A012A7FF61AAC224698
:1048700019E400237363B9F1000F41D001230093C1
:104880003EE4059B0E4A5B69074900209847B9F151
:10489000000F7FF433ACA7E500231A4617E400BFEE
:1048A000ABAAAAAAF0320108243101083C3301085E
:1048B00050330108ABAAAA2A84330108A4330108A3
:1048C00028320108002202E4013B042B00F230856B
:1048D00001A252F823F000BFA9450008194B0008B7
:1048E000ED480008114B0008ED4800086FF00C037C
:1048F00009935CE64FF001137363B9F1000FBDD16A
:1049000000236B800123C5F80A3041E4B84B98EDD1
:10491000157A05931B6A009306EE903AB5EEC07ABD
:10492000F1EE10FAB8EE668A7FF72CADC8EE078A72
:10493000F6EE007A78EEA78A18EE900A0AF02CF9C3
:1049400051B1059BAB4A5B69AB4900209847039B7B
:10495000002B7FF494AB38E598F85A20002A7FF4B6
:1049600029AD039B98F85F10002B98F8603014BFB6
:10497000204600209942049007D9059B9F4A5B6915
:104980009D4900209847FFF77DBB022B00F0B284C1
:10499000349B1A71A6F8AC21FFF78CBBDFED988A27
:1049A000CFE7DFED978ADCE7B6F8AC31B6F8A421A3
:1049B000012B00F0CB8007EE902ADFED929AB8EE43
:1049C00067AAB7EE089AF2EE02DA059B9FED8E0A0F
:1049D0001B6A019307EE903AB8EE67FA80EE0F0A71
:1049E00007F082FC98F86030022B2FEE00FA00F2FC
:1049F0001F8104EB830498F85E3094ED15EAD4ED42
:104A000018FA002B00F02581009BDFED7DEA9FED79
:104A10007FBA9FED7FDADFED7FCA9FED7FCADFEDC2
:104A20007FBADFED7FAADDF8149044460025227C92
:104A3000052A00F29280022A40F29A804FF0300A52
:104A40000827E27B052A00F26884DFE802F03E4195
:104A50003B034744F0EE4B7A8FEE276A228998F8A1
:104A60005E1002FB077702377F00BFB2A2880135D4
:104A700014349FED6C7AC6EE076A07EE90AAF8EE42
:104A8000677A87EEA66A07EE907AF8EE677A87EE85
:104A9000A67A07EE902AF8EE677AEAB267EE277AEE
:104AA000914277EE867A77EEA97A77EE897A7EEE72
:104AB000A7EABCD898ED145A002B40F0CE800093A2
:104AC000FFF7E5BBF0EE6A7AC6E7F0EE6C7AC3E773
:104AD000F0EE4D7AC0E7F0EE4C7ABDE7F0EE6B7A7F
:104AE000BAE70A9A002A4FD01823B3FBF2F302FB6D
:104AF00003F3C3F118039BB21593002B44D10A9A18
:104B00000B92531E9B009BB20D9301230E9374E5F1
:104B10006FF00F0309934AE56FF00603099346E52A
:104B200098F85F2098F860309A427FF441AC039B7C
:104B3000349ADFED338A002B14BF234600230493FD
:104B400000231371A6F8AC31FFF7B4BAF0EE499A1E
:104B5000F0EE49DAB0EE49AA37E7D9F81430324A14
:104B60002549002098474FF0180A0427002368E7DA
:104B7000012A05D0022AF0D14FF03C0A0A2760E74B
:104B80004FF0480A0C275CE7059B284A5B691A49E5
:104B90000020984700230122CDE90D3215930B9296
:104BA00034E5149B002B0E9B08BF00230E93129B31
:104BB00033B1099A199B9B1A0B9A93FBF2F39BB2A0
:104BC000ABF88C300A9B169AABF89220013B0E9AF8
:104BD000ABF888209BB2189A0A930123ABF88A207D
:104BE000ABF890302FE600230D931A46F6E500BF90
:104BF000780000209831010824310108D8310108DB
:104C0000000000009A999D41F902154F0000904361
:104C100000002043000000430000F0430000C043B8
:104C20000000404300247449CC320108DC32010802
:104C3000059BBE4A5B69BE490020984798F85E30E4
:104C4000002B00F0EF81DFEDBBFA0023B0EE6FEA3E
:104C5000DBE698ED145ADFEDB7EA9FEDB77ADFEDAA
:104C6000B76A349BCFEE077AB1EE0C7AC7EEA65A3C
:104C70002AEE07AA7FEE8EFACAEE257A9FEDB07A69
:104C800077EEAD7AB0EE006A77EEAE7A77EEAF7A75
:104C900027EE877A37EE067A77EE277A86EEA77ABE
:104CA000B4EEC57AF1EE10FA83ED007A7FF5EFAA43
:104CB000059BA44A5C699E49FDEEC77A002017EE69
:104CC000903AA047002300932CE402F1180083B22D
:104CD0000C9303B2139309E509999B4BC943A3FBBA
:104CE0000131099B6FEA1111DB1709B21193DAE464
:104CF0000C9A954BD043A3FB00306FEA101000B222
:104D0000D217C3E403F1180002B283B2199205E589
:104D10000C98824200F05F8100220A921692129251
:104D2000139A9B1A0B9A93FBF2F39BB20E930123F7
:104D3000CDE913330EE5994200F05A810A9B013BFD
:104D40009BB20A930123169312930B46E8E7E37B89
:104D5000052B00F21183DFE803F01A130C032B215B
:104D60004FF486731793D6230C9340F21D128D23B4
:104D700004E5AC23179376230C93BD225D23FDE459
:104D80008C23179356230C939D224D23F6E46C231A
:104D9000179336230C937D223D23EFE44FF4E67303
:104DA00017934FF4CB730C9340F2DD12ED23E5E43F
:104DB0004FF4B67317934FF49B730C9340F27D122C
:104DC000BD23DBE4A37A172B00F2FE80092B00F24F
:104DD0001B81C3F109039AB21523ABF84630069B39
:104DE000ABF84820002B00F05B8203EB4202938972
:104DF000ABF84A30237C013B042B00F29F82DFE8B2
:104E000003F0BA7603A984004FF000094FF4007252
:104E10004FF4C063CDE909234FF0C00E02204FF0DC
:104E2000040C08214A464B46ABF86E000A98ABF8D2
:104E300056000998ABF870C0ABF85800ABF84E10AC
:104E4000ABF85010ABF852E0ABF854E098F85D10B6
:104E5000B9F1000F00F00681002B00F00381022958
:104E600000F27881394B0B4493F84830ABF85A3054
:104E7000069B002B00F019810023ABF85E30012364
:104E8000ABF86A30069B0021D3E932ECD3F8C4902A
:104E90000B460EEB1140A0EB09009042614480F2FA
:104EA0002C8201330F2BF4D1069AABF86030D2E993
:104EB00036E303EB83020EEB1242F92A00F3EC8196
:104EC000062003FB00F0052103E0BCF1FA0C40F1E1
:104ED000D7810A46013189B214290EEB104C1844CF
:104EE000F3D1059B1A4A5B69DDE9069637E100219B
:104EF0004FF40073CDE909134FF0400E03204FF03B
:104F0000020C08219622FA238EE74FF000094FF495
:104F1000F0504FF47853CDE909034FF4F86E0220B6
:104F20004FF00B0C08214A464B467DE748320108FA
:104F300024310108000000000000204300247449CF
:104F40000AD7233C20340108ABAAAAAAB0EE000875
:104F5000F43301084FF000094FF4C06C4FF4606364
:104F6000CDE909C34FF4E07E02204FF0060C082182
:104F70004A464B4658E7069B9B8C0422082BCBF8ED
:104F80006E205BD9DDE90696FFF780BA0422FFF7B1
:104F900044BB0D9B0F2B30D9A3F10F020F230D93B0
:104FA00092B200231AE4B9F1000F2AD1237B002B1F
:104FB00033D0059BC44A5B69C449484698470422DC
:104FC000FFF72BBB0A9B31E4059BC14A5B69DDE916
:104FD0000696FFF758BA99427FF49EAE0023CDE9BA
:104FE0001333CDF828E0169312930E93FFF7B2BB5C
:104FF0000023169312930B4692E600221346FFF706
:10500000EDBB0222FFF709BB102B94BFC3F11E03B7
:10501000C3F117039BB20022DFE64FF0010904221F
:10502000FFF7FBBA98ED145A0093FFF730B90098D8
:105030000290864602210246FFF7E2B8ABF84E30F6
:10504000ABF8503040230022ABF85230ABF854306C
:105050004FF40073ABF85630ABF8582098F85D1059
:1050600013469146072975D89A48014491F84C1087
:10507000ABF85A100699C1B10021ABF85E10B9F136
:10508000000F40F08380ABF86A90ABF86090ABF80B
:105090005C90ABF86290ABF86890ABF864904A46CD
:1050A0000023ABF86620ABF86C302389E27AABF8CA
:1050B0007620012B67D0023B9BB20121ABF8723006
:1050C000A37BABF84C3083F00103ABF87410ABF862
:1050D00078300099AB89AAF800300B44AAF8081080
:1050E000AB81A388217C06EE903A2389012907EE43
:1050F000103ABBF86E302AD0022914BFF0EE695A7C
:10510000F0EE4A5A01339BB207EE903AF8EE677A16
:10511000B1EE006AF8EE666A67EE867AB8EE477A14
:1051200067EEA67A0198029B67EE877A014667EEE2
:10513000A57A002808BF114667EE897A0191FCEE36
:10514000E77A17EE902A13440293FFF73EB8DFED9B
:10515000625AD7E7059B614A5B69DDE906965B49C0
:1051600000209847039BAA89DDF804E012FB03F2B4
:105170006B8913FA82F39BB2591C002092B289B258
:105180000090FFF73DB80023194697E70121ABF8DF
:105190006A10002B7FF476AEABF8603019461A46E1
:1051A000ABF85C200022ABF86220ABF868204BBB68
:1051B000ABF864301A4602EB0109069AD2E92FE1F6
:1051C000CE451DDA0846002202F1010C09921FFAB1
:1051D0008CF2162A3FF485AE0EEB104CBCEB090C9A
:1051E0000844F1D4002B7FF45BAF099800FB01F178
:1051F0000EEB1143A9EB03039C45C8BF02464FE7E2
:1052000000224DE7069BD3E9349C894546DA1346D4
:1052100062469E4601339BB2162B3FF462AE09EB09
:105220001240401A6244F4D40CFB0EF209EB124215
:105230008A1A9042D8BF9E460699BBF86020D1F8E2
:10524000CC30BBF85C00099002FB03F3D1F8C82016
:10525000ABF864E002EB13420B46D1F8C410521ACB
:10526000D3E936303FF53DAE09990CFB0EFE00FB4D
:1052700001F103EB114309EB1E401918FA239AE7D9
:1052800002FB03F30EEB1343C3F1FA039C45D8BFB3
:105290000A46FA210B4683E70522FAE79646CBE752
:1052A000069BABF84A30237C013B042B46D801A275
:1052B00052F823F0FF520008EF4E0008094E000894
:1052C000554F00080B4F0008043301082431010832
:1052D000BC330108B0EE0008CDCC4C3ED4330108FD
:1052E000349A1371A6F8AC31B9F1000F7EF406AF11
:1052F000FFF77AB80123FEF7D1BE9BB2D4E54FF099
:1053000000094FF40073CDE909934FF0400E0420DB
:10531000CC4602214A464B4686E5D9F814301A4A53
:105320001A4900209847DFED1A7A0023FFF794BB53
:10533000059B184A5B69DDE9069610E7059B154A4F
:105340005B6912490020DDE906969847AA89039B0C
:10535000DDF804E012FB03F26B89562113FA82F3A5
:1053600001FB076100209BB2C1F86E00591C92B28C
:10537000009089B2FEF744BF059B034A5B6903496D
:1053800000209847FFF7F2B978330108243101086B
:1053900000000043CC32010870B5FEB04FF4E27259
:1053A00004460D460DA8002103AE08F0F7FC009658
:1053B0000DAA05AB00212046FEF714FE08B97EB009
:1053C00070BD94F85B202B46314605A8FEF726FCFD
:1053D000F5E700BF10B590B018B10C4B02689A42C7
:1053E00008D00B4B0B4A5B690B4900209847002003
:1053F00010B010BD0C46043001A9FFF7CDFF002806
:10540000F6D0BDF804302360F2E700BF0FB03713C9
:1054100078000020582D0108702D01082DE9F04377
:1054200083B01D4643F440534FF00008BDF82840B8
:10543000ADF800308946164669460123032245F43B
:1054400080550746ADF80280ADF80480FEF74CFBAE
:10545000ADF80050BDF9045004FA09F46C4004EAB8
:10546000060255404346694638460222ADF80250CE
:10547000FEF73AFB03B0BDE8F08300BF30B583B060
:105480000025294600957B23FF220446FFF7C6FF2F
:105490000121009120468B230222FFF7BFFF8B23BF
:1054A0008022009507212046FFF7B8FF03B030BDEA
:1054B00070B582B043F2370200230092ADF8043099
:1054C0000322012369460546FEF70EFBBDF80430B2
:1054D00013F0C00F19D143F21C02012300920024E3
:1054E000694603222846ADF80440FEF7FDFABDF8F0
:1054F00004301B0514D50D4B0D4A5E690D4920463D
:105500002B46B047204602B070BD084B1A7F002AD8
:10551000E1D05C69084A07492B460120A047DAE739
:105520002846FFF7ABFF012002B070BD78000020D5
:105530006C340108A02F010840340108002870B421
:1055400046DB0029034639DB88420A464BDA002550
:10555000012429461B04B3FBF2F343F6284293428D
:105560005AD946F2D632934261D948F67202934232
:105570005FD94AF6494293425DD94DF2A302934264
:105580005BD94FF24B72934298BF052045D94FF239
:105590004C7648F233224CF2A3409B1B02FB03F3F0
:1055A00000EB134014B1C0F5C9301F3015B1C0F580
:1055B00049303F30C1B1404270BC7047494209B2E6
:1055C000884217DA002501240A4603462146C1E72E
:1055D000404202B20029104614DB91420B4605DD21
:1055E00099BB1D4800E050BB70BC704700240125EA
:1055F0002146AFE70028DED000250B4602462C46A8
:105600000121A7E7494209B28A424FF00105DADBDE
:105610000B46002429469DE70020104A02EBC006F5
:1056200002EB8002D6E91B60D2F8A420B5E7012086
:10563000F3E70220F1E70320EFE70420EDE7002580
:105640000B4602462C46294684E701251A462C467D
:10565000034600217EE700BF20920100B0EE000863
:105660002DE9F04FBFB00DF138090D46904601937A
:1056700000F1020B3EAFCA46002440F6B73631E0D7
:1056800025B335F8141001F01F0E4FEA912C0EF1DE
:10569000300E00FB0EF0C1F34411ACF1200C02FB04
:1056A0000CFC002801F1300102FB01F1B8BF3F30D2
:1056B000BCF1000FB8BF0CF11F0C8011002900EBEA
:1056C0006C10B8BF3F3100B241F38F110134182C78
:1056D00008BF0024FFF732FF4AF8040BBA450BF16C
:1056E000040B0ED0BBF900203BF9020C02FB02FCBC
:1056F00000FB00CCB4451146C2DC00203FB0BDE841
:10570000F08F0DAC0DF1060109F15C05224652F84F
:10571000043F002BB8BF0F3302311B1195420B80A1
:10572000F5D1484603F05EF9002254F8043F216E9B
:10573000A542A3EB01031A44F7D1124B83FB0213DA
:10574000D217C2EBA31404F5994330334CF662121E
:105750009342D2D802AE35460FCD4D4508F1100820
:1057600006F1100648F8100C48F80C1C48F8082CF4
:1057700048F8043CEFD1019B01201C803FB0BDE8FC
:10578000F08F00BFABAAAA2A2DE9F04F2DED028BB6
:105790001C461B78ADF21C4D05460F4691460A2B60
:1057A00012D8DFE813F020000B007000F5007A013A
:1057B000FE01A902CF03210452042000FEF7F0FBF2
:1057C000002840F004852378C74E7569C74AC84948
:1057D0000020A8470020064626700DF21C4DBDECA7
:1057E000028BBDE8F08FC04EDDF84804EC220021AA
:1057F00008F0D4FAD6ED087ADFEDBE5ADFEDBE6AC6
:10580000F8EE677AB6EE006A85EEA77AF4EEE67AED
:1058100037EE067AF1EE10FABCEEC77A17EE103AC0
:105820001FFA83F800F330849FEDB47AF4EEC77A60
:10583000F1EE10FA00F12884A8F1100292B2EF2ADA
:1058400040F2A8869FEDAE7ADFEDAE6A756977EE1D
:10585000877A37EE877ABCEEE78ABCEEC77AB8EE75
:10586000477A77EEC77A67EEA67AFCEEE77A17EE0C
:10587000907AA54BA54AA64901978DED008A002094
:10588000A8472378A1E7FEF78BFB049000289AD065
:10589000412300223946284603F058F90023028CA0
:1058A0000292A0F1020A039398464FF6FF7B5A1E1C
:1058B00002FB02F2C2EBC202510001F5167CC83AAB
:1058C0003AF9021F002B00F06F843AF902EC01F55F
:1058D0007A76A1EB0E019142FFF675AF61453FF775
:1058E00072AF86EAE672A2EBE67292B25A4505D230
:1058F000990089B2DDF81080039193460133102B93
:10590000D5D1B8F1000F3FF45EAF039A82F0300AB0
:10591000DDF84824A2F804A0B0F822B0B0F8802046
:10592000A2EB0B02B2F5FA6FFFF64DAF7949CDF855
:1059300010A01204A1FB021252094FF0000C2030FB
:10594000039266464FF6FF7E0AE0514538BF4FF09E
:1059500000080133039A9BB2402B944400F059870E
:1059600030F8021F029A8A1A002AB8BF524292B235
:1059700072450BEB1C4A38BF96460AF5487238BF91
:105980001E468A4201F54871DFD24FF00008E0E779
:10599000FEF706FB00283FF416AF3946002220230D
:1059A000284603F0D3F8B0F900200746844616468F
:1059B0000121002096463CF9022F02F54873A3EB23
:1059C0000E039BB2B3F5C86F3FF6FDAEB242A8BF5F
:1059D000084601F10101A8BF16462029EAD107288F
:1059E00040F2B1861728A0F1070340F24787D3F1B0
:1059F000200240F0AB8646AB039303982EA9FBF739
:105A000047FC00283FF4DFAE9DED2E6AB5EE406AFC
:105A1000F1EE10FA3FF4D7AE9DED2F7AB5EE407A55
:105A2000F1EE10FA3FF4CFAEDDED306AF1EE666ACA
:105A3000C6EE877AF5EEC07AF1EE10FAFFF6C3AE45
:105A4000B1EE477AC7EE066AF5EEC06AF1EE10FADB
:105A50007FF5B9AEB7EE007A77EE877AFCEEE77A9B
:105A600017EE903A9AB23F2AC3F34E033FF6ABAE1D
:105A7000DDF8482483F01003D38040F21531284626
:105A8000FEF7AEF90426002800F0E48226700DF23D
:105A90001C4DBDEC028BBDE8F08FFEF781FA0028AB
:105AA0003FF491AE502339460022284603F04EF8C9
:105AB000DDF84834CDF81890CDE9045703F10A0118
:105AC0003023A0F1020B9C460846A246124B00244C
:105AD00047F6FF76CDE9020B5D464FF6E472A64627
