:020000040800F2
:1000000000000120A1A400087D240008812400082C
:1000100085240008892400088D24000800000000C1
:100020000000000000000000000000009124000813
:100030009524000800000000992400089D24000871
:10004000F1A40008F1A40008F1A40008AD24000800
:10005000F1A40008F1A40008F1A40008F1A400082C
:10006000F1A40008E9240008F1A40008F1A40008A4
:10007000FD24000809250008F1A40008F1A40008E7
:100080001525000821250008F1A40008F1A40008A6
:10009000F1A40008F1A40008F1A40008F1A40008EC
:1000A000F1A40008F1A40008F1A40008F1A40008DC
:1000B000F1A400080000000000000000F1A4000806
:1000C000F1A400082D250008F1A40008F1A40008FF
:1000D000F1A40008F1A4000819270008F1A4000801
:1000E00055250008692500080000000000000000F8
:1000F0000000000000000000000000000000000000
:1001000000000000F1A4000800000000F1A40008B5
:100110000000000000000000F1A40008F1A40008A5
:10012000F1A40008F1A40008F1A40008F1A400085B
:10013000F1A4000800000000000000000000000022
:10014000F1A40008F1A40008F1A4000800000000D8
:10015000F1A40008F1A40008F1A40008F1A400082B
:10016000F1A40008F1A40008F1A4000800000000B8
:10017000F1A40008F1A40008000000000000000045
:10018000F1A40008F1A40008F1A400080000000098
:10019000836A0022A3F85A20A3F85220704700BFB8
:1001A00090F824C0BCF1010F3CD070B590F825C088
:1001B0000124A44580F824405FFA8CFE04D000237B
:1001C00080F82430022070BD022580F82550046894
:1001D0000025C5632668456C26F00106266005F0FB
:1001E0001C05066C0EFA05F5756063608368102BBC
:1001F000036B0BBFA260A160E160E2604BB12368BA
:1002000043F00E032360236843F0010300202360C2
:1002100070BD236823F004032360236843F00A03BE
:100220002360F0E7022070472DE9F041764C00236F
:10023000237094F86530012B0D46E16808D0B1F5C4
:10024000827F60D1D8B22369002B5CD104285AD1B7
:10025000002D58D092B2002A55D094F86430012B6A
:1002600051D094F86530A6682564042B1CBF052383
:1002700084F8653001210023A36684F86410A4F893
:100280004620A4F84E20C4E915337368A4F844202E
:1002900023F4C043A564A4F84C2073606369206E06
:1002A000B3F5E06F31D8E36D99697368B1F5806F8C
:1002B00043F4805373607DD08369B3F5806F65D05C
:1002C00094F86530514A042B514B18BF1346514ADC
:1002D0000363514B4363514B18BF1346C362B4F8D9
:1002E0004E304FF00008C0F838809BB206F10C0188
:1002F0002A46FFF755FF074660B1A36E84F8648075
:1003000043F01003A366BDE8F081736823F48053C3
:100310007360D5E77368E06D43F001037360B4F870
:1003200046300A46C0E90B77C0E90D7729469BB2F3
:10033000FFF736FF00284AD133685B0621D500233A
:1003400084F86430736843F020037360736843F08B
:1003500002037360E26E2378002BD4D141F287311F
:1003600009E072B6237803B930BF62B6BFF36F8F6E
:100370002378002BC7D1E36E9B1A8B42F1D9BDE8DD
:10038000F081336843F040033360D8E7736823F4A7
:1003900080537360B4F84E3013F0010F73681DD1B1
:1003A00023F400537360B4F84E30C3F34E03A4F843
:1003B0004E3085E7D20773681BD423F48043736003
:1003C000B4F84630C3F34E03A4F8463074E7A36E86
:1003D00084F8647043F01003A36694E743F4005379
:1003E0007360B4F84E30C3F34E030133A4F84E30BB
:1003F00066E743F480437360B4F84630C3F34E03BA
:100400000133A4F8463057E7880000207909000836
:1004100075090008B91200087D0900080D120008CE
:1004200070B4436C066C056831682C6803F01C03DB
:1004300004229A400A420ED014F0040F0BD02B680D
:100440009B0603D42B6823F004032B60036B7260BC
:10045000CBB170BC184702229A400A4215D014F062
:10046000020F12D02B68990606D42B6823F00A03DA
:100470002B60012380F82530C36A7260002180F868
:100480002410002BE5D170BC704708229A400A4224
:10049000F9D02207F7D52A68416B22F00E022A60B4
:1004A000012202FA03F300247360C26380F824403F
:1004B00080F825200029E6D070BC0847234A9368BD
:1004C000D26813F00C0305D00C2B32D0042B36D19C
:1004D0001F4870471D4A1168090754BFD2F894207D
:1004E00012681C4954BFC2F30322C2F3031251F82D
:1004F0002200002BEDD0154BDB6803F00303022B29
:1005000022D0154A032B08BF1046104BD968DA6871
:10051000DB68C3F34163C2F30622C1F30211013366
:1005200000FB02F201315B00B2FBF1F2B2FBF3F02F
:10053000704702F00302012ACCD00020DBE7082B31
:10054000054818BF002070470148DEE70010024050
:100550000024F400C0D9000800127A00064A074BB4
:1005600092680749C2F302221344086893F83030B6
:1005700003F01F03D840704700100240C0D90008A4
:1005800000000020064A074B92680749C2F3C222C6
:100590001344086893F8303003F01F03D8407047C5
:1005A00000100240C0D9000800000020414A036842
:1005B00030B4D468A40707D0D46804F003049C4284
:1005C00046D0012030BC7047022B52D0032B49D0BB
:1005D000012BF6D112689207F3D5364CE26822F06F
:1005E000730213434268013A43EA0213E360314C59
:1005F000314A236823F080632360D56E03E0D36E15
:100600005B1B022B39D823681B01F8D483681B02BB
:10061000002934D12169C56821F0784121F4FE41D7
:1006200043EAC5630B43236122490B6843F08063AF
:100630000B60D46E03E0D36E1B1B022B1DD80B681E
:100640001B01F8D582690B69134300200B61B9E7E0
:10065000002CB6D0D3684268C3F30213013393422F
:10066000AFD1C4E71468A403B7D412685203A8D565
:10067000B3E712685505A4D5AFE70320A2E7012927
:1006800021690BD021F0C06121F4FE411943436977
:100690005B08013B41EA43612161C5E721F4C001E8
:1006A00021F4FE410B4301694908013943EA4153F2
:1006B0002361B9E70010024088000020F0B504680B
:1006C0000546200583B000F1F2800026A1034ED537
:1006D000A54B9A6DD20040F1F5800027A349A44AAA
:1006E0000B6843F480730B60D06E04E0D36E1B1A6A
:1006F000022B00F200810B68DB05F7D5A6BB9A49F7
:10070000A86DD1F8903013F4407325D0834223D0E4
:10071000D1F890C0D1F8903043F48033C1F89030D4
:10072000D1F8903023F48033C1F890301CF0010FE1
:100730002CF44073C1F890300ED0D2F86CE041F246
:10074000883C05E0D36EA3EB0E03634500F2D38033
:10075000D1F890309B07F5D5834AD2F8903023F436
:1007600040730343C2F89030002F40F0DC80E10773
:1007700008D57D4A296AD2F8883023F003030B4359
:10078000C2F88830A20708D5774A696AD2F888305B
:1007900023F00C030B43C2F88830630708D5724A74
:1007A000A96AD2F8883023F030030B43C2F88830AE
:1007B000A70608D56C4AE96AD2F8883023F440636A
:1007C0000B43C2F88830A00508D5674AE96BD2F818
:1007D000883023F440230B43C2F88830610508D5E4
:1007E000614A296CD2F8883023F440130B43C2F8D5
:1007F0008830620608D55C4A296BD2F8883023F429
:1008000040530B43C2F88830230608D5564A696B1B
:10081000D2F8883023F440430B43C2F88830E70510
:1008200008D5514AA96BD2F8883023F440330B43E2
:10083000C2F88830200323D4374661030FD54A4AD3
:10084000E96CD2F8883023F040630B43B1F1006FBC
:10085000C2F8883000F08380B1F1806F77D03E46D7
:1008600062044DD43046230408D53F4A696DD2F85E
:10087000883023F080430B43C2F8883003B0F0BDCA
:10088000394AA96CD2F8883023F040630B43B1F1A8
:10089000006FC2F888304CD0B1F1806FCCD101210B
:1008A000281DFFF783FE07460028C5D0C5E76F6CFB
:1008B000B7F5000F11D0B7F5400F13D0002F3DD082
:1008C000012603E79A6D42F080529A659B6D03F012
:1008D00080530193019B012700E7234AD36843F427
:1008E0008033D360204AD2F8883023F440033B435E
:1008F000C2F88830E9E60326002F3FF438AF12E053
:1009000019492A6DD1F8883023F040531343B2F1CE
:10091000805FC1F88830A5D10221281DFFF746FE6F
:1009200000289FD09FE7104A936D23F08053936572
:100930001DE7D36843F48013D3607DE73946281D53
:10094000FFF734FE064600287FF4C0AECAE7012157
:10095000281DFFF72BFE0646002880D080E7D368CD
:1009600043F48013D3607AE7001002400070004027
:1009700088000020704700BF704700BF836A196875
:100980004A6822F003024A601A6E4FF0010C42F0EE
:1009900010021A6683F85DC0704700BFB1F804C04A
:1009A00093680A899A80BCF1000C18BF4FF0010CC3
:1009B000CA7983F800C091F806C083F801C09A7024
:1009C0009860704703460068D3F8E8104268C3F89F
:1009D000F0101047704700BF2DE9F047D0F80080B5
:1009E0000546B8F1000F1ED0D8F898700FB3124E1C
:1009F00007F148044FF00009583754F8040F18B1B4
:100A0000B36F9847C4F80090A742F6D1D8F8980081
:100A1000B36F00B19847B36F40469847B36F28460D
:100A2000BDE8F0471847044E2846B36FBDE8F047CD
:100A30001847014EEFE700BF880000202DE9F0477E
:100A400082B0BDF828400B9F03EBC4056B88002BD8
:100A500045D06E68844601EB0208043E4FF0000E5C
:100A600056F8044F620092B28A4234D3424532DAD9
:100A7000C4F30170012818D002283CD098BB521A48
:100A800093B2C4F34459012202FA09F297424BD3BC
:100A90003449013AD1F8804001923349334A0097F2
:100AA000A047002002B0BDE8F087521A92B20CEBCA
:100AB00042093CF81200B9F8023043EA004323F03F
:100AC0000F0317B1C4F303442343180C2CF812008E
:100AD000A9F802306B880EF1010E7345C0D80120D1
:100AE00002B0BDE8F0871F4B214AD3F880301E4981
:100AF00000209847D5E7521A92B20CEB42003CF81E
:100B00001290438843EA094323F00F0317B9C4F353
:100B1000034423431C0C2CF8124043806B880EF1D5
:100B2000010E73459CD8DAE7C4F3044A0CEB430486
:100B30003CF813006288C9F1200942EA00424FF0F4
:100B4000FF3020FA09F000FA0AF022EA000207FA60
:100B50000AFA42EA0A02100C2CF8130062806B8831
:100B6000B9E700BF88000020C41801088C180108EC
:100B7000D0180108002870B446DB0029034639DB91
:100B800088420A464BDA0025012429461B04B3FBA0
:100B9000F2F343F6284293425AD946F2D6329342B0
:100BA00060D948F6720293425ED94AF649429342AE
:100BB0005CD94DF2A30293425AD94FF24B72934241
:100BC00098BF052045D94FF24C7648F233224CF2BB
:100BD000A3409B1B02FB03F300EB134014B1C0F5D1
:100BE000C9301F3015B1C0F549303F30C1B1404266
:100BF00070BC7047494209B2884217DA00250124C7
:100C00000A4603462146C1E7404202B20029104687
:100C100014DB91420B4605DD91BB1C4800E048BB4C
:100C200070BC7047002401252146AFE70028DED0C4
:100C300000250B4602462C460121A7E7494209B28E
:100C40008A424FF00105DADB0B46002429469DE776
:100C500000200F4A02EBC00602EB8002D6E90E60CC
:100C6000126FB6E70120F4E70220F2E70320F0E775
:100C70000420EEE700250B4602462C46294685E770
:100C800001251A462C46034600217FE720920100E9
:100C9000C0D900082DE9F0470646804602EB420025
:100CA0008CB0154606EB8000002289460DF10C0A37
:100CB000014617464FEA870E54469FED767AB31ADF
:100CC00075B103EB020CF444DCED007A9C46DCEDDC
:100CD000006A0C3367EEA67A8B4237EE277AF0D1A2
:100CE0000EF1040EBEF10C0FA4EC017AE5D1013730
:100CF000032F0AF1100AA2F1040201F10401D9D173
:100D00009DED045ADDED055ADDED086A6A4606F1EF
:100D10000C01DFED607A43463DB11C4694ED007A4C
:100D20000C33834277EE877AF7D108F104088845BF
:100D3000E2EC017A00F10400EBD19DED037AF0EED4
:100D4000C77AF4EE677AF1EE10FA12D69FED526A86
:100D5000F4EE467AF1EE10FA0BDC9FED506AF4EEF9
:100D6000C67AF1EE10FA04DAB5EE407AF1EE10FA36
:100D70007DD0F7EE007A87EE872A9DED073A9DED4C
:100D80000B7A65EE023A25EE824A65EE237A65EE2D
:100D9000A34A33EE673A25EE846AF0EEC32A65EE85
:100DA000047AF4EE622AF1EE10FA76EEE44A76EE78
:100DB000E77A37EE466A06D69FED377AF4EE472A91
:100DC000F1EE10FA47DDB7EE007AC7EE032ADDED4B
:100DD000006A9DED017A9DED023A63EEA63A67EE58
:100DE000A27A37EE637A64EEA73A67EE877A36EE38
:100DF000636A24EE264AF0EEC63A73EE677AF4EEA2
:100E0000633AF1EE10FA77EEC47A06D69FED224AE5
:100E1000F4EE443AF1EE10FA2FDD87EE864A012017
:100E2000002364EE844A65EE845A77EE647A89ED95
:100E3000024A67EEA27A25EE275AC9ED017A76EECC
:100E4000C57A77EEE57A67EE827AC9ED007A33608B
:100E50000CB0BDE8F0879FED117AF4EEC72AF1EEF1
:100E600010FAB0DAB5EE403AF1EE10FAABD100204C
:100E7000002333600CB0BDE8F0879FED084AF4EE24
:100E8000C43AF1EE10FAC8DAB5EE406AF1EE10FAA3
:100E9000EDD0C2E700000000FFFF7F7F0000800070
:100EA0002DE9F047C36D8769056900247C80814680
:100EB0001C7000F14806A04656F8043FFBB1B3F899
:100EC00038C0B3F89400B3F89610B3F8DC2005EB03
:100ED000400005EB410105EB420205EB4C0CC3E978
:100EE0001301C3F8A820C3F814C03C701868D3F8E5
:100EF000E020416883F8E880C3F8E42088470134A3
:100F0000E4B2042CD8D1D9F80000BDE8F04743681A
:100F1000184700BF0068C368184700BF70B5044693
:100F2000806980B1E3694BB1104B93F888202AB1F6
:100F3000D3F880300E4A0F49012098472068BDE859
:100F4000704083681847094D0B4AD5F8803009492D
:100F50009847E36943B195F888302BB1D5F88030D4
:100F6000034A044901209847002070BD88000020F2
:100F7000F4180108041901081419010830B40269B1
:100F8000B0F8423090F8381032F81330032908BF17
:100F900083F4004340F2E51101FB03F31B0C816C69
:100FA0008446A3F589700880BCF83C10DCF84C003E
:100FB00032F8111039B1BCF8401032F81110012983
:100FC00094BF002101210170BCF83E00BCF83A102A
:100FD000DCF8505032F8111032F81020DCF8544090
:100FE00040F2E51000FB02F2A3EB12431BB2002B10
:100FF000BCF94420DCF80000B8BF5B421BB29A4247
:10100000A1F10102B2FA82F2ACBF0023012352091E
:101010002A70237030BC4368184700BF0068C3685B
:10102000184700BF00688368184700BFD0E90F2346
:10103000816B0069184700BF836910B50446CBB1C6
:101040000E4B93F8882052B963698BB10B4B0C4A55
:10105000D3F880300B4900209847002010BDD3F80A
:101060008030094A0749012098476369002BEDD178
:10107000012010BDC369002BE2D1E5E78800002004
:10108000681901084C190108301901080068C36883
:10109000184700BF00688368184700BFF0B482B0EB
:1010A0002E4E056800238DF80330F36EF76EC3F102
:1010B00064031A442A4B1B6803EB8303C3EBC3038B
:1010C0001B0D02FB03F30193AB6819420AD134E014
:1010D000019C019B013B0193AB68002C08BF0022DF
:1010E00019422AD0B1F5C06F05D12B7BDBB28DF848
:1010F00003309DF80330F36EDB1B9342E8D36B683B
:10110000426823F0E003B2F5827F6B6019D0836AF6
:10111000B3F5005F07D12B6823F400532B602B68D5
:1011200043F400532B600122002380F85D2080F8F7
:101130005C30032002B0F0BC7047002002B0F0BC6D
:1011400070478368B3F5004F02D0B3F5806FDED1EE
:101150002B6823F040032B60D9E700BF88000020F4
:101160000000002070B4274D274BEA6E1B6804680E
:10117000EE6EC2F16402114483B0C3F3CB3301FBC2
:1011800003F30193A3681A062CD509E0019A019B89
:10119000013B0193A368002A08BF00211B0621D54B
:1011A000EB6E9B1B8B42F1D36368426823F0E00334
:1011B000B2F5827F636019D0836AB3F5005F07D10F
:1011C000236823F400532360236843F4005323600F
:1011D0000122002380F85D2080F85C30032003B0FA
:1011E00070BC7047002003B070BC70478368B3F5D3
:1011F000004F02D0B3F5806FDED1236823F04003A7
:101200002360D9E7880000200000002038B5294A73
:101210000368D56E1B689B061BD4846A2368A2688A
:101220005868616820F0200058609AB15868B1F59C
:10123000827F20F00100586022D029462046FFF727
:1012400091FFB0B901230022A4F8462084F85D3054
:10125000236E38BD5A68B1F5827F0CBF22F00302BD
:1012600022F001025A6029462046FFF77BFF002842
:10127000E8D0236E43F02003236620232366E1E7B2
:10128000B2F5004F12D11A6822F0400229461A60C6
:101290002046FFF767FF0028EBD12A464FF4C061D4
:1012A0002046FFF7FBFE0028CCD0E2E7B2F5806FC6
:1012B000E9D0C2E788000020F8B51B4D0368EF6E47
:1012C0001B68846A9B062CD42668736823F020036D
:1012D00073603A464FF4C0512046FFF7DFFE58B91D
:1012E00039462046FFF73EFF30B93A464FF4C06119
:1012F0002046FFF7D3FE38B1236E43F02003236668
:10130000236E43F020032366736823F003037360A6
:1013100000220123E287A4F8462084F85D30236E82
:101320000BB901232B70F8BD8800002030B4124D9A
:10133000124C00F1BC0C002143680B44024640F8FB
:10134000043F12689A1AAA4209DD50F8042CA3F54A
:10135000C9237E3BA1F5C92103607E399A1AA242B6
:1013600006DA03F5C92301F5C9217E3303607E3116
:101370008445E1D130BC70473F240300C1DBFCFF52
:101380002DE9F04FBFB00DF138090D46904601939D
:1013900000F1020B3EAFCA46002440F6B73631E0FA
:1013A00025B335F8141001F01F0E4FEA912C0EF101
:1013B000300E00FB0EF0C1F34411ACF1200C02FB27
:1013C0000CFC002801F1300102FB01F1B8BF3F30F5
:1013D000BCF1000FB8BF0CF11F0C8011002900EB0D
:1013E0006C10B8BF3F3100B241F38F110134182C9B
:1013F00008BF0024FFF7BEFB4AF8040BBA450BF107
:10140000040B0ED0BBF900203BF9020C02FB02FCDE
:1014100000FB00CCB4451146C2DC00203FB0BDE863
:10142000F08F0DAC0DF1060109F15C05224652F872
:10143000043F002BB8BF0F3302311B1195420B80C4
:10144000F5D14846FFF772FF002254F8043F216EA1
:10145000A542A3EB01031A44F7D1124B83FB0213FD
:10146000D217C2EBA31404F5994330334CF6621241
:101470009342D2D802AE35460FCD4D4508F1100843
:1014800006F1100648F8100C48F80C1C48F8082C17
:1014900048F8043CEFD1019B01201C803FB0BDE81F
:1014A000F08F00BFABAAAA2A2DE9F04FADF2146D60
:1014B0000446914603938D1C03AE0DF20C67B5F9FB
:1014C000001035F9020CFFF755FB46F8040FB74240
:1014D00005F10405F3D10021484620220AF098FEC8
:1014E0000DF16C0A4FF6FF73002104EB44060293E2
:1014F000304DDFF8C48001915346F600A9F104098C
:1015000040F694578A469B46ABF15C00FFF70EFF0E
:10151000ABF160004FF0000C50F8043F026E5845EC
:10152000A3EB02039C44F7D1BCF1000F31DB4FEA7F
:101530009C1007FB00F0400D04FB00F006EB1020B0
:10154000C9F80400BAF1000F03D0D9F80030834283
:101550002AD959F8043F4344002BB8BF5B42AB4241
:1015600004D21D460123CDF808A001930AF101021F
:101570001FFA82FABAF1080F0BF1C00BC4D101991E
:1015800011B1DDE902231A8008460DF2146DBDE8A1
:10159000F08FCCF10000800907FB00F0400D04FB48
:1015A00000F0A6EB1020CBE7002108460DF2146DE9
:1015B000BDE8F08F40420F00E0D764FC2DE9F04F0A
:1015C00087B04FF0000E164600EB41090290821ED4
:1015D000CDE90316A9F1120935464FF0010BF24689
:1015E000F4467046CDF804E005931EE040F2EE218B
:1015F0008B4240DC634500DD9C464FF0000BBEF1A2
:10160000000F0ABF4FF0000B70460120CAF100081E
:101610004345019BB8BFA4EB060ABB4238BF3B461B
:101620009145019305F102052BD0568A32F8024FFD
:10163000331B03F50048B8F5803F2746D6D240F269
:10164000EE218B422B8007DD178868B9634515DDD5
:101650009C464FF0010ED9E7514917889C45B8BF09
:101660009C468B42D2DACAE7634500DD9C4686463B
:101670004FF0000BCAE74FF0000BE6E74FF0010E0A
:10168000C4E71946DDE90346059BBBF1000F03D112
:10169000002007B0BDE8F08FBEF1000FF8D00028A1
:1016A000F6D0CDE9031C0027A4F11C09B84606F1C9
:1016B00012043D463E46BE46D34634F9021F01960B
:1016C00001EB810C01EB4C010A22A246A4463CF935
:1016D000026D02FB06113AF9026F02FB0611013A94
:1016E000F5D1019EA942C4BFF0460D468E42C8BF47
:1016F00077460EF1010EC8BF0E46F145DDD14CF222
:101700005034A542DDE9031CDA46C1DD254CA64272
:10171000BEDABCF1000FBBD0BBF1000FB8D0029C09
:10172000119D2488C900E4004DB18C4205D2ACEB78
:101730000402013A0A44B2FBFCF2119D2A60109A9D
:10174000002AA6D0002BA4D0029A08F10E0532F888
:101750001520B4EBC20F4FEAC20606D2ACEB04046C
:10176000013C3444B4FBFCF42D1B029A0E3732F8D2
:101770001720B1EBC20F4FEAC20405D94A1E5244EA
:10178000121BB2FBFAF2BF1A55EA070280D4BD421F
:101790003FF77EAF109A7F1B17601D6079E700BF8F
:1017A00012FDFFFFB03CFFFF1149D1F88C20D0683B
:1017B00010F0400001D0002070474FF0FF3310B40C
:1017C000D360CC6ED3685B060FD4032803D10CE042
:1017D000D368580608D4CB6E1B1BB3F57A7FF7D9B4
:1017E000032081F8AD00EDE700205DF8044B704761
:1017F00088000020094A0A4BD2F88C10CB60D06ECA
:1018000004E0D36E1B1AB3F57A7F04D8CB689B062D
:10181000F7D5002070470320704700BF88000020E4
:101820005FFF030008B5114BDA6822F08002DA602E
:101830009A68920603D4FFF7DDFF88B908BD9A685D
:1018400022F020029A60FFF7D5FF18B1084B032061
:1018500083F8AD00054A936843F02003936008BD08
:10186000034B032083F8AD0008BD00BF00280040F3
:1018700088000020F0B5614C94F8AC30012B00F0EA
:10188000BB80D4F88C100223012284F8AC2084F8A9
:10189000AD308B6813F0400C18BF90F803C003788C
:1018A0000CBF80F803C04FEA8C5C092B09D90022D9
:1018B0000A3BDBB2092B02F10102F9D843EA021319
:1018C000DBB21A044378092B09D900250A3BDBB2A5
:1018D000092B05F10105F9D843EA0513DBB2867837
:1018E000092E4FEA032309D900250A3EF6B2092E34
:1018F00005F10105F9D846EA0515EEB290F824E0A5
:10190000BEF1090F0DD90025AEF10A0E5FFA8EFE69
:10191000BEF1090F05F10105F6D84EEA05155FFA8B
:1019200085FE4569076A3D4345EA0C052A43134392
:101930003343456843EA0E62C3691D43836ACA2084
:10194000486253204862B3F5807F8B6837D023F418
:1019500000738B60CB68DBB263F42073CB60E06E06
:1019600004E0E36E1B1AB3F57A7F1ED8CB689B07A1
:10197000F7D50A628D648B6843F400738B608B68C3
:1019800043F400538B601E4B1A68002042F48022FF
:1019900084F8AC001A609A6842F480229A60FF22B0
:1019A00001234A6284F8AD30F0BDFF2203234A626E
:1019B00084F8AD30002384F8AC300320F0BD23F46C
:1019C00080738B60CB68DBB263F4C073CB60E06E76
:1019D00004E0E36E1B1AB3F57A7FE6D8CB68DE0726
:1019E000F7D5CA614D648B6843F480738B608B6854
:1019F00043F480538B60C6E70220F0BD88000020CE
:101A00000004014070B5114E114A3368A2FB032354
:101A10009B09013BB3F1807F01D3012070BD4FF0E2
:101A2000E0220C495361F02381F82330002507237D
:101A30000F28956104461361EFD801464FF0FF303F
:101A400006F07EF97460284670BD00BF00000020DB
:101A5000D34D621000ED00E010B41E4C94F8AC3091
:101A6000012B33D0D4F88C100220CA2384F8AD00A7
:101A700001224B6253234B6284F8AC208B6823F421
:101A800080738B608B6823F480538B60E06E04E07E
:101A9000E26E121AB2F57A7F0ED8CB6813F001030A
:101AA000F6D00020FF2201234A6284F8AC0084F8BB
:101AB000AD305DF8044B70470320FF224A6284F882
:101AC000AC3084F8AD005DF8044B704702205DF83F
:101AD000044B7047880000200CB4F0B5ADB032ABB9
:101AE00006AE53F8042B059304460D463046962166
:101AF0000BF072F89528C4BF1B4BCDF8AA301B4BD6
:101B00001B49DF6EA1FB07311A4BA3FB0723980B80
:101B1000194BA3FB07234FEA931C184B4FF47A721F
:101B200002FB1C77A3FB00E25209042CC2EB021259
:101B3000A0EB8202A3FB0CE398BF114800974FEA89
:101B4000531394BF005D3F20C3EB03130190CDE915
:101B50000256490DACEB83030A480BF017F82DB081
:101B6000BDE8F04002B070472E2E2E008800002005
:101B7000B17C219573B2E745D34D6210898888887E
:101B8000B4190108901901080138C0B2042822D8FC
:101B900008B52A4BDFED2A6A03EB800393ED236A35
:101BA000C6EE267AB3EE087AF4EEC77AF1EE10FAB2
:101BB0002DED028B11D4FCEEE77A224B17EE902A22
:101BC00090B2A3FB0030000900EB4000C00080B2DF
:101BD000BDEC028B08BD00207047F5EEC07AF1EE37
:101BE00010FA1DDD87EE278AB0EE480A08F0B6FD30
:101BF000DFED157A70EE277A1820B4EEE78AF1EE61
:101C000010FAC4BFF7EE007A30EE270ABDEC028B63
:101C1000BCEEC00A10EE103A9BB2B0FBF3F008BD68
:101C2000FCEEE77A182217EE903A9BB2B3FBF2F380
:101C300003EB4303D80080B2CAE700BFC0D9000855
:101C40000AD7233BABAAAAAAACC52737F8B5956932
:101C50002B7802EB43030F46B3F844605369014607
:101C60006888144603EB400072000AF0D3FE6B88CC
:101C7000E26D1E4413786E8003B93B791370F8BD92
:101C80002DE9F04F2DED048B038F8DB00546002B11
:101C900000F01581B0F84030428F0469B0F850E090
:101CA00007925B000293838FC28F34F913300B923B
:101CB000BEF1000F00F003811B010893D0E912234D
:101CC000D718B0F85200B5F84230DFED8A8ADFF855
:101CD00030B20193FE434FF00008F6EE009A0990EF
:101CE000C1460496CDF828E0834B83FB0710F91713
:101CF000C1EBA00101EB4100A7EBC00000281FFAD7
:101D000089F886B2C0F2EB80002FC0F2F180089B08
:101D100009B2090481FB0301002906DA4FF6FF7CB2
:101D200010EB0C0C604641F10001079B000C40EAEF
:101D30000140991934F91110A0EB011007EE900A37
:101D4000B8EEE79A29EE289AB0EE490A08F068FF43
:101D5000B0EE408AB0EE490A08F07CFC019B002BF3
:101D600000F0A2800B9BB5F844A01E4404EB460390
:101D70000020CDE9059703930646009059E095F8B9
:101D800038C0BCF1000F4BD007EE101A07EE903AA6
:101D9000F8EEC76AF8EEE77A26EE806A27EE887AD0
:101DA00066EE886A37EE467A67EE807AB5EEC07ADC
:101DB00077EEA67AF1EE10FA4CBF37EE697A37EE7D
:101DC000297AF5EEC07AF1EE10FABDEEC77A4CBF73
:101DD00077EEE97A77EEA97A17EE103AFDEEE77A18
:101DE0005B4517EE901A47F6FF70B8BF5B4683421B
:101DF000D5F85490A8BF03465945B8BF594699F83D
:101E000000E08142A8BF0146BEF1000F04D117EEE9
:101E1000100A98425BD0E64689F800E01BB209B28E
:101E2000A352009B798053440093019B01369E424C
:101E300038D0009B95F839C008EB5302029B92B250
:101E400003EB8202A718A35EB7F90210BCF1000FE2
:101E500095D00398B0F800C00CF01F0E0EF1300EB4
:101E600003FB0EFE4FEA9C23203BCCF3441C01FBFA
:101E700003F3BEF1000F0CF1300C01FB0CFCB8BFFA
:101E80000EF13F0E002BB8BF1F334FEAAE1EBCF160
:101E9000000F0EEB6313B8BF0CF13F0C1BB24CF3F9
:101EA0008F116CE7DDE90597099B049A1F44D31A4B
:101EB00004930A9B09F1010999457FF415AF28683D
:101EC00043680DB0BDEC048BBDE8F04F184717EE2A
:101ED000900AB0EB010E18BF4FF0010E9CE71836C8
:101EE000B6B2049B054AA2FB03016FEA11110EE78B
:101EF0000026F6E700008037ABAAAA2AABAAAAAA56
:101F00000080FFFF08B50138C0B2042898BF194B04
:101F10002DED028B98BF03EB8003B0EE408AB0EE4C
:101F2000600A94BFD3ED288ADFED138A08F004FB22
:101F3000DFED127A60EE277AF2EE040A77EE887A05
:101F4000B0EE600A77EEE87AC7EEA00A08F024FB4C
:101F500008F004FCDFED0A0A08F0CEFEF7EE000AF6
:101F600008F0ACFEBDEC028BBCEEC00A10EE103ADD
:101F700098B208BDC0D9000800000000000020424F
:101F80000080FF43BFF34F8F0549064BCA6802F438
:101F9000E0621343CB60BFF34F8F00BFFDE700BF8C
:101FA00000ED00E00400FA052DE9F041C16F05687D
:101FB0009EB0044600295FD025682423E3672A6881
:101FC000636A22F001022A60002B40F0C380D4E94A
:101FD0000402A368296803431343E0699E4A03434C
:101FE0000A4013432B606B68E26823F440531343A9
:101FF0009A4A6B609542A369AA6800F0F180216A51
:1020000022F430620B431343954AAB6095421BD0D8
:10201000944B9D4240F0158103F5E633D3F88830A8
:1020200003F00C030C2B00F20F81DFE813F0E0014A
:102030000D010D010D0172010D010D010D012B01AD
:102040000D010D010D016201874BD3F8883003F0BB
:102050000303022B00F01681032B00F04A81012BB1
:1020600000F05781B0F5004F00F0CA81FEF78AFA00
:10207000002800F018810AE180F878105C2207A897
:102080000AF0C6F8764B9D4200F0BF81754B9D4229
:1020900092D1022707A80797FEF710FB06460028F3
:1020A00040F0DF81704B714D9A6D42F400329A65B9
:1020B0009A6D02F400320492049ADA6C42F0010242
:1020C000DA64DB6C03F00103039307220323CDE9F9
:1020D0000032039903463A464FF090400F214FF0EB
:1020E000800807F0D1F8C5E92D76C5E92F68C5E964
:1020F0003166C5E9336605F1B0065D4BC5F8B03011
:10210000304605F07FFD002840F0AB816667102364
:1021100005F1F806C5E94108C5E94300C5E94500F0
:10212000C5F800313046534BC5F8FC70C5F8D840AF
:10213000C5F8F83005F066FD0146002840F09181B1
:1021400026672620C5F8204105F0FAFD4A4B4022BB
:102150005A6031E71E0705D56A68616B22F40042B8
:102160000A436A60D80705D56A68A16A22F400327A
:102170000A436A60990705D56A68E16A22F48032E9
:102180000A436A605A0705D56A68216B22F48022E7
:102190000A436A60DF0605D5AA68A16B22F4805263
:1021A0000A43AA609E0605D5AA68E16B22F4005294
:1021B0000A43AA60580609D56A68216C22F4801285
:1021C0000A43B1F5801F6A6000F00A8119067FF5A5
:1021D000FEAE6B68A26C23F4002313436B60F6E63B
:1021E00022F4306213432049AB60D1F8883003F405
:1021F0004063B3F5006F00F0F18000F2E880002B3F
:1022000000F02981FEF75AF900284CD0626802EBF1
:102210004203834218D8B0EB023F15D8510800237F
:102220000F464FF480761946E0FB0671384607F0FA
:102230001BF9124BA0F540729A4205D8074BD860A3
:1022400031E00F4B9D425AD00023C4E91A330120DC
:102250001EB0BDE8F08100BFF369FFEF00800040D1
:102260000038014000440040001002408800002077
:102270006C0002408000024000E100E0FFFC0F0023
:1022800000480040B0F5004F794800F08B8063684B
:1022900000EB5300B0FBF3F04FF6EF73A0F1100228
:1022A0009A42D1D8E8606A687249002322F49042C9
:1022B000C4E91A336A60AA6822F02A02AA602A686E
:1022C00042F001022A60C4F88430CE6E2B681A07EF
:1022D00027D42B685B073ED400232022E26784F8D2
:1022E0007830C4F88020184623666366B0E7302B48
:1022F000AAD1B0F5004F55D04FF40040C7E75E4B70
:10230000D3F8883003F03003202BBBD0EFD8002B5C
:102310006DD0B0F5004F41D0FEF7D0F80028C2D004
:10232000B5E76FF07E4332464FF40011204605F0CA
:10233000C9FC0028CDD0236853E8002F22F080028A
:1023400043E800210029F7D12023E367002384F824
:10235000783003207CE76FF07E4332464FF48001F3
:10236000204605F0AFFC0028B6D0236853E8002FC4
:1023700022F4907243E800210029F7D103F108020A
:1023800052E8002F22F0010203F1080040E800218A
:102390000029F3D12023C4F88030D7E7FEF78EF868
:1023A000002880D06268530803EB40034FF6EF71BA
:1023B000B3FBF2F3A3F110028A423FF645AF23F0DC
:1023C0000F0292B2C3F342031343EB606BE7B3F522
:1023D000406F7FF439AF4FF4004017E7244815E70A
:1023E0006A68616C22F4C0020A436A60EEE6B0F5E6
:1023F000004F38D0FEF7B2F800283FF454AF46E75C
:10240000FEF7C0F80028CDD14DE7012307A80793B8
:10241000FEF754F9034620BB174A116E41F4804180
:102420001166116E01F4804106910699D16C41F05C
:102430000101D164D26C072002F001020321059250
:102440000190009102224FF4C0614FF09040059D31
:1024500006F01AFFB0E5FEF781F800283FF423AF3D
:10246000D4E6FFF78FFDFEF779F800289AD11AE736
:102470000024F4008800002000100240FEE700BFA6
:10248000FEE700BFFEE700BFFEE700BFFEE700BFBC
:10249000704700BF704700BF704700BF024AD36E4D
:1024A0000133D366704700BF880000200C4B0D49F4
:1024B000D3F88C204FF480104861D168490503D4CB
:1024C000012283F8AD207047D168C9B261F49061F0
:1024D000D1600120012283F8340383F8AD207047D6
:1024E0008800002000040140034B5A69120744BFD2
:1024F00008225A61704700BF000401400148FDF7FF
:102500008FBF00BF500200200148FDF789BF00BF08
:10251000980200200148FDF783BF00BF380100206A
:102520000148FDF77DBF00BF80010020084810B4BE
:10253000D0F85832D0F88C4299691A682CB12346E9
:1025400000F516705DF8044B18475DF8044B7047B2
:1025500088000020034B5A69120544BF4FF4006203
:102560005A6170470004014010B5194C194AD4F85B
:102570008C304FF4802151619A68D20402D5DA6818
:10258000D00509D49A68910402D5DA68920513D46B
:10259000012384F8AD3010BDDA68D2B262F4C072A3
:1025A0000121DA6084F83513FFF756FA68B9D4F8D8
:1025B0008C3084F83503E5E7DA68D2B262F4207231
:1025C000DA60012384F8AD3010BDFFF7DBFC00BFFB
:1025D0008800002000040140034AD2F8883043F408
:1025E0007003C2F88830704700ED00E0F0B4C56FAA
:1025F000202D4AD10C4601B112B90120F0BC704720
:10260000194600252123C0F88450C3678368294FE9
:10261000A0F85020B3F5805FFE6EA0F8522037D0AE
:10262000B0F85220036892B2B2B1DA69120604D44B
:102630004A1C1DD1DA691206FCD504B314F8012B2B
:102640001A85B0F85220013A92B2A0F85220B0F8A0
:10265000522092B2002AE8D1DA69520604D44C1C06
:102660001CD1DA695106FCD52023C3670020C5E7D9
:10267000FA6E921B914218D3B9B11A68D5E735F8B2
:10268000022BC2F308021A85DBE70220F0BC704778
:102690000369002BC4D125461C46C1E7FA6E921B84
:1026A000914202D309B11A68D6E72023C367F0BC70
:1026B0000320704788000020026852E8003F23F49E
:1026C000907342E800310029F7D102F1080353E882
:1026D000003F23F0010302F1080C4CE8003100290F
:1026E000F3D1036E012B06D000232022C0F88020F6
:1026F00083660366704752E8003F23F0100342E808
:1027000000310029F0D052E8003F23F0100342E8E6
:1027100000310029EFD1E7E770B5AE4CD4F8405155
:10272000EB692A68A96840F60F00034240F08780F1
:10273000980602D5960600F1F380D4F8A00101288E
:1027400016D0D80202D5490200F1F4801E0605D445
:10275000590602D5530600F1258170BD1006F7D544
:10276000D4F8AC31002BF8D0BDE870409A48184737
:10277000DE06E6D5D006E4D510232B62AB68B4F8AC
:1027800098215B0640F14281D4F8B43119684B6856
:102790009BB2002B00F09681934280F09381A4F8C5
:1027A0009A310B689E0644D455E8003F23F48073A9
:1027B00045E800324AB1D4F8402152E8003F23F402
:1027C000807342E800310029F5D1D4F8402102F1AC
:1027D000080353E8003F23F00103083242E80031C8
:1027E0000029F2D1D4F8402102F1080353E8003F58
:1027F00023F04003083242E800310029F2D12023BF
:10280000C4F8C031C4F8A011D4F8402152E8003F08
:1028100023F0100342E800310029F5D1D4F8B43197
:1028200093F82520022A00F054810422DA6383F809
:1028300024100223C4F8A431B4F89A3170BD11F009
:10284000010640F09E80654802423FF476AFD8070B
:102850000FD5D10540F1D68001212962D4F8C411E9
:1028600041F00101C4F8C41199076BD5002E40F066
:102870008C8058077DD51E0700F1C1801E050AD542
:10288000500108D54FF400612962D4F8C41141F019
:102890002001C4F8C411D4F8C41100293FF45DAF7D
:1028A000990602D5920600F1A080D4F8C421AB6845
:1028B00002F0280203F04003134300F00081464871
:1028C000FFF7FAFEAB685B067FF547AF05F108033B
:1028D00053E8003F23F0400305F1080141E80032CE
:1028E00062B1D4F8402102F1080353E8003F23F01D
:1028F0004003083242E800310029F2D1D4F8B40193
:1029000000283FF42AAF90F82530354A8263022B25
:1029100000F0BB800423BDE87040C363FDF738BC02
:10292000D4F8A831002B3FF418AF04F5A070BDE82F
:10293000704018474FF480132B6270BDD1058BD4C3
:10294000980722D4590714D5002E94D00421296267
:10295000D4F8C411180741F00201C4F8C4118DD590
:1029600008212962D4F8C41141F00801C4F8C41147
:1029700084E7190782D502F0200131433FF47EAF8E
:10298000EEE7D807DAD499072CD502212962D4F8CA
:10299000C4115E0741F00401C4F8C411D6D419076C
:1029A000DED46BE755E8003F23F0400345E80032F2
:1029B0004AB1D4F8402152E8003F23F0400342E8F6
:1029C00000310029F5D120220023C4F8BC21C4F82D
:1029D000AC3170BD88000020C80100202001000437
:1029E000910100085E07B1D4D9E7D4F8A831002BD3
:1029F0003FF45BAF42489847D4F8405155E7900602
:102A0000AED43BE798073FF534AF9BE7B4F89A1193
:102A1000B4F89A319BB289B2002B3FF49EAE91423A
:102A20003FF49BAE55E8003F23F4907345E8003235
:102A30004AB1D4F8402152E8003F23F4907342E8B1
:102A400000310029F5D1D4F8402102F1080353E800
:102A5000003F23F00103083242E800310029F2D19F
:102A60002023C4F8C031C4F8A811C4F8A011D4F8C8
:102A7000402152E8003F23F0100342E800310029D2
:102A8000F5D10223C4F8A43170BD0268436C11680B
:102A900021F00E011160116821F001011160012483
:102AA000026C03F01C0304FA03F35360002380F864
:102AB000254080F82430BDE87040FDF769BBC4F8BC
:102AC000C43170BD93427FF448AE0B689D06D8D4E4
:102AD00070BD1A681D6C106820F00E001060106840
:102AE00020F0010010605A6C012002F01C0200FA74
:102AF00002F26A6083F8250083F8241099E600BF8B
:102B0000C801002008B518B10E4B02689A4208D0DF
:102B10000D4B0E4AD3F880300D4900209847002015
:102B200008BD032907D9084B0A4AD3F88030084961
:102B300000209847F3E701EB810100EB8100008959
:102B400008BD00BF0FB0371388000020BC19010872
:102B5000D4190108DC190108B0EEE07AF0EEC07A71
:102B60002DE9F04FF4EE477AF1EE10FADFEDBE6A90
:102B7000BE4BDFF818E348BFF0EE477A30EE607ADC
:102B800067EEA67AB0EEC77A2DED0A8BB4EEE77A3F
:102B9000F1EE10FA98BFDFEDB67A9FEDB67A87B006
:102BA000F0EE60CA94BF70EEA7CA1646F0EE408AF7
:102BB000054698BF0026059305AA0DF1180C0127BC
:102BC00012F8010B431EDBB2042B0EEB8304F0EE74
:102BD000477A9CBFD4ED237A77EEA77AF4EE678A22
:102BE000F1EE10FAA8BF07466245E9D19F4B9FED71
:102BF000A17ADFF89882059305AA0DF1180E012439
:102C000012F8010B431EDBB2042B08EB830CF0EE31
:102C1000477A9CBFDCED237A77EEA77AF4EE67CA99
:102C2000F1EE10FAA8BF04469645E9D1052F18D059
:102C3000914A4FF00333052CCDE9043209D0012F1E
:102C400000F02782022F00F01382032F11D10223FC
:102C500010E0012F00F01882022F00F034820424CB
:102C6000F3E7052C00F0258283484FF00333CDE9CC
:102C700004300323C3F10107FFB2012C00F0F681F9
:102C8000022C00F00482032C00F00582032217447A
:102C9000FFB2B94228BF3946C3F1030E96445FFA2A
:102CA00081FA013A05A901EB030CD0B25FFA8EFE5E
:102CB00000230AE0022F00F0F380013301F8087CC2
:102CC000DBB2421CD0B2864517D01CF8017B03F161
:102CD0001802BC420DEB020107F0FD02C0F0988122
:102CE0009A4540F29581012AE4D1421CD0B20133C9
:102CF000864501F8087CDBB2E7D10AF1FF339FED8E
:102D00005DBA9FED5E9A9FED5EAADFF88C81DFEDE4
:102D10005D9ADFED5DAA01930DF1100B0024CDF853
:102D200000A003961BF8017B3846FEF72DFF019BA0
:102D30009C42824600F0D8809BF80030013BDBB219
:102D4000042B00F22781514A02EB8303D3ED237A4F
:102D500077EEA77AF4EEE87AF1EE10FA40F3CC8041
:102D600007EE10AAB8EE477AB0EE688A27EE097A25
:102D7000002638EE078A0136B4EEE78AF1EE10FA43
:102D8000B6B2F6D488EE090A07F0E8FCEB6BC8EEA1
:102D9000897AFDEEC08A77EE8A7A18EE902A12B20E
:102DA00008EE902ABDEEE7CA1BB11A68424500F052
:102DB000F480DFF8E890364AD9F8803035490020B1
:102DC0009847EB6B13B11A68424578D0D9F8803038
:102DD0002F4A304900209847EB6B1BB11A684245D7
:102DE00000F00981D9F88030294A2A490020984703
:102DF000EB6B1BB11A68424500F0FB80D9F88030BC
:102E0000234A244900209847EB6B95ED180A002BC4
:102E100064D1D9F880301E4A1E4900209847F8EE48
:102E2000E87AEB6B67EE897AF4EEE97AF1EE10FA64
:102E300040F19380013F18BF012733B11A68424522
:102E400008BFA20076D0DFF85490D9F88030104A3D
:102E50001049002098470134009AE3B2934272D29D
:102E6000F0EE488A5EE700BF00000034020304056C
:102E70000AD7233C00000000010203040AD7233BC9
:102E800017B7D138666646403333A340C0D900082F
:102E9000BC190108D41901080FB0371388000020AD
:102EA000AAEB0302D2B203F118019042694403F184
:102EB00001023FF606AF01F8087CD3B201E704EB4C
:102EC000840203EB820282ED01CAA2F80AA0A200EA
:102ED000224403EB820295ED180A16811A684245D6
:102EE0000ED0DFF8F89194E7F0EE6C7AF4EEE87A21
:102EF000F1EE10FA3FF734AFB0EE688A002641E7F2
:102F0000F8EEE88AF0EE480A3846029368EE898ABD
:102F1000FEF7F8FF029B04EB840203EB8202F4EE5F
:102F2000E98AF1EE10FA90814FEA840244D5013F1C
:102F300018BF0127224403EB8202D774009A0134A0
:102F4000E3B293428CD3039E9246002E66D1504644
:102F500007B0BDEC0A8BBDE8F08FF4EEEA7AF1EE33
:102F600010FA75D4B1EE0C7AF4EEC77AF1EE10FADD
:102F70004CD49FED577AF4EEC77AF1EE10FA69D48B
:102F80009FED547AF4EEC77AF1EE10FA4CBF0427A5
:102F9000052752E7F0EE4B7ADCE604EB840203EB04
:102FA000820282ED01CA1775EB6BA2F80AA0A2009B
:102FB00043BBDFF8289121E7F4EEEA8AF1EE10FA3C
:102FC0004CD4F1EE0C7AF4EEE78AF1EE10FA43D429
:102FD000DFED3F7AF4EEE78AF1EE10FA44D4DFED4C
:102FE0003D7AF4EEE78AF1EE10FA4CBF042705278C
:102FF00024E7A2006CE704EB840203EB8202A2F850
:103000000AA0A20019684145D3D161E7022714E75D
:10301000BAF1000F7FF471AE002E98D0ED6B0AF17B
:10302000FF34E4B221462846FFF76CFD1DB12A4B60
:103030002A689A421ED0294B294AD3F88030294960
:1030400000209847504607B0BDEC0A8BBDE8F08FD2
:103050000127F2E60327F0E60227EFE6224403EB1E
:1030600082020127D77469E70327E7E6002210E60A
:103070000123FFE5032C10D9184B1B4AD3F88030ED
:1030800018490020984762E700230424FEE5012246
:10309000FDE50023F1E50222F9E504EB840405EBEC
:1030A000840501302881504607B0BDEC0A8BBDE88D
:1030B000F08F4FF00333049303F18073A3F5817312
:1030C00005930424D5E5002701230424DEE500BF91
:1030D00033334B41000094410FB037138800002078
:1030E000BC190108D4190108DC190108B0EEE07A16
:1030F000F0EEC07A2DE9F04FF4EE477AF1EE10FAD7
:10310000DFED996A48BFF0EE477A30EE607A67EEFD
:10311000A67AB0EEC77A2DED068BB4EEE77AF1EE23
:1031200010FA98BFDFED917A87B005464FF00500A1
:10313000B0EE608A14469ABF30EEA78A00270127B6
:10314000F0EE408A8A46FEF71FFD032C09EE900A36
:1031500000F0DF81042C00F0D281022C45D1844B99
:1031600002934FF07E530393631E9BB20DF1080B45
:1031700003AA38EE687A02EB83005B46D3ED007A4F
:1031800067EE877A77EEA87AE3EC017A8342F5D18D
:103190009FED78AADFED78AA00970BEB84094FF03A
:1031A0000008BBEC017AF4EEC78AF1EE10FA12D5F2
:1031B000F8EE697AB0EE688A67EE8A7A002438EE13
:1031C000278A0134B4EEC78AF1EE10FAA4B2F6D41D
:1031D0007CBBF0EE488AD945E3D1009F6FB94046E9
:1031E00007B0BDEC068BBDE8F08F4FF07E53029325
:1031F000002CB9D1A046002FF1D00AF1FF34ED6BBD
:103200004444E4B221462846FFF77CFC25B15B4BE1
:103210002A689A4200F09681594B5A4AD3F8803076
:10322000594900209847404607B0BDEC068BBDE8E1
:10323000F08F88EE0A0A07F091FA0AEB0802D7B27B
:10324000EB6BBDEEC00A10EE102A12B209EE102A86
:1032500023B11A6849498A4200F09C80484E494A85
:10326000D6F88030484900209847EB6B23B143499A
:103270001A688A4200F0D280D6F88030414A42492A
:1032800000209847EB6B1BB13C491A688A4255D025
:10329000D6F880303B4A3C4900209847EB6B23B17D
:1032A00036491A688A4200F0D380D6F88030354A11
:1032B000354900209847EB6B95ED180A002B4DD14E
:1032C000D6F880302F4A304900209847B8EEC90A16
:1032D000EB6B20EE0A0AB4EEEA0AF1EE10FA00F106
:1032E000F080F1EE0C7AB4EEE70AF1EE10FA00F19C
:1032F0003381DFED267AB4EEE70AF1EE10FA00F141
:103300001881DFED237AB4EEE70AF1EE10FA4CBF34
:10331000042205222BB119491868884200F0D38095
:10332000174ED6F88030174A17490020984708F101
:103330000103F0EE488A5FFA83F84CE7032F4BD87D
:1033400007EB870219EE901A03EB8202BE0051814F
:10335000F21903EB820295ED180A1481074A1968E5
:10336000914250D0064EABE7000000340AD7233C10
:10337000A4703D3F0AD7233B3333A3400FB037132C
:1033800088000020BC190108D419010833334B41CF
:1033900000009441032F40F2A0807E4E7E4AD6F872
:1033A00080307E4900209847EB6B002B3FF464AFE0
:1033B0001B687B4A93427FF45FAFD6F88030764A31
:1033C000764900209847EB6B002B3FF461AF1A68F9
:1033D000734B9A427FF45CAFD6F880306E4A6F49E7
:1033E00000209847EB6B002B3FF45FAF1A686C4BE3
:1033F0009A427FF45AAFD6F88030674A6749002076
:103400009847EB6B58E7032F40F29180614E624A78
:10341000D6F8803061490020984757E7032FCCD871
:10342000DFED606A9FED607AC8EEA67A07EB87024F
:1034300003EB8202BE0077EE877AFDEEE77AC2EDFB
:10344000017AF21919EE901A03EB820251817FE79B
:10345000032FD0D807EB870203EB820295ED180A01
:103460001481BE00F0EE480A05200193FEF74AFDE4
:10347000F8EEC97ADFED4B6A9FED4C7A019B67EE5F
:10348000A67AF21903EB8202F4EEC77AF1EE10FA93
:10349000908146D4B1EE0C7AF4EEC77AF1EE10FAD0
:1034A00049D49FED437AF4EEC77AF1EE10FA63D473
:1034B0009FED407AF4EEC77AF1EE10FA63D405225C
:1034C00029E7012226E7032F54D9324E324AD6F893
:1034D000803032490020984729E7C8EE8A7A07EB06
:1034E000870203EB820205211175BE009FED2E7A43
:1034F00077EE877AFDEEE77AC2ED017AA1E72E4BEF
:1035000002932E4B03932E4B04934FF07E5305935F
:103510002AE62C4B02932C4B03934FF07E530493DB
:1035200022E601223E4403EB8603DA74FFE6BE0086
:1035300098E70322EEE61A4A196891427FF4F0AE4A
:103540000222EFE7032C09D9124B134AD3F880303B
:1035500012490020984742E60222DBE604EB84048D
:1035600005EB840501302881404607B0BDEC068B91
:10357000BDE8F08FBE00D5E7094A196891427FF493
:10358000CFAE0322CEE7064A196891427FF4C8AE57
:103590000422C7E788000020DC190108D4190108BB
:1035A0000FB037130AD7233B17B7D1383333A340B3
:1035B00033334B4100009441D7A3F03E3333333FC4
:1035C00052B85E3F713D0A3F295C4F3F2DE9F04103
:1035D000174F1D46D7F8843013B1BDE8F0411847A6
:1035E000FB6F4FEA4208002AF7D08F1EA8F10204B1
:1035F00006468E460C443A4632F802CF9CFA9CFCB2
:10360000A242A2F800C0F7D1424671463046984720
:103610000DB9BDE8F08137F8023F5BBAA7423B80A5
:10362000F7D037F8023F5BBAA7423B80F3D1F0E70F
:103630008800002000B583B041F4A04101239446E6
:103640004FEA124EADF80010ADF80230042200230C
:103650006946ADF804E0ADF806C0FFF7B7FF03B068
:103660005DF804FB10B1024B9B6F1847704700BF19
:103670008800002010B520B10B4B02689A42044626
:1036800008D00A4B0A4AD3F880300A49BDE81040F6
:103690000020184700690023236008B1FFF7E2FF0C
:1036A0002046BDE81040DDE70EB03713880000204B
:1036B000F41901080C1A0108F8B505460088002A1B
:1036C0001C460CBF4FF400534FF48053B0F59C6F71
:1036D0000E460FD300F151077F008342BFB236D2AE
:1036E0001C4B1D4AD3F880301C49002098474FF0EE
:1036F000000C03E040F662274FF0010C1849194A0C
:10370000C4E9011202F11912E26002F119122261F8
:103710002346002262805122A28223F8167B296868
:103720006A68A868EF68C4F816105A609860DF608D
:103730002969A8696A699861196196E803005A6164
:10374000AA8B9A83343484E803006046F8BD4FF0B6
:10375000010CD3E788000020141A0108341A01086C
:103760000100020003001B00F8B516460D464FF499
:10377000E272014618461C4609F078F9B6F858106E
:1037800021B196F85E30191E18BF0121012396F869
:103790005B2084F8C6312B4684F8C52133F8262BEC
:1037A00084F8C411A4F8C82105F1560104F5E572A6
:1037B0001F685E689868D3F80CC0C2F80CC010335C
:1037C0008B4217605660906002F11002F0D1B5F89C
:1037D0005630A4F8FA3105F1580604F5FE7E05F1DD
:1037E0008807B446BCE80F00BC450EF1100E06F188
:1037F00010064EF8100C4EF80C1C4EF8082C4EF823
:10380000043CEED1B5F88830A4F82C3205F18A03D7
:1038100004F22E24BA35186859689A68DE68E660A2
:103820001033AB4220606160A26004F11004F2D159
:10383000F8BD00BF10B50F4C8C461146B4F870208F
:1038400003F1020EB2EB4E0F07D2D4F880300A4AD1
:103850000A49BDE8104000201847013B4CF4A04C39
:103860004B802EF00042A1F800C0BDE810400023BC
:10387000ACE600BF88000020481A0108681A010859
:10388000F0B583B043F21C02009201230E460024DF
:10389000032269460746ADF80440FFF797FEBDF8DE
:1038A000043013F4006517D141F21B042B4669461E
:1038B00038460222009446F40066FFF787FE384639
:1038C0002B4669460222ADF80040ADF80260FFF7D2
:1038D0007DFE012003B0F0BD054B064AD3F88050B1
:1038E000054920463B46A847204603B0F0BD00BF2F
:1038F000880000207C1A0108AC1A0108F0B50129E3
:1039000083B00546144622D002290AD01C4B1D4A1A
:10391000D3F880401C4903460020A047002003B094
:10392000F0BD43F2460384270026ADF80030284658
:10393000012303226946ADF80260ADF80460FFF789
:1039400045FEBDF8040030B16CB90120E7E743F251
:1039500045038327E8E70A4B0C4AD3F880400A491D
:103960002B46A047DAE747F4805733466946284696
:103970000222ADF80070ADF80260FFF727FEE4E721
:1039800088000020C41A0108AC1A0108E01A0108D6
:10399000F0B5012985B00646154633D0022925D158
:1039A00043F2320301240027ADF80830032201233B
:1039B00002A93046ADF80A70ADF80C70FFF706FEAC
:1039C000BDF80C306B8003F00702012A2A802AD050
:1039D00013F006001AD11849184AD1F88040184946
:1039E0000096A0470024204605B0F0BD124B154AB2
:1039F000D3F88040124903460020A0474FF44053BB
:103A00000024D0E743F233030C46CCE7023A012A04
:103A1000E9D9094A0096D2F8804009490A4A38464D
:103A2000A0472F80DEE70449084AD1F880400449C6
:103A300000963846A047D5E788000020141B0108EF
:103A4000AC1A0108C41A0108781B0108441B0108BC
:103A500010B582B001AA01210446FFF799FF0022A8
:103A600001212046FFF74AFFBDF80430022B09D0A0
:103A70000649074AD1F8804006490020A0470020A7
:103A800002B010BD012002B010BD00BF88000020B0
:103A9000AC1B0108F41B01082DE9F04F2DED108B34
:103AA0009BB090F85E401D4690F85C300893042C63
:103AB000B0F8583003938046894616461AD8D0EDA0
:103AC000147AF5EEC07AF1EE10FA00F1F88190F870
:103AD0006630002B00F0978290F85B30002B00F0EE
:103AE0009282024C024A059407E000BF8800002041
:103AF000581C0108C74CC84A0594D4F88030C749FF
:103B000000209847D8ED157AD4F83833009307EEA3
:103B1000103AF5EEC07AF1EE10FAB8EE478A40F3AB
:103B2000D281C8EE278AF6EE007A78EEA78A039B48
:103B3000002B00F0A88198F85E30049398F85A3072
:103B4000002B40F0A78198F86020022A41F03E81C6
:103B500098F85E40012C00F0ED8300242246349951
:103B60000C71A6F8AC21002B00F0998198F85F3019
:103B7000012B00F01184022B00F0F883002B40F0A1
:103B8000E98301231A46F384328598F86030012BCB
:103B900000F0D983022B00F0D583002B00F01484B1
:103BA000059B9F4AD3F880309C4900209847B9F183
:103BB000000F00F0788100230093B9F8E410B9F801
:103BC00008307180B9F8E610B180B9F8E2103180A0
:103BD000B9F8E810F180B9F8021031819B00B9F80A
:103BE000041071819BB2B9F80610B18103F1300263
:103BF000B9F80A10F18192B2B9F8201031825F2A27
:103C0000B9F82210718240F2F2818649A1FB0201CB
:103C1000890901EB4101A2EB411189B200201A464A
:103C200004460B460121F2820322B38272830023F1
:103C3000009A7384B483F083318331846B800123D1
:103C4000C5F80A30002A00F066870027CDE9017721
:103C500006F13E039FED749A9FED74AADFED779A0B
:103C6000CDE90696B34605F10E0A44461E46049A6F
:103C7000FBB29A4200F22A810023AAF80030AAF887
:103C8000083033800137042F0AF1020A06F10206D8
:103C90000BF1560B04F11404E9D1039BAA89DDF85A
:103CA00004E012FB03F26B8992B213449BB2DDE98C
:103CB0000696591C012089B20090B6F8AC01012883
:103CC00004D1DDE9020404FB00F00290029FB8F881
:103CD000640098F863C098F862B04FF6FF74A7428A
:103CE00028BF27464408A4F1030A98F86640A6F8BE
:103CF0009EB18CF0010C0338A6F8A6C1A6F8A471F9
:103D0000A6F8A0E1A6F8A801A6F8AAA1AA81AB800E
:103D1000E980002C00F02B81413399B2402401232B
:103D200029802C81A6F8C031B9F1000F03D0B9F871
:103D30000C30A6F8C231009B002B40F04281349A2F
:103D400098ED145A00231360089BA6F8B231039B28
:103D5000012B40F23381B8F85830023B01229BB26C
:103D60009FED336ADFED335A98F85A10F1EE007A7E
:103D7000C8EE066A68EE277A68EE255A87EE867ADC
:103D8000C5EE867AB6EE006A76EE866A37EE067A79
:103D9000FCEEE66AB5EE405AD8ED155AA6F8AE31FB
:103DA000F1EE10FA16EE903A77EE867ABCEEC77A0C
:103DB000A6F8B02114BF01220022FCEEE77A328778
:103DC00098F85B20A6F8B43117EE103AA6F8B63191
:103DD00017EE903AF5EE405AA6F8B831009BF1EE96
:103DE00010FA14BF01200020002B40F0C280318661
:103DF0007286708598F861300F4A0098C6F8BA212B
:103E00000121B184A6F8BE311BB0BDEC108BBDE81A
:103E1000F08F00BF88000020141C0108301C01082E
:103E2000541D0108ABAAAAAA2549123E8FC2753DAE
:103E30000024744900009643FF07010800000000B9
:103E4000B5EEC07AF1EE10FA00F1158398F85A2019
:103E5000002A00F01383B5EE407AF1EE10FA05D196
:103E6000F5EE407AF1EE10FA40F0C8835FED0D8A6E
:103E7000059B754AD3F88030744900209847039B0E
:103E8000002B7FF458AE039B049398F85A30002B14
:103E90003FF459AE349A00231371A6F8AC31B9F14E
:103EA000000F7FF488AE0123A5F802906B81CE4607
:103EB00002214A46CDF80890CDF80090FDE6644C0A
:103EC000644A059419E6DFED648A30E60123338005
:103ED00098F85C90228940F2FF3340F2FF11B9F16B
:103EE000000F18BF0B4652B39A4228D8A27B237CFE
:103EF00042B1022B06D1059B584AD3F88030DDE948
:103F0000069622E0E07B002840F04982012B00F079
:103F1000AF80059B524AD3F880304C490090DDE9D0
:103F200006969847DDF804E0039BAA8912FB03F28A
:103F30006B8992B213449BB2591C89B2BDE6059BB2
:103F4000484AD3F88030DDE906964049002098477A
:103F5000039BAA89DDF804E012FB03F26B8992B29D
:103F600013449BB2591C002089B20090A5E6234659
:103F7000D6E6B5EE405AF1EE10FA0AD0C8EE057A50
:103F800077EE867AFCEEE77A17EE903AB3871B0C51
:103F90007387002361F30F03F5EE405A62F31F436A
:103FA000F1EE10FA708533633FF424AFFCEEE87A4B
:103FB00017EE903A1A0CB285F3851BE700221346E0
:103FC000CEE698F85D30072B15D8274C9FED229A46
:103FD000234493F8C830A6F8A231349B83ED009AAD
:103FE000049B002B40F04D8298ED145AACE6032060
:103FF0000124002117E6349A98ED145A0023136027
:1040000000230093A0E6012C40F2EA8198F80F10FB
:104010004246012303E00133A34200F0E181084658
:1040200092F82310814202F11402F4D2084F0F4A91
:10403000D7F88040054905970020A047D8ED157AAC
:10404000D7F8383362E500BFB81C0108301C0108FE
:1040500088000020441C010800000000841D0108A5
:10406000B01D0108741D0108C0D90008841C010896
:104070006FF00B030993E288A3880A92182A009331
:1040800040F29D8202EB820303EB031303EB032355
:1040900002EB4303C3F3CC0242EA43339BB240F644
:1040A000AA22934200F2DE82B24B0A9AA3FB0223B9
:1040B0001B090E93013B9BB215935C230D931823B0
:1040C0000B930098002840F0E084059BAA4AD3F89F
:1040D0008030AA499847B9F1000F00F0C9844FF029
:1040E00000090222009B099913FB02F292B200928E
:1040F000226811440A460C910A99013B01FB0323F3
:10410000099302F5C34328334CF25032934208D945
:10411000059B9B4AD3F880309849002098474FF080
:104120000009099B03F5C34328334CF250329342F4
:1041300008D9059B934AD3F88030904900209847CE
:104140004FF000090C9A002AC0F242838E4880FB8F
:104150000230D217C2EBA00000B2099B002BC0F2C4
:104160002B83894981FB0331099BDB17C3EBA10139
:10417000119309B280B2091A0C9B0F90824880FB00
:1041800003C0C2EBA00288B209B20E9B1091B0FB33
:10419000F3F0411C0A901FFA81FE0B981821B1FB25
:1041A000F0F30E930C9B02EB4202B3EBC20200F160
:1041B000FC8213B2139393B20C93099A7248119B29
:1041C0000B9980FB020CC3EBAC0303EB430C0C9B81
:1041D000B3FBF1F001FB103081B2B2EBCC030991DB
:1041E00000F100831AB219929BB20E9A0B98511EDD
:1041F000099A89B21891BEF1010F11FB002189B211
:1042000000F0F682099A0C98824240F004839942A9
:1042100000F05884002301221393169214931292F3
:104220000E930C9B9A00099BABF882209B00ABF885
:104230008430B9F1000F40F0FA826C2317933623D3
:104240000C937D223D234FF00009ABF87C300F9B8F
:10425000ABF87A200C9A1099C3F1290313441AB2CF
:104260001192521A9BB2292A0F9308DC059B474AE8
:10427000D3F880304149002098474FF00009119B46
:10428000179A934208DB059B414AD3F880303B499B
:10429000002098474FF000090D9B2C2B00F2128252
:1042A0001E2B40F2E8831E3B0F229BB20D92ABF80F
:1042B0009A30159B0C99ABF89430139BABF87E1099
:1042C000ABF88E300F990A9BABF880100D99ABF8C4
:1042D0009610ABF89820002B40F0D281149B002B55
:1042E0000E9B08BF00230E93129B002B00F0DD8372
:1042F000099A199B9B1A0B9A93FBF2F39BB2169A9D
:10430000ABF89220ABF88C300E9AABF888200023E3
:10431000ABF89030ABF88A300A9BABF88630B9F135
:10432000000F40F0BF82CDF80090DDF804E0DDE939
:104330000696F9E598F81020013A012A7FF60DACAF
:1043400022460CE400237363B9F1000F42D001232D
:10435000009332E4059B0F4AD3F8803007490020D0
:104360009847B9F1000F7FF426AC9CE500231A466C
:1043700009E400BFABAAAAAAFC1D0108301C010871
:10438000481E01085C1E0108ABAAAA2A901E01085B
:10439000B01E0108341D01080022FFF7F4BB013BE9
:1043A000042B00F23B8501A252F823F07140000873
:1043B000F5450008C1430008ED450008C143000869
:1043C0006FF00C03099356E64FF001137363B9F1D4
:1043D000000FBCD100236B800123C5F80A3034E400
:1043E000BA4B98ED157A0593D3F83833009306EE5F
:1043F000903AB5EEC07AF1EE10FAB8EE668A7FF721
:104400001FADC8EE078AF6EE007A78EEA78A18EE9E
:10441000900A09F049F959B1059BAD4AD3F88030AB
:10442000AC4900209847039B002B7FF484AB2BE51D
:1044300098F85A20002A7FF41BAD039B98F85F1070
:10444000002B98F8603014BF204600209942049059
:1044500008D9059BA04AD3F880309E490020984790
:10446000FFF76CBB022B00F0BB84349B1A71A6F8DB
:10447000AC21FFF77BBBDFED998ACDE7DFED978AB3
:10448000DBE7B6F8AC31B6F8A421012B00F0CC8004
:1044900007EE902ADFED929AB8EE67AAB7EE089A77
:1044A000F2EE02DA059B9FED8F0AD3F838330193C1
:1044B00007EE903AB8EE67FA80EE0F0A06F04EF972
:1044C00098F86030022B2FEE00FA00F21F8104EB07
:1044D000830498F85E3094ED34EAD4ED37FA002B7B
:1044E00000F02681009BDFED7DEA9FED7FBA9FED16
:1044F0007FDADFED7FCA9FED7FCADFED7FBADFEDA8
:104500007FAADDF8149044460025227C052A00F29B
:104510009280022A40F29A804FF0300A0827E27B0C
:10452000052A00F27084DFE802F03E413B03474475
:10453000F0EE4B7A8FEE276A228998F85E1002FB24
:10454000077702377F00BFB2A288013514349FED90
:104550006C7AC6EE076A07EE90AAF8EE677A87EEE5
:10456000A66A07EE907AF8EE677A87EEA67A07EEEB
:10457000902AF8EE677AEAB267EE277A914277EEF0
:10458000867A77EEA97A77EE897A7EEEA7EABCD8AA
:1045900098ED145A002B40F0CF800093FFF7D4BB66
:1045A000F0EE6A7AC6E7F0EE6C7AC3E7F0EE4D7A89
:1045B000C0E7F0EE4C7ABDE7F0EE6B7ABAE70A9A04
:1045C000002A4FD01823B3FBF2F302FB03F3C3F12D
:1045D00018039BB21593002B44D10A9A0B92531ED9
:1045E0009B009BB20D9301230E936AE56FF00F03BE
:1045F000099340E56FF0060309933CE598F85F20C6
:1046000098F860309A427FF431AC039B349ADFED26
:10461000338A002B14BF2346002304930023137115
:10462000A6F8AC31FFF7A2BAF0EE499AF0EE49DAFB
:10463000B0EE49AA36E7D9F88030324A2549002041
:1046400098474FF0180A0427002368E7012A05D08D
:10465000022AF0D14FF03C0A0A2760E74FF0480ADF
:104660000C275CE7059B284AD3F8803019490020C5
:10467000984700230122CDE90D3215930B922AE5CC
:10468000149B002B0E9B08BF00230E93129B33B18B
:10469000099A199B9B1A0B9A93FBF2F39BB2ABF806
:1046A0008C300A9B169AABF89220013B0E9AABF81D
:1046B00088209BB2189A0A930123ABF88A20ABF8A2
:1046C000903029E600230D931A46F0E5880000207B
:1046D000A41C0108301C0108E41C010800000000B3
:1046E0009A999D41F902154F000090430000204324
:1046F000000000430000F0430000C04300004043BE
:1047000000247449D81D0108E81D0108059BC04A12
:10471000D3F88030BF490020984798F85E30002BCE
:1047200000F0F481DFEDBCFA0023B0EE6FEADAE6C8
:1047300098ED145ADFEDB8EA9FEDB87ADFEDB86A6C
:10474000349BCFEE077AB1EE0C7AC7EEA65A2AEE6A
:1047500007AA7FEE8EFACAEE257A9FEDB27A77EE3F
:10476000AD7AB0EE006A77EEAE7A77EEAF7A27EEEA
:10477000877A37EE067A77EE277A86EEA77AB4EE56
:10478000C57AF1EE10FA83ED007A7FF5DDAA059B7C
:10479000A54AD3F880409F49FDEEC77A002017EE66
:1047A000903AA047002300931EE402F1180083B260
:1047B0000C9303B2139300E509999C4BC943A3FBE7
:1047C0000131099B6FEA1111DB1709B21193D1E492
:1047D0000C9A964BD043A3FB00306FEA101000B246
:1047E000D217BAE403F1180002B283B21992FCE4C2
:1047F0000C98824200F0638100220A921692129273
:10480000139A9B1A0B9A93FBF2F39BB20E9301231C
:10481000CDE9133305E5994200F05E810A9B013B27
:104820009BB20A930123169312930B46E8E7E37BAE
:10483000052B00F21983DFE803F01A130C032B2178
:104840004FF486731793D6230C9340F21D128D23D9
:10485000FBE4AC23179376230C93BD225D23F4E491
:104860008C23179356230C939D224D23EDE46C2348
:10487000179336230C937D223D23E6E44FF4E67331
:1048800017934FF4CB730C9340F2DD12ED23DCE46D
:104890004FF4B67317934FF49B730C9340F27D1251
:1048A000BD23D2E4A37A172B00F20181092B00F279
:1048B0001F81C3F109039AB21523ABF84630069B5A
:1048C000ABF84820002B00F0608203EB4202938992
:1048D000ABF84A30237C013B042B00F2A682DFE8D0
:1048E00003F0BC7703AB85004FF000094FF4007272
:1048F0004FF4C063CDE909234FF0C00E02204FF002
:10490000040C08214A464B46ABF86E000A98ABF8F7
:1049100056000998ABF870C0ABF85800ABF84E10D1
:10492000ABF85010ABF852E0ABF854E098F85D10DB
:10493000B9F1000F00F00A81002B00F00781022975
:1049400000F27C813A4B0B4493F8C430ABF85A30F8
:10495000069B002B00F01D810023ABF85E30012385
:10496000ABF86A30069B0021D3E932ECD3F8C4904F
:104970000B460EEB1140A0EB09009042614480F21F
:10498000328201330F2BF4D1069AABF86030D2E9B2
:1049900036E303EB83020EEB1242F92A00F3F181B6
:1049A000062003FB00F0052103E0BCF1FA0C40F106
:1049B000DC810A46013189B214290EEB104C1844EF
:1049C000F3D1059B1B4AD3F88030DDE906963BE125
:1049D00000214FF40073CDE909134FF0400E03207E
:1049E0004FF0020C08219622FA238DE74FF00009C0
:1049F0004FF4F0504FF47853CDE909034FF4F86EBB
:104A000002204FF00B0C08214A464B467CE700BFC2
:104A1000541D0108301C0108000000000000204364
:104A2000002474490AD7233C2C1F0108ABAAAAAA68
:104A3000C0D90008001F01084FF000094FF4C06CF6
:104A40004FF46063CDE909C34FF4E07E02204FF0DC
:104A5000060C08214A464B4656E7069B9B8C0422CF
:104A6000082BCBF86E205DD9DDE90696FFF770BA0A
:104A70000422FFF737BB0D9B0F2B32D9A3F10F0296
:104A80000F230D9392B2002311E4B9F1000F2CD142
:104A9000237B002B35D0059BC64AD3F88030C6490E
:104AA000484698470422FFF71DBB0A9B27E4059B55
:104AB000C24AD3F88030DDE90696FFF746BA99423C
:104AC0007FF49AAE0023CDE91333CDF828E0169396
:104AD00012930E93FFF7A5BB0023169312930B4678
:104AE0008EE600221346FFF7E2BB0222FFF7FABA76
:104AF000102B94BFC3F11E03C3F117039BB2002216
:104B0000DBE64FF001090422FFF7ECBA98ED145AE6
:104B10000093FFF719B900980290864602210246D9
:104B2000FFF7CBB8ABF84E30ABF850304023002243
:104B3000ABF85230ABF854304FF40073ABF856304A
:104B4000ABF8582098F85D1013469146072975D8A0
:104B50009B48014491F8C810ABF85A100699C1B1AE
:104B60000021ABF85E10B9F1000F40F08480ABF883
:104B70006A90ABF86090ABF85C90ABF86290ABF8E1
:104B80006890ABF864904A460023ABF86620ABF817
:104B90006C302389E27AABF87620012B68D0023B97
:104BA0009BB20121ABF87230A37BABF84C3083F0A1
:104BB0000103ABF87410ABF878300099AB89AAF810
:104BC00000300B44AAF80810AB81A388217C06EEC4
:104BD000903A2389012907EE103ABBF86E302AD0AB
:104BE000022914BFF0EE695AF0EE4A5A01339BB223
:104BF00007EE903AF8EE677AB1EE006AF8EE666A70
:104C000067EE867AB8EE477A67EEA67A0198029B3D
:104C100067EE877A014667EEA57A002808BF11463D
:104C200067EE897A0191FCEEE77A17EE902A134439
:104C30000293FFF727B8DFED635AD7E7059B624A77
:104C4000D3F88030DDE906965B4900209847039B46
:104C5000AA89DDF804E012FB03F26B8913FA82F3F0
:104C60009BB2591C002092B289B20090FFF725B880
:104C70000023194696E70121ABF86A10002B7FF458
:104C800071AEABF8603019461A46ABF85C200022D2
:104C9000ABF86220ABF868204BBBABF864301A4627
:104CA00002EB0109069AD2E92FE1CE451DDA08464A
:104CB000002202F1010C09921FFA8CF2162A3FF42D
:104CC00080AE0EEB104CBCEB090C0844F1D4002B69
:104CD0007FF45AAF099800FB01F10EEB1143A9EBE9
:104CE00003039C45C8BF02464EE700224CE7069BE3
:104CF000D3E9349C894546DA134662469E46013321
:104D00009BB2162B3FF45DAE09EB1240401A624491
:104D1000F4D40CFB0EF209EB12428A1A9042D8BF6F
:104D20009E460699BBF86020D1F8CC30BBF85C00F9
:104D3000099002FB03F3D1F8C820ABF864E002EB62
:104D400013420B46D1F8C410521AD3E936303FF55E
:104D500038AE09990CFB0EFE00FB01F103EB114389
:104D600009EB1E401918FA239AE702FB03F30EEB36
:104D70001343C3F1FA039C45D8BF0A46FA210B46F8
:104D800083E70522FAE79646CBE7069BABF84A3065
:104D9000237C013B042B48D801A252F823F000BF2A
:104DA000EB4D0008D1490008E9480008394A0008DD
:104DB000ED490008101E0108301C0108C81E01083A
:104DC000C0D90008CDCC4C3EE01E0108349A1371C6
:104DD000A6F8AC31B9F1000F7EF4EDAEFFF763B881
:104DE0000123FEF7B7BE9BB2CEE54FF000094FF4AA
:104DF0000073CDE909934FF0400E0420CC46022108
:104E00004A464B4680E5D9F880301C4A1C490020B0
:104E10009847DFED1C7A0023FFF78CBB059B1A4AED
:104E2000D3F88030DDE906960EE7059B164AD3F8E5
:104E3000803013490020DDE906969847AA89039B34
:104E4000DDF804E012FB03F26B89562113FA82F3BA
:104E500001FB076100209BB2C1F86E00591C92B2A1
:104E6000009089B2FEF729BF059B044AD3F8803031
:104E7000034900209847FFF7E0B900BF841E0108EE
:104E8000301C010800000043D81D010870B5FEB0B9
:104E90004FF4E27204460D460DA8002103AE07F060
:104EA000B7F900960DAA05AB00212046FEF7F4FDE8
:104EB00008B97EB070BD94F85B202B46314605A83A
:104EC000FEF7FAFB7EB070BD2DE9F04383B01D46BE
:104ED00043F440534FF00008BDF82840ADF80030CF
:104EE0008946164669460123032245F48055074644
:104EF000ADF80280ADF80480FEF768FBADF8005015
:104F0000BDF9045004FA09F46C4004EA0602554065
:104F10004346694638460222ADF80250FEF756FB7A
:104F200003B0BDE8F08300BF30B583B0002529464B
:104F300000957B23FF220446FFF7C6FF0121009165
:104F400020468B230222FFF7BFFF8B238022009590
:104F500007212046FFF7B8FF03B030BD70B582B01F
:104F600043F2370200230092ADF8043003220123FC
:104F700069460546FEF72AFBBDF8043013F0C00F62
:104F80001AD143F21C020123009200246946032235
:104F90002846ADF80440FEF719FBBDF804301B05A8
:104FA00017D50F4B0F4AD3F880600F4920462B4688
:104FB000B047204602B070BD094B93F88820002A04
:104FC000DFD0D3F88040094A07492B460120A0478B
:104FD000D7E72846FFF7A8FF012002B070BD00BF49
:104FE00088000020781F0108AC1A01084C1F010836
:104FF0002DE9F04F9B461B68C2F51E66B34294BF75
:105000009EB2B6B2884674084FEA520183B0174682
:105010004FEA81010CD0144B08EB84041944434639
:1050200051F8042B5A80120C1A800433A342F7D192
:105030000E4C851E04F1E20A04F1E40914F8013B68
:1050400035F8022F3946CDE9003240464B4632460C
:10505000FBF7F4FCA24501D00028EFD1CBF80060AB
:1050600003B0BDE8F08F00BF64EC0008A8DA0008C8
:10507000B8B110B50446406D20B10A4B9B6F9847FC
:1050800000236365A06D20B1064B9B6F98470023FA
:10509000A365E06D20B1034B9B6F98470023E36548
:1050A00010BD7047880000202DE9F84F89462DED8E
:1050B000048B064620B1B54B02689A4200F084800A
:1050C000B34FB44AD7F88030B349002098474FF027
:1050D000010B0024DFF8C0A2B0462546002E00F0E8
:1050E0008F803368A94A934276D0D7F88030A94A96
:1050F000514600209847A94580F0B880A9EB0509E2
:105100001FFA89F9A14B32689A4200F01981D7F849
:105110008030A04AA04900209847D7EDCE7A9FED75
:105120009F0AB8EE678A80EE080A05F017FB35681B
:10513000964B9D4228EE008AF3EE087A28EE278AE5
:10514000B7EE007AC7EE087A9FED956A9FED957AE3
:1051500067EE867AF6EE006A05EE909A67EEA67A1A
:10516000B8EE659A67EE879A00F0D080D7F8803065
:10517000884A8949DFED8B8A0020984797EDCE8ACF
:105180009FED860AB8EE488A69EE288A80EE080A02
:1051900005F0E4FA28EE008AB3EE087A28EE078AD2
:1051A000F7EE007A87EE880A9FED7D7A20EE070AF7
:1051B000F6EE007A20EE270A20EE280A30EE290AC1
:1051C000BDEC048BBDE8F88F90F862B0BBF1000F26
:1051D00000F0D5806E4F7CE7032C5DD9D7F8803086
:1051E000714A514600209847A94580F0B98033683C
:1051F000664AA9EB050993421FFA89F987D1A1E014
:10520000D7F88030634A514630469847A94531D295
:10521000A9EB0506B6B2D7F880305E4A5E49002099
:105220009847D7EDCE7A9FED5D0AB8EE678A80EE9B
:10523000080A05F093FA20EE087AF3EE087A27EED2
:10524000277AF7EE006AC6EE877A9FED556A9FEDE2
:10525000557A67EE867AF6EE006A05EE906A67EE9A
:10526000A67AB8EE659A67EE879A7FE73368474A71
:1052700093425CD0D7F88030464A51460020984788
:105280000134E4B25C4508F114087FF427AF002E26
:10529000C1D04FF0000935E7B8F808302B449BB275
:1052A000994542D2A9EB05091FFA89F907EE909AB0
:1052B000B8EE679A234603EB830306EB8303D3ED33
:1052C000019A324DF8EEE99AD7EDCE7A9FED330A86
:1052D000B8EE678A80EE080A05F040FA2B4B9D4233
:1052E00028EE008AF3EE087A28EE278AB7EE007AD5
:1052F000C7EE087ADFED2A6A67EEA67AB6EE007A84
:1053000067EE877A67EEA99A7FF430AF032C2CD929
:10531000D7F88030244A2049DFED228A00209847C0
:105320002CE7B8F808302B449BB21D46A8E7032CA5
:10533000F7D9D7F880301C4A1749002098479FE7D3
:10534000032CB3D9D7F88030174A1349DFED159AEB
:105350000020984707EE909A3568B8EE679AB3E751
:1053600033680A4A934285D1E3E704EB840406EBF1
:105370008404638908EE903AF8EE688AFEE69FEDB1
:10538000099A034F5C465B4695E700BF0FB03713A1
:1053900088000020BC190108D4190108F902154F32
:1053A000C2F38E4D00000000DC19010870B5094EF3
:1053B000736F05469847044628B12A46002106F037
:1053C00027FF204670BDD6F88030034A034998472E
:1053D000204670BD88000020A81F0108B81F0108E2
:1053E0002DE9F04F2DED068BB5B0009018B1784B3C
:1053F00002689A4215D0DFF810B2764ADBF88030A6
:10540000754900209847DBF88030744A72490020C3
:1054100098474FF00008404635B0BDEC068BBDE81C
:10542000F08F89464FF494726B493820FFF7BEFF26
:105430008046002800F0CB810099DFED747A91ED71
:10544000128A91F85E30664A0162C8EE278A0260CD
:10545000002B00F0DF80B0EE680A05F07FF9DFED89
:105460006C7A009B70EE277A93ED137AF4EEE87A6B
:10547000F1EE10FA44BFF7EE007A30EE270ADFEDC6
:10548000637A87EE278A60EE278AB0EE480A05F035
:1054900065F9DFED5F7A9FED5D7A70EE277AB4EE05
:1054A000E78AF1EE10FAC4BFF7EE007A30EE270A71
:1054B000DFED4C7A20EE078AB4EEE78AF1EE10FABF
:1054C00040F2C482F4EEE78AF1EE10FA40F38682ED
:1054D00000210098F0EE480AB0EE680A0422FDF7B9
:1054E00005FE0146009BD86B20B13F4B02689A42F3
:1054F00000F01E83DFF810B1DBF880303B4A3C49F6
:1055000000209847009BD86B93F85420002840F067
:105510006382DBF88030354A354900209847009B8C
:10552000D86BB3F85030002840F04981DBF8803068
:105530002E4A2F4900209847009BD86B009A936D04
:10554000D36092F85C20002A00F0498120B1264BFC
:1055500002689A4200F0E982DBF88030234A24494D
:1055600000209847009BD86B002840F06081DBF852
:1055700080301E4A1E4900209847194BD8F8002059
:105580009A427FF440AFD8F82C4024B1194B2268DE
:105590009A4200F0C481DBF88030174A1749002096
:1055A0009847D8F8284024B1154B22689A4200F059
:1055B0008D81DBF88030104A124900209847002284
:1055C000DBF87830C8F800204046984721E700BF54
:1055D00002B13713C81F0108E01F01088821010824
:1055E00001B137130AD7233F0FB03713BC19010895
:1055F000D419010803B13713CC200108AC200108ED
:105600000DB0371314200108880000200AD7233B6F
:10561000ACC52737009B93F84030002B40F029821F
:10562000009B93F84250009B93F84130002B40F0D0
:105630001882009B5FED0B7AB3F8447007EE107A86
:10564000B8EE479A29EE279AB0EE680A05F03CF8C2
:10565000009B93ED137A37EE487AF0EE407AC7EE6E
:10566000098AFDEEE77AB0EE680A17EE90AA05F017
:1056700075F85FED197A70EE277AF4EEE78AF1EEAD
:1056800010FAC4BFF7EE007A30EE270AF7EE007A80
:1056900030EE270A05F062F8FCEEC07A009BCDEDF3
:1056A000017ADA6BBDF90430BDF80460013B13FBED
:1056B00007A31CB222B19F4913688B4200F01381EB
:1056C000DFF8A0B29C4ADBF880309C490020984764
:1056D000009BDA6B002A40F07981DBF88030964A33
:1056E000964900209847009BD86B002840F0038122
:1056F000DBF88030904A914900209847009BD86B96
:10570000002840F0FF80DBF880308B4A8B49002076
:105710009847009BD86B002840F0FA80DBF8803077
:10572000854A864900209847009BD86BDFED846A44
:105730009FED847A07EE904AF8EEE77A034667EE2B
:10574000A67AF4EEC77AF1EE10FA40F11381013D2A
:1057500018BF012520B1774902688A4200F0DF8135
:10576000DBF88030744A754900209847009BD86B5D
:10577000B3F852200346002840F01E81DBF8803049
:105780006D4A6E4900209847009BD86B93F86420BF
:1057900000283FF4B1AE674903688B427FF4ACAE9A
:1057A00080F86A20009A92F8542062498B427FF474
:1057B000B0AE009B80F86320D86BB3F850305D4AE0
:1057C000016891427FF4B2AEA0F85C30B6E6DFF833
:1057D00094B15D4ADBF880305C49984713E60028B5
:1057E0003FF4BAAE534A016891427FF4B5AE836587
:1057F000043025A9FFF74AFB00283FF4BEAEBDF8F0
:105800009430033323F00303C8F83030009BDF6B80
:105810001FB1484B3A689A420FD0DBF88030464AB5
:105820004649002098470023C8F82830A5E6414B98
:1058300002689A427FF49BAEDAE74549672210205E
:10584000FFF7B4FD0190002800F07A81019A414BE6
:10585000136097F86230404938221020002B40F046
:105860002781FFF7A3FD3C4902903922FC20FFF776
:105870009DFD0646029B002B00F04187002E00F0A4
:1058800003870025029BC6F8985025A91E60381D85
:10589000FFF7FCFA002840F06B81DBF880302F4ADC
:1058A0002D4998470298FBF797F80199294B0A6808
:1058B00000249A424C6000F0ED86DBF88030284AE4
:1058C000234920469847C8F8284056E6606818B132
:1058D000C3689847002363600022DBF878302260B9
:1058E000204698476BE60123DFF878B082F86230F3
:1058F000009B1575D86B0F4A036893427FF4F8AE8E
:10590000C0F804A00B4A036893427FF4FCAE068102
:10591000084A036893427FF401AF478106E72046B7
:10592000FFF7A6FB0022DBF878302260204698477C
:1059300037E600BF0FB03713BC190108D4190108AE
:105940000AD7233B66664640F41F0108E01F0108A2
:10595000142001080DB03713202001083020010861
:10596000CC200108880000203333A34033334B415F
:10597000000094411FED047AF4EEC77AF1EE10FABC
:1059800000F1D985B1EE0C7AF4EEC77AF1EE10FA97
:1059900000F1D9801FED0B7AF4EEC77AF1EE10FA20
:1059A00000F1BB801FED0E7AF4EEC77AF1EE10FA2B
:1059B0004CBF04250525CDE6644D0168A9427FF45E
:1059C000DDAE9A81009B93F86420E4E65F4913689A
:1059D0008B427FF482AE8BE70368E6E688EE279A77
:1059E000B0EE490A04F0BAFEDFED597A009CDFED13
:1059F000590A70EE277A0022B4EEE79AF1EE10FA17
:105A0000C4BFF7EE007A30EE270A2046FCEEC07ADB
:105A1000B0EE680A17EE905A013DEDB2032D28BF93
:105A20000325012D38BF0125C5F10401C9B2FDF7D9
:105A300093F89FED480A01460646F0EE480A2A46CA
:105A40002046FDF753FB3118C9B24BE504210098FD
:105A5000F0EE480AB0EE680A0122FDF77DF8014633
:105A600040E56B1EDBB2042B49D99FED3B9A012721
:105A7000EAE53A4B9FED3A7A3A48259325AA26AEB5
:105A800012F8015B6B1EDBB2042B00EB8301F0EE1E
:105A9000477A9CBFD1ED237A77EEA77AF4EEC87AE5
:105AA000F1EE10FA7FF6BFAD9642E9D10125BAE5D5
:105AB000B7F85C50FFF77AFC2B4902903922FC20A2
:105AC000FFF774FC0646002D3FF4D4AE26493E2273
:105AD0006020FFF76BFC029B0546002B00F001865F
