:020000040800F2
:1000000000000120C9AF00083D3E0008413E000845
:10001000453E0008493E00084D3E00080000000033
:10002000000000000000000000000000513E000839
:10003000553E000800000000593E00085D3E0008E3
:1000400019B0000819B0000819B000086D3E00088A
:1000500019B0000819B0000819B0000819B000085C
:1000600019B00008A93E000819B0000819B000082E
:10007000BD3E0008C93E000819B0000819B00008CC
:10008000D53E0008E13E000819B0000819B000088C
:1000900019B0000819B0000819B0000819B000081C
:1000A00019B0000819B0000819B0000819B000080C
:1000B00019B00008000000000000000019B000089E
:1000C00019B00008ED3E000819B0000819B000088A
:1000D00019B0000819B00008153F000819B0000851
:1000E0000143000815430008000000000000000064
:1000F0000000000000000000000000000000000000
:100100000000000019B000080000000019B000084D
:10011000000000000000000019B0000819B000083D
:1001200019B0000819B0000819B0000819B000088B
:1001300019B00008000000000000000000000000EE
:1001400019B0000819B0000819B00008000000003C
:1001500019B0000819B0000819B0000819B000085B
:1001600019B0000819B0000819B00008000000001C
:1001700019B0000819B000080000000000000000DD
:1001800019B0000819B0000819B0000800000000FC
:1001900090F824C0BCF1010F3CD070B590F825C098
:1001A0000124A44580F824405FFA8CFE04D000238B
:1001B00080F82430022070BD022580F825500468A4
:1001C0000025C5632668456C26F00106266005F00B
:1001D0001C05066C0EFA05F5756063608368102BCC
:1001E000036B0BBFA260A160E160E2604BB12368CA
:1001F00043F00E032360236843F0010300202360D3
:1002000070BD236823F004032360236843F00A03CE
:100210002360F0E7022070472DE9F041764C00237F
:10022000237094F86530012B0D46E16808D0B1F5D4
:10023000827F60D1D8B22369002B5CD104285AD1C7
:10024000002D58D092B2002A55D094F86430012B7A
:1002500051D094F86530A6682564042B1CBF052393
:1002600084F8653001210023A36684F86410A4F8A3
:100270004620A4F84E20C4E915337368A4F844203E
:1002800023F4C043A564A4F84C2073606369206E16
:10029000B3F5E06F31D8E36D99697368B1F5806F9C
:1002A00043F4805373607DD08369B3F5806F65D06C
:1002B00094F86530514A042B514B18BF1346514AEC
:1002C0000363514B4363514B18BF1346C362B4F8E9
:1002D0004E304FF00008C0F838809BB206F10C0198
:1002E0002A46FFF755FF074660B1A36E84F8648085
:1002F00043F01003A366BDE8F081736823F48053D4
:100300007360D5E77368E06D43F001037360B4F880
:1003100046300A46C0E90B77C0E90D7729469BB203
:10032000FFF736FF00284AD133685B0621D500234A
:1003300084F86430736843F020037360736843F09B
:1003400002037360E26E2378002BD4D141F287312F
:1003500009E072B6237803B930BF62B6BFF36F8F7E
:100360002378002BC7D1E36E9B1A8B42F1D9BDE8ED
:10037000F081336843F040033360D8E7736823F4B7
:1003800080537360B4F84E3013F0010F73681DD1C1
:1003900023F400537360B4F84E30C3F34E03A4F853
:1003A0004E3085E7D20773681BD423F48043736013
:1003B000B4F84630C3F34E03A4F8463074E7A36E96
:1003C00084F8647043F01003A36694E743F4005389
:1003D0007360B4F84E30C3F34E030133A4F84E30CB
:1003E00066E743F480437360B4F84630C3F34E03CA
:1003F0000133A4F8463057E7780000206909000867
:1004000065090008E11500086D09000835150008A8
:1004100070B4436C066C056831682C6803F01C03EB
:1004200004229A400A420ED014F0040F0BD02B681D
:100430009B0603D42B6823F004032B60036B7260CC
:10044000CBB170BC184702229A400A4215D014F072
:10045000020F12D02B68990606D42B6823F00A03EA
:100460002B60012380F82530C36A7260002180F878
:100470002410002BE5D170BC704708229A400A4234
:10048000F9D02207F7D52A68416B22F00E022A60C4
:10049000012202FA03F300247360C26380F824404F
:1004A00080F825200029E6D070BC0847234A9368CD
:1004B000D26813F00C0305D00C2B32D0042B36D1AC
:1004C0001F4870471D4A1168090754BFD2F894208D
:1004D00012681C4954BFC2F30322C2F3031251F83D
:1004E0002200002BEDD0154BDB6803F00303022B39
:1004F00022D0154A032B08BF1046104BD968DA6882
:10050000DB68C3F34163C2F30622C1F30211013376
:1005100000FB02F201315B00B2FBF1F2B2FBF3F03F
:10052000704702F00302012ACCD00020DBE7082B41
:10053000054818BF002070470148DEE70010024060
:100540000024F400A0E0000800127A00064A074BDD
:1005500092680749C2F302221344086893F83030C6
:1005600003F01F03D840704700100240A0E00008CD
:1005700000000020064A074B92680749C2F3C222D6
:100580001344086893F8303003F01F03D8407047D5
:1005900000100240A0E0000800000020414A03686B
:1005A00030B4D468A40707D0D46804F003049C4294
:1005B00046D0012030BC7047022B52D0032B49D0CB
:1005C000012BF6D112689207F3D5364CE26822F07F
:1005D000730213434268013A43EA0213E360314C69
:1005E000314A236823F080632360D56E03E0D36E25
:1005F0005B1B022B39D823681B01F8D483681B02CC
:10060000002934D12169C56821F0784121F4FE41E7
:1006100043EAC5630B43236122490B6843F08063BF
:100620000B60D46E03E0D36E1B1B022B1DD80B682E
:100630001B01F8D582690B69134300200B61B9E7F0
:10064000002CB6D0D3684268C3F30213013393423F
:10065000AFD1C4E71468A403B7D412685203A8D575
:10066000B3E712685505A4D5AFE70320A2E7012937
:1006700021690BD021F0C06121F4FE411943436987
:100680005B08013B41EA43612161C5E721F4C001F8
:1006900021F4FE410B4301694908013943EA415302
:1006A0002361B9E70010024078000020F0B504682B
:1006B0000546200583B000F1F2800026A1034ED547
:1006C000A54B9A6DD20040F1F5800027A349A44ABA
:1006D0000B6843F480730B60D06E04E0D36E1B1A7A
:1006E000022B00F200810B68DB05F7D5A6BB9A4907
:1006F000A86DD1F8903013F4407325D0834223D0F5
:10070000D1F890C0D1F8903043F48033C1F89030E4
:10071000D1F8903023F48033C1F890301CF0010FF1
:100720002CF44073C1F890300ED0D2F86CE041F256
:10073000883C05E0D36EA3EB0E03634500F2D38043
:10074000D1F890309B07F5D5834AD2F8903023F446
:1007500040730343C2F89030002F40F0DC80E10783
:1007600008D57D4A296AD2F8883023F003030B4369
:10077000C2F88830A20708D5774A696AD2F888306B
:1007800023F00C030B43C2F88830630708D5724A84
:10079000A96AD2F8883023F030030B43C2F88830BE
:1007A000A70608D56C4AE96AD2F8883023F440637A
:1007B0000B43C2F88830A00508D5674AE96BD2F828
:1007C000883023F440230B43C2F88830610508D5F4
:1007D000614A296CD2F8883023F440130B43C2F8E5
:1007E0008830620608D55C4A296BD2F8883023F439
:1007F00040530B43C2F88830230608D5564A696B2C
:10080000D2F8883023F440430B43C2F88830E70520
:1008100008D5514AA96BD2F8883023F440330B43F2
:10082000C2F88830200323D4374661030FD54A4AE3
:10083000E96CD2F8883023F040630B43B1F1006FCC
:10084000C2F8883000F08380B1F1806F77D03E46E7
:1008500062044DD43046230408D53F4A696DD2F86E
:10086000883023F080430B43C2F8883003B0F0BDDA
:10087000394AA96CD2F8883023F040630B43B1F1B8
:10088000006FC2F888304CD0B1F1806FCCD101211B
:10089000281DFFF783FE07460028C5D0C5E76F6C0B
:1008A000B7F5000F11D0B7F5400F13D0002F3DD092
:1008B000012603E79A6D42F080529A659B6D03F022
:1008C00080530193019B012700E7234AD36843F437
:1008D0008033D360204AD2F8883023F440033B436E
:1008E000C2F88830E9E60326002F3FF438AF12E063
:1008F00019492A6DD1F8883023F040531343B2F1DF
:10090000805FC1F88830A5D10221281DFFF746FE7F
:1009100000289FD09FE7104A936D23F08053936582
:100920001DE7D36843F48013D3607DE73946281D63
:10093000FFF734FE064600287FF4C0AECAE7012167
:10094000281DFFF72BFE0646002880D080E7D368DD
:1009500043F48013D3607AE7001002400070004037
:1009600078000020704700BF704700BF836A196895
:100970004A6822F003024A601A6E4FF0010C42F0FE
:1009800010021A6683F85DC0704700BF026852E823
:10099000003F23F4907342E800310029F7D102F1BF
:1009A000080353E8003F23F0010302F1080C4CE870
:1009B00000310029F3D1036E012B06D00023202241
:1009C000C0F8802083660366704752E8003F23F03A
:1009D000100342E800310029F0D052E8003F23F034
:1009E000100342E800310029EFD1E7E770B5056850
:1009F000EC6931EA040405D05E1C06D1EB6931EAEA
:100A00000303FBD10023184670BD154CE46EA41AF5
:100A1000A34218D3BBB12C686407E9D58029E7D07D
:100A20004029E5D0EC6914F008040ED1EE693605D2
:100A3000DED54FF400632B62FFF7A8FF2023C0F838
:100A4000843080F878400323DDE708242C62FFF728
:100A50009DFF00220123C0F8844080F87820D2E76F
:100A600078000020836A0022A3F85A20A3F85220BD
:100A7000704700BF10B418B10C4B04689C4208D0FA
:100A80000B4B0C4AD3F880300B495DF8044B002027
:100A90001847032A02D9064B084AF3E702EB820201
:100AA00000EB82005DF8044B018170470FB03713F3
:100AB00078000020801F0108981F0108A01F01086E
:100AC000B1F804C093680A899A80BCF1000C18BF81
:100AD0004FF0010CCA7983F800C091F806C083F882
:100AE00001C09A709860704703460068D3F8E81018
:100AF0004268C3F8F01010472DE9F047D0F80080A5
:100B00000546B8F1000F1ED0D8F898700FB3124EFA
:100B100007F148044FF00009583754F8040F18B192
:100B2000B36F9847C4F80090A742F6D1D8F8980060
:100B3000B36F00B19847B36F40469847B36F2846EC
:100B4000BDE8F0471847044E2846B36FBDE8F047AC
:100B50001847014EEFE700BF78000020F8B50546C2
:100B60000088002A1C460CBF4FF400534FF48053FA
:100B7000B0F59C6F0E460FD300F151077F00834202
:100B8000BFB236D21C4B1D4AD3F880301C4900201E
:100B900098474FF0000C03E040F662274FF0010C3D
:100BA0001849194AC4E9011202F11912E26002F16E
:100BB000191222612346002262805122A28223F868
:100BC000167B29686A68A868EF68C4F816105A602E
:100BD0009860DF602969A8696A699861196196E877
:100BE00003005A61AA8B9A83343484E80300604678
:100BF000F8BD4FF0010CD3E778000020B81F0108C2
:100C0000D81F01080100020003001B002DE9F04776
:100C100082B0BDF828400B9F03EBC4056B88002B06
:100C200045D06E68844601EB0208043E4FF0000E8A
:100C300056F8044F620092B28A4234D3424532DA07
:100C4000C4F30170012818D002283CD098BB521A76
:100C500093B2C4F34459012202FA09F297424BD3EA
:100C60003449013AD1F8804001923349334A009720
:100C7000A047002002B0BDE8F087521A92B20CEBF8
:100C800042093CF81200B9F8023043EA004323F06D
:100C90000F0317B1C4F303442343180C2CF81200BC
:100CA000A9F802306B880EF1010E7345C0D80120FF
:100CB00002B0BDE8F0871F4B214AD3F880301E49AF
:100CC00000209847D5E7521A92B20CEB42003CF84C
:100CD0001290438843EA094323F00F0317B9C4F382
:100CE000034423431C0C2CF8124043806B880EF104
:100CF000010E73459CD8DAE7C4F3044A0CEB4304B5
:100D00003CF813006288C9F1200942EA00424FF022
:100D1000FF3020FA09F000FA0AF022EA000207FA8E
:100D20000AFA42EA0A02100C2CF8130062806B885F
:100D3000B9E700BF7800002024200108EC1F01085B
:100D400030200108002870B446DB0029034639DB57
:100D500088420A464BDA0025012429461B04B3FBCE
:100D6000F2F343F6284293425AD946F2D6329342DE
:100D700060D948F6720293425ED94AF649429342DC
:100D80005CD94DF2A30293425AD94FF24B7293426F
:100D900098BF052045D94FF24C7648F233224CF2E9
:100DA000A3409B1B02FB03F300EB134014B1C0F5FF
:100DB000C9301F3015B1C0F549303F30C1B1404294
:100DC00070BC7047494209B2884217DA00250124F5
:100DD0000A4603462146C1E7404202B200291046B6
:100DE00014DB91420B4605DD91BB1C4800E048BB7B
:100DF00070BC7047002401252146AFE70028DED0F3
:100E000000250B4602462C460121A7E7494209B2BC
:100E10008A424FF00105DADB0B46002429469DE7A4
:100E200000200F4A02EBC00602EB8002D6E90E60FA
:100E3000126FB6E70120F4E70220F2E70320F0E7A3
:100E40000420EEE700250B4602462C46294685E79E
:100E500001251A462C46034600217FE72092010017
:100E6000A0E000082DE9F0470646804602EB42006C
:100E70008CB0154606EB8000002289460DF10C0A65
:100E8000014617464FEA870E54469FED767AB31A0D
:100E900075B103EB020CF444DCED007A9C46DCED0A
:100EA000006A0C3367EEA67A8B4237EE277AF0D1D0
:100EB0000EF1040EBEF10C0FA4EC017AE5D101375E
:100EC000032F0AF1100AA2F1040201F10401D9D1A1
:100ED0009DED045ADDED055ADDED086A6A4606F11E
:100EE0000C01DFED607A43463DB11C4694ED007A7B
:100EF0000C33834277EE877AF7D108F104088845EE
:100F0000E2EC017A00F10400EBD19DED037AF0EE02
:100F1000C77AF4EE677AF1EE10FA12D69FED526AB4
:100F2000F4EE467AF1EE10FA0BDC9FED506AF4EE27
:100F3000C67AF1EE10FA04DAB5EE407AF1EE10FA64
:100F40007DD0F7EE007A87EE872A9DED073A9DED7A
:100F50000B7A65EE023A25EE824A65EE237A65EE5B
:100F6000A34A33EE673A25EE846AF0EEC32A65EEB3
:100F7000047AF4EE622AF1EE10FA76EEE44A76EEA6
:100F8000E77A37EE466A06D69FED377AF4EE472ABF
:100F9000F1EE10FA47DDB7EE007AC7EE032ADDED79
:100FA000006A9DED017A9DED023A63EEA63A67EE86
:100FB000A27A37EE637A64EEA73A67EE877A36EE66
:100FC000636A24EE264AF0EEC63A73EE677AF4EED0
:100FD000633AF1EE10FA77EEC47A06D69FED224A14
:100FE000F4EE443AF1EE10FA2FDD87EE864A012046
:100FF000002364EE844A65EE845A77EE647A89EDC4
:10100000024A67EEA27A25EE275AC9ED017A76EEFA
:10101000C57A77EEE57A67EE827AC9ED007A3360B9
:101020000CB0BDE8F0879FED117AF4EEC72AF1EE1F
:1010300010FAB0DAB5EE403AF1EE10FAABD100207A
:10104000002333600CB0BDE8F0879FED084AF4EE52
:10105000C43AF1EE10FAC8DAB5EE406AF1EE10FAD1
:10106000EDD0C2E700000000FFFF7F7F000080009E
:101070002DE9F047C36D8769056900247C808146AE
:101080001C7000F14806A04656F8043FFBB1B3F8C7
:1010900038C0B3F89400B3F89610B3F8DC2005EB31
:1010A000400005EB410105EB420205EB4C0CC3E9A6
:1010B0001301C3F8A820C3F814C03C701868D3F813
:1010C000E020416883F8E880C3F8E42088470134D1
:1010D000E4B2042CD8D1D9F80000BDE8F047436849
:1010E000184700BF0068C368184700BF70B50446C2
:1010F000806980B1E3694BB1104B93F888202AB125
:10110000D3F880300E4A0F49012098472068BDE887
:10111000704083681847094D0B4AD5F8803009495B
:101120009847E36943B195F888302BB1D5F8803002
:10113000034A044901209847002070BD7800002030
:1011400054200108642001087420010830B40269A9
:10115000B0F8423090F8381032F81330032908BF45
:1011600083F4004340F2E51101FB03F31B0C816C97
:101170008446A3F589700880BCF83C10DCF84C006C
:1011800032F8111039B1BCF8401032F811100129B1
:1011900094BF002101210170BCF83E00BCF83A1058
:1011A000DCF8505032F8111032F81020DCF85440BE
:1011B00040F2E51000FB02F2A3EB12431BB2002B3E
:1011C000BCF94420DCF80000B8BF5B421BB29A4275
:1011D000A1F10102B2FA82F2ACBF0023012352094D
:1011E0002A70237030BC4368184700BF0068C3688A
:1011F000184700BF00688368184700BFD0E90F2375
:10120000816B0069184700BF836910B50446CBB1F4
:101210000E4B93F8882052B963698BB10B4B0C4A83
:10122000D3F880300B4900209847002010BDD3F838
:101230008030094A0749012098476369002BEDD1A6
:10124000012010BDC369002BE2D1E5E77800002042
:10125000C8200108AC200108902001082DE9F04FBA
:101260009B461B68C2F51E66B34294BF9EB2B6B2DF
:10127000884674084FEA520183B017464FEA81014D
:101280000CD0144B08EB84041944434651F8042B4A
:101290005A80120C1A800433A342F7D10E4C851EDB
:1012A00004F1E20A04F1E40914F8013B35F8022FD5
:1012B0003946CDE9003240464B463246FFF7A6FCA0
:1012C000A24501D00028EFD1CBF8006003B0BDE803
:1012D000F08F00BF7CF300082CE100080068C368B1
:1012E000184700BF00688368184700BF10B582B078
:1012F000104B9FED117A114C019301AA0DF1080ECC
:10130000012012F8011B4B1EDBB2042B04EB830CF3
:10131000F0EE477A9CBFDCED007A77EEA77AB4EE68
:10132000670AF1EE10FAA8BF08469645E9D102B067
:1013300010BD00BF0203040500000000A0E9000882
:1013400007EE900ADFED1A6A9FED1A7AF8EEE77A57
:1013500067EEA67AF4EEC77AF1EE10FA03D5481ECE
:1013600018BF012070479FED147AF4EEC77AF1EEB2
:1013700010FA17D4B1EE0C7AF4EEC77AF1EE10FA47
:1013800014D49FED0E7AF4EEC77AF1EE10FA0BD476
:101390009FED0B7AF4EEC77AF1EE10FA4CBF042001
:1013A00005207047012070470320704702207047D6
:1013B0000AD7233B666646403333A34033334B4161
:1013C00000009441F0B482B02E4E056800238DF8E1
:1013D0000330F36EF76EC3F164031A442A4B1B68A3
:1013E00003EB8303C3EBC3031B0D02FB03F3019366
:1013F000AB6819420AD134E0019C019B013B019387
:10140000AB68002C08BF002219422AD0B1F5C06F8A
:1014100005D12B7BDBB28DF803309DF80330F36EE2
:10142000DB1B9342E8D36B68426823F0E003B2F51C
:10143000827F6B6019D0836AB3F5005F07D12B6898
:1014400023F400532B602B6843F400532B600122DC
:10145000002380F85D2080F85C30032002B0F0BCEF
:101460007047002002B0F0BC70478368B3F5004FAE
:1014700002D0B3F5806FDED12B6823F040032B60E0
:10148000D9E700BF780000200000002070B4274D8D
:10149000274BEA6E1B680468EE6EC2F164021144C9
:1014A00083B0C3F3CB3301FB03F30193A3681A06A4
:1014B0002CD509E0019A019B013B0193A368002A06
:1014C00008BF00211B0621D5EB6E9B1B8B42F1D37D
:1014D0006368426823F0E003B2F5827F636019D04D
:1014E000836AB3F5005F07D1236823F400532360B8
:1014F000236843F4005323600122002380F85D2019
:1015000080F85C30032003B070BC7047002003B04B
:1015100070BC70478368B3F5004F02D0B3F5806F9D
:10152000DED1236823F040032360D9E77800002050
:101530000000002038B5294A0368D56E1B689B0659
:101540001BD4846A2368A2685868616820F0200070
:1015500058609AB15868B1F5827F20F00100586058
:1015600022D029462046FFF791FFB0B9012300227F
:10157000A4F8462084F85D30236E38BD5A68B1F572
:10158000827F0CBF22F0030222F001025A6029463A
:101590002046FFF77BFF0028E8D0236E43F02003AE
:1015A000236620232366E1E7B2F5004F12D11A68C3
:1015B00022F0400229461A602046FFF767FF002804
:1015C000EBD12A464FF4C0612046FFF7FBFE00280E
:1015D000CCD0E2E7B2F5806FE9D0C2E77800002016
:1015E000F8B51B4D0368EF6E1B68846A9B062CD40C
:1015F0002668736823F0200373603A464FF4C051A5
:101600002046FFF7DFFE58B939462046FFF73EFF78
:1016100030B93A464FF4C0612046FFF7D3FE38B1E7
:10162000236E43F020032366236E43F020032366DA
:10163000736823F00303736000220123E287A4F898
:10164000462084F85D30236E0BB901232B70F8BD62
:101650007800002030B4124D124C00F1BC0C002177
:1016600043680B44024640F8043F12689A1AAA42A3
:1016700009DD50F8042CA3F5C9237E3BA1F5C9214F
:1016800003607E399A1AA24206DA03F5C92301F5EE
:10169000C9217E3303607E318445E1D130BC70477F
:1016A0003F240300C1DBFCFF2DE9F04FBFB00DF17B
:1016B00038090D469046019300F1020B3EAFCA4631
:1016C000002440F6B73631E025B335F8141001F0A8
:1016D0001F0E4FEA912C0EF1300E00FB0EF0C1F3FD
:1016E0004411ACF1200C02FB0CFC002801F130018C
:1016F00002FB01F1B8BF3F30BCF1000FB8BF0CF1E5
:101700001F0C8011002900EB6C10B8BF3F3100B2F4
:1017100041F38F110134182C08BF0024FFF712FB8E
:101720004AF8040BBA450BF1040B0ED0BBF90020AC
:101730003BF9020C02FB02FC00FB00CCB445114655
:10174000C2DC00203FB0BDE8F08F0DAC0DF106010A
:1017500009F15C05224652F8043F002BB8BF0F3355
:1017600002311B1195420B80F5D14846FFF772FFFD
:10177000002254F8043F216EA542A3EB01031A4452
:10178000F7D1124B83FB0213D217C2EBA31404F55B
:10179000994330334CF662129342D2D802AE3546AA
:1017A0000FCD4D4508F1100806F1100648F8100C51
:1017B00048F80C1C48F8082C48F8043CEFD1019B71
:1017C00001201C803FB0BDE8F08F00BFABAAAA2A61
:1017D0002DE9F04FADF2146D0446914603938D1C34
:1017E00003AE0DF20C67B5F9001035F9020CFFF7E6
:1017F000A9FA46F8040FB74205F10405F3D1002118
:10180000484620220BF040FD0DF16C0A4FF6FF73A5
:10181000002104EB44060293304DDFF8C4800191AF
:101820005346F600A9F1040940F694578A469B46B0
:10183000ABF15C00FFF70EFFABF160004FF0000C66
:1018400050F8043F026E5845A3EB02039C44F7D1C5
:10185000BCF1000F31DB4FEA9C1007FB00F0400D9C
:1018600004FB00F006EB1020C9F80400BAF1000FE9
:1018700003D0D9F8003083422AD959F8043F4344B1
:10188000002BB8BF5B42AB4204D21D460123CDF80A
:1018900008A001930AF101021FFA82FABAF1080FB7
:1018A0000BF1C00BC4D1019911B1DDE902231A80FB
:1018B00008460DF2146DBDE8F08FCCF100008009F0
:1018C00007FB00F0400D04FB00F0A6EB1020CBE777
:1018D000002108460DF2146DBDE8F08F40420F0064
:1018E000E0D764FC2DE9F04F87B04FF0000E1646AC
:1018F00000EB41090290821ECDE90316A9F11209FD
:1019000035464FF0010BF246F4467046CDF804E040
:1019100005931EE040F2EE218B4240DC634500DD82
:101920009C464FF0000BBEF1000F0ABF4FF0000BBA
:1019300070460120CAF100084345019BB8BFA4EBE3
:10194000060ABB4238BF3B469145019305F10205AB
:101950002BD0568A32F8024F331B03F50048B8F5F6
:10196000803F2746D6D240F2EE218B422B8007DD06
:10197000178868B9634515DD9C464FF0010ED9E71D
:10198000514917889C45B8BF9C468B42D2DACAE7BA
:10199000634500DD9C4686464FF0000BCAE74FF0DA
:1019A000000BE6E74FF0010EC4E71946DDE90346F8
:1019B000059BBBF1000F03D1002007B0BDE8F08FFD
:1019C000BEF1000FF8D00028F6D0CDE9031C0027A7
:1019D000A4F11C09B84606F112043D463E46BE4637
:1019E000D34634F9021F019601EB810C01EB4C0147
:1019F0000A22A246A4463CF9026D02FB06113AF9FE
:101A0000026F02FB0611013AF5D1019EA942C4BF43
:101A1000F0460D468E42C8BF77460EF1010EC8BF94
:101A20000E46F145DDD14CF25034A542DDE9031CF0
:101A3000DA46C1DD254CA642BEDABCF1000FBBD0B0
:101A4000BBF1000FB8D0029C119D2488C900E400AE
:101A50004DB18C4205D2ACEB0402013A0A44B2FB10
:101A6000FCF2119D2A60109A002AA6D0002BA4D067
:101A7000029A08F10E0532F81520B4EBC20F4FEAB6
:101A8000C20606D2ACEB0404013C3444B4FBFCF4C3
:101A90002D1B029A0E3732F81720B1EBC20F4FEA16
:101AA000C20405D94A1E5244121BB2FBFAF2BF1AF5
:101AB00055EA070280D4BD423FF77EAF109A7F1BE4
:101AC00017601D6079E700BF12FDFFFFB03CFFFF0C
:101AD0002DE9F04F204C93469A46851E8A1E04F14C
:101AE000E2074FF000084FF41E6604F1E40935F8F0
:101AF000021F32F8023F994222D0217809EBC1013E
:101B00004B8833B34968002001EB830347F6FF7E1F
:101B100051F804CB1FFA8CFCE64528BFE646604529
:101B200038BF60468B42F3D1400080B24FEA4E0E80
:101B300080451FFA8EFE38BF8046764528BF764620
:101B40000134BC42D3D1ABF80060AAF80080BDE8F4
:101B5000F08F4FF6FE7EF0E72CE100081149D1F836
:101B60008C20D06810F0400001D0002070474FF06A
:101B7000FF3310B4D360CC6ED3685B060FD4032858
:101B800003D10CE0D368580608D4CB6E1B1BB3F509
:101B90007A7FF7D9032081F8AD00EDE700205DF8EA
:101BA000044B704778000020094A0A4BD2F88C1089
:101BB000CB60D06E04E0D36E1B1AB3F57A7F04D8E5
:101BC000CB689B06F7D5002070470320704700BF05
:101BD000780000205FFF030008B5114BDA6822F09F
:101BE0008002DA609A68920603D4FFF7DDFF88B9B5
:101BF00008BD9A6822F020029A60FFF7D5FF18B15D
:101C0000084B032083F8AD00054A936843F0200396
:101C1000936008BD034B032083F8AD0008BD00BFEF
:101C20000028004078000020F0B5614C94F8AC30FA
:101C3000012B00F0BB80D4F88C100223012284F821
:101C4000AC2084F8AD308B6813F0400C18BF90F8CE
:101C500003C003780CBF80F803C04FEA8C5C092BEB
:101C600009D900220A3BDBB2092B02F10102F9D8A3
:101C700043EA0213DBB21A044378092B09D9002581
:101C80000A3BDBB2092B05F10105F9D843EA05133C
:101C9000DBB28678092E4FEA032309D900250A3ED4
:101CA000F6B2092E05F10105F9D846EA0515EEB29E
:101CB00090F824E0BEF1090F0DD90025AEF10A0E0F
:101CC0005FFA8EFEBEF1090F05F10105F6D84EEA66
:101CD00005155FFA85FE4569076A3D4345EA0C052F
:101CE0002A4313433343456843EA0E62C3691D43E5
:101CF000836ACA20486253204862B3F5807F8B68AC
:101D000037D023F400738B60CB68DBB263F42073AD
:101D1000CB60E06E04E0E36E1B1AB3F57A7F1ED849
:101D2000CB689B07F7D50A628D648B6843F4007318
:101D30008B608B6843F400538B601E4B1A68002045
:101D400042F4802284F8AC001A609A6842F480223F
:101D50009A60FF2201234A6284F8AD30F0BDFF2271
:101D600003234A6284F8AD30002384F8AC300320AA
:101D7000F0BD23F480738B60CB68DBB263F4C07377
:101D8000CB60E06E04E0E36E1B1AB3F57A7FE6D811
:101D9000CB68DE07F7D5CA614D648B6843F4807366
:101DA0008B608B6843F480538B60C6E70220F0BDE4
:101DB00078000020000401402A4A0346006890424F
:101DC00070B43BD8284A294C14210244B2FBF1F2EA
:101DD0009200022183F8251001689D689E691C64A9
:101DE00021F4FF4C59695A642CF0700C294341EAE4
:101DF0000C01314341F08001B5F5804F016014D0F2
:101E0000596802F01C020F2090409140174A9442FA
:101E10006FEA00001AD0D2F8A8442040C2F8A80403
:101E2000D2F8A8040143C2F8A81400200122D86304
:101E300083F8240083F8252070BC70470C4A0D4CB1
:101E400002441421B2FBF1F29200C2E7D4F8A820B8
:101E50000240C4F8A820D4F8A8201143C4F8A81060
:101E6000E3E700BF07040240F8FFFDBF00000240A7
:101E7000F8FBFDBF00040240134BDB68C3F30223F1
:101E8000C3F1070C1A1DBCF1040F28BF4FF0040C5E
:101E9000062A88BFDA1E4FF0FF3303FA0CF398BF0F
:101EA000002221EA030393401B01421CDBB206D04F
:101EB00000F1604000F5614080F800337047024A4D
:101EC00082F82330704700BF00ED00E038B5104DB8
:101ED000104A2B68A2FB03239B09013BB3F1807FCF
:101EE00001D3012038BD4FF0E0220B495361F023AC
:101EF00081F82330002407230F2894611361F0D860
:101F000001464FF0FF30FFF7B7FF6960204638BD4C
:101F100000000020D34D621000ED00E010B41E4C14
:101F200094F8AC30012B33D0D4F88C100220CA23A3
:101F300084F8AD0001224B6253234B6284F8AC203D
:101F40008B6823F480738B608B6823F480538B60E1
:101F5000E06E04E0E26E121AB2F57A7F0ED8CB681A
:101F600013F00103F6D00020FF2201234A6284F817
:101F7000AC0084F8AD305DF8044B70470320FF22BD
:101F80004A6284F8AC3084F8AD005DF8044B7047C9
:101F900002205DF8044B7047780000200CB4F0B5C7
:101FA000ADB032AB06AE53F8042B059304460D4694
:101FB000304696210BF0FEFA9528C4BF1B4BCDF896
:101FC000AA301B4B1B49DF6EA1FB07311A4BA3FB49
:101FD0000723980B194BA3FB07234FEA931C184BBD
:101FE0004FF47A7202FB1C77A3FB00E25209042C27
:101FF000C2EB0212A0EB8202A3FB0CE398BF1148D4
:1020000000974FEA531394BF005D3F20C3EB0313C7
:102010000190CDE90256490DACEB83030A480BF061
:10202000A3FA2DB0BDE8F04002B070472E2E2E006E
:1020300078000020B17C219573B2E745D34D621042
:102040008988888814210108F0200108F8B516460F
:102050000D464FF4E272014618461C460BF040FA5A
:10206000B6F8581021B196F85E30191E18BF01213C
:10207000012396F85B2084F8C6312B4684F8C521ED
:1020800033F8262B84F8C411A4F8C82105F15601B1
:1020900004F5E5721F685E689868D3F80CC0C2F852
:1020A0000CC010338B4217605660906002F1100232
:1020B000F0D1B5F85630A4F8FA3105F1580604F518
:1020C000FE7E05F18807B446BCE80F00BC450EF162
:1020D000100E06F110064EF8100C4EF80C1C4EF8BF
:1020E000082C4EF8043CEED1B5F88830A4F82C3218
:1020F00005F18A0304F22E24BA35186859689A68E3
:10210000DE68E6601033AB4220606160A26004F1DB
:102110001004F2D1F8BD00BF2DE9F04F2DED108B6A
:102120009BB090F85E401D4690F85C300893042CFC
:10213000B0F8583003938046894616461AD8D0ED39
:10214000147AF5EEC07AF1EE10FA00F1F88190F809
:102150006630002B00F0978290F85B30002B00F087
:102160009282024C024A059407E000BF78000020EA
:1021700060210108C74CC84A0594D4F88030C7498B
:1021800000209847D8ED157AD4F8B030009307EEC8
:10219000103AF5EEC07AF1EE10FAB8EE478A40F345
:1021A000D281C8EE278AF6EE007A78EEA78A039BE2
:1021B000002B00F0A88198F85E30049398F85A300C
:1021C000002B40F0A78198F86020022A41F042815C
:1021D00098F85E40012C00F0ED83002422463499EB
:1021E0000C71A6F8AC21002B00F0998198F85F30B3
:1021F000012B00F01184022B00F0F883002B40F03B
:10220000E98301231A46F384328598F86030012B64
:1022100000F0D983022B00F0D583002B00F014844A
:10222000059B9F4AD3F880309C4900209847B9F11C
:10223000000F00F0788100230093B9F8E410B9F89A
:1022400008307180B9F8E610B180B9F8E210318039
:10225000B9F8E810F180B9F8021031819B00B9F8A3
:10226000041071819BB2B9F80610B18103F13002FC
:10227000B9F80A10F18192B2B9F8201031825F2AC0
:10228000B9F82210718240F2F2818649A1FB020165
:10229000890901EB4101A2EB411189B200201A46E4
:1022A00004460B460121F2820322B382728300238B
:1022B000009A7384B483F083318331846B8001236B
:1022C000C5F80A30002A00F06A870027CDE90177B7
:1022D00006F13E039FED749A9FED74AADFED779AA5
:1022E000CDE90696B34605F10E0A44461E46049A09
:1022F000FBB29A4200F22A810023AAF80030AAF821
:10230000083033800137042F0AF1020A06F1020671
:102310000BF1560B04F11404E9D1039BAA89DDF8F3
:1023200004E012FB03F26B8992B213449BB2DDE925
:102330000696591C012089B20090B6F8AC0101281C
:1023400004D1DDE9020404FB00F00290029FB8F81A
:10235000640098F863C098F862B04FF6FF74A74223
:1023600028BF27464408A4F1030A98F86640A6F857
:102370009EB18CF0010C0338A6F8A6C1A6F8A47192
:10238000A6F8A0E1A6F8A801A6F8AAA1AA81AB80A8
:10239000E980002C00F02B81413399B240240123C5
:1023A00029802C81A6F8C031B9F1000F03D0B9F80B
:1023B0000C30A6F8C231009B002B40F04281349AC9
:1023C00098ED145A00231360089BA6F8B231039BC2
:1023D000012B40F23381B8F85830023B01229BB206
:1023E0009FED336ADFED335A98F85A10F1EE007A18
:1023F000C8EE066A68EE277A68EE255A87EE867A76
:10240000C5EE867AB6EE006A76EE866A37EE067A12
:10241000FCEEE66AB5EE405AD8ED155AA6F8AE3194
:10242000F1EE10FA16EE903A77EE867ABCEEC77AA5
:10243000A6F8B02114BF01220022FCEEE77A328711
:1024400098F85B20A6F8B43117EE103AA6F8B6312A
:1024500017EE903AF5EE405AA6F8B831009BF1EE2F
:1024600010FA14BF01200020002B40F0C2803186FA
:102470007286708598F861300F4A0098C6F8BA21C4
:102480000121B184A6F8BE311BB0BDEC108BBDE8B4
:10249000F08F00BF780000201C21010838210108BE
:1024A0005C220108ABAAAAAA2549123E8FC2753D3B
:1024B0000024744900009643FF0701080000000053
:1024C000B5EEC07AF1EE10FA00F1158398F85A20B3
:1024D000002A00F01383B5EE407AF1EE10FA05D130
:1024E000F5EE407AF1EE10FA40F0C9835FED0D8A07
:1024F000059B754AD3F88030744900209847039BA8
:10250000002B7FF458AE039B049398F85A30002BAD
:102510003FF459AE349A00231371A6F8AC31B9F1E7
:10252000000F7FF488AE0123A5F802906B81CE46A0
:1025300002214A46CDF80890CDF80090FDE6644CA3
:10254000644A059419E6DFED648A30E6012333809E
:1025500098F85C90228940F2FF3340F2FF11B9F104
:10256000000F18BF0B4652B39A4228D8A27B237C97
:1025700042B1022B06D1059B584AD3F88030DDE9E1
:10258000069622E0E07B002840F04982012B00F013
:10259000AF80059B524AD3F880304C490090DDE96A
:1025A00006969847DDF804E0039BAA8912FB03F224
:1025B0006B8992B213449BB2591C89B2BDE6059B4C
:1025C000484AD3F88030DDE9069640490020984714
:1025D000039BAA89DDF804E012FB03F26B8992B237
:1025E00013449BB2591C002089B20090A5E62346F3
:1025F000D6E6B5EE405AF1EE10FA0AD0C8EE057AEA
:1026000077EE867AFCEEE77A17EE903AB3871B0CEA
:102610007387002361F30F03F5EE405A62F31F4303
:10262000F1EE10FA708533633FF424AFFCEEE87AE4
:1026300017EE903A1A0CB285F3851BE70022134679
:10264000CEE698F85D30072B15D8274A9FED229AE1
:10265000134493F81839A6F8A231349B83ED009AFD
:10266000049B002B40F04D8298ED145AACE60320F9
:102670000124002117E6349A98ED145A00231360C0
:1026800000230093A0E6012C40F2EA8198F80F1095
:102690004246012303E00133A34200F0E1810846F2
:1026A00092F82310814202F11402F4D2084F0F4A2B
:1026B000D7F88040054905970020A047D8ED157A46
:1026C000D7F8B03062E500BFC02101083821010809
:1026D000780000204C210108000000008C22010835
:1026E000B82201087C220108A0E000088C21010822
:1026F0006FF00B030993E288A3880A92182A0093CB
:1027000040F29E8202EB820303EB031303EB0323ED
:1027100002EB4303C3F3CC0242EA43339BB240F6DD
:10272000AA22934200F2DF82B24B0A9AA3FB022351
:102730001B090E93013B9BB215935C230D93182349
:102740000B930098002840F0E484059BAA4AD3F834
:102750008030AA499847B9F1000F00F0CD844FF0BE
:1027600000090222009B099913FB02F292B2009227
:10277000226811440A460C910A99013B01FB03238C
:10278000099302F5C34328334CF25032934208D9DF
:10279000059B9B4AD3F880309849002098474FF01A
:1027A0000009099B03F5C34328334CF2503293428E
:1027B00008D9059B934AD3F8803090490020984768
:1027C0004FF000090C9A002AC0F246838E4880FB25
:1027D0000230D217C2EBA00000B2099B002BC0F25E
:1027E0002F83894981FB0331099BDB17C3EBA101CF
:1027F000119309B280B2091A0C9B0F90824880FB9A
:1028000003C0C2EBA00288B209B20E9B1091B0FBCC
:10281000F3F0411C0A901FFA81FE0B981821B1FBBE
:10282000F0F30E930C9B02EB4202B3EBC20200F1F9
:10283000008313B2139393B20C93099A7248119BBD
:102840000B9980FB020CC3EBAC0303EB430C0C9B1A
:10285000B3FBF1F001FB103081B2B2EBCC03099174
:1028600000F104831AB219929BB20E9A0B98511E72
:10287000099A89B21891BEF1010F11FB002189B2AA
:1028800000F0FA82099A0C98824240F0088399423B
:1028900000F05C8400230122139316921493129289
:1028A0000E930C9B9A00099BABF882209B00ABF81F
:1028B0008430B9F1000F40F0FE826C231793362369
:1028C0000C937D223D234FF00009ABF87C300F9B29
:1028D000ABF87A200C9A1099C3F1290313441AB269
:1028E0001192521A9BB2292A0F9308DC059B474A82
:1028F000D3F880304149002098474FF00009119BE0
:10290000179A934208DB059B414AD3F880303B4934
:10291000002098474FF000090D9B2C2B00F21382EA
:102920001E2B40F2EC831E3B0F229BB20D92ABF8A4
:102930009A30159B0C99ABF89430139BABF87E1032
:10294000ABF88E300F990A9BABF880100D99ABF85D
:102950009610ABF89820002B40F0D381149B002BED
:102960000E9B08BF00230E93129B002B00F0E18307
:10297000099A199B9B1A0B9A93FBF2F39BB2169A36
:10298000ABF89220ABF88C300E9AABF8882000237D
:10299000ABF89030ABF88A300A9BABF88630B9F1CF
:1029A000000F40F0C382CDF80090DDF804E0DDE9CF
:1029B0000696F9E598F81020013A012A7FF60DAC49
:1029C00022460CE400237363B9F1000F42D00123C7
:1029D000009332E4059B0F4AD3F88030074900206A
:1029E0009847B9F1000F7FF426AC9CE500231A4606
:1029F00009E400BFABAAAAAA0423010838210108F0
:102A00005023010864230108ABAAAA2A98230108CD
:102A1000B82301083C2201080022FFF7F4BB013B68
:102A2000042B00F23F8501A252F823F0F1260008A2
:102A3000772C0008412A00086F2C0008412A000862
:102A40006FF00C03099356E64FF001137363B9F16D
:102A5000000FBCD100236B800123C5F80A3034E499
:102A6000BB4B98ED157A0593D3F8B030009306EE82
:102A7000903AB5EEC07AF1EE10FAB8EE668A7FF7BA
:102A80001FADC8EE078AF6EE007A78EEA78A18EE38
:102A9000900A0AF051FA59B1059BAE4AD3F880303A
:102AA000AD4900209847039B002B7FF484AB2BE5B6
:102AB00098F85A20002A7FF41BAD039B98F85F100A
:102AC000002B98F8603014BF2046002099420490F3
:102AD00008D9059BA14AD3F880309F490020984728
:102AE000FFF76CBB022B00F0BF84349B1A71A6F871
:102AF000AC21FFF77BBBDFED9A8ACDE7DFED988A4B
:102B0000DBE7B6F8AC31B6F8A421012B00F0CD809C
:102B100007EE902ADFED939AB8EE67AAB7EE089A0F
:102B2000F2EE02DA059B9FED900AD3F8B0300193E4
:102B300007EE903AB8EE67FA80EE0F0A08F0A2FBB3
:102B400098F86030022B2FEE00FA00F22381874ABA
:102B500098F85E1002EB830090ED00EAD0ED03FAE6
:102B6000002900F02981009BDFED7DEA9FED80BA0E
:102B70009FED80DADFED80CA9FED80CADFED80BA7D
:102B8000DFED80AADDF8149044460025227C052A5A
:102B900000F29280022A40F29A804FF0300A082711
:102BA000E27B052A00F27384DFE802F03E413B033A
:102BB0004744F0EE4B7A8FEE276A228998F85E1030
:102BC00002FB077702377F00BFB2A28801351434B9
:102BD0009FED6D7AC6EE076A07EE90AAF8EE677A67
:102BE00087EEA66A07EE907AF8EE677A87EEA67A05
:102BF00007EE902AF8EE677AEAB267EE277A9142FA
:102C000077EE867A77EEA97A77EE897A7EEEA7EA72
:102C1000BCD898ED145A002B40F0D2800093FFF7F7
:102C2000D3BBF0EE6A7AC6E7F0EE6C7AC3E7F0EE5B
:102C30004D7AC0E7F0EE4C7ABDE7F0EE6B7ABAE77A
:102C40000A9A002A4FD01823B3FBF2F302FB03F3D6
:102C5000C3F118039BB21593002B44D10A9A0B922F
:102C6000531E9B009BB20D9301230E9369E56FF0F9
:102C70000F0309933FE56FF0060309933BE598F8CE
:102C80005F2098F860309A427FF430AC039B349A0E
:102C9000DFED338A002B14BF234600230493002367
:102CA0001371A6F8AC31FFF7A1BAF0EE499AF0EE35
:102CB00049DAB0EE49AA35E7D9F88030334A2649D7
:102CC000002098474FF0180A0427002368E7012ADC
:102CD00005D0022AF0D14FF03C0A0A2760E74FF0F6
:102CE000480A0C275CE7059B294AD3F880301A492B
:102CF0000020984700230122CDE90D3215930B9255
:102D000029E5149B002B0E9B08BF00230E93129BFA
:102D100033B1099A199B9B1A0B9A93FBF2F39BB25E
:102D2000ABF88C300A9B169AABF89220013B0E9AB6
:102D3000ABF888209BB2189A0A930123ABF88A203B
:102D4000ABF8903028E600230D931A46EFE500BF5C
:102D500078000020AC21010838210108EC2101088D
:102D6000000000009A999D41F902154FC0E9000842
:102D70000000904300002043000000430000F043A7
:102D80000000C0430000404300247449E0220108D1
:102D9000F0220108059BC04AD3F88030BF490020CB
:102DA000984798F85E30002B00F0F481DFEDBCFA14
:102DB0000023B0EE6FEAD7E698ED145ADFEDB8EADB
:102DC0009FEDB87ADFEDB86A349BCFEE077AB1EEAB
:102DD0000C7AC7EEA65A2AEE07AA7FEE8EFACAEE42
:102DE000257A9FEDB27A77EEAD7AB0EE006A77EE93
:102DF000AE7A77EEAF7A27EE877A37EE067A77EEFD
:102E0000277A86EEA77AB4EEC57AF1EE10FA83ED52
:102E1000007A7FF5D9AA059BA54AD3F880409F493F
:102E2000FDEEC77A002017EE903AA04700230093EA
:102E30001AE402F1180083B20C9303B21393FCE47A
:102E400009999C4BC943A3FB0131099B6FEA1111FE
:102E5000DB1709B21193CDE40C9A964BD043A3FB38
:102E600000306FEA101000B2D217B6E403F1180078
:102E700002B283B21992F8E40C98824200F06381A6
:102E800000220A9216921292139A9B1A0B9A93FBA3
:102E9000F2F39BB20E930123CDE9133301E599427E
:102EA00000F05E810A9B013B9BB20A9301231693BB
:102EB00012930B46E8E7E37B052B00F21983DFE86A
:102EC00003F01A130C032B214FF486731793D623A8
:102ED0000C9340F21D128D23F7E4AC231793762355
:102EE0000C93BD225D23F0E48C23179356230C939F
:102EF0009D224D23E9E46C23179336230C937D2206
:102F00003D23E2E44FF4E67317934FF4CB730C9335
:102F100040F2DD12ED23D8E44FF4B67317934FF46B
:102F20009B730C9340F27D12BD23CEE4A37A172B42
:102F300000F20181092B00F21F81C3F109039AB24B
:102F40001523ABF84630069BABF84820002B00F069
:102F5000608203EB42029389ABF84A30237C013B49
:102F6000042B00F2A682DFE803F0BC7703AB8500F8
:102F70004FF000094FF400724FF4C063CDE909230C
:102F80004FF0C00E02204FF0040C08214A464B4679
:102F9000ABF86E000A98ABF856000998ABF870C011
:102FA000ABF85800ABF84E10ABF85010ABF852E04D
:102FB000ABF854E098F85D10B9F1000F00F00A8109
:102FC000002B00F00781022900F27C813A4B0B4470
:102FD00093F81439ABF85A30069B002B00F01D8192
:102FE0000023ABF85E300123ABF86A30069B00216A
:102FF000D3E932ECD3F8C4900B460EEB1140A0EBB2
:1030000009009042614480F2328201330F2BF4D1E7
:10301000069AABF86030D2E936E303EB83020EEB9D
:103020001242F92A00F3F181062003FB00F005218A
:1030300003E0BCF1FA0C40F1DC810A46013189B2AF
:1030400014290EEB104C1844F3D1059B1B4AD3F8FE
:103050008030DDE906963BE100214FF40073CDE9B5
:1030600009134FF0400E03204FF0020C0821962266
:10307000FA238DE74FF000094FF4F0504FF47853E6
:10308000CDE909034FF4F86E02204FF00B0C082134
:103090004A464B467CE700BF5C2201083821010804
:1030A0000000000000002043002474490AD7233C9C
:1030B00034240108ABAAAAAAA0E000080824010849
:1030C0004FF000094FF4C06C4FF46063CDE909C3C1
:1030D0004FF4E07E02204FF0060C08214A464B4692
:1030E00056E7069B9B8C0422082BCBF86E205DD9FB
:1030F000DDE90696FFF76CBA0422FFF733BB0D9BA0
:103100000F2B32D9A3F10F020F230D9392B200239C
:103110000DE4B9F1000F2CD1237B002B35D0059B9A
:10312000C64AD3F88030C649484698470422FFF77C
:1031300019BB0A9B23E4059BC24AD3F88030DDE922
:103140000696FFF742BA99427FF49AAE0023CDE982
:103150001333CDF828E0169312930E93FFF7A1BB1B
:103160000023169312930B468EE600221346FFF7B8
:10317000DEBB0222FFF7F6BA102B94BFC3F11E0389
:10318000C3F117039BB20022DBE64FF001090422D2
:10319000FFF7E8BA98ED145A0093FFF715B90098B5
:1031A0000290864602210246FFF7C7B8ABF84E30C0
:1031B000ABF8503040230022ABF85230ABF854301B
:1031C0004FF40073ABF85630ABF8582098F85D1008
:1031D00013469146072975D89B48014491F8181960
:1031E000ABF85A100699C1B10021ABF85E10B9F1E5
:1031F000000F40F08480ABF86A90ABF86090ABF8B9
:103200005C90ABF86290ABF86890ABF864904A467B
:103210000023ABF86620ABF86C302389E27AABF878
:103220007620012B68D0023B9BB20121ABF87230B3
:10323000A37BABF84C3083F00103ABF87410ABF810
:1032400078300099AB89AAF800300B44AAF808102E
:10325000AB81A388217C06EE903A2389012907EEF1
:10326000103ABBF86E302AD0022914BFF0EE695A2A
:10327000F0EE4A5A01339BB207EE903AF8EE677AC5
:10328000B1EE006AF8EE666A67EE867AB8EE477AC3
:1032900067EEA67A0198029B67EE877A014667EE91
:1032A000A57A002808BF114667EE897A0191FCEEE5
:1032B000E77A17EE902A13440293FFF723B8DFED65
:1032C000635AD7E7059B624AD3F88030DDE906965A
:1032D0005B4900209847039BAA89DDF804E012FBB4
:1032E00003F26B8913FA82F39BB2591C002092B24D
:1032F00089B20090FFF721B80023194696E7012113
:10330000ABF86A10002B7FF471AEABF86030194651
:103310001A46ABF85C200022ABF86220ABF86820BC
:103320004BBBABF864301A4602EB0109069AD2E9AE
:103330002FE1CE451DDA0846002202F1010C099268
:103340001FFA8CF2162A3FF480AE0EEB104CBCEB49
:10335000090C0844F1D4002B7FF45AAF099800FB04
:1033600001F10EEB1143A9EB03039C45C8BF0246D4
:103370004EE700224CE7069BD3E9349C894546DAA8
:10338000134662469E4601339BB2162B3FF45DAE58
:1033900009EB1240401A6244F4D40CFB0EF209EB24
:1033A00012428A1A9042D8BF9E460699BBF8602006
:1033B000D1F8CC30BBF85C00099002FB03F3D1F8E4
:1033C000C820ABF864E002EB13420B46D1F8C410FE
:1033D000521AD3E936303FF538AE09990CFB0EFE90
:1033E00000FB01F103EB114309EB1E401918FA230E
:1033F0009AE702FB03F30EEB1343C3F1FA039C4578
:10340000D8BF0A46FA210B4683E70522FAE796461B
:10341000CBE7069BABF84A30237C013B042B48D812
:1034200001A252F823F000BF73340008593000089D
:10343000712F0008C13000087530000818230108FA
:1034400038210108D0230108A0E00008CDCC4C3E73
:10345000E8230108349A1371A6F8AC31B9F1000FD2
:103460007EF4E9AEFFF75FB80123FEF7B3BE9BB26F
:10347000CEE54FF000094FF40073CDE909934FF00A
:10348000400E0420CC4602214A464B4680E5D9F83E
:1034900080301C4A1C4900209847DFED1C7A00232D
:1034A000FFF789BB059B1A4AD3F88030DDE9069601
:1034B0000EE7059B164AD3F8803013490020DDE95A
:1034C00006969847AA89039BDDF804E012FB03F2F5
:1034D0006B89562113FA82F301FB076100209BB22E
:1034E000C1F86E00591C92B2009089B2FEF725BF58
:1034F000059B044AD3F88030034900209847FFF722
:10350000DCB900BF8C23010838210108000000430A
:10351000E02201080138C0B2042822D808B52A4B9D
:10352000DFED2A6A03EB800393ED006AC6EE267A8C
:10353000B3EE087AF4EEC77AF1EE10FA2DED028BB5
:1035400011D4FCEEE77A224B17EE902A90B2A3FB3F
:103550000030000900EB4000C00080B2BDEC028BDF
:1035600008BD00207047F5EEC07AF1EE10FA1DDDBF
:1035700087EE278AB0EE480A07F084FEDFED157A61
:1035800070EE277A1820B4EEE78AF1EE10FAC4BF85
:10359000F7EE007A30EE270ABDEC028BBCEEC00AD3
:1035A00010EE103A9BB2B0FBF3F008BDFCEEE77AE8
:1035B000182217EE903A9BB2B3FBF2F303EB4303EE
:1035C000D80080B2CAE700BFA0E900080AD7233BB1
:1035D000ABAAAAAAACC5273708B52DED028BB0EE71
:1035E000408A07F04FFEDFED087A70EE277AB4EEDE
:1035F000E78ABDEC028BF1EE10FAC4BFF7EE007A59
:1036000030EE270A08BD00BFACC52737F8B595696D
:103610002B7802EB43030F46B3F84460536901462D
:103620006888144603EB4000720009F03FFF6B8886
:10363000E26D1E4413786E8003B93B791370F8BDB8
:103640002DE9F04F2DED048B038F8DB00546002B37
:1036500000F01581B0F84030428F0469B0F850E0B6
:1036600007925B000293838FC28F34F913300B9261
:10367000BEF1000F00F003811B010893D0E9122373
:10368000D718B0F85200B5F84230DFED8A8ADFF87B
:1036900030B20193FE434FF00008F6EE009A099015
:1036A000C1460496CDF828E0834B83FB0710F91739
:1036B000C1EBA00101EB4100A7EBC00000281FFAFD
:1036C00089F886B2C0F2EB80002FC0F2F180089B2F
:1036D00009B2090481FB0301002906DA4FF6FF7CD9
:1036E00010EB0C0C604641F10001079B000C40EA16
:1036F0000140991934F91110A0EB011007EE900A5E
:10370000B8EEE79A29EE289AB0EE490A08F050F888
:10371000B0EE408AB0EE490A07F030FD019B002B65
:1037200000F0A2800B9BB5F844A01E4404EB4603B6
:103730000020CDE9059703930646009059E095F8DF
:1037400038C0BCF1000F4BD007EE101A07EE903ACC
:10375000F8EEC76AF8EEE77A26EE806A27EE887AF6
:1037600066EE886A37EE467A67EE807AB5EEC07A02
:1037700077EEA67AF1EE10FA4CBF37EE697A37EEA3
:10378000297AF5EEC07AF1EE10FABDEEC77A4CBF99
:1037900077EEE97A77EEA97A17EE103AFDEEE77A3E
:1037A0005B4517EE901A47F6FF70B8BF5B46834241
:1037B000D5F85490A8BF03465945B8BF594699F863
:1037C00000E08142A8BF0146BEF1000F04D117EE10
:1037D000100A98425BD0E64689F800E01BB209B2B5
:1037E000A352009B798053440093019B01369E4273
:1037F00038D0009B95F839C008EB5302029B92B277
:1038000003EB8202A718A35EB7F90210BCF1000F08
:1038100095D00398B0F800C00CF01F0E0EF1300EDA
:1038200003FB0EFE4FEA9C23203BCCF3441C01FB20
:1038300003F3BEF1000F0CF1300C01FB0CFCB8BF20
:103840000EF13F0E002BB8BF1F334FEAAE1EBCF186
:10385000000F0EEB6313B8BF0CF13F0C1BB24CF31F
:103860008F116CE7DDE90597099B049A1F44D31A71
:1038700004930A9B09F1010999457FF415AF286863
:1038800043680DB0BDEC048BBDE8F04F184717EE50
:10389000900AB0EB010E18BF4FF0010E9CE71836EE
:1038A000B6B2049B054AA2FB03016FEA11110EE7B1
:1038B0000026F6E700008037ABAAAA2AABAAAAAA7C
:1038C0000080FFFF08B50138C0B2042898BF194B2B
:1038D0002DED028B98BF03EB8003B0EE408AB0EE73
:1038E000600A94BFD3ED008ADFED138A07F0B8FBBE
:1038F000DFED127A60EE277AF2EE040A77EE887A2C
:10390000B0EE600A77EEE87AC7EEA00A07F0D8FBBF
:1039100007F0B8FCDFED0A0A08F0ACF8F7EE000A91
:1039200008F08AF8BDEC028BBCEEC00A10EE103A2B
:1039300098B208BDD8E9000800000000000020424D
:103940000080FF43BFF34F8F0549064BCA6802F45E
:10395000E0621343CB60BFF34F8F00BFFDE700BFB2
:1039600000ED00E00400FA052DE9F041C16F0568A3
:103970009EB0044600295FD025682423E3672A68A7
:10398000636A22F001022A60002B40F0C380D4E970
:103990000402A368296803431343E0699E4A034372
:1039A0000A4013432B606B68E26823F440531343CF
:1039B0009A4A6B609542A369AA6800F0F180216A77
:1039C00022F430620B431343954AAB6095421BD0FF
:1039D000944B9D4240F0158103F5E633D3F88830CF
:1039E00003F00C030C2B00F20F81DFE813F0E00171
:1039F0000D010D010D0172010D010D010D012B01D4
:103A00000D010D010D016201874BD3F8883003F0E1
:103A10000303022B00F01681032B00F04A81012BD7
:103A200000F05781B0F5004F00F0CA81FCF7A2FD0D
:103A3000002800F018810AE180F878105C2207A8BD
:103A400009F022FC764B9D4200F0BF81754B9D42F0
:103A500092D1022707A80797FCF728FE0646002800
:103A600040F0DF81704B714D9A6D42F400329A65DF
:103A70009A6D02F400320492049ADA6C42F0010268
:103A8000DA64DB6C03F00103039307220323CDE91F
:103A90000032039903463A464FF090400F214FF011
:103AA000800806F019F8C5E92E76C5E93068C5E941
:103AB0003266C5E9346605F1B4065D4BC5F8B4302D
:103AC0003046FEF779F9002840F0AB816667102395
:103AD00005F1FC06C5E94208C5E94400C5E9460010
:103AE000C5F804313046534BC5F80071C5F8DC40C9
:103AF000C5F8FC30FEF760F90146002840F09181DE
:103B000026672620C5F82441FEF7B6F94A4B402225
:103B10005A6031E71E0705D56A68616B22F40042DE
:103B20000A436A60D80705D56A68A16A22F40032A0
:103B30000A436A60990705D56A68E16A22F480320F
:103B40000A436A605A0705D56A68216B22F480220D
:103B50000A436A60DF0605D5AA68A16B22F4805289
:103B60000A43AA609E0605D5AA68E16B22F40052BA
:103B70000A43AA60580609D56A68216C22F48012AB
:103B80000A43B1F5801F6A6000F00A8119067FF5CB
:103B9000FEAE6B68A26C23F4002313436B60F6E661
:103BA00022F4306213432049AB60D1F8883003F42B
:103BB0004063B3F5006F00F0F18000F2E880002B65
:103BC00000F02981FCF772FC00284CD0626802EBFF
:103BD0004203834218D8B0EB023F15D851080023A6
:103BE0000F464FF480761946E0FB0671384606F022
:103BF000E7FC124BA0F540729A4205D8074BD860FB
:103C000031E00F4B9D425AD00023C4E91A33012002
:103C10001EB0BDE8F08100BFF369FFEF00800040F7
:103C200000380140004400400010024078000020AD
:103C30006C0002408000024000E100E0FFFC0F0049
:103C400000480040B0F5004F794800F08B80636871
:103C500000EB5300B0FBF3F04FF6EF73A0F110024E
:103C60009A42D1D8E8606A687249002322F49042EF
:103C7000C4E91A336A60AA6822F02A02AA602A6894
:103C800042F001022A60C4F88430CE6E2B681A0715
:103C900027D42B685B073ED400232022E26784F8F8
:103CA0007830C4F88020184623666366B0E7302B6E
:103CB000AAD1B0F5004F55D04FF40040C7E75E4B96
:103CC000D3F8883003F03003202BBBD0EFD8002B83
:103CD0006DD0B0F5004F41D0FCF7E8FB0028C2D012
:103CE000B5E76FF07E4332464FF400112046FCF7F3
:103CF0007DFE0028CDD0236853E8002F22F08002FB
:103D000043E800210029F7D12023E367002384F84A
:103D1000783003207CE76FF07E4332464FF4800119
:103D20002046FCF763FE0028B6D0236853E8002F36
:103D300022F4907243E800210029F7D103F1080230
:103D400052E8002F22F0010203F1080040E80021B0
:103D50000029F3D12023C4F88030D7E7FCF7A6FB75
:103D6000002880D06268530803EB40034FF6EF71E0
:103D7000B3FBF2F3A3F110028A423FF645AF23F002
:103D80000F0292B2C3F342031343EB606BE7B3F548
:103D9000406F7FF439AF4FF4004017E7244815E730
:103DA0006A68616C22F4C0020A436A60EEE6B0F50C
:103DB000004F38D0FCF7CAFB00283FF454AF46E769
:103DC000FCF7D8FB0028CDD14DE7012307A80793C6
:103DD000FCF76CFC034620BB174A116E41F480418E
:103DE0001166116E01F4804106910699D16C41F083
:103DF0000101D164D26C072002F001020321059277
:103E00000190009102224FF4C0614FF09040059D57
:103E100005F062FEB0E5FCF799FB00283FF423AF04
:103E2000D4E6FFF78FFDFCF791FB00289AD11AE743
:103E30000024F4007800002000100240FEE700BFDC
:103E4000FEE700BFFEE700BFFEE700BFFEE700BFE2
:103E5000704700BF704700BF704700BF024AD36E73
:103E60000133D366704700BF780000200C4B0D492A
:103E7000D3F88C204FF480104861D168490503D4F1
:103E8000012283F8AD207047D168C9B261F4906116
:103E9000D1600120012283F8380383F8AD207047F8
:103EA0007800002000040140034B5A69120744BF08
:103EB00008225A61704700BF000401400148FCF726
:103EC000A7BA00BF440200200148FCF7A1BA00BF16
:103ED0008C0200200148FCF79BBA00BF2C01002097
:103EE0000148FCF795BA00BF74010020084810B4DF
:103EF000D0F85C32D0F8904299691A682CB1234608
:103F000000F517705DF8044B18475DF8044B7047D7
:103F10007800002070B5AE4CD4F84451EB692A68A3
:103F2000A96840F60F00034240F08780980602D54A
:103F3000960600F1F380D4F8A401012816D0D80227
:103F400002D5490200F1F4801E0605D4590602D5B7
:103F5000530600F1258170BD1006F7D5D4F8B031B5
:103F6000002BF8D0BDE870409A481847DE06E6D529
:103F7000D006E4D510232B62AB68B4F89C215B0615
:103F800040F14281D4F8B83119684B689BB2002BDC
:103F900000F09681934280F09381A4F89E310B68E3
:103FA0009E0644D455E8003F23F4807345E8003270
:103FB0004AB1D4F8442152E8003F23F4807342E828
:103FC00000310029F5D1D4F8442102F1080353E867
:103FD000003F23F00103083242E800310029F2D10A
:103FE000D4F8442102F1080353E8003F23F04003D2
:103FF000083242E800310029F2D12023C4F8C4314C
:10400000C4F8A411D4F8442152E8003F23F010036F
:1040100042E800310029F5D1D4F8B83193F82520D1
:10402000022A00F054810422DA6383F82410022368
:10403000C4F8A831B4F89E3170BD11F0010640F00B
:104040009E80654802423FF476AFD8070FD5D10570
:1040500040F1D68001212962D4F8C81141F0010154
:10406000C4F8C81199076BD5002E40F08C80580712
:104070007DD51E0700F1C1801E050AD5500108D567
:104080004FF400612962D4F8C81141F02001C4F84E
:10409000C811D4F8C81100293FF45DAF990602D5C4
:1040A000920600F1A080D4F8C821AB6802F0280283
:1040B00003F04003134300F000814648FCF766FC20
:1040C000AB685B067FF547AF05F1080353E8003F97
:1040D00023F0400305F1080141E8003262B1D4F851
:1040E000442102F1080353E8003F23F04003083263
:1040F00042E800310029F2D1D4F8B80100283FF499
:104100002AAF90F82530354A8263022B00F0BB803D
:104110000423BDE87040C363FCF7A4BCD4F8AC3101
:10412000002B3FF418AF04F5A270BDE870401847AB
:104130004FF480132B6270BDD1058BD4980722D425
:10414000590714D5002E94D004212962D4F8C8113F
:10415000180741F00201C4F8C8118DD50821296261
:10416000D4F8C81141F00801C4F8C81184E7190750
:1041700082D502F0200131433FF47EAFEEE7D8074D
:10418000DAD499072CD502212962D4F8C8115E0728
:1041900041F00401C4F8C811D6D41907DED46BE786
:1041A00055E8003F23F0400345E800324AB1D4F817
:1041B000442152E8003F23F0400342E80031002947
:1041C000F5D120220023C4F8C021C4F8B03170BD5D
:1041D00078000020BC01002020010004650A0008CE
:1041E0005E07B1D4D9E7D4F8AC31002B3FF45BAF14
:1041F00042489847D4F8445155E79006AED43BE77F
:1042000098073FF534AF9BE7B4F89E11B4F89E31A0
:104210009BB289B2002B3FF49EAE91423FF49BAE1D
:1042200055E8003F23F4907345E800324AB1D4F8D2
:10423000442152E8003F23F4907342E80031002902
:10424000F5D1D4F8442102F1080353E8003F23F0EC
:104250000103083242E800310029F2D12023C4F8DA
:10426000C431C4F8AC11C4F8A411D4F8442152E804
:10427000003F23F0100342E800310029F5D102236A
:10428000C4F8A83170BD0268436C116821F00E01BA
:104290001160116821F0010111600124026C03F02A
:1042A0001C0304FA03F35360002380F8254080F8D0
:1042B0002430BDE87040FCF7D5BBC4F8C83170BDF0
:1042C00093427FF448AE0B689D06D8D470BD1A683F
:1042D0001D6C106820F00E001060106820F00100C6
:1042E00010605A6C012002F01C0200FA02F26A60AF
:1042F00083F8250083F8241099E600BFBC01002054
:10430000034B5A69120544BF4FF400625A6170476B
:104310000004014010B5194C194AD4F88C304FF400
:10432000802151619A68D20402D5DA68D00509D497
:104330009A68910402D5DA68920513D4012384F8AF
:10434000AD3010BDDA68D2B262F4C0720121DA6019
:1043500084F83913FDF7E2FD68B9D4F88C3084F89D
:104360003903E5E7DA68D2B262F42072DA60012339
:1043700084F8AD3010BDFFF7E5FA00BF78000020EB
:1043800000040140034AD2F8883043F47003C2F8B5
:104390008830704700ED00E0F0B4C56F202D4AD1A1
:1043A0000C4601B112B90120F0BC70471946002536
:1043B0002123C0F88450C3678368294FA0F8502098
:1043C000B3F5805FFE6EA0F8522037D0B0F85220CF
:1043D000036892B2B2B1DA69120604D44A1C1DD144
:1043E000DA691206FCD504B314F8012B1A85B0F86B
:1043F0005220013A92B2A0F85220B0F8522092B264
:10440000002AE8D1DA69520604D44C1C1CD1DA69BE
:104410005106FCD52023C3670020C5E7FA6E921B26
:10442000914218D3B9B11A68D5E735F8022BC2F317
:1044300008021A85DBE70220F0BC70470369002BF5
:10444000C4D125461C46C1E7FA6E921B914202D3A5
:1044500009B11A68D6E72023C367F0BC0320704770
:104460007800002008B518B1074B02689A4208D0BE
:10447000064B074AD3F880300649002098470020B1
:1044800008BD012008BD00BF0FB037137800002021
:10449000801F0108981F0108B5EEC00ADFED0D7AF4
:1044A0009FED0D7AF1EE10FA54BF30EE270A37EE89
:1044B000C00ADFED087A70EE277AFCEEE77AF8EEB4
:1044C000677A30EE670A20EE070AFCEEC07A17EE34
:1044D000900A7047BD370635002474492DE9F04F26
:1044E00085B08246FFF7BEFF002800F0B381B74CCD
:1044F00094F88830012B40F2A7809AED150AD4F881
:104500008050B34AB349B5EEC00AF1EE10FA4BBF82
:10451000B14BB24BF1EE406AF0EE406AFFF7BCFFE0
:10452000DFEDAF7A019076EEA77A0220FCEEE77A13
:10453000CDED007AA84794F88830012B40F28480B2
:104540009AED160AD4F88050A64AA249B5EEC00AE0
:10455000F1EE10FA4BBFA04BA04BF1EE406AF0EE2B
:10456000406AFFF799FFDFED9E7A019076EEA77A19
:104570000220FCEEE77ACDED007AA84794F8883067
:10458000012B61D9BAF85C30D4F88050964A914931
:104590000220A84794F88830012B55D99AF85E304C
:1045A000924F934DD4F88060924A8A49002B0CBFF9
:1045B0003B462B460220B04794F88830012B43D964
:1045C0009AF85F30D4F880608B4A8249002B0CBF88
:1045D0003B462B460220B04794F88830012B33D954
:1045E0009AF86330D4F880507A49022B96BF834AF8
:1045F000834B02EB83034FF0020098BFD3F85C3982
:10460000804AA84794F88830012B1DD99AF8643065
:10461000D4F880506F49022B96BF784A784B02EB52
:1046200083034FF0020098BFD3F85C39764AA8475D
:1046300094F88830012B07D9D4F880509AF862306A
:10464000724A64490220A8479AF86230002B00F0B1
:1046500001810027DFF8E4B15E4E0397554694F8D8
:104660008820012A40F2EE80039BD4F880705A46DD
:1046700031460220B84794F88830012B40F2E080A0
:104680006B68634AD4F8807031460220B84794F8CA
:104690008830012B40F2D4802B895E4AD4F8807098
:1046A00031460220B84794F88830012B40F2C88088
:1046B0006B89594AD4F8807031460220B84794F883
:1046C0008830012B40F2BC80AB89544AD4F880700A
:1046D00031460220B84794F88830012B40F2B08070
:1046E000AB7B4F4AD4F8807031460220B84794F82B
:1046F0008830012B40F2A480EB7BDFF8F080DFF8FC
:10470000F090484AD4F88070002B0CBF43464B46CB
:1047100031460220B84794F88830012B40F290804F
:104720002B7C414AD4F88070002B0CBF43464B468B
:1047300031460220B84794F88830012B40F280803F
:104740006B7C3A4AD4F88070002B0CBF43464B4632
:1047500031460220B84794F88830012B70D9A97CE3
:10476000234A224BD4F88070002918BF1346022038
:104770002F4A3146B84794F88830012B60D92B7DF9
:10478000D4F88080013BDBB2042B96BF1B4A1C4B44
:1047900002EB8303314698BFD3F86839254A0220DB
:1047A000C04794F88830012B4AD9EB7CD4F880803C
:1047B000052B96BF114A124B02EB8303314698BF7B
:1047C000D3F87C391C4A0220C04739E07800002029
:1047D00070240108981F0108542401082435010899
:1047E000BD37063588240108A0240108602401088B
:1047F00058240108B8240108D4240108A0E00008C6
:1048000068240108EC240108082501082425010872
:10481000482501086C25010890250108B4250108E8
:10482000D8250108FC250108202601084426010896
:10483000682601088C260108B026010838250108E1
:104840009AF86230039A01329342039205F11405FB
:104850003FF605AF05B0BDE8F08F00BF08B518B151
:10486000074B02689A4208D0064B074AD3F88030BB
:10487000064900209847012008BD90F8620008BD55
:104880000FB0371378000020801F0108981F01081F
:1048900008B518B10E4B02689A4208D00D4B0E4A6B
:1048A000D3F880300D4900209847002008BD032927
:1048B00007D9084B0A4AD3F88030084900209847A6
:1048C000F3E701EB810100EB8100008908BD00BF27
:1048D0000FB0371378000020801F0108981F0108CF
:1048E000A01F0108F0EEC07AB0EEE07A2DE9F04F9B
:1048F000F4EE477AF1EE10FADFEDB96A48BFF0EE58
:10490000477A30EE607A67EEA67AB0EEC77A2DED80
:104910000A8BB4EEE77AF1EE10FA98BFDFEDB17AC8
:1049200087B094BF00261646F0EE60CA8A4698BF4C
:1049300070EEA7CA0546FCF7D9FCF0EE408A0446A3
:10494000B0EE6C0AFCF7D2FC052C22D005280CD066
:10495000A54A4FF00333012CCDE9043200F019824F
:10496000022C40F00C8201271FE04FF00333049328
:1049700003F18073A3F58173012C059300F0048289
:10498000022C00F01182032C14BF032702270420FD
:1049900014E0052800F001824FF00333049303F183
:1049A0008073A3F5817305930327012800F0E58147
:1049B000022800F0EC81032800F0ED810322C7F10A
:1049C00001031344DBB29A45C7F1030E964428BF96
:1049D0009A46013A05AB03EB070CD4B25FFA8EFEA0
:1049E00000230AE0022F00F0D680013301F8087C92
:1049F000DBB2621CD4B2A64517D01CF8017B03F1D0
:104A00001802B8420DEB020107F0FD02C0F09681DA
:104A10009A4540F29381012AE4D1621CD4B2013359
:104A2000A64501F8087CDBB2E7D10AF1FF339FED20
:104A30006FBA9FED6F9A9FED6FAADFF8D081DFED1F
:104A40006E9ADFED6EAA01930DF1100B0024CDF8E4
:104A500000A003961BF8017B3846FEF75BFD019B27
:104A6000A342824600F0DA809BF80030013BDBB2C3
:104A7000042B00F22981624A02EB8303D3ED007A12
:104A800077EEA77AF4EEE87AF1EE10FA40F3CE80F2
:104A900007EE10AAB8EE477AB0EE688A27EE097AD8
:104AA000002638EE078A0136B4EEE78AF1EE10FAF6
:104AB000B6B2F6D488EE090A06F0E4FBEB6BC8EE5A
:104AC000897AFDEEC08A77EE8A7A18EE902A12B2C1
:104AD00008EE902ABDEEE7CA1BB11A68424500F005
:104AE000F680DFF82C91474AD9F8803046490020FB
:104AF0009847EB6B13B11A6842455BD0D9F8803008
:104B0000404A414900209847EB6B1BB11A68424567
:104B100000F00881D9F880303A4A3B490020984794
:104B2000EB6B1BB11A68424500F00481D9F8803064
:104B3000344A354900209847EB6B95ED180A002B55
:104B400047D1D9F880302F4A2F4900209847F8EEF6
:104B5000E87AEB6B67EE897AF4EEE97AF1EE10FA17
:104B600040F19580013F18BF012733B11A684245D3
:104B700008BFA20078D0DFF89890D9F88030214A99
:104B80002149002098470134009AE3B2934274D23D
:104B9000F0EE488A5EE7AAEB0302D2B203F11801F5
:104BA000A242694403F10102FFF423AF01F8087C3B
:104BB000D3B21EE704EB840203EB820282ED01CA4A
:104BC000A2F80AA0A200224403EB820295ED180A83
:104BD00016811A6842452DD0DFF83490B1E700BF46
:104BE000000000340AD7233C010203040000000047
:104BF0000AD7233B17B7D138666646403333A34004
:104C0000A0E90008801F0108981F01080FB03713A2
:104C10007800002033334B4100009441F0EE6C7A71
:104C2000F4EEE87AF1EE10FA3FF732AFB0EE688AB0
:104C300000263FE7F8EEE88AF0EE480A384602938D
:104C400068EE898AFEF73EFE029B04EB840203EBCA
:104C50008202F4EEE98AF1EE10FA90814FEA8402C2
:104C600043D5013F18BF0127224403EB82020134E0
:104C7000D774009AE3B293428AD3039E9246002EE1
:104C800062D1504607B0BDEC0A8BBDE8F08FF4EE60
:104C9000EA7AF1EE10FA66D4B1EE0C7AF4EEC77A45
:104CA000F1EE10FA48D41FED257AF4EEC77AF1EE52
:104CB00010FA5AD41FED287AF4EEC77AF1EE10FA02
:104CC0004CBF0427052750E7F0EE4B7ADAE604EBF9
:104CD000840203EB820282ED01CA1775EB6BA2F826
:104CE0000AA023BBDFF8D49020E7F4EEEA8AF1EEC5
:104CF00010FA3ED4F1EE0C7AF4EEE78AF1EE10FAF7
:104D000035D4DFED2B7AF4EEE78AF1EE10FA32D4E7
:104D1000DFED287AF4EEE78AF1EE10FA4CBF0427B3
:104D2000052723E7142202FB0432A2F80AA01A681E
:104D30004245D7D1A20046E7022716E7BAF1000F95
:104D40007FF473AE002E9CD0ED6B0AF1FF34E4B219
:104D500021462846FFF79CFD411C224689B2284681
:104D6000FBF788FE8DE70127FFE60327FDE6022714
:104D7000FCE6012778E70327F8E600221FE6032C6C
:104D80007FF412AE022710E60027042016E6012267
:104D900015E6002709E6022211E6074B4FF0033221
:104DA000CDE904230420FFE50127042006E600BF27
:104DB00033334B410000944101020304780000208A
:104DC0002DE9F04FB0EEE07AF0EEC07AF4EE477ADB
:104DD000F1EE10FADFEDAC6A48BFF0EE477A30EE44
:104DE000607A67EEA67A2DED048BB0EEC77AB4EE4A
:104DF000E77AF1EE10FA98BFDFEDA47A89B00546A4
:104E00004FF00500B0EE608A14469ABF30EEA78AD4
:104E100000260126F0EE408A0191FEF77BFB032C71
:104E200009EE900A00F05581042C00F04881022C14
:104E300044D1974B04934FF07E530593631E9BB26E
:104E400004AF05AA38EE687A02EB83003B46D3ED47
:104E5000007A67EE877A77EEA87AE3EC017A9842D7
:104E6000F5D19FED8C9ADFF844B2039607EB840AE4
:104E70004FF00009B7EC017AB4EEE87AF1EE10FADF
:104E800012DDF8EE697AB0EE688A67EE897A00245E
:104E900038EE278A0134B4EEC78AF1EE10FAA4B2D4
:104EA000F6D41CBBF0EE488A5745E3D1039E6EB999
:104EB000484609B0BDEC048BBDE8F08F4FF07E533F
:104EC0000493002CBAD1A146002EF1D0019BED6BCA
:104ED0005C1E4C44E4B221462846FFF7D9FC411C35
:104EE000224689B22846FBF7C5FDE1E788EE090AAC
:104EF00006F0C8F9019AEB6B4A445FFA82F8BDEEFE
:104F0000C00A10EE102A12B202921BB11A6862494E
:104F10008A4246D0614E6249D6F8803000205A4617
:104F20009847E86B034618B15B4902688A426AD029
:104F30000020D6F880305A495A469847E86B18B195
:104F4000554B02689A4277D00020D6F880305449F9
:104F50005A469847E86B21464246FBF78BFDEC6BBF
:104F600095ED180A1CB123684B4A934240D04B4E32
:104F70004B49D6F880305A4600209847EC6B1CB15C
:104F8000454B22689A4274D0D6F8803044495A463C
:104F90000020984709F10103F0EE488A5FFA83F98F
:104FA00082E7B8F1030F40F283803C4E3D4AD6F8C9
:104FB00080303B4900209847EB6B002BB8D01B6832
:104FC000354A9342B4D1D6F88030364A344900206D
:104FD0009847EB6B002BB7D01A682F4B9A42B3D18E
:104FE0000020D6F880302F4A2D499847E86BB2E769
:104FF000B8F1030F2AD9294E2A4AD6F88030284919
:1050000000209847BAE7B8F1030FDCD8DFED216A3A
:105010009FED257AC8EEA67A142202FB083377EEBC
:10502000877AFDEEE77AC3ED017A18B11A4B026870
:105030009A4204D0194E87E7B8F1030FD0D8142351
:1050400019EE902A03FB08035A8184E7F0EE480A20
:105050000520FEF737FC142303FB084302469A8120
:1050600002980521FCF76CF9142303FB0844E07453
:1050700090E7B8F1030F34D9D6F88030094A0849CF
:105080000020984786E700BF000000340AD7233C81
:10509000A4703D3F0AD7233B0FB0371378000020A0
:1050A000981F0108A01F010817B7D138801F0108F9
:1050B000142202FB083205211175E86BA6E70B4BA1
:1050C00004930B4B05930B4B06934FF07E530793C2
:1050D000B4E6094B0493094B05934FF07E530693B6
:1050E000ACE602980521FCF72BF9BDE7D7A3F03E0B
:1050F0003333333F52B85E3F713D0A3F295C4F3F27
:105100002DE9F041174F1D46D7F8843013B1BDE8A3
:10511000F0411847FB6F4FEA4208002AF7D08F1E74
:10512000A8F1020406468E460C443A4632F802CFF5
:105130009CFA9CFCA242A2F800C0F7D142467146FC
:10514000304698470DB9BDE8F08137F8023F5BBAA9
:10515000A7423B80F7D037F8023F5BBAA7423B80BB
:10516000F3D1F0E77800002000B583B041F4A0410E
:10517000012394464FEA124EADF80010ADF802300C
:10518000042200236946ADF804E0ADF806C0FFF73D
:10519000B7FF03B05DF804FB10B50F4C8C46114609
:1051A000B4F8702003F1020EB2EB4E0F07D2D4F820
:1051B00080300A4A0A49BDE8104000201847013BE8
:1051C0004CF4A04C4B802EF00042A1F800C0BDE88A
:1051D0001040002394E700BF78000020D426010887
:1051E000F42601082DE9F04FADF5137D06460C4677
:1051F000154600214FF4E27221A89A4608F044F8BF
:105200003C22002112A808F03FF89D9B93F8C5713D
:105210006FB1664B664AD3F88030664900209847E4
:105220004FF0000840460DF5137DBDE8F08F0DF1FD
:105230001808CDF800800AAB21AA29462046FCF7C1
:105240006BFF0028ECD0414694F85B200AA812AB13
:10525000FBF784FC80460028E2D09E9ABDF85A30C5
:1052600013809F9ABDF85E3013809D9808AB0DF1B6
:10527000160221A9FCF72CFCBDF82020BDF8163041
:105280009A4206D29D9B2246294621A8FCF7DEFEC3
:10529000C8E743F2370308930322012308A93046E5
:1052A000ADF82470FFF72CFFBDF8243013F0C003D5
:1052B00010D1ADF8243043F23103089303220123C7
:1052C00008A93046FFF71CFFBDF824204AF6C0436A
:1052D0009A425CD19D9808AB0DF1160221A9FCF70A
:1052E000F7FBBDF81690BDF820B0D94508D9324B70
:1052F0000893304608A900230222FFF701FFC1E707
:105300002A499C9AB1F87010CDF808804FEA5A03E8
:1053100049088B4228BF0B460BF10201023BA1EB6F
:10532000090123F0010389B28B4228BF0B460432E6
:10533000AA469FB2904603941D4604E0B9441FFA62
:1053400089F9D94511D808AB4A46414621A80895A4
:10535000FBF784FF04460028F0D0089B9C9A4FEA94
:1053600059013046FFF718FFE8E7134B08935546FD
:105370003046A24608A900230222DDF80880039CDB
:10538000FFF7BEFEBAF1000F3FF44AAF7AE7074BD2
:1053900093F88820002A3FF443AFD3F88040074AAF
:1053A000074933460120A0473AE700BF78000020B4
:1053B00008270108D81F01088010010048270108AC
:1053C0006C270108F0B5012985B00646154633D093
:1053D000022925D143F2320301240027ADF8083019
:1053E0000322012302A93046ADF80A70ADF80C7013
:1053F000FFF786FEBDF80C306B8003F00702012A30
:105400002A802AD013F006001AD11849184AD1F878
:10541000804018490096A0470024204605B0F0BD02
:10542000124B154AD3F88040124903460020A0478A
:105430004FF440530024D0E743F233030C46CCE74B
:10544000023A012AE9D9094A0096D2F8804009496E
:105450000A4A3846A0472F80DEE70449084AD1F8B7
:105460008040044900963846A047D5E778000020E0
:10547000B8270108A0270108842701081C28010873
:10548000E82701082DE9F04F264C87B00026CDE92A
:105490000466B4F870808946002B3DD04FEA580866
:1054A000CDE90102A8F104080D461F464FF4004B58
:1054B000B246039325E0029BA5F800B033446B800D
:1054C000631EAB80A5F806A06200002105F108006C
:1054D00007F0DAFE294601980123221DFFF710FE8E
:1054E00004AA134603CA26446960286009EB4605EE
:1054F00059F81600696803C3039B9E42A7EB040793
:105500000AD2B845444628BF3C46B845D3D200E04D
:10551000013CE307FCD4CEE709F1080007B0BDE881
:10552000F08F00BF780000202DE9F04184B028B151
:10553000714B0D460168994204460AD06F4B704A80
:10554000D3F880306F4900209847002004B0BDE8B0
:10555000F0818388C1880B44B2EB430F07D2674BBD
:10556000694AD3F88030674900209847EDE7D0F8C2
:105570001080866898F8C67143F2370302930023BF
:10558000ADF80C300322012302A93046FFF7B8FD25
:10559000012FBDF80C300DD0022F0CBF8020C02091
:1055A000184009D1554B594AD3F8804058493346E1
:1055B000A047CAE74020F3E798F8C61102AA304690
:1055C000FFF700FF0028C0D0BDF80830032B0BD038
:1055D0004A4ABDF80A30D2F880404D4900934D4AFE
:1055E00033460020A047B0E72169BDF80A2091F8B2
:1055F000C431C2F300122A8033B191F8C631A3F14D
:105600000103B3FA83F35B096B80B1F8C831AB8057
:10561000AA1D01F5E57301F5FD77D3F800C05E68BA
:105620009868D3F80CE0C2F80CE01033BB42C2F823
:1056300000C05660906002F11002EED1B1F8FA316C
:10564000EB8605F1380201F5FE7301F50B77D3F80F
:1056500000C05E689868D3F80CE0C2F80CE0103324
:10566000BB42C2F800C05660906002F11002EED159
:10567000B1F82C32A5F8683005F16A0201F22E2348
:1056800001F25E21D3F800C05E689868D3F80CE0A0
:10569000C2F80CE010338B42C2F800C05660906034
:1056A00002F11002EED1E6882369A068A18893F880
:1056B000C621B6F5005F0FD8013A18BF012205EBED
:1056C000410112033346FFF7DDFE98B1301E18BFCB
:1056D000012004B0BDE8F081084C0F4AD4F88030B6
:1056E0000E4900209847D4F880300D4A0849002020
:1056F00098472AE7014CF6E70EB0371378000020F0
:105700005028010868280108702801088828010825
:10571000D81F0108A8280108D4280108F426010888
:10572000EC2801082DE9F04F9846184BDFF860B0DF
:10573000B3F8707083B0043A043F52087F08974270
:105740000C9E0190894628BF174601F1040A0025E6
:10575000741BBC4228BF3C4645EA0B02631E08EBA3
:105760004501A9F80020A9F802306200504607F070
:10577000B7FE254401980023A21C4946FFF7C0FC50
:10578000AE42E5D803B0BDE8F08F00BF780000203E
:1057900000C0FFFF10B1024B9B6F1847704700BF5E
:1057A0007800002010B520B10C4B02689A420446E4
:1057B00008D00B4B0B4AD3F880300B49BDE81040A2
:1057C00000201847406818B1C368984700236360F9
:1057D000002323602046BDE81040DBE70DB03713FF
:1057E00078000020182901083429010810B520B1DB
:1057F0000B4B02689A42044608D00A4B0A4AD3F877
:1058000080300A49BDE81040002018470069002395
:10581000236008B1FFF7BEFF2046BDE81040B9E79E
:105820000EB03713780000205028010868280108BE
:10583000704700BF70B5FEB04FF4E27204460D46EB
:105840000DA8002103AE07F01FFD00960DAA05ABC1
:1058500000212046FCF760FC08B97EB070BD94F8CA
:105860005B202B46314605A8FBF778F9F5E700BF2A
:1058700010B590B018B10C4B02689A4209D00B4B8E
:105880000B4AD3F880300B4900209847002010B015
:1058900010BD0C46043001A9FFF7CCFF0028F6D05C
:1058A000BDF804302360F2E70FB037137800002012
:1058B000801F0108981F0108F0B583B043F21C0255
:1058C000009201230E460024032269460746ADF8E4
:1058D0000440FFF715FCBDF8043013F4006517D140
:1058E00041F21B042B46694638460222009446F4D6
:1058F0000066FFF705FC38462B4669460222ADF8E4
:105900000040ADF80260FFF7FBFB012003B0F0BDE3
:10591000054B064AD3F88050054920463B46A84728
:10592000204603B0F0BD00BF7800002040290108E8
:10593000A0270108F0B5012983B00546144622D0FE
:1059400002290AD01C4B1D4AD3F880401C4903464B
:105950000020A047002003B0F0BD43F24603842797
:105960000026ADF800302846012303226946ADF831
:105970000260ADF80460FFF7C3FBBDF8040030B16E
:105980006CB90120E7E743F245038327E8E70A4BB8
:105990000C4AD3F880400A492B46A047DAE747F47F
:1059A00080573346694628460222ADF80070ADF8AC
:1059B0000260FFF7A5FBE4E77800002084270108D8
:1059C000A02701087029010810B582B001AA0121A1
:1059D0000446FFF7F7FC002201212046FFF7AAFF4B
:1059E000BDF80430022B09D00649074AD1F880409F
:1059F00006490020A047002002B010BD012002B0DF
:105A000010BD00BF78000020A4290108EC2901087E
:105A100008B5144B9FED140A2DED028B93ED2C8AE3
:105A2000B8EE488A08EE900A80EE080A05F02AFCD3
:105A300028EE008AF3EE087A28EE278AB7EE007A7D
:105A4000C7EE087AF8EEE88A9FED087A67EEA87A42
:105A5000BDEC028B67EE877AB6EE000A27EE800A6D
:105A600008BD00BF78000020F902154FC2F38E4D2B
:105A70002DE9F04383B01D4643F440534FF0000836
:105A8000BDF82840ADF80030894616466946012326
:105A9000032245F480550746ADF80280ADF8048036
:105AA000FFF72EFBADF80050BDF9045004FA09F4DD
:105AB0006C4004EA060255404346694638460222D5
:105AC000ADF80250FFF71CFB03B0BDE8F08300BF48
:105AD00030B583B00025294600957B23FF2204467C
