:020000040800F2
:1000000000000120B56A0008D1580008D558000842
:10001000D9580008DD580008E15800080000000029
:10002000000000000000000000000000E55800088B
:10003000E958000800000000ED580008F1580008D9
:10004000056B0008056B0008056B000801590008E6
:10005000056B0008056B0008056B0008056B0008C0
:10006000056B00083D590008056B0008056B00088A
:10007000515900085D590008056B0008056B000820
:100080006959000875590008056B0008056B0008E0
:10009000056B0008056B0008056B0008056B000880
:1000A000056B0008056B0008056B0008056B000870
:1000B000056B00080000000000000000056B000850
:1000C000056B000881590008056B0008056B0008E6
:1000D000056B0008056B0008A9590008056B0008AE
:1000E000955D0008A95D0008000000000000000008
:1000F0000000000000000000000000000000000000
:1001000000000000056B000800000000056B0008FF
:100110000000000000000000056B0008056B0008EF
:10012000056B0008056B0008056B0008056B0008EF
:10013000056B000800000000000000000000000047
:10014000056B0008056B0008056B00080000000047
:10015000056B0008056B0008056B0008056B0008BF
:10016000056B0008056B0008056B00080000000027
:10017000056B0008056B000800000000000000008F
:10018000056B0008056B0008056B00080000000007
:10019000BFF34F8F0549064BCA6802F4E062134370
:1001A000CB60BFF34F8F00BFFDE700BF00ED00E065
:1001B0000400FA0590F824C0BCF1010F3CD070B5E2
:1001C00090F825C00124A44580F824405FFA8CFEF5
:1001D00004D0002380F82430022070BD022580F86E
:1001E000255004680025C5632668456C26F0010685
:1001F000266005F01C05066C0EFA05F57560636057
:100200008368102B036B0BBFA260A160E160E2600A
:100210004BB1236843F00E032360236843F00103CE
:100220000020236070BD236823F00403236023684B
:1002300043F00A032360F0E7022070472DE9F04104
:10024000764C0023237094F86530012B0D46E1684D
:1002500008D0B1F5827F60D1D8B22369002B5CD180
:1002600004285AD1002D58D092B2002A55D094F8C3
:100270006430012B51D094F86530A6682564042BB6
:100280001CBF052384F8653001210023A36684F890
:100290006410A4F84620A4F84E20C4E9153373680E
:1002A000A4F8442023F4C043A564A4F84C20736050
:1002B0006369206EB3F5E06F31D8E36D99697368B7
:1002C000B1F5806F43F4805373607DD08369B3F5DB
:1002D000806F65D094F86530514A042B514B18BF9C
:1002E0001346514A0363514B4363514B18BF1346A6
:1002F000C362B4F84E304FF00008C0F838809BB2AB
:1003000006F10C012A46FFF755FF074660B1A36EC0
:1003100084F8648043F01003A366BDE8F08173683D
:1003200023F480537360D5E77368E06D43F00103F5
:100330007360B4F846300A46C0E90B77C0E90D7720
:1003400029469BB2FFF736FF00284AD133685B0687
:1003500021D5002384F86430736843F02003736070
:10036000736843F002037360E26E2378002BD4D1EC
:1003700041F2873109E072B6237803B930BF62B623
:10038000BFF36F8F2378002BC7D1E36E9B1A8B428C
:10039000F1D9BDE8F081336843F040033360D8E71A
:1003A000736823F480537360B4F84E3013F0010F78
:1003B00073681DD123F400537360B4F84E30C3F357
:1003C0004E03A4F84E3085E7D20773681BD423F49C
:1003D00080437360B4F84630C3F34E03A4F846304C
:1003E00074E7A36E84F8647043F01003A36694E787
:1003F00043F400537360B4F84E30C3F34E0301333B
:10040000A4F84E3066E743F480437360B4F8463096
:10041000C3F34E030133A4F8463057E778000020B9
:100420008D0900088909000859230008910900086E
:10043000AD22000870B4436C066C056831682C6806
:1004400003F01C0304229A400A420ED014F0040F59
:100450000BD02B689B0603D42B6823F004032B607E
:10046000036B7260CBB170BC184702229A400A42FB
:1004700015D014F0020F12D02B68990606D42B6801
:1004800023F00A032B60012380F82530C36A7260D1
:10049000002180F82410002BE5D170BC70470822A1
:1004A0009A400A42F9D02207F7D52A68416B22F018
:1004B0000E022A60012202FA03F300247360C26371
:1004C00080F8244080F825200029E6D070BC084739
:1004D000234A9368D26813F00C0305D00C2B32D05A
:1004E000042B36D11F4870471D4A1168090754BFB5
:1004F000D2F8942012681C4954BFC2F30322C2F3FD
:10050000031251F82200002BEDD0154BDB6803F0ED
:100510000303022B22D0154A032B08BF1046104BB1
:10052000D968DA68DB68C3F34163C2F30622C1F31A
:100530000211013300FB02F201315B00B2FBF1F268
:10054000B2FBF3F0704702F00302012ACCD0002086
:10055000DBE7082B054818BF002070470148DEE79D
:10056000001002400024F400407C000800127A00D1
:10057000064A074B92680749C2F3022213440868EF
:1005800093F8303003F01F03D8407047001002404A
:10059000407C000800000020064A074B926807498B
:1005A000C2F3C2221344086893F8303003F01F03EB
:1005B000D840704700100240407C00080000002036
:1005C000414A036830B4D468A40707D0D46804F063
:1005D00003049C4246D0012030BC7047022B52D00D
:1005E000032B49D0012BF6D112689207F3D5364C74
:1005F000E26822F0730213434268013A43EA0213AD
:10060000E360314C314A236823F080632360D56E68
:1006100003E0D36E5B1B022B39D823681B01F8D48F
:1006200083681B02002934D12169C56821F0784113
:1006300021F4FE4143EAC5630B43236122490B6861
:1006400043F080630B60D46E03E0D36E1B1B022B60
:100650001DD80B681B01F8D582690B691343002074
:100660000B61B9E7002CB6D0D3684268C3F302131C
:1006700001339342AFD1C4E71468A403B7D412681E
:100680005203A8D5B3E712685505A4D5AFE70320F8
:10069000A2E7012921690BD021F0C06121F4FE41BC
:1006A000194343695B08013B41EA43612161C5E7A6
:1006B00021F4C00121F4FE410B43016949080139CD
:1006C00043EA41532361B9E700100240780000205B
:1006D000F0B504680546200583B000F1F2800026DD
:1006E000A1034ED5A54B9A6DD20040F1F5800027AD
:1006F000A349A44A0B6843F480730B60D06E04E0F6
:10070000D36E1B1A022B00F200810B68DB05F7D5B4
:10071000A6BB9A49A86DD1F8903013F4407325D048
:10072000834223D0D1F890C0D1F8903043F4803385
:10073000C1F89030D1F8903023F48033C1F8903074
:100740001CF0010F2CF44073C1F890300ED0D2F899
:100750006CE041F2883C05E0D36EA3EB0E036345E9
:1007600000F2D380D1F890309B07F5D5834AD2F8B8
:10077000903023F440730343C2F89030002F40F0D0
:10078000DC80E10708D57D4A296AD2F8883023F059
:1007900003030B43C2F88830A20708D5774A696A79
:1007A000D2F8883023F00C030B43C2F8883063077B
:1007B00008D5724AA96AD2F8883023F030030B4377
:1007C000C2F88830A70608D56C4AE96AD2F88830A2
:1007D00023F440630B43C2F88830A00508D5674A6C
:1007E000E96BD2F8883023F440230B43C2F88830F9
:1007F000610508D5614A296CD2F8883023F440138A
:100800000B43C2F88830620608D55C4A296BD2F8DF
:10081000883023F440530B43C2F88830230608D5B0
:10082000564A696BD2F8883023F440430B43C2F830
:100830008830E70508D5514AA96BD2F8883023F4EF
:1008400040330B43C2F88830200323D4374661037A
:100850000FD54A4AE96CD2F8883023F040630B4345
:10086000B1F1006FC2F8883000F08380B1F1806F81
:1008700077D03E4662044DD43046230408D53F4A23
:10088000696DD2F8883023F080430B43C2F888307A
:1008900003B0F0BD394AA96CD2F8883023F0406328
:1008A0000B43B1F1006FC2F888304CD0B1F1806FCA
:1008B000CCD10121281DFFF783FE07460028C5D0B3
:1008C000C5E76F6CB7F5000F11D0B7F5400F13D027
:1008D000002F3DD0012603E79A6D42F080529A65C1
:1008E0009B6D03F080530193019B012700E7234A8E
:1008F000D36843F48033D360204AD2F8883023F49D
:1009000040033B43C2F88830E9E60326002F3FF45A
:1009100038AF12E019492A6DD1F8883023F04053DE
:100920001343B2F1805FC1F88830A5D10221281DA0
:10093000FFF746FE00289FD09FE7104A936D23F0F3
:10094000805393651DE7D36843F48013D3607DE73C
:100950003946281DFFF734FE064600287FF4C0AE56
:10096000CAE70121281DFFF72BFE0646002880D08C
:1009700080E7D36843F48013D3607AE70010024025
:100980000070004078000020704700BF704700BF33
:10099000836A19684A6822F003024A601A6E4FF0AF
:1009A000010C42F010021A6683F85DC0704700BF68
:1009B000026852E8003F23F4907342E800310029B6
:1009C000F7D102F1080353E8003F23F0010302F1DD
:1009D000080C4CE800310029F3D1036E012B06D03E
:1009E00000232022C0F8802083660366704752E807
:1009F000003F23F0100342E800310029F0D052E814
:100A0000003F23F0100342E800310029EFD1E7E76F
:100A100070B50568EC6931EA040405D05E1C06D1A6
:100A2000EB6931EA0303FBD10023184670BD154C76
:100A3000E46EA41AA34218D3BBB12C686407E9D5AD
:100A40008029E7D04029E5D0EC6914F008040ED1E4
:100A5000EE693605DED54FF400632B62FFF7A8FF81
:100A60002023C0F8843080F878400323DDE7082491
:100A70002C62FFF79DFF00220123C0F8844080F81C
:100A80007820D2E778000020836A0022A3F85A2059
:100A9000A3F85220704700BF70B520B10C4B02681C
:100AA0009A42044608D00B4B0B4AD3F880300B49CE
:100AB000BDE87040002018470069064D0023236000
:100AC00008B1AB6F9847AB6F2046BDE87040184740
:100AD0000EB037137800002068A5000880A5000834
:100AE0000022C2610284034600F130011A6383F8D8
:100AF000342008339942F9D142844262028570471A
:100B000010B400F13002034600241C6383F8344023
:100B100008339342F9D10B4A44844462048500F1BE
:100B20001C034FF0010C223014788C4208BF83F86C
:100B300000C00133834202F10C02F5D15DF8044B91
:100B4000704700BF787C00082DE9F041174F1D4623
:100B5000D7F8843013B1BDE8F0411847FB6F4FEA76
:100B60004208002AF7D08F1EA8F1020406468E46DE
:100B70000C443A4632F802CF9CFA9CFCA242A2F8FE
:100B800000C0F7D142467146304698470DB9BDE8DE
:100B9000F08137F8023F5BBAA7423B80F7D037F8C5
:100BA000023F5BBAA7423B80F3D1F0E77800002018
:100BB00070B51D4C94F88830012B82B0064605D9DB
:100BC000D4F88030194A1A4902209847D4F88C305A
:100BD00013B11B68174898474FF440520123009205
:100BE0003068032200256946ADF80450FFF7ACFFDA
:100BF000BDF8043041F2102223F00F03934210D0CD
:100C00000B49D4F880300C4A2846984704262946D8
:100C1000D4F88C3013B15B6908489847304602B06D
:100C200070BD01210326F3E77800002088A50008A5
:100C30009CA50008B0A50008C0A50008E4A5000810
:100C40002DE9F043436A87B00546002B49D0012BBC
:100C500012D0534F534AD7F8803053490020984759
:100C600000210424D7F88C3013B15B694F489847B2
:100C7000204607B0BDE8F083494F97F88830012B34
:100C800005D9D7F880304A4A4749022098472C2492
:100C900001264FF0000844F4405C01232868ADF8B9
:100CA00008C0032202A9ADF80A80ADF80C80FFF756
:100CB0004BFFBDF80C300134002BA4B218BF002646
:100CC000342CE8D1002E68D1D7F88030394A364923
:100CD00030469847384A3449D7F8803030469847EC
:100CE000BEE72F4F97F88830012B05D9D7F8803011
:100CF000324A2D4902209847D7F88C3013B11B682F
:100D00002F4898472F4B0FCB06AC0DF1060804E98E
:100D10000F0046462C2436F8021FADF8021044F4AA
:100D2000805C01342868ADF800C0002302226946C7
:100D3000A4B2FFF709FF342CEDD12C2401264FF08B
:100D4000000944F4405101230322ADF80010286843
:100D5000ADF802906946ADF804900134FFF7F4FE57
:100D6000BDF8043038F8022FA4B29A4218BF00260A
:100D7000342CE6D166B9D7F88030134A0A49304698
:100D80009847124A0849D7F880303046984767E7B5
:100D90000124204607B0BDE8F0830121032461E768
:100DA00078000020A8A600089CA50008C8A6000896
:100DB00064A600087CA6000890A6000800A600080B
:100DC00018A60008C07C000828A6000844A6000851
:100DD00038B5074D6B6F9847044608B1204638BDBB
:100DE000D5F88030034A04499847204638BD00BFF3
:100DF00078000020E0A60008F0A6000800B583B047
:100E000041F4A041012394464FEA124EADF8001080
:100E1000ADF80230042200236946ADF804E0ADF8D5
:100E200006C0FFF791FE03B05DF804FB10B50F4C50
:100E30008C461146B4F8702003F1020EB2EB4E0F4F
:100E400007D2D4F880300A4A0A49BDE81040002091
:100E50001847013B4CF4A04C4B802EF00042A1F807
:100E600000C0BDE8104000236EE600BF78000020FF
:100E700000A7000820A70008F0B583B043F21C02C9
:100E8000009201230E460024032269460746ADF86E
:100E90000440FFF759FEBDF8043013F4006517D184
:100EA00041F21B042B46694638460222009446F460
:100EB0000066FFF749FE38462B4669460222ADF828
:100EC0000040ADF80260FFF73FFE012003B0F0BD27
:100ED000054B064AD3F88050054920463B46A847B3
:100EE000204603B0F0BD00BF7800002034A7000802
:100EF00064A700082DE9F04782B0BDF828400B9F99
:100F000003EBC4056B88002B45D06E68844601EB6B
:100F10000208043E4FF0000E56F8044F620092B2F1
:100F20008A4234D3424532DAC4F30170012818D022
:100F300002283CD098BB521A93B2C4F34459012200
:100F400002FA09F297424BD33449013AD1F8804072
:100F500001923349334A0097A047002002B0BDE810
:100F6000F087521A92B20CEB42093CF81200B9F821
:100F7000023043EA004323F00F0317B1C4F30344E4
:100F80002343180C2CF81200A9F802306B880EF1DC
:100F9000010E7345C0D8012002B0BDE8F0871F4B99
:100FA000214AD3F880301E4900209847D5E7521ACD
:100FB00092B20CEB42003CF81290438843EA09439A
:100FC00023F00F0317B9C4F3034423431C0C2CF87C
:100FD000124043806B880EF1010E73459CD8DAE70E
:100FE000C4F3044A0CEB43043CF813006288C9F1D3
:100FF000200942EA00424FF0FF3020FA09F000FADF
:101000000AF022EA000207FA0AFA42EA0A02100C7F
:101010002CF8130062806B88B9E700BF78000020CD
:10102000B4A700087CA70008C0A700082DE9F0437A
:1010300083B01D4643F440534FF00008BDF82840EC
:10104000ADF800308946164669460123032245F46F
:1010500080550746ADF80280ADF80480FFF774FDB7
:10106000ADF80050BDF9045004FA09F46C4004EAEC
:10107000060255404346694638460222ADF8025002
:10108000FFF762FD03B0BDE8F08300BF30B583B069
:101090000025294600957B23FF220446FFF7C6FF63
:1010A0000121009120468B230222FFF7BFFF8B23F3
:1010B0008022009507212046FFF7B8FF03B030BD1E
:1010C00070B582B043F2370200230092ADF80430CD
:1010D0000322012369460546FFF736FDBDF80430BB
:1010E00013F0C00F1AD143F21C0201230092002416
:1010F000694603222846ADF80440FFF725FDBDF8F8
:1011000004301B0517D50F4B0F4AD3F880600F49E9
:1011100020462B46B047204602B070BD094B93F8DD
:101120008820002ADFD0D3F88040094A07492B469F
:101130000120A047D7E72846FFF7A8FF012002B00B
:1011400070BD00BF7800002010A8000864A7000848
:10115000E4A70008D0ED007ADFED636A86EEA77A97
:10116000F0B50546B6EE006A37EE067ADFED5F6A47
:10117000BCEEC77A2DED028B17EE103AF4EEE67A4C
:101180009AB2A2F11004F1EE10FA83B0A4B250DDCD
:10119000574ED6F880709FED577A574B77EE877A87
:1011A000BCEEE77A17EE102A9FED528ADFED536A04
:1011B000009237EE887A524A5249BCEEC77A002034
:1011C000B8EE477A77EEC77A67EEA67AFCEEE77A52
:1011D000CDED017AB847EF2C26D9D5ED007AD6F8B7
:1011E0008040F5EEC07AF1EE10FA40D578EE677ADD
:1011F000454BBCEEE77A17EE100A9FED3E7ADFED25
:101200003F6A009037EE877A3D4A3E49BCEEC77A86
:101210000020B8EE477A77EEC77A67EEA67AFCEE42
:10122000E77ACDED017AA047002003B0BDEC028B38
:10123000F0BD9FED367AF4EEC77AF1EE10FA11D5D3
:101240002B4EF5EEC07AF1EE10FAD6F88070A2D5EA
:101250009FED287A2C4B77EE677ABCEEE77A17EE93
:10126000102AA1E7EF2C0CD9214BD3F880409FED39
:10127000217A214B77EE877ABCEEE77A17EE100AD7
:10128000BBE777EEC77ADFED226A9FED227A67EE41
:10129000A67A3F2A77EE877AFCEEE77A17EE903A45
:1012A0009BB21BD9BF2A96BFA2F14004D408C4F355
:1012B000CF0402F0070601250B810023184664F3D2
:1012C0000F0066F31F4062F30F0365F31F4348608E
:1012D00001200B6003B0BDEC028BF0BD00252F2A6E
:1012E00088BF14462E46E7E7F902154F8096984CC2
:1012F00078000020BD37063518AB0008002474497B
:1013000044A8000870A8000840A800088096984BE0
:10131000E8385BB500007C42002870B446DB002949
:10132000034639DB88420A464BDA00250124294668
:101330001B04B3FBF2F343F6284293425AD946F218
:10134000D632934261D948F6720293425FD94AF687
:10135000494293425DD94DF2A30293425BD94FF2C9
:101360004B72934298BF052045D94FF24C7648F214
:1013700033224CF2A3409B1B02FB03F300EB134010
:1013800014B1C0F5C9301F3015B1C0F549303F3038
:10139000C1B1404270BC7047494209B2884217DA75
:1013A000002501240A4603462146C1E7404202B215
:1013B0000029104614DB91420B4605DD99BB1D4800
:1013C00000E050BB70BC7047002401252146AFE708
:1013D0000028DED000250B4602462C460121A7E757
:1013E000494209B28A424FF00105DADB0B4600247C
:1013F00029469DE70020104A02EBC00602EB80025E
:10140000D6E92460D2F8C820B5E70120F3E702202E
:10141000F1E70320EFE70420EDE700250B46024645
:101420002C46294684E701251A462C46034600210E
:101430007EE700BF20920100407C00082DE9F047C4
:101440000646804602EB42008CB0154606EB800053
:10145000002289460DF10C0A014617464FEA870E15
:1014600054469FED767AB31A75B103EB020CF4443F
:10147000DCED007A9C46DCED006A0C3367EEA67A60
:101480008B4237EE277AF0D10EF1040EBEF10C0F2D
:10149000A4EC017AE5D10137032F0AF1100AA2F179
:1014A000040201F10401D9D19DED045ADDED055A84
:1014B000DDED086A6A4606F10C01DFED607A43460D
:1014C0003DB11C4694ED007A0C33834277EE877A67
:1014D000F7D108F104088845E2EC017A00F1040034
:1014E000EBD19DED037AF0EEC77AF4EE677AF1EE78
:1014F00010FA12D69FED526AF4EE467AF1EE10FA27
:101500000BDC9FED506AF4EEC67AF1EE10FA04DAC5
:10151000B5EE407AF1EE10FA7DD0F7EE007A87EE64
:10152000872A9DED073A9DED0B7A65EE023A25EE8E
:10153000824A65EE237A65EEA34A33EE673A25EEDA
:10154000846AF0EEC32A65EE047AF4EE622AF1EEC4
:1015500010FA76EEE44A76EEE77A37EE466A06D679
:101560009FED377AF4EE472AF1EE10FA47DDB7EE39
:10157000007AC7EE032ADDED006A9DED017A9DED4C
:10158000023A63EEA63A67EEA27A37EE637A64EE29
:10159000A73A67EE877A36EE636A24EE264AF0EEC3
:1015A000C63A73EE677AF4EE633AF1EE10FA77EE2C
:1015B000C47A06D69FED224AF4EE443AF1EE10FAD0
:1015C0002FDD87EE864A0120002364EE844A65EE13
:1015D000845A77EE647A89ED024A67EEA27A25EEA4
:1015E000275AC9ED017A76EEC57A77EEE57A67EE8D
:1015F000827AC9ED007A33600CB0BDE8F0879FEDC8
:10160000117AF4EEC72AF1EE10FAB0DAB5EE403AEC
:10161000F1EE10FAABD10020002333600CB0BDE82E
:10162000F0879FED084AF4EEC43AF1EE10FAC8DAFA
:10163000B5EE406AF1EE10FAEDD0C2E7000000000E
:10164000FFFF7F7F00008000084B93F88820012A6D
:101650000AD910B4D3F88040054A06490346A44687
:1016600002205DF8044B6047704700BF78000020FF
:1016700084A8000894A8000810B5094C94F888C004
:10168000BCF1010F82B009D903461046D4F880405E
:10169000044ACDE9001004490220A04702B010BD61
:1016A0007800002098A8000894A80008094A92F839
:1016B00088C0BCF1010F0CD910B582B003460846B2
:1016C000D2F8804004490090044A0220A04702B0AA
:1016D00010BD70477800002094A80008B0A800084A
:1016E000094A92F888C0BCF1010F0CD910B582B03C
:1016F00003460846D2F8804004490090044A02207C
:10170000A04702B010BD70477800002094A80008E0
:10171000C4A8000810B5094C94F888C0BCF1010FAA
:1017200082B009D903461046D4F88040044ACDE976
:10173000001004490220A04702B010BD780000202C
:10174000D8A8000894A80008094A92F888C0BCF1FB
:10175000010F0CD910B582B003460846D2F880407C
:1017600004490090044A0220A04702B010BD70470F
:101770007800002094A80008F0A800081A4B2DE972
:10178000F041D3F89050194F6C1804F1FF3C6646B5
:101790004FF0000EA7FB0023DB0803EB8302A0EB56
:1017A000420280463032B8F1090F06F8012F184680
:1017B00072460EF1010EEDD8002304F80E3004EB52
:1017C000520204EB0E031CF8010F13F8014D8CF8C4
:1017D000004094451870F6D101EB0E002C232B52DB
:1017E0000130BDE8F08100BF78000020CDCCCCCC2A
:1017F0002DE9F04F674F91B09846B7F870600690AA
:101800000D461446FFF75CFC034618B9184611B0A4
:10181000BDE8F08F97F88830032B05D9D7F88030D2
:101820005D4A5E4904209847D8ED007AF8EE677A61
:101830000DA90CA8CDED0C7AFFF78CFC034600280F
:10184000E4D0D8F80030564AA2FB03239B0C03EBEC
:1018500083030493BDF8363007934FEA540CBDF868
:10186000383009937608BDF83A300893B445644699
:10187000BDF83C300A9328BF3446A4F1020C494B12
:101880002CF0010C40F29C5E05F104081FFA8CFA62
:101890000024A3F1F009CDF80CE0CDF814C0039AB0
:1018A0000599C4F5B3630433994298BF524666085C
:1018B0005FEA520C93464FEA86000CD0394B05EB99
:1018C0008C0C18442B4650F8042BDA80120C9A80AA
:1018D00004336345F7D1049B01931A2300935A46BE
:1018E0004B4621464046FFF705FB68B9002397F8B1
:1018F0008820032A8AD9D7F880402B4A27490393A6
:101900000420A047039B81E7079B019313230093C7
:101910005A464B4621464046FFF7ECFA0028E5D0F0
:10192000099B0193112300935A46204B21464046C0
:10193000FFF7E0FA0028D9D0089B01931223009307
:101940005A464B4621464046FFF7D4FA0028CDD0F0
:101950000A9B0193102300935A46144B214640469C
:10196000FFF7C8FA0B900028C0D05B4606983146B6
:101970002A465444FFF75AFAA4B240F29B539C42C1
:1019800005D8039BA3EB0A039BB2039387E70B9B4A
:10199000ADE700BF7800002004A9000834A90008C2
:1019A00083DE1B43147E000848A90008247D00083C
:1019B0002DE9F043436A85B0002B00F09A80012B9B
:1019C00004466ED013F00101006802D10C2B40F2E6
:1019D000B08043F21313002602930322012302A9CD
:1019E000ADF80C60FFF7B0F843F2141220680292D1
:1019F0000123032202A9BDF80C80ADF80C60FFF7AB
:101A0000A3F843F23303206802930322012302A9BF
:101A1000BDF80C90ADF80C60FFF796F8BDF80C50CF
:101A20002068ADF80C60012343F23207032202A9BB
:101A30000297FFF789F8022DBDF80C306CD0032D0A
:101A400040F091802A4601232068029702A9ADF850
:101A50000C60FFF779F8BDF80C30626A934200F031
:101A60009580654D00923046644AD5F8806064499F
:101A7000B047042643F2450302930023ADF80C302F
:101A80002068012302A90322FFF75EF8BDF80C309D
:101A9000002B70D1D5F880305A4A59490020984718
:101AA0001BE0554D95F88830012B05D9D5F88030CD
:101AB000554A534902209847D5F894000290D4E93A
:101AC0000312206802ABFFF793FE002843D1D5F83C
:101AD00080304E4A4A490020984700210426D5F814
:101AE0008C3013B15B694A489847304605B0BDE871
:101AF000F083414D95F88830012B05D9D5F8803019
:101B0000444A3F4902209847D5F88C3013B11B68EE
:101B1000414898470126E8E743F23902934232D020
:101B2000354D009230463D4AD5F880603449B04783
:101B30009FE70123ADF80C1043F24504032202A9EC
:101B40000294FFF701F8BDF80C30D3B102263046FD
:101B500005B0BDE8F08320684FF4B271FFF78CF94F
:101B60000028F3D1B3E7244D2D4AD5F8803024491D
:101B7000304698477DE7A6F10301B1FA81F14909A2
:101B8000ADE71D4D86E71C4D032673E71A4DC8448B
:101B900095F8882008F10108033B08EB8808012A22
:101BA0001FFA88F84FEA5301C3F34F0708D9CDF85D
:101BB00000808BB21B4A1249D5F880600220B047E2
:101BC00087B143F2450200230292ADF80C30206841
:101BD000012302A90322FEF7B7FFBDF80C30002B4A
:101BE000B4D157E7D5F88C30002BEAD05B690E48AA
:101BF00041469847E5E700BF7800002018AA000892
:101C00009CA50008A0AA00089CA90008B4A9000887
:101C1000BCAA000874A900088CA900084CAA0008F6
:101C20007CAA0008D0A9000800AA00082DE9F04FFE
:101C3000924683B0214ADDF83080B2F870B0002BB4
:101C400038D0ABF1060B4FEA9B0B9946002400906D
:101C50000F460193CB455D4628BF4D466A00531E93
:101C6000D61C4FF480424FEA840C3A807C80BB80C3
:101C700075B12C44D44438460AEB840E5CF8043B1E
:101C80000381E6454FEA1343C38000F10400F5D118
:101C90000098002332463946FEF756FFD8E9000384
:101CA000013300EB4600C8E90003019B9C42A9EB0D
:101CB0000509CFD303B0BDE8F08F00BF7800002046
:101CC00030B4124D124C00F1BC0C002143680B449F
:101CD000024640F8043F12689A1AAA4209DD50F8F9
:101CE000042CA3F5C9237E3BA1F5C92103607E39ED
:101CF0009A1AA24206DA03F5C92301F5C9217E33F7
:101D000003607E318445E1D130BC70473F2403003D
:101D1000C1DBFCFF2DE9F04FBFB00DF138090D46D6
:101D20009046019300F1020B3EAFCA46002440F6F4
:101D3000B73631E025B335F8141001F01F0E4FEA25
:101D4000912C0EF1300E00FB0EF0C1F34411ACF1FA
:101D5000200C02FB0CFC002801F1300102FB01F118
:101D6000B8BF3F30BCF1000FB8BF0CF11F0C8011A1
:101D7000002900EB6C10B8BF3F3100B241F38F1166
:101D80000134182C08BF0024FFF7C6FA4AF8040BE8
:101D9000BA450BF1040B0ED0BBF900203BF9020C45
:101DA00002FB02FC00FB00CCB4451146C2DC002063
:101DB0003FB0BDE8F08F0DAC0DF1060109F15C05F7
:101DC000224652F8043F002BB8BF0F3302311B11DB
:101DD00095420B80F5D14846FFF772FF002254F878
:101DE000043F216EA542A3EB01031A44F7D1124B25
:101DF00083FB0213D217C2EBA31404F599433033CB
:101E00004CF662129342D2D802AE35460FCD4D4504
:101E100008F1100806F1100648F8100C48F80C1CE0
:101E200048F8082C48F8043CEFD1019B01201C80A5
:101E30003FB0BDE8F08F00BFABAAAA2A2DE9F04F52
:101E4000ADF2146D0446914603938D1C03AE0DF262
:101E50000C67B5F9001035F9020CFFF75DFA46F88A
:101E6000040FB74205F10405F3D1002148462022B2
:101E700004F096FE0DF16C0A4FF6FF73002104EB9F
:101E800044060293304DDFF8C48001915346F600BA
:101E9000A9F1040940F694578A469B46ABF15C00D1
:101EA000FFF70EFFABF160004FF0000C50F8043F5D
:101EB000026E5845A3EB02039C44F7D1BCF1000F1E
:101EC00031DB4FEA9C1007FB00F0400D04FB00F0F3
:101ED00006EB1020C9F80400BAF1000F03D0D9F8BE
:101EE000003083422AD959F8043F4344002BB8BF3D
:101EF0005B42AB4204D21D460123CDF808A00193FA
:101F00000AF101021FFA82FABAF1080F0BF1C00BB5
:101F1000C4D1019911B1DDE902231A8008460DF2FE
:101F2000146DBDE8F08FCCF10000800907FB00F0D4
:101F3000400D04FB00F0A6EB1020CBE70021084683
:101F40000DF2146DBDE8F08F40420F00E0D764FC45
:101F50002DE9F04F87B04FF0000E164600EB410917
:101F60000290821ECDE90316A9F1120935464FF001
:101F7000010BF246F4467046CDF804E005931EE0EE
:101F800040F2EE218B4240DC634500DD9C464FF081
:101F9000000BBEF1000F0ABF4FF0000B704601208E
:101FA000CAF100084345019BB8BFA4EB060ABB4237
:101FB00038BF3B469145019305F102052BD0568A67
:101FC00032F8024F331B03F50048B8F5803F27462F
:101FD000D6D240F2EE218B422B8007DD178868B9FC
:101FE000634515DD9C464FF0010ED9E7514917882E
:101FF0009C45B8BF9C468B42D2DACAE7634500DDF8
:102000009C4686464FF0000BCAE74FF0000BE6E710
:102010004FF0010EC4E71946DDE90346059BBBF10D
:10202000000F03D1002007B0BDE8F08FBEF1000F14
:10203000F8D00028F6D0CDE9031C0027A4F11C0934
:10204000B84606F112043D463E46BE46D34634F934
:10205000021F019601EB810C01EB4C010A22A24602
:10206000A4463CF9026D02FB06113AF9026F02FB2D
:102070000611013AF5D1019EA942C4BFF0460D46B2
:102080008E42C8BF77460EF1010EC8BF0E46F1451D
:10209000DDD14CF25034A542DDE9031CDA46C1DD46
:1020A000254CA642BEDABCF1000FBBD0BBF1000F3D
:1020B000B8D0029C119D2488C900E4004DB18C4227
:1020C00005D2ACEB0402013A0A44B2FBFCF2119DCA
:1020D0002A60109A002AA6D0002BA4D0029A08F1F8
:1020E0000E0532F81520B4EBC20F4FEAC20606D235
:1020F000ACEB0404013C3444B4FBFCF42D1B029A09
:102100000E3732F81720B1EBC20F4FEAC20405D9DF
:102110004A1E5244121BB2FBFAF2BF1A55EA0702DA
:1021200080D4BD423FF77EAF109A7F1B17601D60C1
:1021300079E700BF12FDFFFFB03CFFFFF0B482B0B3
:102140002E4E056800238DF80330F36EF76EC3F151
:1021500064031A442A4B1B6803EB8303C3EBC303DA
:102160001B0D02FB03F30193AB6819420AD134E063
:10217000019C019B013B0193AB68002C08BF00222E
:1021800019422AD0B1F5C06F05D12B7BDBB28DF897
:1021900003309DF80330F36EDB1B9342E8D36B688A
:1021A000426823F0E003B2F5827F6B6019D0836A46
:1021B000B3F5005F07D12B6823F400532B602B6825
:1021C00043F400532B600122002380F85D2080F847
:1021D0005C30032002B0F0BC7047002002B0F0BCBD
:1021E00070478368B3F5004F02D0B3F5806FDED13E
:1021F0002B6823F040032B60D9E700BF7800002054
:102200000000002070B4274D274BEA6E1B6804685D
:10221000EE6EC2F16402114483B0C3F3CB3301FB11
:1022200003F30193A3681A062CD509E0019A019BD8
:10223000013B0193A368002A08BF00211B0621D59A
:10224000EB6E9B1B8B42F1D36368426823F0E00383
:10225000B2F5827F636019D0836AB3F5005F07D15E
:10226000236823F400532360236843F4005323605E
:102270000122002380F85D2080F85C30032003B049
:1022800070BC7047002003B070BC70478368B3F522
:10229000004F02D0B3F5806FDED1236823F04003F6
:1022A0002360D9E7780000200000002038B5294AD3
:1022B0000368D56E1B689B061BD4846A2368A268DA
:1022C0005868616820F0200058609AB15868B1F5EC
:1022D000827F20F00100586022D029462046FFF777
:1022E00091FFB0B901230022A4F8462084F85D30A4
:1022F000236E38BD5A68B1F5827F0CBF22F003020D
:1023000022F001025A6029462046FFF77BFF002891
:10231000E8D0236E43F02003236620232366E1E701
:10232000B2F5004F12D11A6822F0400229461A6015
:102330002046FFF767FF0028EBD12A464FF4C06123
:102340002046FFF7FBFE0028CCD0E2E7B2F5806F15
:10235000E9D0C2E778000020F8B51B4D0368EF6EA6
:102360001B68846A9B062CD42668736823F02003BC
:1023700073603A464FF4C0512046FFF7DFFE58B96C
:1023800039462046FFF73EFF30B93A464FF4C06168
:102390002046FFF7D3FE38B1236E43F020032366B7
:1023A000236E43F020032366736823F003037360F6
:1023B00000220123E287A4F8462084F85D30236ED2
:1023C0000BB901232B70F8BD780000201149D1F81A
:1023D0009820D06810F0400001D0002070474FF0E6
:1023E000FF3310B4D360CC6ED3685B060FD40328E0
:1023F00003D10CE0D368580608D4CB6E1B1BB3F591
:102400007A7FF7D9032081F8B900EDE700205DF865
:10241000044B704778000020094A0A4BD2F8981004
:10242000CB60D06E04E0D36E1B1AB3F57A7F04D86C
:10243000CB689B06F7D5002070470320704700BF8C
:10244000780000205FFF030008B5114BDA6822F026
:102450008002DA609A68920603D4FFF7DDFF88B93C
:1024600008BD9A6822F020029A60FFF7D5FF18B1E4
:10247000084B032083F8B900054A936843F0200312
:10248000936008BD034B032083F8B90008BD00BF6B
:102490000028004078000020F0B5614C94F8B83076
:1024A000012B00F0BB80D4F898100223012284F89D
:1024B000B82084F8B9308B6813F0400C18BF90F83E
:1024C00003C003780CBF80F803C04FEA8C5C092B73
:1024D00009D900220A3BDBB2092B02F10102F9D82B
:1024E00043EA0213DBB21A044378092B09D9002509
:1024F0000A3BDBB2092B05F10105F9D843EA0513C4
:10250000DBB28678092E4FEA032309D900250A3E5B
:10251000F6B2092E05F10105F9D846EA0515EEB225
:1025200090F824E0BEF1090F0DD90025AEF10A0E96
:102530005FFA8EFEBEF1090F05F10105F6D84EEAED
:1025400005155FFA85FE4569076A3D4345EA0C05B6
:102550002A4313433343456843EA0E62C3691D436C
:10256000836ACA20486253204862B3F5807F8B6833
:1025700037D023F400738B60CB68DBB263F4207335
:10258000CB60E06E04E0E36E1B1AB3F57A7F1ED8D1
:10259000CB689B07F7D50A628D648B6843F40073A0
:1025A0008B608B6843F400538B601E4B1A680020CD
:1025B00042F4802284F8B8001A609A6842F48022BB
:1025C0009A60FF2201234A6284F8B930F0BDFF22ED
:1025D00003234A6284F8B930002384F8B83003201A
:1025E000F0BD23F480738B60CB68DBB263F4C073FF
:1025F000CB60E06E04E0E36E1B1AB3F57A7FE6D899
:10260000CB68DE07F7D5CA614D648B6843F48073ED
:102610008B608B6843F480538B60C6E70220F0BD6B
:1026200078000020000401402A4A034600689042D6
:1026300070B43BD8284A294C14210244B2FBF1F271
:102640009200022183F8251001689D689E691C6430
:1026500021F4FF4C59695A642CF0700C294341EA6B
:102660000C01314341F08001B5F5804F016014D079
:10267000596802F01C020F2090409140174A944282
:102680006FEA00001AD0D2F8A8442040C2F8A8048B
:10269000D2F8A8040143C2F8A81400200122D8638C
:1026A00083F8240083F8252070BC70470C4A0D4C39
:1026B00002441421B2FBF1F29200C2E7D4F8A82040
:1026C0000240C4F8A820D4F8A8201143C4F8A810E8
:1026D000E3E700BF07040240F8FFFDBF000002402F
:1026E000F8FBFDBF00040240134BDB68C3F3022379
:1026F000C3F1070C1A1DBCF1040F28BF4FF0040CE6
:10270000062A88BFDA1E4FF0FF3303FA0CF398BF96
:10271000002221EA030393401B01421CDBB206D0D6
:1027200000F1604000F5614080F800337047024AD4
:1027300082F82330704700BF00ED00E038B5104D3F
:10274000104A2B68A2FB03239B09013BB3F1807F56
:1027500001D3012038BD4FF0E0220B495361F02333
:1027600081F82330002407230F2894611361F0D8E7
:1027700001464FF0FF30FFF7B7FF6960204638BDD4
:1027800000000020D34D621000ED00E010B5534B67
:1027900093F8B8200021012A83F8BC1000F085804E
:1027A000D3F89820CA21022483F8B940012051624D
:1027B000532183F8B8005162916821F480619160DF
:1027C000D168C9B261F49061D160D16849066ED513
:1027D0001F2151619168424821F0070141F0030136
:1027E0009160016841F480110160816841F48011B9
:1027F0008160916841F4804191609168FF2441F4C7
:10280000806101209160546283F8B90093F8BC1094
:10281000002283F8B82000295CD172B6BFF34F8F35
:10282000BFF36F8F93F8BC2002B930BF62B6BFF31D
:102830004F8FBFF36F8F93F8BC20002AEDD093F831
:10284000B8200021012A83F8BC102ED0D3F89800BC
:102850000224CA2283F8B940012142625322426213
:1028600083F8B810826822F480628260826822F461
:1028700080428260DC6E04E0D96E091BB1F57A7F7C
:102880000CD8C26812F00402F6D0FF240122002105
:10289000446283F8B81083F8B92010BDFF240321E7
:1028A000446283F8B82083F8B910FDF771FCDC6E40
:1028B000D16811F004018BD1D86E001BB0F57A7F7E
:1028C000F6D9FF240320546283F8B81083F8B900C6
:1028D000FDF75EFC83F8BC20B8E700BF780000205D
:1028E000000401402DE9F04F89B00493002900F065
:1028F000898002F003077D1EC2F300130295DFF802
:10290000B0B1694C059302F4403500234FF0010843
:1029100003959246019708FA03FC1CEA01066DD064
:10292000029F5A0003259540012F6FEA05056CD9D7
:10293000019F032F40F0AC80D0F800C0019F0CEA4B
:10294000050C07FA02F242EA0C020260039A002A1E
:1029500054D0DBF8602042F00102CBF86020DBF8B5
:10296000602002F001020792079A23F0030202F1AD
:10297000804202F5803203F0030CD2F808E04FEAFF
:102980008C0C0F2505FA0CF5B0F1904F2EEA050ED0
:1029900011D0464DA84277D005F58065A84275D084
:1029A00005F58065A8426DD005F58065A84214BF85
:1029B0000725042500E0002505FA0CF545EA0E057B
:1029C0009560A268F5431AF4801F0CBF2A40324379
:1029D000A260E2681AF4001F0CBF2A403243E26092
:1029E00062681AF4003F0CBF2A40324362602268DA
:1029F0001AF4803F0CBF2A4032432260013331FA7F
:102A000003F288D109B0BDE8F08FD0F80890129F8A
:102A100009EA050907FA02FE4EEA090EC0F808E0C5
:102A2000D0F804E0059F2EEA0C0E07FA03FC4CEAEE
:102A30000E0CC0F804C0049FD0F80CE007FA02FCAA
:102A4000019F0EEA050E4CEA0E0C022FC0F80CC0D6
:102A50007FF472AF4FEAD30900EB890903F0070C4A
:102A6000D9F820704FEA8C0C4FF00F0E0EFA0CFEC6
:102A700027EA0E0E139F07FA0CFC4CEA0E0CC9F85D
:102A800020C059E7032597E7012595E7022593E73D
:102A9000D0F80CE0049F0EEA050E07FA02FC4CEA9F
:102AA0000E0CC0F80CC047E70004014000040048C9
:102AB000001002402DE9F041C16F05689EB0044648
:102AC00000295FD025682423E3672A68636A22F01F
:102AD00001022A60002B40F0C380D4E90402A368FD
:102AE000296803431343E0699E4A03430A401343A2
:102AF0002B606B68E26823F4405313439A4A6B607F
:102B00009542A369AA6800F0F180216A22F430623C
:102B10000B431343954AAB6095421BD0944B9D42A7
:102B200040F0158103F5E633D3F8883003F00C0349
:102B30000C2B00F20F81DFE813F0E0010D010D0115
:102B40000D0172010D010D010D012B010D010D0192
:102B50000D016201874BD3F8883003F00303022B89
:102B600000F01681032B00F04A81012B00F0578101
:102B7000B0F5004F00F0CA81FDF70EFD002800F00F
:102B800018810AE180F878105C2207A804F008F8A0
:102B9000764B9D4200F0BF81754B9D4292D102273A
:102BA00007A80797FDF794FD0646002840F0DF814F
:102BB000704B714D9A6D42F400329A659A6D02F431
:102BC00000320492049ADA6C42F00102DA64DB6C9F
:102BD00003F00103039307220323CDE90032039995
:102BE00003463A464FF090400F214FF08008FFF720
:102BF00079FEC5E93176C5E93368C5E93566C5E9C9
:102C0000376605F1C0065D4BC5F8C0303046FFF7AA
:102C10000BFD002840F0AB816667102305F5847634
:102C2000C5E94508C5E94700C5E94900C5F81031BF
:102C30003046534BC5F80C71C5F8E840C5F808316B
:102C4000FFF7F2FC0146002840F09181266726201C
:102C5000C5F83041FFF748FD4A4B40225A6031E742
:102C60001E0705D56A68616B22F400420A436A6058
:102C7000D80705D56A68A16A22F400320A436A605F
:102C8000990705D56A68E16A22F480320A436A60CE
:102C90005A0705D56A68216B22F480220A436A60CC
:102CA000DF0605D5AA68A16B22F480520A43AA6008
:102CB0009E0605D5AA68E16B22F400520A43AA6079
:102CC000580609D56A68216C22F480120A43B1F5CE
:102CD000801F6A6000F00A8119067FF5FEAE6B68FE
:102CE000A26C23F4002313436B60F6E622F43062F7
:102CF00013432049AB60D1F8883003F44063B3F547
:102D0000006F00F0F18000F2E880002B00F02981D4
:102D1000FDF7DEFB00284CD0626802EB42038342E1
:102D200018D8B0EB023F15D8510800230F464FF4D6
:102D300080761946E0FB0671384603F0E5F8124B41
:102D4000A0F540729A4205D8074BD86031E00F4B8E
:102D50009D425AD00023C4E91A3301201EB0BDE8B9
:102D6000F08100BFF369FFEF0080004000380140B0
:102D70000044004000100240780000206C00024037
:102D80008000024000E100E0FFFC0F00004800402E
:102D9000B0F5004F794800F08B80636800EB53007A
:102DA000B0FBF3F04FF6EF73A0F110029A42D1D8C6
:102DB000E8606A687249002322F49042C4E91A3339
:102DC0006A60AA6822F02A02AA602A6842F0010218
:102DD0002A60C4F88430CE6E2B681A0727D42B687B
:102DE0005B073ED400232022E26784F87830C4F8E1
:102DF0008020184623666366B0E7302BAAD1B0F571
:102E0000004F55D04FF40040C7E75E4BD3F88830F1
:102E100003F03003202BBBD0EFD8002B6DD0B0F5E2
:102E2000004F41D0FDF754FB0028C2D0B5E76FF04A
:102E30007E4332464FF400112046FDF7E9FD00289D
:102E4000CDD0236853E8002F22F0800243E8002110
:102E50000029F7D12023E367002384F8783003208A
:102E60007CE76FF07E4332464FF480012046FDF749
:102E7000CFFD0028B6D0236853E8002F22F49072CB
:102E800043E800210029F7D103F1080252E8002F9E
:102E900022F0010203F1080040E800210029F3D1EB
:102EA0002023C4F88030D7E7FDF712FB002880D03C
:102EB0006268530803EB40034FF6EF71B3FBF2F384
:102EC000A3F110028A423FF645AF23F00F0292B2FF
:102ED000C3F342031343EB606BE7B3F5406F7FF43A
:102EE00039AF4FF4004017E7244815E76A68616C72
:102EF00022F4C0020A436A60EEE6B0F5004F38D013
:102F0000FDF736FB00283FF454AF46E7FDF744FBDE
:102F10000028CDD14DE7012307A80793FDF7D8FB83
:102F2000034620BB174A116E41F480411166116EB1
:102F300001F4804106910699D16C41F00101D16400
:102F4000D26C072002F0010203210592019000914A
:102F500002224FF4C0614FF09040059DFFF7C2FC84
:102F6000B0E5FDF705FB00283FF423AFD4E6FDF7FD
:102F70000FF9FDF7FDFA00289AD11AE70024F400B2
:102F800078000020001002402DE9F8436B4D6C4E94
:102F90004FF480530446AB61FFF7F8FB638C052BBD
:102FA0004FF000076FD803F11B0214FA82F203E01E
:102FB00083B2062B638433D012F8011F581C0029FA
:102FC000F6D0002F63D103EB430306EB83032046C7
:102FD0001B6C9847638C228D616A03EB430706EBF9
:102FE000870704EB020C013197F8387061620138F1
:102FF00059008CF82A7003280BD8DFE800F002375C
:1030000087604FF48057AF62FFF7C0FBAF61FFF7F7
:10301000BDFB638C052B4FF00007C4D9062BD2D122
:10302000464B4FF480529A62FFF7B0FB268D012584
:10303000CEB1DFF82091DFF82081424F04EBC606C5
:10304000012594F83420216B002A0CBF4A464246E1
:10305000384603F0FBFE94F834300834002B08BFE8
:103060000025B442EDD12846BDE8F883364AD16E3A
:103070002B691F0739D52B6983F00803C3F3C007F9
:10308000638C052B8FD9062BCAD0002F9BD003EB66
:1030900043032D4A2D49D2F880702D4A06EB830355
:1030A0000020DB6BB847638C228D03EB430106EBFA
:1030B0008101A01891F8387080F82A7059001944DD
:1030C00006EB810104EBC20700200133C96B87F8CE
:1030D000340039636384638C60620132052B22857E
:1030E0004FF000077FF65FAF98E7D36E5B1AB3F53A
:1030F0007A7FC0D272B62B69180700D430BF62B68F
:10310000BFF36F8F2B691B07EFD5B4E7194406EBAC
:103110008101012704EBC2003B44C96B80F8347085
:1031200001636384638C3A440021052B228561622C
:103130004FF000077FF637AF70E700BF000400488C
:10314000407C000804AB0008780000209CA5000823
:10315000E4AA0008DCAA0008D4AA0008F0B585B0EB
:1031600043F23303029300270123032202A90446FA
:10317000ADF80C70FDF7E8FCBDF80C3003F0070566
:10318000012D44D013F0060022D12A4E0094D6F827
:103190008050294A2949A847002543F24503029354
:1031A0000023ADF80C3002A9012303222046FDF7CD
:1031B000CBFCBDF80C3003BBD6F88060204A1F4919
:1031C00023460020B047022D16D1012005B0F0BDE6
:1031D000AA1E012A24D843F24503029302A901231F
:1031E00003222046ADF80C70FDF7AEFCBDF80C30A4
:1031F000002BE8D10F4EDFE70E4ED6F88040114A83
:1032000011492B460020A047002005B0F0BD094E13
:10321000009438460D4AD6F880700849B847BCE794
:10322000044E0094D6F88050094A04493846A8470D
:10323000B2E700BF780000201CAB000864A70008BC
:10324000B4AB0008E8AB000830AC00084CAB000899
:1032500080AB000810B41E4C94F8B830012B33D06A
:10326000D4F898100220CA2384F8B90001224B62D6
:1032700053234B6284F8B8208B6823F480738B60EF
:103280008B6823F480538B60E06E04E0E26E121AC8
:10329000B2F57A7F0ED8CB6813F00103F6D0002088
:1032A000FF2201234A6284F8B80084F8B9305DF83F
:1032B000044B70470320FF224A6284F8B83084F838
:1032C000B9005DF8044B704702205DF8044B70476D
:1032D000780000202DE9F04FDFF8DCA29AF8883062
:1032E000012B97B0064605D9DAF88030A54AA649E1
:1032F00002209847DAF88C3013B11B68A34898472E
:10330000DAF89430A24CA34A30681192A4FB03343B
:103310000222002311A9FDF717FC41F201033068D6
:1033200011930222002311A9FDF70EFC9A4B30687D
:1033300011930222002311A9FDF706FC41F25D035F
:10334000306811930222002311A9FDF7FDFB41F221
:103350007403306811930222002311A9FDF7F4FBD6
:103360008E4B306811930222002311A9FDF7ECFB6C
:1033700041F25502A5093068ADF84420002302222D
:1033800011A9A40DADF84640FDF7DEFB41F256034E
:103390003068ADF844300222002311A9ADF8465040
:1033A000FDF7D2FB7E4A306811920023022211A958
:1033B000FDF7CAFB7B4ADFF8049207CA11AB03C3CF
:1033C0004FF0000B0A25D8461A8000242F4611AB77
:1033D00041F22C0133F814503068ADF83C10002352
:1033E00002220FA9ADF83E50FDF7AEFB43F22C00D0
:1033F0000F9001233068ADF8408003220FA9FDF73C
:10340000A3FBBDF84000854204F101040ED09AF8F8
:1034100088205D49032A23464A4605D9CDE9005054
:103420000420DAF88050A8470BF1010B052CCED10F
:103430007D1ECAD1BBF1000F40F0698101214FF020
:103440000309DAF88C3013B15B6957489847B369C0
:10345000564DCDF8349000229446CDE90F2223F04A
:1034600003024FEA930B09920A920FCD11AC0FC4DD
:103470002B6823604FF00A08CDF810C002960DF1BA
:103480004409CDF82C80029BD9685A69BBF1000F22
:1034900000F0E3800998D9F80070131F181843F85A
:1034A000047F9842FBD1029D0FAB009328685B46D6
:1034B000FEF7BCFB68690A9A002103F071FBBAF8B9
:1034C0007030D5F80C80CDF80CB0083B9B08079302
:1034D0002B6808930F9B0693109B6D69059300243E
:1034E00013E0334ADAF88030324900209847321925
:1034F000039B06999B1B0393059B934503F10103D3
:10350000CDE90F13059314465AD9079E039B9E429B
:1035100028BF1E46B6F5005FE3D849F20003A8F8BD
:1035200000307300013B0021A8F80430B3001A46B4
:10353000A8F80610A8F8024008F108000C9303F060
:103540002FFB0123B21C08989A404146FDF7FCFA74
:10355000002E00F080803219434605EB840405EB11
:103560008200B3F808C0598941EA0C4144F8041BB1
:10357000A04203F10403F4D10C9B069908331944CB
:103580000691B5E750AC00089CA500086CAC00089B
:10359000D34D62100110FFFF5D100100D510010036
:1035A000541003004C89000840AD000858890008F9
:1035B00064AD000820A700087800002080AC000857
:1035C000049E0025029B5B6953F82540A7420ED05C
:1035D0009AF888205D49032A2B465D4A4FF0040083
:1035E00004D9CDE90074DAF88040A04701360135EE
:1035F000AB45E7D1049609F1040916AB99457FF470
:1036000042AFDDF82C80B8F101087FF438AFDDF867
:1036100010C0DDF83490029EBCF1000F25D032239B
:1036200003FB0BF3DAF880404A4A484900934046CE
:103630006346A047DAF88030474A444940469847F5
:10364000DAF88C301BB15B69444841469847042046
:1036500017B0BDE8F08F22468EE70FAB0093029BB8
:1036600018685B46FEF7E2FAC5E7DAF88C301BB162
:103670005B693A4801219847B9F1040FE7D043F25A
:103680001413002411933068ADF84840012303223D
:1036900011A9FDF759FAB569BDF84870CDE90F4495
:1036A000AD0864240FAB7269F168306800932B4653
:1036B000FEF7BCFA013CF5D143F21412012311923A
:1036C0003068ADF8484011A90322FDF73DFABDF876
:1036D00048300F9CDB1B9BB263B39AF88820012A09
:1036E0004FEAC404B4FBF3F406D9DAF880501C4A5C
:1036F000164923460220A847DAF88C301BB15B69D3
:10370000184821469847032017B0BDE8F08F3222B1
:1037100000920E49144ADAF880405B462846A047DA
:103720000A49124ADAF88030284698474FF00409CF
:10373000294686E69AF88830002BE4D00120DAF892
:1037400080300B4A014998470320DDE79CA500081B
:103750007CAD0008D0AD000800AE000820AE000827
:1037600044AE000874AE0008ECAC000820AD0008C0
:103770008CAE00082DE9F04F02EBC30787B07B88C1
:10378000DDF84090F3B18246884600264D467B68BE
:1037900053F82640C4F30170012816D0022830D017
:1037A00028BBC4F34459012303FA09F39D4231D3E2
:1037B0002F4A3049D2F880602F4A013BCDE90053AF
:1037C000A3B2B04707B0BDE8F08FA3B2194658F8CE
:1037D000232022F00F0215B1C4F3034422435046C4
:1037E000FDF70CFB7B8801369E42D0D3EAE7204BE5
:1037F000224AD3F880301F49002007B0BDE8F04FBF
:103800001847A3B2194658F8232022F00F02002DC2
:10381000E5D1E1E71FFA84FB4FF00103ADF80E306C
:103820004BF42043ADF81000CDF81200ADF80C3089
:1038300003A9504601230522FDF786F9C9F12009A5
:10384000BDF81220BDF814304FF0FF30C4F304442B
:1038500020FA09F0A04043EA024323EA000305FAF4
:1038600004F4594643EA04025046FDF7C7FAB9E7A3
:1038700078000020B4A70008E4AE00081CAF0008E0
:103880000CB4F0B5ADB032AB06AE53F8042B0593D3
:1038900004460D463046962103F0FEFA9528C4BF33
:1038A0001B4BCDF8AA301B4B1B49DF6EA1FB073128
:1038B0001A4BA3FB0723980B194BA3FB07234FEAD3
:1038C000931C184B4FF47A7202FB1C77A3FB00E2A7
:1038D0005209042CC2EB0212A0EB8202A3FB0CE300
:1038E00098BF114800974FEA531394BF005D3F20E3
:1038F000C3EB03130190CDE90256490DACEB8303F2
:103900000A4803F0A3FA2DB0BDE8F04002B07047BA
:103910002E2E2E0078000020B17C219573B2E74551
:10392000D34D62108988888868AF000844AF0008CA
:1039300038B50B4C94F88830012B07D9D4F8903067
:10394000084A0949D4F880500220A847074BD4F808
:10395000902003CB1B78106051601372092038BD92
:103960007800002070AF000894A8000874AF000829
:10397000174B2DE9F041174E05460F4603CBD6F8FD
:1039800090201B7810605160137287B1043D0024B1
:10399000092155F8040FFDF7F1FE0134A742014655
:1039A00005D06307F5D1FFF7C3FF0146F1E796F8AD
:1039B0008830012B0AD9D6F88040D6F89030064AD4
:1039C0000649A4460220BDE8F0416047BDE8F08109
:1039D00074AF00087800002070AF000894A80008B9
:1039E000214B2DE9F047DFF8948081460D4603CB4B
:1039F000D8F890201B7810605160137215B31B4EDD
:103A00001B4FA9F104090921002459F8040F0028CB
:103A10004FF02D0205DAD8F890305A54D9F800004A
:103A200001310028B8BF4042FDF7A8FE0134A5428D
:103A3000014606FB04F305D0BB42E6D8FFF778FF4A
:103A40000146E2E798F88830012B0AD9D8F880407F
:103A5000D8F89030074A0849A4460220BDE8F0474C
:103A60006047BDE8F08700BF74AF0008B76DDBB6F4
:103A70002449922470AF000894A800087800002020
:103A80001A4B2DE9F041DFF8748005460E4603CB52
:103A9000D8F890201B78106051601372A6B1144FB3
:103AA000023D0024092135F8020FFDF767FE0134BD
:103AB000A642014607FB04F306D0B3F1113FF2D84A
:103AC000FFF736FF0146EEE798F88830012B0AD958
:103AD000D8F88040D8F89030064A0749A44602201A
:103AE000BDE8F0416047BDE8F08100BF74AF000859
:103AF000EFEEEEEE70AF000894A80008780000200A
:103B0000224B2DE9F047224F81460C4603CBD7F8D4
:103B100090201B7810605160137234B31D4D1E4EFF
:103B2000A9F1020909214FF0000839F9020F002814
:103B30004FF02D0205DAD7F890305A54B9F9000049
:103B400001310028B8BF404280B2FDF717FE08F1EE
:103B500001084445014605FB08F306D0B6EBB30F58
:103B6000E3D3FFF7E5FE0146DFE797F88830012B46
:103B70000AD9D7F88040D7F89030084A0849A446B7
:103B80000220BDE8F0476047BDE8F08774AF000849
:103B900078000020ABAAAAAA5555551570AF0008A9
:103BA00094A800081B4B2DE9F047DFF87C80044601
:103BB0000D4603CBD8F890201B781060516013722B
:103BC000BDB1154E154F013C4FF00009092114F805
:103BD000010FFDF7D3FD09F101094D45014606FB33
:103BE00009F306D0B7EB730FF1D3FFF7A1FE01463F
:103BF000EDE798F88830012B0AD9D8F88040D8F83A
:103C00009030074A0749A4460220BDE8F0476047C4
:103C1000BDE8F08774AF0008A38B2EBABAE8A20BF8
:103C200070AF000894A8000878000020224B2DE90E
:103C3000F047224F81460C4603CBD7F890201B78E3
:103C400010605160137234B31D4D1E4E09F1FF39DF
:103C500009214FF0000819F9010F00284FF02D023B
:103C600005DAD7F890305A5499F90000013100284C
:103C7000B8BF4042C0B2FDF781FD08F101084445DC
:103C8000014605FB08F306D0B6EB730FE3D3FFF74D
:103C90004FFE0146DFE797F88830012B0AD9D7F8A5
:103CA0008040D7F89030084A0849A4460220BDE871
:103CB000F0476047BDE8F08774AF00087800002047
:103CC000398EE3388EE3380E70AF000894A80008F0
:103CD0002DE9F04F9846184BDFF860B0B3F87070DC
:103CE00083B0043A043F52087F0897420C9E01902B
:103CF000894628BF174601F1040A0025741BBC42FF
:103D000028BF3C4645EA0B02631E08EB4501A9F8B3
:103D10000020A9F802306200504603F053F8254411
:103D200001980023A21C4946FCF70EFFAE42E5D8DD
:103D300003B0BDE8F08F00BF7800002000C0FFFF97
:103D40002DE9F04F234BB3F8709085B000264FEA71
:103D50005909CDE9026688460090A9F104090D468B
:103D600017464FF4004BB246019223E0631E6E806B
:103D7000AB80A5F800B0A5F806A06200002105F10F
:103D8000080002F00DFF294600980123221DFCF7D0
:103D9000DBFE02AB03CB26446960286008EB4605D6
:103DA00058F81600696802AB03C3019B9E42A7EB5B
:103DB00004070AD2B9454C4628BF3C46B945D5D27E
:103DC00000E0013CE307FCD4D0E708F1080005B0AF
:103DD000BDE8F08F780000202DE9F04FADF5097DAA
:103DE00048AE43F232010022DFF814823160012331
:103DF000B2800446032200683146FCF7A5FED8F8DD
:103E00008C30B5881BB15B69714829469847DDB98C
:103E10007049D8F88030704A284698474FF0040B14
:103E2000A9462946D8F88C304BB15B696B48984756
:103E3000D8F88C301BB15B696948494698475846A9
:103E40000DF5097DBDE8F08FE16820684FF4007240
:103E5000FFF776FFD8F88C300790002B00F0B68083
:103E6000DB68604960489847D8F88C30002B00F038
:103E7000AD801B6A07984FF400719847D8F88C7092
:103E8000079BDFF870C19C1E314688AD002034F9D5
:103E9000023F0CFB03F2002BA8BF03EB83034FEAA6
:103EA0001242A8BFC3EB0313C2F10002B4BF13B2A6
:103EB0001B1321F8023BA9421844E8D10028B8BFDF
:103EC0007F3040F3CF158FB17B694848294698472A
:103ED000D8F88C3053B1DB68424945489847D8F848
:103EE0008C301BB15B6A802130469847DFF814A103
:103EF000404F06954FF001094FF0030BDAF81420FC
:103F0000079B069D03EB0222901E08A947F6FF744B
:103F100030F9023F07FB03F2002BA8BF03EB83033A
:103F20004FEA1242A8BFC3EB0313C2F10002B4BFB1
:103F300013B21B132B4403EB8303DB02C3F1000218
:103F40004FEA1232C2F100024CBF13B243F30F33F7
:103F500021F8023BA342A8BF23468E421CB2D7D110
:103F6000BAF91820BAF91A100695A24201DCA1424A
:103F70000FDACDE9022ACDE900A404911E4A1549C1
:103F8000D8F8805053460020A8474FF000094FF062
:103F9000040BD8F88C2092B15269504621469047C4
:103FA000D8F88C200AF10C004AB1D2680D4990472C
:103FB000D8F88C201AB1526A802108A890470F4B7C
:103FC0000AF11C0A9A4599D101212BE7002757E7EE
:103FD00080AF00089CA500088CAF000854B0000812
:103FE00068B0000818AB0008E0AF0008F8AF0008A0
:103FF00004B0000850FBFFFF0CB00008C0890008A7
:10400000780000206C89000830B5436A012B83B02A
:104010001BD0022B15D0002B36D1214D95F88830BE
:10402000012B05D9D5F880301E4A1F490220984738
:10403000D5F88C3013B11B681C489847012003B099
:1040400030BD03B0BDE83040C6E6154D95F8883068
:10405000012B044605D9D5F88030154A12490220B3
:104060009847D5F894000190D4E90312206801AB79
:10407000FDF7BEFB58B9D5F880300E4A0A4900203A
:104080009847042003B030BD002003B030BD206845
:1040900040F2AD11FCF7F0FE0028ECD00220F4E76E
:1040A000780000207CB000089CA500089CB00008A7
:1040B000B4B00008D4B000082DE9F04FADF2244DA3
:1040C000804603931B788A4693460A2B13D8DFE871
:1040D00013F022000B001701D501970293034C0443
:1040E000BD053706AD062200FFF738F8002840F07E
:1040F000C586039B1B78764DD5F88050754A764966
:1041000000200027A8473B46039A384613700DF25B
:10411000244DBDE8F08F6E4DDDF84804EC220021FF
:1041200002F03EFDD5ED257ADDF84834F8EE677AE9
:1041300003F1E00148A8CDED487AFDF70BF8D5F87A
:104140008C300646002B38D01B6864489847D5F859
:104150008C30002B31D05B69614841469847DDF8CF
:104160004824D5F88C30B2F8E21033B35B695D486F
:104170009847DDF84824D5F88C30B2F8E410E3B164
:104180005B6959489847DDF84824D5F88C30B2F877
:10419000E61093B15B6955489847DDF84824D5F897
:1041A0008C30B2F8E01043B15B6951489847D5F8BC
:1041B0008C3013B11B684F489847002E00F03C86A6
:1041C0004046B5F87060FCF77BFF002800F03486AD
:1041D0004FEA5B0C7608B44528BFB446ACF1020C3C
:1041E0002CF0010C0AF10403CDF8148040F64C3990
:1041F00004931FFA8CFB0026E046C6F534630C33AB
:10420000984594BF5C464C46770860084FEA8701A2
:104210000CD0394B0AEB80001944534651F8042B5B
:10422000DA80120C9A8004338342F7D1DDF84834E7
:104230000498B3F8E23001931C23009322462F4BDD
:104240003146FCF757FE002800F0F685DDF84834CB
:104250000498B3F8E43001931A2300932246274BC5
:104260003146FCF747FE002800F0E685DDF84834CB
:104270000498B3F8E63001931B23009322461F4BAA
:104280003146FCF737FE002800F0D685DDF84834CB
:104290000498B3F8E8300193192300932246174B92
:1042A0003146FCF727FE002800F0C6852346059816
:1042B000394652465E44FCF7B9FDB6B240F64B3380
:1042C0009E4201F25A81A9EB0B091FFA89F994E782
:1042D0007800002064B5000888B5000874A80008BC
:1042E000F8B0000804B1000814B1000820B10008BB
:1042F0002CB100083CB10008048E0008C0890008F9
:10430000FEF72CFF069000283FF4F3AE4122514601
:104310004046FFF715FDAE4D038C0493D5F88C3065
:10432000064653B1DB68AB49AB489847D5F88C30AB
:104330001BB15B6A1021304698470022A6F10209A2
:10434000059217464FF6FF70531E03FB03F3C3EBB2
:10435000C303590001F5167CC83B39F9021F002A36
:1043600000F07A8539F902EC01F57A74A1EB0E01BF
:104370009942C0F26185614500F35E8584EAE47389
:10438000A3EBE4739BB2984204D9910089B2069FD3
:10439000059118460132102AD6D1002F00F04C8525
:1043A000059B83F030030693D5F88C30002B01F089
:1043B000CA80069C5B69894821469847DDF84834E5
:1043C0009C80D5F88C3006F12209F3B11B68844833
:1043D0009847D5F88C30C3B15B698248414698470D
:1043E000D5F88C308BB1DB687A497F489847D5F88F
:1043F0008C3053B11B6A484630219847D5F88C3031
:104400001BB15B69794804999847738C05931A46E8
:10441000B6F880309B1AB3F5FA6FC0F20D85744A76
:104420001B04A2FB03235B09002006F120091022D4
:1044300006464FF6FF7C9E4608E0A14238BF0027A3
:10444000013292B2402A704401F0AF80059B39F8E6
:10445000021F03EB1044049BCB1A002BB8BF5B4236
:104460009BB2634538BF9C4604F5487338BF164677
:104470008B4201F54871E0D20027E1E7FEF76EFEBE
:1044800000283FF436AE524D202251464046FFF7F9
:1044900057FCD5F88C3006468BB15B6951484146D4
:1044A0009847D5F88C3053B1DB684A495148984752
:1044B000D5F88C301BB15B6A202130469847B6F99D
:1044C0000020B44617460121002014463CF9022F73
:1044D00002F548731B1B9BB2B3F5C86F00F2AC84A6
:1044E0009742D8BF084601F10101D8BF17462029DD
:1044F000EBD1072840F2F2871728A0F1070341F219
:104500003580D3F1200240F0EC8748AB0493049847
:1045100030A9FCF793FF002800F08E849DED306AEF
:10452000B5EE406AF1EE10FA00F086849DED317A26
:10453000B5EE407AF1EE10FA00F07E84DDED326ADD
:10454000F1EE666AC6EE877AF5EEC07AF1EE10FA01
:10455000C0F27284B1EE477AC7EE066AF5EEC06A21
:10456000F1EE10FA40F16884B7EE007A77EE877AC0
:10457000FCEEE77A17EE906AB3B23F2BC6F34E0615
:1045800000F25A84D5F88C3086F01006002B00F02B
:10459000E0875B69184831469847DDF84834DE808B
:1045A000D5F88C3013B11B681448984740F2153188
:1045B0004046FCF761FC07460423002F00F03C84D2
:1045C000039A384613700DF2244DBDE8F08F00BFFA
:1045D0007800002018AB0008A0B10008C0B10008A6
:1045E000CCB10008F8B00008E4B10008F8B1000848
:1045F000ABAAAAAA28B200084CB2000858B2000818
:10460000FEF7ACFD00283FF474AD704D50225146CA
:104610004046FFF795FBD5F88C3006468BB15B69B9
:104620006B4841469847D5F88C3053B1DB686949EF
:1046300069489847D5F88C301BB15B6A50213046E9
:104640009847B31E0493DDF84834CDF818800A3338
:10465000CDE907AB059330239846DFF89891049C89
:10466000002047F6FF764FF6E473844683464F46B4
:10467000B24609E0964200F10100C4BFF446164676
:10468000083308289BB21AD034F9022F0FFA83FEA0
:1046900048B134F8021C511A09B28A45A8BF8A46AB
:1046A0008F42B8BF0F46002AE4DA914500F10100BD
:1046B000BCBFF3469146083308289BB2E4D1A7F566
:1046C0001C57103FBFB244F620639F4200F2B483F0
:1046D000BAF1000F40F0B08319F5004F47F6FF73B1
:1046E00000F0F8869E4200F02B87ACEB0B0CBCF17F
:1046F000080F40F0A183A6EB09064FEAC90393FB1C
:10470000F6F3ABEB03030FFA83FCBCF1000FC0F22E
:104710000D87BCF11F0F00F38F831FFA8CF42F4B12
:1047200083F81580D5F88C301BB15B692C48214685
:104730009847059B23F8024F08F101080593049B55
:104740005FFA88F81033B8F13A0F049385D1D5F8A1
:104750008C30DDF820B0DDE9068A13B11B682148F2
:10476000984780235A465146009340461E4BFFF718
:10477000AFFADDF848341D4ADE889B891C49009356
:1047800040460723FEF7F6FF184A1949009608230A
:104790004046FEF7EFFF0323144A154900934046B5
:1047A0000923FEF7E7FF0623104A1149009340460C
:1047B0000A23FEF7DFFF40F2D6314046FCF75CFBF0
:1047C00007460523002F7FF4FBAE35E37800002079
:1047D000F8B0000818AB00086CB200080000002018
:1047E0000800002084B20008008B0008C08900087F
:1047F000048E00080080FFFFFEF7B0FC00283FF4A5
:1048000078AC7B4D4FF4407251464046FFF798FA22
:10481000D5F88C3006465BB1DB6876497648984718
:10482000D5F88C3023B15B6A4FF44071304698471D
:10483000B4460CF5C06308930023059348AB0DF113
:104840003C0B04936D4E6E4FCDF818B018ABCDE90C
:1048500009B80DF1C00A07930DF58E79E0460B9566
:10486000079CC346BBF902103BF9040BFCF754FD4F
:1048700044F8040B5445F5D12FAD2C46C346BBF983
:104880006210BBF96000FCF747FD44F8040F4C458B
:104890000BF1040BF3D1DDE904320DF15C0E981835
:1048A000002155F8043F5EF8042F9B1AB34240F3F1
:1048B000CA82A3F5C9237E3BB342FADC002BB8BF02
:1048C0005B429942B8BF1946A94540F8043BE8D17C
:1048D000069B491043F8041F0693059B603305931C
:1048E000089B08F1C0089845BAD1DDE909B8002154
:1048F0000B9D0A460B465BF8040F9042C8BF194651
:1049000003F10103C8BF0246082BF4D110AB0DF12F
:10491000BF0253F82160049B01EB410103EB4111FD
:104920000DF1D70051F8043BB342ACBF0023012383
:1049300002F8013F82421376F4D10020012306469B
:104940000AE02AB11AF8012C002A04BF1E460120F1
:104950000133302B00F0E0841AF8012F002EF0D044
:10496000002A00F073820130F2E70DF140094FF6A2
:10497000FF73A9F80030FEF7F1FB00283FF4B9AB54
:104980001B4D204AD5F89430A2FB0326DDF84834AD
:10499000B3F8E0305146B6094FF44072404603FB8D
:1049A00006F6FFF7CDF9D5F88C308246002B00F0E3
:1049B0003586DB680F4914489847D5F88C30002BB2
:1049C00000F02C865B6A4FF4407150469847D5F84A
:1049D0008C7048AB1A463046049351464B4693467A
:1049E000FDF72CFA094B0590302603F1180412E06C
:1049F0007800002018AB00089CB200083F24030098
:104A0000C1DBFCFFD34D6210E8B2000800000020BB
:104A1000D5F88C70F6B283F824602FB17F69DBF88B
:104A200000102046B847BA4B372E0BF1040B06F1A5
:104A30000106EDD10598002800F0FE81D5F88C30F4
:104A4000B9F80060002B00F093855B69B1483146EE
:104A50009847DDF848345E84D5F88C3013B11B6874
:104A6000AD489847AD49AE4A009640460C23FEF744
:104A700081FE404640F21741FCF7FEF9002800F0A5
:104A8000DB819FEDA87AF7EE007A56460AF1C00066
:104A90000AF5D86C30AFA0F1C0030024B3F90220AE
:104AA00002FB02F1B3F90020043302FB0212984228
:104AB0001444F3D106EE904AB8EEE66AC030C6EE72
:104AC000076A8445B1EEE66AC7EE866AE7EC016ADA
:104AD000E1D1DDF84834DFED941ADFED940A9FED63
:104AE000941A03F188090AF1600A18AC0DF1E00884
:104AF000049B30A93246B2F90000F1EC016A07EEDE
:104B0000100AB8EEC77AB2F9020027EE267A4145BC
:104B100067EE077A02F1C002C3ED007A07EE900A51
:104B2000F8EEE77A32F9600C67EEA67A03F10C032F
:104B300027EE277A67EEA77A03ED027A07EE100ACE
:104B4000B8EEC77A43ED017A27EE267A32F95E0C89
:104B500067EE077AC3ED157A07EE900AF8EEE77A6A
:104B600067EEA67A27EE277A67EEA77A83ED167AA4
:104B7000C3ED177ABFD1049810222146FCF75EFCE2
:104B8000002800F05981D4ED006A94ED017AF1EE2D
:104B9000E67AB1EE006A66EE866A94ED026A67EE26
:104BA000075A66EE866AB6EE006A76EEE56AF6EEBB
:104BB000085AB1EEE64AC6EE276A77EEE57A26EEA7
:104BC000877A67EEA17A66EE846AF7EE004A77EE9E
:104BD000867A37EE247A76EEE56AB3EE0F5A27EE40
:104BE000207A66EEA16AF4EEC57AF1EE10FA37EE9D
:104BF000067A76EE866A00F36A84F5EEC07AF1EE04
:104C000010FA00F1B084FCEEE77A17EE903A1BB28E
:104C1000B4EEC17AF1EE10FA40F34A846FEA83539E
:104C20006FEA9353F3EE0F7AF4EEE76AF1EE10FABF
:104C300040F32F8443F478730436B24529F8023FD9
:104C40007FF456AF07460723FFF75EBAFEF786FAF2
:104C500000283FF44EAA374D102251464046FFF738
:104C60006FF8D5F88C30814653B1DB683249334850
:104C70009847D5F88C301BB15B6A1021484698479D
:104C8000DDF84834B3F88A30002003F01F0BC3F37B
:104C9000441E9B0A0BF1300B0EF1300EA3F12007DE
:104CA000824604908446014609F102060CE0049A0B
:104CB0009342614640F2B083944604931FFA80FA0F
:104CC0000130082800F0AA8339F9203036F9202075
:104CD0000BFB03F302FB07F4002BB8BF3F33002CA0
:104CE00002FB0EF2B8BF1F349B11002A03EB6413C2
:104CF000B8BF3F321BB242F38F1203FB03F302FB38
:104D000002338B42DCD96345D1D81946D8E700BFBE
:104D1000000000200CB300081CB30008048E00083B
:104D2000C0890008000040420000804200000042AC
:104D300000007C427800002018AB000838B300085F
:104D4000FEF70CFA00283FF4D4A9A54D6022514685
:104D50004046FEF7F5FFD5F88C30064653B1DB68C8
:104D6000A049A1489847D5F88C301BB15B6A6021F7
:104D700030469847DDF8483403F126073A46563363
:104D800000213046FCF7C6FF002855D0DDF8483436
:104D9000DDF84814304603F15806324688338A312C
:104DA000FCF7B8FF002847D0D5F88C30002B32D064
:104DB000DB688C498D489847D5F88C305BB35B6ACB
:104DC000182138469847DDF84824D5F88C30B2F9D8
:104DD000561003B35B6986489847D5F88C30D3B139
:104DE000DB68804983489847D5F88C309BB15B6A73
:104DF000182130469847DDF84824D5F88C30B2F9B0
:104E0000881043B15B697C489847D5F88C3013B162
:104E10001B687A48984740F27C414046FCF72CF8E2
:104E200007460923002F7FF4CBAB05E0FEF796F988
:104E3000002840F0F7806A4D039B1B78FFF75CB9B0
:104E400003F5C9237E33BB42FADB37E50B2800F2BA
:104E50006382104616467BE501F57A73002BB8BFD6
:104E60005B429BB2984202D80122FFF76DBA184606
:104E70000023069F05930122FFF766BA43F232032F
:104E800048930023ADF824310322012348A940466A
:104E9000FBF75AFE514612224046BDF82471504D90
:104EA000FEF74EFFD5F88C30B0F800B0B0F802A095
:104EB00006460436C3B15B69514841469847D5F868
:104EC0008C308BB15B694F4851469847D5F88C3090
:104ED00053B1DB6843494C489847D5F88C301BB137
:104EE0001B6A102130469847002399464FF6FF7100
:104EF00047FA03F2D2070CD536F81320A2EB0A02C8
:104F0000002AB8BF524292B28A423CBF1FFA83F9CC
:104F100011460133102BEBD109F1FF330D2B8BD848
:104F200009F10043013B06EB430036F813204388A8
:104F300041F28731D21A8A427FF77EAF4FF6FF7275
:104F400097423FF479AF82889B1A8B427FF774AF08
:104F500040F2E51303FB0BF31B0CA3F589731AB2A4
:104F60001433C0F260832C2A40F35B834F2ACCBFFA
:104F700004260326D5F88C30C3B15B692348594613
:104F80009847D5F88C308BB15B69214839469847F2
:104F9000D5F88C3053B15B691E4849469847D5F81F
:104FA0008C301BB15B691C4831469847DDF84834AA
:104FB0001A4AA3F800B09E84A3F802901849CDF8CD
:104FC000009025234046FEF7D5FB40F233214046B2
:104FD000FBF752FF07460223002F7FF4F1AA2BE7CD
:104FE0007800002018AB00088CB30008B8B30008A4
:104FF00038B40008E4B300082CB4000854B4000826
:10500000F8B000084CB1000858B1000874B10008AD
:1050100080B1000888B1000894B10008C089000878
:10502000048E0008A84D4FF49C6251464046FEF79E
:1050300087FED5F88C3006465BB1DB68A349A448EF
:105040009847D5F88C3023B11B6A4FF4C0713046B5
:1050500098470DF13C080DF1400918AB0DF1C00A5D
:105060000027079348AB01971A46C8F800700493CD
:10507000CDF800904346C9F80070CAF8007090213E
:1050800030461897FCF764FF00283FF4D5AECDE911
:1050900000A7079B049AF02106F59070FCF758FFD3
:1050A00000283FF4C9AED9F80010DAF80030894A78
:1050B00089485B1A03FB02F200FB01F1120CC2EB00
:1050C0005132DDF84814C1F8BC20D8F8002000FBAC
:1050D00003F100FB02F2DDF84834520BC3F8C010B4
:1050E000C3F8C420D5F88C3063B35B697B4898471C
:1050F000DDF84824D5F88C30D2F8BC1013B35B69C6
:1051000077489847DDF84824D5F88C30D2F8C41099
:10511000C3B15B6973489847D5F88C3093B11B686D
:1051200071489847D5F88C3063B1DB6867496F48A0
:105130009847D5F88C302BB11B6A4FF4587106F59F
:10514000407098470027049ACDF8008001970EAB75
:1051500040F21F1106F20230FCF7FAFE00283FF47D
:105160006BAE079B049ACDE900934FF490710DABA1
:1051700006F5A860FCF7ECFE00283FF45DAECDE933
:10518000007A3B46049A06F5F0604FF49071FCF704
:10519000DFFE074600283FF44FAE079B0D99D3F87A
:1051A00000E00E9BDAF80000D8F800C0D9F80060E3
:1051B000DFF82481DFF85CA14D4ADDF84844A3EB19
:1051C00001094C4BA0EB0E00A6EB0C0600FB03F311
:1051D00006FB02F208FB0EFE0AFB09FA1B0CC3EBEE
:1051E0005E3308FB0CFC08FB06F64FEA1A4A120C69
:1051F00008FB01F1C2EB5C32CAEB5131C4F8D83084
:1052000008FB00F008FB09F3C4F8D4603A4EC4F878
:10521000CC30C4F8D020C4F8DC00C4F8C81004F1C5
:10522000FF3C04F1EB0E4FF0FF331CF8012F082078
:10523000534043F300023240013882EA5303F8D16D
:10524000E645F2D1DDF84824DB43C2F8EC30D5F86E
:105250008C30002B34D05B6928489847DDF84834FF
:10526000D3F8CC10D5F88C3053B35B6924489847F9
:10527000DDF84834D3F8D010D5F88C3003B35B692F
:1052800020489847DDF84834D3F8D410D5F88C304E
:10529000B3B15B691C489847DDF84834D3F8D8109F
:1052A000D5F88C3063B15B6918489847DDF848241D
:1052B000D5F88C30D2F8DC1013B15B6914489847EC
:1052C0000A23FEF721BF00BF7800002018AB0008BA
:1052D0006CB40008A82A0400AA0A010080B40008DF
:1052E00094B40008A8B40008B8B40008D0B400080A
:1052F000A64A07004E750B002083B8EDE4B4000801
:10530000F8B400080CB5000820B5000834B5000852
:105310004CB5000854150200A0F10C03082B3FF611
:105320008BAD06EB5006172E02D9183E172EFCD86F
:10533000D5F88C30002B00F02D815B69BB483146DD
:105340009847DDF84834B2B21A81D5F88C302BB1C9
:105350001B68B7489847DDF848341A8993009BB218
:1053600003F13006B6B25F2E40F21981B14AA2FBBA
:105370000612920902EB4202A6EB421292B24FF0E1
:1053800000091E46CA4613460127AB4AAB490093A3
:1053900040462123FEF7EEF9A74AA84900962223AA
:1053A0004046FEF7E7F90326A34AA44900970123E4
:1053B0004046FEF7DFF9A04AA04900960223404686
:1053C000FEF7D8F99C4A9D49CDF800A033464046E7
:1053D000FEF7D0F9984A9949CDF800900423404649
:1053E000FEF7C8F9944A9549009705234046FEF711
:1053F000C1F90023904A9149009340460623FEF7E5
:10540000B9F940F2ED314046FBF736FD0746062379
:10541000002F7FF4D5A80FE59C4651E4049BB1EB27
:10542000530FBFF409ADD5F88C30002B00F09680F7
:105430005B69834851469847DDF84834A3F820A0BB
:10544000D5F88C3013B11B687E4898477A4A7B495F
:10545000CDF800A00B234046FEF78CF90023764AD6
:105460007649009340460923FEF784F97E23724A69
:105470007249009340460A23FEF77CF940F25341FB
:105480004046FBF7F9FC07460823002F7FF498A855
:10549000D2E4F5EEC06AF1EE10FA3FF5CDABFCEECA
:1054A000E66A16EE902A43EA42131BB2FFF7C4BB2A
:1054B000B5EEC07AF1EE10FA3FF5B4ABBCEEC77AA8
:1054C00017EE102A43EA82231BB2FFF7ABBB1F2360
:1054D000FFF79EBB9E427FF418A9ADE400F10802DD
:1054E000002348A9981806EB4000049106EB4306F8
:1054F00007EE903A36F9024BF8EE677AB042C1ED0A
:10550000027A07EE904AF8EEE77A03FB03F4C1ED66
:10551000007A07EE904AF8EE677A03F10103C1EDD5
:10552000017A01F10C01E3D1FEF7F1BFCCF10004E7
:10553000A4B21F2C3FF680AC44F02004FFF7EFB874
:10554000DC46FFF7E2B8DDF84834069A9A80FEF7A9
:105550005CBFDDF84834DE80FFF728B8DDF848345A
:10556000A3F820A072E70023FFF752BB0F22B8E791
:10557000DDF848345E84FFF775BADDF814804FF427
:10558000AE714046FBF778FC07460123002F7FF4FD
:1055900017A851E4DDF84834B2B21A81DEE64FF0C4
:1055A00003094FF0010A0027EFE6002F3FF444AC57
:1055B000D5F88C301BB15B69234831469847DDF83C
:1055C00048345E81D5F88C3013B11B681F4898476A
:1055D000012300934FF47E535A465146ADF82031D3
:1055E000404648ABFEF774FB134A14490096262345
:1055F0004046FEF7BFF806990F4A009124230F4951
:105600004046FEF7B7F840F2C6214046FBF734FCAF
:1056100007460323002F7EF4D3AF0DE40027FFF7E6
:10562000D8B90226A6E40126A4E400BFC0B200084F
:10563000CCB20008ABAAAAAAC0890008048E000850
:105640005CB300086CB3000804B2000810B2000894
:105650002DE9F043436A85B0002B00F0A380012BB5
:1056600004461CD0056ED0E9011225B1894B28688B
:10567000984200F0AC80884E884AD6F8803088493D
:10568000002098470020D6F88030864A86499847FF
:10569000206EFBF701FA042005B0BDE8F0837E4ED2
:1056A00096F88830012B05D9D6F880307F4A7E499C
:1056B000022098477A49D4F8009037221420FBF74B
:1056C00087FB0546002800F09A80002707604760A6
:1056D0008760C76007617649782240F25E20FBF759
:1056E00077FB8046002800F08180394640F25E2238
:1056F00001F056FA0123674A88F8C43188F8C631A8
:105700002A604FF44052C5E901796F73C5F81080E3
:1057100002A9029248460322ADF80C70FBF714FA76
:10572000D6F88C30BDF80C7083B11B68614898477F
:10573000D6F88C3053B15B695F4849469847D6F834
:105740008C301BB15B695B483946984727F00F03E3
:1057500041F21022934255D03B46584A5849D6F858
:1057600080700020B8472846FBF796F943F21C03E7
:10577000029302A90123484600250322ADF80C50EC
:10578000FBF7E2F9BDF80C301B0538D5D6F88030B0
:105790004C4A4349002098472846FBF77DF90023EF
:1057A000236678E73C4E96F88830012B05D9D6F869
:1057B0008030454A3C4902209847D6F88C3013B1D6
:1057C0001B6842489847012005B0BDE8F083A1B1AD
:1057D00004F16403A868009305F10D03FEF76CFC67
:1057E00058B16B7B0A2B50D0022055E72861B36F6C
:1057F00028469847C4F860804DE7274E42E70023CB
:10580000236648E743F21C03029300234846ADF8A1
:105810000C3002A901230322FBF796F9BDF80C0016
:1058200010F40067B2D1A868FBF730FCAE68032221
:1058300000923946304640F24913FBF7F7FB3046F9
:1058400040F24913009704220221FBF7EFFB304698
:1058500040F24913009710220421FBF7E7FB304682
:1058600040F24913009720220521FBF7DFFB304669
:1058700040F2491300974FF47F520621FBF7D6FB05
:105880003846256605B0BDE8F083206EFBF704F9C5
:10589000032001E70EB037137800002068A5000848
:1058A00080A500084CB600089CA50008D4B50008E7
:1058B000F4B5000808B60008F8B0000810B60008F3
:1058C00064A7000830B600089CB50008BCB5000805
:1058D000FEE700BFFEE700BFFEE700BFFEE700BF38
:1058E000FEE700BF704700BF704700BF704700BFB2
:1058F000024AD36E0133D366704700BF78000020A0
:105900000C4B0D49D3F898204FF480104861D168B2
:10591000490503D4012283F8B9207047D168C9B280
:1059200061F49061D1600120012283F8BC0083F80A
:10593000B92070477800002000040140034B5A69E9
:10594000120744BF08225A61704700BF000401409B
:105950000148FAF76FBD00BF500200200148FAF776
:1059600069BD00BF980200200148FAF763BD00BF7F
:10597000380100200148FAF75DBD00BF800100201A
:10598000084810B4D0F86832D0F89C4299691A6877
:105990002CB1234600F51A705DF8044B18475DF8EA
:1059A000044B70477800002070B5AE4CD4F85051CD
:1059B000EB692A68A96840F60F00034240F087802F
:1059C000980602D5960600F1F380D4F8B0010128BC
:1059D00016D0D80202D5490200F1F4801E0605D483
:1059E000590602D5530600F1258170BD1006F7D582
:1059F000D4F8BC31002BF8D0BDE870409A48184765
:105A0000DE06E6D5D006E4D510232B62AB68B4F8E9
:105A1000A8215B0640F14281D4F8C43119684B6873
:105A20009BB2002B00F09681934280F09381A4F802
:105A3000AA310B689E0644D455E8003F23F48073D6
:105A400045E800324AB1D4F8502152E8003F23F42F
:105A5000807342E800310029F5D1D4F8502102F1D9
:105A6000080353E8003F23F00103083242E8003105
:105A70000029F2D1D4F8502102F1080353E8003F85
:105A800023F04003083242E800310029F2D12023FC
:105A9000C4F8D031C4F8B011D4F8502152E8003F16
:105AA00023F0100342E800310029F5D1D4F8C431C5
:105AB00093F82520022A00F054810422DA6383F847
:105AC00024100223C4F8B431B4F8AA3170BD11F027
:105AD000010640F09E80654802423FF476AFD80749
