:020000040800F2
:1000000000000120F1990008C1810008C5810008A5
:10001000C9810008CD810008D181000800000000DE
:10002000000000000000000000000000D581000872
:10003000D981000800000000DD810008E18100088E
:10004000419A0008419A0008419A0008F581000889
:10005000419A0008419A0008419A0008419A000814
:10006000419A000831820008419A0008419A00082C
:100070004582000851820008419A0008419A000810
:100080005D82000869820008419A0008419A0008D0
:10009000419A0008419A0008419A0008419A0008D4
:1000A000419A0008419A0008419A0008419A0008C4
:1000B000419A00080000000000000000419A00087A
:1000C000419A000875820008419A0008419A000888
:1000D000419A0008419A00089D820008419A000850
:1000E000898600089D8600080000000000000000CE
:1000F0000000000000000000000000000000000000
:1001000000000000419A000800000000419A000829
:100110000000000000000000419A0008419A000819
:10012000419A0008419A0008419A0008419A000843
:10013000419A0008000000000000000000000000DC
:10014000419A0008419A0008419A00080000000006
:10015000419A0008419A0008419A0008419A000813
:10016000419A0008419A0008419A000800000000E6
:10017000419A0008419A00080000000000000000B9
:10018000419A0008419A0008419A000800000000C6
:10019000BFF34F8F0549064BCA6802F4E062134370
:1001A000CB60BFF34F8F00BFFDE700BF00ED00E065
:1001B0000400FA0508B518B1064B02689A4207D048
:1001C000054B064A1B69064900209847002008BDD8
:1001D000012008BD0FB0371378000020EC000108A3
:1001E0000401010808B518B1064B02689A4207D00D
:1001F000054B064A1B69064900209847002008BDA8
:10020000012008BD0EB03713780000200C01010852
:1002100024010108B5EEC00ADFED0D7A9FED0D7ADD
:10022000F1EE10FA54BF30EE270A37EEC00ADFEDC8
:10023000087A70EE277AFCEEE77AF8EE677A30EE0D
:10024000670A20EE070AFCEEC07A17EE900A7047A4
:10025000BD3706350024744990F824C0BCF1010F65
:100260003CD070B590F825C00124A44580F8244006
:100270005FFA8CFE04D0002380F82430022070BD89
:10028000022580F8255004680025C5632668456C62
:1002900026F00106266005F01C05066C0EFA05F531
:1002A000756063608368102B036B0BBFA260A16055
:1002B000E160E2604BB1236843F00E0323602368E2
:1002C00043F001030020236070BD236823F0040382
:1002D0002360236843F00A032360F0E7022070479D
:1002E0002DE9F0417A4C0023237694F87D30012BE0
:1002F0000D46616A08D0B1F5827F64D1D8B2A36A95
:10030000002B60D104285ED1002D5CD092B2002A6F
:1003100059D094F87C30012B55D094F87D30266A62
:10032000A565042B1CBF052384F87D300121002323
:10033000C4F8803084F87C10A4F85E20A4F866200D
:10034000C4E91B337368A4F85C2023F4C04325661A
:10035000A4F864207360E36AA06FB3F5E06F34D84B
:10036000636F99697368B1F5806F43F4805373606C
:1003700000F082808369B3F5806F69D094F87D3096
:10038000544A042B544B18BF1346544A0363544B2E
:100390004363544B18BF1346C362B4F866304FF042
:1003A0000008C0F838809BB206F10C012A46FFF71E
:1003B00053FF074670B1D4F8803084F87C8043F056
:1003C0001003C4F88030BDE8F081736823F48053D3
:1003D0007360D3E77368606F43F001037360B4F830
:1003E0005E300A46C0E90B77C0E90D7729469BB21B
:1003F000FFF732FF00284CD133685B0623D500237A
:1004000084F87C30736843F020037360736843F0B2
:1004100002037360D4F88420237E002BD3D141F2F1
:10042000873109E072B6237E03B930BF62B6BFF3ED
:100430006F8F237E002BC6D1D4F884309B1A8B4259
:10044000F0D9BDE8F081336843F040033360D6E76C
:10045000736823F480537360B4F8663013F0010FAF
:1004600073681FD123F400537360B4F86630C3F38C
:100470004E03A4F8663081E7D20773681DD423F4D5
:1004800080437360B4F85E30C3F34E03A4F85E306B
:1004900070E7D4F8803084F87C7043F01003C4F81F
:1004A000803090E743F400537360B4F86630C3F3D0
:1004B0004E030133A4F8663060E743F48043736071
:1004C000B4F85E30C3F34E030133A4F85E3051E755
:1004D00078000020510A00084D0A0008751D000828
:1004E000550A0008C51C000870B4436C066C05680A
:1004F00031682C6803F01C0304229A400A420ED093
:1005000014F0040F0BD02B689B0603D42B6823F048
:1005100004032B60036B7260CBB170BC18470222DE
:100520009A400A4215D014F0020F12D02B68990697
:1005300006D42B6823F00A032B60012380F82530B2
:10054000C36A7260002180F82410002BE5D170BCD2
:10055000704708229A400A42F9D02207F7D52A6844
:10056000416B22F00E022A60012202FA03F30024FA
:100570007360C26380F8244080F825200029E6D00B
:1005800070BC0847234A9368D26813F00C0305D067
:100590000C2B32D0042B36D11F4870471D4A1168EE
:1005A000090754BFD2F8942012681C4954BFC2F303
:1005B0000322C2F3031251F82200002BEDD0154B99
:1005C000DB6803F00303022B22D0154A032B08BF7C
:1005D0001046104BD968DA68DB68C3F34163C2F395
:1005E0000622C1F30211013300FB02F201315B006C
:1005F000B2FBF1F2B2FBF3F0704702F00302012A02
:10060000CCD00020DBE7082B054818BF002070473E
:100610000148DEE7001002400024F40098C1000801
:1006200000127A00064A074B92680749C2F3022279
:100630001344086893F8303003F01F03D840704724
:100640000010024098C1000800000020064A074B35
:1006500092680749C2F3C2221344086893F8303005
:1006600003F01F03D84070470010024098C10008F3
:1006700000000020434A036830B4D468A40707D0C0
:10068000D46804F003049C424AD0012030BC704777
:10069000022B56D0032B4DD0012BF6D112689207B6
:1006A000F3D5384CE26822F0730213434268013AF2
:1006B00043EA0213E360334C334A236823F0806338
:1006C0002360D2F8845004E0D2F884305B1B022B04
:1006D0003BD823681B01F7D483681B02002936D15D
:1006E0002169C56821F0784121F4FE4143EAC563E0
:1006F0000B43236123490B6843F080630B60D2F8FE
:10070000844004E0D2F884301B1B022B1DD80B68F8
:100710001B01F7D582690B69134300200B61B5E714
:10072000002CB2D0D3684268C3F302130133934262
:10073000ABD1C0E71468A403B3D412685203A4D5A4
:10074000AFE712685505A0D5ABE703209EE7012966
:1007500021690BD021F0C06121F4FE4119434369A6
:100760005B08013B41EA43612161C3E721F4C00119
:1007700021F4FE410B4301694908013943EA415321
:100780002361B7E70010024078000020F0B504684C
:100790000546200583B000F1F5800026A10351D560
:1007A000A74B9A6DD20040F1F8800027A549A64AD0
:1007B0000B6843F480730B60D2F8840005E0D2F834
:1007C00084301B1A022B00F201810B68DB05F6D581
:1007D000AEBB9B49A86DD1F8903013F4407326D07E
:1007E000834224D0D1F890C0D1F8903043F48033C4
:1007F000C1F89030D1F8903023F48033C1F89030B4
:100800001CF0010F2CF44073C1F890300FD0D2F8D7
:1008100084E041F2883C06E0D2F88430A3EB0E037A
:10082000634500F2D380D1F890309B07F4D5844A19
:10083000D2F8903023F440730343C2F89030002F75
:1008400040F0DC80E10708D57D4A296AD2F888307B
:1008500023F003030B43C2F88830A20708D5784A77
:10086000696AD2F8883023F00C030B43C2F8883051
:10087000630708D5724AA96AD2F8883023F030039A
:100880000B43C2F88830A70608D56D4AE96AD2F84A
:10089000883023F440630B43C2F88830A00508D5A4
:1008A000674AE96BD2F8883023F440230B43C2F83F
:1008B0008830610508D5624A296CD2F8883023F463
:1008C00040130B43C2F88830620608D55C4A296B96
:1008D000D2F8883023F440530B43C2F88830230603
:1008E00008D5574A696BD2F8883023F440430B434C
:1008F000C2F88830E70508D5514AA96BD2F888308C
:1009000023F440330B43C2F88830200323D4374606
:1009100061030FD54A4AE96CD2F8883023F040636E
:100920000B43B1F1006FC2F8883000F08380B1F161
:10093000806F77D03E4662044DD43046230408D5FC
:100940003F4A696DD2F8883023F080430B43C2F8E8
:10095000883003B0F0BD3A4AA96CD2F8883023F051
:1009600040630B43B1F1006FC2F888304CD0B1F155
:10097000806FCCD10121281DFFF77CFE074600289F
:10098000C5D0C5E76F6CB7F5000F11D0B7F5400FB4
:1009900013D0002F3DD0012600E79A6D42F080521F
:1009A0009A659B6D03F080530193019B0127FDE63F
:1009B000234AD36843F48033D360214AD2F8883085
:1009C00023F440033B43C2F88830E6E60326002FB9
:1009D0003FF438AF12E01A492A6DD1F8883023F07D
:1009E00040531343B2F1805FC1F88830A5D1022192
:1009F000281DFFF73FFE00289FD09FE7104A936D08
:100A000023F0805393651DE7D36843F48013D360CC
:100A10007DE73946281DFFF72DFE064600287FF4A6
:100A2000BDAECAE70121281DFFF724FE06460028B7
:100A300080D080E7D36843F48013D3607AE700BFA7
:100A4000001002400070004078000020704700BF96
:100A5000704700BF836A19684A6822F003024A603F
:100A60001A6E4FF0010C42F010021A6683F85DC056
:100A7000704700BF026852E8003F23F4907342E8D9
:100A800000310029F7D102F1080353E8003F23F0B9
:100A9000010302F1080C4CE800310029F3D1036E88
:100AA000012B06D000232022C0F880208366036635
:100AB000704752E8003F23F0100342E8003100295C
:100AC000F0D052E8003F23F0100342E80031002943
:100AD000EFD1E7E770B50568EC6931EA040405D0A9
:100AE0005E1C06D1EB6931EA0303FBD100231846F3
:100AF00070BD164CD4F88440A41AA34218D3BBB1DD
:100B00002C686407E8D58029E6D04029E4D0EC6958
:100B100014F008040ED1EE693605DDD54FF40063FC
:100B20002B62FFF7A7FF2023C0F8843080F87840BD
:100B30000323DCE708242C62FFF79CFF002201233B
:100B4000C0F8844080F87820D1E700BF780000200A
:100B5000836A0022A3F85A20A3F85220704700BFEE
:100B6000B1F804C093680A899A80BCF1000C18BFE0
:100B70004FF0010CCA7983F800C091F806C083F8E1
:100B800001C09A70986070472DE9F041174F1D46DB
:100B90007B6913B1BDE8F0411847FB684FEA420892
:100BA000002AF7D08F1EA8F1020406468E460C4498
:100BB0003A4632F802CF9CFA9CFCA242A2F800C04E
:100BC000F7D142467146304698470DB9BDE8F081ED
:100BD00037F8023F5BBAA7423B80F7D037F8023FB5
:100BE0005BBAA7423B80F3D1F0E700BF780000205A
:100BF0002DE9F04FA5B00446FFF7F4FA10B925B07F
:100C0000BDE8F08FDFF80481A56898F88830012BE3
:100C100005D9D8F81030374A37490220984778224A
:100C2000364906A80AF09EFCD8F81430344A0492DB
:100C3000002B55D004AF0222394628469847DFF8EA
:100C4000D0A00DF1180B0026BBF80440BBF80690AD
:100C5000A144A14532DD039705E06246984701347F
:100C6000A4B2A14529DD44F4405C0399ADF810C05D
:100C7000012328460322ADF81260ADF81460FFF797
:100C800083FFDBF80830BDF814C021462846002B4E
:100C9000E3D198F888201849012A2B4652464FF094
:100CA0000200DCD9DBF80070CDE9007C0134D8F813
:100CB0001070A4B2B847A145D5DC039F0BF10C0B13
:100CC00024AB9B45C0D198F88830012B97D9D8F830
:100CD00010300C4A0849022025B0BDE8F04F1847F3
:100CE000094B049304AFD8F80C3004223946284647
:100CF0009847A4E72C01010868010108D0C1000849
:100D0000D51001009001010810D5000178000020E5
:100D10007C01010810B1024B9B681847704700BF67
:100D20007800002010B520B10C4B02689A420446AE
:100D300007D00B4B0B4A1B690B49BDE81040002044
:100D40001847406818B1C3689847002363600023C0
:100D500023602046BDE81040DCE700BF0DB037132C
:100D600078000020CC010108E801010810B5044614
:100D7000FFF738FA00B910BD20690023236008B1DD
:100D8000FFF7C8FF2046BDE81040C3E703460068F0
:100D9000D3F8E8104268C3F8F0101047704700BF5E
:100DA0002DE9F047D0F800800546B8F1000F1ED0BD
:100DB000D8F898700FB3124E07F148044FF00009AD
:100DC000583754F8040F18B1B3689847C4F8009026
:100DD000A742F6D1D8F89800B36800B19847B36835
:100DE00040469847B3682846BDE8F0471847044E88
:100DF0002846B368BDE8F0471847014EEFE700BF4B
:100E000078000020F8B505460088002A1C460CBF73
:100E10004FF400534FF48053B0F59C6F0E460ED341
:100E200000F151077F008342BFB235D21C4B1D4AEF
:100E30001B691D49002098474FF0000C03E040F665
:100E400062274FF0010C1949194AC4E9011202F155
:100E50001912E26002F11912226123460022628017
:100E60005122A28223F8167B29686A68A868EF6875
:100E7000C4F816105A609860DF602969A8696A6929
:100E80009861196196E803005A61AA8B9A833434F9
:100E900084E803006046F8BD4FF0010CD3E700BFC3
:100EA00078000020F401010814020108010002008A
:100EB00003001B0000B583B041F4A0410123944618
:100EC0004FEA124EADF80010ADF8023004220023B4
:100ED0006946ADF804E0ADF806C0FFF755FE03B073
:100EE0005DF804FB10B50E4C8C461146228803F1C8
:100EF000020EB2EB4E0F06D223690A4A0A49BDE838
:100F0000104000201847013B4CF4A04C4B802EF0C1
:100F10000042A1F800C0BDE81040002334E600BF45
:100F2000780000202802010848020108F0B583B0CB
:100F300043F21C02009201230E460024032269465C
:100F40000746ADF80440FFF71FFEBDF8043013F468
:100F5000006517D141F21B042B4669463846022230
:100F6000009446F40066FFF70FFE38462B466946AC
:100F70000222ADF80040ADF80260FFF705FE012047
:100F800003B0F0BD044B054A1D69054920463B46A8
:100F9000A847204603B0F0BD780000205C0201089D
:100FA0008C020108F0B5012983B00546144621D012
:100FB000022909D01B4B1C4A1C691C49034600200E
:100FC000A047002003B0F0BD43F24603842700266B
:100FD000ADF800302846012303226946ADF80260CF
:100FE000ADF80460FFF7D0FDBDF8040030B164B97E
:100FF0000120E7E743F245038327E8E7094B0C4A62
:101000001C690A492B46A047DBE747F48057334663
:10101000694628460222ADF80070ADF80260FFF77D
:10102000B3FDE5E778000020A40201088C02010866
:10103000C0020108F0B5012985B00646154631D039
:10104000022924D143F2320301240027ADF80830ED
:101050000322012302A93046ADF80A70ADF80C70E6
:10106000FFF792FDBDF80C306B8003F00702012AF8
:101070002A8027D013F0060018D11649164A0C69A9
:1010800016490096A0470024204605B0F0BD114B3C
:10109000134A1C69114903460020A0474FF44053EE
:1010A0000024D2E743F233030C46CEE7023A012A8A
:1010B000EAD9084A0096146908490A4A3846A047FE
:1010C0002F80E0E70349084A0C6904490096384636
:1010D000A047D8E778000020F40201088C0201083C
:1010E000A4020108580301082403010810B582B0C6
:1010F00001AA01210446FFF79DFF0022012120469D
:10110000FFF750FFBDF80430022B08D00549064A0E
:101110000C6906490020A047002002B010BD012044
:1011200002B010BD780000208C030108D403010830
:1011300010B50C4C94F88810012982B00FD90A49D7
:10114000246912F4006F0346084818BF0846C2F32A
:101150000A01CDE90001064A06490220A04702B073
:1011600010BD00BF78000020F4030108FC03010853
:10117000040401086801010810B50A4C94F888C0FD
:10118000BCF1010F82B00AD92C3989B2034610464E
:101190002469054ACDE9001004490220A04702B0A5
:1011A00010BD00BF78000020180401086801010884
:1011B00030B5084991F88840012C83B008D902F075
:1011C0000F040D69044A0549009403460220A8470C
:1011D00003B030BD78000020400401086801010818
:1011E00010B50A4C94F888C0BCF1010F82B00AD93E
:1011F0007D3989B2034610462469054ACDE90010BD
:1012000004490220A04702B010BD00BF78000020B2
:10121000600401086801010810B5A1F1620C134CCB
:101220001CF0010F034694F888E084B01FFA8CF09C
:101230000DD1BEF1010F08D9400824690292CDE911
:1012400000010B4A0B490220A04704B010BDBEF1BB
:10125000010FFAD9400824690292CDE90001064A3B
:1012600004490220A04704B010BD00BF7800002050
:101270009004010868010108C804010810B50A4C6F
:1012800094F888C0BCF1010F84B00BD90346A1F5D6
:101290008C7080B224690090CDE901120220034ACB
:1012A0000349A04704B010BD7800002000050108E4
:1012B000680101082DE9F04F1F4EDFF888B0804625
:1012C00015460FCE91B002AC0FC40FCE0FC40FCE97
:1012D0000FC49BF888C096E80300BCF1010F84E8B6
:1012E000030007D9DBF81040144A1549009543461E
:1012F0000220A047DFF850A0DFF8449002AC10AE07
:1013000002E00834B44213D0A3881D42F9D09BF800
:101310008820012A4346524649464FF00200F0D940
:1013200027680097DBF810700834B847B442EBD157
:1013300011B0BDE8F08F00BF48C2000828050108C1
:101340006801010878000020440501082DE9F047F4
:1013500082B0BDF828400B9F03EBC4056B88002BBF
:1013600044D06E68844601EB0208043E4FF0000E44
:1013700056F8044F620092B28A4233D3424531DAC2
:10138000C4F30170012817D002283AD090BB521A3A
:1013900093B2C4F34459012202FA09F2974249D3A5
:1013A0003349013A0C6901923249334A0097A04708
:1013B000002002B0BDE8F087521A92B20CEB42094D
:1013C0003CF81200B9F8023043EA004323F00F035F
:1013D00017B1C4F303442343180C2CF81200A9F8E6
:1013E00002306B880EF1010E7345C1D8012002B0A6
:1013F000BDE8F0871E4B214A1B691E490020984713
:10140000D6E7521A92B20CEB42003CF81290438895
:1014100043EA094323F00F0317B9C4F303442343FA
:101420001C0C2CF8124043806B880EF1010E7345A2
:101430009ED8DBE7C4F3044A0CEB43043CF81300EA
:101440006288C9F1200942EA00424FF0FF3020FAD9
:1014500009F000FA0AF022EA000207FA0AFA42EA60
:101460000A02100C2CF8130062806B88BAE700BFE8
:101470007800002090050108580501089C05010826
:101480002DE9F04383B01D4643F440534FF000086C
:10149000BDF82840ADF8003089461646694601235C
:1014A000032245F480550746ADF80280ADF804806C
:1014B000FFF76AFBADF80050BDF9045004FA09F4D7
:1014C0006C4004EA0602554043466946384602220B
:1014D000ADF80250FFF758FB03B0BDE8F08300BF42
:1014E00030B583B00025294600957B23FF220446B2
:1014F000FFF7C6FF0121009120468B230222FFF750
:10150000BFFF8B238022009507212046FFF7B8FFFD
:1015100003B030BD70B582B043F2370200230092B1
:10152000ADF804300322012369460546FFF72CFB82
:10153000BDF8043013F0C00F19D143F21C0201238F
:1015400000920024694603222846ADF80440FFF7C4
:101550001BFBBDF804301B0515D50E4B0E4A1E694A
:101560000E4920462B46B047204602B070BD094BBD
:1015700093F88820002AE0D01C69094A07492B46C5
:101580000120A047D9E72846FFF7AAFF012002B0B3
:1015900070BD00BF78000020EC0501088C02010836
:1015A000C0050108002870B446DB0029034639DB7A
:1015B00088420A464BDA0025012429461B04B3FB66
:1015C000F2F343F6284293425AD946F2D632934276
:1015D00061D948F6720293425FD94AF64942934272
:1015E0005DD94DF2A30293425BD94FF24B72934205
:1015F00098BF052045D94FF24C7648F233224CF281
:10160000A3409B1B02FB03F300EB134014B1C0F596
:10161000C9301F3015B1C0F549303F30C1B140422B
:1016200070BC7047494209B2884217DA002501248C
:101630000A4603462146C1E7404202B2002910464D
:1016400014DB91420B4605DD99BB1D4800E050BB01
:1016500070BC7047002401252146AFE70028DED08A
:1016600000250B4602462C460121A7E7494209B254
:101670008A424FF00105DADB0B46002429469DE73C
:101680000020104A02EBC00602EB8002D6E93A6065
:10169000D2F82021B5E70120F3E70220F1E703208B
:1016A000EFE70420EDE700250B4602462C462946CD
:1016B00084E701251A462C46034600217EE700BF39
:1016C0002092010098C100082DE9F04706468046A7
:1016D00002EB42008CB0154606EB800000228946E2
:1016E0000DF10C0A014617464FEA870E54469FED4E
:1016F000767AB31A75B103EB020CF444DCED007A90
:101700009C46DCED006A0C3367EEA67A8B4237EE1E
:10171000277AF0D10EF1040EBEF10C0FA4EC017A81
:10172000E5D10137032F0AF1100AA2F1040201F1F9
:101730000401D9D19DED045ADDED055ADDED086AAD
:101740006A4606F10C01DFED607A43463DB11C4666
:1017500094ED007A0C33834277EE877AF7D108F163
:1017600004088845E2EC017A00F10400EBD19DED1C
:10177000037AF0EEC77AF4EE677AF1EE10FA12D639
:101780009FED526AF4EE467AF1EE10FA0BDC9FED13
:10179000506AF4EEC67AF1EE10FA04DAB5EE407A49
:1017A000F1EE10FA7DD0F7EE007A87EE872A9DEDF4
:1017B000073A9DED0B7A65EE023A25EE824A65EE18
:1017C000237A65EEA34A33EE673A25EE846AF0EE9B
:1017D000C32A65EE047AF4EE622AF1EE10FA76EE90
:1017E000E44A76EEE77A37EE466A06D69FED377A18
:1017F000F4EE472AF1EE10FA47DDB7EE007AC7EEB5
:10180000032ADDED006A9DED017A9DED023A63EE5B
:10181000A63A67EEA27A37EE637A64EEA73A67EEED
:10182000877A36EE636A24EE264AF0EEC63A73EE05
:10183000677AF4EE633AF1EE10FA77EEC47A06D6E0
:101840009FED224AF4EE443AF1EE10FA2FDD87EED6
:10185000864A0120002364EE844A65EE845A77EEBE
:10186000647A89ED024A67EEA27A25EE275AC9ED1D
:10187000017A76EEC57A77EEE57A67EE827AC9ED7F
:10188000007A33600CB0BDE8F0879FED117AF4EE7A
:10189000C72AF1EE10FAB0DAB5EE403AF1EE10FADE
:1018A000ABD10020002333600CB0BDE8F0879FED82
:1018B000084AF4EEC43AF1EE10FAC8DAB5EE406A1E
:1018C000F1EE10FAEDD0C2E700000000FFFF7F7FCD
:1018D000000080002DE9F047C36D87690569002489
:1018E0007C8081461C7000F14806A04656F8043FF3
:1018F000FBB1B3F838C0B3F89400B3F89610B3F85E
:10190000DC2005EB400005EB410105EB420205EB55
:101910004C0CC3E91301C3F8A820C3F814C03C70F1
:101920001868D3F8E020416883F8E880C3F8E42021
:1019300088470134E4B2042CD8D1D9F80000BDE8BE
:10194000F0474368184700BF0068C368184700BFE6
:1019500070B50446806978B1E36943B10F4B93F8E1
:10196000882022B11B690E4A0E4901209847206841
:10197000BDE8704083681847084D0B4A2B69094938
:101980009847E3693BB195F8883023B12B69044A45
:10199000044901209847002070BD00BF7800002056
:1019A0001C0601082C0601083C06010830B4026937
:1019B000B0F8423090F8381032F81330032908BFDD
:1019C00083F4004340F2E51101FB03F31B0C816C2F
:1019D0008446A3F589700880BCF83C10DCF84C0004
:1019E00032F8111039B1BCF8401032F81110012949
:1019F00094BF002101210170BCF83E00BCF83A10F0
:101A0000DCF8505032F8111032F81020DCF8544055
:101A100040F2E51000FB02F2A3EB12431BB2002BD5
:101A2000BCF94420DCF80000B8BF5B421BB29A420C
:101A3000A1F10102B2FA82F2ACBF002301235209E4
:101A40002A70237030BC4368184700BF0068C36821
:101A5000184700BF00688368184700BFD0E90F230C
:101A6000816B0069184700BF836910B50446BBB19C
:101A70000D4B93F888204AB963697BB10A4B0B4A36
:101A80001B690B4900209847002010BD1B69094ABB
:101A90000749012098476369002BEFD1012010BD51
:101AA000C369002BE4D1E7E7780000209006010825
:101AB00074060108580601082DE9F04F9B461B6883
:101AC000C2F51E66B34294BF9EB2B6B28846740891
:101AD0004FEA520183B017464FEA81010CD0144BF4
:101AE00008EB84041944434651F8042B5A80120C25
:101AF0001A800433A342F7D10E4C851E04F1E20A8A
:101B000004F1E40914F8013B35F8022F3946CDE918
:101B1000003240464B463246FFF718FCA24501D042
:101B20000028EFD1CBF8006003B0BDE8F08F00BF14
:101B3000C8D50008D4C200080068C368184700BFB1
:101B400000688368184700BFF0B482B02F4E056864
:101B500000238DF80330D6F88430D6F88470C3F1B2
:101B600064031A442A4B1B6803EB8303C3EBC303D0
:101B70001B0D02FB03F30193AB6819420AD135E058
:101B8000019C019B013B0193AB68002C08BF002224
:101B900019422BD0B1F5C06F05D12B7BDBB28DF88C
:101BA00003309DF80330D6F88430DB1B9342E7D333
:101BB0006B68426823F0E003B2F5827F6B6019D056
:101BC000836AB3F5005F07D12B6823F400532B60C1
:101BD0002B6843F400532B600122002380F85D2022
:101BE00080F85C30032002B0F0BC7047002002B0E7
:101BF000F0BC70478368B3F5004F02D0B3F5806F37
:101C0000DED12B6823F040032B60D9E77800002059
:101C10000000002070B4294D294BD5F884201B68A2
:101C20000468D5F88460C2F16402114483B0C3F340
:101C3000CB3301FB03F30193A3681A062DD509E00A
:101C4000019A019B013B0193A368002A08BF002170
:101C50001B0622D5D5F884309B1B8B42F0D36368DA
:101C6000426823F0E003B2F5827F636019D0836A93
:101C7000B3F5005F07D1236823F400532360236882
:101C800043F4005323600122002380F85D2080F894
:101C90005C30032003B070BC7047002003B070BC00
:101CA00070478368B3F5004F02D0B3F5806FDED183
:101CB000236823F040032360D9E700BF78000020A9
:101CC0000000002038B52A4A0368D2F884501B6807
:101CD0009B061BD4846A2368A2685868616820F058
:101CE000200058609AB15868B1F5827F20F0010059
:101CF000586022D029462046FFF78CFFB0B9012357
:101D00000022A4F8462084F85D30236E38BD5A685E
:101D1000B1F5827F0CBF22F0030222F001025A606B
:101D200029462046FFF776FF0028E8D0236E43F0CF
:101D30002003236620232366E1E7B2F5004F12D18A
:101D40001A6822F0400229461A602046FFF762FF17
:101D50000028EBD12A464FF4C0612046FFF7F4FE7D
:101D60000028CCD0E2E7B2F5806FE9D0C2E700BF2F
:101D700078000020F8B51C4D0368D5F884701B6806
:101D8000846A9B062CD42668736823F02003736052
:101D90003A464FF4C0512046FFF7D6FE58B93946AF
:101DA0002046FFF737FF30B93A464FF4C06120466E
:101DB000FFF7CAFE38B1236E43F020032366236E7B
:101DC00043F020032366736823F00303736000224B
:101DD0000123E287A4F8462084F85D30236E0BB916
:101DE00001232B76F8BD00BF7800002030B4124DDF
:101DF000124C00F1BC0C002143680B44024640F831
:101E0000043F12689A1AAA4209DD50F8042CA3F57F
:101E1000C9237E3BA1F5C92103607E399A1AA242EB
:101E200006DA03F5C92301F5C9217E3303607E314B
:101E30008445E1D130BC70473F240300C1DBFCFF87
:101E40002DE9F04FBFB00DF138090D4690460193D2
:101E500000F1020B3EAFCA46002440F6B73631E02F
:101E600025B335F8141001F01F0E4FEA912C0EF136
:101E7000300E00FB0EF0C1F34411ACF1200C02FB5C
:101E80000CFC002801F1300102FB01F1B8BF3F302A
:101E9000BCF1000FB8BF0CF11F0C8011002900EB42
:101EA0006C10B8BF3F3100B241F38F110134182CD0
:101EB00008BF0024FFF776FB4AF8040BBA450BF184
:101EC000040B0ED0BBF900203BF9020C02FB02FC14
:101ED00000FB00CCB4451146C2DC00203FB0BDE899
:101EE000F08F0DAC0DF1060109F15C05224652F8A8
:101EF000043F002BB8BF0F3302311B1195420B80FA
:101F0000F5D14846FFF772FF002254F8043F216ED6
:101F1000A542A3EB01031A44F7D1124B83FB021332
:101F2000D217C2EBA31404F5994330334CF6621276
:101F30009342D2D802AE35460FCD4D4508F1100878
:101F400006F1100648F8100C48F80C1C48F8082C4C
:101F500048F8043CEFD1019B01201C803FB0BDE854
:101F6000F08F00BFABAAAA2A2DE9F04F87B04FF03F
:101F7000000E164600EB41090290821ECDE90316C1
:101F8000A9F1120935464FF0010BF246F4467046AE
:101F9000CDF804E005931EE040F2EE218B4240DCD8
:101FA000634500DD9C464FF0000BBEF1000F0ABFF9
:101FB0004FF0000B70460120CAF100084345019B19
:101FC000B8BFA4EB060ABB4238BF3B46914501931C
:101FD00005F102052BD0568A32F8024F331B03F568
:101FE0000048B8F5803F2746D6D240F2EE218B421A
:101FF0002B8007DD178868B9634515DD9C464FF0D7
:10200000010ED9E7514917889C45B8BF9C468B42C1
:10201000D2DACAE7634500DD9C4686464FF0000BE6
:10202000CAE74FF0000BE6E74FF0010EC4E7194690
:10203000DDE90346059BBBF1000F03D1002007B08B
:10204000BDE8F08FBEF1000FF8D00028F6D0CDE942
:10205000031C0027A4F11C09B84606F112043D46F2
:102060003E46BE46D34634F9021F019601EB810C71
:1020700001EB4C010A22A246A4463CF9026D02FB88
:1020800006113AF9026F02FB0611013AF5D1019EE1
:10209000A942C4BFF0460D468E42C8BF77460EF136
:1020A000010EC8BF0E46F145DDD14CF25034A542B9
:1020B000DDE9031CDA46C1DD254CA642BEDABCF1DF
:1020C000000FBBD0BBF1000FB8D0029C119D24883B
:1020D000C900E4004DB18C4205D2ACEB0402013AD8
:1020E0000A44B2FBFCF2119D2A60109A002AA6D085
:1020F000002BA4D0029A08F10E0532F81520B4EB9B
:10210000C20F4FEAC20606D2ACEB0404013C3444D1
:10211000B4FBFCF42D1B029A0E3732F81720B1EBFA
:10212000C20F4FEAC20405D94A1E5244121BB2FB29
:10213000FAF2BF1A55EA070280D4BD423FF77EAFDC
:10214000109A7F1B17601D6079E700BF12FDFFFF2B
:10215000B03CFFFF2DE9F04F204C93469A46851E78
:102160008A1E04F1E2074FF000084FF41E6604F1E6
:10217000E40935F8021F32F8023F994222D0217853
:1021800009EBC1014B8833B34968002001EB83039D
:1021900047F6FF7E51F804CB1FFA8CFCE64528BFBA
:1021A000E646604538BF60468B42F3D1400080B2BE
:1021B0004FEA4E0E80451FFA8EFE38BF80467645A8
:1021C00028BF76460134BC42D3D1ABF80060AAF8F0
:1021D0000080BDE8F08F4FF6FE7EF0E7D4C2000825
:1021E0002DE9F04F8DB00DF1100E13446C4608AE82
:1021F00000EB830CF146B04677462546BCF9023029
:1022000047F8043B03FB03FABCF9003045F8043BF4
:1022100003FB03A3754548F8043B0CF1040CEDD116
:1022200000252F46AC466FF0004A4FF0004856F8A4
:10223000043B1FFA85FB4345C4BF9846DC46013585
:102240005345BCBF5F469A46042DF0D10CAB03EB5F
:102250008C0C03EB870700234CF8303C4CF8203CF7
:1022600047F8303C47F8203C1D4654F8047B5EF8A4
:10227000046B4C453D443344F7D1114400EB8102DB
:1022800005EBD57503EBD3736D105B1020F821506F
:1022900053800DB0BDE8F08F1249D1F88C20D06882
:1022A00010F0400001D0002070474FF0FF3310B411
:1022B000D360D1F88440D3685B0610D4032803D1DF
:1022C0000DE0D368580609D4D1F884301B1BB3F550
:1022D0007A7FF6D9032081F8AD00ECE700205DF8A5
:1022E000044B7047780000200A4A0B4BD2F88C1040
:1022F000CB60D2F8840005E0D2F884301B1AB3F525
:102300007A7F04D8CB689B06F6D50020704703205F
:10231000704700BF780000205FFF030008B5114B35
:10232000DA6822F08002DA609A68920603D4FFF736
:10233000DBFF88B908BD9A6822F020029A60FFF797
:10234000D3FF18B1084B032083F8AD00054A93680A
:1023500043F02003936008BD034B032083F8AD00D6
:1023600008BD00BF0028004078000020F0B5634C95
:1023700094F8AC30012B00F0BF80D4F88C1002230D
:10238000012284F8AC2084F8AD308B6813F0400C47
:1023900018BF90F803C003780CBF80F803C04FEA61
:1023A0008C5C092B09D900220A3BDBB2092B02F114
:1023B0000102F9D843EA0213DBB21A044378092B6D
:1023C00009D900250A3BDBB2092B05F10105F9D833
:1023D00043EA0513DBB28678092E4FEA032309D9B5
:1023E00000250A3EF6B2092E05F10105F9D846EAA4
:1023F0000515EEB290F824E0BEF1090F0DD90025C5
:10240000AEF10A0E5FFA8EFEBEF1090F05F101056D
:10241000F6D84EEA05155FFA85FE4569076A3D4321
:1024200045EA0C052A4313433343456843EA0E62E9
:10243000C3691D43836ACA20486253204862B3F5CA
:10244000807F8B6839D023F400738B60CB68DBB25C
:1024500063F42073CB60D4F8840005E0D4F88430B2
:102460001B1AB3F57A7F1ED8CB689B07F6D50A6294
:102470008D648B6843F400738B608B6843F4005366
:102480008B601F4B1A68002042F4802284F8AC0055
:102490001A609A6842F480229A60FF2201234A62FD
:1024A00084F8AD30F0BDFF2203234A6284F8AD30DA
:1024B000002384F8AC300320F0BD23F480738B60DC
:1024C000CB68DBB263F4C073CB60D4F8840005E062
:1024D000D4F884301B1AB3F57A7FE4D8CB68DE07D2
:1024E000F6D5CA614D648B6843F480738B608B684A
:1024F00043F480538B60C4E70220F0BD78000020D5
:10250000000401402A4A03460068904270B43BD858
:10251000284A294C14210244B2FBF1F29200022114
:1025200083F8251001689D689E691C6421F4FF4CA6
:1025300059695A642CF0700C294341EA0C0131436B
:1025400041F08001B5F5804F016014D0596802F068
:102550001C020F2090409140174A94426FEA0000FD
:102560001AD0D2F8A8442040C2F8A804D2F8A8048F
:102570000143C2F8A81400200122D86383F8240084
:1025800083F8252070BC70470C4A0D4C024414217E
:10259000B2FBF1F29200C2E7D4F8A8200240C4F8DE
:1025A000A820D4F8A8201143C4F8A810E3E700BF7E
:1025B00007040240F8FFFDBF00000240F8FBFDBF2A
:1025C00000040240134BDB68C3F30223C3F1070C82
:1025D0001A1DBCF1040F28BF4FF0040C062A88BF57
:1025E000DA1E4FF0FF3303FA0CF398BF002221EA02
:1025F000030393401B01421CDBB206D000F1604094
:1026000000F5614080F800337047024A82F82330B9
:10261000704700BF00ED00E038B5104D104A2B6840
:10262000A2FB03239B09013BB3F1807F01D301206F
:1026300038BD4FF0E0220B495361F02381F823307D
:10264000002407230F2894611361F0D801464FF04E
:10265000FF30FFF7B7FF6960204638BD000000205B
:10266000D34D621000ED00E01049114AD1F884000A
:1026700013691B0704D50E4B1869C0F3C0007047DF
:10268000D1F884301B1AB3F57A7FF4D272B613698D
:102690001B0700D430BF62B6BFF36F8F13691B07EF
:1026A000EED5034B1869C0F3C000704778000020D6
:1026B0000004004810B5554B93F8AC200021012AC6
:1026C00083F8B01000F08780D3F88C20CA21022450
:1026D00083F8AD4001205162532183F8AC00516270
:1026E000916821F480619160D168C9B261F4906110
:1026F000D160D168490670D51F2151619168444865
:1027000021F0070141F003019160016841F480115B
:102710000160816841F480118160916841F48041D9
:1027200091609168FF2441F48061012091605462BE
:1027300083F8AD0093F8B010002283F8AC20002994
:1027400060D172B6BFF34F8FBFF36F8F93F8B02095
:1027500002B930BF62B6BFF34F8FBFF36F8F93F8EC
:10276000B020002AEDD093F8AC200021012A83F894
:10277000B01030D0D3F88C000224CA2283F8AD40C8
:10278000012142625322426283F8AC10826822F433
:1027900080628260826822F480428260D3F8844042
:1027A00005E0D3F88410091BB1F57A7F0CD8C26814
:1027B00012F00402F5D0FF2401220021446283F8C4
:1027C000AC1083F8AD2010BDFF240321446283F8D0
:1027D000AC2083F8AD10FDF7DBFCD3F88440D16862
:1027E00011F0040188D1D3F88400001BB0F57A7F82
:1027F000F5D9FF240320546283F8AC1083F8AD00B0
:10280000FDF7C6FC83F8B020B4E700BF78000020D5
:102810000004014040B338B5056804461DB12846A0
:10282000FDF7C8FC08BB606908B108F0C1FE206A6A
:1028300008B108F0BDFE606A08B108F0B9FEA06AF0
:1028400008B108F0B5FEA06B08B108F0B1FEE06B6E
:1028500008B108F0ADFE206C08B108F0A9FE2046D2
:10286000BDE8384008F0A4BE704700232B6028461E
:10287000FEF750FAD7E700BFDFF83CC0F8B51C46BA
:102880004FF480530746CCF828300E461546FFF724
:1028900011FF17B13846FEF769FA16B13046FEF758
:1028A00041FA15B1284608F083FE1CB12046BDE868
:1028B000F840AFE7F8BD00BF000400482DE9F04143
:1028C000C16F05689EB0044600295FD025682423A7
:1028D000E3672A68636A22F001022A60002B40F055
:1028E000C380D4E90402A368296803431343E06961
:1028F0009E4A03430A4013432B606B68E26823F44B
:10290000405313439A4A6B609542A369AA6800F04A
:10291000F180216A22F430620B431343954AAB6085
:1029200095421BD0944B9D4240F0158103F5E63350
:10293000D3F8883003F00C030C2B00F20F81DFE892
:1029400013F0E2010D010D010D0173010D010D01E7
:102950000D012B010D010D010D016301874BD3F812
:10296000883003F00303022B00F01681032B00F0E4
:102970004B81012B00F05881B0F5004F00F0CC8165
:10298000FDF764FE002800F018810AE180F8781055
:102990005C2207A808F0BAFC764B9D4200F0C1818A
:1029A000754B9D4292D1022707A80797FDF7EEFECF
:1029B0000646002840F0E181704B714D9A6D42F45B
:1029C00000329A659A6D02F400320492049ADA6C2D
:1029D00042F00102DA64DB6C03F001030393072287
:1029E0000323CDE90032039903463A464FF0904065
:1029F0000F214FF0800805F0FDFEC5E92E76C5E9F0
:102A00003068C5E93266C5E9346605F1B4065D4B48
:102A1000C5F8B4303046FFF775FD002840F0AD81B1
:102A20006667102305F1FC06C5E94208C5E94400C4
:102A3000C5E94600C5F804313046534BC5F800716E
:102A4000C5F8DC40C5F8FC30FFF75CFD0146002806
:102A500040F0938126672620C5F82441FFF7B2FD98
:102A60004A4B40225A6031E71E0705D56A68616B00
:102A700022F400420A436A60D80705D56A68A16A51
:102A800022F400320A436A60990705D56A68E16A50
:102A900022F480320A436A605A0705D56A68216BBE
:102AA00022F480220A436A60DF0605D5AA68A16B7A
:102AB00022F480520A43AA609E0605D5AA68E16BFB
:102AC00022F400520A43AA60580609D56A68216CAC
:102AD00022F480120A43B1F5801F6A6000F00C8175
:102AE00019067FF5FEAE6B68A26C23F40023134336
:102AF0006B60F6E622F4306213432049AB60D1F8F4
:102B0000883003F44063B3F5006F00F0F38000F207
:102B1000EA80002B00F02B81FDF734FD00284CD01B
:102B2000626802EB4203834218D8B0EB023F15D82B
:102B3000510800230F464FF480761946E0FB0671DA
:102B4000384606F0FBF8124BA0F540729A4205D8C1
:102B5000074BD86031E00F4B9D425BD00023C4E9A6
:102B60001A3301201EB0BDE8F08100BFF369FFEF0A
:102B70000080004000380140004400400010024046
:102B8000780000206C0002408000024000E100E07C
:102B9000FFFC0F0000480040B0F5004F7A4800F0FD
:102BA0008D80636800EB5300B0FBF3F04FF6EF73DA
:102BB000A0F110029A42D1D8E8606A6873490023F4
:102BC00022F49042C4E91A336A60AA6822F02A0209
:102BD000AA602A6842F001022A60C4F88430D1F861
:102BE00084602B681A0727D42B685B073ED4002328
:102BF0002022E26784F87830C4F8802018462366E3
:102C00006366AFE7302BA9D1B0F5004F56D04FF433
:102C10000040C6E75E4BD3F8883003F03003202B2A
:102C2000BAD0EFD8002B6ED0B0F5004F41D0FDF7F1
:102C3000A9FC0028C1D0B4E76FF07E4332464FF4C0
:102C400000112046FDF746FF0028CDD0236853E849
:102C5000002F22F0800243E800210029F7D1202331
:102C6000E367002384F8783003207BE76FF07E432E
:102C700032464FF480012046FDF72CFF0028B6D0E5
:102C8000236853E8002F22F4907243E800210029C2
:102C9000F7D103F1080252E8002F22F0010203F1FC
:102CA000080040E800210029F3D12023C4F8803037
:102CB000D7E7FDF767FC00283FF47FAF6268530851
:102CC00003EB40034FF6EF71B3FBF2F3A3F11002F5
:102CD0008A423FF643AF23F00F0292B2C3F342039E
:102CE0001343EB6069E7B3F5406F7FF437AF4FF400
:102CF000004015E7244813E76A68616C22F4C002BB
:102D00000A436A60ECE6B0F5004F38D0FDF78AFC64
:102D100000283FF452AF44E7FDF798FC0028CDD1DE
:102D20004BE7012307A80793FDF730FD034620BBBF
:102D3000174A116E41F480411166116E01F4804111
:102D400006910699D16C41F00101D164D26C072043
:102D500002F00102032105920190009102224FF43A
:102D6000C0614FF09040059D05F044FDAEE5FDF7D4
:102D700059FC00283FF421AFD2E6FDF709FAFDF730
:102D800051FC00289AD118E70024F40078000020B4
:102D9000001002402DE9F04105460846EE690C4658
:102DA000FDF708FA00B166652046AE69FDF702FA44
:102DB00000B1A66520462E8CFDF7FCF908B1A4F8F9
:102DC0005C60204695F82560FDF7F4F908B184F8B9
:102DD0005E60204695F82460FDF7ECF908B184F8B0
:102DE0005F60204695F82660FDF7E4F908B184F8A5
:102DF0006360204695F82760FDF7DCF908B184F898
:102E000064606B7D2046002B00F0B480AE7DFDF742
:102E1000D1F908B1002363602046FDF7CBF908B172
:102E2000012323812046FDF7C5F908B10123638101
:102E30002046FDF7BFF908B10823A3812046FDF71E
:102E4000B9F908B10A23A3732046FDF7B3F908B115
:102E50000123E3732046FDF7ADF908B10023237485
:102E60002046FDF7A7F908B10123A3742046FDF71A
:102E7000A1F908B1052323752046FDF79BF918B188
:102E8000013E18BF0126E6742046FDF793F900289D
:102E900078D101272E68DFED556A9FED557AAB7D1D
:102EA00032B207EE902AF8EEE77A67EEA67AF4EEF1
:102EB000C77AF1EE10FA69D5B3F1010818BF4FF0E7
:102EC00001082046FDF776F918B1142303FB0743E8
:102ED0005E602046FDF76EF920B1142303FB074323
:102EE00001221A812046FDF765F920B1142303FB66
:102EF000074301225A8120466E8CFDF75BF918B119
:102F0000142303FB07439E812046FDF753F920B1AC
:102F1000142303FB07430A229A732046FDF74AF95C
:102F200020B1142303FB07430122DA732046FDF787
:102F300041F920B1142303FB074300221A742046F1
:102F4000FDF738F920B1142303FB074300229A74DC
:102F50002046AD7DFDF72EF9002841D12046FDF732
:102F600029F920B1142303FB074484F813800120BE
:102F7000BDE8F081FDF71EF910B1012384F862303D
:102F8000002787E7022384F8623082E79FED197AF1
:102F9000F4EEC77AF1EE10FA1CD4B1EE0C7AF4EE2E
:102FA000C77AF1EE10FA12D49FED137AF4EEC77AD5
:102FB000F1EE10FA11D49FED117AF4EEC77AF1EE2A
:102FC00010FA4CBF4FF004084FF0050879E74FF0B6
:102FD000020876E74FF0010873E74FF0030870E747
:102FE000142303FB07431D75B8E700BF0AD7233B33
:102FF000666646403333A34033334B41000094416F
:1030000010B41F4C94F8AC30012B35D0D4F88C1090
:103010000220CA2384F8AD0001224B6253234B6285
:1030200084F8AC208B6823F480738B608B6823F466
:1030300080538B60D4F8840005E0D4F88420121A01
:10304000B2F57A7F0ED8CB6813F00103F5D00020DB
:10305000FF2201234A6284F8AC0084F8AD305DF8A9
:10306000044B70470320FF224A6284F8AC3084F896
:10307000AD005DF8044B704702205DF8044B7047CB
:10308000780000200CB4F0B5ADB032AB06AE53F80A
:10309000042B059304460D463046962108F006FBA6
:1030A0009528C4BF1C4BCDF8AA301C4B1C49D3F843
:1030B0008470A1FB07311B4BA3FB0723980B1A4B12
:1030C000A3FB07234FEA931C184B4FF47A7202FBC1
:1030D0001C77A3FB00E25209042CC2EB0212A0EB06
:1030E0008202A3FB0CE398BF114800974FEA5313E9
:1030F00094BF005D3F20C3EB03130190CDE902565E
:10310000490DACEB83030B4808F09CFA2DB0BDE8E9
:10311000F04002B0704700BF2E2E2E007800002035
:10312000B17C219573B2E745D34D621089888888B8
:10313000DC060108B80601082DE9F0412DED048BED
:10314000044682B00368AF4AAF499FEDB09ADFED05
:10315000B08AB04EB04D0220FFF794FFA388AF4A6B
:10316000A9490220FFF78EFFD4ED027AAC4AA649A6
:10317000F5EEC07AF1EE10FABFEE008AF7EE009A93
:1031800054BFB0EE697AB0EE487A67EE877A48BFEE
:10319000334677EE897A58BF2B46BCEEE77A022099
:1031A000F8EE476A8DED007A77EEE67A67EEA87A58
:1031B000FCEEE77ACDED017AFFF764FFD4ED037AF8
:1031C000984A9149F5EEC07AF1EE10FA54BFB0EE8C
:1031D000697AB0EE487A67EE877A48BF334677EE71
:1031E000897A58BF2B46BCEEE77A0220F8EE476A90
:1031F0008DED007A77EEE67A67EEA87AFCEEE77A54
:10320000CDED017AFFF73EFFD4ED047A864A7E4980
:10321000F5EEC07AF1EE10FA58BFB0EE698A67EEAB
:10322000887A48BF334677EE897A58BF2B46BCEE82
:10323000E77A0220F8EE476A8DED007A77EEE67ABB
:1032400067EEA87AFCEEE77ACDED017AFFF71AFF78
:10325000237D002B00F0B380012B40F0AA80734A3D
:1032600069490220FFF70EFF714E724D637D724A6D
:1032700065499FED669ADFED668ADFF89881664FB3
:10328000002B0CBF33462B460220FFF7FBFEA37D2D
:103290006A4A5D490220FFF7F5FED4ED067A684AD6
:1032A0005949F5EEC07AF1EE10FABFEE008AF7EE5A
:1032B000009A54BFB0EE697AB0EE487A67EE877A2A
:1032C00048BF434677EE897A58BF3B46BCEEE77A63
:1032D0000220F8EE476A8DED007A77EEE67A67EE27
:1032E000A87AFCEEE77ACDED017AFFF7CBFED4EDBC
:1032F000077A544A4449F5EEC07AF1EE10FA58BF05
:10330000B0EE698A67EE887A48BF434677EE897ADD
:1033100058BF3B46BCEEE77A0220F8EE476A8DEDD7
:10332000007A77EEE67A67EEA87AFCEEE77ACDEDE2
:10333000017AFFF7A7FE444A3349238C0220FFF7A6
:10334000A1FE424A3049638C0220FFF79BFE94F8AD
:1033500024303F4A2C49002B0CBF33462B46022019
:10336000FFF790FE94F825303A4A2749002B0CBF0E
:1033700033462B460220FFF785FE94F826000128ED
:1033800039D0022832D058BB334A1F490220FFF7F8
:1033900079FE94F8270001281ED0022819D0A0B980
:1033A0002E4A1949022002B0BDEC048BBDE8F04161
:1033B00068E62B4A14490020FFF764FE54E7294AC7
:1033C00011490220FFF75EFE4EE7274A0E49002012
:1033D000E9E7264A0C49E6E7254A0B490220E2E7DD
:1033E000244A09490020FFF74DFED2E7224A064948
:1033F000FFF748FECDE7214A03490220FFF742FECE
:10340000C7E700BFF406010814070108BD370635F9
:103410000024744964010108A0020108280701087A
:10342000480701087007010898070108E807010824
:10343000EC060108E40601083408010854080108F4
:10344000740801089C080108C4080108E408010880
:10345000040901082409010844090108D8090108E0
:1034600010080108C0070108480A0108240A0108D9
:10347000000A0108B4090108900901086C09010853
:1034800070B5094E736805469847044628B12A4628
:10349000002107F03BFF204670BD3369034A044911
:1034A0009847204670BD00BF780000206C0A0108D4
:1034B0007C0A01082DE9F04F02EBC30787B07B8837
:1034C000DDF84090EBB18246884600264D467B6889
:1034D00053F82640C4F30170012815D002282ED0DD
:1034E00020BBC4F34459012303FA09F39D422FD3AF
:1034F0002E4A2F4916692F4A013BCDE90053A3B24A
:10350000B04707B0BDE8F08FA3B2194658F82320A2
:1035100022F00F0215B1C4F3034422435046FDF7D5
:10352000C9FC7B8801369E42D1D3EAE71F4B224A71
:103530001B691F49002007B0BDE8F04F1847A3B230
:10354000194658F8232022F00F02002DE6D1E2E7B9
:103550001FFA84FB4FF00103ADF80E304BF420430B
:10356000ADF81000CDF81200ADF80C3003A95046AC
:1035700001230522FDF708FBC9F12009BDF812203F
:10358000BDF814304FF0FF30C4F3044420FA09F0C2
:10359000A04043EA024323EA000305FA04F4594633
:1035A00043EA04025046FDF785FCBAE778000020A4
:1035B000900501088C0A0108C40A0108F8B51646EE
:1035C0000D464FF4E272014618461C4607F0CAFF4A
:1035D000B6F8581021B196F85E30191E18BF0121B7
:1035E000012396F85B2084F8C6312B4684F8C52168
:1035F00033F8262B84F8C411A4F8C82105F156012C
:1036000004F5E5721F685E689868D3F80CC0C2F8CC
:103610000CC010338B4217605660906002F11002AC
:10362000F0D1B5F85630A4F8FA3105F1580604F592
:10363000FE7E05F18807B446BCE80F00BC450EF1DC
:10364000100E06F110064EF8100C4EF80C1C4EF839
:10365000082C4EF8043CEED1B5F88830A4F82C3292
:1036600005F18A0304F22E24BA35186859689A685D
:10367000DE68E6601033AB4220606160A26004F156
:103680001004F2D1F8BD00BF2DE9F04F264C87B0F1
:103690000026CDE90466B4F800808946002B3DD0B1
:1036A0004FEA5808CDE90102A8F104080D461F466B
:1036B0004FF4004BB246039325E0029BA5F800B0FF
:1036C00033446B80631EAB80A5F806A06200002126
:1036D00005F1080007F01AFE294601980123221D72
:1036E000FDF752FA04AA134603CA2644696028600B
:1036F00009EB460559F81600696803C3039B9E420F
:10370000A7EB04070AD2B845444628BF3C46B84553
:10371000D3D200E0013CE307FCD4CEE709F1080076
:1037200007B0BDE8F08F00BF780000202DE9F04F12
:103730009846174BDFF85CB01F8883B0043A043F0B
:1037400052087F0897420C9E0190894628BF174671
:1037500001F1040A0025741BBC4228BF3C4645EA1F
:103760000B02631E08EB4501A9F80020A9F80230FE
:103770006200504607F0F6FE254401980023A21C83
:103780004946FDF701FAAE42E5D803B0BDE8F08F37
:103790007800002000C0FFFF2DE9F04F2DED108BC9
:1037A0009BB090F85E401D4690F85C300893042C66
:1037B000B0F8583003938046894616461AD8D0EDA3
:1037C000147AF5EEC07AF1EE10FA00F1F58190F876
:1037D0006630002B00F0918290F85B30002B00F0F7
:1037E0008C82024C024A059407E000BF780000205A
:1037F000300B0108C64CC74A05942369C64900200E
:103800009847D8ED157AD4F84431009307EE103A72
:10381000F5EEC07AF1EE10FAB8EE478A40F3D081A7
:10382000C8EE278AF6EE007A78EEA78A039B002B73
:1038300000F0A68198F85E30049398F85A30002B77
:1038400040F0A58198F86020022A41F0298198F87B
:103850005E40012C00F0E1830024224634990C7173
:10386000A6F8AC21002B00F0978198F85F30012B6F
:1038700000F00484022B00F0EB83002B40F0DD838A
:1038800001231A46F384328598F86030012B00F04A
:10389000CD83022B00F0C983002B00F00784059B29
:1038A0009E4A1B699C4900209847B9F1000F00F01F
:1038B000778100230093B9F8E410B9F808307180DB
:1038C000B9F8E610B180B9F8E2103180B9F8E81023
:1038D000F180B9F8021031819B00B9F804107181B0
:1038E0009BB2B9F80610B18103F13002B9F80A10A1
:1038F000F18192B2B9F8201031825F2AB9F8221012
:10390000718240F2EE818649A1FB0201890901EB37
:103910004101A2EB411189B200201A4604460B4630
:103920000121F2820322B38272830023009A7384FE
:10393000B483F083318331846B800123C5F80A306E
:10394000002A00F054870027CDE9017706F13E03F5
:103950009FED749A9FED74AADFED779ACDE90696F4
:10396000B34605F10E0A44461E46049AFBB29A423B
:1039700000F229810023AAF80030AAF80830338029
:103980000137042F0AF1020A06F102060BF1560B69
:1039900004F11404E9D1039BAA89DDF804E012FBC9
:1039A00003F26B8992B213449BB2DDE90696591C6F
:1039B000012089B20090B6F8AC01012804D1DDE9FC
:1039C000020404FB00F00290029FB8F8640098F82B
:1039D00063C098F862B04FF6FF74A74228BF27462D
:1039E0004408A4F1030A98F86640A6F89EB18CF04A
:1039F000010C0338A6F8A6C1A6F8A471A6F8A0E1A8
:103A0000A6F8A801A6F8AAA1AA81AB80E980002C9B
:103A100000F02781413399B24024012329802C8171
:103A2000A6F8C031B9F1000F03D0B9F80C30A6F8F0
:103A3000C231009B002B40F03E81349A98ED145A1D
:103A400000231360089BA6F8B231039B012B40F2C0
:103A50002F81B8F85830023B01229BB29FED336AA8
:103A6000DFED335A98F85A10F1EE007AC8EE066A84
:103A700068EE277A68EE255A87EE867AC5EE867A52
:103A8000B6EE006A76EE866A37EE067AFCEEE66AF5
:103A9000B5EE405AD8ED155AA6F8AE31F1EE10FA4F
:103AA00016EE903A77EE867ABCEEC77AA6F8B02189
:103AB00014BF01220022FCEEE77A328798F85B20DF
:103AC000A6F8B43117EE103AA6F8B63117EE903AD0
:103AD000F5EE405AA6F8B831009BF1EE10FA14BF8B
:103AE00001200020002B40F0BE8031867286708558
:103AF00098F861300F4A0098C6F8BA210121B184C4
:103B0000A6F8BE311BB0BDEC108BBDE8F08F00BF36
:103B100078000020EC0A0108080B01082C0C0108B1
:103B2000ABAAAAAA2549123E8FC2753D002474494A
:103B300000009643FF07010800000000B5EEC07AC0
:103B4000F1EE10FA00F1078398F85A20002A00F0ED
:103B50000583B5EE407AF1EE10FA05D1F5EE407A24
:103B6000F1EE10FA40F0BB835FED0D8A059B724ABF
:103B70001B69724900209847039B002B7FF45AAEC3
:103B8000039B049398F85A30002B3FF45BAE349AB1
:103B900000231371A6F8AC31B9F1000F7FF489AEA0
:103BA0000123A5F802906B81CE4602214A46CDF84A
:103BB0000890CDF80090FEE6614C624A05941CE640
:103BC000DFED618A32E60123338098F85C90228928
:103BD00040F2FF3340F2FF11B9F1000F18BF0B465E
:103BE00042B39A4226D8A27B237C3AB1022B05D15C
:103BF000059B564A1B69DDE9069620E0E07B00281C
:103C000040F03E82012B00F0AB80059B504A1B69BF
:103C10004A490090DDE906969847DDF804E0039BE9
:103C2000AA8912FB03F26B8992B213449BB2591C0E
:103C300089B2C0E6059B474A1B69DDE906963F4904
:103C400000209847039BAA89DDF804E012FB03F2E9
:103C50006B8992B213449BB2591C002089B2009028
:103C6000A9E62346DAE6B5EE405AF1EE10FA0AD09C
:103C7000C8EE057A77EE867AFCEEE77A17EE903A90
:103C8000B3871B0C7387002361F30F03F5EE405AD3
:103C900062F31F43F1EE10FA708533633FF428AFEF
:103CA000FCEEE87A17EE903A1A0CB285F3851FE71E
:103CB00000221346D2E698F85D30072B15D8264A25
:103CC0009FED219A134493F8B439A6F8A231349B9E
:103CD00083ED009A049B002B40F0438298ED145A28
:103CE000B0E60320012400211BE6349A98ED145A13
:103CF0000023136000230093A4E6012C40F2E2812C
:103D000098F80F104246012303E00133A34200F06C
:103D1000D981084692F82310814202F11402F4D2AC
:103D2000074F0E4A3C69054905970020A047D8ED8A
:103D3000157AD7F8443168E5900B0108080B0108A3
:103D4000780000201C0B0108000000005C0C01083A
:103D5000880C01084C0C010898C100085C0B010894
:103D60006FF00B030993E288A3880A92182A009344
:103D700040F2968202EB820303EB031303EB03236F
:103D800002EB4303C3F3CC0242EA43339BB240F657
:103D9000AA22934200F2D782AF4B0A9AA3FB0223D6
:103DA0001B090E93013B9BB215935C230D931823C3
:103DB0000B930098002840F0D684059BA74A1B6906
:103DC000A7499847B9F1000F00F0C0844FF00009EF
:103DD0000222009B099913FB02F292B20092226820
:103DE00011440A460C910A99013B01FB03230993F4
:103DF00002F5C34328334CF25032934207D9059B56
:103E0000984A1B699649002098474FF00009099B82
:103E100003F5C34328334CF25032934207D9059B34
:103E2000914A1B698E49002098474FF000090C9A6F
:103E3000002AC0F23D838D4880FB0230D217C2EBCE
:103E4000A00000B2099B002BC0F22683874981FBAA
:103E50000331099BDB17C3EBA101119309B280B2B7
:103E6000091A0C9B0F90814880FB03C0C2EBA00293
:103E700088B209B20E9B1091B0FBF3F0411C0A907E
:103E80001FFA81FE0B981821B1FBF0F30E930C9BE7
:103E900002EB4202B3EBC20200F1F78213B21393BA
:103EA00093B20C93099A7148119B0B9980FB020CF9
:103EB000C3EBAC0303EB430C0C9BB3FBF1F001FB36
:103EC000103081B2B2EBCC03099100F1FB821AB23F
:103ED00019929BB20E9A0B98511E099A89B21891A9
:103EE000BEF1010F11FB002189B200F0F182099AA5
:103EF0000C98824240F0FF82994200F04F840023E8
:103F0000012213931692149312920E930C9B9A0013
:103F1000099BABF882209B00ABF88430B9F1000F0D
:103F200040F0F5826C23179336230C937D223D23BA
:103F30004FF00009ABF87C300F9BABF87A200C9A5D
:103F40001099C3F1290313441AB21192521A9BB269
:103F5000292A0F9307DC059B454A1B69404900202D
:103F600098474FF00009119B179A934207DB059B76
:103F7000404A1B693A49002098474FF000090D9BC1
:103F80002C2B00F20F821E2B40F2E3831E3B0F22EC
:103F90009BB20D92ABF89A30159B0C99ABF894300C
:103FA000139BABF87E10ABF88E300F990A9BABF8E1
:103FB00080100D99ABF89610ABF89820002B40F0CC
:103FC000CF81149B002B0E9B08BF00230E93129BE6
:103FD000002B00F0D783099A199B9B1A0B9A93FB2D
:103FE000F2F39BB2169AABF89220ABF88C300E9A93
:103FF000ABF888200023ABF89030ABF88A300A9BEE
:10400000ABF88630B9F1000F40F0BC82CDF80090DB
:10401000DDF804E0DDE9069601E698F81020013AA3
:10402000012A7FF619AC224618E400237363B9F124
:10403000000F41D0012300933DE4059B0E4A1B690C
:10404000074900209847B9F1000F7FF432ACA7E58B
:1040500000231A4616E400BFABAAAAAAD40C010892
:10406000080B0108200D0108340D0108ABAAAA2A8B
:10407000680D0108880D01080C0C0108002201E4FC
:10408000013B042B00F2348501A252F823F000BF5B
:10409000613D0008D7420008A5400008CF42000853
:1040A000A54000086FF00C0309935CE64FF0011384
:1040B0007363B9F1000FBDD100236B800123C5F8F4
:1040C0000A3040E4B94B98ED157A0593D3F84431A2
:1040D000009306EE903AB5EEC07AF1EE10FAB8EE23
:1040E000668A7FF72BADC8EE078AF6EE007A78EE87
:1040F000A78A18EE900A06F061FF51B1059BAC4A01
:104100001B69AC4900209847039B002B7FF492ABBE
:1041100037E598F85A20002A7FF428AD039B98F8D9
:104120005F10002B98F8603014BF204600209942A1
:10413000049007D9059BA04A1B699E490020984717
:10414000FFF77BBB022B00F0B584349B1A71A6F8F5
:10415000AC21FFF78ABBDFED998ACFE7DFED978AC5
:10416000DCE7B6F8AC31B6F8A421012B00F0CD8025
:1041700007EE902ADFED929AB8EE67AAB7EE089A9A
:10418000F2EE02DA059B9FED8F0AD3F844310193DA
:1041900007EE903AB8EE67FA80EE0F0A05F0AEFC33
:1041A00098F86030022B2FEE00FA00F22181864A47
:1041B00098F85E1002EB830090ED00EAD0ED03FA70
:1041C000002900F02681009BDFED7CEA9FED7FBA9D
:1041D0009FED7FDADFED7FCA9FED7FCADFED7FBA0B
:1041E000DFED7FAADDF8149044460025227C052AE5
:1041F00000F29280022A40F29A804FF0300A08279B
:10420000E27B052A00F26984DFE802F03E413B03CD
:104210004744F0EE4B7A8FEE276A228998F85E10B9
:1042200002FB077702377F00BFB2A2880135143442
:104230009FED6C7AC6EE076A07EE90AAF8EE677AF1
:1042400087EEA66A07EE907AF8EE677A87EEA67A8E
:1042500007EE902AF8EE677AEAB267EE277A914283
:1042600077EE867A77EEA97A77EE897A7EEEA7EAFC
:10427000BCD898ED145A002B40F0CF800093FFF784
:10428000E1BBF0EE6A7AC6E7F0EE6C7AC3E7F0EED7
:104290004D7AC0E7F0EE4C7ABDE7F0EE6B7ABAE704
:1042A0000A9A002A4FD01823B3FBF2F302FB03F360
:1042B000C3F118039BB21593002B44D10A9A0B92B9
:1042C000531E9B009BB20D9301230E9371E56FF07B
:1042D0000F03099347E56FF00603099343E598F848
:1042E0005F2098F860309A427FF43EAC039B349A8A
:1042F000DFED328A002B14BF2346002304930023F2
:104300001371A6F8AC31FFF7B0BAF0EE499AF0EEAF
:1043100049DAB0EE49AA35E7D9F81030324A2549D2
:10432000002098474FF0180A0427002368E7012A65
:1043300005D0022AF0D14FF03C0A0A2760E74FF07F
:10434000480A0C275CE7059B284A1B69194900208D
:10435000984700230122CDE90D3215930B9231E5E8
:10436000149B002B0E9B08BF00230E93129B33B1AE
:10437000099A199B9B1A0B9A93FBF2F39BB2ABF829
:104380008C300A9B169AABF89220013B0E9AABF840
:1043900088209BB2189A0A930123ABF88A20ABF8C5
:1043A00090302CE600230D931A46F3E578000020A8
:1043B0007C0B0108080B0108BC0B01080000000081
:1043C0009A999D41F902154F54CB00080000904383
:1043D00000002043000000430000F0430000C04301
:1043E0000000404300247449B00C0108C00C0108CF
:1043F000059BBE4A1B69BE490020984798F85E306D
:10440000002B00F0EF81DFEDBBFA0023B0EE6FEA86
:10441000DAE698ED145ADFEDB7EA9FEDB77ADFEDF3
:10442000B76A349BCFEE077AB1EE0C7AC7EEA65A84
:104430002AEE07AA7FEE8EFACAEE257A9FEDB07AB1
:1044400077EEAD7AB0EE006A77EEAE7A77EEAF7ABD
:1044500027EE877A37EE067A77EE277A86EEA77A06
:10446000B4EEC57AF1EE10FA83ED007A7FF5EAAA90
:10447000059BA44A1C699E49FDEEC77A002017EEF1
:10448000903AA0470023009328E402F1180083B279
:104490000C9303B2139305E509999B4BC943A3FB06
:1044A0000131099B6FEA1111DB1709B21193D6E4B0
:1044B0000C9A954BD043A3FB00306FEA101000B26A
:1044C000D217BFE403F1180002B283B2199201E5DA
:1044D0000C98824200F05F8100220A92169212929A
:1044E000139A9B1A0B9A93FBF2F39BB20E93012340
:1044F000CDE913330AE5994200F05A810A9B013B4A
:104500009BB20A930123169312930B46E8E7E37BD1
:10451000052B00F21183DFE803F01A130C032B21A3
:104520004FF486731793D6230C9340F21D128D23FC
:1045300000E5AC23179376230C93BD225D23F9E4A9
:104540008C23179356230C939D224D23F2E46C2366
:10455000179336230C937D223D23EBE44FF4E6734F
:1045600017934FF4CB730C9340F2DD12ED23E1E48B
:104570004FF4B67317934FF49B730C9340F27D1274
:10458000BD23D7E4A37A172B00F2FE80092B00F29B
:104590001B81C3F109039AB21523ABF84630069B81
:1045A000ABF84820002B00F05B8203EB42029389BA
:1045B000ABF84A30237C013B042B00F29F82DFE8FA
:1045C00003F0BA7603A984004FF000094FF400729B
:1045D0004FF4C063CDE909234FF0C00E02204FF025
:1045E000040C08214A464B46ABF86E000A98ABF81B
:1045F00056000998ABF870C0ABF85800ABF84E10F5
:10460000ABF85010ABF852E0ABF854E098F85D10FE
:10461000B9F1000F00F00681002B00F003810229A0
:1046200000F27881394B0B4493F8B039ABF85A302B
:10463000069B002B00F019810023ABF85E300123AC
:10464000ABF86A30069B0021D3E932ECD3F8C49072
:104650000B460EEB1140A0EB09009042614480F242
:104660002C8201330F2BF4D1069AABF86030D2E9DB
:1046700036E303EB83020EEB1242F92A00F3EC81DE
:10468000062003FB00F0052103E0BCF1FA0C40F129
:10469000D7810A46013189B214290EEB104C184417
:1046A000F3D1059B1A4A1B69DDE9069637E1002123
:1046B0004FF40073CDE909134FF0400E03204FF083
:1046C000020C08219622FA238EE74FF000094FF4DE
:1046D000F0504FF47853CDE909034FF4F86E0220FF
:1046E0004FF00B0C08214A464B467DE72C0C010885
:1046F000080B01080000000000002043002474495A
:104700000AD7233C040E0108ABAAAAAA98C1000844
:10471000D80D01084FF000094FF4C06C4FF46063EE
:10472000CDE909C34FF4E07E02204FF0060C0821CA
:104730004A464B4658E7069B9B8C0422082BCBF835
:104740006E205BD9DDE90696FFF77CBA0422FFF7FD
:1047500040BB0D9B0F2B30D9A3F10F020F230D93FC
:1047600092B2002316E4B9F1000F2AD1237B002B6B
:1047700033D0059BC44A1B69C44948469847042264
:10478000FFF727BB0A9B2DE4059BC14A1B69DDE9A6
:104790000696FFF754BA99427FF49EAE0023CDE906
:1047A0001333CDF828E0169312930E93FFF7AEBBA8
:1047B0000023169312930B4692E600221346FFF74E
:1047C000E9BB0222FFF705BB102B94BFC3F11E0308
:1047D000C3F117039BB20022DFE64FF00109042268
:1047E000FFF7F7BA98ED145A0093FFF72BB900982A
:1047F0000290864602210246FFF7DDB8ABF84E3044
:10480000ABF8503040230022ABF85230ABF85430B4
:104810004FF40073ABF85630ABF8582098F85D10A1
:1048200013469146072975D89A48014491F8B4195E
:10483000ABF85A100699C1B10021ABF85E10B9F17E
:10484000000F40F08380ABF86A90ABF86090ABF853
:104850005C90ABF86290ABF86890ABF864904A4615
:104860000023ABF86620ABF86C302389E27AABF812
:104870007620012B67D0023B9BB20121ABF872304E
:10488000A37BABF84C3083F00103ABF87410ABF8AA
:1048900078300099AB89AAF800300B44AAF80810C8
:1048A000AB81A388217C06EE903A2389012907EE8B
:1048B000103ABBF86E302AD0022914BFF0EE695AC4
:1048C000F0EE4A5A01339BB207EE903AF8EE677A5F
:1048D000B1EE006AF8EE666A67EE867AB8EE477A5D
:1048E00067EEA67A0198029B67EE877A014667EE2B
:1048F000A57A002808BF114667EE897A0191FCEE7F
:10490000E77A17EE902A13440293FFF739B8DFEDE8
:10491000625AD7E7059B614A1B69DDE906965B4948
:1049200000209847039BAA89DDF804E012FB03F2FC
:104930006B8913FA82F39BB2591C002092B289B2A0
:104940000090FFF738B80023194697E70121ABF82C
:104950006A10002B7FF476AEABF8603019461A4629
:10496000ABF85C200022ABF86220ABF868204BBBB0
:10497000ABF864301A4602EB0109069AD2E92FE13E
:10498000CE451DDA0846002202F1010C09921FFAF9
:104990008CF2162A3FF485AE0EEB104CBCEB090CE2
:1049A0000844F1D4002B7FF45BAF099800FB01F1C0
:1049B0000EEB1143A9EB03039C45C8BF02464FE72A
:1049C00000224DE7069BD3E9349C894546DA13461D
:1049D00062469E4601339BB2162B3FF462AE09EB52
:1049E0001240401A6244F4D40CFB0EF209EB12425E
:1049F0008A1A9042D8BF9E460699BBF86020D1F82B
:104A0000CC30BBF85C00099002FB03F3D1F8C8205E
:104A1000ABF864E002EB13420B46D1F8C410521A13
:104A2000D3E936303FF53DAE09990CFB0EFE00FB95
:104A300001F103EB114309EB1E401918FA239AE721
:104A400002FB03F30EEB1343C3F1FA039C45D8BFFB
:104A50000A46FA210B4683E70522FAE79646CBE79A
:104A6000069BABF84A30237C013B042B46D801A2BD
:104A700052F823F0BF4A0008AF460008C9450008B5
:104A800015470008CB460008E80C0108080B010890
:104A9000A00D010898C10008CDCC4C3EB80D01080E
:104AA000349A1371A6F8AC31B9F1000F7EF401AF5E
:104AB000FFF776B80123FEF7CCBE9BB2D4E54FF0EA
:104AC00000094FF40073CDE909934FF0400E042024
:104AD000CC4602214A464B4686E5D9F810301A4AA0
:104AE0001A4900209847DFED1A7A0023FFF793BB9D
:104AF000059B184A1B69DDE9069610E7059B154AD8
:104B00001B6912490020DDE906969847AA89039B94
:104B1000DDF804E012FB03F26B89562113FA82F3ED
:104B200001FB076100209BB2C1F86E00591C92B2D4
:104B3000009089B2FEF73FBF059B034A1B690349FA
:104B400000209847FFF7EEB95C0D0108080B01083B
:104B500000000043B00C01082DE9F04FADF6240D24
:104B6000CDE9020106920021F0224CA8089306F03C
:104B7000CDFBDFF864B24FF00208934B4FF4805442
:104B80001D469C62FDF796FDAC61FDF793FD029B0F
:104B90005BB9DBF810308D4A8D4900209847B8F199
:104BA000010F32D04FF00108E7E71B68894A9342B2
:104BB000EFD1039B002BF2D0DDF808A09AF80D305E
:104BC000DAF808400A2B14D8DFE813F0250068044F
:104BD000E3036203E602D0011C01AB0075000B0089
:104BE00025002046FCF782FA002840F0D985029B78
:104BF0005B7B794D794A2C6979490020A047029A5C
:104C00000023B8F1010F5373CCD1002528460DF6CF
:104C1000240DBDE8F08F704DEC2200214CA806F069
:104C200075FBD5ED517ADFED6F5ADFED6F6AF8EE67
:104C3000677AB6EE006A85EEA77AF4EEE67A37EE8A
:104C4000067AF1EE10FABCEEC77A17EE103A9FB270
:104C500000F3A1849FED657AF4EEC77AF1EE10FAC5
:104C600000F19984A7F110039BB2EF2B40F2C284AC
:104C70009FED5F7ADFED5F6A77EE877A37EE877AAE
:104C8000BCEEC77AB8EE477A37EEC77AFCEEE77A21
:104C900027EE267A17EE904AFCEEC77A17EE906A56
:104CA000CDE90046544B2C69544A55490020A04791
:104CB000029B5B7B9EE72046FCF718FA002896D003
:104CC0000399602300222046FEF7DEFC0DF5C37336
:104CD0000DF5AB7200210546FDF7B2F8002886D02D
:104CE00028466EAB62AA0DF5DD71FDF7A9F8002824
:104CF0003FF47DAF204640F27C41FCF717F90028D5
:104D00003FF475AF09258AF80D50FDF7ADFC00287A
:104D10003FF445AFDAF800302E4A93427FF439AFC2
:104D20004CE72046FCF7E2F900283FF460AF10237F
:104D3000039900222046FEF7A7FCBDF8BA310746CA
:104D400003F01F09C3F3441E9B0A0025A3F12000B2
:104D5000BB1C09F130090EF1300E07950595AC46E4
:104D60002E4604930CE0059B9A42664640F2158558
:104D70009C46ABB2059207930135082D00F0E48400
:104D8000049A37F9253032F9252009FB03F302FB99
:104D900000F1002BB8BF3F33002902FB0EF2B8BF71
:104DA0001F319B11002A03EB6113B8BF3F321BB2C6
:104DB00042F38F1203FB03F302FB0232B242DBD950
:104DC0006245D0D81646D7E7000400480C01010818
:104DD000240101080EB0371378000020640E01088A
:104DE000880E0108F902154F8096984C8096984BD2
:104DF000BD37063500247449A0020108240E0108BD
:104E0000500E01082046FCF771F90D9000283FF480
:104E1000EEAE504D504AD5F844310399A2FB03231E
:104E2000BDF810229B0902FB03F3049300224FF408
:104E300040732046FEF728FC88AB0B9005930DF5D8
:104E40000779871C0DF61C06B7F9001037F9020C1C
:104E5000FCF7A8FB49F8040F4E4507F10407F3D10E
:104E60000DF1D00920220021484606F04FFA3B4BB5
:104E70000793049B0E9403EB4303DB000993059B0C
:104E80000C9503F15C064FF0000E33AA4FF6FF734A
:104E900037460A93744675461646A7F15C00FCF740
:104EA000A5FF4FF0000CA7F1600050F8043F026E20
:104EB0008742A3EB02039C44F7D1BCF1000FC0F280
:104EC000188440F694534FEA9C1003FB00F0049BB7
:104ED000400D03FB00F0099B03EB102070601DB137
:104EE0003368834240F22B8556F8043F079AA3F1BA
:104EF0006673A3F54A33203B002BB8BF5B42934255
:104F000002D20D9C07930A95691C8DB2082D07F1FA
:104F1000C007C2D1A6460C9D0E9CBEF1000F00F04A
:104F20000F850A9B0093ADF852310D4B0D49372286
:104F300083F8242020460C4A0C23FEF7BBFA2046B7
:104F400040F21741FBF7F2FF002840F0AF85029BCB
:104F50005B7B4FE678000020D34D621040420F008B
:104F60000000002088E900086CCB00082046FCF710
:104F7000BDF800283FF43BAE4FF440730022039984
:104F8000BD4DBE4E2046FEF77FFB00F5C06213AB61
:104F90000A9200220492CDE90C4388AA05921CAA29
:104FA000CDE90E8A07930DF1D0090B924BAF8246E3
:104FB0000B9CD046B8F9021038F9040BFCF7F2FA52
:104FC00044F8040B4C45F5D133AA1446D046099257
:104FD000B8F96210B8F96000FCF7E4FA44F8040F7D
:104FE000BC4208F10408F3D1DDE90413099A58180A
:104FF0000DF16C0E002152F8043F5EF8044F1B1BAC
:10500000AB4240F3F482A3F5C9237E3BAB42FADC0A
:10501000002BB8BF5B429942B8BF1946BA4240F86C
:10502000043BE8D1079B491043F8041F0793049BF6
:10503000603304930A9B0AF1C00A9A45B8D1DDE9AE
:105040000C43DDE90E8A002108460A4653F8045F46
:105050008542C8BF114602F10102C8BF2846082A8E
:10506000F4D114AB0DF1CF0253F82150059B01EBA5
:10507000410103EB41110DF1E70051F8043BAB4254
:10508000ACBF0023012302F8013F90421376F4D114
:1050900000200123024619F8011F6AB981B119F8ED
:1050A000011C69B91A4601200133302B3FF49FAD32
:1050B00019F8011F002AF1D0002900F00A830130FD
:1050C0000133302BE7D1A0F10C03082B3FF68FAD55
:1050D00002EB5002172A02D9183A172AFCD892B2CA
:1050E000ADF83821920093B203F13005ADB25F2DD7
:1050F00040F28884624AA2FB0512920902EB420246
:10510000A5EB421200271D46B94693B201265D4A1F
:105110005D49009320462123FEF7CCF9594A5A49AC
:10512000009522232046FEF7C5F90325554A564926
:10513000009601232046FEF7BDF9524A52490095D8
:1051400002232046FEF7B6F94E4A4F49CDF80090AB
:105150002B462046FEF7AEF94A4A4B4900970423F6
:105160002046FEF7A7F9474A4749009605232046FF
:10517000FEF7A0F90023444900932046414A062344
:10518000FEF798F9204640F2ED31FBF7CFFE0028FC
:105190003FF42DAD0625B6E52046FBF7A7FF002816
:1051A0003FF425AD0399002250232046FEF76CFA08
:1051B0000DF59D72871E3021CDE9048A0A948C4634
:1051C000384692463149CDF81CC0002447F6FF7698
:1051D00005464FF6E473A646A1460F46B046CDF805
:1051E00024A009E0B24204F10104BCBFD646164631
:1051F0000833082C9BB21CD035F9022F0FFA83FA22
:105200005CB135F802CCA2EB0C0C0FFA8CFCE0453B
:10521000A8BFE0466745B8BF6746002AE2DA8A427F
:1052200004F10104C4BFD14611460833082C9BB2D7
:10523000E2D1A7F51C57103FBFB244F620639F424E
:10524000DDF81CC0DDF824A011D8B8F1000F0ED194
:1052500011F5004F47F6FF7300F07A839E4200F08D
:10526000D985AEEB090EBEF1080F00F01586DDE919
:1052700004830293BBE400BF3F240300C1DBFCFFB7
:10528000ABAAAAAA6CCB000888E900080080FFFF3F
:105290002046FBF72BFF00283FF4A9AC039900221E
:1052A00020232046FEF7F0F9B0F900200646074615
:1052B000012115460020944637F9022F02F5487364
:1052C000A3EB0C039BB2B3F5C86F3FF690ACAA42B8
:1052D000A8BF084601F10101A8BF15462029EAD15F
:1052E000072840F295831728A0F1070340F2D285E2
:1052F000D3F1200240F08F8388AB05930DF1D009E4
:1053000005984946FCF7E0F900283FF470AC99EDA8
:10531000006AB5EE406AF1EE10FA3FF468AC99ED20
:10532000017AB5EE407AF1EE10FA3FF460ACD9EDB7
:10533000026AF1EE666AC6EE877AF5EEC07AF1EEA1
:1053400010FAFFF654ACB1EE477AC7EE066AF5EEF6
:10535000C06AF1EE10FA7FF54AACB7EE007A77EE4C
:10536000877AFCEEE77A17EE903A9AB23F2AC3F3B7
:105370004E033FF63CAC83F01003204640F215315B
:10538000ADF83631FBF7D2FD00283FF430AC0425F0
:10539000B9E42046FBF7AAFE079000283FF427ACAB
:1053A0000399412300222046FEF76EF90023028C68
:1053B00005920146A0F1020C994604934FF6FF7E38
:1053C0005A1E02FB02F2C2EBC202500000F5167632
:1053D000C83A3CF9020F002B00F081813CF9027CB5
:1053E00000F57A75C01B9042FFF601ACB0423FF762
:1053F000FEAB85EAE572A2EBE57292B2724506D287
:105400004FEA83099646079A04921FFA89F90133F5
:10541000102BD5D1049A002A3FF4E9ABB1F822E071
:10542000B1F88020A2EB0E0289F03007B2F5FA6FD6
:10543000ADF83471FFF6DBABB94809971204A0FB55
:105440000202520900202031079205464FF6FF76EE
:10545000A14631F8022F059FA2EB070CBCF1000F0B
:10546000B8BFCCF1000C1FFA8CFCB4450EEB104415
:1054700038BF664604F5487C38BF1D46944503F1A5
:10548000010702F5487280F0FA83079ABBB2402BFD
:1054900010443FF4ACAB00220492DAE72046FBF75D
:1054A00025FE00283FF4A3AB88AA154643F2320339
:1054B000002629468893032201232046ADF8246262
:1054C000FBF762FB0399AD88122332462046FEF7B4
:1054D000DBF80146B0F800C0478833463046043157
:1054E0004FF6FF7645FA03F2D2070AD531F81320BA
:1054F000D21B002AB8BF524292B2964284BF98B2E1
:1055000016460133102BEDD1431E0D2B3FF66FAB2A
:1055100000F10043013B01EB430631F8132073888F
:1055200041F28731D21A8A427FF761AB4FF6FF72A0
:1055300095423FF45CABB2889B1A8B427FF757AB26
:1055400040F2E51303FB0CF31B0CA3F5897313F175
:10555000140F1AB2C0F2B3842C2A40F3AD844F2A40
:10556000CCBF042303236F49ADF854310090ADF84C
:1055700032016D4AADF830C120462523FDF79AFF70
:10558000204640F23321FBF7D1FC00283FF42FAB3B
:105590000225FFF7B8BB9FED657ADFED656A654BC5
:1055A000654A664977EE877AB94637EE877A0020F2
:1055B000BCEEC77AB8EE477A37EEC77AFCEEE77AE8
:1055C00027EE267ACDED007A17EE904AFCEEC77AE8
:1055D000CDED017A2F6917EE906AB847A9F1100353
:1055E000EF2B3FF65DABB2E403F5C9237E33B34244
:1055F000FADB0DE577EEC77ADFED516A9FED517A60
:1056000067EEA67A3F2F77EE877AFCEEE77A17EE01
:10561000902AADF8182240F2EF810123BF2FADF898
:10562000123296BFA7F14003FB08C3F3CF03ADF8D6
:10563000143207F00703ADF8163220462E88ADF875
:105640001072FBF767FF00283FF481AC069B0994BA
:105650004FEA530C7608B44528BFB446039B079520
:10566000ACF1020C2CF0010C043304931FFA8CF300
:1056700040F64C39059300266746059CC6F5346311
:105680000C339F4288BF4C46750860084FEA85017D
:105690000CD0244B1944039B03EB800051F8042BDE
:1056A000DA80120C9A8004339842F7D1BDF8123296
:1056B00001931C23009304981B4B22463146FBF7B1
:1056C00045FE002840F01183029B079D5B7BFFF79E
:1056D00091BA0B283FF6F7AC08460A46E4E400F519
:1056E0007A73002BB8BF5B429BB2734511D3012381
:1056F00066E6CCF1000040F69453800903FB00F00D
:10570000049B400D03FB00F0099BA3EB1020FFF767
:10571000E5BB9E46079B04934FF0000901234FE62B
:10572000ABAAAAAA88E900086CCB0008BD370635E9
:1057300000247449A0020108240E0108500E01083B
:10574000E8385BB500007C42059BB6EB530FBFF415
:105750004EAA079BC24AC3490093ADF85031204678
:105760000B23FDF7A7FE0023BD4ABE490093204648
:105770000923FDF79FFE7E23BA4900932046B84ACD
:105780000A23FDF797FE204640F25341FBF7CEFB7C
:1057900000287FF4B8AAFFF72ABA9446FFF7ECBABC
:1057A000039920464FF49C630022FDF76DFF14AB74
:1057B00000931CAB049334AB00261C4688AB1A46FE
:1057C0009A46019612AB90218146129614961C9629
:1057D0003496FCF7C9FB00283FF409AACDE900463E
:1057E000049B5246F02109F59070FCF7BDFB0028A0
:1057F0003FF4FDA912AB00930196149922689A4BCD
:105800009A4D521A02FB03F305FB01F11B0CC3EB8B
:1058100051337B93129B05FB03F305FB02F25B0BF9
:105820007C927D93524611AB40F21F1109F2023077
:10583000FCF79AFB00283FF4DAA9049B019314AB10
:105840000093524610AB4FF4907109F5A860FCF735
:105850008BFB00283FF4CBA9CDE90064334609F562
:10586000F06052464FF4907127465446FCF77CFB9B
:1058700000283FF4BCA9B946DDF810A0D9F80030E3
:10588000DAF80020109F1198129E14999B1A05FBBC
:1058900002FC774AC01B00FB02F205FB07F7120C63
:1058A000C2EB57327E92734A891B01FB02F205FB61
:1058B00006F6120CC2EB563280926F4A05FB00F0DE
:1058C00005FB01F103FB05F502FB03F31B0CC3EB26
:1058D0005C33819169497F90839582930DF22F10FB
:1058E0000DF21B254FF0FF3310F8012F082653400F
:1058F00043F300020A40013E82EA5303F8D1854295
:10590000F2D1029A5E4FDB4387934FF480580A230B
:105910005373C7F82880FCF7CDFEC7F81880FCF752
:10592000C9FE029A574B12689A4200F02782564BE2
:10593000564A1B69564930469847FFF766B90C9D91
:10594000544B372283F82420029B5B7BFFF752B92C
:105950009E423FF48CACBEF1000FC0F29082BEF1CB
:105960001F0F3FF784AC1FFA8EFE4A4B2AF802EF56
:1059700083F815C00CF1010C5FFA8CFCBCF13A0FF6
:1059800000F110007FF41EAC0A9C069A0399802354
:1059900000932046404BDDE9048AFDF7C7FEBDF8C1
:1059A0003C312F4A2F49BDF836510093204607233A
:1059B000FDF780FD2A4A2B49009508232046FDF774
:1059C00079FD0323264A2749009320460923FDF742
:1059D00071FD0623234900932046214A0A23FDF73F
:1059E00069FD204640F2D631FBF7A0FA00283FF4CB
:1059F000FEA80525FFF787B92F2F88BF3B46ADF8D6
:105A000014321AE603274FF001090026FFF77FBB87
:105A100000F10802002388A9D01806EB4000059188
:105A200006EB430607EE903A36F9025BF8EE677A2A
:105A3000B042C1ED027A07EE905AF8EEE77A03FB26
:105A400003F5C1ED007A07EE905AF8EE677A03F19C
:105A50000103C1ED017A01F10C01E3D14EE400BF75
:105A60006CCB000888E90008A82A0400AA0A0100F3
:105A700054150200A64A07004E750B002083B8EDAE
:105A8000000400480EB03713780000200C01010814
:105A90002401010800000020ACCC000800004042B6
:105AA000000080420000004200007C420B9B1FED82
:105AB000057AF7EE007A1C4603F1C00603F5D86CB0
:105AC0004F46A6F1C0030021B3F9022002FB02F009
:105AD000B3F90020043302FB0202B3421144F3D1B4
