:020000040800F2
:100000000000012009C60008CD3A0008D13A0008D6
:10001000D53A0008D93A0008DD3A0008000000008F
:10002000000000000000000000000000E13A0008AD
:10003000E53A000800000000E93A0008ED3A00083F
:1000400059C6000859C6000859C60008013B0008F7
:1000500059C6000859C6000859C6000859C6000804
:1000600059C600083D3B000859C6000859C600089B
:10007000513B00085D3B000859C6000859C60008FE
:10008000693B0008753B000859C6000859C60008BE
:1000900059C6000859C6000859C6000859C60008C4
:1000A00059C6000859C6000859C6000859C60008B4
:1000B00059C60008000000000000000059C60008F2
:1000C00059C60008813B000859C6000859C60008F7
:1000D00059C6000859C60008F14E000859C6000864
:1000E000A93B0008993C0008000000000000000047
:1000F0000000000000000000000000000000000000
:100100000000000059C600080000000059C60008A1
:10011000000000000000000059C6000859C6000891
:1001200059C6000859C6000859C6000859C6000833
:1001300059C6000800000000000000000000000098
:1001400059C6000859C6000859C60008000000003A
:1001500059C6000859C6000859C6000859C6000803
:1001600059C6000859C6000859C60008000000001A
:1001700059C6000859C60008000000000000000031
:1001800059C6000859C6000859C6000800000000FA
:10019000B0F1904F84B017D0234B984204D0234B3A
:1001A00098422CD004B0704711B303F1784303F5A3
:1001B0000333DA6C42F00202DA64DB6C03F0020310
:1001C0000293029B04B0704759B1194BDA6C42F0AC
:1001D0000102DA64DB6C03F001030193019B04B0BC
:1001E0007047134AD36C23F00103D36404B0704703
:1001F0000F4AD36C23F00203D36404B0704769B193
:1002000003F1784303F5FA33DA6C42F08002DA64E2
:10021000DB6C03F080030393039BC3E7044AD36CB6
:1002200023F08003D364BDE700040048001C0048AD
:100230000010024008B518B1064B02689A4207D078
:10024000054B064A1B69064900209847002008BD57
:10025000012008BD0EB0371378000020E0330108FC
:10026000F833010890F824C0BCF1010F3CD070B500
:1002700090F825C00124A44580F824405FFA8CFE44
:1002800004D0002380F82430022070BD022580F8BD
:10029000255004680025C5632668456C26F00106D4
:1002A000266005F01C05066C0EFA05F575606360A6
:1002B0008368102B036B0BBFA260A160E160E2605A
:1002C0004BB1236843F00E032360236843F001031E
:1002D0000020236070BD236823F00403236023689B
:1002E00043F00A032360F0E7022070472DE9F04154
:1002F0007A4C0023237694F87D30012B0D46616AF9
:1003000008D0B1F5827F64D1D8B2A36A002B60D146
:1003100004285ED1002D5CD092B2002A59D094F806
:100320007C30012B55D094F87D30266AA565042BCE
:100330001CBF052384F87D3001210023C4F88030E0
:1003400084F87C10A4F85E20A4F86620C4E91B336E
:100350007368A4F85C2023F4C0432566A4F86420E5
:100360007360E36AA06FB3F5E06F34D8636F996987
:100370007368B1F5806F43F48053736000F082803E
:100380008369B3F5806F69D094F87D30544A042BAB
:10039000544B18BF1346544A0363544B4363544BA6
:1003A00018BF1346C362B4F866304FF00008C0F8B7
:1003B00038809BB206F10C012A46FFF753FF07462F
:1003C00070B1D4F8803084F87C8043F01003C4F816
:1003D0008030BDE8F081736823F480537360D3E705
:1003E0007368606F43F001037360B4F85E300A46CF
:1003F000C0E90B77C0E90D7729469BB2FFF732FFC2
:1004000000284CD133685B0623D5002384F87C3068
:10041000736843F020037360736843F002037360F2
:10042000D4F88420237E002BD3D141F2873109E018
:1004300072B6237E03B930BF62B6BFF36F8F237EDF
:10044000002BC6D1D4F884309B1A8B42F0D9BDE87A
:10045000F081336843F040033360D6E7736823F4D8
:1004600080537360B4F8663013F0010F73681FD1C6
:1004700023F400537360B4F86630C3F34E03A4F85A
:10048000663081E7D20773681DD423F4804373601C
:10049000B4F85E30C3F34E03A4F85E3070E7D4F8CE
:1004A000803084F87C7043F01003C4F8803090E70B
:1004B00043F400537360B4F86630C3F34E03013362
:1004C000A4F8663060E743F480437360B4F85E30AC
:1004D000C3F34E030133A4F85E3051E778000020E7
:1004E000A5120008A1120008ED230008A9120008B7
:1004F0003D23000890F82520022A03D00422C2637D
:10050000012070470168426C10B50C6824F00E049D
:100510000C600C6824F001040C6002F01C02046CF6
:10052000012101FA02F26260826B80F8251000243A
:1005300080F8244002B19047002010BD70B4436C95
:10054000066C056831682C6803F01C0304229A408D
:100550000A420ED014F0040F0BD02B689B0603D474
:100560002B6823F004032B60036B7260CBB170BC6B
:10057000184702229A400A4215D014F0020F12D0F6
:100580002B68990606D42B6823F00A032B600123FD
:1005900080F82530C36A7260002180F82410002B97
:1005A000E5D170BC704708229A400A42F9D0220770
:1005B000F7D52A68416B22F00E022A60012202FA66
:1005C00003F300247360C26380F8244080F8252080
:1005D0000029E6D070BC08472DE9F04F00233E4EBD
:1005E0004FF00F094FF0030A4DE03C4FB84265D081
:1005F0003B4FB84266D03B4FB84268D0DFF8E8B016
:1006000058450CBF4FF0040B4FF0070B0BFA04F4E6
:10061000A44513D1346824EA0E043460746824EAD3
:100620000E047460F46824EA0E04F460B46824EAEA
:100630000E04B460AC6824EA0804AC6004685D0091
:100640000AFA05F54FEAD30C2C4300EB8C0C04603E
:1006500003F00704DCF820E0A40009FA04F42EEA11
:100660000404CCF82040846824EA050484604468CB
:1006700024EA02024260C26822EA0502C260013333
:1006800031FA03F218D001229A4012EA010EF6D094
:1006900023F0030505F1804505F5803503F00304DB
:1006A000D5F808C0A40009FA04F8B0F1904F08EAA0
:1006B0000C0C9AD10024ABE7BDE8F08F012707FAB4
:1006C00004F4A5E74FF0020B0BFA04F4A0E74FF097
:1006D000030B0BFA04F49BE70004014000040048FC
:1006E00000080048000C004800100048002310B427
:1006F00080F8423090F84120212A4FF0200118D193
:10070000112280F84110026390F84110046801F052
:10071000280122684363282914BF6FF0F2016FF0AB
:1007200042010A40002322605DF8044B80F840300B
:100730007047122280F84110026390F8412001684E
:1007400002F028020C684363282A14BF6FF0F402F9
:100750006FF04402224000230A605DF8044B80F8E9
:100760004030704701680B68002280F842205A042C
:100770000CD50B6823F480430B6090F84130292B93
:100780000ED090F841302A2B20D070471B04F4D5AE
:100790000B6823F400430B6090F84130292BF0D113
:1007A0002822212380F84120036390F841300A6811
:1007B00003F02803282B14BF6FF0F2036FF04203FD
:1007C000134000220B6080F840207047282222232B
:1007D00080F84120036390F841300A6803F0280351
:1007E000282B14BF6FF0F4036FF044031340002272
:1007F0000B6080F84020704710B400232022174C73
:10080000C4624363036380F8412080F842304B07A1
:10081000026811D5436A526A1A70436A028D013325
:1008200043624AB1438D013B9BB24385436C013A1D
:1008300043F0040302854364036890F8412090F874
:1008400041201A68102422F0FE0200211A60DC61A7
:100850005DF8044B80F84010704700BF0000FFFFB8
:1008600010B50446514A94F84130002084F8420003
:10087000E2626085626C1143A3F12802022A2368B8
:1008800061645DD894F8411094F8412001F028018A
:10089000282902F0280214BFF6214621282A1A68C6
:1008A0000CBFC9436FF0F6010A40282040491A6086
:1008B00084F84100A06B226B616318B1112A11D03A
:1008C000212A0FD0E06B18B1122A20D0222A1ED084
:1008D00094F84130602B4FF0000360D0236384F81C
:1008E000403010BD1A68510454D490F82530012BC3
:1008F000EED0304A8263002384F84030FFF7FAFDDF
:100900000028EED0A06BBDE81040836B18471A6832
:10091000120403D51A6822F400421A6090F82530B8
:10092000012BD5D0234A8263002384F84030FFF79F
:10093000E1FD0028D5D0E06BBDE81040836B18477F
:1009400094F8412094F841201A6822F0FE021A60BF
:100950009A69920748BF98629A69D10703D49A6945
:1009600042F001029A6194F84120602A10D02022BE
:1009700084F841209A6992060AD59A69D00605D56D
:100980001022DA61626C42F0040262642022DA61B1
:1009900000218FE71A6822F480421A60A5E720221E
:1009A00084F8412084F84030236310BD0000FFFF2D
:1009B000CD2000081910000830B40368202282B04E
:1009C000DA6190F84120212A90F841204AD0222A69
:1009D00056D05A68324C002522405A60314C45634B
:1009E000CD06C46205D51022DA61426C42F00402E1
:1009F000426490F84120602A2DD09A69910744BF43
:100A000000229A629A69D20703D49A6942F00102DD
:100A10009A61436C90F84120602A0BD053B990F84A
:100A20004120212A0AD090F84120222A06D002B083
:100A300030BC7047416C02B030BC11E7202280F816
:100A40004120036390F8422080F8403080F8423023
:100A500002B030BC70474C07CFD55A6AD2B201926F
:100A6000019ACAE702F028021C68282A14BF6FF016
:100A7000F2026FF04202224011241A600463A8E7D8
:100A800090F841201C6802F02802282A14BF6FF059
:100A9000F4026FF04402224012241A60046398E7C3
:100AA00000E800FE0000FFFF38B590F84030012B51
:100AB00000F085800123CD06044680F8403001D542
:100AC000D00659D40D063AD550064DD523681A687C
:100AD00022F040021A60628D92B2002A71D05868EA
:100AE000628D92B2FF2AC0F3090078D8618DE26A64
:100AF00089B212F5803F218500F082805FFA81FC87
:100B0000E26A4FEA0C4C42EA0C020243404D58683C
:100B100022F00042284002435A60628D521A92B27B
:100B2000628594F84120222A1A680CBF42F40042E0
:100B300042F480421A60002084F8400038BD4D061F
:100B400012D5500610D5638D9BB2002B40D123687F
:100B50005A689201EFD4E26A12F5803F34D15A68A4
:100B600042F480425A60E6E78B06E4D59306E2D56C
:100B70002046FFF721FFDEE7236826481022DA61CE
:100B8000616C626B41F004018242616425D02249AC
:100B90008A4222D021498A4214BF20226022196849
:100BA0000A431A609A69910744BF00229A629A69BF
:100BB000D207C0D49A6942F001029A61BBE70220D1
:100BC00038BD5B689A0103D42046FFF78FFDB2E77A
:100BD00040212046FFF744FEADE76022DFE79A6937
:100BE000D10306D5012121854FF4803C4FF080725E
:100BF00089E7FF2121854FF47F0C4FF0807282E757
:100C00005FFA81FC4FEA0C4C4FF000727BE700BFAB
:100C1000009C00FCA90A000805220008210C00081D
:100C200038B590F84030012B00F0D680012380F8D1
:100C30004030CB06044602D5D00600F1A9808B07D0
:100C40000BD5900709D52268216D91624FF0FF33D3
:100C50002365002084F8400038BD0B063AD55506C0
:100C600040F18C8094F84120236802F02802196832
:100C7000282A14BF6FF0F2026FF042020A401A6095
:100C80001A6842F090021A60628D92B2002A00F057
:100C9000B880628D92B2FF2A40F2A2809869654DB9
:100CA000E16C5A68C0F3004000280CBF4FF47F008D
:100CB0004FF4803002EA0502C1F3090142EA000262
:100CC00042EA010242F080720CBFFF21012121851E
:100CD0005A6040E04B0651D550064FD594F841106C
:100CE000236855481A6801F02801282914BF6FF0BD
:100CF000F2016FF042010A401A601A684F4942F04F
:100D000090021A6094F841C0628D92B2BCF1220F39
:100D100008BF0846FF2A79D99A69C2F30042002A1F
:100D2000E26CC2F309020CBF4FF47F054FF480352B
:100D300042EA000242EA05025868414D22F00042B0
:100D400000EA050042EA00020CBFFF21012142F047
:100D5000807221855A60628D521A92B2628594F82F
:100D60004120222A1A684FF000000CBF42F40042D2
:100D700042F480421A6084F840006DE788067FF5EF
:100D800068AF93067FF565AF2046FFF715FE60E775
:100D900023682C481022DA61616C626B41F0040117
:100DA000824261641AD028498A4217D027498A4270
:100DB00014BF2022602219680A431A609A699107B9
:100DC00044BF00229A629A69D2073FF542AF9A69FE
:100DD00042F001029A613CE7022038BD6022EAE756
:100DE000618D144DE26C586889B22840C2F3090243
:100DF000CDB242EA0542024342F0007221855A60B8
:100E0000A9E740212046FFF72BFD22E7618DE26C28
:100E100089B2CDB2C2F3090242EA05420243084D4B
:100E20005868218522F000422840024342F00072B7
:100E30005A6090E7009C00FC0020008000240080A5
:100E4000009800FCA90A000805220008210C0008EF
:100E500070B5036804460D461968C06A94F84120CD
:100E60002026213ADE61092A0ED8DFE802F06E055D
:100E70000D0D0D0D0DA16E0594F841201A6822F09C
:100E8000FC021A60222222635A68614E42F4004238
:100E90005A605A6832405A609A69920744BF0022E9
:100EA0009A629A69D60703D49A6942F001029A615C
:100EB0004A0435D51A6822F480421A60A26B1AB12E
:100EC0001268526892B262856A070AD55A6A636AE2
:100ED0001A70636A01336362238D25F00405002BC9
:100EE0005FD1638D9BB21BB1636C43F004036364F9
:100EF000EB0601D5CE0631D4002384F84230666C6F
:100F00006363002E5FD1E36A424DAB4212D194F885
:100F1000413084F84060202384F84130266370BD5E
:100F20000E04D1D51A6822F400421A60E26B002A3E
:100F3000C6D1C9E72046FFF715FC2023E56284F8F7
:100F4000406084F84130266370BD94F841201A68EF
:100F500022F0FA021A602122226395E7638D9BB288
:100F6000002B3DD194F84130282B48D094F84120F3
:100F70002368292A4FF01002DA61BDD110F5803FB5
:100F8000BAD09A69910744BF00229A629A69D2073F
:100F900003D49A6942F001029A612046FFF7E2FB0E
:100FA000AAE7013B2385638D013B9BB2638598E7EC
:100FB00094F8412094F841201A6822F0FE021A6049
:100FC0000022226360E7616C2046FFF749FC94F839
:100FD0004130282BA3D129462046BDE870400BE4C0
:100FE00023681022DA61636C43F00403636430F019
:100FF000807381D1616C2046FFF732FC7CE7B0F151
:10100000007FB3D129462046FFF7F6FB74E700BF07
:1010100000E800FE0000FFFF836A9A6B0AB100211E
:101020009163DA6B0AB10021916393F84120602A41
:1010300009BF00220022202183F841101A630022F8
:1010400083F84020704700BF264A9368D26813F0A7
:101050000C0305D00C2B32D0042B3ED12248704714
:10106000204A1168090754BFD2F8942012681F491A
:1010700054BFC2F30322C2F3031251F82200002B23
:10108000EDD0184BDB6803F00303022B23D0184A82
:10109000032B08BF1046134BD968DA68DB68C3F32B
:1010A0004163C2F30622C1F30211013300FB02F2D5
:1010B00001315B00B2FBF1F2B2FBF3F0704702F0DA
:1010C0000302012ACCD0074BDB6803F00303022B99
:1010D0004FF00000DBD10448DDE7082B044818BFBF
:1010E00000207047001002400024F40088F400083B
:1010F00000127A0021498B6DDB0082B01CD5204B99
:101100001B6803F4C063B3F5007F29D080282ED874
:1011100031D0A0F17002B2FA82F2520919490B687B
:1011200023F0070313430B60086800F00700801AE0
:1011300018BF012002B070478B6D114A43F08053F5
:101140008B658B6D03F080530193019B13688A6D4F
:1011500003F4C06322F08052B3F5007F8A65D5D1D5
:10116000802806D9A0288CBF02220122D6E70322BC
:10117000D4E70022D2E70222D0E700BF00100240ED
:101180000070004000200240434A036830B4D46835
:10119000A40707D0D46804F003049C424AD001207D
:1011A00030BC7047022B56D0032B4DD0012BF6D10B
:1011B00012689207F3D5384CE26822F073021343A9
:1011C0004268013A43EA0213E360334C334A23682E
:1011D00023F080632360D2F8845004E0D2F8843096
:1011E0005B1B022B3BD823681B01F7D483681B02CF
:1011F000002936D12169C56821F0784121F4FE41EA
:1012000043EAC5630B43236123490B6843F08063C2
:101210000B60D2F8844004E0D2F884301B1B022B10
:101220001DD80B681B01F7D582690B691343002099
:101230000B61B5E7002CB2D0D3684268C3F3021348
:1012400001339342ABD1C0E71468A403B3D412684E
:101250005203A4D5AFE712685505A0D5ABE703202C
:101260009EE7012921690BD021F0C06121F4FE41E4
:10127000194343695B08013B41EA43612161C3E7CC
:1012800021F4C00121F4FE410B43016949080139F1
:1012900043EA41532361B7E7001002407800002081
:1012A000704700BF704700BF836A19684A6822F020
:1012B00003024A601A6E4FF0010C42F010021A66E7
:1012C00083F85DC0704700BF0368806A1A6812F037
:1012D000200228D10368A0F85A2053E8002F22F4F6
:1012E000807243E800210029F7D103F1080252E897
:1012F000002F22F0010203F1080C4CE80021002924
:10130000F3D103F1080252E8002F22F0400203F16A
:10131000080C4CE800210029F3D12022C0F88020DD
:10132000026E012A03D000234366036E704753E820
:10133000002F22F0100243E800210029F3D053E8E7
:10134000002F22F0100243E800210029EFD1EAE744
:10135000836A01225A661B6E704700BF836A0022AF
:10136000A3F85A20A3F85220704700BFD0F880108D
:10137000B0F85C300268222905D0138B9BB243F091
:10138000080313837047918C426D0B401370B0F8C3
:101390005A30426D013B9BB2A0F85A30B0F85A3037
:1013A00001329BB24265002B45D110B4036853E86B
:1013B000002F22F4907243E800210029F7D103F1B5
:1013C000080252E8002F22F0010203F1080444E869
:1013D00000210029F3D1184A816620249342C0F8E5
:1013E0008040416612D05A6811020FD553E8002F91
:1013F00022F0806243E8002141B1016851E8002FEA
:1014000022F0806241E80024002CF7D1026E012A0C
:101410000ED10022026653E8002F22F0100243E8AA
:1014200000210029F7D1DA69D20601D510221A620B
:101430005DF8044B7047704700800040D0F8801082
:10144000B0F85C300268222905D0138B9BB243F0C0
:1014500008031383704710B4948C416D234021F826
:10146000023BB0F85A304165013B9BB2A0F85A30BC
:10147000B0F85A309BB2002B40D152E8003F23F421
:10148000907342E800310029F7D1016801F10803A7
:1014900053E8003F23F0010301F1080C4CE800344D
:1014A000002CF3D12023C0F88030164B846699427B
:1014B000446611D04B681C020ED551E8003F23F062
:1014C000806341E800343CB152E8003F23F0806380
:1014D00042E80034002CF7D1036E012B0ED100231B
:1014E000036651E8003F23F0100341E80032002A70
:1014F000F7D1CB69DB0601D510230B625DF8044BF5
:10150000704700BF00800040B1F804C093680A89AA
:101510009A80BCF1000C18BF4FF0010CCA7983F817
:1015200000C091F806C083F801C09A7098607047B7
:1015300003460068D3F8E8104268C3F8F01010477B
:101540002DE9F047D0F800800546B8F1000F1ED015
:10155000D8F898700FB3124E07F148044FF0000905
:10156000583754F8040F18B1B3689847C4F800907E
:10157000A742F6D1D8F89800B36800B19847B3688D
:1015800040469847B3682846BDE8F0471847044EE0
:101590002846B368BDE8F0471847014EEFE700BFA3
:1015A00078000020F8B505460088002A1C460CBFCC
:1015B0004FF400534FF48053B0F59C6F0E460ED39A
:1015C00000F151077F008342BFB235D21C4B1D4A48
:1015D0001B691D49002098474FF0000C03E040F6BE
:1015E00062274FF0010C1949194AC4E9011202F1AE
:1015F0001912E26002F11912226123460022628070
:101600005122A28223F8167B29686A68A868EF68CD
:10161000C4F816105A609860DF602969A8696A6981
:101620009861196196E803005A61AA8B9A83343451
:1016300084E803006046F8BD4FF0010CD3E700BF1B
:101640007800002000340108203401080100020065
:1016500003001B0010B50C4C94F88810012982B0CF
:101660000FD90A49246912F4006F0346084818BFCD
:101670000846C2F30A01CDE90001064A06490220E4
:10168000A04702B010BD00BF78000020343401082C
:101690003C340108443401085834010810B50A4CA0
:1016A00094F888C0BCF1010F82B00AD92C3989B2F4
:1016B000034610462469054ACDE90010044902207A
:1016C000A04702B010BD00BF780000206C340108B4
:1016D0005834010830B5084991F88840012C83B08E
:1016E00008D902F00F040D69044A05490094034625
:1016F0000220A84703B030BD7800002094340108D0
:101700005834010810B50A4C94F888C0BCF1010F98
:1017100082B00AD97D3989B2034610462469054A48
:10172000CDE9001004490220A04702B010BD00BF5F
:1017300078000020B43401085834010810B5A1F134
:10174000620C134C1CF0010F034694F888E084B03F
:101750001FFA8CF00DD1BEF1010F08D940082469A1
:101760000292CDE900010B4A0B490220A04704B0C8
:1017700010BDBEF1010FFAD9400824690292CDE9EB
:101780000001064A04490220A04704B010BD00BF72
:1017900078000020E4340108583401081C350108A1
:1017A00010B50A4C94F888C0BCF1010F84B00BD975
:1017B0000346A1F58C7080B224690090CDE9011236
:1017C0000220034A0349A04704B010BD780000205E
:1017D00054350108583401082DE9F04F1F4EDFF849
:1017E00088B0804615460FCE91B002AC0FC40FCE24
:1017F0000FC40FCE0FC49BF888C096E80300BCF15D
:10180000010F84E8030007D9DBF81040144A15499A
:10181000009543460220A047DFF850A0DFF844902F
:1018200002AC10AE02E00834B44213D0A3881D42CB
:10183000F9D09BF88820012A4346524649464FF08A
:101840000200F0D927680097DBF810700834B84719
:10185000B442EBD111B0BDE8F08F00BFB8F400087E
:101860007C350108583401087800002098350108BB
:1018700070B5114E114A3368A2FB03239B09013B4B
:10188000B3F1807F01D3012070BD4FF0E0220C49FD
:101890005361F02381F82330002507230F28956139
:1018A00004461361EFD801464FF0FF3007F0B6FE53
:1018B0007460284670BD00BF00000020D34D621048
:1018C00000ED00E0F0B58D4B02689D68DE680446CF
:1018D000D00683B005F00C0506F0030640F1348114
:1018E000002D40F0FA80854B1B68990700F1668156
:1018F000824B276A1A68120756BFD3F894301B68C8
:101900001B0903F0F0039F4200F2E8817B4B1A6849
:1019100042F008021A601A6822F0F0023A431A6094
:101920005A68E16922F47F4242EA01225A60002D9E
:1019300000F00B82FFF788FB704B9A68704BC2F384
:10194000031213446F4A93F8683003F01F0320FA20
:1019500003F350681360FFF78BFF002840F03381DA
:101960002268D00700F1F48090071FD50C2D00F0FD
:10197000CD81E3686148002B00F08481036843F463
:1019800080730360604BD3F8846005E0D3F8841063
:10199000891B022900F24D8101684905F6D543688B
:1019A000216923F0F85343EA01634360160718D511
:1019B00063695248002B00F01481D0F8943043F052
:1019C0000103C0F89430504BD3F8846005E0D3F89D
:1019D0008410891B022900F22C81D0F89410890709
:1019E000F5D550073ED5454B996DC90000F14881AA
:1019F000996D41F0805199659B6D03F0805301937F
:101A0000019B0120414E3368DF0540F102813E4BCE
:101A1000A168012900F04781052900F0AA81374E0D
:101A2000D6F8907027F00107C6F89070D6F890703D
:101A300027F00407C6F89070002940F03B81D3F8E6
:101A400084C041F2883706E0D3F88410A1EB0C0182
:101A5000B94200F2EE80D6F890108907F4D400283D
:101A600040F06D81970618D5636A2449002B00F079
:101A70005181D1F89820244B42F00102C1F89820FE
:101A8000D3F8840005E0D3F88420121A022A00F269
:101A9000D080D1F898209607F5D5A36ADBB1022B48
:101AA00000F075810C2D00F08D801449164B0A68EA
:101AB00022F080720A60D3F8840005E0D3F8842015
:101AC000121A022A00F2B5800A689201F6D4CA6896
:101AD0000F4B1340CB60002075E00C2D00F095807B
:101AE000A3690648002B00F0A7800168064B41F06F
:101AF00001010160D3F8847012E000BF00100240C1
:101B000088F40008000000207800002000700040E9
:101B1000FCFFEEFED3F88410C91B022900F2898075
:101B200001688907F6D5036843F00803036003687A
:101B3000216A23F0F0030B4303604368E16923F457
:101B40007F4343EA01234360D30722D5082D3ED0CB
:101B50000C2D3AD06368B3F5803F7ED0B3F5A02F4B
:101B600000F0FA809548016821F480310160016835
:101B700021F480210160002B74D1914BD3F8847043
:101B800004E0D3F88410C91B642952D80168890382
:101B9000F7D497077FF50AAF042D7FF4E7AE874BA4
:101BA0001B68580501D5E36863B1844920694B6817
:101BB00023F0F85343EA00634B60F7E6A369002B78
:101BC0007FF496AE012003B0F0BD032EC2D17B4B53
:101BD0001B689F037FF5C8AE6368002B7FF4C4AE1B
:101BE000F0E7D0F8943023F00103C0F89430744B40
:101BF000D3F8846004E0D3F88410891B022918D834
:101C0000D0F894108F07F6D4EBE6012E7FF468AF7E
:101C100069E6336843F480733360694BD3F88470AA
:101C20003168C9053FF5F4AED3F88410C91B022909
:101C3000F6D9032003B0F0BD0168614B21F001012A
:101C40000160D3F8847004E0D3F88410C91B022922
:101C5000EFD801688907F7D476E758490B6843F451
:101C600080330B60564B5548D3F8847004E0D3F8AA
:101C70008410C91B6429DCD801688903F7D588E77B
:101C80000020BFE6036823F4807303604C4BD3F855
:101C9000846004E0D3F88410891B0229C9D8016844
:101CA0004F05F7D482E6454ED6F8901041F0010179
:101CB000C6F89010D3F884C0404E41F2883705E052
:101CC000D3F88410A1EB0C01B942B2D8D6F8901029
:101CD0008907F5D500283FF4C5AE30E03846FFF758
:101CE00009FA00287FF46EAF344B1A6842F00802FC
:101CF0001A601A6822F0F0023A431A605A68E169E1
:101D000022F47F4242EA01225A6013E6022E7FF457
:101D100030AE44E7D1F89820294B22F00102C1F8F7
:101D20009820D3F8840005E0D3F88420121A022A00
:101D30003FF67FAFD1F898209207F5D4ADE61F4962
:101D40008B6D23F080538B658CE63846FFF7D2F914
:101D500000283FF4EFAD35E703F18043A3F53C33B2
:101D6000196841F480211960196841F480311960C3
:101D700078E71249D1F8906046F00406C1F8906007
:101D8000D1F8906046F00106C1F8906092E70B4AE6
:101D9000E66AD36803F00301B1424BD00C2D3FF447
:101DA00011AF06490B685F013FF50CAF0A68044BA1
:101DB00022F080720A60D3F8840009E0001002402B
:101DC00078000020D3F88420121A022A3FF631AF9F
:101DD0000A689501F6D4C868354A0240606B324300
:101DE00042EA0022A06B42EAC062206B013842EA5C
:101DF0000012D4E90F506C08013C4008013842EA57
:101E0000445242EA4062CA600A682A4842F080723C
:101E10000A60CA6842F08072CA60D3F8841005E094
:101E2000D3F88420521A022A3FF603AF02689401C5
:101E3000F6D550E6216B03F070000139B0EB011FBD
:101E4000ACD1606B03F4FE41B1EB002FA6D1A06BC7
:101E500003F07841B1EBC06FA0D1E16B49080139C3
:101E600003F4C000B0EB415F98D1216C490803F046
:101E7000C0630139B3EB416F90D1136898013FF50E
:101E80002AAE11680C4B41F080711160D16841F0AD
:101E90008071D160D3F8840005E0D3F88410091A6A
:101EA00002293FF6C6AE11688901F6D513E600BFD8
:101EB0008C809D010010024078000020514AF8B546
:101EC000136803F007038B420BD2136823F0070358
:101ED0000B431360136803F007038B4201D001200A
:101EE000F8BD046814F0020E04F0010369D0464EF8
:101EF0008568B26802F0F002954204D9B26822F017
:101F0000F0022A43B260002B66D04268032A5DD0FB
:101F10003D4B022A1B686BD0002A6ED19E07DED58E
:101F2000394D3A4EAB6823F003031343AB60D6F848
:101F30008470920041F2883C04E0D6F88430DB1BC8
:101F4000634558D8AB6803F00C039342F5D1BEF15A
:101F5000000F40D12B4A136803F007038B4209D9C5
:101F6000136823F007030B431360136803F00703A0
:101F70008B42B4D1620706D5234AC168936823F423
:101F8000E0630B439360230707D51F4A01699368F9
:101F900023F4605343EAC1039360FFF755F81A49ED
:101FA0001B4A89681B4CC1F303110A44034692F88B
:101FB0006820606802F01F02D3402360BDE8F8404B
:101FC00056E4002BC6D04268032AA1D10E4B1B68F1
:101FD0009B01A5D483E785680B4A936803F0F0035F
:101FE0009D42B7D2936823F0F0032B439360B1E78F
:101FF0009F0395D473E70320F8BD5D057FF56FAFB0
:102000008EE700BF00200240001002407800002050
:1020100088F40008000000200CB4F0B5ADB032AB7D
:1020200006AE53F8042B059304460D463046962120
:102030000CF038FB9528C4BF1C4BCDF8AA301C4BC4
:102040001C49D3F88470A1FB07311B4BA3FB07236A
:10205000980B1A4BA3FB07234FEA931C184B4FF422
:102060007A7202FB1C77A3FB00E25209042CC2EB3C
:102070000212A0EB8202A3FB0CE398BF1148009769
:102080004FEA531394BF005D3F20C3EB031301904D
:10209000CDE90256490DACEB83030B480CF0DCFA9A
:1020A0002DB0BDE8F04002B0704700BF2E2E2E00CC
:1020B00078000020B17C219573B2E745D34D6210C2
:1020C00089888888D0350108AC35010838B590F882
:1020D00040C0C56ABCF1010F67D04FF0010C11F090
:1020E000200F04460B4680F840C002D012F0200FAB
:1020F00051D1D80615D5D10613D5628D92B2002ADA
:1021000055D194F84120282A74D094F841202368AE
:10211000292A4FF01002DA615CD0002084F84000D8
:1021200038BD590719D4190701D5100739D49907B3
:10213000F3D59307F1D5638D9BB2002B46D0616A2E
:10214000236811F8012B9A62638D228D6162013B35
:102150009BB2013A63852285DFE75007E3D5638DA3
:102160009BB26BB12268636A526A1A70638D616AAE
:10217000228D013B0131013A9BB261622285638568
:10218000638D9BB2002BC8D115F5803FC5D020468A
:10219000FEF7E8FAC1E7FEF75BFE002084F8400096
:1021A000BEE7204609F014F9B7E7022038BD2368DE
:1021B0001022DA61636C43F00403636435F08073CA
:1021C000ABD1616C2046FEF74BFBA6E735F0807380
:1021D000A3D1DCE715F5803F9FD09A69950744BFEE
:1021E00000229A629A69D007D1D49A6942F001021A
:1021F0009A61CCE7B5F1007F87D119462046FEF7FA
:10220000FBFA8AE738B590F840C0C56ABCF1010F07
:1022100046D04FF0010C11F0200F04460B4680F819
:1022200040C002D012F0200F30D1D90626D5D006FA
:1022300024D55104C2F3803034D5E16B09B11204C6
:1022400035D4A26B1AB112685268002A37D02368BD
:102250001022DA61636C43F00403636494F8413044
:1022600035F08072DBB20DD1213B092B4CD8DFE871
:1022700003F049504B4B4B4B4B4B4950190701D581
:10228000130709D4002084F8400038BDFEF7E0FDB4
:10229000002084F84000F8E7204609F099F8F1E7BB
:1022A000022038BD110429D5E16B0029CFD00A687E
:1022B0005268002A30D1A26B0AB100283AD194F8B2
:1022C0004120282A2ED094F841202368292A4FF053
:1022D0001002DA61D6D115F5803FD3D09A699507FF
:1022E00044BF00229A629A69D00703D49A6942F0E7
:1022F00001029A612046FEF735FAC3E723681022EF
:10230000DA61BFE721232363616C2046FEF7A8FA58
:10231000B8E722232363F7E7A26B002A97D00028AF
:1023200095D090E7B5F1007FCDD119462046FEF754
:1023300063FAA7E712685268C1E700BF38B52A4AB6
:102340000368D2F884501B689B061BD4846A2368F8
:10235000A2685868616820F0200058609AB15868F7
:10236000B1F5827F20F00100586022D02946204636
:1023700006F08CFCB0B901230022A4F8462084F8B2
:102380005D30236E38BD5A68B1F5827F0CBF22F0F4
:10239000030222F001025A602946204606F076FC2C
:1023A0000028E8D0236E43F0200323662023236611
:1023B000E1E7B2F5004F12D11A6822F04002294637
:1023C0001A60204606F062FC0028EBD12A464FF442
:1023D000C061204606F0F6FB0028CCD0E2E7B2F55B
:1023E000806FE9D0C2E700BF78000020F8B51C4D2F
:1023F0000368D5F884701B68846A9B062CD4266811
:10240000736823F0200373603A464FF4C0512046AE
:1024100006F0D8FB58B93946204606F037FC30B9EB
:102420003A464FF4C061204606F0CCFB38B1236E2B
:1024300043F020032366236E43F020032366736872
:1024400023F00303736000220123E287A4F84620EF
:1024500084F85D30236E0BB901232B76F8BD00BFE5
:10246000780000202DE9F04FBFB00DF138090D467E
:102470009046019300F1020B3EAFCA46002440F69D
:10248000B73631E025B335F8141001F01F0E4FEACE
:10249000912C0EF1300E00FB0EF0C1F34411ACF1A3
:1024A000200C02FB0CFC002801F1300102FB01F1C1
:1024B000B8BF3F30BCF1000FB8BF0CF11F0C80114A
:1024C000002900EB6C10B8BF3F3100B241F38F110F
:1024D0000134182C08BF002406F058F94AF8040B00
:1024E000BA450BF1040B0ED0BBF900203BF9020CEE
:1024F00002FB02FC00FB00CCB4451146C2DC00200C
:102500003FB0BDE8F08F0DAC0DF1060109F15C059F
:10251000224652F8043F002BB8BF0F3302311B1183
:1025200095420B80F5D1484606F044FC002254F851
:10253000043F216EA542A3EB01031A44F7D1124BCD
:1025400083FB0213D217C2EBA31404F59943303373
:102550004CF662129342D2D802AE35460FCD4D45AD
:1025600008F1100806F1100648F8100C48F80C1C89
:1025700048F8082C48F8043CEFD1019B01201C804E
:102580003FB0BDE8F08F00BFABAAAA2AF8B5164647
:102590000D464FF4E272014618461C460CF018F83E
:1025A000B6F8581021B196F85E30191E18BF0121F7
:1025B000012396F85B2084F8C6312B4684F8C521A8
:1025C00033F8262B84F8C411A4F8C82105F156016C
:1025D00004F5E5721F685E689868D3F80CC0C2F80D
:1025E0000CC010338B4217605660906002F11002ED
:1025F000F0D1B5F85630A4F8FA3105F1580604F5D3
:10260000FE7E05F18807B446BCE80F00BC450EF11C
:10261000100E06F110064EF8100C4EF80C1C4EF879
:10262000082C4EF8043CEED1B5F88830A4F82C32D2
:1026300005F18A0304F22E24BA35186859689A689D
:10264000DE68E6601033AB4220606160A26004F196
:102650001004F2D1F8BD00BF2DE9F04F2DED108B25
:102660009BB090F85E401D4690F85C300893042CB7
:10267000B0F8583003938046894616461AD8D0EDF4
:10268000147AF5EEC07AF1EE10FA00F1F58190F8C7
:102690006630002B00F0918290F85B30002B00F048
:1026A0008C82024C024A059407E000BF78000020AB
:1026B0001C360108C64CC74A05942369C649002048
:1026C0009847D8ED157AD4F88C30009307EE103A7D
:1026D000F5EEC07AF1EE10FAB8EE478A40F3D081F9
:1026E000C8EE278AF6EE007A78EEA78A039B002BC5
:1026F00000F0A68198F85E30049398F85A30002BC9
:1027000040F0A58198F86020022A41F0278198F8CE
:102710005E40012C00F0E1830024224634990C71C4
:10272000A6F8AC21002B00F0978198F85F30012BC0
:1027300000F00484022B00F0EB83002B40F0DD83DB
:1027400001231A46F384328598F86030012B00F09B
:10275000CD83022B00F0C983002B00F00784059B7A
:102760009E4A1B699C4900209847B9F1000F00F070
:10277000778100230093B9F8E410B9F8083071802C
:10278000B9F8E610B180B9F8E2103180B9F8E81074
:10279000F180B9F8021031819B00B9F80410718101
:1027A0009BB2B9F80610B18103F13002B9F80A10F2
:1027B000F18192B2B9F8201031825F2AB9F8221063
:1027C000718240F2EE818649A1FB0201890901EB89
:1027D0004101A2EB411189B200201A4604460B4682
:1027E0000121F2820322B38272830023009A738450
:1027F000B483F083318331846B800123C5F80A30C0
:10280000002A00F052870027CDE9017706F13E0348
:102810009FED749A9FED74AADFED779ACDE9069645
:10282000B34605F10E0A44461E46049AFBB29A428C
:1028300000F229810023AAF80030AAF8083033807A
:102840000137042F0AF1020A06F102060BF1560BBA
:1028500004F11404E9D1039BAA89DDF804E012FB1A
:1028600003F26B8992B213449BB2DDE90696591CC0
:10287000012089B20090B6F8AC01012804D1DDE94D
:10288000020404FB00F00290029FB8F8640098F87C
:1028900063C098F862B04FF6FF74A74228BF27467E
:1028A0004408A4F1030A98F86640A6F89EB18CF09B
:1028B000010C0338A6F8A6C1A6F8A471A6F8A0E1F9
:1028C000A6F8A801A6F8AAA1AA81AB80E980002CED
:1028D00000F02781413399B24024012329802C81C3
:1028E000A6F8C031B9F1000F03D0B9F80C30A6F842
:1028F000C231009B002B40F03E81349A98ED145A6F
:1029000000231360089BA6F8B231039B012B40F211
:102910002F81B8F85830023B01229BB29FED336AF9
:10292000DFED335A98F85A10F1EE007AC8EE066AD5
:1029300068EE277A68EE255A87EE867AC5EE867AA3
:10294000B6EE006A76EE866A37EE067AFCEEE66A46
:10295000B5EE405AD8ED155AA6F8AE31F1EE10FAA0
:1029600016EE903A77EE867ABCEEC77AA6F8B021DA
:1029700014BF01220022FCEEE77A328798F85B2030
:10298000A6F8B43117EE103AA6F8B63117EE903A21
:10299000F5EE405AA6F8B831009BF1EE10FA14BFDC
:1029A00001200020002B40F0BE80318672867085A9
:1029B00098F861300F4A0098C6F8BA210121B18415
:1029C000A6F8BE311BB0BDEC108BBDE8F08F00BF88
:1029D00078000020D8350108F435010818370108BF
:1029E000ABAAAAAA2549123E8FC2753D002474499C
:1029F00000009643FF07010800000000B5EEC07A12
:102A0000F1EE10FA00F1078398F85A20002A00F03E
:102A10000583B5EE407AF1EE10FA05D1F5EE407A75
:102A2000F1EE10FA40F0BA835FED0D8A059B724A11
:102A30001B69724900209847039B002B7FF45AAE14
:102A4000039B049398F85A30002B3FF45BAE349A02
:102A500000231371A6F8AC31B9F1000F7FF489AEF1
:102A60000123A5F802906B81CE4602214A46CDF89B
:102A70000890CDF80090FEE6614C624A05941CE691
:102A8000DFED618A32E60123338098F85C90228979
:102A900040F2FF3340F2FF11B9F1000F18BF0B46AF
:102AA00042B39A4226D8A27B237C3AB1022B05D1AD
:102AB000059B564A1B69DDE9069620E0E07B00286D
:102AC00040F03E82012B00F0AB80059B504A1B6911
:102AD0004A490090DDE906969847DDF804E0039B3B
:102AE000AA8912FB03F26B8992B213449BB2591C60
:102AF00089B2C0E6059B474A1B69DDE906963F4956
:102B000000209847039BAA89DDF804E012FB03F23A
:102B10006B8992B213449BB2591C002089B2009079
:102B2000A9E62346DAE6B5EE405AF1EE10FA0AD0ED
:102B3000C8EE057A77EE867AFCEEE77A17EE903AE1
:102B4000B3871B0C7387002361F30F03F5EE405A24
:102B500062F31F43F1EE10FA708533633FF428AF40
:102B6000FCEEE87A17EE903A1A0CB285F3851FE76F
:102B700000221346D2E698F85D30072B15D8264C74
:102B80009FED219A234493F87C30A6F8A231349B20
:102B900083ED009A049B002B40F0438298ED145A79
:102BA000B0E60320012400211BE6349A98ED145A64
:102BB0000023136000230093A4E6012C40F2E2817D
:102BC00098F80F104246012303E00133A34200F0BE
:102BD000D981084692F82310814202F11402F4D2FE
:102BE000074F0E4A3C69054905970020A047D8EDDC
:102BF000157AD7F88C3068E57C360108F435010881
:102C0000780000200836010800000000483701085D
:102C1000743701083837010888F40008483601087D
:102C20006FF00B030993E288A3880A92182A009395
:102C300040F2958202EB820303EB031303EB0323C1
:102C400002EB4303C3F3CC0242EA43339BB240F6A8
:102C5000AA22934200F2D682AF4B0A9AA3FB022328
:102C60001B090E93013B9BB215935C230D93182314
:102C70000B930098002840F0D484059BA74A1B6959
:102C8000A7499847B9F1000F00F0BE844FF0000942
:102C90000222009B099913FB02F292B20092226871
:102CA00011440A460C910A99013B01FB0323099345
:102CB00002F5C34328334CF25032934207D9059BA7
:102CC000984A1B699649002098474FF00009099BD4
:102CD00003F5C34328334CF25032934207D9059B86
:102CE000914A1B698E49002098474FF000090C9AC1
:102CF000002AC0F23B838D4880FB0230D217C2EB22
:102D0000A00000B2099B002BC0F22483874981FBFD
:102D10000331099BDB17C3EBA101119309B280B208
:102D2000091A0C9B0F90814880FB03C0C2EBA002E4
:102D300088B209B20E9B1091B0FBF3F0411C0A90CF
:102D40001FFA81FE0B981821B1FBF0F30E930C9B38
:102D500002EB4202B3EBC20200F1F58213B213930D
:102D600093B20C93099A7148119B0B9980FB020C4A
:102D7000C3EBAC0303EB430C0C9BB3FBF1F001FB87
:102D8000103081B2B2EBCC03099100F1F9821AB292
:102D900019929BB20E9A0B98511E099A89B21891FA
:102DA000BEF1010F11FB002189B200F0EF82099AF8
:102DB0000C98824240F0FD82994200F04D8400233D
:102DC000012213931692149312920E930C9B9A0065
:102DD000099BABF882209B00ABF88430B9F1000F5F
:102DE00040F0F3826C23179336230C937D223D230E
:102DF0004FF00009ABF87C300F9BABF87A200C9AAF
:102E00001099C3F1290313441AB21192521A9BB2BA
:102E1000292A0F9307DC059B454A1B69404900207E
:102E200098474FF00009119B179A934207DB059BC7
:102E3000404A1B693A49002098474FF000090D9B12
:102E40002C2B00F20E821E2B40F2E1831E3B0F2240
:102E50009BB20D92ABF89A30159B0C99ABF894305D
:102E6000139BABF87E10ABF88E300F990A9BABF832
:102E700080100D99ABF89610ABF89820002B40F01D
:102E8000CE81149B002B0E9B08BF00230E93129B38
:102E9000002B00F0D583099A199B9B1A0B9A93FB80
:102EA000F2F39BB2169AABF89220ABF88C300E9AE4
:102EB000ABF888200023ABF89030ABF88A300A9B3F
:102EC000ABF88630B9F1000F40F0BA82CDF800902F
:102ED000DDF804E0DDE9069601E698F81020013AF5
:102EE000012A7FF619AC224618E400237363B9F176
:102EF000000F41D0012300933DE4059B0E4A1B695E
:102F0000074900209847B9F1000F7FF432ACA7E5DC
:102F100000231A4616E400BFABAAAAAAC0370108CC
:102F2000F43501080C38010820380108ABAAAA2A98
:102F30005438010874380108F8360108002201E409
:102F4000013B042B00F2328501A252F823F000BFAE
:102F5000212C000895310008652F00088D310008EC
:102F6000652F00086FF00C0309935CE64FF0011326
:102F70007363B9F1000FBDD100236B800123C5F845
:102F80000A3040E4B94B98ED157A0593D3F88C30AC
:102F9000009306EE903AB5EEC07AF1EE10FAB8EE74
:102FA000668A7FF72BADC8EE078AF6EE007A78EED8
:102FB000A78A18EE900A0CF0DDF851B1059BAC4AD7
:102FC0001B69AC4900209847039B002B7FF492AB10
:102FD00037E598F85A20002A7FF428AD039B98F82B
:102FE0005F10002B98F8603014BF204600209942F3
:102FF000049007D9059BA04A1B699E490020984769
:10300000FFF77BBB022B00F0B384349B1A71A6F848
:10301000AC21FFF78ABBDFED998ACFE7DFED978A16
:10302000DCE7B6F8AC31B6F8A421012B00F0CC8077
:1030300007EE902ADFED929AB8EE67AAB7EE089AEB
:10304000F2EE02DA059B9FED8F0AD3F88C300193E4
:1030500007EE903AB8EE67FA80EE0F0A09F032FCFC
:1030600098F86030022B2FEE00FA00F21F8104EB7B
:10307000830498F85E3094ED21EAD4ED24FA002B15
:1030800000F02581009BDFED7DEA9FED7FBA9FED8B
:103090007FDADFED7FCA9FED7FCADFED7FBADFED1C
:1030A0007FAADDF8149044460025227C052A00F210
:1030B0009280022A40F29A804FF0300A0827E27B81
:1030C000052A00F26884DFE802F03E413B034744F2
:1030D000F0EE4B7A8FEE276A228998F85E1002FB99
:1030E000077702377F00BFB2A288013514349FED05
:1030F0006C7AC6EE076A07EE90AAF8EE677A87EE5A
:10310000A66A07EE907AF8EE677A87EEA67A07EE5F
:10311000902AF8EE677AEAB267EE277A914277EE64
:10312000867A77EEA97A77EE897A7EEEA7EABCD81E
:1031300098ED145A002B40F0CE800093FFF7E2BBCD
:10314000F0EE6A7AC6E7F0EE6C7AC3E7F0EE4D7AFD
:10315000C0E7F0EE4C7ABDE7F0EE6B7ABAE70A9A78
:10316000002A4FD01823B3FBF2F302FB03F3C3F1A1
:1031700018039BB21593002B44D10A9A0B92531E4D
:103180009B009BB20D9301230E9372E56FF00F032A
:10319000099348E56FF00603099344E598F85F202A
:1031A00098F860309A427FF43FAC039B349ADFED8D
:1031B000338A002B14BF234600230493002313718A
:1031C000A6F8AC31FFF7B1BAF0EE499AF0EE49DA61
:1031D000B0EE49AA36E7D9F81030324A2549002026
:1031E00098474FF0180A0427002368E7012A05D002
:1031F000022AF0D14FF03C0A0A2760E74FF0480A54
:103200000C275CE7059B284A1B691A490020984750
:1032100000230122CDE90D3215930B9232E5149B68
:10322000002B0E9B08BF00230E93129B33B1099A0B
:10323000199B9B1A0B9A93FBF2F39BB2ABF88C3061
:103240000A9B169AABF89220013B0E9AABF88820A5
:103250009BB2189A0A930123ABF88A20ABF89030FE
:103260002DE600230D931A46F4E500BF78000020F8
:1032700068360108F4350108A8360108000000008E
:103280009A999D41F902154F000090430000204398
:10329000000000430000F0430000C0430000404332
:1032A000002474499C370108AC370108059BBE4ACD
:1032B0001B69BE490020984798F85E30002B00F04B
:1032C000EF81DFEDBBFA0023B0EE6FEADBE698EDAD
:1032D000145ADFEDB7EA9FEDB77ADFEDB76A349B9A
:1032E000CFEE077AB1EE0C7AC7EEA65A2AEE07AAFD
:1032F0007FEE8EFACAEE257A9FEDB07A77EEAD7A40
:10330000B0EE006A77EEAE7A77EEAF7A27EE877A84
:1033100037EE067A77EE277A86EEA77AB4EEC57A8C
:10332000F1EE10FA83ED007A7FF5ECAA059BA44A32
:103330001C699E49FDEEC77A002017EE903AA0471F
:10334000002300932AE402F1180083B20C9303B225
:10335000139307E509999B4BC943A3FB0131099BD3
:103360006FEA1111DB1709B21193D8E40C9A954B4F
:10337000D043A3FB00306FEA101000B2D217C1E4B3
:1033800003F1180002B283B2199203E50C9882424D
:1033900000F05F8100220A9216921292139A9B1AF1
:1033A0000B9A93FBF2F39BB20E930123CDE91333F7
:1033B0000CE5994200F05A810A9B013B9BB20A93AB
:1033C0000123169312930B46E8E7E37B052B00F2EB
:1033D0001183DFE803F01A130C032B214FF48673DB
:1033E0001793D6230C9340F21D128D2302E5AC23D4
:1033F000179376230C93BD225D23FBE48C23179354
:1034000056230C939D224D23F4E46C23179336230B
:103410000C937D223D23EDE44FF4E67317934FF4B4
:10342000CB730C9340F2DD12ED23E3E44FF4B6735B
:1034300017934FF49B730C9340F27D12BD23D9E494
:10344000A37A172B00F2FE80092B00F21B81C3F137
:1034500009039AB21523ABF84630069BABF8482017
:10346000002B00F05B8203EB42029389ABF84A30F9
:10347000237C013B042B00F29F82DFE803F0BA7645
:1034800003A984004FF000094FF400724FF4C063A9
:10349000CDE909234FF0C00E02204FF0040C0821A3
:1034A0004A464B46ABF86E000A98ABF856000998AE
:1034B000ABF870C0ABF85800ABF84E10ABF850103A
:1034C000ABF852E0ABF854E098F85D10B9F1000F9A
:1034D00000F00681002B00F00381022900F27881C0
:1034E000394B0B4493F87830ABF85A30069B002BDD
:1034F00000F019810023ABF85E300123ABF86A308D
:10350000069B0021D3E932ECD3F8C4900B460EEBB6
:103510001140A0EB09009042614480F22C820133FB
:103520000F2BF4D1069AABF86030D2E936E303EB07
:1035300083020EEB1242F92A00F3EC81062003FB12
:1035400000F0052103E0BCF1FA0C40F1D7810A46F6
:10355000013189B214290EEB104C1844F3D1059BAC
:103560001A4A1B69DDE9069637E100214FF4007322
:10357000CDE909134FF0400E03204FF0020C082153
:103580009622FA238EE74FF000094FF4F0504FF4E3
:103590007853CDE909034FF4F86E02204FF00B0C7D
:1035A00008214A464B467DE718370108F4350108E3
:1035B0000000000000002043002474490AD7233C87
:1035C000F0380108ABAAAAAA88F40008C438010898
:1035D0004FF000094FF4C06C4FF46063CDE909C3AC
:1035E0004FF4E07E02204FF0060C08214A464B467D
:1035F00058E7069B9B8C0422082BCBF86E205BD9E6
:10360000DDE90696FFF77EBA0422FFF742BB0D9B69
:103610000F2B30D9A3F10F020F230D9392B2002389
:1036200018E4B9F1000F2AD1237B002B33D0059B7E
:10363000C44A1B69C449484698470422FFF729BB7E
:103640000A9B2FE4059BC14A1B69DDE90696FFF73B
:1036500056BA99427FF49EAE0023CDE91333CDF8DC
:1036600028E0169312930E93FFF7B0BB0023169336
:1036700012930B4692E600221346FFF7EBBB0222A1
:10368000FFF707BB102B94BFC3F11E03C3F1170351
:103690009BB20022DFE64FF001090422FFF7F9BADE
:1036A00098ED145A0093FFF72DB9009802908646C2
:1036B00002210246FFF7DFB8ABF84E30ABF85030CE
:1036C00040230022ABF85230ABF854304FF4007373
:1036D000ABF85630ABF8582098F85D101346914679
:1036E000072975D89A48014491F87C10ABF85A1014
:1036F0000699C1B10021ABF85E10B9F1000F40F09E
:103700008380ABF86A90ABF86090ABF85C90ABF854
:103710006290ABF86890ABF864904A460023ABF82F
:103720006620ABF86C302389E27AABF87620012B67
:1037300067D0023B9BB20121ABF87230A37BABF8A0
:103740004C3083F00103ABF87410ABF8783000997B
:10375000AB89AAF800300B44AAF80810AB81A38803
:10376000217C06EE903A2389012907EE103ABBF836
:103770006E302AD0022914BFF0EE695AF0EE4A5A90
:1037800001339BB207EE903AF8EE677AB1EE006A29
:10379000F8EE666A67EE867AB8EE477A67EEA67A42
:1037A0000198029B67EE877A014667EEA57A0028AA
:1037B00008BF114667EE897A0191FCEEE77A17EEB1
:1037C000902A13440293FFF73BB8DFED625AD7E724
:1037D000059B614A1B69DDE906965B490020984715
:1037E000039BAA89DDF804E012FB03F26B8913FA4C
:1037F00082F39BB2591C002092B289B20090FFF76D
:103800003AB80023194697E70121ABF86A10002B5C
:103810007FF476AEABF8603019461A46ABF85C2000
:103820000022ABF86220ABF868204BBBABF86430E9
:103830001A4602EB0109069AD2E92FE1CE451DDABC
:103840000846002202F1010C09921FFA8CF2162A96
:103850003FF485AE0EEB104CBCEB090C0844F1D4E0
:10386000002B7FF45BAF099800FB01F10EEB1143D5
:10387000A9EB03039C45C8BF02464FE700224DE772
:10388000069BD3E9349C894546DA134662469E4638
:1038900001339BB2162B3FF462AE09EB1240401A83
:1038A0006244F4D40CFB0EF209EB12428A1A9042E5
:1038B000D8BF9E460699BBF86020D1F8CC30BBF843
:1038C0005C00099002FB03F3D1F8C820ABF864E078
:1038D00002EB13420B46D1F8C410521AD3E936302A
:1038E0003FF53DAE09990CFB0EFE00FB01F103EB29
:1038F000114309EB1E401918FA239AE702FB03F360
:103900000EEB1343C3F1FA039C45D8BF0A46FA21D4
:103910000B4683E70522FAE79646CBE7069BABF812
:103920004A30237C013B042B46D801A252F823F0F5
:103930007B3900086B35000885340008D135000854
:1039400087350008D4370108F43501088C380108A0
:1039500088F40008CDCC4C3EA4380108349A137189
:10396000A6F8AC31B9F1000F7EF403AFFFF778B8D9
:103970000123FEF7CEBE9BB2D4E54FF000094FF411
:103980000073CDE909934FF0400E0420CC4602218C
:103990004A464B4686E5D9F810301A4A1A490020A3
:1039A0009847DFED1A7A0023FFF794BB059B184A6E
:1039B0001B69DDE9069610E7059B154A1B6912494C
:1039C0000020DDE906969847AA89039BDDF804E00C
:1039D00012FB03F26B89562113FA82F301FB076194
:1039E00000209BB2C1F86E00591C92B2009089B2BF
:1039F000FEF741BF059B034A1B6903490020984716
:103A0000FFF7F0B948380108F43501080000004319
:103A10009C370108BFF34F8F0549064BCA6802F473
:103A2000E0621343CB60BFF34F8F00BFFDE700BFE1
:103A300000ED00E00400FA0530B4224BD3F89020EA
:103A4000D36813F00803FBD1946A156911685268B2
:103A5000C1F3015000EB800001F07F32C1F303415C
:103A600011EB400118BF184B22F0FE4218BF4B4328
:103A7000C2F3023101EB8101C2F3032010EB4100DC
:103A80001CBF4EF6602101FB0033C2F3021101EBB3
:103A9000810102F00F0212EB4102C5F30E0518BFBF
:103AA0004FF47A71A5EB040018BF01FB02334FF409
:103AB0007A72013502FB00F0B0FBF5F030BC18441F
:103AC000704700BF7800002080EE3600FEE700BFA0
:103AD000FEE700BFFEE700BFFEE700BFFEE700BF56
:103AE000704700BF704700BF704700BF034AD2F85D
:103AF00084300133C2F88430704700BF7800002062
:103B00000C4B0D49D3F890204FF480104861D168D8
:103B1000490503D4012283F8B1207047D168C9B2A6
:103B200061F49061D1600120012283F8B40083F830
:103B3000B12070477800002000040140034B5A690F
:103B4000120744BF08225A61704700BF00040140B9
:103B50000148FCF7F3BC00BF300100200148FCF72E
:103B6000EDBC00BF780100200148FCF7E7BC00BFB6
:103B7000C00100200148FCF7E1BC00BF08020020A2
:103B8000084810B4D0F8D831D0F80C4299691A68B6
:103B90002CB1234600F5EC705DF8044B18475DF836
:103BA000044B704778000020034B5A69120544BF4C
:103BB0004FF400625A61704700040140034AD2F892
:103BC000883043F47003C2F88830704700ED00E09D
:103BD00030B52B4D8DB02C22002101A80AF0CCFB72
:103BE000D5F82C42002C43D0FFF726FF254BD5F803
:103BF0009C1003910444A3FB0423234A5B0D02FBA6
:103C00001344224AA2FB0402920B4EF6602505FBE8
:103C100012448DF805201E4A1E48A2FB03521209C9
:103C200002EB4202A3EBC2038DF80430A0FB042395
:103C30009B094FF47A7202FB134401FB0444A0FB7E
:103C400004048DF80630A1EB94114FF480704FF00E
:103C500000424FF0606302910B900692089305F0CA
:103C600069F818B901A805F06BFB38B1FFF7D2FE6F
:103C700005F060F80028F9D185F830020DB030BDAC
:103C800078000020B17C219580EE360073B2E745C4
:103C9000ABAAAAAAD34D621010B5164C164AD4F896
:103CA00090304FF4802151619A68D20402D5DA68CD
:103CB000D00512D49A68910402D5DA68920503D42B
:103CC000012384F8B13010BDDA68D2B262F42072F8
:103CD000DA60012384F8B13010BDDA68D2B262F440
:103CE000C072DA60012184F83012FFF771FFD4F856
:103CF0009030DFE77800002000040140F0B5046850
:103D00000546200583B000F1F6800026A10351D5B9
:103D1000A54B9A6DD20040F1F8800027A349A44A30
:103D20000B6843F480730B60D2F8840005E0D2F88E
:103D300084301B1A022B00F201810B68DB05F6D5DB
:103D4000AEBB9949A86DD1F8903013F4407326D0DA
:103D5000834224D0D1F890C0D1F8903043F480331E
:103D6000C1F89030D1F8903023F48033C1F890300E
:103D70001CF0010F2CF44073C1F890300FD0D2F832
:103D800084E041F2883C06E0D2F88430A3EB0E03D5
:103D9000634500F2D380D1F890309B07F4D5824A76
:103DA000D2F8903023F440730343C2F89030002FD0
:103DB00040F0C880E10708D57B4A296AD2F88830EC
:103DC00023F003030B43C2F88830A20708D5764AD4
:103DD000696AD2F8883023F00C030B43C2F88830AC
:103DE000630708D5704AA96AD2F8883023F03003F7
:103DF0000B43C2F88830A70608D56B4AE96AD2F8A7
:103E0000883023F440630B43C2F88830A00508D5FE
:103E1000654AE96BD2F8883023F440230B43C2F89B
:103E20008830610508D5604A296CD2F8883023F4BF
:103E300040130B43C2F88830620608D55A4A296BF2
:103E4000D2F8883023F440530B43C2F8883023065D
:103E500008D5554A696BD2F8883023F440430B43A8
:103E6000C2F88830E70508D54F4AA96BD2F88830E8
:103E700023F440330B43C2F8883020030ED54A4A5E
:103E8000A96CD2F8883023F040630B43B1F1006F86
:103E9000C2F888305CD0B1F1806F74D061030ED568
:103EA000414AE96CD2F8883023F040630B43B1F10A
:103EB000006FC2F8883050D0B1F1806F6BD06204CF
:103EC0000BD539492A6DD1F8883023F0405313437C
:103ED000B2F1805FC1F888304DD0230408D5324A52
:103EE000696DD2F8883023F080430B43C2F88830E4
:103EF000304603B0F0BD6F6CB7F5000F10D0B7F5CA
:103F0000400F12D077B3012600E79A6D42F080523D
:103F10009A659B6D03F080530193019B0127FDE699
:103F2000214AD36843F48033D3601F4AD2F88830E3
:103F300023F440033B43C2F88830E6E60326002F13
:103F40003FF438AF184A936D23F08053936531E7FF
:103F5000D36843F48013D360A0E7D36843F480139D
:103F6000D360ACE73946281DFDF70EF90646002858
:103F70007FF4CCAED9E70221281DFDF705F9002812
:103F800018BF0646A9E70121281DFDF7FDF8002806
:103F900018BF064682E70121281DFDF7F5F8002825
:103FA00018BF06468BE700BF0010024000700040BB
:103FB000780000202DE9F041C16F05689EB00446ED
:103FC000002947D02423E3672A68636A22F00102AC
:103FD0002A60002B40F0AD80D4E90412A368286861
:103FE0000B431343E169A84A0B43024013432B6080
:103FF0006B68E26823F440531343A44A6B60954214
:10400000A369AA6800F0DB80206A22F430620343CF
:1040100013439F4AAB60954200F04A819D4B9D42FD
:1040200040F00D8103F5E633D3F8883003F00C033C
:104030000C2B00F26381DFE813F0D4016101610110
:1040400061011101610161016101710161016101A0
:1040500061016A0180F878105C2207A80AF08CF9E7
:104060008B4B9D4200F0F0818A4B9D42AAD10227E2
:1040700007A80797FFF742FE0646002840F01A827D
:10408000854B864D9A6D42F400329A659A6D02F422
:1040900000320492049ADA6C42F00102DA64DB6CBA
:1040A00003F00103039307220323CDE900320399B0
:1040B00003463A464FF090400F214FF0800807F03A
:1040C000B9F9C5E95376C5E95568C5E95766C5E943
:1040D000596605F5A476724BC5F84831304605F0AF
:1040E000FBF9002840F0E6816667102305F5C876E5
:1040F000C5E96708C5E96900C5E96B00C5F89831ED
:104100003046684BC5F89471C5F87041C5F89031D8
:1041100005F0E2F90146002840F0CC812667262010
:10412000C5F8B84105F07AFA5F4B40225A6025681D
:1041300048E71E0705D56A68616B22F400420A430E
:104140006A60D80705D56A68A16A22F400320A437A
:104150006A60990705D56A68E16A22F480320A43E9
:104160006A605A0705D56A68216B22F480220A43E7
:104170006A60DF0605D5AA68A16B22F480520A4363
:10418000AA609E0605D5AA68E16B22F400520A4394
:10419000AA60580609D56A68216C22F480120A4385
:1041A000B1F5801F6A6000F0048119067FF514AF35
:1041B0006B68A26C23F4002313436B600CE722F4BA
:1041C000306213433449AB60D1F8883003F4406364
:1041D000B3F5006F00F0898000F2E580002B00F05D
:1041E0005981FCF731FF0646002E7FD16A682B49C2
:1041F000002322F49042C4E91A336A60AA6822F0CC
:104200002A02AA602A6842F001022A60C4F88430B7
:10421000D1F884602B681A0700F186802B685B0751
:1042200000F19D80002320221846E26784F8783050
:10423000C4F88020236663661EB0BDE8F0811B4B86
:104240009D425BD103F5E433D3F8883003F03003AB
:10425000202B63D059D8002B00F0C380B1F5004F5C
:1042600000F02F81FCF7F0FE0028BFD0636800EB60
:104270005300B0FBF3F04FF6EF73A0F110029A4237
:104280003CD8E860B2E700BFF369FFEF0080004070
:104290000038014000440040001002407800002037
:1042A0006C0002408000024000E100E00048004055
:1042B00002F55842D2F8883003F00303022B2DD0C8
:1042C000032B24D0012BC9D0864BB1F5004F1868C1
:1042D00000F098809268844BC2F3C222134493F892
:1042E0009C3003F01F03D840BEE7804E626802EBAB
:1042F0004203B34202D8B6EB023F61D90023C4E9BE
:104300001A3301201EB0BDE8F081302BF6D1B1F593
:10431000004F00F0D3804FF40040A7E7B1F5004F05
:1043200000F0CA807148A1E76FF07E4332464FF437
:104330000011204605F034F900283FF46FAF2368E0
:1043400053E8002F22F0800243E800210029F7D132
:104350002023E367002384F878300320D2E76FF04E
:104360007E4332464FF48001204605F019F90028BB
:104370003FF458AF236853E8002F22F4907243E8CB
:1043800000210029F7D103F1080252E8002F22F0A2
:10439000010203F1080040E800210029F3D12023A5
:1043A000C4F88030D6E7B3F5406FA7D14FF400468C
:1043B0009CE76A68616C22F4C0020A436A60F4E612
:1043C0000023500819464FF48077E6FB070107F0F9
:1043D000EFFA474BA0F540729A428FD8454BD86010
:1043E00004E7B1F5004F6FD0434A3F4B92683D4917
:1043F000C2F302221344086893F89C3003F01F03B1
:10440000D84031E79268384BC2F3C222134493F884
:104410009C3003F01F03D84000283FF4E7AE430070
:10442000626803EB5203B3FBF2F34FF6EF72A3F1B2
:10443000100191423FF662AF23F00F0292B2C3F334
:1044400042031343EB60D1E6012307A80793FFF76C
:1044500055FC034670BB284A116E41F48041116639
:10446000116E01F4804106910699D16C41F0010171
:10447000D164D26C02F00102059207210322CDE93A
:104480000021059802224FF4C0614FF0904006F0E1
:10449000D1FF97E58A68144BC2F302221344114AF4
:1044A00093F89C30166803F01F03DE40002E3FF4A3
:1044B0009DAE1BE7FFF7AEFA104BB1E74FF4803328
:1044C000AEE7FCF7C1FDA7E70B4A074B9268054929
:1044D000C2F302221344086893F89C3003F01F03D0
:1044E000D84099E70000002088F400080024F40078
:1044F000FFFC0F0000800040001002400048E8016F
:10450000F0B5CA4CD4F82C328BB0002B00F0D98116
:10451000C74B1A683F21C4F84413520358BF1A68A6
:10452000C34B54BF02F480324FF4A022C4F8482396
:1045300019685A68186801F00101C2F30722C4E93A
:10454000D71219685A6800F0F00001F48071C4F8BD
:104550006403C4F85013D3F89010B648C2F3046251
:10456000C4F854234F0758BFD3F89020B04B54BF22
:1045700002F001020522D3F89410C4F84C23D3F8BA
:10458000982001F0010102F00102C4F85813C4F8A8
:1045900068231968DA6811F0807F0CBF01210221BD
:1045A00002F00302C4E9DB12DA68D968C2F302122E
:1045B0000132C1F30621C4E9DD21D968DA68C1F30B
:1045C0004151C2F341620131013249005200C4E954
:1045D000E012D9689A68C90E02F003020F25C4F8E8
:1045E0008853C4F87C13C4F88C2399689A6801F046
:1045F000F00102F4E062C4E9E4129A68016894F8F8
:10460000190284F8A003D20802F4E06201F0070165
:10461000C4E9E621242284F81922D4F8D821864856
:104620001168824221F00101116000F0EF81002346
:10463000226AC4F81C32022184F8193284F8183234
:10464000C4F8083284F81A3284F87D1013687B4964
:1046500023F040038A42136000F0EE810022C4F888
:104660008020D4F8343284F87D202421D4F8B40298
:1046700084F87C20C4F8B0121968C4F8A40321F0AF
:10468000010119606E491A608B425A609A6000F00D
:10469000AE816C4A934200F08D820023D4F8BC2294
:1046A000C4F8B8322421C4F8B03284F8AC32C4F86B
:1046B000B432C4F89432C4F89832C4F8381311688C
:1046C0005F4821F0010182421160136053609360E2
:1046D00000F046825B4B9A4200F08882544A0023E5
:1046E000C4F84033C4F83833C4F83C33C4F81C333E
:1046F000C4F82033D06CD16C84F8343300F001005E
:10470000C1F34001C4F8C403C4F8E413D06CD16C05
:1047100041F00101D164D16CC0F3C01001F001017E
:104720000491C4F804040499D16C41F00201D164ED
:10473000D16C01F0020103910399D16C41F0800129
:10474000D164D26C4FF0904C02F080020292029938
:10475000DCF80010C4F8A813DCF80410C4F8AC139B
:10476000DCF80810C4F8B013DCF80C10C4F8B4136B
:10477000DCF82010C4F8B813DCF82410324AC4F86E
:10478000BC131168C4F8C8135168C4F8CC139168FD
:10479000C4F8D013D168C4F8D413106A516AC4F8AD
:1047A000DC1302F5C052C4F8D8031168C4F8E8134A
:1047B0005168C4F8EC139168C4F8F013D168C4F8D8
:1047C000F413116A089D526A099EC4F8F813C4F8DC
:1047D000FC2301204FF60F714FF0030E00FA03F295
:1047E0000A424FEA430203F1010306D0DCF80070ED
:1047F0000EFA02F23A43CCF80020102BEED1CDE9AC
:1048000000561148002303224EF6F57106F012FE01
:10481000CDE900560D48002303224FF6F67106F04D
:1048200009FE034BDA6C22F0010211E0780000204F
:1048300000100240002002400058004000300140BB
:10484000003801400044004000040048001C0048BB
:10485000DA64DA6C22F00202DA64DA6C4FF0E021FA
:1048600022F08002DA640B6923F002030B61FFF788
:10487000E3F894F8303205464BBBBF49BF4A07E026
:1048800062B6BFF34F8FBFF36F8F94F83032F3B936
:1048900072B6BFF34F8FBFF36F8F94F83032002B97
:1048A000EED10B6823F0070343F001030B6013699B
:1048B00043F00403136130BF136923F00403136151
:1048C000DEE7AF480BB0BDE8F04009F0B3BE00230F
:1048D00084F83032FFF7B0F8401B05D500F1A46032
:1048E00000F5CB2000F58060D4F884304FF0E02252
:1048F0000344C4F884301369A24843F002031361EF
:10490000FCF7E0FFD4F89C139F48FDF7D7FA4FF06F
:1049100090400121FBF73CFCD4F8A823D4F8C41341
:104920000260D4F8AC234260D4F8B0238260D4F89B
:10493000B423C260D4F8B8230262D4F8BC23426224
:10494000003918BF0121FBF723FC00F5806001212D
:10495000FBF71EFCD4F8C833D4F8E4130360D4F892
:10496000CC334360D4F8D0338360D4F8D433C360FD
:10497000D4F8D83303620039D4F8DC33436218BF6B
:104980000121FBF705FC00F5C0500121FBF700FCFD
:10499000D4F8E833D4F804140360D4F8EC3343605B
:1049A000D4F8F0338360D4F8F433C360D4F8F83328
:1049B0000362D4F8FC334362003918BF0121FBF7CE
:1049C000E7FB06F033FE94F8A033282B00F0B78005
:1049D00006F0C0FE6D48FFF7EDFAD4F8A433222BA1
:1049E0003BD06B480BB0BDE8F040FFF7E3BA02F1F3
:1049F000804202F504324FF4C061136E23F4804309
:104A00004FF090401366FBF7E7FD46E69A6D61486C
:104A100022F480029A654FF48061FBF7DDFD4FF4CC
:104A20000061FBF7D9FD5C4B0222C3F88420BFF381
:104A30004F8FBFF36F8FFAE5584A136E23F48053FC
:104A4000E02113664FF09040FBF7C6FDA06F06F023
:104A50004BFF606F06F048FF00E6D4F8A802D4F8D8
:104A60008822B4F88C32D4F8B412002800F0D9802F
:104A70002029B6D1002AB4D0002BB2D00021D4F81E
:104A80003452C4F8941246498D4203D069680E022C
:104A900000F147810021C4F8B8122221C4F888220D
:104AA000A4F88C32C4F8B4123E49C1623E49016395
:104AB0003E4941630021816305F12401FBF7D2FBEC
:104AC000002840F05181D4F8443293B155E8003FBA
:104AD00043F4807345E800324AB1D4F8342252E8F6
:104AE000003F43F4807342E800310029F5D1D4F847
:104AF000345205F1080353E8003F43F0010305F188
:104B0000080141E8003262B1D4F8342202F108030E
:104B100053E8003F43F00103083242E80031002926
:104B2000F2D1D4F8342202F1080353E8003F43F0F5
:104B30004003083242E800310029F2D151E794F8ED
:104B40001922202A7FF444AFD4F8D82184F81932EE
:104B500013681749C4F80C1243F0B803136037E721
:104B60000E4A136E23F480434FF4C0614FF090401F
:104B70001366FBF731FDB1E50070004000ED00E089
:104B800010390108BC03002000040020AC02002002
:104B9000340300200004004800E100E0001002405F
:104BA00000800040C912000851130008A9520008F3
:104BB000CD20000802F5E6320F21936D23F4003377
:104BC00093654FF09040FBF707FDD4F8A80206F07C
:104BD0008BFED4F8A40206F087FE734B4022C3F884
:104BE0008420BFF34F8FBFF36F8F56E56F4A936DED
:104BF00023F4003393650F214FF09040FBF7ECFC5A
:104C0000D4F8300306F070FED4F82C0306F06CFEE6
:104C1000654B4022C3F88420BFF34F8FBFF36F8FE3
:104C20005CE520297FF4DDAE002A3FF4DAAE002BEC
:104C30003FF4D7AED4F83412C4F894025C488142F1
:104C400015D04868000212D551E8000F40F080608E
:104C500041E800054DB1D4F8340250E8001F41F09E
:104C6000806140E80015002DF5D1D4F83412D4F855
:104C70003C52C4F888220020B5F5805FA4F88C323D
:104C8000A4F88E32C4F89C0200F08580002D78D103
:104C9000D4F84432002B0CBFFF207F2000222223B7
:104CA000C4F8B822A4F89002C4F8B43201F10803A1
:104CB00053E8003F43F00103083141E8003262B19C
:104CC000D4F8342202F1080353E8003F43F0010313
:104CD000083242E800310029F2D1D4F83C22D4F85D
:104CE0004432B2F5805F46D0324AC4F89C226BB1A0
:104CF000D4F8342252E8003F43F4907342E8003184
:104D00000029F5D16DE62C4BC4F89C32D4F834223E
:104D100052E8003F43F0200342E800310029F5D17A
:104D20005FE655E8001F41F0806145E8001048B19A
:104D3000D4F8340250E8001F41F0806140E80015CB
:104D4000002DF5D10021D4F8A802C4F8B812222110
:104D5000D4F83452C4F88822A4F88C32C4F8B412BF
:104D600000283FF4B0AE9FE610222023C4F8B822FA
:104D7000C4F8B43235E6002BC5D00E4BC4F89C32D3
:104D8000B6E7B5F1805F89D1D4F84432002B0CBF6F
:104D90007F203F2082E7D4F84432002B40F2FF10FE
:104DA00018BFFF207AE700BF00E100E000100240DA
:104DB000008000406D1300083D140008F0B4C56F7A
:104DC000202D4CD10C4601B112B90120F0BC704726
:104DD000194600252123C0F88450C36783682B4FF0
:104DE000A0F85020B3F5805FD7F88460A0F8522077
:104DF00038D0B0F85220036892B2B2B1DA69120624
:104E000004D44A1C1DD1DA691206FCD50CB314F87F
:104E1000012B1A85B0F85220013A92B2A0F8522024
:104E2000B0F8522092B2002AE8D1DA69520604D4CE
:104E30004C1C1DD1DA695106FCD52023C367002024
:104E4000C4E7D7F88420921B914219D3C1B11A68E4
:104E5000D4E735F8022BC2F308021A85DAE70220FC
:104E6000F0BC70470369002BC3D125461C46C0E740
:104E7000D7F88420921B914202D309B11A68D4E773
:104E80002023C367F0BC0320704700BF78000020D8
:104E9000026852E8003F23F4907342E80031002991
:104EA000F7D102F1080353E8003F23F0010302F1B8
:104EB000080C4CE800310029F3D1036E012B06D019
:104EC00000232022C0F8802083660366704752E8E2
:104ED000003F23F0100342E800310029F0D052E8EF
:104EE000003F23F0100342E800310029EFD1E7E74B
:104EF00070B5AE4CD4F83452EB692A68A96840F614
:104F00000F00034240F08780980602D5960600F114
:104F1000F380D4F89402012816D0D80202D54902B1
:104F200000F1F4801E0605D4590602D5530600F19F
:104F3000258170BD1006F7D5D4F8A032002BF8D02B
:104F4000BDE870409A481847DE06E6D5D006E4D59D
:104F500010232B62AB68B4F88C225B0640F14281CF
:104F6000D4F8A83219684B689BB2002B00F07C8102
:104F7000934280F07981A4F88E320B689E0644D467
:104F800055E8003F23F4807345E800324AB1D4F875
:104F9000342252E8003F23F4807342E800310029B4
:104FA000F5D1D4F8342202F1080353E8003F23F08E
:104FB0000103083242E800310029F2D1D4F834224A
:104FC00002F1080353E8003F23F04003083242E8AF
:104FD00000310029F2D12023C4F8B432C4F894126D
:104FE000D4F8342252E8003F23F0100342E80031A5
:104FF0000029F5D1D4F8A83293F82520022A00F030
:105000003A810422DA6383F824100223C4F8983228
:10501000B4F88E3270BD11F0010640F09E806548F4
:1050200002423FF476AFD8070FD5D10540F1D680C4
:1050300001212962D4F8B81241F00101C4F8B81274
:1050400099076BD5002E40F08C8058077DD51E0740
:1050500000F1C1801E050AD5500108D54FF400614A
:105060002962D4F8B81241F02001C4F8B812D4F87B
:10507000B81200293FF45DAF990602D5920600F1FF
:10508000A080D4F8B822AB6802F0280203F04003F5
:10509000134300F0E6804648FFF7FAFEAB685B0674
:1050A0007FF547AF05F1080353E8003F23F04003C5
:1050B00005F1080141E8003262B1D4F8342202F16E
:1050C000080353E8003F23F04003083242E8003170
:1050D0000029F2D1D4F8A80200283FF42AAF364BB9
:1050E0008363FBF707FA00283FF423AFD4F8A80244
:1050F000BDE87040836B1847D4F89C32002B3FF416
:1051000018AF04F50D70BDE8704018474FF48013D8
:105110002B6270BDD1058BD4980722D4590714D5C2
:10512000002E94D004212962D4F8B812180741F057
:105130000201C4F8B8128DD508212962D4F8B8123A
:1051400041F00801C4F8B81284E7190782D502F0CB
:10515000200131433FF47EAFEEE7D807DAD4990758
:105160002CD502212962D4F8B8125E0741F004015F
:10517000C4F8B812D6D41907DED46BE755E8003F5F
:1051800023F0400345E800324AB1D4F8342252E813
:10519000003F23F0400342E800310029F5D12022EE
:1051A0000023C4F8B022C4F8A03270BD78000020FB
:1051B000AC020020200100045D1300085E07B1D49A
:1051C000D9E7D4F89C32002B3FF45BAF35489847C1
:1051D000D4F8345255E79006AED43BE798073FF534
:1051E00034AF9BE7B4F88E12B4F88E329BB289B21A
:1051F000002B3FF49EAE91423FF49BAE55E8003F3A
:1052000023F4907345E800324AB1D4F8342252E8CE
:10521000003F23F4907342E800310029F5D1D4F81F
:10522000342202F1080353E8003F23F0010308325F
:1052300042E800310029F2D12023C4F8B432C4F886
:105240009C12C4F89412D4F8342252E8003F23F0A0
:10525000100342E800310029F5D10223C4F8983246
:1052600070BDC4F8B83270BD93427FF462AE0B6873
:105270009D06F2D470BD1A681D6C106820F00E00F7
:105280001060106820F0010010605A6C012002F0DC
:105290001C0200FA02F26A6083F8250083F82410E9
:1052A000B3E600BFAC020020806A0368C16F10B58E
:1052B000D0F880409A68120601D521290BD09B684E
:1052C0005B0601D5222C1DD0D0F8843043F01003AA
:1052D000C0F8843010BD0022A0F8522053E8002FFF
:1052E00022F0C00243E80021026839B152E8003FD1
:1052F00023F0C00342E800310029F7D12023C3671F
:105300001346DCE70023A0F85A30FFF7C1FDD0F8C0
:10531000843043F01003C0F8843010BD08B518B1D4
:10532000064B02689A4207D0054B064A1B6906499C
:1053300000209847002008BD012008BD0FB037139A
:1053400078000020643901087C39010808B518B1DB
:10535000074B02689A4207D0064B074A1B69074968
:1053600000209847012008BD90F8620008BD00BFEA
:105370000FB0371378000020643901087C39010828
:1053800010B418B10C4B04689C4207D00B4B0C4A6C
:105390001B690C495DF8044B00201847032A02D909
:1053A000064B094AF4E702EB820200EB82005DF84B
:1053B000044B0181704700BF0FB037137800002005
:1053C000643901087C3901088439010808B518B12D
:1053D0000D4B02689A4207D00C4B0D4A1B690D49D0
:1053E00000209847002008BD032906D9074B0A4A28
:1053F0001B69084900209847F4E701EB810100EBA5
:105400008100008908BD00BF0FB03713780000206D
:10541000643901087C390108843901082DE9F0411B
:10542000174F1D467B6913B1BDE8F0411847FB6873
:105430004FEA4208002AF7D08F1EA8F10204064660
:105440008E460C443A4632F802CF9CFA9CFCA242AB
:10545000A2F800C0F7D142467146304698470DB9D0
:10546000BDE8F08137F8023F5BBAA7423B80F7D036
:1054700037F8023F5BBAA7423B80F3D1F0E700BFA9
:10548000780000202DE9F04FA5B00446FAF7D2FECF
:1054900010B925B0BDE8F08FDFF80481A56898F851
:1054A0008830012B05D9D8F81030374A3749022007
:1054B00098477822364906A809F08AF8D8F81430B7
:1054C000344A0492002B55D004AF022239462846B4
:1054D0009847DFF8D0A00DF1180B0026BBF8044068
:1054E000BBF80690A144A14532DD039705E0624672
:1054F00098470134A4B2A14529DD44F4405C0399E6
:10550000ADF810C0012328460322ADF81260ADF8B3
:105510001460FFF783FFDBF80830BDF814C02146A4
:105520002846002BE3D198F888201849012A2B46F9
:1055300052464FF00200DCD9DBF80070CDE9007C68
:105540000134D8F81070A4B2B847A145D5DC039F48
:105550000BF10C0B24AB9B45C0D198F88830012B84
:1055600097D9D8F810300C4A0849022025B0BDE878
:10557000F04F1847094B049304AFD8F80C300422BD
:10558000394628469847A4E79C3901085834010851
:105590002CF50008D5100100EC39010810D50001E8
:1055A00078000020D839010800B583B041F4A0414B
:1055B000012394464FEA124EADF80010ADF80230C8
:1055C000042200236946ADF804E0ADF806C0FFF7F9
:1055D00025FF03B05DF804FB10B50E4C8C46114658
:1055E000228803F1020EB2EB4E0F06D223690A4A5B
:1055F0000A49BDE8104000201847013B4CF4A04C7C
:105600004B802EF00042A1F800C0BDE810400023FE
:1056100004E700BF78000020283A0108483A010852
:105620002DE9F04383B01D4643F440534FF000088A
:10563000BDF82840ADF8003089461646694601237A
:10564000032245F480550746ADF80280ADF804808A
:10565000FFF7E4FEADF80050BDF9045004FA09F478
:105660006C4004EA06025540434669463846022229
:10567000ADF80250FFF7D2FE03B0BDE8F08300BFE3
:10568000F0B583B020B1234B02689A42044608D09B
:10569000214B224A1B69224900209847002003B071
:1056A000F0BD8668032200270092304640F249137D
:1056B0000021FFF7B5FF0125304640F2491300975E
:1056C00004220221FFF7ACFF304640F24913009557
:1056D00010220421FFF7A4FF304640F24913009541
:1056E00020220521FFF79CFFFF230093304640F264
:1056F00049134FF47F520621FFF792FF304640F2E4
:105700004B1300952A463946FFF78AFF2846277330
:1057100003B0F0BD0EB0371378000020E03301086D
:10572000F833010810B1024B9B681847704700BF5F
:105730007800002010B520B10C4B02689A42044654
:1057400007D00B4B0B4A1B690B49BDE810400020EA
:105750001847406818B1C368984700236360002366
:1057600023602046BDE81040DCE700BF0DB03713D2
:10577000780000205C3A0108783A010810B5044628
:10578000FAF758FD00B910BD20690023236008B165
:10579000FFF7C8FF2046BDE81040C3E72DE9F04100
:1057A000184E1D464FF480530C46B3628046174690
:1057B00003F082FF1CB1204603F0BEF988B9B8F1AE
:1057C000000F02D0404603F0CFF917B13846FFF77B
:1057D000D5FF25B12846BDE8F04108F00FBFBDE870
:1057E000F081E66B3046FFF799FD28B9002323606E
:1057F0002046FFF797FFE2E7002333603046FFF7CC
:1058000091FFF3E7000400482DE9F04FADF5137D5B
:1058100006460C46154600214FF4E27221A89A462E
:1058200008F0AAFD3C22002112A808F0A5FD9D9BCE
:1058300093F8C57167B1644B644A1B6964490020E1
:1058400098474FF0000840460DF5137DBDE8F08FF6
:105850000DF11808CDF800800AAB21AA2946204690
:10586000FCF7FAFE0028ECD0414694F85B200AA829
:1058700012ABFBF797FE80460028E2D09E9ABDF857
:105880005A3013809F9ABDF85E3013809D9808AB04
:105890000DF1160221A903F089FCBDF82020BDF806
:1058A00016309A4206D29D9B2246294621A8FCF733
:1058B0006DFEC8E743F2370308930322012308A9CA
:1058C0003046ADF82470FFF7A9FDBDF8243013F081
:1058D000C00310D1ADF8243043F231030893032202
:1058E000012308A93046FFF799FDBDF824204AF6A8
:1058F000C0439A425BD19D9808AB0DF1160221A9D5
:1059000003F054FCBDF81690BDF820B0D94508D975
:10591000304B0893304608A900230222FFF77EFD92
:10592000C1E729499C9A0988CDF808804FEA5A03B3
:1059300049088B4228BF0B460BF10201023BA1EB49
:10594000090123F0010389B28B4228BF0B460432C0
:10595000AA469FB2904603941D4604E0B9441FFA3C
:1059600089F9D94511D808AB4A46414621A808957E
:1059700003F0A2F804460028F0D0089B9C9A4FEA56
:1059800059013046FFF728FEE8E7124B08935546C9
:105990003046A24608A900230222DDF80880039CB5
:1059A000FFF73CFDBAF1000F3FF44BAF7BE7064B2E
:1059B00093F88820002A3FF444AF1C69064A07493F
:1059C00033460120A0473CE778000020843A0108D4
:1059D0002034010880100100C43A0108E83A0108A7
:1059E00070B5FEB04FF4E27204460D460DA80021DA
:1059F00003AE08F0C1FC00960DAA05AB00212046BD
:105A0000FCF72AFE08B97EB070BD94F85B202B46E7
:105A1000314605A8FBF7C6FDF5E700BF10B590B00D
:105A200018B10C4B02689A4208D00B4B0B4A1B6909
:105A30000B4900209847002010B010BD0C460430E0
:105A400001A9FFF7CDFF0028F6D0BDF80430236090
:105A5000F2E700BF0FB03713780000206439010867
:105A60007C39010830B583B00025294600957B2399
:105A7000FF220446FFF7D4FD0121009120468B232D
:105A80000222FFF7CDFD8B238022009507212046BF
:105A9000FFF7C6FD03B030BD70B582B043F23702E8
:105AA00000230092ADF80430032201236946054625
:105AB000FFF7B4FCBDF8043013F0C00F19D143F266
:105AC0001C02012300920024694603222846ADF8F7
:105AD0000440FFF7A3FCBDF804301B0515D50E4BA1
