:020000040800F2
:10000000000001209D9B00080543000809430008EB
:100010000D430008114300081543000800000000CC
:10002000000000000000000000000000194300086C
:100030001D4300080000000021430008254300087C
:10004000ED9B0008ED9B0008ED9B0008394300087C
:10005000ED9B0008ED9B0008ED9B0008ED9B000860
:10006000ED9B000875430008ED9B0008ED9B000820
:100070008943000895430008ED9B0008ED9B0008AC
:10008000A1430008AD430008ED9B0008ED9B00086C
:10009000ED9B0008ED9B0008ED9B0008ED9B000820
:1000A000ED9B0008ED9B0008ED9B0008ED9B000810
:1000B000ED9B00080000000000000000ED9B000820
:1000C000ED9B0008B9430008ED9B0008ED9B00087C
:1000D000ED9B0008ED9B0008E1430008ED9B000844
:1000E000CD470008E14700080000000000000000C4
:1000F0000000000000000000000000000000000000
:1001000000000000ED9B000800000000ED9B0008CF
:100110000000000000000000ED9B0008ED9B0008BF
:10012000ED9B0008ED9B0008ED9B0008ED9B00088F
:10013000ED9B00080000000000000000000000002F
:10014000ED9B0008ED9B0008ED9B000800000000FF
:10015000ED9B0008ED9B0008ED9B0008ED9B00085F
:10016000ED9B0008ED9B0008ED9B000800000000DF
:10017000ED9B0008ED9B000800000000000000005F
:10018000ED9B0008ED9B0008ED9B000800000000BF
:10019000BFF34F8F0549064BCA6802F4E062134370
:1001A000CB60BFF34F8F00BFFDE700BF00ED00E065
:1001B0000400FA05002B4DD09FED295AF0EE405A6D
:1001C0009FED280A70B54FF0000EF0EE456AB0EED4
:1001D000404A0C467646C2B332F81EC0B4EC017AEF
:1001E00001EB8C05D5ED007AF4EEE67A4FEA8C0C43
:1001F000F1EE10FA00EB0C0512DD95ED006AF0EE61
:10020000C64AF4EEE54AF1EE10FA09D5F0EE676A57
:10021000B0EE464A0EF1010E7345DCD1BEB170BDA1
:10022000B4EEC75AF1EE10FA8444F3D59CED007A8F
:10023000B0EEC76AB4EEE56AF1EE10FAEADBB0EEB2
:10024000675AB0EE470A0126E4E7F446C6E7B0EE87
:10025000440A70BD9FED034AB0EE440A704700BFE8
:10026000000080FF000000004B1C5B0825D0F0B5AB
:10027000012905464FEA820E01F1FF30D5ED007AE3
:1002800000FB0E5716D09EB200242A46002302EB34
:100290000E010133D1F800C0C2F800C083420A4603
:1002A000F5D10134A3B29E42C7ED007A04D9D5ED51
:1002B000007AEAE7C7ED007AF0BD70472DE9F04F0C
:1002C0008FB002AFBDF860E0019701FB0E3E0AACB3
:1002D00006AE00EB8E0E4FEA810B0DF13808BA46E0
:1002E000B1462546BEF9027049F8047B07FB07FCBE
:1002F000BEF9007045F8047B07FB07C745454AF87F
:10030000047BDE44EED14FF0000C019F01946FF0AE
:10031000004A4FF000496546E64657F8044B1FFA7D
:100320008CFB4C45C4BFA146DE460CF1010C544584
:10033000BCBF5D46A246BCF1040FEED10EAF07EB89
:100340008E0E07EB8507019C00254EF8105C4EF8D9
:10035000205C47F8105C47F8205C94462F469E4688
:1003600054F8042B56F8043B444517441D44F7D178
:1003700001FB0CE300EB830207EBD77705EBD575A8
:100380007F106D1020F8237055800FB0BDE8F08FFE
:1003900070B5059CBDF81C50049E04EB850E069CB0
:1003A00004EB8504E1B10D1806EB400006EB4506B1
:1003B00030F802CBDEED007A02EB8C0595ED007A89
:1003C00077EE877A03EB8C0CCEED007AD4ED007AD1
:1003D0009CED007A77EE877A8642C4ED007AE7D109
:1003E00007EE901ADEED006AF8EE677A86EEA77ADD
:1003F0008EED007AD4ED006A86EEA77A84ED007A5D
:1004000070BD00BF08B518B1064B02689A4207D00C
:10041000054B064A1B69064900209847002008BD85
:10042000012008BD0FB0371378000020180701081D
:100430003007010890F824C0BCF1010F3CD070B522
:1004400090F825C00124A44580F824405FFA8CFE72
:1004500004D0002380F82430022070BD022580F8EB
:10046000255004680025C5632668456C26F0010602
:10047000266005F01C05066C0EFA05F575606360D4
:100480008368102B036B0BBFA260A160E160E26088
:100490004BB1236843F00E032360236843F001034C
:1004A0000020236070BD236823F0040323602368C9
:1004B00043F00A032360F0E7022070472DE9F04182
:1004C0007A4C0023237694F87D30012B0D46616A27
:1004D00008D0B1F5827F64D1D8B2A36A002B60D175
:1004E00004285ED1002D5CD092B2002A59D094F835
:1004F0007C30012B55D094F87D30266AA565042BFD
:100500001CBF052384F87D3001210023C4F880300E
:1005100084F87C10A4F85E20A4F86620C4E91B339C
:100520007368A4F85C2023F4C0432566A4F8642013
:100530007360E36AA06FB3F5E06F34D8636F9969B5
:100540007368B1F5806F43F48053736000F082806C
:100550008369B3F5806F69D094F87D30544A042BD9
:10056000544B18BF1346544A0363544B4363544BD4
:1005700018BF1346C362B4F866304FF00008C0F8E5
:1005800038809BB206F10C012A46FFF753FF07465D
:1005900070B1D4F8803084F87C8043F01003C4F844
:1005A0008030BDE8F081736823F480537360D3E733
:1005B0007368606F43F001037360B4F85E300A46FD
:1005C000C0E90B77C0E90D7729469BB2FFF732FFF0
:1005D00000284CD133685B0623D5002384F87C3097
:1005E000736843F020037360736843F00203736021
:1005F000D4F88420237E002BD3D141F2873109E047
:1006000072B6237E03B930BF62B6BFF36F8F237E0D
:10061000002BC6D1D4F884309B1A8B42F0D9BDE8A8
:10062000F081336843F040033360D6E7736823F406
:1006300080537360B4F8663013F0010F73681FD1F4
:1006400023F400537360B4F86630C3F34E03A4F888
:10065000663081E7D20773681DD423F4804373604A
:10066000B4F85E30C3F34E03A4F85E3070E7D4F8FC
:10067000803084F87C7043F01003C4F8803090E739
:1006800043F400537360B4F86630C3F34E03013390
:10069000A4F8663060E743F480437360B4F85E30DA
:1006A000C3F34E030133A4F85E3051E77800002015
:1006B0002D0C0008290C0008491A0008310C00080C
:1006C0009919000870B4436C066C056831682C6891
:1006D00003F01C0304229A400A420ED014F0040FC7
:1006E0000BD02B689B0603D42B6823F004032B60EC
:1006F000036B7260CBB170BC184702229A400A4269
:1007000015D014F0020F12D02B68990606D42B686E
:1007100023F00A032B60012380F82530C36A72603E
:10072000002180F82410002BE5D170BC704708220E
:100730009A400A42F9D02207F7D52A68416B22F085
:100740000E022A60012202FA03F300247360C263DE
:1007500080F8244080F825200029E6D070BC0847A6
:10076000234A9368D26813F00C0305D00C2B32D0C7
:10077000042B36D11F4870471D4A1168090754BF22
:10078000D2F8942012681C4954BFC2F30322C2F36A
:10079000031251F82200002BEDD0154BDB6803F05B
:1007A0000303022B22D0154A032B08BF1046104B1F
:1007B000D968DA68DB68C3F34163C2F30622C1F388
:1007C0000211013300FB02F201315B00B2FBF1F2D6
:1007D000B2FBF3F0704702F00302012ACCD00020F4
:1007E000DBE7082B054818BF002070470148DEE70B
:1007F000001002400024F40048C4000800127A00EF
:10080000064A074B92680749C2F30222134408685C
:1008100093F8303003F01F03D840704700100240B7
:1008200048C4000800000020064A074B92680749A8
:10083000C2F3C2221344086893F8303003F01F0358
:10084000D84070470010024048C400080000002053
:10085000434A036830B4D468A40707D0D46804F0CE
:1008600003049C424AD0012030BC7047022B56D072
:10087000032B4DD0012BF6D112689207F3D5384CDB
:10088000E26822F0730213434268013A43EA02131A
:10089000E360334C334A236823F080632360D2F84B
:1008A000845004E0D2F884305B1B022B3BD82368D1
:1008B0001B01F7D483681B02002936D12169C56862
:1008C00021F0784121F4FE4143EAC5630B432361E3
:1008D00023490B6843F080630B60D2F8844004E046
:1008E000D2F884301B1B022B1DD80B681B01F7D5D7
:1008F00082690B69134300200B61B5E7002CB2D06D
:10090000D3684268C3F3021301339342ABD1C0E70B
:100910001468A403B3D412685203A4D5AFE71268D5
:100920005505A0D5ABE703209EE7012921690BD02F
:1009300021F0C06121F4FE41194343695B08013B8A
:1009400041EA43612161C3E721F4C00121F4FE4182
:100950000B4301694908013943EA41532361B7E771
:100960000010024078000020F0B50468054620051C
:1009700083B000F1F5800026A10351D5A74B9A6DF5
:10098000D20040F1F8800027A549A64A0B6843F43D
:1009900080730B60D2F8840005E0D2F884301B1A13
:1009A000022B00F201810B68DB05F6D5AEBB9B493B
:1009B000A86DD1F8903013F4407326D0834224D030
:1009C000D1F890C0D1F8903043F48033C1F8903022
:1009D000D1F8903023F48033C1F890301CF0010F2F
:1009E0002CF44073C1F890300FD0D2F884E041F27B
:1009F000883C06E0D2F88430A3EB0E03634500F296
:100A0000D380D1F890309B07F4D5844AD2F8903047
:100A100023F440730343C2F89030002F40F0DC8091
:100A2000E10708D57D4A296AD2F8883023F003030C
:100A30000B43C2F88830A20708D5784A696AD2F811
:100A4000883023F00C030B43C2F88830630708D5C5
:100A5000724AA96AD2F8883023F030030B43C2F8F7
:100A60008830A70608D56D4AE96AD2F8883023F4A1
:100A700040630B43C2F88830A00508D5674AE96B8C
:100A8000D2F8883023F440230B43C2F88830610544
:100A900008D5624A296CD2F8883023F440130B43FE
:100AA000C2F88830620608D55C4A296BD2F88830D3
:100AB00023F440530B43C2F88830230608D5574A25
:100AC000696BD2F8883023F440430B43C2F8883076
:100AD000E70508D5514AA96BD2F8883023F4403392
:100AE0000B43C2F88830200323D4374661030FD567
:100AF0004A4AE96CD2F8883023F040630B43B1F1E5
:100B0000006FC2F8883000F08380B1F1806F77D039
:100B10003E4662044DD43046230408D53F4A696DF1
:100B2000D2F8883023F080430B43C2F8883003B0FA
:100B3000F0BD3A4AA96CD2F8883023F040630B43E9
:100B4000B1F1006FC2F888304CD0B1F1806FCCD1D8
:100B50000121281DFFF77CFE07460028C5D0C5E708
:100B60006F6CB7F5000F11D0B7F5400F13D0002F01
:100B70003DD0012600E79A6D42F080529A659B6D48
:100B800003F080530193019B0127FDE6234AD368BC
:100B900043F48033D360214AD2F8883023F44003F1
:100BA0003B43C2F88830E6E60326002F3FF438AF17
:100BB00012E01A492A6DD1F8883023F040531343CC
:100BC000B2F1805FC1F88830A5D10221281DFFF75E
:100BD0003FFE00289FD09FE7104A936D23F080537B
:100BE00093651DE7D36843F48013D3607DE73946EE
:100BF000281DFFF72DFE064600287FF4BDAECAE78C
:100C00000121281DFFF724FE0646002880D080E73A
:100C1000D36843F48013D3607AE700BF001002402A
:100C20000070004078000020704700BF704700BF90
:100C3000836A19684A6822F003024A601A6E4FF00C
:100C4000010C42F010021A6683F85DC0704700BFC5
:100C5000026852E8003F23F4907342E80031002913
:100C6000F7D102F1080353E8003F23F0010302F13A
:100C7000080C4CE800310029F3D1036E012B06D09B
:100C800000232022C0F8802083660366704752E864
:100C9000003F23F0100342E800310029F0D052E871
:100CA000003F23F0100342E800310029EFD1E7E7CD
:100CB00070B50568EC6931EA040405D05E1C06D104
:100CC000EB6931EA0303FBD10023184670BD164CD3
:100CD000D4F88440A41AA34218D3BBB12C6864078B
:100CE000E8D58029E6D04029E4D0EC6914F0080466
:100CF0000ED1EE693605DDD54FF400632B62FFF7A8
:100D0000A7FF2023C0F8843080F878400323DCE775
:100D100008242C62FFF79CFF00220123C0F88440C6
:100D200080F87820D1E700BF78000020836A002295
:100D3000A3F85A20A3F85220704700BFB1F804C0AE
:100D400093680A899A80BCF1000C18BF4FF0010C1F
:100D5000CA7983F800C091F806C083F801C09A7080
:100D60009860704710B1024B9B681847704700BFEE
:100D70007800002010B520B10C4B02689A4204465E
:100D800007D00B4B0B4A1B690B49BDE810400020F4
:100D90001847406818B1C368984700236360002370
:100DA00023602046BDE81040DCE700BF0DB03713DC
:100DB00078000020380701085407010810B520B159
:100DC0000B4B02689A42044607D00A4B0A4A1B6939
:100DD0000A49BDE81040002018470069002323603D
:100DE00008B1FFF7BFFF2046BDE81040BAE700BFDB
:100DF0000EB037137800002060070108780701085B
:100E000003460068D3F8E8104268C3F8F0101047B2
:100E1000704700BF2DE9F047D0F800800546B8F1D3
:100E2000000F1ED0D8F898700FB3124E07F1480487
:100E30004FF00009583754F8040F18B1B3689847B9
:100E4000C4F80090A742F6D1D8F89800B36800B172
:100E50009847B36840469847B3682846BDE8F047CE
:100E60001847044E2846B368BDE8F0471847014EBE
:100E7000EFE700BF78000020F8B505460088002A9B
:100E80001C460CBF4FF400534FF48053B0F59C6FD9
:100E90000E460ED300F151077F008342BFB235D218
:100EA0001C4B1D4A1B691D49002098474FF0000C40
:100EB00003E040F662274FF0010C1949194AC4E9D2
:100EC000011202F11912E26002F1191222612346A5
:100ED000002262805122A28223F8167B29686A6868
:100EE000A868EF68C4F816105A609860DF60296936
:100EF000A8696A699861196196E803005A61AA8B2A
:100F00009A83343484E803006046F8BD4FF0010C46
:100F1000D3E700BF7800002080070108A007010880
:100F20000100020003001B0010B50C4C94F888105F
:100F3000012982B00FD90A49246912F4006F0346CF
:100F4000084818BF0846C2F30A01CDE90001064A65
:100F500006490220A04702B010BD00BF7800002063
:100F6000B4070108BC070108C4070108D807010835
:100F700010B50A4C94F888C0BCF1010F82B00AD9B0
:100F80002C3989B2034610462469054ACDE9001080
:100F900004490220A04702B010BD00BF7800002025
:100FA000EC070108D807010830B5084991F88840D6
:100FB000012C83B008D902F00F040D69044A0549D9
:100FC000009403460220A84703B030BD78000020FB
:100FD00014080108D807010810B50A4C94F888C015
:100FE000BCF1010F82B00AD97D3989B2034610469F
:100FF0002469054ACDE9001004490220A04702B047
:1010000010BD00BF7800002034080108D80701088F
:1010100010B5A1F1620C134C1CF0010F034694F8BB
:1010200088E084B01FFA8CF00DD1BEF1010F08D911
:10103000400824690292CDE900010B4A0B490220C5
:10104000A04704B010BDBEF1010FFAD940082469D1
:101050000292CDE90001064A04490220A04704B0EB
:1010600010BD00BF7800002064080108D8070108FF
:101070009C08010810B50A4C94F888C0BCF1010F17
:1010800084B00BD90346A1F58C7080B2246900901E
:10109000CDE901120220034A0349A04704B010BD64
:1010A00078000020D4080108D80701082DE9F04F86
:1010B0001F4EDFF888B0804615460FCE91B002ACC7
:1010C0000FC40FCE0FC40FCE0FC49BF888C096E894
:1010D0000300BCF1010F84E8030007D9DBF81040DE
:1010E000144A1549009543460220A047DFF850A056
:1010F000DFF8449002AC10AE02E00834B44213D0E2
:10110000A3881D42F9D09BF88820012A4346524605
:1011100049464FF00200F0D927680097DBF81070BD
:101120000834B847B442EBD111B0BDE8F08F00BF2E
:1011300080C40008FC080108D807010878000020D6
:10114000180901082DE9F04782B0BDF828400B9F2F
:1011500003EBC4056B88002B44D06E68844601EB1A
:101160000208043E4FF0000E56F8044F620092B29F
:101170008A4233D3424531DAC4F30170012817D0D3
:1011800002283AD090BB521A93B2C4F344590122B8
:1011900002FA09F2974249D33349013A0C690192A4
:1011A0003249334A0097A047002002B0BDE8F087DB
:1011B000521A92B20CEB42093CF81200B9F8023014
:1011C00043EA004323F00F0317B1C4F3034423435E
:1011D000180C2CF81200A9F802306B880EF1010EE1
:1011E0007345C1D8012002B0BDE8F0871E4B214AEB
:1011F0001B691E4900209847D6E7521A92B20CEBA1
:1012000042003CF81290438843EA094323F00F035D
:1012100017B9C4F3034423431C0C2CF81240438039
:101220006B880EF1010E73459ED8DBE7C4F3044AC8
:101230000CEB43043CF813006288C9F1200942EA30
:1012400000424FF0FF3020FA09F000FA0AF022EADB
:10125000000207FA0AFA42EA0A02100C2CF81300FC
:1012600062806B88BAE700BF78000020640901083B
:101270002C09010870090108002870B446DB002918
:10128000034639DB88420A464BDA00250124294609
:101290001B04B3FBF2F343F6284293425AD946F2B9
:1012A000D632934261D948F6720293425FD94AF628
:1012B000494293425DD94DF2A30293425BD94FF26A
:1012C0004B72934298BF052045D94FF24C7648F2B5
:1012D00033224CF2A3409B1B02FB03F300EB1340B1
:1012E00014B1C0F5C9301F3015B1C0F549303F30D9
:1012F000C1B1404270BC7047494209B2884217DA16
:10130000002501240A4603462146C1E7404202B2B5
:101310000029104614DB91420B4605DD99BB1D48A0
:1013200000E050BB70BC7047002401252146AFE7A8
:101330000028DED000250B4602462C460121A7E7F7
:10134000494209B28A424FF00105DADB0B4600241C
:1013500029469DE70020104A02EBC00602EB8002FE
:10136000D6E91C60D2F8A820B5E70120F3E70220F7
:10137000F1E70320EFE70420EDE700250B460246E6
:101380002C46294684E701251A462C4603460021AF
:101390007EE700BF2092010048C400082DE9F04715
:1013A0000646804602EB42008CB0154606EB8000F4
:1013B000002289460DF10C0A014617464FEA870EB6
:1013C00054469FED767AB31A75B103EB020CF444E0
:1013D000DCED007A9C46DCED006A0C3367EEA67A01
:1013E0008B4237EE277AF0D10EF1040EBEF10C0FCE
:1013F000A4EC017AE5D10137032F0AF1100AA2F11A
:10140000040201F10401D9D19DED045ADDED055A24
:10141000DDED086A6A4606F10C01DFED607A4346AD
:101420003DB11C4694ED007A0C33834277EE877A07
:10143000F7D108F104088845E2EC017A00F10400D4
:10144000EBD19DED037AF0EEC77AF4EE677AF1EE18
:1014500010FA12D69FED526AF4EE467AF1EE10FAC7
:101460000BDC9FED506AF4EEC67AF1EE10FA04DA66
:10147000B5EE407AF1EE10FA7DD0F7EE007A87EE05
:10148000872A9DED073A9DED0B7A65EE023A25EE2F
:10149000824A65EE237A65EEA34A33EE673A25EE7B
:1014A000846AF0EEC32A65EE047AF4EE622AF1EE65
:1014B00010FA76EEE44A76EEE77A37EE466A06D61A
:1014C0009FED377AF4EE472AF1EE10FA47DDB7EEDA
:1014D000007AC7EE032ADDED006A9DED017A9DEDED
:1014E000023A63EEA63A67EEA27A37EE637A64EECA
:1014F000A73A67EE877A36EE636A24EE264AF0EE64
:10150000C63A73EE677AF4EE633AF1EE10FA77EECC
:10151000C47A06D69FED224AF4EE443AF1EE10FA70
:101520002FDD87EE864A0120002364EE844A65EEB3
:10153000845A77EE647A89ED024A67EEA27A25EE44
:10154000275AC9ED017A76EEC57A77EEE57A67EE2D
:10155000827AC9ED007A33600CB0BDE8F0879FED68
:10156000117AF4EEC72AF1EE10FAB0DAB5EE403A8D
:10157000F1EE10FAABD10020002333600CB0BDE8CF
:10158000F0879FED084AF4EEC43AF1EE10FAC8DA9B
:10159000B5EE406AF1EE10FAEDD0C2E700000000AF
:1015A000FFFF7F7F000080002DE9F047C36D876952
:1015B000056900247C8081461C7000F14806A04625
:1015C00056F8043FFBB1B3F838C0B3F89400B3F851
:1015D0009610B3F8DC2005EB400005EB410105EB6C
:1015E000420205EB4C0CC3E91301C3F8A820C3F871
:1015F00014C03C701868D3F8E020416883F8E88094
:10160000C3F8E42088470134E4B2042CD8D1D9F8D7
:101610000000BDE8F0474368184700BF0068C36892
:10162000184700BF70B50446806978B1E36943B1DB
:101630000F4B93F8882022B11B690E4A0E490120F6
:1016400098472068BDE8704083681847084D0B4AEA
:101650002B6909499847E3693BB195F8883023B174
:101660002B69044A044901209847002070BD00BF3F
:101670007800002094090108A4090108B4090108B0
:1016800030B40269B0F8423090F8381032F81330B4
:10169000032908BF83F4004340F2E51101FB03F383
:1016A0001B0C816C8446A3F589700880BCF83C1043
:1016B000DCF84C0032F8111039B1BCF8401032F8A7
:1016C0001110012994BF002101210170BCF83E00D6
:1016D000BCF83A10DCF8505032F8111032F81020F3
:1016E000DCF8544040F2E51000FB02F2A3EB124399
:1016F0001BB2002BBCF94420DCF80000B8BF5B42F1
:101700001BB29A42A1F10102B2FA82F2ACBF0023ED
:10171000012352092A70237030BC4368184700BF68
:101720000068C368184700BF00688368184700BF97
:10173000D0E90F23816B0069184700BF836910B59A
:101740000446BBB10D4B93F888204AB963697BB15D
:101750000A4B0B4A1B690B4900209847002010BD1B
:101760001B69094A0749012098476369002BEFD19B
:10177000012010BDC369002BE4D1E7E77800002009
:10178000080A0108EC090108D00901082DE9F04F09
:101790009B461B68C2F51E66B34294BF9EB2B6B2AA
:1017A000884674084FEA520183B017464FEA810118
:1017B0000CD0144B08EB84041944434651F8042B15
:1017C0005A80120C1A800433A342F7D10E4C851EA6
:1017D00004F1E20A04F1E40914F8013B35F8022FA0
:1017E0003946CDE9003240464B463246FFF7AAFC67
:1017F000A24501D00028EFD1CBF8006003B0BDE8CE
:10180000F08F00BFDCD700080CC500080068C36873
:10181000184700BF00688368184700BFF0B482B063
:101820002F4E056800238DF80330D6F88430D6F8A3
:101830008470C3F164031A442A4B1B6803EB8303CF
:10184000C3EBC3031B0D02FB03F30193AB68194207
:101850000AD135E0019C019B013B0193AB68002C50
:1018600008BF002219422BD0B1F5C06F05D12B7BE8
:10187000DBB28DF803309DF80330D6F88430DB1BE3
:101880009342E7D36B68426823F0E003B2F5827FAE
:101890006B6019D0836AB3F5005F07D12B6823F41E
:1018A00000532B602B6843F400532B60012200236C
:1018B00080F85D2080F85C30032002B0F0BC7047F7
:1018C000002002B0F0BC70478368B3F5004F02D02F
:1018D000B3F5806FDED12B6823F040032B60D9E78E
:1018E000780000200000002070B4294D294BD5F865
:1018F00084201B680468D5F88460C2F16402114436
:1019000083B0C3F3CB3301FB03F30193A3681A063F
:101910002DD509E0019A019B013B0193A368002AA0
:1019200008BF00211B0622D5D5F884309B1B8B42B3
:10193000F0D36368426823F0E003B2F5827F63600E
:1019400019D0836AB3F5005F07D1236823F40053ED
:101950002360236843F4005323600122002380F8AE
:101960005D2080F85C30032003B070BC704700201D
:1019700003B070BC70478368B3F5004F02D0B3F575
:10198000806FDED1236823F040032360D9E700BFD6
:10199000780000200000002038B52A4A0368D2F8F9
:1019A00084501B689B061BD4846A2368A26858680D
:1019B000616820F0200058609AB15868B1F5827FC4
:1019C00020F00100586022D029462046FFF78CFF06
:1019D000B0B901230022A4F8462084F85D30236EBC
:1019E00038BD5A68B1F5827F0CBF22F0030222F0A5
:1019F00001025A6029462046FFF776FF0028E8D00A
:101A0000236E43F02003236620232366E1E7B2F52B
:101A1000004F12D11A6822F0400229461A6020466F
:101A2000FFF762FF0028EBD12A464FF4C061204641
:101A3000FFF7F4FE0028CCD0E2E7B2F5806FE9D0E2
:101A4000C2E700BF78000020F8B51C4D0368D5F848
:101A500084701B68846A9B062CD42668736823F004
:101A6000200373603A464FF4C0512046FFF7D6FE7C
:101A700058B939462046FFF737FF30B93A464FF498
:101A8000C0612046FFF7CAFE38B1236E43F0200341
:101A90002366236E43F020032366736823F0030359
:101AA000736000220123E287A4F8462084F85D30A9
:101AB000236E0BB901232B76F8BD00BF7800002000
:101AC00030B4124D124C00F1BC0C002143680B44A1
:101AD000024640F8043F12689A1AAA4209DD50F8FB
:101AE000042CA3F5C9237E3BA1F5C92103607E39EF
:101AF0009A1AA24206DA03F5C92301F5C9217E33F9
:101B000003607E318445E1D130BC70473F2403003F
:101B1000C1DBFCFF2DE9F04FBFB00DF138090D46D8
:101B20009046019300F1020B3EAFCA46002440F6F6
:101B3000B73631E025B335F8141001F01F0E4FEA27
:101B4000912C0EF1300E00FB0EF0C1F34411ACF1FC
:101B5000200C02FB0CFC002801F1300102FB01F11A
:101B6000B8BF3F30BCF1000FB8BF0CF11F0C8011A3
:101B7000002900EB6C10B8BF3F3100B241F38F1168
:101B80000134182C08BF0024FFF776FB4AF8040B39
:101B9000BA450BF1040B0ED0BBF900203BF9020C47
:101BA00002FB02FC00FB00CCB4451146C2DC002065
:101BB0003FB0BDE8F08F0DAC0DF1060109F15C05F9
:101BC000224652F8043F002BB8BF0F3302311B11DD
:101BD00095420B80F5D14846FFF772FF002254F87A
:101BE000043F216EA542A3EB01031A44F7D1124B27
:101BF00083FB0213D217C2EBA31404F599433033CD
:101C00004CF662129342D2D802AE35460FCD4D4506
:101C100008F1100806F1100648F8100C48F80C1CE2
:101C200048F8082C48F8043CEFD1019B01201C80A7
:101C30003FB0BDE8F08F00BFABAAAA2A2DE9F04F54
:101C400087B04FF0000E164600EB41090290821E4D
:101C5000CDE90316A9F1120935464FF0010BF24602
:101C6000F4467046CDF804E005931EE040F2EE2104
:101C70008B4240DC634500DD9C464FF0000BBEF11B
:101C8000000F0ABF4FF0000B70460120CAF1000898
:101C90004345019BB8BFA4EB060ABB4238BF3B4695
:101CA0009145019305F102052BD0568A32F8024F77
:101CB000331B03F50048B8F5803F2746D6D240F2E3
:101CC000EE218B422B8007DD178868B9634515DD4F
:101CD0009C464FF0010ED9E7514917889C45B8BF83
:101CE0009C468B42D2DACAE7634500DD9C468646B5
:101CF0004FF0000BCAE74FF0000BE6E74FF0010E84
:101D0000C4E71946DDE90346059BBBF1000F03D18B
:101D1000002007B0BDE8F08FBEF1000FF8D000281A
:101D2000F6D0CDE9031C0027A4F11C09B84606F142
:101D300012043D463E46BE46D34634F9021F019684
:101D400001EB810C01EB4C010A22A246A4463CF9AE
:101D5000026D02FB06113AF9026F02FB0611013A0D
:101D6000F5D1019EA942C4BFF0460D468E42C8BFC0
:101D700077460EF1010EC8BF0E46F145DDD14CF29B
:101D80005034A542DDE9031CDA46C1DD254CA642EC
:101D9000BEDABCF1000FBBD0BBF1000FB8D0029C83
:101DA000119D2488C900E4004DB18C4205D2ACEBF2
:101DB0000402013A0A44B2FBFCF2119D2A60109A17
:101DC000002AA6D0002BA4D0029A08F10E0532F802
:101DD0001520B4EBC20F4FEAC20606D2ACEB0404E6
:101DE000013C3444B4FBFCF42D1B029A0E3732F84C
:101DF0001720B1EBC20F4FEAC20405D94A1E524464
:101E0000121BB2FBFAF2BF1A55EA070280D4BD4298
:101E10003FF77EAF109A7F1B17601D6079E700BF08
:101E200012FDFFFFB03CFFFF2DE9F04F204C934621
:101E30009A46851E8A1E04F1E2074FF000084FF40F
:101E40001E6604F1E40935F8021F32F8023F994298
:101E500022D0217809EBC1014B8833B349680020B7
:101E600001EB830347F6FF7E51F804CB1FFA8CFC8D
:101E7000E64528BFE646604538BF60468B42F3D151
:101E8000400080B24FEA4E0E80451FFA8EFE38BFEA
:101E90008046764528BF76460134BC42D3D1ABF8A4
:101EA0000060AAF80080BDE8F08F4FF6FE7EF0E7F4
:101EB0000CC500081249D1F88C20D06810F0400001
:101EC00001D0002070474FF0FF3310B4D360D1F839
:101ED0008440D3685B0610D4032803D10DE0D36897
:101EE000580609D4D1F884301B1BB3F57A7FF6D994
:101EF000032081F8AD00ECE700205DF8044B70474B
:101F0000780000200A4A0B4BD2F88C10CB60D2F834
:101F1000840005E0D2F884301B1AB3F57A7F04D828
:101F2000CB689B06F6D5002070470320704700BFA2
:101F3000780000205FFF030008B5114BDA6822F03B
:101F40008002DA609A68920603D4FFF7DBFF88B953
:101F500008BD9A6822F020029A60FFF7D3FF18B1FB
:101F6000084B032083F8AD00054A936843F0200333
:101F7000936008BD034B032083F8AD0008BD00BF8C
:101F80000028004078000020F0B5634C94F8AC3095
:101F9000012B00F0BF80D4F88C100223012284F8BA
:101FA000AC2084F8AD308B6813F0400C18BF90F86B
:101FB00003C003780CBF80F803C04FEA8C5C092B88
:101FC00009D900220A3BDBB2092B02F10102F9D840
:101FD00043EA0213DBB21A044378092B09D900251E
:101FE0000A3BDBB2092B05F10105F9D843EA0513D9
:101FF000DBB28678092E4FEA032309D900250A3E71
:10200000F6B2092E05F10105F9D846EA0515EEB23A
:1020100090F824E0BEF1090F0DD90025AEF10A0EAB
:102020005FFA8EFEBEF1090F05F10105F6D84EEA02
:1020300005155FFA85FE4569076A3D4345EA0C05CB
:102040002A4313433343456843EA0E62C3691D4381
:10205000836ACA20486253204862B3F5807F8B6848
:1020600039D023F400738B60CB68DBB263F4207348
:10207000CB60D4F8840005E0D4F884301B1AB3F5A3
:102080007A7F1ED8CB689B07F6D50A628D648B6871
:1020900043F400738B608B6843F400538B601F4BD9
:1020A0001A68002042F4802284F8AC001A609A6812
:1020B00042F480229A60FF2201234A6284F8AD3004
:1020C000F0BDFF2203234A6284F8AD30002384F878
:1020D000AC300320F0BD23F480738B60CB68DBB29F
:1020E00063F4C073CB60D4F8840005E0D4F8843086
:1020F0001B1AB3F57A7FE4D8CB68DE07F6D5CA6140
:102100004D648B6843F480738B608B6843F4805319
:102110008B60C4E70220F0BD78000020000401407D
:102120002A4A03460068904270B43BD8284A294C9A
:1021300014210244B2FBF1F29200022183F825102F
:1021400001689D689E691C6421F4FF4C59695A64BA
:102150002CF0700C294341EA0C01314341F080011D
:10216000B5F5804F016014D0596802F01C020F20B1
:1021700090409140174A94426FEA00001AD0D2F87A
:10218000A8442040C2F8A804D2F8A8040143C2F829
:10219000A81400200122D86383F8240083F82520A6
:1021A00070BC70470C4A0D4C02441421B2FBF1F292
:1021B0009200C2E7D4F8A8200240C4F8A820D4F8BE
:1021C000A8201143C4F8A810E3E700BF07040240A9
:1021D000F8FFFDBF00000240F8FBFDBF0004024015
:1021E000134BDB68C3F30223C3F1070C1A1DBCF1C8
:1021F000040F28BF4FF0040C062A88BFDA1E4FF0E8
:10220000FF3303FA0CF398BF002221EA0303934043
:102210001B01421CDBB206D000F1604000F56140BA
:1022200080F800337047024A82F82330704700BFBD
:1022300000ED00E038B5104D104A2B68A2FB0323D7
:102240009B09013BB3F1807F01D3012038BD4FF0E2
:10225000E0220B495361F02381F823300024072347
:102260000F2894611361F0D801464FF0FF30FFF75B
:10227000B7FF6960204638BD00000020D34D6210D2
:1022800000ED00E01049114AD1F8840013691B07E2
:1022900004D50E4B1869C0F3C0007047D1F88430E4
:1022A0001B1AB3F57A7FF4D272B613691B0700D4F8
:1022B00030BF62B6BFF36F8F13691B07EED5034BB8
:1022C0001869C0F3C000704778000020000400487F
:1022D00010B5554B93F8AC200021012A83F8B010BB
:1022E00000F08780D3F88C20CA21022483F8AD4007
:1022F00001205162532183F8AC005162916821F4AE
:1023000080619160D168C9B261F49061D160D16897
:10231000490670D51F2151619168444821F0070199
:1023200041F003019160016841F48011016081680E
:1023300041F480118160916841F48041916091681D
:10234000FF2441F4806101209160546283F8AD0064
:1023500093F8B010002283F8AC20002960D172B647
:10236000BFF34F8FBFF36F8F93F8B02002B930BF28
:1023700062B6BFF34F8FBFF36F8F93F8B020002A80
:10238000EDD093F8AC200021012A83F8B01030D0B2
:10239000D3F88C000224CA2283F8AD4001214262A6
:1023A0005322426283F8AC10826822F48062826019
:1023B000826822F480428260D3F8844005E0D3F83A
:1023C0008410091BB1F57A7F0CD8C26812F00402A0
:1023D000F5D0FF2401220021446283F8AC1083F879
:1023E000AD2010BDFF240321446283F8AC2083F8A4
:1023F000AD10FDF7CDFED3F88440D16811F0040193
:1024000088D1D3F88400001BB0F57A7FF5D9FF247A
:102410000320546283F8AC1083F8AD00FDF7B8FEDA
:1024200083F8B020B4E700BF78000020000401402A
:1024300038B5374B4FF4805204469A620D46FFF789
:1024400047FF606808B1FEF795FC2D6A25B1284664
:10245000FDF7D8FF002854D1206B08B109F00EFA1F
:10246000206808B1FEF7AAFCE06F08B109F006FA8F
:10247000D4F8800008B109F001FAD4F8840008B15A
:1024800009F0FCF9D4F8880008B109F0F7F9D4F89C
:10249000A40008B109F0F2F9D4F8A80008B109F0D5
:1024A000EDF9D4F8940008B109F0E8F9D4F88C00FB
:1024B00008B109F0E3F9D4F8900008B109F0DEF9A9
:1024C000D4F8980008B109F0D9F9D4F89C0008B103
:1024D00009F0D4F9D4F8A00008B109F0CFF9D4F884
:1024E000C00008B109F0CAF9D4F8C40008B109F075
:1024F000C5F9D4F8B80018B1BDE8384009F0BEB944
:1025000038BD00232B602846FEF72CFCA4E700BF53
:10251000000400482DE9F041C16F05689EB00446F3
:1025200000295FD025682423E3672A68636A22F0C4
:1025300001022A60002B40F0C380D4E90402A368A2
:10254000296803431343E0699E4A03430A40134347
:102550002B606B68E26823F4405313439A4A6B6024
:102560009542A369AA6800F0F180216A22F43062E2
:102570000B431343954AAB6095421BD0944B9D424D
:1025800040F0158103F5E633D3F8883003F00C03EF
:102590000C2B00F20F81DFE813F0E2010D010D01B9
:1025A0000D0173010D010D010D012B010D010D0137
:1025B0000D016301874BD3F8883003F00303022B2E
:1025C00000F01681032B00F04B81012B00F05881A5
:1025D000B0F5004F00F0CC81FEF726F9002800F09E
:1025E00018810AE180F878105C2207A809F004F845
:1025F000764B9D4200F0C181754B9D4292D10227DE
:1026000007A80797FEF7B0F90646002840F0E181D9
:10261000704B714D9A6D42F400329A659A6D02F4D6
:1026200000320492049ADA6C42F00102DA64DB6C44
:1026300003F00103039307220323CDE9003203993A
:1026400003463A464FF090400F214FF0800806F0C5
:10265000A7F9C5E92E76C5E93068C5E93266C5E94E
:10266000346605F1B4065D4BC5F8B4303046FFF76B
:1026700057FD002840F0AD816667102305F1FC0688
:10268000C5E94208C5E94400C5E94600C5F804317A
:102690003046534BC5F80071C5F8DC40C5F8FC3036
:1026A000FFF73EFD0146002840F093812667262073
:1026B000C5F82441FFF794FD4A4B40225A6031E7A8
:1026C0001E0705D56A68616B22F400420A436A60FE
:1026D000D80705D56A68A16A22F400320A436A6005
:1026E000990705D56A68E16A22F480320A436A6074
:1026F0005A0705D56A68216B22F480220A436A6072
:10270000DF0605D5AA68A16B22F480520A43AA60AD
:102710009E0605D5AA68E16B22F400520A43AA601E
:10272000580609D56A68216C22F480120A43B1F573
:10273000801F6A6000F00C8119067FF5FEAE6B68A1
:10274000A26C23F4002313436B60F6E622F430629C
:1027500013432049AB60D1F8883003F44063B3F5EC
:10276000006F00F0F38000F2EA80002B00F02B8174
:10277000FDF7F6FF00284CD0626802EB420383426B
:1027800018D8B0EB023F15D8510800230F464FF47C
:1027900080761946E0FB0671384606F0EFFC124BD6
:1027A000A0F540729A4205D8074BD86031E00F4B34
:1027B0009D425BD00023C4E91A3301201EB0BDE85E
:1027C000F08100BFF369FFEF008000400038014056
:1027D0000044004000100240780000206C000240DD
:1027E0008000024000E100E0FFFC0F0000480040D4
:1027F000B0F5004F7A4800F08D80636800EB53001D
:10280000B0FBF3F04FF6EF73A0F110029A42D1D86B
:10281000E8606A687349002322F49042C4E91A33DD
:102820006A60AA6822F02A02AA602A6842F00102BD
:102830002A60C4F88430D1F884602B681A0727D442
:102840002B685B073ED400232022E26784F87830AF
:10285000C4F88020184623666366AFE7302BA9D101
:10286000B0F5004F56D04FF40040C6E75E4BD3F8AA
:10287000883003F03003202BBAD0EFD8002B6ED075
:10288000B0F5004F41D0FDF76BFF0028C1D0B4E791
:102890006FF07E4332464FF400112046FEF708FAEF
:1028A0000028CDD0236853E8002F22F0800243E8AF
:1028B00000210029F7D12023E367002384F8783032
:1028C00003207BE76FF07E4332464FF480012046C1
:1028D000FEF7EEF90028B6D0236853E8002F22F463
:1028E000907243E800210029F7D103F1080252E871
:1028F000002F22F0010203F1080040E80021002926
:10290000F3D12023C4F88030D7E7FDF729FF002852
:102910003FF47FAF6268530803EB40034FF6EF715B
:10292000B3FBF2F3A3F110028A423FF643AF23F068
:102930000F0292B2C3F342031343EB6069E7B3F5AE
:10294000406F7FF437AF4FF4004015E7244813E79A
:102950006A68616C22F4C0020A436A60ECE6B0F572
:10296000004F38D0FDF74CFF00283FF452AF44E74A
:10297000FDF75AFF0028CDD14BE7012307A80793A5
:10298000FDF7F2FF034620BB174A116E41F4804168
:102990001166116E01F4804106910699D16C41F0E7
:1029A0000101D164D26C072002F0010203210592DB
:1029B0000190009102224FF4C0614FF09040059DBC
:1029C00005F0EEFFAEE5FDF71BFF00283FF421AF59
:1029D000D2E6FDF7DDFBFDF713FF00289AD118E7DB
:1029E0000024F400780000200010024010B41F4CB6
:1029F00094F8AC30012B35D0D4F88C100220CA23C7
:102A000084F8AD0001224B6253234B6284F8AC2062
:102A10008B6823F480738B608B6823F480538B6006
:102A2000D4F8840005E0D4F88420121AB2F57A7F35
:102A30000ED8CB6813F00103F5D00020FF2201234C
:102A40004A6284F8AC0084F8AD305DF8044B7047FE
:102A50000320FF224A6284F8AC3084F8AD005DF8B0
:102A6000044B704702205DF8044B7047780000204B
:102A70000CB4F0B5ADB032AB06AE53F8042B0593F1
:102A800004460D463046962108F068FF9528C4BFDD
:102A90001C4BCDF8AA301C4B1C49D3F88470A1FB09
:102AA00007311B4BA3FB0723980B1A4BA3FB0723F0
:102AB0004FEA931C184B4FF47A7202FB1C77A3FB6E
:102AC00000E25209042CC2EB0212A0EB8202A3FB2B
:102AD0000CE398BF114800974FEA531394BF005D71
:102AE0003F20C3EB03130190CDE90256490DACEB37
:102AF00083030B4808F00CFF2DB0BDE8F04002B096
:102B0000704700BF2E2E2E0078000020B17C21954A
:102B100073B2E745D34D621089888888540A01084A
:102B2000300A010870B5094E736805469847044697
:102B300028B12A46002108F05FFD204670BD3369A8
:102B4000034A04499847204670BD00BF7800002022
:102B50005C0A01086C0A010818B1064B02689A4227
:102B600005D0054B054A1B690549002018478068B8
:102B700005F096BE0EB037137800002060070108FC
:102B800078070108F8B516460D464FF4E272014683
:102B900018461C4608F05CFEB6F8581021B196F8AD
:102BA0005E30191E18BF0121012396F85B2084F8BE
:102BB000C6312B4684F8C52133F8262B84F8C4117E
:102BC000A4F8C82105F1560104F5E5721F685E6896
:102BD0009868D3F80CC0C2F80CC010338B42176051
:102BE0005660906002F11002F0D1B5F85630A4F8AA
:102BF000FA3105F1580604F5FE7E05F18807B44662
:102C0000BCE80F00BC450EF1100E06F110064EF8A0
:102C1000100C4EF80C1C4EF8082C4EF8043CEED16B
:102C2000B5F88830A4F82C3205F18A0304F22E247A
:102C3000BA35186859689A68DE68E6601033AB42A6
:102C400020606160A26004F11004F2D1F8BD00BF01
:102C50002DE9F04F2DED108B9BB090F85E401D4696
:102C600090F85C300893042CB0F8583003938046F9
:102C7000894616461AD8D0ED147AF5EEC07AF1EEF0
:102C800010FA00F1F58190F86630002B00F0918287
:102C900090F85B30002B00F08C82024C024A0594C5
:102CA00007E000BF78000020C00A0108C64CC74AF0
:102CB00005942369C64900209847D8ED157AD4F8C1
:102CC0004431009307EE103AF5EEC07AF1EE10FAB7
:102CD000B8EE478A40F3D081C8EE278AF6EE007A34
:102CE00078EEA78A039B002B00F0A68198F85E304F
:102CF000049398F85A30002B40F0A58198F8602092
:102D0000022A41F0298198F85E40012C00F0E1830D
:102D10000024224634990C71A6F8AC21002B00F057
:102D2000978198F85F30012B00F00484022B00F0AB
:102D3000EB83002B40F0DD8301231A46F3843285B8
:102D400098F86030012B00F0CD83022B00F0C9838E
:102D5000002B00F00784059B9E4A1B699C490020BC
:102D60009847B9F1000F00F0778100230093B9F87C
:102D7000E410B9F808307180B9F8E610B180B9F8FC
:102D8000E2103180B9F8E810F180B9F80210318111
:102D90009B00B9F8041071819BB2B9F80610B1819B
:102DA00003F13002B9F80A10F18192B2B9F820109B
:102DB00031825F2AB9F82210718240F2EE81864991
:102DC000A1FB0201890901EB4101A2EB411189B28A
:102DD00000201A4604460B460121F2820322B382E8
:102DE00072830023009A7384B483F0833183318427
:102DF0006B800123C5F80A30002A00F054870027B1
:102E0000CDE9017706F13E039FED749A9FED74AA18
:102E1000DFED779ACDE90696B34605F10E0A4446F2
:102E20001E46049AFBB29A4200F229810023AAF8B6
:102E30000030AAF8083033800137042F0AF1020A63
:102E400006F102060BF1560B04F11404E9D1039BC1
:102E5000AA89DDF804E012FB03F26B8992B21344F5
:102E60009BB2DDE90696591C012089B20090B6F8A4
:102E7000AC01012804D1DDE9020404FB00F002905A
:102E8000029FB8F8640098F863C098F862B04FF6F3
:102E9000FF74A74228BF27464408A4F1030A98F804
:102EA0006640A6F89EB18CF0010C0338A6F8A6C1C6
:102EB000A6F8A471A6F8A0E1A6F8A801A6F8AAA110
:102EC000AA81AB80E980002C00F02781413399B2C0
:102ED0004024012329802C81A6F8C031B9F1000FCC
:102EE00003D0B9F80C30A6F8C231009B002B40F09B
:102EF0003E81349A98ED145A00231360089BA6F87B
:102F0000B231039B012B40F22F81B8F85830023BBD
:102F100001229BB29FED336ADFED335A98F85A10C5
:102F2000F1EE007AC8EE066A68EE277A68EE255A56
:102F300087EE867AC5EE867AB6EE006A76EE866A07
:102F400037EE067AFCEEE66AB5EE405AD8ED155A31
:102F5000A6F8AE31F1EE10FA16EE903A77EE867AD8
:102F6000BCEEC77AA6F8B02114BF01220022FCEE05
:102F7000E77A328798F85B20A6F8B43117EE103A5A
:102F8000A6F8B63117EE903AF5EE405AA6F8B831E9
:102F9000009BF1EE10FA14BF01200020002B40F03E
:102FA000BE8031867286708598F861300F4A00982D
:102FB000C6F8BA210121B184A6F8BE311BB0BDEC20
:102FC000108BBDE8F08F00BF780000207C0A01085C
:102FD000980A0108BC0B0108ABAAAAAA2549123E0F
:102FE0008FC2753D0024744900009643FF07010815
:102FF00000000000B5EEC07AF1EE10FA00F1078390
:1030000098F85A20002A00F00583B5EE407AF1EED8
:1030100010FA05D1F5EE407AF1EE10FA40F0BB83DC
:103020005FED0D8A059B724A1B6972490020984723
:10303000039B002B7FF45AAE039B049398F85A30FD
:10304000002B3FF45BAE349A00231371A6F8AC3129
:10305000B9F1000F7FF489AE0123A5F802906B81CE
:10306000CE4602214A46CDF80890CDF80090FEE603
:10307000614C624A05941CE6DFED618A32E6012369
:10308000338098F85C90228940F2FF3340F2FF11C0
:10309000B9F1000F18BF0B4642B39A4226D8A27B63
:1030A000237C3AB1022B05D1059B564A1B69DDE909
:1030B000069620E0E07B002840F03E82012B00F0E5
:1030C000AB80059B504A1B694A490090DDE9069692
:1030D0009847DDF804E0039BAA8912FB03F26B8991
:1030E00092B213449BB2591C89B2C0E6059B474A71
:1030F0001B69DDE906963F4900209847039BAA8992
:10310000DDF804E012FB03F26B8992B213449BB228
:10311000591C002089B20090A9E62346DAE6B5EEF4
:10312000405AF1EE10FA0AD0C8EE057A77EE867AA8
:10313000FCEEE77A17EE903AB3871B0C73870023F7
:1031400061F30F03F5EE405A62F31F43F1EE10FAFC
:10315000708533633FF428AFFCEEE87A17EE903ABF
:103160001A0CB285F3851FE700221346D2E698F8C1
:103170005D30072B15D8264A9FED219A134493F80A
:103180003C39A6F8A231349B83ED009A049B002BB6
:1031900040F0438298ED145AB0E603200124002148
:1031A0001BE6349A98ED145A002313600023009311
:1031B000A4E6012C40F2E28198F80F104246012368
:1031C00003E00133A34200F0D981084692F82310AE
:1031D000814202F11402F4D2074F0E4A3C690549BC
:1031E00005970020A047D8ED157AD7F8443168E557
:1031F000200B0108980A010878000020AC0A010899
:1032000000000000EC0B0108180C0108DC0B0108A1
:1032100048C40008EC0A01086FF00B030993E28828
:10322000A3880A92182A009340F2968202EB820346
:1032300003EB031303EB032302EB4303C3F3CC02BF
:1032400042EA43339BB240F6AA22934200F2D7826D
:10325000AF4B0A9AA3FB02231B090E93013B9BB2BF
:1032600015935C230D9318230B930098002840F0CE
:10327000D684059BA74A1B69A7499847B9F1000F57
:1032800000F0C0844FF000090222009B099913FB53
:1032900002F292B20092226811440A460C910A99F5
:1032A000013B01FB0323099302F5C34328334CF28E
:1032B0005032934207D9059B984A1B6996490020D2
:1032C00098474FF00009099B03F5C34328334CF29C
:1032D0005032934207D9059B914A1B698E490020C1
:1032E00098474FF000090C9A002AC0F23D838D48A0
:1032F00080FB0230D217C2EBA00000B2099B002B6A
:10330000C0F22683874981FB0331099BDB17C3EB9E
:10331000A101119309B280B2091A0C9B0F90814848
:1033200080FB03C0C2EBA00288B209B20E9B1091D1
:10333000B0FBF3F0411C0A901FFA81FE0B98182194
:10334000B1FBF0F30E930C9B02EB4202B3EBC20213
:1033500000F1F78213B2139393B20C93099A714858
:10336000119B0B9980FB020CC3EBAC0303EB430CEA
:103370000C9BB3FBF1F001FB103081B2B2EBCC033C
:10338000099100F1FB821AB219929BB20E9A0B9826
:10339000511E099A89B21891BEF1010F11FB00214B
:1033A00089B200F0F182099A0C98824240F0FF82C3
:1033B000994200F04F840023012213931692149334
:1033C00012920E930C9B9A00099BABF882209B00F3
:1033D000ABF88430B9F1000F40F0F5826C231793FD
:1033E00036230C937D223D234FF00009ABF87C304F
:1033F0000F9BABF87A200C9A1099C3F12903134460
:103400001AB21192521A9BB2292A0F9307DC059B1C
:10341000454A1B694049002098474FF00009119B1D
:10342000179A934207DB059B404A1B693A490020E3
:1034300098474FF000090D9B2C2B00F20F821E2B9A
:1034400040F2E3831E3B0F229BB20D92ABF89A3001
:10345000159B0C99ABF89430139BABF87E10ABF82E
:103460008E300F990A9BABF880100D99ABF896102F
:10347000ABF89820002B40F0CF81149B002B0E9BC3
:1034800008BF00230E93129B002B00F0D783099AEC
:10349000199B9B1A0B9A93FBF2F39BB2169AABF80B
:1034A0009220ABF88C300E9AABF888200023ABF852
:1034B0009030ABF88A300A9BABF88630B9F1000F38
:1034C00040F0BC82CDF80090DDF804E0DDE906961E
:1034D00001E698F81020013A012A7FF619AC22463D
:1034E00018E400237363B9F1000F41D00123009366
:1034F0003DE4059B0E4A1B69074900209847B9F136
:10350000000F7FF432ACA7E500231A4616E400BF93
:10351000ABAAAAAA640C0108980A0108B00C010819
:10352000C40C0108ABAAAA2AF80C0108180D01085E
:103530009C0B0108002201E4013B042B00F23485BE
:1035400001A252F823F000BF193200088F3700089B
:103550005D350008873700085D3500086FF00C0303
:1035600009935CE64FF001137363B9F1000FBDD10D
:1035700000236B800123C5F80A3040E4B94B98ED75
:10358000157A0593D3F84431009306EE903AB5EEE0
:10359000C07AF1EE10FAB8EE668A7FF72BADC8EE6E
:1035A000078AF6EE007A78EEA78A18EE900A07F0FE
:1035B0007BFE51B1059BAC4A1B69AC490020984782
:1035C000039B002B7FF492AB37E598F85A20002A32
:1035D0007FF428AD039B98F85F10002B98F86030BB
:1035E00014BF204600209942049007D9059BA04AA9
:1035F0001B699E4900209847FFF77BBB022B00F018
:10360000B584349B1A71A6F8AC21FFF78ABBDFEDB5
:10361000998ACFE7DFED978ADCE7B6F8AC31B6F8E8
:10362000A421012B00F0CD8007EE902ADFED929AC5
:10363000B8EE67AAB7EE089AF2EE02DA059B9FEDA4
:103640008F0AD3F84431019307EE903AB8EE67FA47
:1036500080EE0F0A06F082FB98F86030022B2FEE06
:1036600000FA00F22181864A98F85E1002EB83008E
:1036700090ED00EAD0ED03FA002900F02681009BCE
:10368000DFED7CEA9FED7FBA9FED7FDADFED7FCA49
:103690009FED7FCADFED7FBADFED7FAADDF81490E2
:1036A00044460025227C052A00F29280022A40F23C
:1036B0009A804FF0300A0827E27B052A00F26984DD
:1036C000DFE802F03E413B034744F0EE4B7A8FEED9
:1036D000276A228998F85E1002FB077702377F007D
:1036E000BFB2A288013514349FED6C7AC6EE076A2A
:1036F00007EE90AAF8EE677A87EEA66A07EE907A50
:10370000F8EE677A87EEA67A07EE902AF8EE677AE7
:10371000EAB267EE277A914277EE867A77EEA97A57
:1037200077EE897A7EEEA7EABCD898ED145A002B82
:1037300040F0CF800093FFF7E1BBF0EE6A7AC6E776
:10374000F0EE6C7AC3E7F0EE4D7AC0E7F0EE4C7A1B
:10375000BDE7F0EE6B7ABAE70A9A002A4FD0182339
:10376000B3FBF2F302FB03F3C3F118039BB215930F
:10377000002B44D10A9A0B92531E9B009BB20D93CF
:1037800001230E9371E56FF00F03099347E56FF086
:103790000603099343E598F85F2098F860309A4251
:1037A0007FF43EAC039B349ADFED328A002B14BFCA
:1037B00023460023049300231371A6F8AC31FFF7CE
:1037C000B0BAF0EE499AF0EE49DAB0EE49AA35E720
:1037D000D9F81030324A2549002098474FF0180A8E
:1037E0000427002368E7012A05D0022AF0D14FF010
:1037F0003C0A0A2760E74FF0480A0C275CE7059B64
:10380000284A1B6919490020984700230122CDE965
:103810000D3215930B9231E5149B002B0E9B08BFC4
:1038200000230E93129B33B1099A199B9B1A0B9A92
:1038300093FBF2F39BB2ABF88C300A9B169AABF871
:103840009220013B0E9AABF888209BB2189A0A93FB
:103850000123ABF88A20ABF890302CE600230D93BF
:103860001A46F3E5780000200C0B0108980A0108BD
:103870004C0B0108000000009A999D41F902154F78
:103880008CCD00080000904300002043000000435E
:103890000000F0430000C04300004043002474498E
:1038A000400C0108500C0108059BBE4A1B69BE492B
:1038B0000020984798F85E30002B00F0EF81DFED94
:1038C000BBFA0023B0EE6FEADAE698ED145ADFEDAA
:1038D000B7EA9FEDB77ADFEDB76A349BCFEE077A90
:1038E000B1EE0C7AC7EEA65A2AEE07AA7FEE8EFA40
:1038F000CAEE257A9FEDB07A77EEAD7AB0EE006A27
:1039000077EEAE7A77EEAF7A27EE877A37EE067AE1
:1039100077EE277A86EEA77AB4EEC57AF1EE10FA42
:1039200083ED007A7FF5EAAA059BA44A1C699E49AB
:10393000FDEEC77A002017EE903AA04700230093CF
:1039400028E402F1180083B20C9303B2139305E547
:1039500009999B4BC943A3FB0131099B6FEA1111E4
:10396000DB1709B21193D6E40C9A954BD043A3FB15
:1039700000306FEA101000B2D217BFE403F1180054
:1039800002B283B2199201E50C98824200F05F8185
:1039900000220A9216921292139A9B1A0B9A93FB88
:1039A000F2F39BB20E930123CDE913330AE599425A
:1039B00000F05A810A9B013B9BB20A9301231693A4
:1039C00012930B46E8E7E37B052B00F21183DFE857
:1039D00003F01A130C032B214FF486731793D6238D
:1039E0000C9340F21D128D2300E5AC231793762330
:1039F0000C93BD225D23F9E48C23179356230C937B
:103A00009D224D23F2E46C23179336230C937D22E1
:103A10003D23EBE44FF4E67317934FF4CB730C9311
:103A200040F2DD12ED23E1E44FF4B67317934FF447
:103A30009B730C9340F27D12BD23D7E4A37A172B1E
:103A400000F2FE80092B00F21B81C3F109039AB238
:103A50001523ABF84630069BABF84820002B00F04E
:103A60005B8203EB42029389ABF84A30237C013B33
:103A7000042B00F29F82DFE803F0BA7603A98400EA
:103A80004FF000094FF400724FF4C063CDE90923F1
:103A90004FF0C00E02204FF0040C08214A464B465E
:103AA000ABF86E000A98ABF856000998ABF870C0F6
:103AB000ABF85800ABF84E10ABF85010ABF852E032
:103AC000ABF854E098F85D10B9F1000F00F00681F2
:103AD000002B00F00381022900F27881394B0B445E
:103AE00093F83839ABF85A30069B002B00F0198157
:103AF0000023ABF85E300123ABF86A30069B00214F
:103B0000D3E932ECD3F8C4900B460EEB1140A0EB96
:103B100009009042614480F22C8201330F2BF4D1D2
:103B2000069AABF86030D2E936E303EB83020EEB82
:103B30001242F92A00F3EC81062003FB00F0052174
:103B400003E0BCF1FA0C40F1D7810A46013189B299
:103B500014290EEB104C1844F3D1059B1A4A1B692B
:103B6000DDE9069637E100214FF40073CDE9091332
:103B70004FF0400E03204FF0020C08219622FA234A
:103B80008EE74FF000094FF4F0504FF47853CDE931
:103B900009034FF4F86E02204FF00B0C08214A463F
:103BA0004B467DE7BC0B0108980A010800000000A5
:103BB00000002043002474490AD7233C940D0108D7
:103BC000ABAAAAAA48C40008680D01084FF0000972
:103BD0004FF4C06C4FF46063CDE909C34FF4E07E4D
:103BE00002204FF0060C08214A464B4658E7069B38
:103BF0009B8C0422082BCBF86E205BD9DDE906965E
:103C0000FFF77CBA0422FFF740BB0D9B0F2B30D986
:103C1000A3F10F020F230D9392B2002316E4B9F122
:103C2000000F2AD1237B002B33D0059BC44A1B698C
:103C3000C449484698470422FFF727BB0A9B2DE456
:103C4000059BC14A1B69DDE90696FFF754BA994204
:103C50007FF49EAE0023CDE91333CDF828E0169310
:103C600012930E93FFF7AEBB0023169312930B46ED
:103C700092E600221346FFF7E9BB0222FFF705BBDD
:103C8000102B94BFC3F11E03C3F117039BB2002294
:103C9000DFE64FF001090422FFF7F7BA98ED145A56
:103CA0000093FFF72BB90098029086460221024646
:103CB000FFF7DDB8ABF84E30ABF8503040230022B0
:103CC000ABF85230ABF854304FF40073ABF85630C9
:103CD000ABF8582098F85D1013469146072975D81F
:103CE0009A48014491F83C19ABF85A100699C1B1B1
:103CF0000021ABF85E10B9F1000F40F08380ABF803
:103D00006A90ABF86090ABF85C90ABF86290ABF85F
:103D10006890ABF864904A460023ABF86620ABF895
:103D20006C302389E27AABF87620012B67D0023B16
:103D30009BB20121ABF87230A37BABF84C3083F01F
:103D40000103ABF87410ABF878300099AB89AAF88E
:103D500000300B44AAF80810AB81A388217C06EE42
:103D6000903A2389012907EE103ABBF86E302AD029
:103D7000022914BFF0EE695AF0EE4A5A01339BB2A1
:103D800007EE903AF8EE677AB1EE006AF8EE666AEE
:103D900067EE867AB8EE477A67EEA67A0198029BBC
:103DA00067EE877A014667EEA57A002808BF1146BC
:103DB00067EE897A0191FCEEE77A17EE902A1344B8
:103DC0000293FFF739B8DFED625AD7E7059B614AE6
:103DD0001B69DDE906965B4900209847039BAA8989
:103DE000DDF804E012FB03F26B8913FA82F39BB255
:103DF000591C002092B289B20090FFF738B8002316
:103E0000194697E70121ABF86A10002B7FF476AED4
:103E1000ABF8603019461A46ABF85C200022ABF8CC
:103E20006220ABF868204BBBABF864301A4602EB5B
:103E30000109069AD2E92FE1CE451DDA0846002293
:103E400002F1010C09921FFA8CF2162A3FF485AE9A
:103E50000EEB104CBCEB090C0844F1D4002B7FF4A2
:103E60005BAF099800FB01F10EEB1143A9EB0303D3
:103E70009C45C8BF02464FE700224DE7069BD3E9A9
:103E8000349C894546DA134662469E4601339BB20E
:103E9000162B3FF462AE09EB1240401A6244F4D490
:103EA0000CFB0EF209EB12428A1A9042D8BF9E46D2
:103EB0000699BBF86020D1F8CC30BBF85C000990C3
:103EC00002FB03F3D1F8C820ABF864E002EB134225
:103ED0000B46D1F8C410521AD3E936303FF53DAE47
:103EE00009990CFB0EFE00FB01F103EB114309EBFA
:103EF0001E401918FA239AE702FB03F30EEB134353
:103F0000C3F1FA039C45D8BF0A46FA210B4683E762
:103F10000522FAE79646CBE7069BABF84A30237CAE
:103F2000013B042B46D801A252F823F0773F00084A
:103F3000673B0008813A0008CD3B0008833B00083E
:103F4000780C0108980A0108300D010848C40008DF
:103F5000CDCC4C3E480D0108349A1371A6F8AC3113
:103F6000B9F1000F7EF401AFFFF776B80123FEF739
:103F7000CCBE9BB2D4E54FF000094FF40073CDE9FD
:103F800009934FF0400E0420CC4602214A464B468E
:103F900086E5D9F810301A4A1A4900209847DFED13
:103FA0001A7A0023FFF793BB059B184A1B69DDE9CA
:103FB000069610E7059B154A1B6912490020DDE9AA
:103FC00006969847AA89039BDDF804E012FB03F2EA
:103FD0006B89562113FA82F301FB076100209BB223
:103FE000C1F86E00591C92B2009089B2FEF73FBF33
:103FF000059B034A1B69034900209847FFF7EEB968
:10400000EC0C0108980A010800000043400C01086C
:1040100070B5FEB04FF4E27204460D460DA80021C3
:1040200003AE07F0E9FA00960DAA05AB0021204681
:10403000FEF70EFE08B97EB070BD94F85B202B46EB
:10404000314605A8FCF718FFF5E700BFF8B59569FC
:104050002B7802EB43030F46B3F8446053690146E3
:104060006888144603EB4000720007F0D7FB6B88AA
:10407000E26D1E4413786E8003B93B791370F8BD6E
:104080002DE9F04F2DED048B038F8DB00546002BED
:1040900000F01581B0F84030428F0469B0F850E06C
:1040A00007925B000293838FC28F34F913300B9217
:1040B000BEF1000F00F003811B010893D0E9122329
:1040C000D718B0F85200B5F84230DFED8A8ADFF831
:1040D00030B20193FE434FF00008F6EE009A0990CB
:1040E000C1460496CDF828E0834B83FB0710F917EF
:1040F000C1EBA00101EB4100A7EBC00000281FFAB3
:1041000089F886B2C0F2EB80002FC0F2F180089BE4
:1041100009B2090481FB0301002906DA4FF6FF7C8E
:1041200010EB0C0C604641F10001079B000C40EACB
:104130000140991934F91110A0EB011007EE900A13
:10414000B8EEE79A29EE289AB0EE490A06F058F838
:10415000B0EE408AB0EE490A05F06CFD019B002BE1
:1041600000F0A2800B9BB5F844A01E4404EB46036C
:104170000020CDE9059703930646009059E095F895
:1041800038C0BCF1000F4BD007EE101A07EE903A82
:10419000F8EEC76AF8EEE77A26EE806A27EE887AAC
:1041A00066EE886A37EE467A67EE807AB5EEC07AB8
:1041B00077EEA67AF1EE10FA4CBF37EE697A37EE59
:1041C000297AF5EEC07AF1EE10FABDEEC77A4CBF4F
:1041D00077EEE97A77EEA97A17EE103AFDEEE77AF4
:1041E0005B4517EE901A47F6FF70B8BF5B468342F7
:1041F000D5F85490A8BF03465945B8BF594699F819
:1042000000E08142A8BF0146BEF1000F04D117EEC5
:10421000100A98425BD0E64689F800E01BB209B26A
:10422000A352009B798053440093019B01369E4228
:1042300038D0009B95F839C008EB5302029B92B22C
:1042400003EB8202A718A35EB7F90210BCF1000FBE
:1042500095D00398B0F800C00CF01F0E0EF1300E90
:1042600003FB0EFE4FEA9C23203BCCF3441C01FBD6
:1042700003F3BEF1000F0CF1300C01FB0CFCB8BFD6
:104280000EF13F0E002BB8BF1F334FEAAE1EBCF13C
:10429000000F0EEB6313B8BF0CF13F0C1BB24CF3D5
:1042A0008F116CE7DDE90597099B049A1F44D31A27
:1042B00004930A9B09F1010999457FF415AF286819
:1042C00043680DB0BDEC048BBDE8F04F184717EE06
:1042D000900AB0EB010E18BF4FF0010E9CE71836A4
:1042E000B6B2049B054AA2FB03016FEA11110EE767
:1042F0000026F6E700008037ABAAAA2AABAAAAAA32
:104300000080FFFFFEE700BFFEE700BFFEE700BF43
:10431000FEE700BFFEE700BF704700BF704700BF69
:10432000704700BF034AD2F884300133C2F88430AA
:10433000704700BF780000200C4B0D49D3F88C204B
:104340004FF480104861D168490503D4012283F8F5
:10435000AD207047D168C9B261F49061D16001208D
:10436000012283F8B00083F8AD2070477800002068
:1043700000040140034B5A69120744BF08225A61E6
:10438000704700BF000401400148FCF79BB900BF23
:10439000C00100200148FCF795B900BF08020020C9
:1043A0000148FCF78FB900BF2C0100200148FCF741
:1043B00089B900BF74010020084810B4D0F8D83182
:1043C000D0F80C4299691A682CB1234600F5EC70BC
:1043D0005DF8044B18475DF8044B704778000020E7
:1043E00070B5AE4CD4F82C52EB692A68A96840F637
:1043F0000F00034240F08780980602D5960600F130
:10440000F380D4F88C02012816D0D80202D54902D4
:1044100000F1F4801E0605D4590602D5530600F1BA
:10442000258170BD1006F7D5D4F89832002BF8D04E
:10443000BDE870409A481847DE06E6D5D006E4D5B8
:1044400010232B62AB68B4F884225B0640F14281F2
:10445000D4F8A03219684B689BB2002B00F096810B
:10446000934280F09381A4F886320B689E0644D470
:1044700055E8003F23F4807345E800324AB1D4F890
:104480002C2252E8003F23F4807342E800310029D7
:10449000F5D1D4F82C2202F1080353E8003F23F0B1
:1044A0000103083242E800310029F2D1D4F82C226D
:1044B00002F1080353E8003F23F04003083242E8CA
:1044C00000310029F2D12023C4F8AC32C4F88C1298
:1044D000D4F82C2252E8003F23F0100342E80031C8
:1044E0000029F5D1D4F8A03293F82520022A00F053
:1044F00054810422DA6383F824100223C4F8903232
:10450000B4F8863270BD11F0010640F09E80654817
:1045100002423FF476AFD8070FD5D10540F1D680DF
:1045200001212962D4F8B01241F00101C4F8B0129F
:1045300099076BD5002E40F08C8058077DD51E075B
:1045400000F1C1801E050AD5500108D54FF4006165
:104550002962D4F8B01241F02001C4F8B012D4F8A6
:10456000B01200293FF45DAF990602D5920600F122
:10457000A080D4F8B022AB6802F0280203F0400318
:10458000134300F000814648FCF762FBAB685B0612
:104590007FF547AF05F1080353E8003F23F04003E0
:1045A00005F1080141E8003262B1D4F82C2202F191
:1045B000080353E8003F23F04003083242E800318B
:1045C0000029F2D1D4F8A00200283FF42AAF90F8D5
:1045D0002530354A8263022B00F0BB800423BDE8FE
:1045E0007040C363FCF7A2BBD4F89432002B3FF4B5
:1045F00018AF04F50B70BDE8704018474FF48013F6
:104600002B6270BDD1058BD4980722D4590714D5DD
:10461000002E94D004212962D4F8B012180741F07A
:104620000201C4F8B0128DD508212962D4F8B01265
:1046300041F00801C4F8B01284E7190782D502F0EE
:10464000200131433FF47EAFEEE7D807DAD4990773
:104650002CD502212962D4F8B0125E0741F0040182
:10466000C4F8B012D6D41907DED46BE755E8003F82
:1046700023F0400345E800324AB1D4F82C2252E836
:10468000003F23F0400342E800310029F5D1202209
:104690000023C4F8A822C4F8983270BD7800002026
:1046A000A4020020200100042D0D00085E07B1D4F3
:1046B000D9E7D4F89432002B3FF45BAF42489847D7
:1046C000D4F82C5255E79006AED43BE798073FF557
:1046D00034AF9BE7B4F88612B4F886329BB289B245
:1046E000002B3FF49EAE91423FF49BAE55E8003F55
:1046F00023F4907345E800324AB1D4F82C2252E8F2
:10470000003F23F4907342E800310029F5D1D4F83A
:104710002C2202F1080353E8003F23F00103083282
:1047200042E800310029F2D12023C4F8AC32C4F8A9
:104730009412C4F88C12D4F82C2252E8003F23F0D3
:10474000100342E800310029F5D10223C4F8903269
:1047500070BD0268436C116821F00E011160116890
:1047600021F0010111600124026C03F01C0304FA22
:1047700003F35360002380F8254080F82430BDE81F
:104780007040FCF7D3BAC4F8B03270BD93427FF4E6
:1047900048AE0B689D06D8D470BD1A681D6C1068B1
:1047A00020F00E001060106820F0010010605A6CBC
:1047B000012002F01C0200FA02F26A6083F8250070
:1047C00083F8241099E600BFA4020020034B5A6925
:1047D000120544BF4FF400625A6170470004014063
:1047E00010B5194C194AD4F88C304FF4802151611E
:1047F0009A68D20402D5DA68D00509D49A6891047F
:1048000002D5DA68920513D4012384F8AD3010BDC7
:10481000DA68D2B262F4C0720121DA6084F8B412AC
:10482000FEF7E4F868B9D4F88C3084F8B402E5E710
:10483000DA68D2B262F42072DA60012384F8AD3013
:1048400010BDFBF7A5FC00BF78000020000401406C
:10485000034AD2F8883043F47003C2F888307047B6
:1048600000ED00E0F0B4C56F202D4CD10C4601B135
:1048700012B90120F0BC7047194600252123C0F869
:104880008450C36783682B4FA0F85020B3F5805F36
:10489000D7F88460A0F8522038D0B0F852200368CE
:1048A00092B2B2B1DA69120604D44A1C1DD1DA6997
:1048B0001206FCD50CB314F8012B1A85B0F852205F
:1048C000013A92B2A0F85220B0F8522092B2002AD7
:1048D000E8D1DA69520604D44C1C1DD1DA695106BC
:1048E000FCD52023C3670020C4E7D7F88420921B9F
:1048F000914219D3C1B11A68D4E735F8022BC2F33B
:1049000008021A85DAE70220F0BC70470369002B21
:10491000C3D125461C46C0E7D7F88420921B91429C
:1049200002D309B11A68D4E72023C367F0BC03207F
:10493000704700BF780000202DE9F041174F1D4659
:104940007B6913B1BDE8F0411847FB684FEA4208A4
:10495000002AF7D08F1EA8F1020406468E460C44AA
:104960003A4632F802CF9CFA9CFCA242A2F800C060
:10497000F7D142467146304698470DB9BDE8F081FF
:1049800037F8023F5BBAA7423B80F7D037F8023FC7
:104990005BBAA7423B80F3D1F0E700BF780000206C
:1049A00000B583B041F4A041012394464FEA124E72
:1049B000ADF80010ADF80230042200236946ADF8CE
:1049C00004E0ADF806C0FFF7B7FF03B05DF804FBE5
:1049D00010B50E4C8C461146228803F1020EB2EB44
:1049E0004E0F06D223690A4A0A49BDE8104000204A
:1049F0001847013B4CF4A04C4B802EF00042A1F82C
:104A000000C0BDE81040002396E700BF78000020FA
:104A1000B40D0108D40D0108F0B583B043F21C02B7
:104A2000009201230E460024032269460746ADF892
:104A30000440FFF781FFBDF8043013F4006517D17F
:104A400041F21B042B46694638460222009446F484
:104A50000066FFF771FF38462B4669460222ADF823
:104A60000040ADF80260FFF767FF012003B0F0BD22
:104A7000044B054A1D69054920463B46A847204688
:104A800003B0F0BD78000020E80D0108180E010801
:104A9000F0B5012983B00546144621D0022909D07A
:104AA0001B4B1C4A1C691C4903460020A0470020E0
:104AB00003B0F0BD43F2460384270026ADF8003072
:104AC0002846012303226946ADF80260ADF8046070
:104AD000FFF732FFBDF8040030B164B90120E7E709
:104AE00043F245038327E8E7094B0C4A1C690A494E
:104AF0002B46A047DBE747F48057334669462846F4
:104B00000222ADF80070ADF80260FFF715FFE5E78F
:104B100078000020300E0108180E01084C0E010824
:104B2000F0B5012985B00646154631D0022924D1B9
:104B300043F2320301240027ADF808300322012399
:104B400002A93046ADF80A70ADF80C70FFF7F4FE1C
:104B5000BDF80C306B8003F00702012A2A8027D0B1
:104B600013F0060018D11649164A0C69164900962A
:104B7000A0470024204605B0F0BD114B134A1C6924
:104B8000114903460020A0474FF440530024D2E7C8
:104B900043F233030C46CEE7023A012AEAD9084A27
:104BA0000096146908490A4A3846A0472F80E0E772
:104BB0000349084A0C69044900963846A047D8E7DB
:104BC00078000020800E0108180E0108300E010840
:104BD000E40E0108B00E010810B582B001AA01214F
:104BE0000446FFF79DFF002201212046FFF750FFFA
:104BF000BDF80430022B08D00549064A0C69064965
:104C00000020A047002002B010BD012002B010BD5E
:104C100078000020180F0108600F01082DE9F0430B
:104C200083B01D4643F440534FF00008BDF82840C0
:104C3000ADF800308946164669460123032245F443
:104C400080550746ADF80280ADF80480FFF774FE8A
:104C5000ADF80050BDF9045004FA09F46C4004EAC0
:104C6000060255404346694638460222ADF80250D6
:104C7000FFF762FE03B0BDE8F08300BF30B583B03C
:104C80000025294600957B23FF220446FFF7C6FF37
:104C90000121009120468B230222FFF7BFFF8B23C7
:104CA0008022009507212046FFF7B8FF03B030BDF2
:104CB00070B582B043F2370200230092ADF80430A1
:104CC0000322012369460546FFF736FEBDF804308E
:104CD00013F0C00F19D143F21C02012300920024EB
:104CE000694603222846ADF80440FFF725FEBDF8CB
:104CF00004301B0515D50E4B0E4A1E690E49204681
:104D00002B46B047204602B070BD094B93F888206F
:104D1000002AE0D01C69094A07492B460120A04718
:104D2000D9E72846FFF7AAFF012002B070BD00BFF7
:104D300078000020AC0F0108180E0108800F010850
:104D40002DE9F04F264C87B00026CDE90466B4F873
:104D500000808946002B3DD04FEA5808CDE901027A
:104D6000A8F104080D461F464FF4004BB2460393CA
:104D700025E0029BA5F800B033446B80631EAB8036
:104D8000A5F806A06200002105F1080006F034FC39
:104D9000294601980123221DFFF7CEFD04AA1346E0
:104DA00003CA26446960286009EB460559F81600D5
:104DB000696803C3039B9E42A7EB04070AD2B84568
:104DC000444628BF3C46B845D3D200E0013CE30747
:104DD000FCD4CEE709F1080007B0BDE8F08F00BFB2
:104DE000780000202DE9F04F9846174BDFF85CB0B3
:104DF0001F8883B0043A043F52087F0897420C9EF4
:104E00000190894628BF174601F1040A0025741B4A
:104E1000BC4228BF3C4645EA0B02631E08EB450135
:104E2000A9F80020A9F802306200504606F010FDF3
:104E3000254401980023A21C4946FFF77DFDAE42A0
:104E4000E5D803B0BDE8F08F7800002000C0FFFF78
:104E50002DE9F04F02EBC30787B07B88DDF8409067
:104E6000EBB18246884600264D467B6853F82640C3
:104E7000C4F30170012815D002282ED020BBC4F342
:104E80004459012303FA09F39D422FD32E4A2F4997
:104E900016692F4A013BCDE90053A3B2B04707B0D2
:104EA000BDE8F08FA3B2194658F8232022F00F0274
:104EB00015B1C4F3034422435046FFF771FD7B88CC
:104EC00001369E42D1D3EAE71F4B224A1B691F4994
:104ED000002007B0BDE8F04F1847A3B2194658F8B4
:104EE000232022F00F02002DE6D1E2E71FFA84FB17
:104EF0004FF00103ADF80E304BF42043ADF8100035
:104F0000CDF81200ADF80C3003A95046012305225C
:104F1000FFF712FDC9F12009BDF81220BDF81430C9
:104F20004FF0FF30C4F3044420FA09F0A04043EAF4
:104F3000024323EA000305FA04F4594643EA040253
:104F40005046FFF72DFDBAE77800002064090108FC
:104F5000DC0F0108141001082DE9F04FADF61C0D0F
:104F60008B4604904FF0020AB94B4FF480541D4613
:104F70009C62FDF7ADF9AC61FDF7AAF9DDF8109080
:104F8000D9F80040D9E90C751CB12368B14A9342A5
:104F90000CD0B14DB14A2B69B14900209847BAF104
:104FA000010F00F0F6804FF0010ADDE7002FF6D088
:104FB000637BA26803920A2B01F21483DFE813F0EB
:104FC000EF00DB044C04C4034D039E02DE018A01A2
:104FD00080016E01EF0039464FF49C630022039874
:104FE000FFF7AEFE12AB00931AAB039332AB002572
:104FF000994686AB1A469846019510AB9021064615
:10500000109512951A953295FCF718FE002800F0BD
:105010002083039B0195CDF800904246F02106F5D0
:105020009070FCF70BFE002800F0138310AB009388
:1050300001951299D9F800208A4B8B4C521A02FB29
:1050400003F304FB01F11B0CC3EB5133109904FB78
:1050500001F104FB02F2490B4AA8CDE9793205902F
:105060007B910FAB424640F21F1106F20230FCF773
:10507000E5FD002800F0ED82039B019312AB009345
:1050800042460EAB4FF4907106F5A860FCF7D6FDD2
:10509000002800F0DE82CDE900592B4606F5F060CD
:1050A00042464FF490714546FCF7C8FD002800F0D9
:1050B000D082039A0E9B11680F9ADFF8DCC1DDF8ED
:1050C0001480109F1298D21A0CFB02FC04FB02F20F
:1050D000C8F8CC20654AC01B00FB02F204FB07F7AE
:1050E000120C04FB03F6C2EB5732D9F80030C8F8B3
:1050F000D0205F4A5B1A04FB00F004FB01F103FBC4
:1051000004F402FB03F34FEA1C4C1B0CC3EB5133BA
:10511000CCEB5636C8F8D4005648C8F8DC40C8F87E
:10512000D830C8F8C8600DF227140DF213274FF0DD
:10513000FF3314F8012F0821534043F300020240CB
:10514000013982EA5303F8D1A742F2D1029A404CC6
:10515000DB43C8F8EC304FF480560A235373A66241
:10516000FDF7B6F8A661FDF7B3F8049BDBF820A0C5
:105170001E681A6B5B6B0492069326B1354B32683E
:105180009A4200F0A387344B344A1B69344900200B
:105190009847002738460DF61C0DBDE8F08F4AAB46
:1051A0001846EC220021029306F026FA2A4B0593BA
:1051B000D3F84431DFED305ADFED306A069307EE65
:1051C000903AF8EE677AB6EE006A85EEA77AF4EECA
:1051D000E67A37EE067AF1EE10FABCEEC77A17EEF1
:1051E000103A1FFA83F800F345849FED257AF4EE18
:1051F000C77AF1EE10FA00F13D84A8F110039BB2DA
:10520000EF2B40F26B849FED1F7ADFED1F6A029453
:1052100077EE877A059D37EE877ABCEEC77AB8EECF
:10522000477A37EEC77AFCEEE77A27EE267A17EE52
:10523000904AFCEEC77A17EE907ACDE90047134BFF
:105240002C69134A13490020A047029B5B7B2EE088
:10525000000400480EB037137800002060070108F2
:1052600078070108A82A0400AA0A0100A64A070034
:105270004E750B002083B8EDF902154F8096984CBF
:105280008096984BBD370635002474492C0E0108D2
:105290003C1001086810010854150200039802949C
:1052A000FFF79AFC00287FF496AE637B8B4D8C4A07
:1052B0002C698C490020A047029A002353736EE6A4
:1052C0000398FFF789FC002840F01C85637B834D21
:1052D0000294ECE70398FFF77FFC0028F6D03946EC
:1052E000102300220398FFF72BFD4AAB0293BDF871
:1052F000B231064603F01F0CC3F344129B0A00258B
:10530000A3F12008B31C07950CF1300C02F1300E0C
:1053100006952F46284605930CE0069B9A42384690
:1053200040F2ED841F46ABB2069207930135082D7B
:1053300000F0BB84059A36F9253032F925200CFBA4
:1053400003F308FB02F1002BB8BF3F3300290EFB2B
:1053500002F2B8BF1F319B11002A03EB6113B8BFE3
:105360003F321BB242F38F1203FB03F302FB023204
:105370008242DBD9BA42D0D81046D7E70398FFF76C
:105380002BFC0C900028A1D0544B574A0593D3F81E
:105390004431A2FB03239A094AAB18463946B0F8B8
:1053A000E000029300FB02F24FF44073079203986F
:1053B0000022FFF7C5FC86AB0A90069385AF861CDA
:1053C0000DF61405B6F9001036F9020CFBF754FF80
:1053D00047F8040FBD4206F10406F3D10DF1C808E9
:1053E00040462022002106F007F9404B0893079B16
:1053F0000B9403EB4303DB000993069BCDF8348049
:105400004FF0000C31AF03F15C054FF6FF7EB8465C
:1054100066462F4664467546A7F15C00FCF750FBD4
:105420004FF0000CA7F1600050F8043F026E874275
:10543000A3EB02039C44F7D1BCF1000FC0F21E8421
:1054400040F694534FEA9C1003FB00F0079B400D7D
:1054500003FB00F0099B03EB1020C8F8040026B101
:10546000D8F80030834240F25C8758F8043F089A2D
:10547000A3F16673A3F54A33203B002BB8BF5B4210
:10548000934202D20C9C08933546721C96B2082EA9
:1054900007F1C007C0D1A446DDF834800B9CBCF1F5
:1054A000000F00F03487029B11495D840095114B79
:1054B000039D372283F8242028460F4A0C23FFF748
:1054C000C7FC284640F21741FFF7A6FA002840F033
:1054D000AD84059D637B0294E9E600BF780000205F
:1054E0007C100108A0100108D34D621040420F004B
:1054F0009CEB000800000020A4CD00080398FFF7F3
:105500006BFB00283FF4E2AE39464FF440730022B3
:105510000398894D894EFFF713FC00F5C06211AB6B
:10552000079200220292CDE9094A86AACDE90B39F9
:1055300006921AAACDF834B005930DF1C808089266
:1055400049AF8346089CDA46BAF902103AF9040BCF
:10555000FBF792FE44F8040B4445F5D10DF1C40964
:105560004C46DA46BAF96210BAF96000FBF784FEDD
:1055700044F8040FBC420AF1040AF3D1069B029AD4
:105580000DF1640E9818002159F8043F5EF8042FBD
:105590009B1AAB4240F39F82A3F5C9237E3BAB42EB
:1055A000FADC002BB8BF5B429942B8BF1946B94537
:1055B00040F8043BE8D1059B491043F8041F0593CC
:1055C000029B60330293079B0BF1C00B9B45B9D143
:1055D000DDE9094ADDE90B390021DDF834B0084680
:1055E0000A4653F8045F8542C8BF114602F1010222
:1055F000C8BF2846082AF4D112AB0DF1C70253F8F0
:105600002100069B01EB410103EB41110DF1DF0588
:1056100051F8043B8342ACBF0023012302F8013F51
:1056200095421376F4D100200123024618F8011F99
:10563000002A40F0A182002900F0A18218F8011C84
:10564000002940F09C821A4601200133302BEDD115
:105650000294029B3A4D5B7B29E60398FFF7BCFA64
:1056600000283FF433AE0022394603985023FFF759
:1056700067FBCDE90975CDE905A90DF599723021D2
:10568000A0F1020E02948C4610462E49002447F6E3
:10569000FF76CDE907C075464FF6E473A046A246F3
:1056A0000F46B14609E0964204F10104C4BFE0464A
:1056B00016460833082C9BB21AD035F9022F0FFA80
:1056C00083FC4CB135F8020C101A00B28145A8BF1A
:1056D00081468742B8BF0746002AE4DA914204F1C6
:1056E0000104BCBFE24611460833082C9BB2E4D14A
:1056F000A7F51C57103FBFB244F620639F42DDE977
:1057000007C011D8B9F1000F0ED111F5004F47F6BF
:10571000FF7300F01C839E4200F0E785A8EB0A08A7
:10572000B8F1080F00F00586DDE905A2029B044DE3
:105730005B7B0492BBE500BF3F240300C1DBFCFFA1
:10574000780000200080FFFF0398FFF745FA00284B
:105750003FF4BCAD3946002203982023FFF7F0FA4E
:10576000B0F9002006460746012115460020944660
:1057700037F9022F02F54873A3EB0C039BB2B3F584
:10578000C86F3FF6A3AD9542D8BF084601F10101AD
:10579000D8BF15462029EAD1072840F236841728B9
:1057A000A0F1070340F2C185D3F1200240F030841C
:1057B00086AB06930DF1C80806984146FBF7EEFD4F
:1057C00000283FF483AD98ED006AB5EE406AF1EE33
:1057D00010FA3FF47BAD98ED017AB5EE407AF1EE28
:1057E00010FA3FF473ADD8ED026AF1EE666AC6EEC8
:1057F000877AF5EEC07AF1EE10FAFFF667ADB1EEFA
:10580000477AC7EE066AF5EEC06AF1EE10FA7FF548
:105810005DADB7EE007A77EE877AFCEEE77A17EEA9
:10582000903A9AB23F2AC3F34E033FF64FAD83F04E
:1058300010030398ADF82E3140F21531FFF7ECF864
:1058400000283FF443AD04256573FCF71BFD0028D9
:105850007FF496ABFFF7A3BB0398FFF7BDF9079062
:1058600000283FF433AD4123002203983946FFF767
:1058700067FA0023028C06928446A0F1020E02937E
:1058800005934FF6FF78204608955A1E02FB02F258
:10589000C2EBC20254003EF9021FC83A04F5167466
:1058A000002B00F0E1813EF9026C8E1B964201F55F
:1058B0007A75C0F22785A64200F32485002D2A467A
:1058C000B8BF6A4292B2424505D2990089B2904669
:1058D000079A029105920133102BD6D1059A089DA3
:1058E0000446002A3FF4F2AC029A82F03001BCF880
:1058F000222007921046BCF880200991121AB2F5B6
:10590000FA6F4AA80290ADF82C11FFF6DFAC90496F
:105910000A951204A1FB02214A0900210CF120087A
:1059200008920E464FF6FF70A64638F8022F069DE5
:10593000079CA2EB050CBCF1000FB8BFCCF1000C2A
:105940001FFA8CFC844504EB114438BF604604F513
:10595000487C38BF1E46944503F1010502F54872A4
:1059600080F07B83089AABB2402B114400F0D585C0
:1059700000220592D9E70398FFF72EF900283FF49B
:10598000A5ACDDF80C8086AA164643F2320300254A
:1059900031468693032201234046ADF81C52FEF7A0
:1059A000CBFF394612232A464046B688FFF7C8F98E
:1059B0000146B0F800C047882B46284604314FF610
:1059C000FF7546FA03F2D2070AD531F81320D21B2D
:1059D000002AB8BF524292B2AA423CBF98B21546C2
:1059E0000133102BEDD1431E0D2B3FF66FAC00F1B0
:1059F0000043013B01EB430531F813206B88AD8870
:105A0000D21A41F287318A427FF760AC4FF6FF72BB
:105A100096423FF45BAC5B1B8B427FF757AC40F286
:105A2000E51303FB0CF31B0CA3F5897313F1140F9F
:105A30001AB2C0F29B852C2A40F395854F2ACCBF21
:105A400004230323039D43490090ADF82A01ADF8D8
:105A50004C312846404AADF828C12523FFF7F8F914
:105A6000284640F23321FEF7D7FF00283FF42EAC42
:105A70000225E9E69FED397ADFED396A029477EE87
:105A8000877AA14637EE877A059D364B364A3749E5
:105A9000BCEEC77A0020B8EE477A37EEC77AFCEE44
:105AA000E77A27EE267ACDED007A17EE904AFCEEE3
:105AB000C77ACDED017A2E6917EE907AB047A8F13A
:105AC0001003EF2B3FF6B9AB99F80D30FFF7EFBBA2
:105AD00003F5C9237E33B342FADB62E577EEC77A7A
