:020000040800F2
:100000000000012021FC00089D230008A123000816
:10001000A5230008A9230008AD2300080000000064
:10002000000000000000000000000000B1230008F4
:10003000B523000800000000B9230008BD23000814
:1000400071FC000871FC000871FC0008CD23000859
:1000500071FC000871FC000871FC000871FC0008CC
:1000600071FC00080924000871FC000871FC0008FC
:100070001D2400082924000871FC000871FC0008F8
:10008000352400084124000871FC000871FC0008B8
:1000900071FC000871FC000871FC000871FC00088C
:1000A00071FC000871FC000871FC000871FC00087C
:1000B00071FC0008000000000000000071FC000856
:1000C00071FC00084D24000871FC000871FC000858
:1000D00071FC000871FC0008D52C000871FC0008B8
:1000E00075240008892400080000000000000000BA
:1000F0000000000000000000000000000000000000
:100100000000000071FC00080000000071FC000805
:10011000000000000000000071FC000871FC0008F5
:1001200071FC000871FC000871FC000871FC0008FB
:1001300071FC00080000000000000000000000004A
:1001400071FC000871FC000871FC00080000000050
:1001500071FC000871FC000871FC000871FC0008CB
:1001600071FC000871FC000871FC00080000000030
:1001700071FC000871FC0008000000000000000095
:1001800071FC000871FC000871FC00080000000010
:10019000836A0022A3F85A20A3F85220704700BFB8
:1001A00090F824C0BCF1010F3CD070B590F825C088
:1001B0000124A44580F824405FFA8CFE04D000237B
:1001C00080F82430022070BD022580F82550046894
:1001D0000025C5632668456C26F00106266005F0FB
:1001E0001C05066C0EFA05F5756063608368102BBC
:1001F000036B0BBFA260A160E160E2604BB12368BA
:1002000043F00E032360236843F0010300202360C2
:1002100070BD236823F004032360236843F00A03BE
:100220002360F0E7022070472DE9F041764C00236F
:10023000237094F86530012B0D46E16808D0B1F5C4
:10024000827F60D1D8B22369002B5CD104285AD1B7
:10025000002D58D092B2002A55D094F86430012B6A
:1002600051D094F86530A6682564042B1CBF052383
:1002700084F8653001210023A36684F86410A4F893
:100280004620A4F84E20C4E915337368A4F844202E
:1002900023F4C043A564A4F84C2073606369206E06
:1002A000B3F5E06F31D8E36D99697368B1F5806F8C
:1002B00043F4805373607DD08369B3F5806F65D05C
:1002C00094F86530514A042B514B18BF1346514ADC
:1002D0000363514B4363514B18BF1346C362B4F8D9
:1002E0004E304FF00008C0F838809BB206F10C0188
:1002F0002A46FFF755FF074660B1A36E84F8648075
:1003000043F01003A366BDE8F081736823F48053C3
:100310007360D5E77368E06D43F001037360B4F870
:1003200046300A46C0E90B77C0E90D7729469BB2F3
:10033000FFF736FF00284AD133685B0621D500233A
:1003400084F86430736843F020037360736843F08B
:1003500002037360E26E2378002BD4D141F287311F
:1003600009E072B6237803B930BF62B6BFF36F8F6E
:100370002378002BC7D1E36E9B1A8B42F1D9BDE8DD
:10038000F081336843F040033360D8E7736823F4A7
:1003900080537360B4F84E3013F0010F73681DD1B1
:1003A00023F400537360B4F84E30C3F34E03A4F843
:1003B0004E3085E7D20773681BD423F48043736003
:1003C000B4F84630C3F34E03A4F8463074E7A36E86
:1003D00084F8647043F01003A36694E743F4005379
:1003E0007360B4F84E30C3F34E030133A4F84E30BB
:1003F00066E743F480437360B4F84630C3F34E03BA
:100400000133A4F8463057E778000020D1050008F2
:10041000CD05000811210008D50500086520000859
:1004200070B4436C066C056831682C6803F01C03DB
:1004300004229A400A420ED014F0040F0BD02B680D
:100440009B0603D42B6823F004032B60036B7260BC
:10045000CBB170BC184702229A400A4215D014F062
:10046000020F12D02B68990606D42B6823F00A03DA
:100470002B60012380F82530C36A7260002180F868
:100480002410002BE5D170BC704708229A400A4224
:10049000F9D02207F7D52A68416B22F00E022A60B4
:1004A000012202FA03F300247360C26380F824403F
:1004B00080F825200029E6D070BC0847414A03682F
:1004C00030B4D468A40707D0D46804F003049C4275
:1004D00046D0012030BC7047022B52D0032B49D0AC
:1004E000012BF6D112689207F3D5364CE26822F060
:1004F000730213434268013A43EA0213E360314C4A
:10050000314A236823F080632360D56E03E0D36E05
:100510005B1B022B39D823681B01F8D483681B02AC
:10052000002934D12169C56821F0784121F4FE41C8
:1005300043EAC5630B43236122490B6843F08063A0
:100540000B60D46E03E0D36E1B1B022B1DD80B680F
:100550001B01F8D582690B69134300200B61B9E7D1
:10056000002CB6D0D3684268C3F302130133934220
:10057000AFD1C4E71468A403B7D412685203A8D556
:10058000B3E712685505A4D5AFE70320A2E7012918
:1005900021690BD021F0C06121F4FE411943436968
:1005A0005B08013B41EA43612161C5E721F4C001D9
:1005B00021F4FE410B4301694908013943EA4153E3
:1005C0002361B9E70010024078000020704700BFA7
:1005D000704700BF836A19684A6822F003024A60C4
:1005E0001A6E4FF0010C42F010021A6683F85DC0DB
:1005F000704700BF08B518B10D4B02689A4208D089
:100600000C4B0D4AD3F880300C490020984700204D
:1006100008BD032907D9074B094AD3F88030074999
:1006200000209847F3E7142303FB0101488908BD24
:100630000FB0371378000020DC710108F471010855
:10064000FC71010810B418B10C4B04689C4208D02E
:100650000B4B0C4AD3F880300B495DF8044B00205B
:100660001847032A02D9064B084AF3E702EB820235
:1006700000EB820081735DF8044B70470FB03713B5
:1006800078000020DC710108F4710108FC71010898
:1006900010B418B10C4B04689C4208D00B4B0C4AA8
:1006A000D3F880300B495DF8044B00201847032A2B
:1006B00002D9064B084AF3E702EB820200EB820004
:1006C0005DF8044B017470470FB0371378000020B9
:1006D000DC710108F4710108FC71010810B418B153
:1006E0000C4B04689C4208D00B4B0C4AD3F880306A
:1006F0000B495DF8044B00201847032A02D9064B2A
:10070000084AF3E702EB820200EB82005DF8044B3B
:10071000417470470FB0371378000020DC71010876
:10072000F4710108FC710108B1F804C093680A89EA
:100730009A80BCF1000C18BF4FF0010CCA7983F805
:1007400000C091F806C083F801C09A7098607047A5
:1007500003460068D3F8E8104268C3F8F010104769
:1007600008B518B1074B02689A4208D0064B074AF1
:10077000D3F88030064900209847002008BD0120AA
:1007800008BD00BF0EB037137800002014720108B6
:100790002C7201082DE9F047D0F800800546B8F129
:1007A000000F1ED0D8F898700FB3124E07F148040E
:1007B0004FF00009583754F8040F18B1B36F984739
:1007C000C4F80090A742F6D1D8F89800B36F00B1F2
:1007D0009847B36F40469847B36F2846BDE8F04747
:1007E0001847044E2846B36FBDE8F0471847014E3E
:1007F000EFE700BF78000020F8B505460088002A22
:100800001C460CBF4FF400534FF48053B0F59C6F5F
:100810000E460FD300F151077F008342BFB236D29C
:100820001C4B1D4AD3F880301C49002098474FF0DC
:10083000000C03E040F662274FF0010C1849194AFA
:10084000C4E9011202F11912E26002F119122261E7
:100850002346002262805122A28223F8167B296857
:100860006A68A868EF68C4F816105A609860DF607C
:100870002969A8696A699861196196E803005A6153
:10088000AA8B9A83343484E803006046F8BD4FF0A5
:10089000010CD3E77800002034720108547201087B
:1008A0000100020003001B0010B50C4C94F88810E6
:1008B000012982B010D90A49D4F8804012F4006F9F
:1008C0000346084818BF0846C2F30A01CDE90001F3
:1008D000054A06490220A04702B010BD780000205A
:1008E0006872010870720108787201088C72010840
:1008F00010B50A4C94F888C0BCF1010F82B00BD936
:100900002C3989B203461046D4F88040044ACDE918
:10091000001004490220A04702B010BD780000205A
:10092000A07201088C72010830B5094991F888401D
:10093000012C83B009D902F00F04D1F88050054A88
:100940000549009403460220A84703B030BD00BF0C
:1009500078000020C87201088C72010810B50A4C9A
:1009600094F888C0BCF1010F82B00BD97D3989B2EF
:1009700003461046D4F88040044ACDE900100449EB
:100980000220A04702B010BD78000020E8720108E4
:100990008C72010810B5A1F1620C144C1CF0010F0F
:1009A000034694F888E084B01FFA8CF00ED1BEF1B3
:1009B000010F09D94008D4F880400292CDE9000126
:1009C0000B4A0C490220A04704B010BDBEF1010F34
:1009D000FAD94008D4F880400292CDE90001064AD5
:1009E00004490220A04704B010BD00BF78000020D9
:1009F000187301088C7201085073010810B50B4C74
:100A000094F888C0BCF1010F84B00CD90346A1F55D
:100A10008C7080B2D4F880400090CDE901120220A1
:100A2000034A0449A04704B010BD00BF780000206D
:100A3000887301088C7201082DE9F04F1F4EDFF812
:100A400088B0804615460FCE91B002AC0FC40FCED1
:100A50000FC40FCE0FC49BF888C096E80300BCF10A
:100A6000010F84E8030007D9DBF88040144A1549D8
:100A7000009543460220A047DFF850A0DFF84490DD
:100A800002AC10AE02E00834B44213D0A3881D4279
:100A9000F9D09BF88820012A4346524649464FF038
:100AA0000200F0D927680097DBF880700834B84757
:100AB000B442EBD111B0BDE8F08F00BFD0310108D6
:100AC000B07301088C72010878000020CC73010813
:100AD00070B5114E114A3368A2FB03239B09013BF9
:100AE000B3F1807F01D3012070BD4FF0E0220C49AB
:100AF0005361F02381F82330002507230F289561E7
:100B000004461361EFD801464FF0FF300BF0ACFA0A
:100B10007460284670BD00BF00000020D34D6210F5
:100B200000ED00E00CB4F0B5ADB032AB06AE53F85A
:100B3000042B059304460D463046962111F0F0FA39
:100B40009528C4BF1B4BCDF8AA301B4B1B49DF6E49
:100B5000A1FB07311A4BA3FB0723980B194BA3FBEF
:100B600007234FEA931C184B4FF47A7202FB1C7751
:100B7000A3FB00E25209042CC2EB0212A0EB82029A
:100B8000A3FB0CE398BF114800974FEA531394BF9F
:100B9000005D3F20C3EB03130190CDE90256490DE0
:100BA000ACEB83030A4811F095FA2DB0BDE8F04094
:100BB00002B070472E2E2E0078000020B17C2195C7
:100BC00073B2E745D34D62108988888804740108A0
:100BD000E07301082DE9F04F2DED108B9BB090F8DC
:100BE0005E401D4690F85C300893042CB0F85830F5
:100BF00003938046894616461AD8D0ED147AF5EE4E
:100C0000C07AF1EE10FA00F1F88190F86630002B0E
:100C100000F0978290F85B30002B00F09282024C3B
:100C2000024A059407E000BF7800002050740108D4
:100C3000C74CC84A0594D4F88030C749002098476B
:100C4000D8ED157AD4F88C30009307EE103AF5EE13
:100C5000C07AF1EE10FAB8EE478A40F3D281C8EEBE
:100C6000278AF6EE007A78EEA78A039B002B00F025
:100C7000A88198F85E30049398F85A30002B40F021
:100C8000A78198F86020022A41F03E8198F85E40E2
:100C9000012C00F0ED830024224634990C71A6F853
:100CA000AC21002B00F0998198F85F30012B00F007
:100CB0001184022B00F0F883002B40F0E98301231C
:100CC0001A46F384328598F86030012B00F0D983FE
:100CD000022B00F0D583002B00F01484059B9F4A63
:100CE000D3F880309C4900209847B9F1000F00F0FC
:100CF000788100230093B9F8E410B9F808307180C6
:100D0000B9F8E610B180B9F8E2103180B9F8E8100E
:100D1000F180B9F8021031819B00B9F8041071819B
:100D20009BB2B9F80610B18103F13002B9F80A108C
:100D3000F18192B2B9F8201031825F2AB9F82210FD
:100D4000718240F2F2818649A1FB0201890901EB1F
:100D50004101A2EB411189B200201A4604460B461C
:100D60000121F2820322B38272830023009A7384EA
:100D7000B483F083318331846B800123C5F80A305A
:100D8000002A00F066870027CDE9017706F13E03CF
:100D90009FED749A9FED74AADFED779ACDE90696E0
:100DA000B34605F10E0A44461E46049AFBB29A4227
:100DB00000F22A810023AAF80030AAF80830338014
:100DC0000137042F0AF1020A06F102060BF1560B55
:100DD00004F11404E9D1039BAA89DDF804E012FBB5
:100DE00003F26B8992B213449BB2DDE90696591C5B
:100DF000012089B20090B6F8AC01012804D1DDE9E8
:100E0000020404FB00F00290029FB8F8640098F816
:100E100063C098F862B04FF6FF74A74228BF274618
:100E20004408A4F1030A98F86640A6F89EB18CF035
:100E3000010C0338A6F8A6C1A6F8A471A6F8A0E193
:100E4000A6F8A801A6F8AAA1AA81AB80E980002C87
:100E500000F02B81413399B24024012329802C8159
:100E6000A6F8C031B9F1000F03D0B9F80C30A6F8DC
:100E7000C231009B002B40F04281349A98ED145A05
:100E800000231360089BA6F8B231039B012B40F2AC
:100E90003381B8F85830023B01229BB29FED336A90
:100EA000DFED335A98F85A10F1EE007AC8EE066A70
:100EB00068EE277A68EE255A87EE867AC5EE867A3E
:100EC000B6EE006A76EE866A37EE067AFCEEE66AE1
:100ED000B5EE405AD8ED155AA6F8AE31F1EE10FA3B
:100EE00016EE903A77EE867ABCEEC77AA6F8B02175
:100EF00014BF01220022FCEEE77A328798F85B20CB
:100F0000A6F8B43117EE103AA6F8B63117EE903ABB
:100F1000F5EE405AA6F8B831009BF1EE10FA14BF76
:100F200001200020002B40F0C2803186728670853F
:100F300098F861300F4A0098C6F8BA210121B184AF
:100F4000A6F8BE311BB0BDEC108BBDE8F08F00BF22
:100F5000780000200C740108287401084C75010801
:100F6000ABAAAAAA2549123E8FC2753D0024744936
:100F700000009643FF07010800000000B5EEC07AAC
:100F8000F1EE10FA00F1158398F85A20002A00F0CB
:100F90001383B5EE407AF1EE10FA05D1F5EE407A02
:100FA000F1EE10FA40F0C8835FED0D8A059B754A9B
:100FB000D3F88030744900209847039B002B7FF4BE
:100FC00058AE039B049398F85A30002B3FF459AE67
:100FD000349A00231371A6F8AC31B9F1000F7FF4F5
:100FE00088AE0123A5F802906B81CE4602214A46C5
:100FF000CDF80890CDF80090FDE6644C644A059465
:1010000019E6DFED648A30E60123338098F85C90BE
:10101000228940F2FF3340F2FF11B9F1000F18BFEF
:101020000B4652B39A4228D8A27B237C42B1022BB2
:1010300006D1059B584AD3F88030DDE9069622E0B8
:10104000E07B002840F04982012B00F0AF80059B37
:10105000524AD3F880304C490090DDE90696984713
:10106000DDF804E0039BAA8912FB03F26B8992B2BC
:1010700013449BB2591C89B2BDE6059B484AD3F87C
:101080008030DDE90696404900209847039BAA89F5
:10109000DDF804E012FB03F26B8992B213449BB2B9
:1010A000591C002089B20090A5E62346D6E6B5EE8D
:1010B000405AF1EE10FA0AD0C8EE057A77EE867A39
:1010C000FCEEE77A17EE903AB3871B0C7387002388
:1010D00061F30F03F5EE405A62F31F43F1EE10FA8D
:1010E000708533633FF424AFFCEEE87A17EE903A54
:1010F0001A0CB285F3851BE700221346CEE698F85A
:101100005D30072B15D8274C9FED229A234493F886
:101110003C30A6F8A231349B83ED009A049B002B4F
:1011200040F04D8298ED145AACE6032001240021D2
:1011300017E6349A98ED145A0023136000230093A5
:10114000A0E6012C40F2EA8198F80F1042460123F4
:1011500003E00133A34200F0E181084692F8231036
:10116000814202F11402F4D2084F0F4AD7F88040AE
:10117000054905970020A047D8ED157AD7F88C309F
:1011800062E500BFB07401082874010878000020EF
:101190003C740108000000007C750108A875010876
:1011A0006C750108D03101087C7401086FF00B03E5
:1011B0000993E288A3880A92182A009340F29D823C
:1011C00002EB820303EB031303EB032302EB430362
:1011D000C3F3CC0242EA43339BB240F6AA229342C5
:1011E00000F2DE82B24B0A9AA3FB02231B090E9384
:1011F000013B9BB215935C230D9318230B9300982E
:10120000002840F0E084059BAA4AD3F88030AA4920
:101210009847B9F1000F00F0C9844FF0000902228D
:10122000009B099913FB02F292B2009222681144CA
:101230000A460C910A99013B01FB0323099302F52D
:10124000C34328334CF25032934208D9059B9B4A42
:10125000D3F880309849002098474FF00009099B47
:1012600003F5C34328334CF25032934208D9059B0F
:10127000934AD3F880309049002098474FF00009F6
:101280000C9A002AC0F242838E4880FB0230D217AB
:10129000C2EBA00000B2099B002BC0F22B8389494E
:1012A00081FB0331099BDB17C3EBA101119309B249
:1012B00080B2091A0C9B0F90824880FB03C0C2EBDE
:1012C000A00288B209B20E9B1091B0FBF3F0411C52
:1012D0000A901FFA81FE0B981821B1FBF0F30E93D0
:1012E0000C9B02EB4202B3EBC20200F1FC8213B290
:1012F000139393B20C93099A7248119B0B9980FB3C
:10130000020CC3EBAC0303EB430C0C9BB3FBF1F0FF
:1013100001FB103081B2B2EBCC03099100F10083E4
:101320001AB219929BB20E9A0B98511E099A89B261
:101330001891BEF1010F11FB002189B200F0F68275
:10134000099A0C98824240F00483994200F0588434
:101350000023012213931692149312920E930C9B66
:101360009A00099BABF882209B00ABF88430B9F15E
:10137000000F40F0FA826C23179336230C937D22E2
:101380003D234FF00009ABF87C300F9BABF87A207F
:101390000C9A1099C3F1290313441AB21192521AEC
:1013A0009BB2292A0F9308DC059B474AD3F880306B
:1013B0004149002098474FF00009119B179A93422A
:1013C00008DB059B414AD3F880303B490020984711
:1013D0004FF000090D9B2C2B00F212821E2B40F2C5
:1013E000E8831E3B0F229BB20D92ABF89A30159BFF
:1013F0000C99ABF89430139BABF87E10ABF88E30A1
:101400000F990A9BABF880100D99ABF89610ABF8CA
:101410009820002B40F0D281149B002B0E9B08BF1C
:1014200000230E93129B002B00F0DD83099A199B79
:101430009B1A0B9A93FBF2F39BB2169AABF892208D
:10144000ABF88C300E9AABF888200023ABF89030C4
:10145000ABF88A300A9BABF88630B9F1000F40F048
:10146000BF82CDF80090DDF804E0DDE90696F9E5ED
:1014700098F81020013A012A7FF60DAC22460CE4C0
:1014800000237363B9F1000F42D00123009332E4CB
:10149000059B0F4AD3F88030074900209847B9F1DF
:1014A000000F7FF426AC9CE500231A4609E400BF38
:1014B000ABAAAAAAF47501082874010840760108AD
:1014C00054760108ABAAAA2A88760108A8760108F2
:1014D0002C7501080022FFF7F4BB013B042B00F23E
:1014E0003B8501A252F823F0AD1100083117000826
:1014F000FD14000829170008FD1400086FF00C0304
:10150000099356E64FF001137363B9F1000FBCD194
:1015100000236B800123C5F80A3034E4BA4B98ED00
:10152000157A0593D3F88C30009306EE903AB5EE19
:10153000C07AF1EE10FAB8EE668A7FF71FADC8EEFA
:10154000078AF6EE007A78EEA78A18EE900A11F074
:10155000B5FC59B1059BAD4AD3F88030AC490020A9
:101560009847039B002B7FF484AB2BE598F85A2017
:10157000002A7FF41BAD039B98F85F10002B98F8AE
:10158000603014BF204600209942049008D9059B82
:10159000A04AD3F880309E4900209847FFF76CBBE3
:1015A000022B00F0BB84349B1A71A6F8AC21FFF724
:1015B0007BBBDFED998ACDE7DFED978ADBE7B6F8F5
:1015C000AC31B6F8A421012B00F0CC8007EE902AB4
:1015D000DFED929AB8EE67AAB7EE089AF2EE02DA59
:1015E000059B9FED8F0AD3F88C30019307EE903A5C
:1015F000B8EE67FA80EE0F0A0EF09AFC98F86030A9
:10160000022B2FEE00FA00F21F8104EB830498F8FE
:101610005E3094ED11EAD4ED14FA002B00F026812F
:10162000009BDFED7DEA9FED7FBA9FED7FDADFED76
:101630007FCA9FED7FCADFED7FBADFED7FAADDF8BD
:10164000149044460025227C052A00F29280022A4A
:1016500040F29A804FF0300A0827E27B052A00F218
:101660007084DFE802F03E413B034744F0EE4B7AE2
:101670008FEE276A228998F85E1002FB07770237FF
:101680007F00BFB2A288013514349FED6C7AC6EE9C
:10169000076A07EE90AAF8EE677A87EEA66A07EE69
:1016A000907AF8EE677A87EEA67A07EE902AF8EE3F
:1016B000677AEAB267EE277A914277EE867A77EE1A
:1016C000A97A77EE897A7EEEA7EABCD898ED145A0B
:1016D000002B40F0CF800093FFF7D4BBF0EE6A7A86
:1016E000C6E7F0EE6C7AC3E7F0EE4D7AC0E7F0EEB5
:1016F0004C7ABDE7F0EE6B7ABAE70A9A002A4FD02F
:101700001823B3FBF2F302FB03F3C3F118039BB2FC
:101710001593002B44D10A9A0B92531E9B009BB247
:101720000D9301230E936AE56FF00F03099340E5D3
:101730006FF0060309933CE598F85F2098F8603055
:101740009A427FF431AC039B349ADFED338A002B4D
:1017500014BF23460023049300231371A6F8AC3171
:10176000FFF7A2BAF0EE499AF0EE49DAB0EE49AAD4
:1017700036E7D9F88030324A2549002098474FF0A3
:10178000180A0427002368E7012A05D0022AF0D1AD
:101790004FF03C0A0A2760E74FF0480A0C275CE745
:1017A000059B284AD3F88030194900209847002328
:1017B0000122CDE90D3215930B922AE5149B002BE3
:1017C0000E9B08BF00230E93129B33B1099A199BFD
:1017D0009B1A0B9A93FBF2F39BB2ABF88C300A9BEB
:1017E000169AABF89220013B0E9AABF888209BB278
:1017F000189A0A930123ABF88A20ABF8903029E6B7
:1018000000230D931A46F0E5780000209C7401082F
:1018100028740108DC740108000000009A999D41B9
:10182000F902154F000090430000204300000043E0
:101830000000F0430000C04300004043002474490E
:10184000D0750108E0750108059BC04AD3F88030C7
:10185000BF490020984798F85E30002B00F0F481D3
:10186000DFEDBCFA0023B0EE6FEADAE698ED145A29
:10187000DFEDB8EA9FEDB87ADFEDB86A349BCFEEC2
:10188000077AB1EE0C7AC7EEA65A2AEE07AA7FEEC7
:101890008EFACAEE257A9FEDB27A77EEAD7AB0EE87
:1018A000006A77EEAE7A77EEAF7A27EE877A37EE78
:1018B000067A77EE277A86EEA77AB4EEC57AF1EE4D
:1018C00010FA83ED007A7FF5DDAA059BA54AD3F8CF
:1018D00080409F49FDEEC77A002017EE903AA0475E
:1018E000002300931EE402F1180083B20C9303B2AC
:1018F000139300E509999C4BC943A3FB0131099B54
:101900006FEA1111DB1709B21193D1E40C9A964BCF
:10191000D043A3FB00306FEA101000B2D217BAE434
:1019200003F1180002B283B21992FCE40C988242CF
:1019300000F0638100220A9216921292139A9B1A67
:101940000B9A93FBF2F39BB20E930123CDE9133371
:1019500005E5994200F05E810A9B013B9BB20A9328
:101960000123169312930B46E8E7E37B052B00F265
:101970001983DFE803F01A130C032B214FF486734D
:101980001793D6230C9340F21D128D23FBE4AC2356
:10199000179376230C93BD225D23F4E48C231793D5
:1019A00056230C939D224D23EDE46C23179336238D
:1019B0000C937D223D23E6E44FF4E67317934FF436
:1019C000CB730C9340F2DD12ED23DCE44FF4B673DD
:1019D00017934FF49B730C9340F27D12BD23D2E416
:1019E000A37A172B00F20181092B00F21F81C3F1AA
:1019F00009039AB21523ABF84630069BABF8482092
:101A0000002B00F0608203EB42029389ABF84A306E
:101A1000237C013B042B00F2A682DFE803F0BC77B5
:101A200003AB85004FF000094FF400724FF4C06320
:101A3000CDE909234FF0C00E02204FF0040C08211D
:101A40004A464B46ABF86E000A98ABF85600099828
:101A5000ABF870C0ABF85800ABF84E10ABF85010B4
:101A6000ABF852E0ABF854E098F85D10B9F1000F14
:101A700000F00A81002B00F00781022900F27C812E
:101A80003A4B0B4493F83830ABF85A30069B002B96
:101A900000F01D810023ABF85E300123ABF86A3003
:101AA000069B0021D3E932ECD3F8C4900B460EEB31
:101AB0001140A0EB09009042614480F23282013370
:101AC0000F2BF4D1069AABF86030D2E936E303EB82
:101AD00083020EEB1242F92A00F3F181062003FB88
:101AE00000F0052103E0BCF1FA0C40F1DC810A466C
:101AF000013189B214290EEB104C1844F3D1059B27
:101B00001B4AD3F88030DDE906963BE100214FF413
:101B10000073CDE909134FF0400E03204FF0020C83
:101B200008219622FA238DE74FF000094FF4F05078
:101B30004FF47853CDE909034FF4F86E02204FF0CB
:101B40000B0C08214A464B467CE700BF4C75010848
:101B5000287401080000000000002043002474499C
:101B60000AD7233C24770108ABAAAAAAD0310108DE
:101B7000F87601084FF000094FF4C06C4FF4606331
:101B8000CDE909C34FF4E07E02204FF0060C082196
:101B90004A464B4656E7069B9B8C0422082BCBF803
:101BA0006E205DD9DDE90696FFF770BA0422FFF7D3
:101BB00037BB0D9B0F2B32D9A3F10F020F230D93CF
:101BC00092B2002311E4B9F1000F2CD1237B002B3A
:101BD00035D0059BC64AD3F88030C6494846984759
:101BE0000422FFF71DBB0A9B27E4059BC24AD3F8DA
:101BF0008030DDE90696FFF746BA99427FF49AAE47
:101C00000023CDE91333CDF828E0169312930E93F9
:101C1000FFF7A5BB0023169312930B468EE6002216
:101C20001346FFF7E2BB0222FFF7FABA102B94BF6C
:101C3000C3F11E03C3F117039BB20022DBE64FF092
:101C400001090422FFF7ECBA98ED145A0093FFF74C
:101C500019B900980290864602210246FFF7CBB8D8
:101C6000ABF84E30ABF8503040230022ABF8523086
:101C7000ABF854304FF40073ABF85630ABF8582043
:101C800098F85D1013469146072975D89B48014482
:101C900091F83C10ABF85A100699C1B10021ABF88D
:101CA0005E10B9F1000F40F08480ABF86A90ABF899
:101CB0006090ABF85C90ABF86290ABF86890ABF8D2
:101CC00064904A460023ABF86620ABF86C30238959
:101CD000E27AABF87620012B68D0023B9BB201215F
:101CE000ABF87230A37BABF84C3083F00103ABF858
:101CF0007410ABF878300099AB89AAF800300B4427
:101D0000AAF80810AB81A388217C06EE903A2389BB
:101D1000012907EE103ABBF86E302AD0022914BF11
:101D2000F0EE695AF0EE4A5A01339BB207EE903A50
:101D3000F8EE677AB1EE006AF8EE666A67EE867AC8
:101D4000B8EE477A67EEA67A0198029B67EE877A2B
:101D5000014667EEA57A002808BF114667EE897A2A
:101D60000191FCEEE77A17EE902A13440293FFF7F5
:101D700027B8DFED635AD7E7059B624AD3F8803076
:101D8000DDE906965B4900209847039BAA89DDF8A8
:101D900004E012FB03F26B8913FA82F39BB2591C25
:101DA000002092B289B20090FFF725B800231946AF
:101DB00096E70121ABF86A10002B7FF471AEABF807
:101DC000603019461A46ABF85C200022ABF862205E
:101DD000ABF868204BBBABF864301A4602EB010944
:101DE000069AD2E92FE1CE451DDA0846002202F11B
:101DF000010C09921FFA8CF2162A3FF480AE0EEB0A
:101E0000104CBCEB090C0844F1D4002B7FF45AAF02
:101E1000099800FB01F10EEB1143A9EB03039C456C
:101E2000C8BF02464EE700224CE7069BD3E9349C2C
:101E3000894546DA134662469E4601339BB2162B0D
:101E40003FF45DAE09EB1240401A6244F4D40CFB3F
:101E50000EF209EB12428A1A9042D8BF9E460699AA
:101E6000BBF86020D1F8CC30BBF85C00099002FBD5
:101E700003F3D1F8C820ABF864E002EB13420B4641
:101E8000D1F8C410521AD3E936303FF538AE09996B
:101E90000CFB0EFE00FB01F103EB114309EB1E40AE
:101EA0001918FA239AE702FB03F30EEB1343C3F16D
:101EB000FA039C45D8BF0A46FA210B4683E7052260
:101EC000FAE79646CBE7069BABF84A30237C013B0A
:101ED000042B48D801A252F823F000BF271F0008A6
:101EE0000D1B0008251A0008751B0008291B000897
:101EF0000876010828740108C0760108D03101086D
:101F0000CDCC4C3ED8760108349A1371A6F8AC318A
:101F1000B9F1000F7EF4EDAEFFF763B80123FEF7D1
:101F2000B7BE9BB2CEE54FF000094FF40073CDE988
:101F300009934FF0400E0420CC4602214A464B46FE
:101F400080E5D9F880301C4A1C4900209847DFED15
:101F50001C7A0023FFF78CBB059B1A4AD3F880300C
:101F6000DDE906960EE7059B164AD3F88030134943
:101F70000020DDE906969847AA89039BDDF804E076
:101F800012FB03F26B89562113FA82F301FB0761FE
:101F900000209BB2C1F86E00591C92B2009089B229
:101FA000FEF729BF059B044AD3F88030034900207F
:101FB0009847FFF7E0B900BF7C7601082874010854
:101FC00000000043D075010870B5FEB04FF4E27216
:101FD00004460D460DA8002103AE0FF0EFFE00965B
:101FE0000DAA05AB00212046FEF7F4FD08B97EB02E
:101FF00070BD94F85B202B46314605A8FEF7FCFB2C
:102000007EB070BD08B5144B9FED140A2DED028B08
:1020100093ED238AB8EE488A08EE900A80EE080A0B
:102020000DF086FF28EE008AF3EE087A28EE278A64
:10203000B7EE007AC7EE087AF8EEE88A9FED087AE4
:1020400067EEA87ABDEC028B67EE877AB6EE000ADF
:1020500027EE800A08BD00BF78000020F902154F66
:10206000C2F38E4D38B5294A0368D56E1B689B06AE
:102070001BD4846A2368A2685868616820F0200035
:1020800058609AB15868B1F5827F20F0010058601D
:1020900022D02946204608F0C9FFB0B9012300220A
:1020A000A4F8462084F85D30236E38BD5A68B1F537
:1020B000827F0CBF22F0030222F001025A602946FF
:1020C000204608F0B3FF0028E8D0236E43F0200339
:1020D000236620232366E1E7B2F5004F12D11A6888
:1020E00022F0400229461A60204608F09FFF00288F
:1020F000EBD12A464FF4C061204608F033FF002898
:10210000CCD0E2E7B2F5806FE9D0C2E778000020DA
:10211000F8B51B4D0368EF6E1B68846A9B062CD4D0
:102120002668736823F0200373603A464FF4C05169
:10213000204608F017FF58B93946204608F076FFC8
:1021400030B93A464FF4C061204608F00BFF38B171
:10215000236E43F020032366236E43F0200323669F
:10216000736823F00303736000220123E287A4F85D
:10217000462084F85D30236E0BB901232B70F8BD27
:1021800078000020F8B516460D464FF4E27201467D
:1021900018461C460FF03EFFB6F8581021B196F8CD
:1021A0005E30191E18BF0121012396F85B2084F8C8
:1021B000C6312B4684F8C52133F8262B84F8C41188
:1021C000A4F8C82105F1560104F5E5721F685E68A0
:1021D0009868D3F80CC0C2F80CC010338B4217605B
:1021E0005660906002F11002F0D1B5F85630A4F8B4
:1021F000FA3105F1580604F5FE7E05F18807B4466C
:10220000BCE80F00BC450EF1100E06F110064EF8AA
:10221000100C4EF80C1C4EF8082C4EF8043CEED175
:10222000B5F88830A4F82C3205F18A0304F22E2484
:10223000BA35186859689A68DE68E6601033AB42B0
:1022400020606160A26004F11004F2D1F8BD00BF0B
:102250002DE9F04FBFB00DF138090D4690460193BE
:1022600000F1020B3EAFCA46002440F6B73631E01B
:1022700025B335F8141001F01F0E4FEA912C0EF122
:10228000300E00FB0EF0C1F34411ACF1200C02FB48
:102290000CFC002801F1300102FB01F1B8BF3F3016
:1022A000BCF1000FB8BF0CF11F0C8011002900EB2E
:1022B0006C10B8BF3F3100B241F38F110134182CBC
:1022C00008BF002406F0FCFD4AF8040BBA450BF1E8
:1022D000040B0ED0BBF900203BF9020C02FB02FC00
:1022E00000FB00CCB4451146C2DC00203FB0BDE885
:1022F000F08F0DAC0DF1060109F15C05224652F894
:10230000043F002BB8BF0F3302311B1195420B80E5
:10231000F5D1484609F0B6FA002254F8043F216E80
:10232000A542A3EB01031A44F7D1124B83FB02131E
:10233000D217C2EBA31404F5994330334CF6621262
:102340009342D2D802AE35460FCD4D4508F1100864
:1023500006F1100648F8100C48F80C1C48F8082C38
:1023600048F8043CEFD1019B01201C803FB0BDE840
:10237000F08F00BFABAAAA2ABFF34F8F0549064BC7
:10238000CA6802F4E0621343CB60BFF34F8F00BF13
:10239000FDE700BF00ED00E00400FA05FEE700BF26
:1023A000FEE700BFFEE700BFFEE700BFFEE700BF9D
:1023B000704700BF704700BF704700BF024AD36E2E
:1023C0000133D366704700BF780000200C4B0D49E5
:1023D000D3F890204FF480104861D168490503D4A8
:1023E000012283F8B1207047D168C9B261F49061CD
:1023F000D1600120012283F8B40083F8B120704736
:102400007800002000040140034B5A69120744BFC2
:1024100008225A61704700BF000401400148FDF7DF
:10242000FFBF00BF300100200148FDF7F9BF00BF2A
:10243000780100200148FDF7F3BF00BFC001002074
:102440000148FDF7EDBF00BF08020020084810B4A6
:10245000D0F8D831D0F80C4299691A682CB12346CB
:1024600000F5EC705DF8044B18475DF8044B7047BD
:1024700078000020034B5A69120544BF4FF40062F4
:102480005A6170470004014010B5194C194AD4F83C
:1024900090304FF4802151619A68D20402D5DA68F5
:1024A000D00509D49A68910402D5DA68920513D44C
:1024B000012384F8B13010BDDA68D2B262F4C07280
:1024C0000121DA6084F82C1208F004FE68B9D4F80F
:1024D000903084F82C02E5E7DA68D2B262F4207218
:1024E000DA60012384F8B13010BDFFF745FF00BF6B
:1024F0007800002000040140034AD2F8883043F4F9
:102500007003C2F88830704700ED00E010B590B05D
:1025100018B10C4B02689A4209D00B4B0B4AD3F806
:1025200080300B4900209847002010B010BD0C46A9
:10253000043001A9FFF748FD0028F6D0BDF80430AB
:102540002360F2E70FB0371378000020DC71010838
:10255000F471010810B1024B9B6F1847704700BF20
:102560007800002008B518B10E4B02689A4208D0D6
:102570000D4B0E4AD3F880300D49002098470020BB
:1025800008BD032907D9084B0A4AD3F88030084907
:1025900000209847F3E701EB810100EB81000089FF
:1025A00008BD00BF0FB0371378000020DC710108B0
:1025B000F4710108FC71010808B518B1074B0268F5
:1025C0009A4208D0064B074AD3F8803006490020CB
:1025D0009847002008BD012008BD00BF0FB0371389
:1025E00078000020DC710108F471010808B518B109
:1025F000074B02689A4208D0064B074AD3F880304E
:10260000064900209847012008BD90F8620008BDE7
:102610000FB0371378000020DC710108F471010855
:10262000684AD2F8303270B50D460446591C6648E7
:10263000C2F830120FF04EFD002D00F0C18063781B
:10264000002B68D0D4ED017A9FED607ADFED606AEF
:102650006048F5EEC07AF1EE10FA48BFF1EE677A05
:1026600077EE877A4CBF5C495C49BCEEE77AB8EEFE
:10267000476A17EE102A77EEC67A67EEA67AFCEE66
:10268000E77A17EE903A0FF025FDD4ED027A9FED30
:102690004F7ADFED4F6A5248F5EEC07AF1EE10FA4C
:1026A00048BFF1EE677A77EE877A4CBF4A494B49CB
:1026B000BCEEE77AB8EE476A17EE102A77EEC67AD4
:1026C00067EEA67AFCEEE77A17EE903A0FF002FD7D
:1026D000D4ED037A9FED3D7ADFED3D6A4148F5EE9A
:1026E000C07AF1EE10FA48BFF1EE677A77EE877A9A
:1026F0004CBF39493949BCEEE77AB8EE476A17EE64
:10270000102A77EEC67A67EEA67AFCEEE77A17EE25
:10271000903A0FF0DFFC237C002B51D0617C324AD1
:10272000324B334800290CBF114619460FF0D2FC3A
:10273000D4ED057A9FED257ADFED256A2D48F5EE7B
:10274000C07AF1EE10FA48BFF1EE677A77EE877A39
:102750004CBF21492149BCEEE77AB8EE476A17EE33
:10276000102A77EEC67A67EEA67AFCEEE77A17EEC5
:10277000903A0FF0AFFCD4ED067A9FED147ADFEDBE
:10278000146A1D48F5EEC07AF1EE10FA48BFF1EE7A
:10279000677A77EE877ABDE87040BCEEE77A4CBF87
:1027A0000D490E49B8EE476A17EE102A77EEC67A41
:1027B00067EEA67AFCEEE77A17EE903A0FF08ABC45
:1027C00070BD00BF7800002054770108BD37063582
:1027D0000024744964770108C4780108607701080F
:1027E00088770108AC7701084C7701084477010825
:1027F000D0770108EC77010810780108244A936823
:10280000D26813F00C0305D00C2B33D0042B37D136
:10281000204870471E4A1168090754BFD2F8941027
:1028200011681D4A54BFC1F30321C1F3031102EB28
:102830008102D06D002BECD0154BDB6803F0030355
:10284000022B22D0154A032B08BF1046104BD96823
:10285000DA68DB68C3F34163C2F30622C1F30211F5
:10286000013300FB02F201315B00B2FBF1F2B2FB7B
:10287000F3F0704702F00302012ACBD00020DBE71F
:10288000082B064818BF002070470248DEE700BF4B
:10289000001002400024F400D031010800127A0038
:1028A000064A074B92680749C2F30222134408689C
:1028B00093F88C3003F01F03D8407047001002409B
:1028C000D031010800000020064A074B92680749F2
:1028D000C2F3C2221344086893F88C3003F01F033C
:1028E000D840704700100240D0310108000000209D
:1028F000F0B504680546200583B000F1F28000269B
:10290000A1034ED5A54B9A6DD20040F1F58000276A
:10291000A349A44A0B6843F480730B60D06E04E0B3
:10292000D36E1B1A022B00F200810B68DB05F7D572
:10293000A6BB9A49A86DD1F8903013F4407325D006
:10294000834223D0D1F890C0D1F8903043F4803343
:10295000C1F89030D1F8903023F48033C1F8903032
:102960001CF0010F2CF44073C1F890300ED0D2F857
:102970006CE041F2883C05E0D36EA3EB0E036345A7
:1029800000F2D380D1F890309B07F5D5834AD2F876
:10299000903023F440730343C2F89030002F40F08E
:1029A000DC80E10708D57D4A296AD2F8883023F017
:1029B00003030B43C2F88830A20708D5774A696A37
:1029C000D2F8883023F00C030B43C2F88830630739
:1029D00008D5724AA96AD2F8883023F030030B4335
:1029E000C2F88830A70608D56C4AE96AD2F8883060
:1029F00023F440630B43C2F88830A00508D5674A2A
:102A0000E96BD2F8883023F440230B43C2F88830B6
:102A1000610508D5614A296CD2F8883023F4401347
:102A20000B43C2F88830620608D55C4A296BD2F89D
:102A3000883023F440530B43C2F88830230608D56E
:102A4000564A696BD2F8883023F440430B43C2F8EE
:102A50008830E70508D5514AA96BD2F8883023F4AD
:102A600040330B43C2F88830200323D43746610338
:102A70000FD54A4AE96CD2F8883023F040630B4303
:102A8000B1F1006FC2F8883000F08380B1F1806F3F
:102A900077D03E4662044DD43046230408D53F4AE1
:102AA000696DD2F8883023F080430B43C2F8883038
:102AB00003B0F0BD394AA96CD2F8883023F04063E6
:102AC0000B43B1F1006FC2F888304CD0B1F1806F88
:102AD000CCD10121281DFDF7F1FC07460028C5D007
:102AE000C5E76F6CB7F5000F11D0B7F5400F13D0E5
:102AF000002F3DD0012603E79A6D42F080529A657F
:102B00009B6D03F080530193019B012700E7234A4B
:102B1000D36843F48033D360204AD2F8883023F45A
:102B200040033B43C2F88830E9E60326002F3FF418
:102B300038AF12E019492A6DD1F8883023F040539C
:102B40001343B2F1805FC1F88830A5D10221281D5E
:102B5000FDF7B4FC00289FD09FE7104A936D23F047
:102B6000805393651DE7D36843F48013D3607DE7FA
:102B70003946281DFDF7A2FC064600287FF4C0AEAA
:102B8000CAE70121281DFDF799FC0646002880D0E0
:102B900080E7D36843F48013D3607AE700100240E3
:102BA0000070004078000020F0B4C56F202D4AD19D
:102BB0000C4601B112B90120F0BC7047194600253E
:102BC0002123C0F88450C3678368294FA0F85020A0
:102BD000B3F5805FFE6EA0F8522037D0B0F85220D7
:102BE000036892B2B2B1DA69120604D44A1C1DD14C
:102BF000DA691206FCD504B314F8012B1A85B0F873
:102C00005220013A92B2A0F85220B0F8522092B26B
:102C1000002AE8D1DA69520604D44C1C1CD1DA69C6
:102C20005106FCD52023C3670020C5E7FA6E921B2E
:102C3000914218D3B9B11A68D5E735F8022BC2F31F
:102C400008021A85DBE70220F0BC70470369002BFD
:102C5000C4D125461C46C1E7FA6E921B914202D3AD
:102C600009B11A68D6E72023C367F0BC0320704778
:102C700078000020026852E8003F23F4907342E895
:102C800000310029F7D102F1080353E8003F23F097
:102C9000010302F1080C4CE800310029F3D1036E66
:102CA000012B06D000232022C0F880208366036613
:102CB000704752E8003F23F0100342E8003100293A
:102CC000F0D052E8003F23F0100342E80031002921
:102CD000EFD1E7E770B5AE4CD4F83452EB692A680F
:102CE000A96840F60F00034240F08780980602D59D
:102CF000960600F1F380D4F89402012816D0D80289
:102D000002D5490200F1F4801E0605D4590602D509
:102D1000530600F1258170BD1006F7D5D4F8A03216
:102D2000002BF8D0BDE870409A481847DE06E6D57B
:102D3000D006E4D510232B62AB68B4F88C225B0676
:102D400040F14281D4F8A83219684B689BB2002B3D
:102D500000F09681934280F09381A4F88E320B6844
:102D60009E0644D455E8003F23F4807345E80032C2
:102D70004AB1D4F8342252E8003F23F4807342E889
:102D800000310029F5D1D4F8342202F1080353E8C8
:102D9000003F23F00103083242E800310029F2D15C
:102DA000D4F8342202F1080353E8003F23F0400333
:102DB000083242E800310029F2D12023C4F8B432AD
:102DC000C4F89412D4F8342252E8003F23F01003E0
:102DD00042E800310029F5D1D4F8A83293F8252033
:102DE000022A00F054810422DA6383F824100223BB
:102DF000C4F89832B4F88E3270BD11F0010640F07C
:102E00009E80654802423FF476AFD8070FD5D105C2
:102E100040F1D68001212962D4F8B81241F00101B5
:102E2000C4F8B81299076BD5002E40F08C80580773
:102E30007DD51E0700F1C1801E050AD5500108D5B9
:102E40004FF400612962D4F8B81241F02001C4F8AF
:102E5000B812D4F8B81200293FF45DAF990602D534
:102E6000920600F1A080D4F8B822AB6802F02802E4
:102E700003F04003134300F000814648FFF7FAFED9
:102E8000AB685B067FF547AF05F1080353E8003FE9
:102E900023F0400305F1080141E8003262B1D4F8A3
:102EA000342202F1080353E8003F23F040030832C4
:102EB00042E800310029F2D1D4F8A80200283FF4FA
:102EC0002AAF90F82530354A8263022B00F0BB8090
:102ED0000423BDE87040C363FDF75AB9D4F89C32AF
:102EE000002B3FF418AF04F50D70BDE87040184793
:102EF0004FF480132B6270BDD1058BD4980722D478
:102F0000590714D5002E94D004212962D4F8B812A0
:102F1000180741F00201C4F8B8128DD508212962C2
:102F2000D4F8B81241F00801C4F8B81284E71907C0
:102F300082D502F0200131433FF47EAFEEE7D8079F
:102F4000DAD499072CD502212962D4F8B8125E0789
:102F500041F00401C4F8B812D6D41907DED46BE7E7
:102F600055E8003F23F0400345E800324AB1D4F869
:102F7000342252E8003F23F0400342E800310029A8
:102F8000F5D120220023C4F8B022C4F8A03270BDCD
:102F900078000020AC02002020010004910100080C
:102FA0005E07B1D4D9E7D4F89C32002B3FF45BAF75
:102FB00042489847D4F8345255E79006AED43BE7E0
:102FC00098073FF534AF9BE7B4F88E12B4F88E3211
:102FD0009BB289B2002B3FF49EAE91423FF49BAE70
:102FE00055E8003F23F4907345E800324AB1D4F825
:102FF000342252E8003F23F4907342E80031002964
:10300000F5D1D4F8342202F1080353E8003F23F04D
:103010000103083242E800310029F2D12023C4F82C
:10302000B432C4F89C12C4F89412D4F8342252E892
:10303000003F23F0100342E800310029F5D10223BC
:10304000C4F8983270BD0268436C116821F00E011B
:103050001160116821F0010111600124026C03F07C
:103060001C0304FA03F35360002380F8254080F822
:103070002430BDE87040FDF78BB8C4F8B83270BD9D
:1030800093427FF448AE0B689D06D8D470BD1A6891
:103090001D6C106820F00E001060106820F0010018
:1030A00010605A6C012002F01C0200FA02F26A6001
:1030B00083F8250083F8241099E600BFAC020020B5
:1030C00010B5084950226C2008F0D0FB044630B1FE
:1030D000054B40F8043B054968220EF09BFF204653
:1030E00010BD00BFF47101080FB03713743201082E
:1030F00010B50446FFF760FA00B910BD0023236045
:103100002046BDE81040FFF725BA00BF00B338B530
:10311000056804462DB1284606F0E2F810BB0023EE
:103120002360606818B106F07DFC00236360A56829
:103130002DB1284607F012FE58B90023A360E068BD
:1031400008B107F03FFE2046BDE838400EF078BFDA
:103150007047E86BFFF7CCFF00232B602846FFF792
:10316000F9F9EAE700232B602846FFF7F3F9D6E7E1
:1031700038B504460D46FFF71FFA08B184F86250CF
:1031800038BD00BF10B418B10C4B04689C4208D085
:103190000B4B0C4AD3F880300B495DF8044B0020F0
:1031A0001847032A02D9064B084AF3E702EB8202CA
:1031B00000EB82005DF8044B416070470FB037139D
:1031C00078000020DC710108F4710108FC7101082D
:1031D00010B418B10C4B04689C4208D00B4B0C4A3D
:1031E000D3F880300B495DF8044B00201847032AC0
:1031F00002D9064B084AF3E702EB820200EB820099
:103200005DF8044B018170470FB037137800002040
:10321000DC710108F4710108FC71010810B418B1E7
:103220000C4B04689C4208D00B4B0C4AD3F88030FE
:103230000B495DF8044B00201847032A02D9064BBE
:10324000084AF3E702EB820200EB82005DF8044BD0
:10325000418170470FB0371378000020DC710108FE
:10326000F4710108FC71010810B418B10C4B04682A
:103270009C4208D00B4B0C4AD3F880300B495DF8C8
:10328000044B00201847032A02D9064B084AF3E7EB
:1032900002EB820200EB820001755DF8044B70477F
:1032A0000FB0371378000020DC710108F4710108B9
:1032B000FC71010810B418B10C4B04689C4208D092
:1032C0000B4B0C4AD3F880300B495DF8044B0020BF
:1032D0001847032A02D9064B084AF3E702EB820299
:1032E00000EB82005DF8044B818170470FB037130B
:1032F00078000020DC710108F4710108FC710108FC
:1033000038B504460D46FFF757F908B1A4F85C50EC
:1033100038BD00BF10B418B10C4B04689C4208D0F3
:103320000B4B0C4AD3F880300B495DF8044B00205E
:103330001847032A02D9064B084AF3E702EB820238
:1033400000EB8200C1745DF8044B70470FB0371377
:1033500078000020DC710108F4710108FC7101089B
:1033600070B50C46154618B1264B02689A420AD031
:10337000254E264AD6F8803025490020984774B358
:10338000002D34D070BD49B3002D38D04168856020
:103390000868B0F89430028F04EB430304EB420258
:1033A000C364B0F896304261D0F8982004EB430330
:1033B00003654AB1B0F89C3004EB43031361B0F8E5
:1033C0009E3004EB43035361B0F8E4204B6804EBF8
:1033D0004204C0F8B040BDE8704018470A4ED6F825
:1033E00080300C4A0A4900209847002DCAD1D6F8EF
:1033F0008030094A0649BDE8704000201847024E57
:10340000F5E700BF0DB037137800002058780108A9
:103410004C780108747801083478010810B520B19F
:103420000D4B02689A42044608D00C4B0C4AD3F864
:1034300080300C49BDE8104000201847406818B1A2
:10344000C368984700236360002323602046BDE8DB
:103450001040FFF77FB800BF0DB037137800002091
:10346000587801084C78010810B50446FDF778F942
:1034700000B910BD20690023236008B1FFF76AF886
:103480002046BDE81040FFF765B800BFDFF83CC03C
:10349000F8B51C464FF480530746CCF828300E464A
:1034A000154608F00BFE17B13846FFF7DDFF16B1E1
:1034B00030460EF0C5FD15B128460EF0C1FD1CB119
:1034C0002046BDE8F84021E6F8BD00BF00040048F2
:1034D0002DE9F041174F1D46D7F8843013B1BDE8F0
:1034E000F0411847FB6F4FEA4208002AF7D08F1EC1
:1034F000A8F1020406468E460C443A4632F802CF42
:103500009CFA9CFCA242A2F800C0F7D14246714648
:10351000304698470DB9BDE8F08137F8023F5BBAF5
:10352000A7423B80F7D037F8023F5BBAA7423B8007
:10353000F3D1F0E7780000202DE9F04FA5B0044664
:10354000FDF70EF910B925B0BDE8F08FDFF8048162
:10355000A56898F88830012B05D9D8F88030374A0B
:103560003749022098477822364906A80EF052FDC6
:10357000D8F88430344A0492002B55D004AF02228C
:10358000394628469847DFF8D0A00DF1180B0026E1
:10359000BBF80440BBF80690A144A14532DD039777
:1035A00005E0624698470134A4B2A14529DD44F400
:1035B000405C0399ADF810C0012328460322ADF802
:1035C0001260ADF81460FFF783FFDBF80830BDF838
:1035D00014C021462846002BE3D198F888201849CA
:1035E000012A2B4652464FF00200DCD9DBF800706E
:1035F000CDE9007C0134D8F88070A4B2B847A14569
:10360000D5DC039F0BF10C0B24AB9B45C0D198F884
:103610008830012B97D9D8F880300C4A084902200D
:1036200025B0BDE8F04F1847094B049304AFD8F814
:103630007C300422394628469847A4E78C78010854
:103640008C720108DC320108D5100100DC78010819
:1036500010D5000178000020C878010800B583B0BB
:1036600041F4A041012394464FEA124EADF80010F8
:10367000ADF80230042200236946ADF804E0ADF84D
:1036800006C0FFF725FF03B05DF804FB10B50F4C33
:103690008C461146B4F8702003F1020EB2EB4E0FC7
:1036A00007D2D4F880300A4A0A49BDE81040002009
:1036B0001847013B4CF4A04C4B802EF00042A1F87F
:1036C00000C0BDE81040002302E700BF78000020E2
:1036D00018790108387901082DE9F04FADF5137D0F
:1036E00006460C46154600214FF4E27221A89A4680
:1036F0000EF064FB3C22002112A80EF05FFB9D9BA4
:1037000093F8C5716FB1664B664AD3F8803066494D
:10371000002098474FF0000840460DF5137DBDE8A6
:10372000F08F0DF11808CDF800800AAB21AA2946C8
:103730002046FDF74FFA0028ECD0414694F85B2074
:103740000AA812ABFDF758F880460028E2D09E9AEE
:10375000BDF85A3013809F9ABDF85E3013809D9853
:1037600008AB0DF1160221A908F036FABDF82020A9
:10377000BDF816309A4206D29D9B2246294621A8C2
:10378000FEF700FDC8E743F2370308930322012345
:1037900008A93046ADF82470FFF79AFEBDF8243032
:1037A00013F0C00310D1ADF8243043F23103089375
:1037B0000322012308A93046FFF78AFEBDF8242022
:1037C0004AF6C0439A425CD19D9808AB0DF11602AF
:1037D00021A908F001FABDF81690BDF820B0D9452E
:1037E00008D9324B0893304608A900230222FFF77C
:1037F0006FFEC1E72A499C9AB1F87010CDF8088095
:103800004FEA5A0349088B4228BF0B460BF10201CD
:10381000023BA1EB090123F0010389B28B4228BFCF
:103820000B460432AA469FB2904603941D4604E01C
:10383000B9441FFA89F9D94511D808AB4A4641461F
:1038400021A8089505F0D4FC04460028F0D0089B78
:103850009C9A4FEA59013046FFF718FFE8E7134BEF
:10386000089355463046A24608A900230222DDF8F7
:103870000880039CFFF72CFEBAF1000F3FF44AAF1B
:103880007AE7074B93F88820002A3FF443AFD3F838
:103890008040074A074933460120A0473AE700BF66
:1038A000780000204C790108547201088010010052
:1038B0008C790108B0790108F0B583B043F21C029D
:1038C000009201230E460024032269460746ADF804
:1038D0000440FFF7FDFDBDF8043013F4006517D177
:1038E00041F21B042B46694638460222009446F4F6
:1038F0000066FFF7EDFD38462B4669460222ADF81B
:103900000040ADF80260FFF7E3FD012003B0F0BD19
:10391000054B064AD3F88050054920463B46A84748
:10392000204603B0F0BD00BF78000020C879010830
:10393000F8790108F0B5012983B00546144622D074
:1039400002290AD01C4B1D4AD3F880401C4903466B
:103950000020A047002003B0F0BD43F246038427B7
:103960000026ADF800302846012303226946ADF851
:103970000260ADF80460FFF7ABFDBDF8040030B1A4
:103980006CB90120E7E743F245038327E8E70A4BD8
:103990000C4AD3F880400A492B46A047DAE747F49F
:1039A00080573346694628460222ADF80070ADF8CC
:1039B0000260FFF78DFDE4E778000020107A01082F
:1039C000F87901082C7A010838B520B1164B026845
:1039D0009A42044608D0154B154AD3F88030154951
:1039E00000209847002038BD037B43B9806815212B
:1039F000FFF762FF0028F5D00123237338BD056966
:103A0000806895F8C6110122FFF794FF95F8C5313B
:103A100043B195F8C631022B0CBF0123022385F870
:103A2000C63138BD0123FAE70EB037137800002005
:103A3000147201082C720108F0B5012985B0064600
:103A4000154633D0022925D143F232030124002741
:103A5000ADF808300322012302A93046ADF80A7000
:103A6000ADF80C70FFF734FDBDF80C306B8003F03F
:103A70000702012A2A802AD013F006001AD1184919
:103A8000184AD1F8804018490096A04700242046E3
:103A900005B0F0BD124B154AD3F8804012490346D9
:103AA0000020A0474FF440530024D0E743F23303F3
:103AB0000C46CCE7023A012AE9D9094A0096D2F825
:103AC000804009490A4A3846A0472F80DEE704496A
:103AD000084AD1F88040044900963846A047D5E707
:103AE00078000020607A0108F8790108107A01084E
:103AF000C47A0108907A01082DE9F04184B028B118
:103B0000714B0D460168994204460AD06F4B704ACA
:103B1000D3F880306F4900209847002004B0BDE8FA
:103B2000F0818388C1880B44B2EB430F07D2674B07
:103B3000694AD3F88030674900209847EDE7D0F80C
:103B40001080866898F8C67143F237030293002309
:103B5000ADF80C300322012302A93046FFF7B8FC70
:103B6000012FBDF80C300DD0022F0CBF8020C020DB
:103B7000184009D1554B594AD3F88040584933462B
:103B8000A047CAE74020F3E798F8C61102AA3046DA
:103B9000FFF752FF0028C0D0BDF80830032B0BD030
:103BA0004A4ABDF80A30D2F880404D4900934D4A48
:103BB00033460020A047B0E72169BDF80A2091F8FC
:103BC000C431C2F300122A8033B191F8C631A3F197
:103BD0000103B3FA83F35B096B80B1F8C831AB80A2
:103BE000AA1D01F5E57301F5FD77D3F800C05E6805
:103BF0009868D3F80CE0C2F80CE01033BB42C2F86E
:103C000000C05660906002F11002EED1B1F8FA31B6
:103C1000EB8605F1380201F5FE7301F50B77D3F859
:103C200000C05E689868D3F80CE0C2F80CE010336E
:103C3000BB42C2F800C05660906002F11002EED1A3
:103C4000B1F82C32A5F8683005F16A0201F22E2392
:103C500001F25E21D3F800C05E689868D3F80CE0EA
:103C6000C2F80CE010338B42C2F800C0566090607E
:103C700002F11002EED1E6882369A068A18893F8CA
:103C8000C621B6F5005F0FD8013A18BF012205EB37
:103C900041011203334608F01BF898B1301E18BFDB
:103CA000012004B0BDE8F081084C0F4AD4F8803000
:103CB0000E4900209847D4F880300D4A084900206A
:103CC00098472AE7014CF6E70EB03713780000203A
:103CD000147201082C720108F87A0108107B01089F
:103CE00054720108307B01085C7B010838790108B7
:103CF000747B010810B582B001AA01210446FFF7C8
:103D00009BFE002201212046FFF714FEBDF804307F
:103D1000022B09D00649074AD1F880400649002005
:103D2000A047002002B010BD012002B010BD00BFAE
:103D300078000020A07B0108E87B010838B5074D1A
:103D40006B6F9847044608B1204638BDD5F88030DF
:103D5000034A04499847204638BD00BF7800002038
:103D6000087C0108187C01082DE9F04F2DED028B2D
:103D7000B3B082460E46FEF71FFC002859D0AD496D
:103D80006722102007F072FD0746002851D0AA4B89
:103D900003609AF86240A9493822002C3DD01020D7
:103DA000BAF85C4007F062FDA44980463922FC2045
:103DB00007F05CFD0190002C3DD0A0493E22602020
:103DC00007F054FD01248146B8F1000F35D0019B66
:103DD0009BB314B1B9F1000F2FD0019B23A9C3F8F5
:103DE00098900AF10400C8F80030FEF7EDF870BBB7
:103DF000934B944AD3F88030904998474046FCF75B
:103E0000C9FC00247C603846FFF708FB274638468B
:103E100033B0BDEC028BBDE8F08F102007F026FD1B
:103E2000864980463922FC2007F020FDA1460190FA
:103E3000CAE70027EBE7A146C6E74046FEF78AFB44
:103E40000198FEF787FB4846FEF784FBD9E7BDF8EB
:103E5000A030BDF8AC2001981A4492B20592A0F8A7
:103E60009E20BDF8A220D0F89840038700F1F80109
:103E70005200C0F8841000F1F401C0F8E820C0F846
:103E80008810002200F1F601C0F89420A0F89C20D0
:103E9000C0F88C1000F1F00200F1F70102944262C8
:103EA000C0F8901034B100F1EC01A16100F1F5010E
:103EB0006262E1650199C1F8D820059AA1F8E42071
:103EC000C1F8DC709AF86220039262B1039A14A9D7
:103ED0000DF1B60001EB420430F8022F520821F830
:103EE000022BA142F8D1BDF8A8209DF8C4100D9175
:103EF0001A4492B20E92BAF85C20BDF8AA109DED59
:103F0000308A04920F9122B1BDF8AE200499B2FB21
:103F1000F1F20992BDF8A42001991A44A1F87C207D
:103F2000BDF8A6201A44DDF88E30C1F87630BDF811
:103F30009230A1F87A30444B0B64444B4B64444BB1
:103F40008B64032381F874300F23A1F88030029B27
:103F5000A1F87E20002B00F09B810023259A0A9275
:103F6000CDE91C33269A0B92CDE91E33CDE92033DF
:103F7000BDF89C20039C0C920DF1740B0DF1AE0169
:103F80005A46D8B2A04207D231F8020F22F8020FE7
:103F9000088910810133F4E702992E4A4A602E4ABB
:103FA000049B8A602D4A0B87CA60099B039A4B8742
:103FB0000023C1E91333C1E91533002A00F06881F9
:103FC000274A0892274A0792274A0692029ACDF872
:103FD0004080D14602F13A014832CDE9117A139678
:103FE00088464E469A4691463BF8025F28F8025FA3
:103FF000BBF808701D49A8F808702F22EC20FFF7C5
:104000009DFEEC2200210446002800F0A5800DF062
:10401000D5FE174B174A2364174B6364A264327DA5
:10402000013A042A00F24081DFE802F08D932890E3
:10403000280000BF4C7801080DB03713287C010818
:1040400078000020387C010835760008DD7600080D
:10405000D576000859750008D5750008CD7500089B
:10406000E5760008F1760008ED9100085C7C010817
:10407000C17E0008457700084D7700086FF00C00FE
:10408000059B717C96F810C084F875101D440C9B3C
:10409000A4F87A30049BA4F87E30099BA4F8803001
:1040A000DDE90A23ADB2002918BF1A467168089BE2
:1040B000C4F87620A4F87C50C4E92110B168C4F893
:1040C0009C30079BC4F8A030069BC4F88C10C4F841
:1040D000A43004F1E401029B61627F00224684F86F
:1040E00074C0C4F8E070A4F89650A4F8DC50C4F88A
:1040F000D430C4F8D0106D49C4F8D81004F13C0095
:1041000004F1E801C4F8901042F8980BE26303F060
:104110001DFB002873D02068C26890470AF1010A8D
:10412000039B49F8044F5FFA8AF29A4206F114069B
:10413000FFF45AAF019BD3F898300293DDE9108762
:10414000DDE912A638E06FF00B0099E76FF00F0081
:1041500096E76FF0060093E7D146DDE9117ADDF8C6
:104160004080139E524D0299524A09F1120301EB0D
:1041700083035FFA89F44FF00009C3F804904E49B5
:10418000D5F880304846984703962E46029D0BE0AE
:104190005FFA83FB05EB8B0BDCB2DBF84C0008B15C
:1041A000B36F9847CBF84C90631E002CF0D1019B65
:1041B000039ED3F898300293019A089BC2F8A4306A
:1041C000079BC2F8A830069BC2F8AC3002993B4B63
:1041D000C2F8E03002F13C03136000295FD002F125
:1041E000A003D1630B60019B186883689847B0B93E
:1041F0002F4B334AD3F8803032499847FEE52C4D97
:104200002F4AD5F880303049DDF84080139ED146E2
:10421000DDE9117A9847AB6F20469847A3E7019BE9
:104220001868C3689847294AC8F804200023284A18
:10423000C8F80C20C8F80830C7F8048073809AF8D2
:10424000625014A806F10A011A469C46DCB2A54247
:104250001AD9048821F8062C224492B272800133C4
:10426000042B21F8024F00F10200EFD1BAF85C30C4
:1042700086ED058A13FB02F333800D9B33760E9B8C
:10428000BB810F9BFB81C2E521F806CC0024E6E749
:10429000104B0893104B0793104B06938CE7019A31
:1042A00002F1A003D3639EE70020E9E6657D0008E4
:1042B00078000020907C0108B47C010829070008E0
:1042C000707C0108287C01085C7C0108510700080B
:1042D00095070008E5760008F1760008ED910008E2
:1042E0002DE9F04F2DED048B0746C9B089464FF4F8
:1042F000A872B1492C20FFF721FD0646002857D0AF
:104300000446AE4B44F8043BAD4B03F5C2750FCDEC
:104310000FC40FCD0FC495E8030084E80300C9F86B
:1043200000603B79022B0AD9A64AA7490020FCF776
:10433000F9FB002049B0BDEC048BBDE8F08FA5F57A
:10434000D27202EB83033046D3F8AC4104F0C8FFCD
:1043500008B19E4B7360304604F0C2FF00B1B460F8
:104360003046BC6804F0BCFF00B134613046FC68E4
:1043700004F0B6FF00B17462304604F0B1FFD0B96A
:10438000D9F80070384604F0ABFFB8B9904E044637
:10439000D6F880308F4A884900209847204605F09B
:1043A00041FB0024201EC9F8044018BF0120C1E7CA
:1043B000C9F80000BDE70123B375E1E77E494FF47A
:1043C000BF724FF4867007F051FA0446002800F0DF
:1043D000A7800021804B036080F80411A0F806112B
:1043E0008C2225A807F1040A0DF0E8FC504606F0DF
:1043F00019FC002840F096800290504606F012FC0E
:104400000646002800F08C80504606F02BFB10F08A
:10441000010216D0029B9BB17B6A2693FB6927930E
:104420003B6A289302238DF894308DF8AC30BB7D25
:104430008DF896303B8BADF8A43001238DF8A93070
:10444000012210F00E0F3ED000234FF0010E029912
:10445000914200F0060540F297801C2101FB02FC0E
:104460000DF1940B25A9614497F814800BF80C808A
:10447000D7ED096A97F816C097ED077AD7ED087A55
:1044800081F802C0B7F818C0C1ED016A81ED027A67
:10449000C1ED037A81F801E0A1F810C0002D01F010
:1044A000188081F818E00B7581074CBF00F0FD0003
:1044B00000F0FB000133013210F00E0FDBB292B2BC
:1044C00001D0042BC3D1029A002A00F01B8225AB35
:1044D0001C2101FB023100221546104605E0012A8D
:1044E00008BF30461C33994204D05A78002AF6D1CE
:1044F0003546F7E7019598BB019B002B00F002823F
:10450000002384F84030FEF7DBFD054640B15046FD
:1045100006F088FB002840F01B862846FEF7E8FDE1
:104520002B4E35E7504606F09DFA00F0010310F0DF
:104530000E0F02933FF461AF1A1D10F0060F00F04A
:10454000E58585074CBF00F0FD0000F0FB0001335E
:1045500010F00E0F9BB201D09342EED102934CE7C4
:104560004FF0010884F84080FEF7AAFD834600283A
:10457000D6D0504606F056FB0590002838D1584654
:10458000FEF7B6FD124E03E7002D8DD11C2025A9A4
:10459000DDF808C000FB0210944503F1010506D9BF
:1045A000017E00EB010E01318EF814300176EBB282
:1045B000042BF1D187E700BFC47C010850D1C0AC07
:1045C000D0310108D87C0108FC7C01089A99993EF9
:1045D00078000020047F010830D1C0AC66664640F8
:1045E0003333A34033334B41000094410AD7233B7C
:1045F000504606F037FA0490504606F033FA0507A5
:1046000000F14A87410701F17280820740F18385FA
:10461000B989404606F01AF906460146404605F0BB
:1046200061FA16FB00F39BB207EE903A3B7D032B39
:10463000B8EE678A01F0C9801FED147AD7ED027ACF
:1046400048EE077A01261FED1B7AF4EEC77AF1EEE9
:1046500010FA00F16B851FED1E7AF4EEC77AF1EEC9
:1046600010FA01F18480B1EE0C7AF4EEC77AF1EE23
:1046700010FA01F171801FED257AF4EEC77AF1EEA0
:1046800010FA01F17F801FED287AF4EEC77AF1EE7F
:1046900010FA4CBF042305230693049B13F0020277
:1046A000039200F09380BE8997F8148097ED018AF9
:1046B0003146012006F0CAF801460546012005F002
:1046C00011FA0390B87B032828BF032042463146E5
:1046D00006F0FEF8D7ED020A0BF0D8FF039B15FB9E
:1046E00003F39AB2049B0392DB07F0EE408A00F1D9
:1046F000EC87039EB8F1030F01F03D804FF00008F6
:10470000F0EE480AB0EE480A284606F063FAF0EEEA
:10471000680AB0EE480A0790284606F05BFA079B45
:10472000D7ED048A834208BF581907EE900A9B1BF5
:10473000039EB8EEE78A06445FED547AB87DA3EB9A
:104740000803464428EE278AF61A039306F0EAFA8D
:10475000F0EE680AB0EE401A2946B0EE480A012091
:1047600006F0F4F8039B8046194600225846FEF7EF
:1047700009FDB6B200225846B6FBF5F63146FEF703
:1047800027FD294600225846FEF748FD0022012158
:104790005846FEF769FD414600225846FEF78AFD5D
:1047A00000220A215846FBF74DFF002201215846FE
:1047B000FBF76EFF002201215846FBF78FFF069999
:1047C00000225846FEF7A6FD01230393049B03F045
:1047D00008025E07079200F1B585079B002B00F0E9
:1047E0006884049B97ED018ABE7BBD8997F814808D
:1047F000580740F0A2872946304606F027F80546BC
:1048000007900146304605F06DF9049AD7ED028A0B
:1048100015FB00F39BB232F008020B9316BF5B004E
:104820000B9B9BB2B8F1030F0C9300F09987002308
:104830000A93039BF4EEC88AC3F10503DBB2F1EEE1
:1048400010FA1A46049300F16C8507EE903AF8EEE0
:10485000677AF7EE006A38EEC87A77EEE67A11AB3F
:10486000C7EE276A501E1946002295B201328242D5
:1048700007EE905AF8EE677AB0EE487A07EEA67A1D
:10488000A1EC017AF1D3049A48A901EB820242ED2E
:10489000388A0026CDE908741FEDAC8A079D37469B
:1048A000049E0DF158081C46B4EC010A80EE080A7B
:1048B0000BF03EFBFDEEC07A17EE902A92FBF5F26C
:1048C00005FB02F248F827200137FAB2B242EBD3D7
:1048D000DDE90874022304981E46A44648AA02EBA8
:1048E000860258F8264052F8CC5CAC42194608EBD8
:1048F000860200F04B830133DBB2834280F05683A3
:104900001EB2EBE74FF00008236D0993AF49636DCA
:104910007D7D0A9382224FF4357006F0A7FF079041
:10492000002800F000870799029BA1F844300A464E
:10493000A74B0B60002002F8045FCDE903000DF1E6
:10494000A703DFF89CB2CDF81890019008920D975C
:104950000594CDF838809946BDF80430029A9A4201
:1049600040F2F48119F8132C0B92DDE9091219F8C1
:10497000123C0C93002B08BF0A46A9F11305904680
:104980000FCD16AF3C460FC499F805A02B682360E5
:10499000BAF1040F00F201818E4940F2D312DC20FB
:1049A000FFF7CCF90446002800F0C18100F1180699
:1049B000C422002130460DF001FAA446864B4CF883
:1049C000043B0FCFACE80F003B68CCF80030CE467C
:1049D000002584F81DA0EBB29A4505D91EF8013FC9
:1049E00006F8013F0135F6E76379002B40F0388186
:1049F000A27E04F11A064FF0010AB8F1000F00F090
:104A0000FD80D8F8003075498B4200F01B81744B53
:104A1000744AD3F880307449002098470023E36239
:104A20003278D8F800306D498B4200F0FD806C4B35
:104A30006C4AD3F880306C490020984700232385C6
:104A40003278D8F8003065498B4200F0B680DBF848
:104A50008030644A644900209847022304F13C07EF
:104A6000A37700253B46258647469846EBB253453B
:104A70004CD23378002F42D03A6858498A421BD032
:104A8000DBF88030574A58490020984733783A6815
:104A900052498A421FD0DBF880305349514A0020E6
:104AA0009847002305F11002013624F81230238EB6
:104AB00028F8023F0135D9E7032B16D9DBF88030FF
:104AC0004A4A4949002098473A680023218E0B44FE
:104AD00023863378DCE7032B0CD9DBF88030434A9C
:104AE0004149002098470023DCE7142101FB0373B0
:104AF0001B89EBE7142202FB03739B89D2E7DBF8E7
:104B000080303949374A38469847C4E76379B84610
:104B1000002B40F0B480A4F86030238E228E03EB8B
:104B200083035B009BB2218DA07FA4F86230002933
:104B300040F0E1800123B2EB430F63874FEA430566
:104B400040F2928004EB4A07A387BE8F9E4280F01A
:104B50000082234E264AD6F880301E490020A24605
:104B6000DDE905499847234AD6F8803019490020E5
:104B700000259847B36FCAF8005050469847019BEC
:104B8000079A023342F82350079B00251D60184600
:104B900004F02AFFE563FFF7FBBB114E164AD6F877
:104BA00080300C490020DDE905499847019B0799B1
:104BB0000233002241F82320E6E7032A2FD9DBF84D
:104BC00080300A4A08490020984746E7787D010866
:104BD00052D1C0ACB87D0108E1AFA10F0FB03713BF
:104BE00078000020DC710108F4710108FC710108F3
:104BF000347E0108A87E01080C740108DBF88030BF
:104C0000794A7A4940469847DBF88030764A7749B6
:104C1000C4F82C8040469847A4F8288017E714234E
:104C200003FB0282137D19E7032A5AD9DBF880308F
:104C30006F4A6E4900209847D8F80030002222853C
:104C4000327800E7032A51D9DBF88030684A674997
:104C500000209847D8F800300022E2623278E2E67D
:104C6000627E04F11906C8E6624E634AD6F88030C7
:104C700062490020A246DDE90549984773E7657E51
:104C8000594E2B4600274546A4F8607098460CE024
:104C9000DBF8803055493246002098470023B4F8AD
:104CA000602013440137A4F86030FBB2434515D2AD
:104CB000002DEDD02B68524A9342E9D1032F06D93B
:104CC000DBF880304A4A494900209847E6E7142338
:104CD00007FB03F305F10802D35AE0E7228E1346DF
:104CE00021E7142101FB02825289A8E7142101FB6C
:104CF00002825268B1E7431EDBB2042B07EE901A22
:104D000094BF404DDFED406AB8EE677ADFED3F7A41
:104D10009CBF05EB8303D3ED6E6A27EE277AC6EEC0
:104D2000877AFCEEE77A17EE903A9BB203E7314EB2
:104D3000374AD6F8803031498246DDE9054998473F
:104D4000019B079A023342F823A01DE7DDE9069391
:104D5000059C039AC3F8CC22049AC3F8D022E363DB
:104D6000636C1593A36C1293E36C0D9F1493636DA6
:104D700013930025236DDDF83880656011930DF1E4
:104D8000440A2E46BB465AF8047B38469FB1FDF7CD
:104D900013FC20B116A9381DFDF716F930B9EB1C2C
:104DA00023F00303134EA360FFF7F2BABDF85830A7
:104DB0009D4238BF1D460136B6B2052EE3D1EB1C2D
:104DC00023F00303C4E90233E36B5F461BB1114ACE
:104DD0001968914224D0074E0F4AD6F880300F4907
:104DE00000209847FFF7D4BADC710108F47101087C
:104DF000FC71010878000020FC7D0108B87D0108E5
:104E00000FB03713D0310108000000000AD7233B50
:104E1000D47D010852D1C0ACE87E0108787D01083C
:104E2000D3E9B325B2F5E86F38BF4FF4E862002349
:104E300022612375204604F037FA0646204604F026
:104E400017FA18B13B7D023B5842584180F00100EF
:104E500086F0010684F8420084F84160204604F0A0
:104E600007FA00286DD1B8F1000F5DD143461A1D35
:104E70001544C4E90A322A1D4FF48033C4E90C52A8
:104E8000A363FEF71DF9054600283FF449AB002255
:104E90006FF01D01FEF776F9002232212846FEF759
:104EA00097F9002201212846FEF7B8F90022402197
:104EB0002846FEF7FFF9284600221021FBF7C2FB27
:104EC0002846FDF779FB08B10123EB73002201218D
:104ED0002846FBF7DDFB284600220121FBF7FEFBFD
:104EE0002846FDF769FB08B10123AB7400220121BC
:104EF0002846FEF7B9F9002202212846FEF70AFAF1
:104F000001212846FEF7FCF901212846FEF730F979
:104F100004F16C012846FEF727FF00283FF4FDAAA4
:104F20006564A065FFF73EBA0123A3830023A36154
:104F3000042300289BD004222362A08412FB0033A8
:104F400095E7606DFDF752FBB8F1000FECD14346D9
:104F5000EFE7F61ABE87551BE26A258701FB03239C
:104F6000272A6363CCBF0022012204F1480304F026
:104F7000E5FD002840F0B0826F4E704AD6F88030D0
:104F80006F49A246DDE905499847ECE501386446DA
:104F900003E0556842F8045B01318142F9D3C0B2A5
:104FA0009842A44602D902287FF498AC059B04904D
:104FB0006446002B3FF4E3AA049BCDF83C90591EB5
:104FC000C9B200234A1E9FED619ADDF81C90089239
:104FD000CDE90DCA0991C2461E46039B9C19E4B255
:104FE000DAF800305AF8042F1EB90C995B1A0A99A6
:104FF0005B1A0899B14200F0A081154607EE902A8D
:10500000B87D97F80E800593B8EEE78AED1AD7EDD4
:10501000048A05F087FE28EE098AB0EE401AF0EE09
:10502000680AB0EE480A4946404605F08FFC059BE9
:105030008046194622465846FEF7A4F8ADB22246ED
:105040005846B5FBF9F52946FEF7C2F8224649460F
:105050005846FEF7E3F8B97B22465846FEF704F9B6
:10506000224641465846FEF725F922460A2158466F
:10507000FBF7E8FA224601215846FBF709FB2246D6
:1050800001215846FBF72AFB224606995846FEF7AF
:1050900041F90136099AF3B293429ED3039B049AD5
:1050A000DDF83C90013B52FA83F3DDE90D4ADBB2B7
:1050B0000393039B002B3FF462AA03995846FEF723
:1050C00057F858460121FEF71BF9584697F8296012
:1050D000FDF772FA08B18BF86A6004F1DC015846FA
:1050E000FEF742FE00283FF44AAAA066C4F854B076
:1050F000584604F1A40304F1600204F14C0104F0E9
:1051000007F900283FF40CAAFFF7F6B901339BB268
:105110000293FFF772B9084E96F888302BB1D6F893
:105120008030084A0849404698470326731E18BF36
:1051300001230693FFF7B1BA78000020807E0108B2
:10514000B87D01080C7D0108307D01080AD7233B9A
:10515000504605F087FC10F0010F80463FF4DDA9B2
:10516000BE893A7DD7ED028A97ED018A314601204A
:1051700005F0AEFBF0EE400AB0EE680A0BF086FADE
:1051800031460120F0EE408A05F060FB06460146FC
:10519000012004F0A7FC16FB00F318F0060F1FFA1D
:1051A00083FB18BF4FEA4B03F0EE480AB0EE480A03
:1051B00030460CBFDA461FFA83FA05F00BFDF0EE1D
:1051C000680AB0EE480A8046304605F003FD07EE57
:1051D000900A0AEB0003B8EEE78AA8EB0B085FED34
:1051E000257AB87DD7ED048AA3EB080328EE278A39
:1051F0009BB2B3FBF6FB05F095FDF0EE680AB0EE4E
:10520000401A3146B0EE480A012005F09FFB00220B
:10521000114682462846FDF7B5FF002201212846A7
:10522000FDF7D6FF002201212846FDF7F7FF0022F7
:1052300004212846FEF718F8002251462846FEF7BA
:1052400039F800220F212846FBF7FCF90022012142
:105250002846FBF71DFA284600220121FBF73EFAFB
:105260002846FDF7A9F908B10123AB7400220121FA
:105270002846FEF74FF8414601222846FDF782FFF7
:10528000594601222846FDF7A3FF31460122284650
:10529000FDF7C4FF012211462846FDF7E5FF514600
:1052A00001222846FEF706F8012205212846FBF7D1
:1052B000C9F9012211462846FBF7EAF901221146F5
:1052C0002846FBF70BFA012211462846FEF722F882
:1052D00002212846FDF74CFF28460A21FEF710F868
:1052E000284697F82960FDF767F908B185F86A60E4
:1052F00004F1C0012846FEF737FD00283FF40DA950
:1053000060662565284604F1880304F15C0204F117
:10531000480103F0FDFF804600283FF401A9FFF794
:10532000F3BAC94EC94AD6F88030C9490020984717
:105330000023059311ABFFF7ACBA0B998D180A99AE
:105340000D445BE6BE8997F8148097ED018A3146DB
:105350004246032005F0BCFAF0EE400AB0EE480ADF
:105360000BF076F942463146B87BD7ED028AB0EEB3
:10537000408A05F0ADFAF0EE400AB0EE680A0BF094
:1053800085F931460320F0EE408A05F05FFA0646C3
:105390000146032004F0A6FB049A16FB00F39507D0
:1053A0009BB21ABF5A0095B21D46B8F1030F00F028
:1053B00004824FF00008F0EE480AB0EE480A30468A
:1053C000099305F007FCF0EE680AB0EE480A089071
:1053D000304605F0FFFB089A099BD7ED048A82420C
:1053E00008BF901907EE900A521B0344A2EB080273
:1053F000B8EEE78A4344DFED9C7AB87D08929B1AA9
:105400009BB228EE278AB3FBF6F805F08BFCF0EE92
:10541000680AB0EE401A3146B0EE480A032005F0A3
:1054200095FA089A054611465846039AFDF7AAFED2
:105430004146039A5846FDF7CBFEDDF80C80314615
:1054400042465846FDF7EAFE424603215846FDF71C
:105450000BFF424629465846FDF72CFF42460A21DB
:105460005846FBF7EFF8424601215846FBF710F982
:10547000424601215846FBF731F906994246584603
:10548000FDF748FF43460133DBB20393079B002B34
:105490003FF413AEFFF7A5B9BE7BB989304605F0DE
:1054A000D5F980460146304604F01CFB18FB00F39A
:1054B0009BB207EE903A3B7D032BB8EE678A00F073
:1054C00071819FED697AD7ED027A48EE077AFFF78E
:1054D000BAB80D76FFF75AB8D4ED026A2379B1EE67
:1054E0000C7AF2EE007A46EEC77A022BC4ED157AFA
:1054F00059D9032B40F04A81228DA37FDFED5A6AF0
:10550000DFED547A07EE102AB8EE477A013B27EE1A
:10551000267ADBB2042BB4EEE77A00F26C81F1EE6E
:1055200010FA40F36B814C4901EB8303D3ED6E6AB3
:10553000B5EE006A26EE866AF7EE005AC6EE077AE6
:10554000F4EEE57AF1EE10FA40F36681FCEEE77ACC
:1055500017EE903A9BB2F1EE007A66EEA77AF6EE7D
:10556000006A67EEA67AC7EE876AA4F85830FCEEA8
:10557000E66A16EE901A89B20B449BB2A4F85A1050
:10558000A4F85C30E16A30339BB28B4208DB002A1E
:1055900040F03881A2462C4EDDE90549FFF7E3BA19
:1055A0000023A4F85E300B9B218F022B71D00022C8
:1055B0000C98238E78B903EB8300400080B2C4F8C6
:1055C000A820A4F8B00002EB80020A20C4F8B4209E
:1055D000A4F8BC0028320C335B0001F11F009BB221
:1055E000A4F8703040099B006367A4F87C0003EBCB
:1055F00080030020A066480889074FF0010148BFDA
:10560000013021760899C4F8803003EB4003A4F8F8
:105610008800C4F8D820C4F88C3041F8044F0398AF
:1056200048610498886208910C48216881421DD025
:10563000054E0B4AD6F880300A490020DDE90549BD
:105640009847FFF7A1BA00BF78000020547D0108F9
:10565000307D0108ACC52737D0310108E1AFA10F7B
:10566000CC7E0108B87D01080AD7233B0399033398
:1056700023F0030319440332049B039122F0030235
:1056800013440493019B0133019309F11C09FFF7B3
:1056900063B900226379C4F890208A00A4F89810B6
:1056A000C4F89C207BB1637FA4F8A43002EB830391
:1056B000C4F8C0301344A4F8C810C4F8CC301A445D
:1056C000A4F8D41074E70123EEE7314642460120E6
:1056D00005F0FEF8F0EE400AB0EE480A0AF0B8FF16
:1056E000039B5B00B0EE408A9EB2FFF703B8B98916
:1056F000032005F0ABF806460146032004F0F2F95A
:1057000016FB00F39BB2387D07EE903A0328B8EE03
:10571000678A66D01FED2C7AD7ED027A032648EE11
:10572000077AFEF790BF3D4E3D4AD6F880303D499E
:105730009847079BE363FEF72BBE42462946304657
:1057400005F0C6F8F0EE400AB0EE480A0AF080FF15
:10575000B0EE408AFFF74FB802230693FEF79DBFD5
:105760000799304605F01EFA0A90FFF762B8012348
:105770000693FEF792BF2946012005F013FA8046F2
:10578000FEF7BEBF03230693FEF787BF234E264ACC
:10579000D6F8803025490020A246DDE90549984722
:1057A000FFF7E1B94146304605F0FCF907EE900AF3
:1057B000F8EE677A38EE278A83E64046314608934A
:1057C00005F0F0F9089B8046F5E53146404605F0C6
:1057D000E9F907EE900AF8EE677A38EE278AFEF7C5
:1057E0002BBF314605F0DEF907EE900AF8EE677A36
:1057F00038EE278A8EE7F1EE10FA0BDCF7EE006A3E
:105800000123B2E65B1A9BB2B3FBF2F30133A4F8B7
:105810005E30C8E6DFED066A01239CE678000020D2
:10582000987D0108787D0108647E0108B87D010833
:10583000000000002DE9F04F2DED068B074685B0E6
:105840000C4696228E49682006F010F8054600287E
:1058500000F0FC808B4B0126C0E90036FDF730FCE0
:1058600040F20113A5F840301823A5F844304FF456
:105870008073A5F85C30844BAB642B63834BAB63C4
:10588000834B6B62834BAB62834BEB62834B2B6529
:10589000834B2B61834BEB64834A844B2A66AB6555
:1058A0004FF080424FF07C53E8636A63EB61804ABB
:1058B000804B85F842604FF07E51002085F85E6095
:1058C000A9616A6185F854002B62A5603B79022BBF
:1058D00009D9794A7949FBF725F9002005B0BDECD3
:1058E000068BBDE8F08FDFF8F08108EB83032846D4
:1058F000D3F8CC6105F032FA08B1714BAB6428469D
:1059000005F02CFA00B1EE64284697F8286005F0FF
:1059100025FA08B185F85C6028467E6A05F01EFA13
:1059200000B16E61284605F019FA08B1594BAB6217
:10593000284605F013FA08B1534B2B6328463E6AFC
:1059400005F00CFA00B1AE61284605F007FA08B17F
:105950004F4B6B6228467E6905F000FA00B12E625B
:10596000284605F0FBF910B14FF07C53EB61284657
:1059700005F0F4F910B14FF080436B63284605F051
:10598000EDF908B100232B82284605F0E7F910B1A4
:10599000012385F85E3028463E8B05F0DFF908B11B
:1059A000A5F850602846FE6905F0D8F900B12E66CA
:1059B00028467E6905F0D2F900284FD1A668304606
:1059C00005F0CCF9002851D02D494FF494723820BD
:1059D00005F04CFF0546002842D0D6ED128A96F815
:1059E0005E309FED3E8A374A96ED139A026088EE4C
:1059F000880A0662002B73D005F01EFFF0EE408A85
:105A000089EE080A05F018FF68EE888A9FED2E9A45
:105A100020EE088AB4EEC98AF1EE10FA40F2A682AE
:105A2000F4EEC98AF1EE10FA40F3C9820021F0EEDB
:105A3000480AB0EE680A0422304605F0F9FD014636
:105A4000F06BFDF795FB0DF10809AFE01F4B204A05
:105A5000D3F880300A499847A5603EE7AE65ADE7C8
:105A60001A4B1C4AD3F88030054998470025284630
:105A700005F0A8F90025281EE56018BF01202DE7D4
:105A8000287F010802B137139A99993E0000A0407F
:105A9000CDCC4C3E9A99193E0000204110002000C8
:105AA00003000101000020400000A041000040412F
:105AB0006666A63F0000C040D87C0108FC7C010857
:105AC000CDCC4C3F01B137130AD7233F78000020DB
:105AD0003C7F01085C7F0108D03101080AD7233BD5
