:020000040800F2
:1000000000000120093E0108491A00084D1A0008A5
:10001000511A0008551A0008591A0008000000007B
:100020000000000000000000000000005D1A000851
:10003000611A000800000000651A0008691A00082B
:10004000593E0108593E0108593E01087D1A000831
:10005000593E0108593E0108593E0108593E010820
:10006000593E0108B91A0008593E0108593E0108D5
:10007000CD1A0008D91A0008593E0108593E010856
:10008000E51A0008F11A0008593E0108593E010816
:10009000593E0108593E0108593E0108593E0108E0
:1000A000593E0108593E0108593E0108593E0108D0
:1000B000593E01080000000000000000593E010800
:1000C000593E0108FD1A0008593E0108593E010831
:1000D000593E0108593E01087D550008593E010866
:1000E000251B0008391B000800000000000000006C
:1000F0000000000000000000000000000000000000
:1001000000000000593E010800000000593E0108AF
:100110000000000000000000593E0108593E01089F
:10012000593E0108593E0108593E0108593E01084F
:10013000593E01080000000000000000000000001F
:10014000593E0108593E0108593E010800000000CF
:10015000593E0108593E0108593E0108593E01081F
:10016000593E0108593E0108593E010800000000AF
:10017000593E0108593E010800000000000000003F
:10018000593E0108593E0108593E0108000000008F
:1001900004230360704700BF014B0360704700BF3A
:1001A000000D010072B6BFF34F8FBFF36F8F0E4B80
:1001B00000211A68196062B6BFF34F8FBFF36F8FCB
:1001C00002F00103910748BF43F00203510748BF03
:1001D00043F00403110748BF43F00803D20648BFA9
:1001E00043F01003036070478000002072B6BFF335
:1001F0004F8FBFF36F8F044BDB6862B6BFF34F8F37
:10020000BFF36F8F036070478000002072B6BFF3AA
:100210004F8FBFF36F8F044B5B6962B6BFF34F8F95
:10022000BFF36F8F036070478000002072B6BFF38A
:100230004F8FBFF36F8F0E4B5A6832B1002062B6FA
:10024000BFF34F8FBFF36F8F70479A68094910B49F
:1002500042F480224FF400748C62C3E90102012051
:1002600062B6BFF34F8FBFF36F8F5DF8044B7047DB
:10027000800000200004004872B6BFF34F8FBFF328
:100280006F8F044B9B6862B6BFF34F8FBFF36F8FC6
:100290000360704780000020094B93F82430012B45
:1002A0000AD0022B05D0002B0CBF0A2300230360C9
:1002B000704728230360704714230360704700BF12
:1002C0008000002014280FD0282807D00A2810D139
:1002D000094B002283F8242001207047064B02229C
:1002E00083F8242001207047034B012283F8242047
:1002F000F2E70020704700BF80000020024B93F817
:1003000025300360704700BF800000200038034B99
:1003100018BF012083F825000120704780000020CD
:10032000054B9FED067AD3ED0A7A67EE877AFCEEED
:10033000E77AC0ED007A70478000002000007A4420
:1003400007EE900ADFED056A054BF8EE677A0120AB
:1003500087EEA67A83ED0A7A704700BF00007A44E0
:1003600080000020054B9FED067AD3ED0B7A67EEF7
:10037000877AFCEEE77AC0ED007A704780000020B3
:1003800000007A4407EE900ADFED056A054BF8EEAF
:10039000677A012087EEA67A83ED0B7A704700BF5B
:1003A00000007A4480000020024B93F83030036054
:1003B000704700BF800000200038034B18BF0120A9
:1003C00083F830000120704780000020054B9FED2E
:1003D000067AD3ED0D7A67EE877AFCEEE77AC0ED08
:1003E000007A70478000002000007A4407EE900AEF
:1003F000DFED056A054BF8EE677A012087EEA67AF5
:1004000083ED0D7A704700BF00007A448000002021
:10041000014B1B8F0360704780000020014B188741
:100420000120704780000020054B9FED067AD3ED38
:100430000F7A67EE877AFCEEE77AC0ED007A7047B4
:100440008000002000007A4407EE900ADFED056A84
:10045000054BF8EE677A012087EEA67A83ED0F7AD6
:10046000704700BF00007A4480000020054B9FEDDC
:10047000067AD3ED107A67EE877AFCEEE77AC0ED64
:10048000007A70478000002000007A4407EE900A4E
:10049000DFED056A054BF8EE677A012087EEA67A54
:1004A00083ED107A704700BF00007A44800000207E
:1004B000054B9FED067AD3ED117A67EE877AFCEE55
:1004C000E77AC0ED007A70478000002000007A448F
:1004D00007EE900ADFED056A054BF8EE677A01201A
:1004E00087EEA67A83ED117A704700BF00007A4448
:1004F0008000002072B6BFF34F8FBFF36F8F134A97
:10050000B2F9743162B6BFF34F8FBFF36F8F72B61B
:10051000BFF34F8FBFF36F8F92F8591162B6BFF3DD
:100520004F8FBFF36F8F72B6BFF34F8FBFF36F8FD5
:1005300092F8782162B6BFF34F8FBFF36F8F9BB2F3
:1005400043EA414343EA824303607047800000204E
:1005500072B6BFF34F8FBFF36F8F084BD3ED577A4F
:1005600062B6BFF34F8FBFF36F8F9FED057A67EED3
:10057000877AFCEEE77AC0ED007A704780000020B1
:1005800000007A4472B6BFF34F8FBFF36F8F084BF2
:10059000D3ED587A62B6BFF34F8FBFF36F8F9FEDE5
:1005A000057A67EE877AFCEEE77AC0ED007A70474D
:1005B0008000002000007A4472B6BFF34F8FBFF373
:1005C0006F8F064BD3ED597A62B6BFF34F8FBFF3EF
:1005D0006F8FFCEEE77AC0ED007A70478000002054
:1005E00072B6BFF34F8FBFF36F8F054B93F879311E
:1005F00062B6BFF34F8FBFF36F8F0360704700BFCA
:100600008000002072B6BFF34F8FBFF36F8F084B8F
:10061000D3ED5F7A62B6BFF34F8FBFF36F8F9FED5D
:10062000057A67EE877AFCEEE77AC0ED007A7047CC
:100630008000002000007A4472B6BFF34F8FBFF3F2
:100640006F8F084BD3ED607A62B6BFF34F8FBFF365
:100650006F8F9FED057A67EE877AFCEEE77AC0ED43
:10066000007A70478000002000007A4490F824C08F
:10067000BCF1010F3CD070B590F825C00124A44511
:1006800080F824405FFA8CFE04D0002380F82430E8
:10069000022070BD022580F8255004680025C5633E
:1006A0002668456C26F00106266005F01C05066CE0
:1006B0000EFA05F5756063608368102B036B0BBF42
:1006C000A260A160E160E2604BB1236843F00E03D9
:1006D0002360236843F001030020236070BD23687A
:1006E00023F004032360236843F00A032360F0E748
:1006F000022070472DE9F041814C002384F88431B9
:1007000094F8E531012B0D46D4F88C1109D0B1F5E0
:10071000827F6BD1D8B2D4F89031002B66D10428F7
:1007200064D1002D62D092B2002A5FD094F8E431F7
:10073000012B5BD094F8E531D4F88861C4F8C0513E
:10074000042B1CBF052384F8E53101210023C4F8E4
:10075000E83184F8E411A4F8C621A4F8CE21C4E954
:1007600075337368A4F8C42123F4C043C4F8C85196
:10077000A4F8CC217360D4F89431D4F8E001B3F537
:10078000E06F35D8D4F8DC3199697368B1F5806FC2
:1007900043F48053736000F086808369B3F5806F03
:1007A0006DD094F8E531574A042B574B18BF1346C8
:1007B000564A0363564B4363564B18BF1346C362F6
:1007C000B4F8CE314FF00008C0F838809BB206F183
:1007D0000C012A46FFF74AFF074670B1D4F8E8310A
:1007E00084F8E48143F01003C4F8E831BDE8F081F7
:1007F000736823F480537360D3E77368D4F8DC0123
:1008000043F001037360B4F8C6310A46C0E90B77C0
:10081000C0E90D7729469BB2FFF728FF00284FD18A
:1008200033685B0626D5002384F8E431736843F00F
:1008300020037360736843F002037360D4F8EC2103
:1008400094F88431002BD1D141F287310BE072B69C
:1008500094F8843103B930BF62B6BFF36F8F94F858
:100860008431002BC2D1D4F8EC319B1A8B42EED9E3
:10087000BDE8F081336843F040033360D3E7736829
:1008800023F480537360B4F8CE3113F0010F736812
:100890001FD123F400537360B4F8CE31C3F34E0379
:1008A000A4F8CE317DE7D20773681DD423F48043CA
:1008B0007360B4F8C631C3F34E03A4F8C6316CE7D5
:1008C000D4F8E83184F8E47143F01003C4F8E83157
:1008D0008CE743F400537360B4F8CE31C3F34E0396
:1008E0000133A4F8CE315CE743F480437360B4F87D
:1008F000C631C3F34E030133A4F8C6314DE700BF40
:1009000080000020890C0008850C0008E51600080E
:100910008D0C00083516000870B4436C066C056831
:1009200031682C6803F01C0304229A400A420ED05E
:1009300014F0040F0BD02B689B0603D42B6823F014
:1009400004032B60036B7260CBB170BC18470222AA
:100950009A400A4215D014F0020F12D02B68990663
:1009600006D42B6823F00A032B60012380F825307E
:10097000C36A7260002180F82410002BE5D170BC9E
:10098000704708229A400A42F9D02207F7D52A6810
:10099000416B22F00E022A60012202FA03F30024C6
:1009A0007360C26380F8244080F825200029E6D0D7
:1009B00070BC0847002310B480F8423090F8412002
:1009C000212A4FF0200118D1112280F84110026332
:1009D00090F84110046801F0280122684363282937
:1009E00014BF6FF0F2016FF042010A400023226051
:1009F0005DF8044B80F840307047122280F84110B7
:100A0000026390F84120016802F028020C684363F9
:100A1000282A14BF6FF0F4026FF044022240002332
:100A20000A605DF8044B80F840307047264A9368AE
:100A3000D26813F00C0305D00C2B32D0042B3ED11E
:100A400022487047204A1168090754BFD2F8942001
:100A500012681F4954BFC2F30322C2F3031251F8B4
:100A60002200002BEDD0184BDB6803F00303022BB0
:100A700023D0184A032B08BF1046134BD968DA68F5
:100A8000DB68C3F34163C2F30622C1F302110133F1
:100A900000FB02F201315B00B2FBF1F2B2FBF3F0BA
:100AA000704702F00302012ACCD0074BDB6803F049
:100AB0000303022B4FF00000DBD10448DDE7082BD5
:100AC000044818BF00207047001002400024F400C2
:100AD000B873010800127A0021498B6DDB0082B0E7
:100AE0001CD5204B1B6803F4C063B3F5007F29D0ED
:100AF00080282ED831D0A0F17002B2FA82F25209C9
:100B000019490B6823F0070313430B60086800F0D2
:100B10000700801A18BF012002B070478B6D114A80
:100B200043F080538B658B6D03F080530193019BE1
:100B300013688A6D03F4C06322F08052B3F5007F1E
:100B40008A65D5D1802806D9A0288CBF022201222F
:100B5000D6E70322D4E70022D2E70222D0E700BF83
:100B6000001002400070004000200240434A036829
:100B700030B4D468A40707D0D46804F003049C42BE
:100B80004AD0012030BC7047022B56D0032B4DD0E9
:100B9000012BF6D112689207F3D5384CE26822F0A7
:100BA000730213434268013A43EA0213E360334C91
:100BB000334A236823F080632360D2F8EC5104E0C9
:100BC000D2F8EC315B1B022B3BD823681B01F7D416
:100BD00083681B02002936D12169C56821F078415C
:100BE00021F4FE4143EAC5630B43236123490B68AB
:100BF00043F080630B60D2F8EC4104E0D2F8EC31B2
:100C00001B1B022B1DD80B681B01F7D582690B69D2
:100C1000134300200B61B5E7002CB2D0D3684268C3
:100C2000C3F3021301339342ABD1C0E71468A403AA
:100C3000B3D412685203A4D5AFE712685505A0D506
:100C4000ABE703209EE7012921690BD021F0C061A9
:100C500021F4FE41194343695B08013B41EA4361CA
:100C60002161C3E721F4C00121F4FE410B43016976
:100C70004908013943EA41532361B7E700100240B4
:100C800080000020704700BF704700BF836A19686A
:100C90004A6822F003024A601A6E4FF0010C42F0DB
:100CA00010021A6683F85DC0704700BF836A002295
:100CB000A3F85A20A3F85220704700BF104B4FF4FE
:100CC000805210B59A6110F0EBFA0E4BDC691CB142
:100CD0000D4A216891420AD0D3F800320B4A0C49E0
:100CE000002098470B4815F0D7FA002010BDA068E7
:100CF00009F0ECF8A068012109F04CF9012010BDC1
:100D000000040048800000200EB0371340B40108F2
:100D100058B4010860B4010870B5114E114A336827
:100D2000A2FB03239B09013BB3F1807F01D3012088
:100D300070BD4FF0E0220C495361F02381F823305D
:100D4000002507230F28956104461361EFD801465B
:100D50004FF0FF3010F05AFA7460284670BD00BFA3
:100D600000000020D34D621000ED00E0F0B58D4B87
:100D700002689D68DE680446D00683B005F00C0565
:100D800006F0030640F13481002D40F0FA80854BD7
:100D90001B68990700F16681824B276A1A6812075F
:100DA00056BFD3F894301B681B0903F0F0039F4231
:100DB00000F2E8817B4B1A6842F008021A601A6858
:100DC00022F0F0023A431A605A68E16922F47F4245
:100DD00042EA01225A60002D00F00B82FFF726FE46
:100DE000704B9A68704BC2F3031213446F4A93F826
:100DF000303003F01F0320FA03F350681360FFF74D
:100E00008BFF002840F033812268D00700F1F48086
:100E100090071FD50C2D00F0CD81E3686148002BB1
:100E200000F08481036843F480730360604BD3F85F
:100E3000EC6105E0D3F8EC11891B022900F24D8129
:100E400001684905F6D54368216923F0F85343EA60
:100E500001634360160718D563695248002B00F000
:100E60001481D0F8943043F00103C0F89430504B13
:100E7000D3F8EC6105E0D3F8EC11891B022900F2EC
:100E80002C81D0F894108907F5D550073ED5454BF5
:100E9000996DC90000F14881996D41F080519965C3
:100EA0009B6D03F080530193019B0120414E3368F9
:100EB000DF0540F102813E4BA168012900F0478126
:100EC000052900F0AA81374ED6F8907027F0010767
:100ED000C6F89070D6F8907027F00407C6F89070A6
:100EE000002940F03B81D3F8ECC141F2883706E09D
:100EF000D3F8EC11A1EB0C01B94200F2EE80D6F868
:100F000090108907F4D4002840F06D81970618D519
:100F1000636A2449002B00F05181D1F89820244BBA
:100F200042F00102C1F89820D3F8EC0105E0D3F8B3
:100F3000EC21121A022A00F2D080D1F898209607EC
:100F4000F5D5A36ADBB1022B00F075810C2D00F002
:100F50008D801449164B0A6822F080720A60D3F81B
:100F6000EC0105E0D3F8EC21121A022A00F2B58058
:100F70000A689201F6D4CA680F4B1340CB60002078
:100F800075E00C2D00F09580A3690648002B00F059
:100F9000A7800168064B41F001010160D3F8EC71B4
:100FA00012E000BF00100240B873010800000020EA
:100FB0008000002000700040FCFFEEFED3F8EC1132
:100FC000C91B022900F2898001688907F6D50368E8
:100FD00043F0080303600368216A23F0F0030B4326
:100FE00003604368E16923F47F4343EA01234360DC
:100FF000D30722D5082D3ED00C2D3AD06368B3F527
:10100000803F7ED0B3F5A02F00F0FA8095480168AC
:1010100021F480310160016821F480210160002BFE
:1010200074D1914BD3F8EC7104E0D3F8EC11C91BE7
:10103000642952D801688903F7D497077FF50AAF6E
:10104000042D7FF4E7AE874B1B68580501D5E36894
:1010500063B1844920694B6823F0F85343EA006385
:101060004B60F7E6A369002B7FF496AE012003B036
:10107000F0BD032EC2D17B4B1B689F037FF5C8AE2A
:101080006368002B7FF4C4AEF0E7D0F8943023F00F
:101090000103C0F89430744BD3F8EC6104E0D3F84A
:1010A000EC11891B022918D8D0F894108F07F6D4B8
:1010B000EBE6012E7FF468AF69E6336843F4807392
:1010C0003360694BD3F8EC713168C9053FF5F4AE74
:1010D000D3F8EC11C91B0229F6D9032003B0F0BDE7
:1010E0000168614B21F001010160D3F8EC7104E06B
:1010F000D3F8EC11C91B0229EFD801688907F7D48E
:1011000076E758490B6843F480330B60564B5548DB
:10111000D3F8EC7104E0D3F8EC11C91B6429DCD8D6
:1011200001688903F7D588E70020BFE6036823F448
:10113000807303604C4BD3F8EC6104E0D3F8EC11FE
:10114000891B0229C9D801684F05F7D482E6454EAC
:10115000D6F8901041F00101C6F89010D3F8ECC118
:10116000404E41F2883705E0D3F8EC11A1EB0C01B9
:10117000B942B2D8D6F890108907F5D500283FF4C7
:10118000C5AE30E03846FFF7A7FC00287FF46EAF0D
:10119000344B1A6842F008021A601A6822F0F00212
:1011A0003A431A605A68E16922F47F4242EA012216
:1011B0005A6013E6022E7FF430AE44E7D1F898204F
:1011C000294B22F00102C1F89820D3F8EC0105E088
:1011D000D3F8EC21121A022A3FF67FAFD1F89820FB
:1011E0009207F5D4ADE61F498B6D23F080538B65D4
:1011F0008CE63846FFF770FC00283FF4EFAD35E78A
:1012000003F18043A3F53C33196841F48021196050
:10121000196841F48031196078E71249D1F890607B
:1012200046F00406C1F89060D1F8906046F00106DF
:10123000C1F8906092E70B4AE66AD36803F00301B5
:10124000B1424BD00C2D3FF411AF06490B685F0142
:101250003FF50CAF0A68044B22F080720A60D3F8A5
:10126000EC0109E00010024080000020D3F8EC21DE
:10127000121A022A3FF631AF0A689501F6D4C868FF
:10128000354A0240606B324342EA0022A06B42EAD8
:10129000C062206B013842EA0012D4E90F506C089A
:1012A000013C4008013842EA445242EA4062CA60C6
:1012B0000A682A4842F080720A60CA6842F0807266
:1012C000CA60D3F8EC1105E0D3F8EC21521A022AD7
:1012D0003FF603AF02689401F6D550E6216B03F0A8
:1012E00070000139B0EB011FACD1606B03F4FE411B
:1012F000B1EB002FA6D1A06B03F07841B1EBC06F2A
:10130000A0D1E16B4908013903F4C000B0EB415FA3
:1013100098D1216C490803F0C0630139B3EB416FE8
:1013200090D1136898013FF52AAE11680C4B41F03B
:1013300080711160D16841F08071D160D3F8EC0107
:1013400005E0D3F8EC11091A02293FF6C6AE116880
:101350008901F6D513E600BF8C809D010010024084
:1013600080000020514AF8B5136803F007038B4250
:101370000BD2136823F007030B431360136803F0C9
:1013800007038B4201D00120F8BD046814F0020E5F
:1013900004F0010369D0464E8568B26802F0F0029D
:1013A000954204D9B26822F0F0022A43B260002BC1
:1013B00066D04268032A5DD03D4B022A1B686BD081
:1013C000002A6ED19E07DED5394D3A4EAB6823F028
:1013D00003031343AB60D6F8EC71920041F2883CF2
:1013E00004E0D6F8EC31DB1B634558D8AB6803F05A
:1013F0000C039342F5D1BEF1000F40D12B4A136884
:1014000003F007038B4209D9136823F007030B434A
:101410001360136803F007038B42B4D1620706D54B
:10142000234AC168936823F4E0630B439360230766
:1014300007D51F4A0169936823F4605343EAC10347
:101440009360FFF7F3FA1A491B4A89681B4CC1F3F2
:1014500003110A44034692F83020606802F01F022C
:10146000D3402360BDE8F84056E4002BC6D0426864
:10147000032AA1D10E4B1B689B01A5D483E7856885
:101480000B4A936803F0F0039D42B7D2936823F0B0
:10149000F0032B439360B1E79F0395D473E70320D8
:1014A000F8BD5D057FF56FAF8EE700BF00200240FD
:1014B0000010024080000020B873010800000020E6
:1014C0000CB4F0B5ADB032AB06AE53F8042B0593B7
:1014D00004460D463046962114F016FF9528C4BFE9
:1014E0001C4BCDF8AA301C4B1C49D3F8EC71A1FB66
:1014F00007311B4BA3FB0723980B1A4BA3FB0723B6
:101500004FEA931C184B4FF47A7202FB1C77A3FB33
:1015100000E25209042CC2EB0212A0EB8202A3FBF0
:101520000CE398BF114800974FEA531394BF005D36
:101530003F20C3EB03130190CDE90256490DACEBFC
:1015400083030B4814F0BAFE2DB0BDE8F04002B0A2
:10155000704700BF2E2E2E0080000020B17C219508
:1015600073B2E745D34D621089888888ACB401080E
:1015700088B40108F0B5294BDD6983B01DB1284A54
:101580002968914212D0D3F80032264A2649002019
:101590009847264814F080FE0024254B4FF48052D3
:1015A0009A620FF07DFE204603B0F0BDAE680322C4
:1015B0000027009240F249130021304608F056FC03
:1015C000012440F24913042202213046009708F01A
:1015D0004DFC40F24913102204213046009408F0DB
:1015E00045FC40F24913202205213046009408F0C2
:1015F0003DFCFF2300934FF47F5240F24913062134
:10160000304608F033FC40F24B130094304622463B
:10161000394608F02BFC2F73BFE700BF8000002085
:101620000EB0371340B4010858B40108B4B401082F
:101630000004004838B52A4A0368D2F8EC511B6808
:101640009B061BD4846A2368A2685868616820F0EE
:10165000200058609AB15868B1F5827F20F00100EF
:10166000586022D0294620460CF03EFAB0B901233A
:101670000022A4F8462084F85D30236E38BD5A68F5
:10168000B1F5827F0CBF22F0030222F001025A6002
:10169000294620460CF028FA0028E8D0236E43F0B3
:1016A0002003236620232366E1E7B2F5004F12D121
:1016B0001A6822F0400229461A6020460CF014FAFB
:1016C0000028EBD12A464FF4C06120460CF0A8F95F
:1016D0000028CCD0E2E7B2F5806FE9D0C2E700BFC6
:1016E00080000020F8B51C4D0368D5F8EC711B682C
:1016F000846A9B062CD42668736823F020037360E9
:101700003A464FF4C05120460CF08AF958B9394690
:1017100020460CF0E9F930B93A464FF4C061204652
:101720000CF07EF938B1236E43F020032366236E5C
:1017300043F020032366736823F0030373600022E1
:101740000123E287A4F8462084F85D30236E13B9A4
:10175000012385F88431F8BD80000020BFF34F8F4E
:101760000549064BCA6802F4E0621343CB60BFF33D
:101770004F8F00BFFDE700BF00ED00E00400FA0559
:1017800070B5434D92B02C22002107A814F00AFC3A
:10179000D5F80862002E72D00023CDE90533D5F8C4
:1017A0000C220193D46814F00804FBD102A80FF0B6
:1017B000B9FA002869D101A80FF0E8FA002864D12D
:1017C0009DF8082012B1334C02FB04F49DF8093057
:1017D0001BB14EF6602202FB03449DF80A301BB198
:1017E0004FF47A7202FB0344049A039BD5F8181253
:1017F0000991D31A4FF47A75013205FB03F3B3FB59
:10180000F2F3254A33442344A2FB03022148520D3C
:1018100000FB12332148A0FB0340800B4EF66026EC
:1018200006FB10338DF81D001D481E4CA0FB026006
:10183000000900EB4000A2EBC0028DF81C20A4FBC5
:101840000302920905FB123301FB0333A4FB03439C
:10185000A1EB93118DF81E204FF400704FF0004261
:101860004FF06063089111900C920E930FF0BAFA4A
:1018700058B907A80FF05CFB38B912B070BD4FF42F
:1018800000700FF0AFFA0028F7D0FFF767FF00BF36
:101890008000002080EE3600B17C219573B2E745D0
:1018A000ABAAAAAAD34D62101A4B10B50446406ADF
:1018B000C01A83B2022B25D0042B27D0164B93F8E5
:1018C0003432033B012B04D82268536843F40043AD
:1018D000536094F8413003F02803282B10D122687C
:1018E00094F84130136823F0FC03136094F84030FF
:1018F000012B05D0042120460CF04AF900B910BD97
:10190000FFF72CFF18460CF09BF9D7E780B20CF0DC
:1019100097F9D3E7B00200208000002008B50A4BF9
:1019200001221A7290F84130202B01D0FFF716FFE8
:1019300002680649282380F841301368416343F068
:10194000B803136008BD00BF00000020A9440008D0
:1019500010B400232022174CC4624363036380F851
:10196000412080F842304B07026811D5436A526A21
:101970001A70436A028D013343624AB1438D013BC1
:101980009BB24385436C013A43F0040302854364F0
:10199000036890F8412090F841201A68102422F042
:1019A000FE0200211A60DC615DF8044B80F84010F3
:1019B000B4E700BF0000FFFF10B590F84120104CC5
:1019C00010494FF0000C02F0280284F834C2282A93
:1019D0004FF6FF7CA1F80AC00FD1016890F84120B2
:1019E0000A6822F0FC020A6090F84030012B04D013
:1019F00002210CF0CDF800B910BDFFF7AFFE00BF1B
:101A0000800000200000002008B5836A9A6B0AB1AC
:101A100000219163DA6B0AB10021916393F84120B0
:101A2000602A4FF0000208D01A63596C83F84020F6
:101A3000042900D108BDFFF791FE202183F8411051
:101A400083F840201A6308BDFEE700BFFEE700BF31
:101A5000FEE700BFFEE700BFFEE700BF704700BF24
:101A6000704700BF704700BF034AD2F8EC31013322
:101A7000C2F8EC31704700BF800000200C4B0D49CC
:101A8000D3F80C224FF480104861D168490503D483
:101A9000012283F82D227047D168C9B261F49061A8
:101AA000D1600120012283F8350283F82D2270478E
:101AB0008000002000040140034B5A69120744BF14
:101AC00008225A61704700BF000401400148FEF738
:101AD00023BF00BFB80200200148FEF71DBF00BFB2
:101AE000000300200148FEF717BF00BF4803002095
:101AF0000148FEF711BF00BF90030020084810B452
:101B0000D0F85833D0F88C4399691A682CB1234621
:101B100000F556705DF8044B18475DF8044B7047AC
:101B200080000020034B5A69120544BF4FF4006245
:101B30005A6170470004014010B51B4C1B4AD4F891
:101B40000C324FF4802151619A68D20402D5DA68D0
:101B5000D00509D49A68910402D5DA68920515D4A3
:101B6000012384F82D3210BDDA68D2B262F4C0725B
:101B70000121DA604FF4807084F8AC130FF032F971
:101B800080B9D4F80C3284F8AC03E3E7DA68D2B257
:101B900062F42072DA600121012384F8AD1384F825
:101BA0002D3210BDFFF7DAFD800000200004014057
:101BB000034AD2F8883043F47003C2F88830704783
:101BC00000ED00E00FB400B50F4A9BB01CAB117ED6
:101BD00053F8042B009321B91BB05DF804EB04B05B
:101BE0007047642101A814F08FFB6328C8BF074B1E
:101BF0000748C8BF199301A914F060FB1BB05DF83A
:101C000004EB04B0704700BF800000202E2E2E0091
:101C100088C1010872B6BFF34F8FBFF36F8F064BB9
:101C20009A6840EA0201996062B6BFF34F8FBFF332
:101C30006F8F0248C6E700BF80000020DCB40108B7
:101C4000F8B5344B4FF480529A610FF029FB72B60D
:101C5000BFF34F8FBFF36F8F2F4CA16821F400614A
:101C600021F00401A16062B6BFF34F8FBFF36F8F05
:101C70002A482B4FFFF7A6FFE569D4E9541215B1A6
:101C80002B68BB4222D0D4F80032264A26490020D5
:101C9000984772B6BFF34F8FBFF36F8FA16841F4BF
:101CA0000061A16062B6BFF34F8FBFF36F8F1B4817
:101CB000FFF788FF1D4814F0EFFA0026154B4FF48C
:101CC00080529A620FF0ECFA3046F8BD05F10D0330
:101CD0000029DED0A8680DF0DDFE06460028D8D029
:101CE0006B7B0A2B04D00FF0BBFA0028C4D1D0E7DD
:101CF00072B6BFF34F8FBFF36F8FA16841F004013D
:101D0000A16062B6BFF34F8FBFF36F8F0348FFF739
:101D100059FFD3E70004004880000020DCB401082C
:101D20000EB0371340B4010858B40108F8B40108E4
:101D30002DE9F04F8246A9B072B6BFF34F8FBFF3C3
:101D40006F8FDFF8BCB2DBF8081021F4005121F0EE
:101D50001001CBF8081062B6BFF34F8FBFF36F8F3F
:101D60009C48FFF72FFF9C4B4FF480529A610FF075
:101D700097FA022398465446B8F101086CD0DBF874
:101D80005021DBF84C30DBF81C70DBF85461029218
:101D900054B393B15D68DBE952A1002DECD0002370
:101DA000CDE917338D4A19932B6893422FD0DBF876
:101DB00000328B4A8B490020984772B6BFF34F8F91
:101DC000BFF36F8FDBF8081041F40051CBF8081017
:101DD00062B6BFF34F8FBFF36F8F7E48FFF7F2FEFF
:101DE000002029B0BDE8F08F002BE6D05D68002D03
:101DF000C2D02B68794A20949342CDE91E441FD06B
:101E0000DBF80032764A774920469847D5E7AB6839
:101E10002A69686B13449E4280F0A080029181463B
:101E2000DBF80042704A6F490020A047029B4B45F7
:101E3000C3D2DBF800326D4A6A4900209847BCE7FC
:101E4000AB682A6913449E421DD2DBF80032664A11
:101E5000644920469847B0E772B6BFF34F8FBFF38F
:101E60006F8FDBF8081041F01001CBF8081062B654
:101E7000BFF34F8FBFF36F8F5648FFF7A3FE0120CC
:101E800029B0BDE8F08F2B7D052B00F29284DFE8AE
:101E900003F00E270303030E9BF8AE33002B8CD008
:101EA000DBF80032524A4F490120984785E7029AF1
:101EB000696C334638460DF035FC00283FF47DAFA1
:101EC000384606F0C1F900283FF477AF01232B759F
:101ED0000FF0C6F94FF0010800287FF450AF6CE70F
:101EE000B146029E4A463846314605F0AFFF00280B
:101EF0003FF463AF1EAAA86D314605F03BFED5F84E
:101F000008211AB11EA805F16C019047E9682098D4
:101F1000384F31442E8F0AF037FF688F07EB860663
:101F200086ED000A07EB8002810098B1013F324E36
:101F300007EB010C4FF0FF3117F8013F0820594023
:101F400041F300033340013883EA5101F8D167457A
:101F5000F2D1C943116005222A750DE78142FFF4D1
:101F600068AF2B7D052B00F2248401A252F823F0E8
:101F7000AF1E000865220008FB2100088D21000823
:101F800005200008891F00089BF8AE3343B1DBF839
:101F900000321A4A1349012098472B7D052B97D10F
:101FA00057462B46196B7A1891B17E1E124D771841
:101FB0004FF0FF3116F8013F0820594041F300036C
:101FC0002B40013883EA5101F8D1BE42F2D1C94316
:101FD0001160D1E6DCB401080004004830D1C0AC87
:101FE00020B5010838B501084CB5010864B50108F1
:101FF00038B60108C00100202083B8EDD8B501082B
:102000008000002002993246384605F01FFF0490F8
:1020100000283FF4D2AE95F84030002B40F0CA8142
:10202000686E029917AA05F0A5FDD5F8083143B1ED
:1020300095F84020002A40F0C28105F1C00117A8A0
:102040009847EA680C92EA6B95F840301146199A65
:1020500003929C46002B40F0AB81AB69534408933C
:10206000B1F844300A46E96A0D91002B00F0768100
:10207000111D0020CDE91065CDE91287CDF82CA007
:102080000E46054617461494E2460CE0DBF8003293
:10209000A44AA54900209847B7F844300135AAB2B0
:1020A000934240F2518156F8044F002CEED0226842
:1020B0009E498A42EAD12279022AEFD194F805801A
:1020C000C245EBD173690C9A0D99D4F8C090D4F83D
:1020D000CCC01344029A1344B26A01EB020EA26E02
:1020E000D4F890101A44E266626F1A44A267D4F8DA
:1020F000802013440B9AC4F88430D4F89C30724486
:1021000013441144C4F8A03002EB090002EB0C03A5
:102110000593C4F8D030C4F89410237EC4F8C400EA
:10212000BAF1000F00F06681002B40F0158394F89F
:102130006680282288F0010800211EA813F032FFD3
:102140000399CDF800801EAA002320460BF01AF850
:10215000B8F1000F40F0E5819BF8AE33012B05D9B3
:10216000DBF80032724A704902209847607920B942
:1021700094F86730002B40F06B812379022B00F03C
:1021800067810022B7F84430049287E7029932460B
:10219000384605F05BFE00283FF40FAE286E02992A
:1021A00017AA05F0E7FCD5F808311BB117A805F10F
:1021B000A401984702992B6AEA6819980A44534483
:1021C000696D0AF055FE00283FF4F7ADE86B08F0A2
:1021D00061FA002800F0968295F84030002B40F01C
:1021E0003F81296D029A334638460DF041FB0028A5
:1021F0003FF4E3AD04232B756AE602993246384674
:1022000005F024FE00283FF4D8ADE86D029917AA26
:1022100005F0B0FCD5F808311BB117A805F188010D
:1022200098470299AB69EA6819980A445344296DA2
:102230000AF01EFE00283FF4C0AD3E4B2A689A42C9
:1022400000F01681DBF800323B4A3C4900209847F9
:10225000E86B08F01FFA0028BED1052257462B462E
:102260002A759FE602993246384605F0EFFD0028B0
:102270003FF4A3ADA86D029917AA05F07BFCD5F831
:1022800008311BB117A805F16C019847029BE9685A
:102290001998B5F83890DFF8AC8019440AF074FD4D
:1022A0006B8F08EB890989ED000A4FEA830E002B3A
:1022B00000F0DB8008F1FF3C2148E6444FF0FF329C
:1022C0001CF8011F4FF008094A4042F30001014089
:1022D000B9F1010981EA5202F7D1F445F0D1D243B4
:1022E00048F82320DFF84C802B6843456DD0DBF89D
:1022F0000032114A1149002098472B6843457FF46A
:1023000056AD6B6D002B3FF458AD029AE96C334625
:1023100038460DF0ADFA00283FF44FAD03232B757E
:10232000D6E500BF88B50108A4B50108E1AFA10F4B
:10233000C0B5010830D1C0AC20B5010838B50108DE
:102340002083B8EDC0010020DDE91065DDE91287CA
:1023500095F84030DDF82CA0149C9C4663462B4435
:10236000049A83F84120284608F0BCF82A1892F80D
:1023700041200AB985F8400095F841301BB195F825
:102380004230002B79D195F84030002B40F08D8001
:10239000296D029A334638460DF0C4F900283FF4FF
:1023A0000CAD384605F050FF00287FF4F6AD04E58B
:1023B0002B6A53E6012B0CBFA86E002031E6012AE0
:1023C0000CBF05F1DC01002139E62B6D002B98D004
:1023D000029AA96C334638460DF0A4F900283FF460
:1023E000ECAC384605F030FF00283FF4E6AC0223A1
:1023F0002B756DE5D4F8A8101144C4F8AC10D4F8CE
:10240000B4100A44C4F8B820002B53D194F8678064
:10241000B8F1000F7FF48BAE282241461EA813F0BE
:10242000C1FD01230399CDF800801EAA20460AF0C1
:10243000A9FEB4F8BC20D4F8B8001EA9920013F08D
:10244000DDFE012384F867306379002B7FF495AEBD
:1024500094F86630002B3FF494AEB7F844301DE694
:10246000012B0CBF696D0021BCE64FF0FF3236E74F
:102470006B6D002B7FF449AFEAE6C64B2A68052155
:102480009A42297500F09081DBF80032C24AC349B4
:1024900000209847002383F0010385F84030AB6AA1
:1024A000BDF960202AF8032077E5012B0CBF696D88
:1024B00000216EE7228F84F867A0002A00F0578180
:1024C000F4440EEB09010CEB820E71454FEA8209D0
:1024D00003DA49448C45C0F252814A46002113F088
:1024E00061FD05984A46002113F05CFD002384F845
:1024F000663023760123A4F86430B8F1000F85D04C
:1025000094F866802822002188F001081EA813F0A4
:1025100049FD0399CDF800801EAA002320460AF049
:1025200031FE60790023CDE91A33CDE91C33637F96
:10253000002800F00181ABB104F119015A1E11FA13
:1025400082F20DF1680E04F11801984611F801CFDE
:10255000089B03EB8C0C9142DCF800C04EF804CBD6
:10256000F4D14346228FB4F864100792002A00F099
:10257000EB80D4F8C4200798D4F86CE0D4F8D0905D
:10258000CDF818E002EB80000590C846F4461046EE
:1025900009939CED007AD0ED007A059B77EE877A5F
:1025A000E0EC017AFCEC017A98ED007A67EEA77A0C
:1025B000834277EE877AE8EC017AEAD10129099B18
:1025C00040F2AA8007EE901A481E80B2F8EE676AC1
:1025D00007EE900AF8EE677AD4F89400DDF818C098
:1025E000099086EEA76A9846059BB2EC017AC7EE81
:1025F000267A9342E0EC017AF9EC015A27EEA77AA9
:10260000C5EEA67A77EEC77AF0EEE77A67EE867ABD
:10261000B1EEE77AACEC017AE6D14346628FD4F8AA
:10262000A0000A92002B77D0013B9AB2059004F1EA
:102630003E0000EB42020E920EF104029FED585A4A
:10264000DFED585A0F921AAB04F13C08159106942D
:1026500007E0059A043205920E9A424503F10403FD
:1026600066D00A9A38F8021F881A079A80B2824206
:10267000EFD338F802CC0A9CACEB040292B282424F
:102680005FD2A4EB0C0901380F9CD3ED007A9FEDCB
:10269000447A484412FA80F004EB8000099C0EEB67
:1026A000820967EEA76A04EB8202069CF9EC017AC4
:1026B000B2EC016A67EEA77AF0EEC64A77EEE67AE8
:1026C000F5EEC07AF1EE10FAF4EEE54AD8BFF0EE7E
:1026D000457AF1EE10FA05DDF1EEE74AC4EE867AAE
:1026E00037EE277A4845E1D10694A1EB0C0292B26D
:1026F00007EE902AF8EE677A059AC7EE276AC2EDD0
:10270000006AA6E7AA6ABDF9601005202875574639
:102710002AF802102B4645E46079A38A5B1AB3FAC3
:1027200083F35B09013184F86630A4F864101EE578
:10273000069C15996079F0E7089B1B681A930123A2
:1027400010E79FED177AD0E70129E6D9D4F8942055
:10275000D4F86CE0099261E7228F002A7FF4B0AED2
:10276000012384F866202276A4F86430C8E60123A9
:1027700084F866A084F818A0A4F8643046E6059BA7
:1027800000EB0902002140F8041B824243F8041BBD
:10279000F9D1ABE630D1C0AC20B5010838B501089D
:1027A00000000000ACC527372B6D003B18BF01238C
:1027B00071E6DBF80032034A034900209847FFF72F
:1027C000FCBA00BF18B6010838B501082DE9F04F72
:1027D000DFF820B32DED0E8BDBF84C40DBF81C004E
:1027E000DBE95423ADF2FC4D94B194F8301001298B
:1027F00026D0022918D0E9B965681DB1AB4F2E6803
:10280000BE4223D0DBF80032A94AAA4900209847EB
:10281000A94813F041FD0023069306980DF2FC4DE4
:10282000BDEC0E8BBDE8F08FA44AA5490020FEF751
:1028300047FEEDE7A34AA2490020FEF741FEE7E785
:10284000A14A9F490020FEF73BFEE1E795F8406072
:10285000A6B1012E08BF696D0CF064FF0028D7D027
:1028600001230025DBF81C0084F83030658605F074
:10287000EBFC28B9954813F00FFDCCE7296DEBE789
:102880000EF0EEFC18B9924813F006FDC3E7DBE941
:102890005412DBF81C0005F0D9FA0690002845D048
:1028A000642229465CA813F07DFBDBF84831DBF895
:1028B0004C400793DBF8503108937CB18BF85951A9
:1028C0008BF8685194F83000012816D002280ED0F9
:1028D00040B17C4A7A492846FEF7F2FD7D4813F064
:1028E000DBFC98E77C4A7649FEF7EAFDF6E77B4A8F
:1028F00073492846FEF7E4FDF0E765681DB16B4BB0
:102900002A689A4216D0DBF80032694A69490020E9
:102910009847734A6A490020FEF7D2FD628E638DA4
:102920009A42DBD3002384F83030D7E76D4813F0A8
:10293000B3FC70E7079B002B00F03D812A6B0799E1
:102940008B58A2B14E1E6848B7184FF0FF3216F8E8
:10295000011F4FF0080C4A4042F300010140BCF156
:10296000010C81EA5202F7D1B742F0D1D24393422F
:1029700040F021816A8F9300002A00F0A5855B4E0C
:102980005948F7184FF0FF3216F8011F4FF0080CA6
:102990004A4042F300010140BCF1010C81EA5202BD
:1029A000F7D1B742F0D1D2435B44D3F840319A42D9
:1029B00006D0DBF800324E4A3E4900209847A8E78F
:1029C000284607F08FFD95F840608246002E40F0C3
:1029D0006A8175AB10931846BAF1010318BF012341
:1029E0000A93C5F8F86005F1F803C5F8FC60C5F86E
:1029F00000613146A422099313F0D4FA686EDDE930
:102A0000081205F0B7F895F840E0D5F80831BEF1A6
:102A1000000F40F03E812BB105F1C00109989847A5
:102A200095F840E095F8FA30B5F9FCC0002B40F07D
:102A3000248195F80431002B00F01D83069B85F856
:102A40000431EB681693EB6B0D93D5F800311293BC
:102A5000BEF1000F40F01B81AA692B8F07990BEB89
:102A60008303D3ED50AAAB6ACB5E1493EB6A179342
:102A7000129B002B00F004810D9BB3F84430002B17
:102A800000F0A680079B069ECDF868A01344119322
:102A90000D9BCDF83CE004330B930023CDE91845A2
:102AA0000C93B0EE6AEACDF86CC038E030D1C0AC1F
:102AB00020B5010838B5010858B701085CB601080F
:102AC000B8B6010840B70108C8B6010884B70108C4
:102AD000A8B70108B0B9010874B9010830B90108F4
:102AE000F0B80108C8B701082083B8EDBF01002085
:102AF00010B8010880000020DBF80032A94AAA497A
:102B00000020984700230F9A934214D00C9B0D9AF3
:102B10000133B2F844200C939BB29A4252D90B9BDA
:102B200053F8044F0B93002CE6D023689F4A93423E
:102B3000E2D16379E7E700255022294634A89EAF09
:102B4000CDF88E50CDF89250CDF89650CDF89A50E1
:102B5000CDF89E50CDF8A250ADF8A65013F022FA51
:102B60005022294648A813F01DFA5022294638461B
:102B700013F018FA48AB269334AB24931423ADF822
:102B80008C300B9B28975A699B6A24B1216887482F
:102B9000814200F0A080DBF80032824A82490020A6
:102BA000984700260C9B002BB0D10D9A9DF8A630BB
:102BB00082F8CA32AAE7DBF800327D4A7D4900205C
:102BC0009847A6E6DDE91845DDF868A0002E57D045
:102BD0000A9B002B40F0F48285F840A0638E0133FD
:102BE0009BB2628D63869A4202D8002384F830300B
:102BF0000A9B8BF8763172B6BFF34F8FBFF36F8F9E
:102C0000DBF80C300133CBF80C3062B6BFF34F8FDA
:102C1000BFF36F8F6848DBF80C1013F04FFB099B74
:102C2000B3F9043072B6BFF34F8FBFF36F8FABF8B9
:102C3000743162B6BFF34F8FBFF36F8F9BF858317B
:102C4000002B3FF4EAAD5D4C5D484FF48055FEF734
:102C5000B9FFA5620EF024FBFEF7F2FF00283FF457
:102C6000DAADA5610EF01CFB00200DF2FC4DBDECB1
:102C70000E8BBDE8F04FFFF75BB8A5F806C1DDE6A7
:102C8000DBF800324F4A4B490020984741E62A6A58
:102C9000E3E6BEF1010F40F00982002B3FF4C2AE23
:102CA00005F1DC01BAE6002775AB10931846C5F8AC
:102CB000F87005F1F803C5F8FC70C5F80071A4229E
:102CC0003946099313F06EF9012E40F0EB81069B13
:102CD000A86E0A9393E616990A4408990A4417992C
:102CE0000B4407990B44A16E1144E166616F1144D6
:102CF000A167D4F880100A44C4F884202279022AFB
:102D000013D1D4F890201A44C4F89420D4F89C200D
:102D10001A44C4F8A020D4F8C0201A44C4F8C4202F
:102D2000D4F8CC201A44C4F8D02062794AB9D4F837
:102D3000A8201A44C4F8AC20D4F8B4201344C4F832
:102D4000B8302822002100252AA813F02BF9129967
:102D500000952AAA2B4620460AF014FAB4F83880C7
:102D6000B8F1000F00F07A85069B149A15931B9B0F
:102D70009FED15AADFED159A9FED178A9FED149A26
:102D8000DFED148A13979B1AA9460E932379AF009F
:102D9000032B00F21C86DFE813F067010A018D00A7
:102DA000210000BF88B50108A4B50108E1AFA10F5B
:102DB000E8B7010838B50108DCB90108000400488B
:102DC000F8B90108D4B80108583934BB8E407C3FAB
:102DD000F902154FC2F38E4D000000006379002BFD
:102DE00000F05C81617F002900F07E83013989B2A7
:102DF00004F13E0A5FED087A0AEB410104F13C035D
:102E000004F1190233F8020B814508D318884845AC
:102E100005D91078119E06EB8000D0ED007A99421A
:102E200002F10102EED1B4F85A20B4F85810E66E5F
:102E300053189BB29945C0F01B81A8EB030080B2E8
:102E4000814580F01581B4F85E0010440132A9EB91
:102E500003034A449BB292B20844002900F037832E
:102E600001EB020C1FED247A06EB830306EB8202D2
:102E700006EB8C0C8542A4BFD3ED006A37EE267AB0
:102E8000F2EC016A944537EE267A03F10403F1D19E
:102E9000490089B2002900F01A8306EE901AF8EE74
:102EA000666A87EE266A94ED157A67EE877A77EE82
:102EB000867AB7E0A37FBDF93820013BDBB2042B53
:102EC0000AEE902A97BFB84ADFEDB87A02EB830387
:102ED000D3ED157AF8EEEAAAB0EE000ACAEEA70A18
:102EE000F1EE600A11F00CF8D4F89430628F617F33
:102EF0003B44D3ED007A63792AEE8A7A4A4437EE6E
:102F0000297A20EE276A92B2002B00F0B7800029C0
:102F100000F0F082013904F13C031FFA81FE04F154
:102F20003E0ADFEDA36A1C930AEB4E0E184604F12D
:102F3000190630F802CB62450AD3B0F800C09445B8
:102F400006D996F800C0119B03EB8C0CDCED006AEF
:102F5000864506F10106ECD11C9BD4F8A00066EE74
:102F6000A66A89B20AEB4101F0EE487A33F8026BA7
:102F7000B24204D31E88964288BFD0ED007A9942AF
:102F800000F10400F2D167EEA77A66EE065A66EE0B
:102F9000876A27EEA57AD4ED155AE66E37EE267AC3
:102FA000F1EEC77A67EEA57A77EE867A3AE0DBED46
:102FB000EC7AF8EE67AA22AE89EE2A0A11F0ACF894
:102FC000238D626B119913FB09F312FA83F30DF150
:102FD0008408627920466AEE807AB3EE087A67EE5A
:102FE000877AB7EE006A86EE277AF6EE006A67EE19
:102FF000287A07EE103A67EEA67AB8EEC77AD4EDD3
:1030000004BACDF8008067EE27AA3346B0EE6A0A0C
:103010000AF0AAFA159000284DD1F0EE487AE66E33
:10302000B4F83880A16F3744680997ED007A51F8F9
:10303000203009F01F090122B4EEE77A013502FAC7
:1030400009F2F1EE10FA1FFA85F9CCBF134393434E
:10305000C84541F820303FF699AE159B139F002BD1
:1030600040F09B81069E9DE5D4ED037AE66ED9E79C
:10307000DFED507AD6E7A5F806C1E0E4119BD3ED69
:10308000006A66EEA66A002900F03182D4F8A0003A
:10309000013904F13C0304F13E0A62E7119BD3EDD0
:1030A000007AC0E6069B0A933846A8E4002B3FF45A
:1030B000B9AC0021B2E4A379228D94F81EA01C9231
:1030C000002B00F00E82012B00F00882DBF80032AA
:1030D000394A3A499FED36CA002098471C9998ED25
:1030E00000BA504607F0ACFBF5EEC0AAF1EE10FABC
:1030F00096ED00DA91DDB5EEC0BAF1EE10FA8CDD96
:10310000F7EE000A11F098FBF7EE000AF0EE40CA65
:10311000B0EE4D0A11F090FBF0EE40DAB0EE6C0A22
:1031200010F0BEFEF2EE047AF0EE40CAB0EE4B0AAA
:103130006CEEA7CA10F0B4FE0AF1FF33DBB2042B29
:1031400094BF194A9FED1ABAF3EE047A20EE27DAFB
:1031500098BF02EB8303B0EE6D0A98BF93ED10BAEF
:1031600010F09EFEF0EE40DAB0EE6A0A10F098FE23
:10317000B2EE047AF0EE4B7A4DEE877A7CEE8DCA91
:103180002CEE07CA77EEAC7A4CEE407AF3EE040AE6
:1031900077EEAB7AB0EE470AC7EEA00A10F0B0FEA9
:1031A000F0EE407A3BE700BFB87301080000AC4284
:1031B00000000000FFFF7F7F38B8010850B8010809
:1031C0000D9BB3F8C8121A79089271B303F148093C
:1031D00000224846079109F081FD0799012900F076
:1031E000C08300274A4601F1FF3838463E463B4639
:1031F000894602EB0311D1ED036AD1ED077A91ED17
:10320000006A91ED047AF4EE676AF1EE10FA37EE97
:10321000467AC8BFF0EE667AB4EEE77A0136F1EE90
:1032200010FAB6B21FD4272F0DD90D9B0022A3F898
:10323000C82285F840A0638E85F804210133A5F8E3
:1032400006219BB2CDE4311A9EAB89B203EB071382
:103250000029EAD0079209F0EFFC0028E5D00137F9
:10326000079ABFB2304646453346C2D349468842E4
:103270009146C0F09083089B012B00F09583109B32
:10328000142F3A4628BF1422A3F8A020002FCCD038
:103290009EAE10990B4601EB8200316843F8041B87
:1032A000B168D964984206F11006F6D10A2A0D9B3E
:1032B000109928BF0A220026A3F8C862920093F84A
:1032C000CA3285F840A05CA8678E81F8A23012F05F
:1032D00095FF85F80461A5F8066194F828209DED16
:1032E0005C8A0137BFB2022A678649D8AE4B03EB2E
:1032F0008203D3ED2F6A9FEDAD6A76EEC87AF4EEC5
:10330000C67AF1EE10FA21D586EE267ADFEDA86AAC
:1033100027EE267AF0EE467A099A638D92788BF83A
:103320005821BB424FF001028BED578ACBED587A02
:103330008BED597A8BF8592102D8002384F830306C
:103340000A9B002B7FF454ACFFF7C8BAF4EE676A0F
:10335000F1EE10FA48BFF0EE667A87EEA67ADFED5E
:10336000946A27EE267AB5EEC07AF1EE10FA11D4FF
:10337000B4EE667AF1EE10FAC8BFB0EE667ACBE72B
:103380008C4A8D493046FEF79BF8DFED886A678EE0
:103390000A96B0E7B0EE467ABEE7D4F88430B4F8C7
:1033A00088901E93B8F1010F40F25C8200231C93B9
:1033B0006FF0404A012308F1FF302246BE4619E073
:1033C0005C0903F01F0551F82440EC40E4071ED5CA
:1033D00003EB0A0406EB840494ED007AD4ED017A41
:1033E000B4EEE77A5C1CF1EE10FAA4B212DB2346CD
:1033F00098455ED95C1E650904F01F0451F82550FC
:1034000025FA04F4E507DBD401339BB2F0E702337D
:103410009BB2EDE71D460027234664091397AC468F
:103420000E940E9C139FA500002FE1D18342DFD2A2
:103430004D5903F01F07FD4015F00105D8D006EBEC
:10344000830797ED007A06EB8C07D7ED007AB4EE90
:10345000E77AF1EE10FA0BDD5D1C9C46C5F34A13CA
:103460000E930E9C139FABB2A500002FDED0BFE7DA
:1034700017D50CF101077C0907F01F071D9751F8BC
:1034800024701D9CE74017F0010710D01C9CA1453B
:1034900020D91E9D139725F814C0651CACB21C944E
:1034A000BFE75C1CA3B2C4F34A140E94B9E71395AA
:1034B000B7E7159B144677460BBB1598DBF800322F
:1034C0003E4A3F499847CDE51A46FFF76DBA9FED52
:1034D000376AE8E4139C15941397A2E7B0EE00CA8C
:1034E000FCE5B1EE00CAF9E5DFED307A9BE4DFEDF3
:1034F0002F7A48E5DFED2D6AF0EE667A43E5B2F803
:103500003880DBEDEC7A1C9D9FED2E0AB8EE678AC1
:10351000142D2B4680EE080A28BF14230E9310F0BA
:10352000FBFD48AA0492142334AA03920293238D2C
:10353000019368EE007AB3EE087A67EE877AF7EEC9
:10354000006A86EEA77A30460E9EB4F934300093B6
:103550001E9A41463346DFED1C7A67EE277AB6EEB7
:10356000000A27EE800A07F0DBF8ADF89460ADF8AA
:103570009C60ADF8A460002D00F0D08022AA48AB7A
:10358000159221AA3E461F979FED08AADFED0F9ADC
:103590009FED0F9ADDF850A013920DF1D0084FF077
:1035A00000091F4637E000BFB873010800000000A3
:1035B0000000C84214B90108B8B6010884B801086F
:1035C000A4B50108F902154FC2F38E4DA54A943BEC
:1035D0000DFB863FDBB2032B00F28C80A44A02EB8A
:1035E0008303D3ED1A7AD3ED1E6A18ED017A0E9B90
:1035F0006EEE277A09F1010977EEA67A1FFA89F9AA
:1036000077EE677A4B4548ED017A40F286800436C2
:10361000002D00F08280F8EC018A139BB7EC018A40
:10362000627911990093B0EE680A159B204609F063
:103630009BFF054698B9A37F1AF1190F03F1FF33D9
:10364000C8DBBAF12C0F3ADCDBB2032B5AD8884A1C
:1036500002EB8303D3ED227AD3ED266AC5E7A27F7E
:10366000A3791D92228D1E92002B53D0012B4ED098
:10367000DBF800327F4A80499FED80BA00209847EE
:10368000139B1E991D98D3ED00BA07F0D9F8159B2E
:10369000F5EEC08AF1EE10FAD3ED00CA2FDDB5EEDB
:1036A000C08AF1EE10FA05DDF5EEC0BAF1EE10FABF
:1036B00000F30681DFED717AC6ED007ABBE7032BDC
:1036C00000F28081DFE803F0110C0702DFED6C6A85
:1036D000DFED6C7A89E7DFED6C6ADFED6C7A84E709
:1036E000DFED6B6ADFED6B7A7FE7DFED6B6ADFEDB5
:1036F0006B7A7AE7F0EE696AF0EE497A75E7F0EEF8
:103700004A7AD9E7DFED666ADFED667A6DE7B0EEFB
:1037100000BAB5E7B1EE00BAB2E71F9F2379032BD9
:1037200000F036810023228FA2EB4302052A40F2EB
:103730009C805909A26F52F8212003F01F01CA4052
:1037400012F0010223D0E26E9FED4C7A02F10C00E0
:1037500000EB8305990002EB8300F0EC017A8542CF
:1037600037EE277AF9D1033302EB8303DFED437A97
:1037700018320A44F3EC016A9A4277EEA67AF9D13C
:10378000B4EEE77AF1EE10FAACBF012200221C9BE6
:103790008DF8A620002B3FF465AC0E9B0D9AD7ED5B
:1037A000007ADDED346A9DED487A3F4FDFED338AD4
:1037B0009FED3E8A013B9BB235AD05EB8308CDF80A
:1037C0003880B2F8C8320DF592799FAE90461AE073
:1037D000DBF800329847B8F8C83218EE102A03F127
:1037E000050C08EB0C1C0133CCF804200E9A9BB29C
:1037F0009542A8F8C8323FF435ACF5EC016AB9EC53
:10380000017AF6EC017A272B20D8D4F800A0284AB8
:10381000284908EB031E03F1050CCEED126A8EED6C
:10382000137ABA4508EB0C1E4FF00000CEED007A7B
:10383000CED1A27F013AD2B2042A9BBF0C4901EB40
:10384000820218EE902AD2F8A820CAE7DBF80032EC
:10385000194A1A4900209847FFF7A3B9D4F88430D1
:10386000E66E1E9300231C934BE600228FE700BFF9
:10387000B873010838B8010850B80108000000000A
:10388000B6DF333CAB61E43E087D003C2409083FD1
:103890001EB0A03C2A99FE3E61FE083CE6BF0C3FEC
:1038A000053C023CB0597B3FE1AFA10F0AD7233D55
:1038B00088B50108A4B501089CB80108B4B801088E
:1038C000F7EE000A10F0B8FFF7EE000AB0EE40CABB
:1038D000B0EE6C0A10F0B0FFB0EE40DAB0EE4C0A79
:1038E00010F0DEFAF2EE047AB0EE40CAB0EE480A0A
:1038F0002CEE27CA10F0D4FAB0EE408AB0EE6B0A74
:1039000010F0CEFA1D9B013BDBB2042B94BF364A6C
:10391000DFED36BAF3EE04CA98BF02EB830328EE5C
:103920002C8A60EE2CCAB0EE4D0A98BFD3ED10BAC7
:1039300010F0B6FAF0EE407AB0EE680AF0EE678A60
:1039400010F0AEFAB2EE047A48EE87BA78EE6C7AEE
:103950002BEE07BA77EEEB7A4BEE007A77EECC7A65
:10396000AAE69EAE0027334638464A4609F064F977
:1039700000283FF45AAC0137BFB2089B142F3A46D7
:1039800028BF1422012B13D0109BA3F8A02080E4A1
:10399000B4F85C30C7E6272F3FF647AC091A9EAE55
:1039A00089B206EB0713E0E7002F3FF43EAC9EAE72
:1039B00001223946304609F091F9142F3A4628BFC2
:1039C0001422E1E7DFED0A6ADFED0A7A0DE6DBF8A3
:1039D0000032094A0949002098470023DFED037AA5
:1039E0001593FFF71CBB00BFB8730108000000006F
:1039F000AA7A1E3AF964043F68B80108A4B5010820
:103A000090F82520022A03D00422C26301207047C7
:103A10000168426C10B50C6824F00E040C600C6850
:103A200024F001040C6002F01C02046C012101FA74
:103A300002F26260826B80F82510002480F8244036
:103A400002B19047002010BD70B5584D95F834C2B2
:103A50000CF0FD0CBCF1010F82B0044645D02B6880
:103A600043F001032B6094F8413003F02803282B26
:103A700039D1236894F841201A6822F0FA021A60BA
:103A800094F84020012A2ED094F8412001212A2ABE
:103A900084F8401068D029202021002284F84100B9
:103AA00084F8421062645A684148042122F40042BA
:103AB0005A6061854FF08072618DE2629D699A69FA
:103AC00021853C496163D103606203D52A0744BF65
:103AD0000822DA61002284F840201A6842F0FA02D3
:103AE0001A6002B070BDFDF739FE032385F8343249
:103AF0000023314E0193D5F8B43370894BB3B5F838
:103B0000B81361B301EB410103EB810102E00C3317
:103B100099421ED01A888242F9D15B6803B301A88A
:103B20009847019A7089110EC2F3074EC2F307231A
:103B30005FFA82FC85F832324FF6FF73984285F8BF
:103B4000301285F831E285F833C28CD001307081B3
:103B500089E7EE234FF0000C9E461946EAE78C46B3
:103B6000EE239E461946E5E794F841101A6801F0E5
:103B70002801282914BF6FF0F4016FF044010A40B6
:103B80001A601A68100486D51A68E06B22F40042A5
:103B90001A6000283FF47FAF084B8363FFF730FFC4
:103BA00010B1E06B836B9847236874E780000020B6
:103BB000B0020020A944000800000020091A0008F3
:103BC00001680B68002280F842205A040CD50B686B
:103BD00023F480430B6090F84130292B0ED090F8ED
:103BE00041302A2B20D070471B04F4D50B6823F4F6
:103BF00000430B6090F84130292BF0D1282221237B
:103C000080F84120036390F841300A6803F02803EC
:103C1000282B14BF6FF0F2036FF042031340002211
:103C20000B6080F840200FE72822222380F84120F3
:103C3000036390F841300A6803F02803282B14BF6F
:103C40006FF0F4036FF04403134000220B6080F820
:103C50004020FDF729BE00BF30B40468A169A56902
:103C6000A368E268C268022AC1F300410ED1C3F31F
:103C7000C21383EA154313F0060307D1826C0132A5
:103C80008264826C022A0ED030BC704723680B4DD0
:103C9000002223F0B80323602A7280F8402059B92B
:103CA00030BCFDF789BE08228364E261034A80F8D4
:103CB000403013720029F3D030BCC5E6000000206C
:103CC00010B50446544A94F84130002084F842006C
:103CD000E2626085626C1143A3F12802022A236824
:103CE000616432D894F8411094F8412001F0280121
:103CF000282902F0280214BFF6214621282A1A6832
:103D00000CBFC9436FF0F6010A40282043491A60EE
:103D100084F84100A06B226B616318B1112A3ED078
:103D2000212A3CD0E06B18B1122A4DD0222A4BD068
:103D300094F84130602B4FF0000363D02363626C32
:103D400084F84030042A64D110BD94F8412094F8DE
:103D500041201A6822F0FE021A609A69920748BF51
:103D600098629A69D10703D49A6942F001029A6174
:103D700094F84120602A10D0202284F841209A69CA
:103D800092060AD59A69D00605D51022DA61626CCE
:103D900042F0040262642022DA610021BAE71A6864
:103DA00051042AD490F82530012BC1D01C4A8263DB
:103DB000002384F84030FFF723FE0028C4D0A06B16
:103DC000BDE81040836B18471A68120403D51A68BF
:103DD00022F400421A6090F82530012BA8D0104A36
:103DE0008263002384F84030FFF70AFE0028ABD03E
:103DF000E06BBDE81040836B18471A6822F48042DC
:103E00001A60CFE7202284F8412084F840302363F1
:103E100010BDFDF7A3FC00BF0000FFFFA944000890
:103E2000091A000830B40368202282B0DA6190F8E1
:103E30004120212A90F841204AD0222A56D05A689F
:103E4000324C002522405A60314C4563CD06C46295
:103E500005D51022DA61426C42F00402426490F807
:103E60004120602A2DD09A69910744BF00229A62AE
:103E70009A69D20703D49A6942F001029A61436CAD
:103E800090F84120602A0BD053B990F84120212AA4
:103E90000AD090F84120222A06D002B030BC7047E8
:103EA000416C02B030BC0BE7202280F84120036354
:103EB00090F8422080F8403080F8423002B030BCA8
:103EC00070474C07CFD55A6AD2B20192019ACAE71D
:103ED00002F028021C68282A14BF6FF0F2026FF06B
:103EE0004202224011241A600463A8E790F841209E
:103EF0001C6802F02802282A14BF6FF0F4026FF049
:103F00004402224012241A60046398E700E800FE8D
:103F10000000FFFF38B590F84030012B00F085809D
:103F20000123CD06044680F8403001D5D00659D48F
:103F30000D063AD550064DD523681A6822F0400286
:103F40001A60628D92B2002A71D05868628D92B266
:103F5000FF2AC0F3090078D8618DE26A89B212F5B0
:103F6000803F218500F082805FFA81FCE26A4FEA9F
:103F70000C4C42EA0C020243404D586822F00042C9
:103F8000284002435A60628D521A92B2628594F8B8
:103F90004120222A1A680CBF42F4004242F48042B7
:103FA0001A60002084F8400038BD4D0612D5500636
:103FB00010D5638D9BB2002B40D123685A689201C3
:103FC000EFD4E26A12F5803F34D15A6842F480425D
:103FD0005A60E6E78B06E4D59306E2D52046FFF764
:103FE00021FFDEE7236826481022DA61616C626BEC
:103FF00041F004018242616425D022498A4222D0E4
:1040000021498A4214BF2022602219680A431A609B
:104010009A69910744BF00229A629A69D207C0D474
:104020009A6942F001029A61BBE7022038BD5B68E1
:104030009A0103D42046FCF7BDFCB2E7402120469C
:10404000FFF73EFEADE76022DFE79A69D10306D5B0
:10405000012121854FF4803C4FF0807289E7FF21D8
:1040600021854FF47F0C4FF0807282E75FFA81FC6C
:104070004FEA0C4C4FF000727BE700BF009C00FC45
:10408000153F0008F94500088D40000838B590F844
:104090004030012B00F0D680012380F84030CB0661
:1040A000044602D5D00600F1A9808B070BD59007F6
:1040B00009D52268216D91624FF0FF3323650020FE
:1040C00084F8400038BD0B063AD5550640F18C8087
:1040D00094F84120236802F028021968282A14BFA6
:1040E0006FF0F2026FF042020A401A601A6842F062
:1040F00090021A60628D92B2002A00F0B880628D40
:1041000092B2FF2A40F2A2809869654DE16C5A682C
:10411000C0F3004000280CBF4FF47F004FF4803004
:1041200002EA0502C1F3090142EA000242EA010281
:1041300042F080720CBFFF21012121855A6040E0CE
:104140004B0651D550064FD594F841102368554879
:104150001A6801F02801282914BF6FF0F2016FF0EE
:1041600042010A401A601A684F4942F090021A60F0
:1041700094F841C0628D92B2BCF1220F08BF08468C
:10418000FF2A79D99A69C2F30042002AE26CC2F38D
:1041900009020CBF4FF47F054FF4803542EA00025C
:1041A00042EA05025868414D22F0004200EA05004B
:1041B00042EA00020CBFFF21012142F080722185FA
:1041C0005A60628D521A92B2628594F84120222A76
:1041D0001A684FF000000CBF42F4004242F48042E3
:1041E0001A6084F840006DE788067FF568AF930693
:1041F0007FF565AF2046FFF715FE60E723682C4882
:104200001022DA61616C626B41F0040182426164E8
:104210001AD028498A4217D027498A4214BF20223F
:10422000602219680A431A609A69910744BF002204
:104230009A629A69D2073FF542AF9A6942F0010249
:104240009A613CE7022038BD6022EAE7618D144D97
:10425000E26C586889B22840C2F30902CDB242EA42
:104260000542024342F0007221855A60A9E74021CD
:104270002046FFF725FD22E7618DE26C89B2CDB2C1
:10428000C2F3090242EA05420243084D58682185FB
:1042900022F000422840024342F000725A6090E748
:1042A000009C00FC0020008000240080009800FC9E
:1042B000153F0008F94500088D40000870B50368F7
:1042C00004460D461968C06A94F841202026213A18
:1042D000DE61092A0ED8DFE802F079050D0D0D0D1B
:1042E0000DAC790594F841201A6822F0FC021A609E
:1042F000222222635A686A4E42F400425A605A6887
:1043000032405A609A69920744BF00229A629A69C1
:10431000D60703D49A6942F001029A614A043CD557
:104320001A6822F480421A60A26B1AB112685268AD
:1043300092B262856A070AD55A6A636A1A70636A1A
:1043400001336362238D25F00405002B6AD1638D50
:104350009BB21BB1636C43F004036364EB0601D5AD
:10436000CE063CD4002384F84230666C6363002E92
:104370006AD1E36A4B4DAB4219D194F8413084F8CD
:104380004060222B4FF0200384F841302046266302
:1043900073D0BDE87040FFF757BB0E04CAD51A684A
:1043A00022F400421A60E26B002ABFD1C2E7204625
:1043B000FFF706FC2023E56284F8406084F8413072
:1043C00020462663BDE87040FDF7A8BA94F8412066
:1043D0001A6822F0FA021A60212222638AE7638DAA
:1043E0009BB2002B39D194F84130282B4FD094F850
:1043F00041202368292A4FF01002DA61B2D110F56A
:10440000803FAFD09A69910744BF00229A629A69AF
:10441000D20703D49A6942F001029A612046FFF75D
:10442000CFFB9FE7013B2385638D013B9BB26385F7
:104430008DE794F8412094F841201A6822F0FE029A
:104440001A600022226355E7616C2046FFF738FCB2
:1044500094F84130282B14D070BD23681022DA6103
:10446000636C43F00403636430F080737FF47AAFCD
:10447000616C2046FFF724FC74E7BDE87040FDF74F
:1044800013BA29462046BDE87040FDF761BAB0F185
:10449000007FACD129462046FDF75AFA62E700BFFB
:1044A00000E800FE0000FFFF38B590F840C0C56A84
:1044B000BCF1010F6DD04FF0010C11F0200F04463C
:1044C0000B4680F840C002D012F0200F51D1D80620
:1044D00015D5D10613D5628D92B2002A5BD194F81E
:1044E0004120282A7ED094F841202368292A4FF0C1
:1044F0001002DA6162D0002084F8400038BD59070C
:1045000019D4190701D5100739D49907F3D59307A2
:10451000F1D5638D9BB2002B4CD0616A236811F8F2
:10452000012B9A62638D228D6162013B9BB2013A3D
:1045300063852285DFE75007E3D5638D9BB26BB1BE
:104540002268636A526A1A70638D616A228D013B28
:104550000131013A9BB2616222856385638D9BB212
:10456000002BC8D115F5803FC5D02046FFF728FBAA
:10457000C1E7FFF7A3FE002084F84000BEE794F8EF
:10458000413003F02803282B28D023680822DA6161
:10459000B1E7022038BD23681022DA61636C43F072
:1045A0000403636435F08073A5D1616C2046FFF786
:1045B00087FBA0E735F080739DD1D6E715F5803FE6
:1045C00099D09A69950744BF00229A629A69D007E8
:1045D000CBD49A6942F001029A61C6E72046FFF700
:1045E0003BFB88E7B5F1007F7FF47DAF194620469D
:1045F000FDF7AEF97FE700BF38B590F840C0C56A57
:10460000BCF1010F4CD04FF0010C11F0200F04460B
:104610000B4680F840C002D012F0200F30D1D906EE
:1046200026D5D00624D55104C2F380303AD5E16BAB
:1046300009B112043BD4A26B1AB112685268002A65
:104640003DD023681022DA61636C43F00403636495
:1046500094F8413035F08072DBB20DD1213B092B4B
:1046600052D8DFE803F04F565151515151514F5636
:10467000190701D5130709D4002084F8400038BD7C
:10468000FFF71CFE002084F84000F8E794F8413062
:1046900003F02803282B3FD023680822DA61EBE7D8
:1046A000022038BD110429D5E16B0029C9D00A6860
:1046B0005268002A34D1A26B0AB100283ED194F886
:1046C0004120282A32D094F841202368292A4FF02B
:1046D0001002DA61D0D115F5803FCDD09A699507E7
:1046E00044BF00229A629A69D00703D49A6942F0C3
:1046F00001029A612046FFF763FABDE723681022A2
:10470000DA61B9E721232363616C2046FFF7D8FA09
:10471000B2E722232363F7E72046FFF79DFAABE7D2
:10472000A26B002A8DD000288BD086E7B5F1007FE0
:10473000C9D119462046FDF70BF99DE7126852686A
:10474000BDE700BF2DE9F04F00233E4E4FF00F09AB
:104750004FF0030A4DE03C4FB84265D03B4FB842A2
:1047600066D03B4FB84268D0DFF8E8B058450CBF80
:104770004FF0040B4FF0070B0BFA04F4A44513D1D0
:10478000346824EA0E043460746824EA0E04746009
:10479000F46824EA0E04F460B46824EA0E04B460F9
:1047A000AC6824EA0804AC6004685D000AFA05F508
:1047B0004FEAD30C2C4300EB8C0C046003F007048D
:1047C000DCF820E0A40009FA04F42EEA0404CCF892
:1047D0002040846824EA05048460446824EA0202D4
:1047E0004260C26822EA0502C260013331FA03F274
:1047F00018D001229A4012EA010EF6D023F00305E8
:1048000005F1804505F5803503F00304D5F808C0AF
:10481000A40009FA04F8B0F1904F08EA0C0C9AD100
:104820000024ABE7BDE8F08F012707FA04F4A5E701
:104830004FF0020B0BFA04F4A0E74FF0030B0BFA56
:1048400004F49BE70004014000040048000800480D
:10485000000C004800100048F0B50468054620052B
:1048600083B000F1F6800026A10351D5A54B9A6DC7
:10487000D20040F1F8800027A349A44A0B6843F412
:1048800080730B60D2F8EC0105E0D2F8EC311B1A12
:10489000022B00F201810B68DB05F6D5AEBB99490E
:1048A000A86DD1F8903013F4407326D0834224D001
:1048B000D1F890C0D1F8903043F48033C1F89030F3
:1048C000D1F8903023F48033C1F890301CF0010F00
:1048D0002CF44073C1F890300FD0D2F8ECE141F2E3
:1048E000883C06E0D2F8EC31A3EB0E03634500F2FE
:1048F000D380D1F890309B07F4D5824AD2F890301B
:1049000023F440730343C2F89030002F40F0C88076
:10491000E10708D57B4A296AD2F8883023F00303DF
:104920000B43C2F88830A20708D5764A696AD2F8E4
:10493000883023F00C030B43C2F88830630708D596
:10494000704AA96AD2F8883023F030030B43C2F8CA
:104950008830A70608D56B4AE96AD2F8883023F474
:1049600040630B43C2F88830A00508D5654AE96B5F
:10497000D2F8883023F440230B43C2F88830610515
:1049800008D5604A296CD2F8883023F440130B43D1
:10499000C2F88830620608D55A4A296BD2F88830A6
:1049A00023F440530B43C2F88830230608D5554AF8
:1049B000696BD2F8883023F440430B43C2F8883047
:1049C000E70508D54F4AA96BD2F8883023F4403365
:1049D0000B43C2F8883020030ED54A4AA96CD2F89E
:1049E000883023F040630B43B1F1006FC2F8883088
:1049F0005CD0B1F1806F74D061030ED5414AE96C8F
:104A0000D2F8883023F040630B43B1F1006FC2F855
:104A1000883050D0B1F1806F6BD062040BD539492A
:104A20002A6DD1F8883023F040531343B2F1805FF0
:104A3000C1F888304DD0230408D5324A696DD2F8C8
:104A4000883023F080430B43C2F88830304603B0EF
:104A5000F0BD6F6CB7F5000F10D0B7F5400F12D056
:104A600077B3012600E79A6D42F080529A659B6DFC
:104A700003F080530193019B0127FDE6214AD3688F
:104A800043F48033D3601F4AD2F8883023F44003C4
:104A90003B43C2F88830E6E60326002F3FF438AFE8
:104AA000184A936D23F08053936531E7D36843F43C
:104AB0008013D360A0E7D36843F48013D360ACE7DE
:104AC0003946281DFCF752F8064600287FF4CCAE84
:104AD000D9E70221281DFCF749F8002818BF06462F
:104AE000A9E70121281DFCF741F8002818BF064658
:104AF00082E70121281DFCF739F8002818BF064677
:104B00008BE700BF001002400070004080000020D2
:104B10002DE9F041C16F05689EB00446002947D0D9
:104B20002423E3672A68636A22F001022A60002BCB
:104B300040F0AD80D4E90412A36828680B43134306
:104B4000E169A84A0B43024013432B606B68E2689B
:104B500023F440531343A44A6B609542A369AA68A7
:104B600000F0DB80206A22F43062034313439F4A43
:104B7000AB60954200F04A819D4B9D4240F00D8113
:104B800003F5E633D3F8883003F00C030C2B00F266
:104B90006381DFE813F0D40161016101610111015A
:104BA00061016101610171016101610161016A01DC
:104BB00080F878105C2207A811F0F4F98B4B9D4225
:104BC00000F0F0818A4B9D42AAD1022707A80797DF
:104BD000FFF742FE0646002840F01A82854B864DBC
:104BE0009A6D42F400329A659A6D02F40032049292
:104BF000049ADA6C42F00102DA64DB6C03F0010320
:104C0000039307220323CDE90032039903463A4672
:104C10004FF090400F214FF080080CF057FCC5E991
:104C2000B376C5E9B568C5E9B766C5E9B96605F5FE
:104C30003276724BC5F8C83230460CF045FA00287F
:104C400040F0E6816667102305F54476C5E9C7089C
:104C5000C5E9C900C5E9CB00C5F818333046684B33
:104C6000C5F81473C5F8F042C5F810330CF02CFAEF
:104C70000146002840F0CC8126672620C5F838433D
:104C80000CF0C4FA5F4B40225A60256848E71E07C3
:104C900005D56A68616B22F400420A436A60D8074E
:104CA00005D56A68A16A22F400320A436A6099074E
:104CB00005D56A68E16A22F480320A436A605A07BD
:104CC00005D56A68216B22F480220A436A60DF06F8
:104CD00005D5AA68A16B22F480520A43AA609E06F9
:104CE00005D5AA68E16B22F400520A43AA6058066F
:104CF00009D56A68216C22F480120A43B1F5801F3D
:104D00006A6000F0048119067FF514AF6B68A26C2D
:104D100023F4002313436B600CE722F43062134347
:104D20003449AB60D1F8883003F44063B3F5006FC9
:104D300000F0898000F2E580002B00F05981FBF73C
:104D400075FE0646002E7FD16A682B49002322F4A7
:104D50009042C4E91A336A60AA6822F02A02AA6063
:104D60002A6842F001022A60C4F88430D1F8EC616C
:104D70002B681A0700F186802B685B0700F19D8085
:104D8000002320221846E26784F87830C4F8802097
:104D9000236663661EB0BDE8F0811B4B9D425BD16C
:104DA00003F5E433D3F8883003F03003202B63D0CD
:104DB00059D8002B00F0C380B1F5004F00F02F81CF
:104DC000FBF734FE0028BFD0636800EB5300B0FB54
:104DD000F3F04FF6EF73A0F110029A423CD8E8606E
:104DE000B2E700BFF369FFEF0080004000380140E8
:104DF0000044004000100240800000206C0002408F
:104E00008000024000E100E00048004002F5584206
:104E1000D2F8883003F00303022B2DD0032B24D0CB
:104E2000012BC9D0864BB1F5004F186800F098806F
:104E30009268844BC2F3C222134493F8C83003F043
:104E40001F03D840BEE7804E626802EB4203B342C4
:104E500002D8B6EB023F61D90023C4E91A3301201E
:104E60001EB0BDE8F081302BF6D1B1F5004F00F057
:104E7000D3804FF40040A7E7B1F5004F00F0CA809F
:104E80007148A1E76FF07E4332464FF4001120468F
:104E90000CF07EF900283FF46FAF236853E8002F31
:104EA00022F0800243E800210029F7D12023E367A4
:104EB000002384F878300320D2E76FF07E43324637
:104EC0004FF4800120460CF063F900283FF458AFFE
:104ED000236853E8002F22F4907243E80021002950
:104EE000F7D103F1080252E8002F22F0010203F18A
:104EF000080040E800210029F3D12023C4F88030C5
:104F0000D6E7B3F5406FA7D14FF400469CE76A6837
:104F1000616C22F4C0020A436A60F4E60023500880
:104F200019464FF48077E6FB07010CF0DDFD474B97
:104F3000A0F540729A428FD8454BD86004E7B1F58E
:104F4000004F6FD0434A3F4B92683D49C2F3022263
:104F50001344086893F8C83003F01F03D84031E7C2
:104F60009268384BC2F3C222134493F8C83003F05E
:104F70001F03D84000283FF4E7AE4300626803EB0C
:104F80005203B3FBF2F34FF6EF72A3F1100191421B
:104F90003FF662AF23F00F0292B2C3F34203134312
:104FA000EB60D1E6012307A80793FFF755FC034602
:104FB00070BB284A116E41F480411166116E01F4F4
:104FC000804106910699D16C41F00101D164D26C07
:104FD00002F00102059207210322CDE90021059884
:104FE00002224FF4C0614FF090400CF06FFA97E549
:104FF0008A68144BC2F302221344114A93F8C83052
:10500000166803F01F03DE40002E3FF49DAE1BE741
:10501000FCF7A4FB104BB1E74FF48033AEE7FBF78E
:1050200005FDA7E70B4A074B92680549C2F3022228
:105030001344086893F8C83003F01F03D84099E779
:1050400000000020B87301080024F400FFFC0F00EA
:1050500000800040001002400048E8012DE9F047C0
:10506000C148C24C8AB00A2172B6BFF34F8FBFF35A
:105070006F8F037ADBB262B6BFF34F8FBFF36F8FD0
:1050800043B9D4F8EC21D4F8EC319B1A0A2BFAD9A5
:105090000139E9D1B64B1A683F21C4F8BC1351035A
:1050A00058BF1A68B24B54BF02F480324FF4A022AA
:1050B000C4F8C02319685A68186801F00101C2F3E6
:1050C0000722C4E9F51219685A6800F0F00001F4EB
:1050D0008071C4F8DC03C4F8C813D3F89010A54855
:1050E000C2F30462C4F8CC234A0758BFD3F8902017
:1050F0009F4B54BF02F001020522D3F89410C4F86C
:10510000C423D3F8982001F0010102F00102C4F891
:10511000D013C4F8E0231968DA6811F0807F0CBF5F
:105120000121022102F00302C4E9F912DA68D96808
:10513000C2F302120132C1F30621C4E9FB21D9688E
:10514000DA68C1F34151C2F34162013101324900D1
:105150005200C4E9FE12D9689A68C90E0F2502F000
:105160000302C4F80054C4F8F413C4F80424996882
:105170009A6801F0F00102F4E062C4F80814C4F87F
:105180000C249A680068D4F85813D208242584F8AF
:10519000995302F4E06200F00700C4F81024C4F848
:1051A00014040A68744822F0010281420A6000F087
:1051B00029810023D4F88821C4F89C33022184F883
:1051C000993384F89833C4F8883384F89A3384F890
:1051D000E5111368694923F040038A42136000F027
:1051E000FE80674E674D0023C4F8E83184F8E4314F
:1051F00084F8E53106F10C070CF01EFC2B46314615
:1052000051F8042BD2F800805068D2F808E0D2F8A8
:105210000CC0203343E90880106A526A8F4243E988
:1052200006EC43E90402EBD1DDE9088900234FF0E5
:10523000010C4FF21F704FF090414FF0030E0CFA2B
:1052400003F2024207D0D1F800A05A000EFA02F28F
:1052500042EA0A020A600133102BF0D1CDE900893D
:105260004948002303224EF6FC510CF02FF9CDE9FA
:1052700000894648002303224FF6FF710CF026F9FF
:105280003B4BDA6C22F00102DA64DA6C22F00202A3
:10529000DA64DA6C4FF0E02122F08002DA640B6904
:1052A00023F002030B6172B6BFF34F8FBFF36F8F12
:1052B0004FF090431B691B0503D494F8AD33002BCA
:1052C0007BD062B6BFF34F8FBFF36F8F4FF0E022FA
:1052D0002F48136943F002031361FBF747FDD4F82D
:1052E00014142C48FCF73EF8214BDA6C42F0010212
:1052F000DA64DA6C02F001020592059ADA6C42F087
:105300000202DA64DA6C02F002020492049ADA6CA5
:1053100042F08002DA64DB6C03F080030393039BAA
:1053200056F8043BD5F814C02A68D5E9018ED5E9B2
:105330000301B7421A6005F12005C3F80480C3F8E1
:1053400008E0D8601962C3F824C0E9D10CF0BAF9BA
:105350000CF04CFA1048FFF7DBFB94F89933202B44
:105360001CD0FCF7FBF900BF0000002080000020EB
:105370000010024000200240005800400030014070
:10538000887401089804002000040048001C0048AC
:105390003C04002080040020F8040020D4F85823A6
:1053A0002349282384F899331368C4F88C1343F0F5
:1053B000B80313600AB0BDE8F0871E491E4A0B68A7
:1053C00023F0070343F001030B60136943F0040368
:1053D000136130BF136923F00403136171E7174AA7
:1053E000136E23F48053E02113664FF09040FFF7D3
:1053F000A9F9D4F8E0010CF0C3FAD4F8DC010CF000
:10540000BFFAEEE69A6D0E4822F480029A654FF4D8
:105410008061FFF797F94FF40061FFF793F9094BAB
:105420000222C3F88420BFF34F8FBFF36F8FC0E613
:10543000A94400080070004000ED00E000100240A8
:105440000004004800E100E0F0B4C56F202D4CD10D
:105450000C4601B112B90120F0BC70471946002575
:105460002123C0F88450C36783682B4FA0F85020D5
:10547000B3F5805FD7F8EC61A0F8522038D0B0F8CF
:105480005220036892B2B2B1DA69120604D44A1CFF
:105490001DD1DA691206FCD50CB314F8012B1A855C
:1054A000B0F85220013A92B2A0F85220B0F852203F
:1054B00092B2002AE8D1DA69520604D44C1C1DD1FC
:1054C000DA695106FCD52023C3670020C4E7D7F86A
:1054D000EC21921B914219D3C1B11A68D4E735F877
:1054E000022BC2F308021A85DAE70220F0BC7047EB
:1054F0000369002BC3D125461C46C0E7D7F8EC2131
:10550000921B914202D309B11A68D4E72023C367E2
:10551000F0BC0320704700BF80000020026852E802
:10552000003F23F4907342E800310029F7D102F1E3
:10553000080353E8003F23F0010302F1080C4CE894
:1055400000310029F3D1036E012B06D00023202265
:10555000C0F8802083660366704752E8003F23F05E
:10556000100342E800310029F0D052E8003F23F058
:10557000100342E800310029EFD1E7E770B5AE4CE7
:10558000D4F80055EB692A68A96840F60F00034279
:1055900040F08780980602D5960600F1F380D4F893
:1055A0006005012816D0D80202D5490200F1F48026
:1055B0001E0605D4590602D5530600F1258170BD9B
:1055C0001006F7D5D4F86C35002BF8D0BDE8704044
:1055D0009A481847DE06E6D5D006E4D510232B629C
:1055E000AB68B4F858255B0640F14281D4F87435B5
:1055F00019684B689BB2002B00F07C81934280F0CD
:105600007981A4F85A350B689E0644D455E8003FCA
:1056100023F4807345E800324AB1D4F8002552E8FB
:10562000003F23F4807342E800310029F5D1D4F81B
:10563000002502F1080353E8003F23F0010308327C
:1056400042E800310029F2D1D4F8002502F1080324
:1056500053E8003F23F04003083242E800310029BC
:10566000F2D12023C4F88035C4F86015D4F80025A1
:1056700052E8003F23F0100342E800310029F5D141
:10568000D4F8743593F82520022A00F03A810422D8
:10569000DA6383F824100223C4F86435B4F85A3569
:1056A00070BD11F0010640F09E80654802423FF453
:1056B00076AFD8070FD5D10540F1D68001212962F8
:1056C000D4F8841541F00101C4F8841599076BD50D
:1056D000002E40F08C8058077DD51E0700F1C18058
:1056E0001E050AD5500108D54FF400612962D4F88F
:1056F000841541F02001C4F88415D4F884150029DC
:105700003FF45DAF990602D5920600F1A080D4F86F
:105710008425AB6802F0280203F04003134300F035
:10572000E6804648FFF7FAFEAB685B067FF547AFB9
:1057300005F1080353E8003F23F0400305F1080199
:1057400041E8003262B1D4F8002502F1080353E8C1
:10575000003F23F04003083242E800310029F2D133
:10576000D4F8740500283FF42AAF364B8363FEF764
:1057700047F900283FF423AFD4F87405BDE8704022
:10578000836B1847D4F86835002B3FF418AF04F545
:10579000A060BDE8704018474FF480132B6270BDC5
:1057A000D1058BD4980722D4590714D5002E94D054
:1057B00004212962D4F88415180741F00201C4F8C5
:1057C00084158DD508212962D4F8841541F008018B
:1057D000C4F8841584E7190782D502F0200131430B
:1057E0003FF47EAFEEE7D807DAD499072CD5022133
:1057F0002962D4F884155E0741F00401C4F88415C9
:10580000D6D41907DED46BE755E8003F23F04003F8
:1058100045E800324AB1D4F8002552E8003F23F0B1
:10582000400342E800310029F5D120220023C4F8CA
:105830007C25C4F86C3570BD8000002080050020F8
:1058400020010004AD0C00085E07B1D4D9E7D4F8FC
:105850006835002B3FF45BAF35489847D4F80055C6
:1058600055E79006AED43BE798073FF534AF9BE78A
:10587000B4F85A15B4F85A359BB289B2002B3FF4EC
:105880009EAE91423FF49BAE55E8003F23F49073E7
:1058900045E800324AB1D4F8002552E8003F23F42D
:1058A000907342E800310029F5D1D4F8002502F1C7
:1058B000080353E8003F23F00103083242E80031B7
:1058C0000029F2D12023C4F88035C4F86815C4F843
:1058D0006015D4F8002552E8003F23F0100342E899
:1058E00000310029F5D10223C4F8643570BDC4F835
:1058F000843570BD93427FF462AE0B689D06F2D48E
:1059000070BD1A681D6C106820F00E0010601068E1
:1059100020F0010010605A6C012002F01C0200FA15
:1059200002F26A6083F8250083F82410B3E600BF12
:105930008005002018B1074A0168914205D0064B46
:10594000064A1B69064900201847034A002192684D
:10595000016010470FB037137002002060BC0108CF
:1059600078BC010810B418B10C4B04689C4207D0F5
:105970000B4B0C4A1B690C495DF8044B002018477F
:10598000032A02D9064B094AF4E702EB820200EB34
:1059900082005DF8044B4160704700BF0FB03713C1
:1059A0007002002060BC010878BC0108D0C2010868
:1059B00010B418B10C4B04689C4207D00B4B0C4A36
:1059C0001B690C495DF8044B00201847032A02D9D3
:1059D000064B094AF4E702EB820200EB82005DF815
:1059E000044B0181704700BF0FB0371370020020D5
:1059F00060BC010878BC0108D0C2010810B418B11D
:105A00000C4B04689C4207D00B4B0C4A1B690C4999
:105A10005DF8044B00201847032A02D9064B094AB7
:105A2000F4E702EB820200EB82005DF8044B418157
:105A3000704700BF0FB037137002002060BC010830
:105A400078BC0108D0C2010810B418B10C4B04682E
:105A50009C4207D00B4B0C4A1B690C495DF8044B68
:105A600000201847032A02D9064B094AF4E702EB43
:105A7000820200EB820001755DF8044B704700BFA5
:105A80000FB037137002002060BC010878BC010819
:105A9000D0C2010810B418B10C4B04689C4207D066
:105AA0000B4B0C4A1B690C495DF8044B002018474E
:105AB000032A02D9064B094AF4E702EB820200EB03
:105AC00082005DF8044B8181704700BF0FB037132F
:105AD0007002002060BC010878BC0108D0C2010837
