:020000040800F2
:1000000000000120A1E8000825220008292200089C
:100010002D220008312200083522000800000000CF
:10002000000000000000000000000000392200086D
:100030003D2200080000000041220008452200087F
:10004000F1E80008F1E80008F1E80008552200088E
:10005000F1E80008F1E80008F1E80008F1E800081C
:10006000F1E8000891220008F1E80008F1E8000832
:10007000A5220008B1220008F1E80008F1E8000814
:10008000BD220008C9220008F1E80008F1E80008D4
:10009000F1E80008F1E80008F1E80008F1E80008DC
:1000A000F1E80008F1E80008F1E80008F1E80008CC
:1000B000F1E800080000000000000000F1E800087E
:1000C000F1E80008D5220008F1E80008F1E800088E
:1000D000F1E80008F1E8000855390008F1E80008E7
:1000E000FD220008ED2300080000000000000000D1
:1000F0000000000000000000000000000000000000
:1001000000000000F1E8000800000000F1E800082D
:100110000000000000000000F1E80008F1E800081D
:10012000F1E80008F1E80008F1E80008F1E800084B
:10013000F1E80008000000000000000000000000DE
:10014000F1E80008F1E80008F1E80008000000000C
:10015000F1E80008F1E80008F1E80008F1E800081B
:10016000F1E80008F1E80008F1E8000800000000EC
:10017000F1E80008F1E800080000000000000000BD
:10018000F1E80008F1E80008F1E8000800000000CC
:10019000B0F1904F84B017D0234B984204D0234B3A
:1001A00098422CD004B0704711B303F1784303F5A3
:1001B0000333DA6C42F00202DA64DB6C03F0020310
:1001C0000293029B04B0704759B1194BDA6C42F0AC
:1001D0000102DA64DB6C03F001030193019B04B0BC
:1001E0007047134AD36C23F00103D36404B0704703
:1001F0000F4AD36C23F00203D36404B0704769B193
:1002000003F1784303F5FA33DA6C42F08002DA64E2
:10021000DB6C03F080030393039BC3E7044AD36CB6
:1002200023F08003D364BDE700040048001C0048AD
:1002300000100240B1F804C093680A899A80BCF1AA
:10024000000C18BF4FF0010CCA7983F800C091F878
:1002500006C083F801C09A709860704790F824C077
:10026000BCF1010F3CD070B590F825C00124A44525
:1002700080F824405FFA8CFE04D0002380F82430FC
:10028000022070BD022580F8255004680025C56352
:100290002668456C26F00106266005F01C05066CF4
:1002A0000EFA05F5756063608368102B036B0BBF56
:1002B000A260A160E160E2604BB1236843F00E03ED
:1002C0002360236843F001030020236070BD23688E
:1002D00023F004032360236843F00A032360F0E75C
:1002E000022070472DE9F041764C0023237094F8EA
:1002F0006530012B0D46E16808D0B1F5827F60D1F1
:10030000D8B22369002B5CD104285AD1002D58D0D3
:1003100092B2002A55D094F86430012B51D094F851
:100320006530A6682564042B1CBF052384F865305E
:1003300001210023A36684F86410A4F84620A4F8E1
:100340004E20C4E915337368A4F8442023F4C04355
:10035000A564A4F84C2073606369206EB3F5E06F68
:1003600031D8E36D99697368B1F5806F43F48053B8
:1003700073607DD08369B3F5806F65D094F8653084
:10038000514A042B514B18BF1346514A0363514B3A
:100390004363514B18BF1346C362B4F84E304FF05D
:1003A0000008C0F838809BB206F10C012A46FFF71E
:1003B00055FF074660B1A36E84F8648043F01003D4
:1003C000A366BDE8F081736823F480537360D5E7BA
:1003D0007368E06D43F001037360B4F846300A4679
:1003E000C0E90B77C0E90D7729469BB2FFF736FFCE
:1003F00000284AD133685B0621D5002384F8643095
:10040000736843F020037360736843F00203736002
:10041000E26E2378002BD4D141F2873109E072B625
:10042000237803B930BF62B6BFF36F8F2378002BF8
:10043000C7D1E36E9B1A8B42F1D9BDE8F0813368D6
:1004400043F040033360D8E7736823F4805373604C
:10045000B4F84E3013F0010F73681DD123F400532C
:100460007360B4F84E30C3F34E03A4F84E3085E702
:10047000D20773681BD423F480437360B4F846300A
:10048000C3F34E03A4F8463074E7A36E84F8647097
:1004900043F01003A36694E743F400537360B4F889
:1004A0004E30C3F34E030133A4F84E3066E743F4F5
:1004B00080437360B4F84630C3F34E030133A4F8AD
:1004C000463057E7780000208512000881120008A6
:1004D000F9200008891200084D20000890F8252016
:1004E000022A03D00422C263012070470168426CD3
:1004F00010B50C6824F00E040C600C6824F00104A4
:100500000C6002F01C02046C012101FA02F262602C
:10051000826B80F82510002480F8244002B19047B7
:10052000002010BD70B4436C066C056831682C68FF
:1005300003F01C0304229A400A420ED014F0040F68
:100540000BD02B689B0603D42B6823F004032B608D
:10055000036B7260CBB170BC184702229A400A420A
:1005600015D014F0020F12D02B68990606D42B6810
:1005700023F00A032B60012380F82530C36A7260E0
:10058000002180F82410002BE5D170BC70470822B0
:100590009A400A42F9D02207F7D52A68416B22F027
:1005A0000E022A60012202FA03F300247360C26380
:1005B00080F8244080F825200029E6D070BC084748
:1005C0002DE9F04F00233E4E4FF00F094FF0030A84
:1005D0004DE03C4FB84265D03B4FB84266D03B4FF0
:1005E000B84268D0DFF8E8B058450CBF4FF0040BB4
:1005F0004FF0070B0BFA04F4A44513D1346824EA36
:100600000E043460746824EA0E047460F46824EA0A
:100610000E04F460B46824EA0E04B460AC6824EA02
:100620000804AC6004685D000AFA05F54FEAD30CD3
:100630002C4300EB8C0C046003F00704DCF820E092
:10064000A40009FA04F42EEA0404CCF820408468DB
:1006500024EA05048460446824EA02024260C26815
:1006600022EA0502C260013331FA03F218D00122F6
:100670009A4012EA010EF6D023F0030505F18045F9
:1006800005F5803503F00304D5F808C0A40009FA85
:1006900004F8B0F1904F08EA0C0C9AD10024ABE7B3
:1006A000BDE8F08F012707FA04F4A5E74FF0020B2D
:1006B0000BFA04F4A0E74FF0030B0BFA04F49BE7EA
:1006C000000401400004004800080048000C0048F5
:1006D00000100048002310B480F8423090F8412008
:1006E000212A4FF0200118D1112280F84110026315
:1006F00090F84110046801F028012268436328291A
:1007000014BF6FF0F2016FF042010A400023226033
:100710005DF8044B80F840307047122280F8411099
:10072000026390F84120016802F028020C684363DC
:10073000282A14BF6FF0F4026FF044022240002315
:100740000A605DF8044B80F84030704701680B6820
:10075000002280F842205A040CD50B6823F4804311
:100760000B6090F84130292B0ED090F841302A2BA5
:1007700020D070471B04F4D50B6823F400430B60B2
:1007800090F84130292BF0D12822212380F84120F4
:10079000036390F841300A6803F02803282B14BF44
:1007A0006FF0F2036FF04203134000220B6080F8F9
:1007B000402070472822222380F84120036390F8CC
:1007C00041300A6803F02803282B14BF6FF0F403AC
:1007D0006FF04403134000220B6080F84020704704
:1007E00010B400232022174CC4624363036380F8D3
:1007F000412080F842304B07026811D5436A526AA3
:100800001A70436A028D013343624AB1438D013B42
:100810009BB24385436C013A43F004030285436471
:10082000036890F8412090F841201A68102422F0C3
:10083000FE0200211A60DC615DF8044B80F8401074
:10084000704700BF0000FFFF10B50446514A94F8FE
:100850004130002084F84200E2626085626C1143FE
:10086000A3F12802022A236861645DD894F841103C
:1008700094F8412001F02801282902F0280214BF31
:10088000F6214621282A1A680CBFC9436FF0F601E9
:100890000A40282040491A6084F84100A06B226B6E
:1008A000616318B1112A11D0212A0FD0E06B18B161
:1008B000122A20D0222A1ED094F84130602B4FF00B
:1008C000000360D0236384F8403010BD1A685104DF
:1008D00054D490F82530012BEED0304A82630023A7
:1008E00084F84030FFF7FAFD0028EED0A06BBDE899
:1008F0001040836B18471A68120403D51A6822F453
:1009000000421A6090F82530012BD5D0234A82632B
:10091000002384F84030FFF7E1FD0028D5D0E06BDC
:10092000BDE81040836B184794F8412094F84120AB
:100930001A6822F0FE021A609A69920748BF98620C
:100940009A69D10703D49A6942F001029A6194F836
:100950004120602A10D0202284F841209A69920612
:100960000AD59A69D00605D51022DA61626C42F088
:10097000040262642022DA6100218FE71A6822F4FF
:1009800080421A60A5E7202284F8412084F8403094
:10099000236310BD0000FFFF2D1D0008011000089B
:1009A00030B40368202282B0DA6190F84120212A15
:1009B00090F841204AD0222A56D05A68324C00255D
:1009C00022405A60314C4563CD06C46205D51022E1
:1009D000DA61426C42F00402426490F84120602ADD
:1009E0002DD09A69910744BF00229A629A69D20772
:1009F00003D49A6942F001029A61436C90F8412055
:100A0000602A0BD053B990F84120212A0AD090F8DF
:100A10004120222A06D002B030BC7047416C02B09F
:100A200030BC11E7202280F84120036390F8422077
:100A300080F8403080F8423002B030BC70474C073C
:100A4000CFD55A6AD2B20192019ACAE702F02802BF
:100A50001C68282A14BF6FF0F2026FF04202224095
:100A600011241A600463A8E790F841201C6802F082
:100A70002802282A14BF6FF0F4026FF044022240CB
:100A800012241A60046398E700E800FE0000FFFFEC
:100A900038B590F84030012B00F085800123CD0659
:100AA000044680F8403001D5D00659D40D063AD519
:100AB00050064DD523681A6822F040021A60628DF4
:100AC00092B2002A71D05868628D92B2FF2AC0F3A8
:100AD000090078D8618DE26A89B212F5803F2185DC
:100AE00000F082805FFA81FCE26A4FEA0C4C42EA35
:100AF0000C020243404D586822F000422840024355
:100B00005A60628D521A92B2628594F84120222A6C
:100B10001A680CBF42F4004242F480421A6000207E
:100B200084F8400038BD4D0612D5500610D5638DAF
:100B30009BB2002B40D123685A689201EFD4E26A3D
:100B400012F5803F34D15A6842F480425A60E6E799
:100B50008B06E4D59306E2D52046FFF721FFDEE7BA
:100B6000236826481022DA61616C626B41F004014F
:100B70008242616425D022498A4222D021498A4298
:100B800014BF2022602219680A431A609A699107EB
:100B900044BF00229A629A69D207C0D49A6942F08F
:100BA00001029A61BBE7022038BD5B689A0103D459
:100BB0002046FFF78FFDB2E740212046FFF744FEB5
:100BC000ADE76022DFE79A69D10306D501212185CF
:100BD0004FF4803C4FF0807289E7FF2121854FF46C
:100BE0007F0C4FF0807282E75FFA81FC4FEA0C4C79
:100BF0004FF000727BE700BF009C00FC910A0008E8
:100C0000651E0008090C000838B590F84030012B2B
:100C100000F0D680012380F84030CB06044602D590
:100C2000D00600F1A9808B070BD5900709D5226863
:100C3000216D91624FF0FF332365002084F840005E
:100C400038BD0B063AD5550640F18C8094F841200A
:100C5000236802F028021968282A14BF6FF0F202F4
:100C60006FF042020A401A601A6842F090021A605D
:100C7000628D92B2002A00F0B880628D92B2FF2A93
:100C800040F2A2809869654DE16C5A68C0F300405B
:100C900000280CBF4FF47F004FF4803002EA0502B9
:100CA000C1F3090142EA000242EA010242F0807205
:100CB0000CBFFF21012121855A6040E04B0651D530
:100CC00050064FD594F84110236855481A6801F032
:100CD0002801282914BF6FF0F2016FF042010A4089
:100CE0001A601A684F4942F090021A6094F841C0A5
:100CF000628D92B2BCF1220F08BF0846FF2A79D953
:100D00009A69C2F30042002AE26CC2F309020CBFE6
:100D10004FF47F054FF4803542EA000242EA0502B3
:100D20005868414D22F0004200EA050042EA000204
:100D30000CBFFF21012142F0807221855A60628D33
:100D4000521A92B2628594F84120222A1A684FF012
:100D500000000CBF42F4004242F480421A6084F862
:100D600040006DE788067FF568AF93067FF565AFB5
:100D70002046FFF715FE60E723682C481022DA6151
:100D8000616C626B41F00401824261641AD02849AF
:100D90008A4217D027498A4214BF2022602219684C
:100DA0000A431A609A69910744BF00229A629A69BD
:100DB000D2073FF542AF9A6942F001029A613CE7DF
:100DC000022038BD6022EAE7618D144DE26C58685C
:100DD00089B22840C2F30902CDB242EA0542024379
:100DE00042F0007221855A60A9E740212046FFF7B2
:100DF0002BFD22E7618DE26C89B2CDB2C2F309020C
:100E000042EA05420243084D5868218522F000421B
:100E10002840024342F000725A6090E7009C00FCB8
:100E20000020008000240080009800FC910A000847
:100E3000651E0008090C000870B5036804460D46DD
:100E40001968C06A94F841202026213ADE61092AF7
:100E50000ED8DFE802F06E050D0D0D0D0DA16E052B
:100E600094F841201A6822F0FC021A6022222263C0
:100E70005A68614E42F400425A605A6832405A60E1
:100E80009A69920744BF00229A629A69D60703D4EE
:100E90009A6942F001029A614A0435D51A6822F42F
:100EA00080421A60A26B1AB11268526892B26285CF
:100EB0006A070AD55A6A636A1A70636A0133636201
:100EC000238D25F00405002B5FD1638D9BB21BB1F0
:100ED000636C43F004036364EB0601D5CE0631D4A2
:100EE000002384F84230666C6363002E5FD1E36AAE
:100EF000424DAB4212D194F8413084F84060202337
:100F000084F84130266370BD0E04D1D51A6822F4EE
:100F100000421A60E26B002AC6D1C9E72046FFF7FB
:100F200015FC2023E56284F8406084F84130266394
:100F300070BD94F841201A6822F0FA021A6021224A
:100F4000226395E7638D9BB2002B3DD194F841302D
:100F5000282B48D094F841202368292A4FF010020A
:100F6000DA61BDD110F5803FBAD09A69910744BFCC
:100F700000229A629A69D20703D49A6942F0010268
:100F80009A612046FFF7E2FBAAE7013B2385638DC8
:100F9000013B9BB2638598E794F8412094F8412087
:100FA0001A6822F0FE021A600022226360E7616C78
:100FB0002046FFF749FC94F84130282BA3D129465D
:100FC0002046BDE870400BE423681022DA61636CB0
:100FD00043F00403636430F0807381D1616C204678
:100FE000FFF732FC7CE7B0F1007FB3D12946204601
:100FF000FFF7F6FB74E700BF00E800FE0000FFFF0C
:10100000836A9A6B0AB100219163DA6B0AB10021FD
:10101000916393F84120602A09BF00220022202119
:1010200083F841101A63002283F84020704700BF04
:10103000264A9368D26813F00C0305D00C2B32D0EB
:10104000042B3ED122487047204A1168090754BF3B
:10105000D2F8942012681F4954BFC2F30322C2F38E
:10106000031251F82200002BEDD0184BDB6803F07F
:101070000303022B23D0184A032B08BF1046134B3F
:10108000D968DA68DB68C3F34163C2F30622C1F3AF
:101090000211013300FB02F201315B00B2FBF1F2FD
:1010A000B2FBF3F0704702F00302012ACCD0074BE9
:1010B000DB6803F00303022B4FF00000DBD1044890
:1010C000DDE7082B044818BF0020704700100240DD
:1010D0000024F4009021010800127A0021498B6D50
:1010E000DB0082B01CD5204B1B6803F4C063B3F552
:1010F000007F29D080282ED831D0A0F17002B2FA1A
:1011000082F2520919490B6823F0070313430B605D
:10111000086800F00700801A18BF012002B070476D
:101120008B6D114A43F080538B658B6D03F08053B8
:101130000193019B13688A6D03F4C06322F080520F
:10114000B3F5007F8A65D5D1802806D9A0288CBF49
:1011500002220122D6E70322D4E70022D2E70222AC
:10116000D0E700BF001002400070004000200240A5
:10117000414A036830B4D468A40707D0D46804F0A7
:1011800003049C4246D0012030BC7047022B52D051
:10119000032B49D0012BF6D112689207F3D5364CB8
:1011A000E26822F0730213434268013A43EA0213F1
:1011B000E360314C314A236823F080632360D56EAD
:1011C00003E0D36E5B1B022B39D823681B01F8D4D4
:1011D00083681B02002934D12169C56821F0784158
:1011E00021F4FE4143EAC5630B43236122490B68A6
:1011F00043F080630B60D46E03E0D36E1B1B022BA5
:101200001DD80B681B01F8D582690B6913430020B8
:101210000B61B9E7002CB6D0D3684268C3F3021360
:1012200001339342AFD1C4E71468A403B7D4126862
:101230005203A8D5B3E712685505A4D5AFE703203C
:10124000A2E7012921690BD021F0C06121F4FE4100
:10125000194343695B08013B41EA43612161C5E7EA
:1012600021F4C00121F4FE410B4301694908013911
:1012700043EA41532361B9E700100240780000209F
:10128000704700BF704700BF836A19684A6822F040
:1012900003024A601A6E4FF0010C42F010021A6607
:1012A00083F85DC0704700BF0368806A1A6812F057
:1012B000200228D10368A0F85A2053E8002F22F416
:1012C000807243E800210029F7D103F1080252E8B7
:1012D000002F22F0010203F1080C4CE80021002944
:1012E000F3D103F1080252E8002F22F0400203F18B
:1012F000080C4CE800210029F3D12022C0F88020FE
:10130000026E012A03D000234366036E704753E840
:10131000002F22F0100243E800210029F3D053E807
:10132000002F22F0100243E800210029EFD1EAE764
:10133000836A01225A661B6E704700BF836A0022CF
:10134000A3F85A20A3F85220704700BFD0F88010AD
:10135000B0F85C300268222905D0138B9BB243F0B1
:10136000080313837047918C426D0B401370B0F8E3
:101370005A30426D013B9BB2A0F85A30B0F85A3057
:1013800001329BB24265002B45D110B4036853E88B
:10139000002F22F4907243E800210029F7D103F1D5
:1013A000080252E8002F22F0010203F1080444E889
:1013B00000210029F3D1184A816620249342C0F805
:1013C0008040416612D05A6811020FD553E8002FB1
:1013D00022F0806243E8002141B1016851E8002F0A
:1013E00022F0806241E80024002CF7D1026E012A2D
:1013F0000ED10022026653E8002F22F0100243E8CB
:1014000000210029F7D1DA69D20601D510221A622B
:101410005DF8044B7047704700800040D0F88010A2
:10142000B0F85C300268222905D0138B9BB243F0E0
:1014300008031383704710B4948C416D234021F846
:10144000023BB0F85A304165013B9BB2A0F85A30DC
:10145000B0F85A309BB2002B40D152E8003F23F441
:10146000907342E800310029F7D1016801F10803C7
:1014700053E8003F23F0010301F1080C4CE800346D
:10148000002CF3D12023C0F88030164B846699429B
:10149000446611D04B681C020ED551E8003F23F082
:1014A000806341E800343CB152E8003F23F08063A0
:1014B00042E80034002CF7D1036E012B0ED100233B
:1014C000036651E8003F23F0100341E80032002A90
:1014D000F7D1CB69DB0601D510230B625DF8044B15
:1014E000704700BF0080004008B518B1074B026884
:1014F0009A4208D0064B074AD3F8803006490020AC
:101500009847012008BD90F8620008BD0FB037135E
:1015100078000020E4600108FC60010870B5114EFD
:10152000114A3368A2FB03239B09013BB3F1807F7F
:1015300001D3012070BD4FF0E0220C495361F0232C
:1015400081F82330002507230F2895610446136195
:10155000EFD801464FF0FF3009F0CAFE746028460C
:1015600070BD00BF00000020D34D621000ED00E010
:10157000F0B5884B02689D68DE680446D00683B0EB
:1015800005F00C0506F0030640F12981002D40F01E
:10159000F180804B1B68990700F159817D4B276AC8
:1015A0001A68120756BFD3F894301B681B0903F062
:1015B000F0039F4200F2D081764B1A6842F0080295
:1015C0001A601A6822F0F0023A431A605A68E16918
:1015D00022F47F4242EA01225A60002D00F0F0819D
:1015E000FFF726FD6B4B9A686B4BC2F30312134453
:1015F0006A4A93F8303003F01F0320FA03F350686F
:101600001360FFF78BFF002840F026812268D00787
:1016100000F1E98090071DD50C2D00F0B581E3683D
:101620005C48002B00F06F81036843F48073036013
:101630005B4BDE6E04E0D96E891B022900F23E810D
:1016400001684905F7D54368216923F0F85343EA57
:1016500001634360160716D563694E48002B00F0FE
:101660000981D0F8943043F00103C0F894304C4B1A
:10167000DE6E04E0D96E891B022900F21F81D0F8CA
:1016800094108907F6D550073DD5424B996DC90096
:1016900000F13781996D41F0805199659B6D03F0A0
:1016A00080530193019B01203E4E3368DF0540F1DA
:1016B000F7803B4BA168012900F03481052900F037
:1016C0009381344ED6F8907027F00107C6F89070D9
:1016D000D6F8907027F00407C6F89070002940F003
:1016E0002881D3F86CC041F2883705E0D96EA1EBB0
:1016F0000C01B94200F2E280D6F890108907F5D4C7
:10170000002840F05781970616D5636A2149002BBF
:1017100000F03E81D1F89820214B42F00102C1F83F
:101720009820D86E04E0DA6E121A022A00F2C680FF
:10173000D1F898209607F6D5A36ACBB1022B00F01A
:1017400061810C2D00F087801249154B0A6822F048
:1017500080720A60D86E04E0DA6E121A022A00F271
:10176000AD800A689201F7D4CA680F4B1340CB6072
:10177000002071E00C2D00F08F80A3690548002B3C
:1017800000F09F800168064B41F001010160DF6EAF
:1017900011E000BF0010024090210108000000206D
:1017A0007800002000700040FCFFEEFED96EC91BDF
:1017B000022900F2838001688907F7D5036843F0A6
:1017C000080303600368216A23F0F0030B430360FE
:1017D0004368E16923F47F4343EA01234360D3076D
:1017E00020D5082D3CD00C2D38D06368B3F5803F50
:1017F00076D0B3F5A02F00F0EA808D48016821F47F
:1018000080310160016821F480210160002B6CD1DE
:10181000884BDF6E03E0D96EC91B64294ED801687E
:101820008903F8D497077FF515AF042D7FF4F4AE44
:101830007F4B1B68580501D5E36863B17C4920697B
:101840004B6823F0F85343EA00634B6002E7A36957
:10185000002B7FF4A3AE012003B0F0BD032EC4D152
:10186000734B1B689F037FF5D5AE6368002B7FF435
:10187000D1AEF0E7D0F8943023F00103C0F89430F3
:101880006C4BDE6E03E0D96E891B022916D8D0F8A6
:1018900094108F07F7D4F6E6012E7FF46EAF78E64A
:1018A000336843F480733360624BDF6E3168C9057F
:1018B0003FF500AFD96EC91B0229F7D9032003B049
:1018C000F0BD01685B4B21F001010160DF6E03E0B8
:1018D000D96EC91B0229F1D801688907F8D47EE7BF
:1018E00053490B6843F480330B60524B5048DF6E12
:1018F00003E0D96EC91B6429E0D801688903F8D5D3
:1019000090E70020D0E6036823F480730360494B1E
:10191000DE6E03E0D96E891B0229CFD801684F051E
:10192000F8D497E6424ED6F8901041F00101C6F87F
:101930009010D3F86CC03E4E41F2883704E0D96E67
:10194000A1EB0C01B942B9D8D6F890108907F6D5A9
:1019500000283FF4D8AE2DE03846FFF7BFFB002843
:101960007FF479AF324B1A6842F008021A601A68A5
:1019700022F0F0023A431A605A68E16922F47F4289
:1019800042EA01225A602BE6022E7FF448AE4FE76E
:10199000D1F89820274B22F00102C1F89820D86E88
:1019A00003E0DA6E121A022A88D8D1F8982092073A
:1019B000F7D4C1E61E498B6D23F080538B65A2E6F8
:1019C0003846FFF78BFB00283FF40AAE43E703F1EC
:1019D0008043A3F53C33196841F4802119601968EC
:1019E00041F48031196080E71149D1F8906046F0E8
:1019F0000406C1F89060D1F8906046F00106C1F885
:101A0000906096E70A4AE66AD36803F00301B142A0
:101A100047D00C2D3FF41FAF05490B685F013FF520
:101A20001AAF0A68034B22F080720A60D86E08E091
:101A30000010024078000020DA6E121A022A3FF6E7
:101A40003DAF0A689501F7D4C868334A0240606B1D
:101A5000324342EA0022A06B42EAC062206B0138A6
:101A600042EA0012D4E90F506C08013C40080138EA
:101A700042EA445242EA4062CA600A68274842F099
:101A800080720A60CA6842F08072CA60D96E04E04F
:101A9000DA6E521A022A3FF611AF02689401F7D5A6
:101AA00066E6216B03F070000139B0EB011FB0D185
:101AB000606B03F4FE41B1EB002FAAD1A06B03F0E1
:101AC0007841B1EBC06FA4D1E16B4908013903F44F
:101AD000C000B0EB415F9CD1216C490803F0C063AA
:101AE0000139B3EB416F94D1136898013FF540AED3
:101AF00011680B4B41F080711160D16841F0807129
:101B0000D160D86E04E0D96E091A02293FF6D6AE2C
:101B100011688901F7D52BE68C809D0100100240E9
:101B200078000020504AF8B5136803F007038B4291
:101B30000BD2136823F007030B431360136803F001
:101B400007038B4201D00120F8BD046814F0020E97
:101B500004F0010367D0454E8568B26802F0F002D8
:101B6000954204D9B26822F0F0022A43B260002BF9
:101B700064D04268032A5BD03C4B022A1B6869D0C0
:101B8000002A6CD19E07DED5384D394EAB6823F064
:101B900003031343AB60F76E920041F2883C03E00D
:101BA000F36EDB1B634558D8AB6803F00C0393421C
:101BB000F6D1BEF1000F40D12B4A136803F00703A2
:101BC0008B4209D9136823F007030B431360136892
:101BD00003F007038B42B6D1620706D5234AC168DA
:101BE000936823F4E0630B439360230707D51F4AF0
:101BF0000169936823F4605343EAC1039360FFF7DC
:101C000017FA1A491B4A89681B4CC1F303110A448D
:101C1000034692F83020606802F01F02D340236030
:101C2000BDE8F8407AE4002BC6D04268032AA3D16D
:101C30000E4B1B689B01A7D485E785680B4A936808
:101C400003F0F0039D42B7D2936823F0F0032B43D7
:101C50009360B1E79F0397D475E70320F8BD5D0556
:101C60007FF571AF90E700BF0020024000100240F6
:101C70007800002090210108000000200CB4F0B58D
:101C8000ADB032AB06AE53F8042B059304460D46B7
:101C9000304696210FF008FD9528C4BF1B4BCDF8A8
:101CA000AA301B4B1B49DF6EA1FB07311A4BA3FB6C
:101CB0000723980B194BA3FB07234FEA931C184BE0
:101CC0004FF47A7202FB1C77A3FB00E25209042C4A
:101CD000C2EB0212A0EB8202A3FB0CE398BF1148F7
:101CE00000974FEA531394BF005D3F20C3EB0313EB
:101CF0000190CDE90256490DACEB83030A480FF081
:101D0000ADFC2DB0BDE8F04002B070472E2E2E0085
:101D100078000020B17C219573B2E745D34D621065
:101D200089888888286101080461010838B590F81D
:101D300040C0C56ABCF1010F67D04FF0010C11F033
:101D4000200F04460B4680F840C002D012F0200F4E
:101D500051D1D80615D5D10613D5628D92B2002A7D
:101D600055D194F84120282A74D094F84120236852
:101D7000292A4FF01002DA615CD0002084F840007C
:101D800038BD590719D4190701D5100739D4990757
:101D9000F3D59307F1D5638D9BB2002B46D0616AD2
:101DA000236811F8012B9A62638D228D6162013BD9
:101DB0009BB2013A63852285DFE75007E3D5638D47
:101DC0009BB26BB12268636A526A1A70638D616A52
:101DD000228D013B0131013A9BB26162228563850C
:101DE000638D9BB2002BC8D115F5803FC5D020462E
:101DF000FEF7ACFCC1E7FFF71FF8002084F84000B5
:101E0000BEE720460BF0F8FAB7E7022038BD23689A
:101E10001022DA61636C43F00403636435F080736D
:101E2000ABD1616C2046FEF70FFDA6E735F080735D
:101E3000A3D1DCE715F5803F9FD09A69950744BF91
:101E400000229A629A69D007D1D49A6942F00102BD
:101E50009A61CCE7B5F1007F87D119462046FEF79D
:101E6000BFFC8AE738B590F840C0C56ABCF1010FE5
:101E700046D04FF0010C11F0200F04460B4680F8BD
:101E800040C002D012F0200F30D1D90626D5D0069E
:101E900024D55104C2F3803034D5E16B09B112046A
:101EA00035D4A26B1AB112685268002A37D0236861
:101EB0001022DA61636C43F00403636494F84130E8
:101EC00035F08072DBB20DD1213B092B4CD8DFE815
:101ED00003F049504B4B4B4B4B4B4950190701D525
:101EE000130709D4002084F8400038BDFEF7A4FF92
:101EF000002084F84000F8E720460BF07DFAF1E777
:101F0000022038BD110429D5E16B0029CFD00A6821
:101F10005268002A30D1A26B0AB100283AD194F855
:101F20004120282A2ED094F841202368292A4FF0F6
:101F30001002DA61D6D115F5803FD3D09A699507A2
:101F400044BF00229A629A69D00703D49A6942F08A
:101F500001029A612046FEF7F9FBC3E723681022CD
:101F6000DA61BFE721232363616C2046FEF76CFC36
:101F7000B8E722232363F7E7A26B002A97D0002853
:101F800095D090E7B5F1007FCDD119462046FEF7F8
:101F900027FCA7E712685268C1E700BF002854D0A9
:101FA00010B50446006808B108F0E8F9E06F08B120
:101FB0000FF00AFBD4F8880008B10FF005FBD4F845
:101FC000800008B10FF000FBD4F8840008B10FF0D6
:101FD000FBFAD4F88C0008B10FF0F6FAD4F89000B0
:101FE00008B10FF0F1FAD4F8940008B10FF0ECFA50
:101FF000D4F8980008B10FF0E7FAD4F89C0008B1C3
:102000000FF0E2FAD4F8A00008B10FF0DDFAD4F82E
:10201000A40008B10FF0D8FAD4F8A80008B10FF066
:10202000D3FAD4F8AC0008B10FF0CEFAD4F8B0006F
:1020300008B10FF0C9FAD4F8B80008B10FF0C4FA2B
:102040002046BDE810400FF0BFBA704738B5294AA6
:102050000368D56E1B689B061BD4846A2368A2683C
:102060005868616820F0200058609AB15868B1F54E
:10207000827F20F00100586022D02946204608F0D7
:10208000B1FAB0B901230022A4F8462084F85D30EB
:10209000236E38BD5A68B1F5827F0CBF22F003026F
:1020A00022F001025A602946204608F09BFA0028D7
:1020B000E8D0236E43F02003236620232366E1E764
:1020C000B2F5004F12D11A6822F0400229461A6078
:1020D000204608F087FA0028EBD12A464FF4C06169
:1020E000204608F01BFA0028CCD0E2E7B2F5806F5A
:1020F000E9D0C2E778000020F8B51B4D0368EF6E09
:102100001B68846A9B062CD42668736823F020031E
:1021100073603A464FF4C051204608F0FFF958B9B1
:102120003946204608F05EFA30B93A464FF4C061AD
:10213000204608F0F3F938B1236E43F020032366FC
:10214000236E43F020032366736823F00303736058
:1021500000220123E287A4F8462084F85D30236E34
:102160000BB901232B70F8BD78000020BFF34F8F0F
:102170000549064BCA6802F4E0621343CB60BFF323
:102180004F8F00BFFDE700BF00ED00E00400FA053F
:1021900030B4224BD3F88820D36813F00803FBD166
:1021A000946A156911685268C1F3015000EB800010
:1021B00001F07F32C1F3034111EB400118BF184B0E
:1021C00022F0FE4218BF4B43C2F3023101EB810102
:1021D000C2F3032010EB41001CBF4EF6602101FB4F
:1021E0000033C2F3021101EB810102F00F0212EB86
:1021F0004102C5F30E0518BF4FF47A71A5EB040038
:1022000018BF01FB02334FF47A72013502FB00F074
:10221000B0FBF5F030BC1844704700BF78000020D8
:1022200080EE3600FEE700BFFEE700BFFEE700BF1E
:10223000FEE700BFFEE700BF704700BF704700BF6A
:10224000704700BF024AD36E0133D366704700BFA8
:10225000780000200C4B0D49D3F888204FF48010F3
:102260004861D168490503D4012283F8A920704749
:10227000D168C9B261F49061D1600120012283F874
:10228000AC0083F8A92070477800002000040140CA
:10229000034B5A69120744BF08225A61704700BFB6
:1022A000000401400148FEF73DB900BF28010020AD
:1022B0000148FEF737B900BF700100200148FEF762
:1022C00031B900BFB80100200148FEF72BB900BFAB
:1022D00000020020084810B4D0F8D031D0F80442F1
:1022E00099691A682CB1234600F5E8705DF8044B33
:1022F00018475DF8044B704778000020034B5A697B
:10230000120544BF4FF400625A6170470004014057
:10231000034AD2F8883043F47003C2F8883070471B
:1023200000ED00E030B52B4D8DB02C22002101A82E
:102330000FF008F8D5F82442002C43D0FFF728FF0F
:10234000254BD5F8941003910444A3FB0423234A9E
:102350005B0D02FB1344224AA2FB0402920B4EF6D1
:10236000602505FB12448DF805201E4A1E48A2FB7D
:102370000352120902EB4202A3EBC2038DF80430B0
:10238000A0FB04239B094FF47A7202FB134401FB68
:102390000444A0FB04048DF80630A1EB94114FF423
:1023A00080704FF000424FF0606302910B900692F4
:1023B000089308F087FD18B901A808F02BFE38B182
:1023C000FFF7D4FE08F07EFD0028F9D185F8280239
:1023D0000DB030BD78000020B17C219580EE360034
:1023E00073B2E745ABAAAAAAD34D621010B5164C3A
:1023F000164AD4F888304FF4802151619A68D2048B
:1024000002D5DA68D00512D49A68910402D5DA6848
:10241000920503D4012384F8A93010BDDA68D2B242
:1024200062F42072DA60012384F8A93010BDDA6802
:10243000D2B262F4C072DA60012184F82812FFF788
:1024400071FFD4F88830DFE77800002000040140F5
:1024500008B518B1074B02689A4208D0064B074AE4
:10246000D3F88030064900209847002008BD01209D
:1024700008BD00BF0FB0371378000020E4600108EA
:10248000FC60010860B170B5C56804461DB12846FE
:1024900007F040FF28B92046BDE870400FF094B81F
:1024A0007047EE6B3046FFF7D3FF28B900232B604F
:1024B000284606F017FCEEE700233360304606F0AE
:1024C00011FCF3E708B518B10E4B02689A4208D028
:1024D0000D4B0E4AD3F880300D490020984700205C
:1024E00008BD032907D9084B0A4AD3F880300849A8
:1024F00000209847F3E701EB810100EB81000089A0
:1025000008BD00BF0FB0371378000020E460010859
:10251000FC600108306101082DE9F04F85B0DFF85B
:10252000D8A0304D304E03930446884617464FF0EE
:10253000020B4FF48059CAF8289008F027FFCAF818
:10254000189008F023FF14B12368B3420BD0D5F8DC
:102550008030264A264900209847BBF1010F1CD045
:102560004FF0010BE5E7002FF7D004F10D09A0684B
:10257000039ACDF800804B46394606F08DFD0028C1
:10258000EBD0637B0A2B17D008F0DCFE0028E4D0E8
:10259000154B22689A42DAD1E9E716480FF04CF859
:1025A000C4B9104B114AD3F8803011490020984724
:1025B000002005B0BDE8F08F0F4C03904FF480551C
:1025C000A56208F0E3FEA56108F0E0FE039805B0FF
:1025D000BDE8F08F044B22689A42E2D1A06808F06F
:1025E0007FFFE5E7780000200EB03713486101084F
:1025F000606101086861010800040048F0B583B01B
:10260000002858D0334D0368AB4204461CD0324EEC
:10261000324AD6F8803032490020984731480FF0CE
:102620000BF82368AB4250D0D6F880302B4A2C49A7
:102630000020984700252C4B4FF480529A6208F0F6
:10264000A5FE284603B0F0BD86680322002700924D
:1026500040F249130021304606F08AFC012540F281
:102660004913042202213046009706F081FC40F213
:102670004913102204213046009506F079FC40F2FF
:102680004913202205213046009506F071FCFF23F6
:1026900000934FF47F5240F249130621304606F072
:1026A00067FC40F24B13009530462A46394606F047
:1026B0005FFC2773BFE7084E084AD6F88030084908
:1026C000984708480EF0B8FFAEE7A06808F008FF8A
:1026D000B0E700BF0EB03713780000204861010852
:1026E0006061010888610108000400481C4B4FF438
:1026F000805270B504469A6108F048FE0CB3194D3B
:102700002368AB4214D0184E184AD6F880301849C6
:102710000020984717480EF08FFF2368AB421BD06C
:10272000D6F88030114A124900209847002070BD29
:10273000A06806F04DFCA068012107F0AFFD012064
:1027400070BD094E094AD6F880300949204698479D
:1027500008480EF071FFE3E7A06808F0C1FEE5E766
:10276000000400480EB037137800002048610108CB
:1027700060610108A8610108F0B5046805462005FC
:1027800083B000F1F3800026A1034ED5A34B9A6DD0
:10279000D20040F1F5800027A149A24A0B6843F41A
:1027A00080730B60D06E04E0D36E1B1A022B00F214
:1027B00000810B68DB05F7D5A6BB9849A86DD1F859
:1027C000903013F4407325D0834223D0D1F890C0C9
:1027D000D1F8903043F48033C1F89030D1F8903084
:1027E00023F48033C1F890301CF0010F2CF44073B7
:1027F000C1F890300ED0D2F86CE041F2883C05E090
:10280000D36EA3EB0E03634500F2D380D1F8903072
:102810009B07F5D5814AD2F8903023F440730343E7
:10282000C2F89030002F40F0C880E10708D57B4AFD
:10283000296AD2F8883023F003030B43C2F88830AA
:10284000A20708D5754A696AD2F8883023F00C03CC
:102850000B43C2F88830630708D5704AA96AD2F8DA
:10286000883023F030030B43C2F88830A70608D520
:102870006A4AE96AD2F8883023F440630B43C2F80D
:102880008830A00508D5654AE96BD2F8883023F472
:1028900040230B43C2F88830610508D55F4A296C94
:1028A000D2F8883023F440130B43C2F88830620614
:1028B00008D55A4A296BD2F8883023F440530B4389
:1028C000C2F88830230608D5544A696BD2F888309C
:1028D00023F440430B43C2F88830E70508D54F4A3C
:1028E000A96BD2F8883023F440330B43C2F8883008
:1028F00020030ED5494AA96CD2F8883023F04063F2
:102900000B43B1F1006FC2F888305CD0B1F1806F39
:1029100074D061030ED5414AE96CD2F8883023F0B7
:1029200040630B43B1F1006FC2F8883050D0B1F171
:10293000806F6BD062040BD538492A6DD1F888308E
:1029400023F040531343B2F1805FC1F888304DD07B
:10295000230408D5314A696DD2F8883023F08043CA
:102960000B43C2F88830304603B0F0BD6F6CB7F54A
:10297000000F10D0B7F5400F12D077B3012603E750
:102980009A6D42F080529A659B6D03F080530193DB
:10299000019B012700E7214AD36843F48033D360C9
:1029A0001E4AD2F8883023F440033B43C2F88830F3
:1029B000E9E60326002F3FF438AF184A936D23F061
:1029C0008053936531E7D36843F48013D360A0E765
:1029D000D36843F48013D360ACE73946281DFEF773
:1029E000C7FB064600287FF4CFAED9E70221281D99
:1029F000FEF7BEFB002818BF0646A9E70121281DE7
:102A0000FEF7B6FB002818BF064682E70121281D05
:102A1000FEF7AEFB002818BF06468BE70010024009
:102A200000700040780000202DE9F041C16F05687A
:102A30009EB00446002947D02423E3672A68636ACE
:102A400022F001022A60002B40F0AD80D4E904128C
:102A5000A36828680B431343E169A74A0B4302406C
:102A600013432B606B68E26823F440531343A34A7B
:102A70006B609542A369AA6800F0DB80206A22F4AB
:102A80003062034313439E4AAB60954200F0488195
:102A90009C4B9D4240F00C8103F5E633D3F888301F
:102AA00003F00C030C2B00F26181DFE813F0D2017C
:102AB0005F015F015F0110015F015F015F016F0155
:102AC0005F015F015F01680180F878105C2207A850
:102AD0000EF038FC8A4B9D4200F0EE81894B9D42FE
:102AE000AAD1022707A80797FFF746FE0646002847
:102AF00040F01882844B854D9A6D42F400329A65FD
:102B00009A6D02F400320492049ADA6C42F00102E7
:102B1000DA64DB6C03F00103039307220323CDE99E
:102B20000032039903463A464FF090400F214FF090
:102B300080080AF093FCC5E95176C5E95368C5E9F8
:102B40005566C5E9576605F5A076714BC5F8403165
:102B5000304608F02BFB002840F0E4816667102324
:102B600005F5C476C5E96508C5E96700C5E96900EA
:102B7000C5F890313046674BC5F88C71C5F868418F
:102B8000C5F8883108F012FB0146002840F0CA81E0
:102B900026672620C5F8B04108F0AAFB5E4B40220C
:102BA0005A60256848E71E0705D56A68616B22F4FC
:102BB00000420A436A60D80705D56A68A16A22F410
:102BC00000320A436A60990705D56A68E16A22F40F
:102BD00080320A436A605A0705D56A68216B22F47D
:102BE00080220A436A60DF0605D5AA68A16B22F439
:102BF00080520A43AA609E0605D5AA68E16B22F4BA
:102C000000520A43AA60580609D56A68216C22F46A
:102C100080120A43B1F5801F6A6000F00281190634
:102C20007FF514AF6B68A26C23F4002313436B6031
:102C30000CE722F4306213433349AB60D1F888309B
:102C400003F44063B3F5006F00F0878000F2E38087
:102C5000002B00F05781FEF7EBF90646002E7DD1E0
:102C60006A682A49002322F49042C4E91A336A6050
:102C7000AA6822F02A02AA602A6842F001022A60A9
:102C8000C4F88430CE6E2B681A0700F185802B685B
:102C90005B0700F19C80002320221846E26784F83D
:102CA0007830C4F88020236663661EB0BDE8F081EA
:102CB0001A4B9D425AD103F5E433D3F8883003F020
:102CC0003003202B62D058D8002B00F0C280B1F521
:102CD000004F00F02E81FEF7ABF90028C0D06368EA
:102CE00000EB5300B0FBF3F04FF6EF73A0F11002CE
:102CF0009A423BD8E860B3E7F369FFEF00800040F9
:102D000000380140004400400010024078000020DC
:102D10006C0002408000024000E100E000480040FA
:102D200002F55842D2F8883003F00303022B2DD06D
:102D3000032B24D0012BCAD0864BB1F5004F186865
:102D400000F098809268844BC2F3C222134493F837
:102D5000403003F01F03D840BFE7804E626802EBAB
:102D60004203B34202D8B6EB023F61D90023C4E963
:102D70001A3301201EB0BDE8F081302BF6D1B1F539
:102D8000004F00F0D3804FF40040A8E7B1F5004FAA
:102D900000F0CA807148A2E76FF07E4332464FF4DC
:102DA0000011204608F066FA00283FF470AF23684F
:102DB00053E8002F22F0800243E800210029F7D1D8
:102DC0002023E367002384F878300320D2E76FF0F4
:102DD0007E4332464FF48001204608F04BFA00282B
:102DE0003FF459AF236853E8002F22F4907243E870
:102DF00000210029F7D103F1080252E8002F22F048
:102E0000010203F1080040E800210029F3D120234A
:102E1000C4F88030D6E7B3F5406FA7D14FF4004631
:102E20009CE76A68616C22F4C0020A436A60F6E6B5
:102E30000023500819464FF48077E6FB07010BF09A
:102E4000E1F9474BA0F540729A428FD8454BD860C4
:102E500006E7B1F5004F6FD0434A3F4B92683D49BA
:102E6000C2F302221344086893F8403003F01F03B2
:102E7000D84032E79268384BC2F3C222134493F829
:102E8000403003F01F03D84000283FF4E9AE430070
:102E9000626803EB5203B3FBF2F34FF6EF72A3F158
:102EA000100191423FF662AF23F00F0292B2C3F3DA
:102EB00042031343EB60D3E6012307A80793FFF710
:102EC0005BFC034670BB284A116E41F480411166D9
:102ED000116E01F4804106910699D16C41F0010117
:102EE000D164D26C02F00102059207210322CDE9E0
:102EF0000021059802224FF4C0614FF090400AF083
:102F0000ADFA99E58A68144BC2F302221344114AC0
:102F100093F84030166803F01F03DE40002E3FF4A4
:102F20009FAE1BE7FFF722F9104BB1E74FF4803358
:102F3000AEE7FEF77DF8A7E70B4A074B9268054915
:102F4000C2F302221344086893F8403003F01F03D1
:102F5000D84099E700000020902101080024F400E7
:102F6000FFFC0F0000800040001002400048E80114
:102F7000F0B5CA4CD4F824328BB0002B00F0D981C4
:102F8000C74B1A683F21C4F83C13520358BF1A6854
:102F9000C34B54BF02F480324FF4A022C4F8402344
:102FA00019685A68186801F00101C2F30722C4E9E0
:102FB000D51219685A6800F0F00001F48071C4F865
:102FC0005C03C4F84813D3F89010B648C2F3046207
:102FD000C4F84C234F0758BFD3F89020B04B54BFD0
:102FE00002F001020522D3F89410C4F84423D3F868
:102FF000982001F0010102F00102C4F85013C4F856
:1030000060231968DA6811F0807F0CBF012102216A
:1030100002F00302C4E9D912DA68D968C2F30212D5
:103020000132C1F30621C4E9DB21D968DA68C1F3B2
:103030004151C2F341620131013249005200C4E9F9
:10304000DE12D9689A68C90E02F003020F25C4F88F
:103050008053C4F87413C4F8842399689A6801F003
:10306000F00102F4E062C4E9E2129A68016894F89F
:10307000110284F89803D20802F4E06201F007011B
:10308000C4E9E421242284F81122D4F8D02186480E
:103090001168824221F00101116000F0ED810023EE
:1030A000A268C4F81432022184F8113284F8103274
:1030B000C4F8003284F8123284F8651013687B4932
:1030C00023F040038A42136000F0EC810022A266E4
:1030D000D4F82C3284F865202421D4F8AC0284F88A
:1030E0006420C4F8A8121968C4F89C0321F00101F7
:1030F00019606F491A608B425A609A6000F0AD8186
:103100006C4A934200F08C820023D4F8B422C4F8B5
:10311000B0322421C4F8A83284F8A432C4F8AC3206
:10312000C4F88C32C4F89032C4F830131168604887
:1031300021F001018242116013605360936000F03E
:1031400045825C4B9A4200F08782554A0023C4F8BE
:103150003833C4F83033C4F83433C4F81433C4F803
:103160001833D06CD16C84F82C3300F00100C1F31B
:103170004001C4F8BC03C4F8DC13D06CD16C41F03E
:103180000101D164D16CC0F3C01001F001010491C0
:10319000C4F8FC030499D16C41F00201D164D16CF4
:1031A00001F0020103910399D16C41F08001D164D7
:1031B000D26C4FF0904C02F0800202920299DCF83F
:1031C0000010C4F8A013DCF80410C4F8A413DCF851
:1031D0000810C4F8A813DCF80C10C4F8AC13DCF821
:1031E0002010C4F8B013DCF82410334AC4F8B41328
:1031F0001168C4F8C0135168C4F8C4139168C4F8C6
:10320000C813D168C4F8CC13106A516AC4F8D41337
:1032100002F5C052C4F8D0031168C4F8E013516835
:10322000C4F8E4139168C4F8E813D168C4F8EC1347
:10323000116A089D526A099EC4F8F013C4F8F42379
:1032400001204FF60F714FF0030E00FA03F20A420D
:103250004FEA430203F1010306D0DCF800700EFAD6
:1032600002F23A43CCF80020102BEED1CDE9005603
:103270001148002303224EF6F5710AF0EFF8CDE96C
:1032800000560E48002303224FF6F6710AF0E6F8C6
:10329000034BDA6C22F0010212E000BF780000203C
:1032A0000010024000200240005800400030014061
:1032B000003801400044004000040048001C004861
:1032C000DA64DA6C22F00202DA64DA6C4FF0E021A0
:1032D00022F08002DA640B6923F002030B61FEF72F
:1032E00057FF94F8283205464BBBBE49BE4A07E05B
:1032F00062B6BFF34F8FBFF36F8F94F82832F3B9E4
:1033000072B6BFF34F8FBFF36F8F94F82832002B44
:10331000EED10B6823F0070343F001030B60136940
:1033200043F00403136130BF136923F004031361F6
:10333000DEE7AE480BB0BDE8F0400EF07DB90023EB
:1033400084F82832FEF724FF401B05D500F1A46065
:1033500000F5CB2000F58060E36E4FF0E0220344DF
:10336000E3661369A24843F002031361FEF700F914
:10337000D4F894139F48FEF7D5FB4FF090400121FD
:10338000FCF706FFD4F8A023D4F8BC130260D4F8ED
:10339000A4234260D4F8A8238260D4F8AC23C2608E
:1033A000D4F8B0230262D4F8B4234262003918BFC3
:1033B0000121FCF7EDFE00F580600121FCF7E8FE3D
:1033C000D4F8C033D4F8DC130360D4F8C4334360BA
:1033D000D4F8C8338360D4F8CC33C360D4F8D03386
:1033E00003620039D4F8D433436218BF0121FCF7DB
:1033F000CFFE00F5C0500121FCF7CAFED4F8E0333F
:10340000D4F8FC130360D4F8E4334360D4F8E83311
:103410008360D4F8EC33C360D4F8F0330362D4F89B
:10342000F4334362003918BF0121FCF7B1FE0AF002
:1034300011F994F89833282B00F0B7800AF09EF920
:103440006D48FFF7F1FAD4F89C33222B3BD06B4840
:103450000BB0BDE8F040FFF7E7BA02F1804202F599
:1034600004324FF4C061136E23F480434FF0904058
:103470001366FDF7A5F847E69A6D614822F48002CD
:103480009A654FF48061FDF79BF84FF40061FDF7FA
:1034900097F85C4B0222C3F88420BFF34F8FBFF331
:1034A0006F8FFCE5584A136E23F48053E0211366B6
:1034B0004FF09040FDF784F8206E0AF029FAE06D95
:1034C0000AF026FA02E6D4F8A002D4F88022B4F872
:1034D0008432D4F8AC12002800F0D9802029B6D16B
:1034E000002AB4D0002BB2D00021D4F82C52C4F85A
:1034F0008C1246498D4203D069680E0200F1478163
:103500000021C4F8B0122221C4F88022A4F8843229
:10351000C4F8AC123E49C1623E4901633E49416371
:103520000021816305F12401FCF798FE002840F09A
:103530005181D4F83C3293B155E8003F43F4807395
:1035400045E800324AB1D4F82C2252E8003F43F457
:10355000807342E800310029F5D1D4F82C5205F1EE
:10356000080353E8003F43F0010305F1080141E877
:10357000003262B1D4F82C2202F1080353E8003F74
:1035800043F00103083242E800310029F2D1D4F8B7
:103590002C2202F1080353E8003F43F040030832B5
:1035A00042E800310029F2D151E794F81122202A93
:1035B0007FF444AFD4F8D02184F81132136817494E
:1035C000C4F8041243F0B803136037E70E4A136ED1
:1035D00023F480434FF4C0614FF090401366FCF732
:1035E000EFFFB2E50070004000ED00E0C8610108A7
:1035F000B4030020F8030020A40200202C030020C4
:103600000004004800E100E000100240008000409B
:10361000A9120008311300080D3D00082D1D0008F7
:1036200002F5E6320F21936D23F4003393654FF0DA
:103630009040FCF7C5FFD4F8A0020AF069F9D4F86D
:103640009C020AF065F9734B4022C3F88420BFF353
:103650004F8FBFF36F8F57E56F4A936D23F400339D
:1036600093650F214FF09040FCF7AAFFD4F8280390
:103670000AF04EF9D4F824030AF04AF9654B4022C7
:10368000C3F88420BFF34F8FBFF36F8F5DE5202910
:103690007FF4DDAE002A3FF4DAAE002B3FF4D7AE64
:1036A000D4F82C12C4F88C025C48814215D04868CA
:1036B000000212D551E8000F40F0806041E800059B
:1036C0004DB1D4F82C0250E8001F41F0806140E871
:1036D0000015002DF5D1D4F82C12D4F83452C4F8CA
:1036E00080220020B5F5805FA4F88432A4F88632E9
:1036F000C4F8940200F08580002D78D1D4F83C32D3
:10370000002B0CBFFF207F2000222223C4F8B02210
:10371000A4F88802C4F8AC3201F1080353E8003F72
:1037200043F00103083141E8003262B1D4F82C22A1
:1037300002F1080353E8003F43F00103083242E876
:1037400000310029F2D1D4F83422D4F83C32B2F559
:10375000805F46D0324AC4F894226BB1D4F82C2250
:1037600052E8003F43F4907342E800310029F5D15C
:103770006DE62C4BC4F89432D4F82C2252E8003F6A
:1037800043F0200342E800310029F5D15FE655E817
:10379000001F41F0806145E8001048B1D4F82C02C8
:1037A00050E8001F41F0806140E80015002DF5D180
:1037B0000021D4F8A002C4F8B0122221D4F82C526F
:1037C000C4F88022A4F88432C4F8AC1200283FF474
:1037D000B0AE9FE610222023C4F8B022C4F8AC3269
:1037E00035E6002BC5D00E4BC4F89432B6E7B5F1E0
:1037F000805F89D1D4F83C32002B0CBF7F203F2062
:1038000082E7D4F83C32002B40F2FF1018BFFF20B3
:103810007AE700BF00E100E00010024000800040B5
:103820004D1300081D140008F0B4C56F202D4AD1B7
:103830000C4601B112B90120F0BC704719460025B1
:103840002123C0F88450C3678368294FA0F8502013
:10385000B3F5805FFE6EA0F8522037D0B0F852204A
:10386000036892B2B2B1DA69120604D44A1C1DD1BF
:10387000DA691206FCD504B314F8012B1A85B0F8E6
:103880005220013A92B2A0F85220B0F8522092B2DF
:10389000002AE8D1DA69520604D44C1C1CD1DA693A
:1038A0005106FCD52023C3670020C5E7FA6E921BA2
:1038B000914218D3B9B11A68D5E735F8022BC2F393
:1038C00008021A85DBE70220F0BC70470369002B71
:1038D000C4D125461C46C1E7FA6E921B914202D321
:1038E00009B11A68D6E72023C367F0BC03207047EC
:1038F00078000020026852E8003F23F4907342E809
:1039000000310029F7D102F1080353E8003F23F00A
:10391000010302F1080C4CE800310029F3D1036ED9
:10392000012B06D000232022C0F880208366036686
:10393000704752E8003F23F0100342E800310029AD
:10394000F0D052E8003F23F0100342E80031002994
:10395000EFD1E7E770B5AE4CD4F82C52EB692A688A
:10396000A96840F60F00034240F08780980602D510
:10397000960600F1F380D4F88C02012816D0D80204
:1039800002D5490200F1F4801E0605D4590602D57D
:10399000530600F1258170BD1006F7D5D4F8983292
:1039A000002BF8D0BDE870409A481847DE06E6D5EF
:1039B000D006E4D510232B62AB68B4F884225B06F2
:1039C00040F14281D4F8A03219684B689BB2002BB9
:1039D00000F07C81934280F07981A4F886320B68F4
:1039E0009E0644D455E8003F23F4807345E8003236
:1039F0004AB1D4F82C2252E8003F23F4807342E805
:103A000000310029F5D1D4F82C2202F1080353E843
:103A1000003F23F00103083242E800310029F2D1CF
:103A2000D4F82C2202F1080353E8003F23F04003AE
:103A3000083242E800310029F2D12023C4F8AC3228
:103A4000C4F88C12D4F82C2252E8003F23F0100363
:103A500042E800310029F5D1D4F8A03293F82520AE
:103A6000022A00F03A810422DA6383F82410022348
:103A7000C4F89032B4F8863270BD11F0010640F0FF
:103A80009E80654802423FF476AFD8070FD5D10536
:103A900040F1D68001212962D4F8B01241F0010131
:103AA000C4F8B01299076BD5002E40F08C805807EF
:103AB0007DD51E0700F1C1801E050AD5500108D52D
:103AC0004FF400612962D4F8B01241F02001C4F82B
:103AD000B012D4F8B01200293FF45DAF990602D5B8
:103AE000920600F1A080D4F8B022AB6802F0280260
:103AF00003F04003134300F0E6804648FFF7FAFE68
:103B0000AB685B067FF547AF05F1080353E8003F5C
:103B100023F0400305F1080141E8003262B1D4F816
:103B20002C2202F1080353E8003F23F0400308323F
:103B300042E800310029F2D1D4F8A00200283FF475
:103B40002AAF364B8363FCF7C9FC00283FF423AF50
:103B5000D4F8A002BDE87040836B1847D4F89432C3
:103B6000002B3FF418AF04F50B70BDE87040184708
:103B70004FF480132B6270BDD1058BD4980722D4EB
:103B8000590714D5002E94D004212962D4F8B0121C
:103B9000180741F00201C4F8B0128DD5082129623E
:103BA000D4F8B01241F00801C4F8B01284E7190744
:103BB00082D502F0200131433FF47EAFEEE7D80713
:103BC000DAD499072CD502212962D4F8B0125E0705
:103BD00041F00401C4F8B012D6D41907DED46BE763
:103BE00055E8003F23F0400345E800324AB1D4F8DD
:103BF0002C2252E8003F23F0400342E80031002924
:103C0000F5D120220023C4F8A822C4F8983270BD50
:103C100078000020A4020020200100043D130008C9
:103C20005E07B1D4D9E7D4F89432002B3FF45BAFF0
:103C300035489847D4F82C5255E79006AED43BE768
:103C400098073FF534AF9BE7B4F88612B4F8863294
:103C50009BB289B2002B3FF49EAE91423FF49BAEE3
:103C600055E8003F23F4907345E800324AB1D4F898
:103C70002C2252E8003F23F4907342E800310029DF
:103C8000F5D1D4F82C2202F1080353E8003F23F0C9
:103C90000103083242E800310029F2D12023C4F8A0
:103CA000AC32C4F89412C4F88C12D4F82C2252E826
:103CB000003F23F0100342E800310029F5D1022330
:103CC000C4F8903270BDC4F8B03270BD93427FF436
:103CD00062AE0B689D06F2D470BD1A681D6C106848
:103CE00020F00E001060106820F0010010605A6C87
:103CF000012002F01C0200FA02F26A6083F825003B
:103D000083F82410B3E600BFA4020020806A036891
:103D1000C16F10B5D0F880409A68120601D52129EC
:103D20000BD09B685B0601D5222C1DD0D0F88430C7
:103D300043F01003C0F8843010BD0022A0F85220D8
:103D400053E8002F22F0C00243E80021026839B195
:103D500052E8003F23F0C00342E800310029F7D1C8
:103D60002023C3671346DCE70023A0F85A30FFF78F
:103D7000C1FDD0F8843043F01003C0F8843010BD8A
:103D800010B590B018B10C4B02689A4209D00B4B99
:103D90000B4AD3F880300B4900209847002010B020
:103DA00010BD0C46043001A905F094F80028F6D0A7
:103DB000BDF804302360F2E70FB03713780000201D
:103DC000E4600108FC60010810B418B10C4B0468F1
:103DD0009C4208D00B4B0C4AD3F880300B495DF85D
:103DE000044B00201847032A02D9064B084AF3E780
:103DF00002EB820200EB82005DF8044B0181704708
:103E00000FB0371378000020E4600108FC6001085F
:103E10003061010810B520B10D4B02689A4204468A
:103E200008D00C4B0C4AD3F880300C49BDE8104048
:103E300000201847406818B1C368984700236360A2
:103E4000002323602046BDE8104004F04BBF00BFB4
:103E50000DB03713780000201C6201083862010899
:103E60002DE9F04F2DED108BC468BBB08146204684
:103E700006F050FAB0B9AD480DF0DEFBB9F80220FB
:103E8000B9F804309A4280F04081B9F80630002B2E
:103E900000F043814FF0000B58463BB0BDEC108B57
:103EA000BDE8F08FD4ED167AF5EE407AF1EE10FA17
:103EB000E1D0B9F80220B9F804309A4280F02581A7
:103EC000B9F80630002B00F02881E02101200DF028
:103ED00083FB83460028DDD0D9F80C40204606F04D
:103EE00019FA002840F01D810023D9F80C40CBF8C6
:103EF0001830204606F00EFA08B1B4F85000D9F890
:103F00000C40ABF83200204606F004FA002800F01E
:103F10000A816369D9F80CA0CBF83430504606F01A
:103F2000F9F9002800F0A18181494FF494723820FA
:103F300007F008F80746002800F09181DAED128AB0
:103F40009AF85E309FED848A7A4A9AED139A02605D
:103F500088EE880AC0F820A0002B00F0FF8006F051
:103F600097FFF0EE408A89EE080A06F091FF68EEAE
:103F7000888A9FED719A20EE088AB4EEC98AF1EE24
:103F800010FA40F2C381F4EEC98AF1EE10FA00F3A0
:103F9000718188EE090A06F07BFF0AF02BFE0022F1
:103FA0005046FCEEC07AF0EE490A17EE905A013DF9
:103FB000EDB2032D28BF0325012D38BF0125C5F122
:103FC0000401B0EE680AC9B206F060FBF0EE480AE0
:103FD00004460146B0EE490A2A46504606F0C4FDA2
:103FE0000444E4B2DAF83C502846FEF731FA08B14E
:103FF00085F86240DAF83C409AF854502046FEF7C3
:1040000027FA08B184F86350DAF83C40BAF8505007
:104010002046FEF71DFA08B1A4F85C50DAF83C40DF
:104020009AF85C30DAF85850CAF80C502046002B49
:1040300000F00E81FEF70CFA002840F01881DAF843
:104040003C001BA9FFF79CFE002854D01B9B0333A8
:1040500023F003033B63DAF83C3000931846FEF785
:10406000F7F9002800F05D8134496722102006F03E
:1040700069FF8046002800F05681314B0360009BA9
:10408000304993F8624038221020002C40F0FD8027
:1040900006F058FF2B4904903922FC2006F052FF0D
:1040A00025460290049B002B00F04281029B002BCE
:1040B00000F03E8114B1002D00F03A81029B049A79
:1040C000C3F898501360009B2BA9181D04F002FF41
:1040D000002840F037811C4B1C4AD3F88030194926
:1040E0009847049801F09CFD0024C8F8044040461D
:1040F000FFF790FEBC62384606F040F90023CBF88B
:1041000000305846FDF74AFFC4E611480DF094FA16
:10411000B9F80630002B7FF4BDAE0E480DF09EFAC4
:10412000B8E6A36DE1E60023F4E600BF44620108AF
:10413000E062010801B137130AD7233F3862010852
:104140000DB03713146301087800002024630108C0
:10415000A0620108686201080AD7233B9AF8403040
:10416000002B40F0B2809AF842509AF84130002B70
:1041700040F0A180BAF844800AF0F2FC07EE908A81
:104180001FED0B7AB0EE408AB8EE670A39EE689AF6
:1041900020EE070ABDEEC88A89EE000A06F078FE16
:1041A000F7EE007A30EE270A0AF024FDBCEEC00AD2
:1041B000DAF83C6010EE103A30469CB2FEF748F94F
:1041C00010B1012386F86230DAF83C603046FEF721
:1041D0003FF900B13575DAF83C603046FEF738F942
:1041E00008B186ED018ADAF83C0000222146FFF78B
:1041F000EBFDDAF83C603046FEF72AF908B1A6F884
:104200000A80DAF83C603046FEF722F950B118EE29
:10421000103A20B2013810FB0830294600B206F0EF
:104220003BF9F074DAF83C40BAF852502046FEF7F9
:104230000FF900B1A581DAF83C409AF864502046A5
:10424000FEF706F900283FF4D5AE84F86A50D1E6AF
:10425000FEF7FEF800283FF4F2AEA565EFE6B64B98
:10426000B64AD3F88030B6499847002743E7002381
:10427000A365E4E6F0EE480AB0EE680A04220021E5
:10428000504606F071FC0446ACE6B3F85C4006F01C
:1042900059FEAC4904903922FC2006F053FE0290EE
:1042A000002C00F0F580A7493E22602006F04AFE6F
:1042B00001240546F6E66B1EDBB2042B35D8A24A74
:1042C00002EB4303B3F8488056E7A04B9FEDA07A7A
:1042D000A0482B932BA9012211F8015B6B1EDBB2C6
:1042E000042B00EB8303F0EE477A98BFD3ED007AFE
:1042F00077EEA77A0132F4EEE87AF1EE10FA92B294
:104300007FF633AF052AE7D101252EE7F0EE480A04
:10431000B0EE680A01220421504606F0B7F90446BF
:1043200060E6B862E7E6B862E5E64FF0010823E729
:10433000049804F0D7FC029804F0D4FC284604F05A
:10434000D1FCD1E6BDF8C040BDF8CC30029A234480
:1043500099B2BDF8C23009915B00C2F8E830002381
:10436000A2F89E10C2F894301146A2F89C3002F1D7
:10437000F003D2F8980014875362F832C1F8842011
:1043800001F1F402C1F8882001F1F602C1F88C2095
:1043900001F1F7020690C1F8902030B101F1EC0272
:1043A000826101F1F5024362C265029AC2F8D83017
:1043B000099BA2F8E430009BC2F8DC8093F862E02D
:1043C0000DF1D6001CA9002205E030F8023F5B0881
:1043D00021F8023B0132D3B29E45F6D8BDF8C83071
:1043E0009DF8E4200F9223449BB21093009BBDF8EC
:1043F000CA20B3F85C3011929DED388A0A931A46B0
:10440000002B01F0C982BDF8CE30B3FBF2F30E935E
:10441000BDF8C420BDF8C630DDF8AE10BDF8B2005E
:1044200023442244029CA4F87E304B4B23644B4B24
:1044300063644B4BA364032384F874300F23A4F804
:104440008030069BA4F87A00C4F87610A4F87C208B
:10445000002B01F0B18200232D991391CDE9243373
:104460002E991491CDE92633CDE92833BDF8BC103F
:10447000129125AA14460DF1CE01D8B2864509D96C
:1044800031F8020F22F8020F088910810133F4E796
:10449000254607E6069A0A9B13870E9B538700233F
:1044A000C2E91333C2E915332E490C9118462E4B3D
:1044B00053602E492E4B93600B912E4B2E49D360A7
:1044C0000D91009DCDF85C8002F148013A32CDE9B2
:1044D00015A7CDF860B0CDF81CE01746A04682467F
:1044E0008B46CDF86490079A5FFA8AF39A42089354
:1044F00041F2568238F8026F27F8026FB8F8089038
:104500001E49A7F808902F22EC2006F01BFD1C493D
:104510000446002800F0A2801A4B03641A4B816401
:104520004364297D0139042901F26482DFE801F046
:104530008D932E902E0000BF78000020F4620108B9
:10454000E0620108146301089021010805040302D8
:1045500000000000E4210108BD6400086565000852
:104560005D6500086D650008E16300087965000875
:104570005D64000855640008F58C00084863010874
:104580004D660008E5840008556600086FF00C00D1
:10459000129A95F811C0A4F87A200A9AA4F87E20FD
:1045A0000E9A099BA4F88020DDE913121E44B6B2CE
:1045B000BCF1000F18BF11466A68A4F87C60C4F80B
:1045C00076104FEA490395F810E084F874E0C4E9E6
:1045D0002120A868C4F8E0300C9BC4F89C300B9BE9
:1045E000C4F8A0300D9BC4F8A430069BC4F8D430A6
:1045F00004F1E40384F875C0C4F88C00A4F8966054
:10460000A4F8DC606362C4F8D0300023214623871D
:10461000A4F89430614BC4F8D83004F13C0004F1A4
:10462000E803C4F8903041F8980BE16302F012F807
:1046300014350AF10106002801F055812068C3688D
:104640009847B2464BF8044F4DE76FF00B009FE7D9
:104650006FF00F009CE76FF0060099E7DDE9167830
:10466000DDE918B955464E4EDDF854A04D4A4E4985
:104670002B46069D123305EB830300245C60204625
:10468000D6F880309847CDE90678B046089F2E4688
:1046900009E0D5B206EB8505D7B2E86C10B1D8F8C1
:1046A00078209047EC647A1E002FF2D1029BD3F859
:1046B0009830DDE906780693029A0C9BC2F8A43084
:1046C0000B9BC2F8A8300D9BC2F8AC300699374B53
:1046D000C2F8E03002F13C031360002901F074815C
:1046E00002F1A003D1630B60029B186883689847AE
:1046F00030B92B4B2E4AD3F880302E499847F0E43E
:10470000029B1868C368984704992B4A4A602B4A51
:10471000CA600023009A8B60C8F80410FB8092F8EE
:10472000624007F10E001D46DAB29442F98841F268
:10473000BA801CAA20F8061C32F813201144F98014
:104740000133042B20F8022FEED1009B0F9AB3F80F
:104750005C303A77FA8887ED068A13FB02F3BB8058
:10476000109BA8F80C30119BA8F80E301449C7F81C
:10477000288040F219126020DAF83C5006F0E2FB83
:104780000446002801F0F4800026CDF800A0DFF8F0
:10479000108045603346BA4630E000BFB18400085F
:1047A000780000207C630108A0630108350200083E
:1047B0005C63010814630108115C0008215C0008B7
:1047C000B06301082B68A54A934201F04180D8F8F4
:1047D0008030A349A34A00209847DFB92B689F4A3D
:1047E000934201F05380D8F880309D499D4A0020C3
:1047F000984700232289134401369BB22381F7B2E4
:10480000002DDFD1D8F880309549964A2846984740
:10481000002FE8D05746DDF800A0DAED0C7A9AEDCB
:10482000038ADAED0E8ADAF81830BAF81010DAF8DE
:1048300014206181F5EEC07ABAF81210A361F1EE8E
:1048400010FA894B84ED048AA1816261C4ED098A62
:10485000236041F3308068EE277ABFEE000A80EED5
:10486000270A0AF0CDFCDAED0D7A84ED070AF5EEA1
:10487000C07AF1EE10FA41F3778068EE277ABFEE46
:10488000000A80EE270A0AF0BBFCB5EEC08AF1EE02
:1048900010FA84ED080A41F212809AED080AB5EE8A
:1048A000C00AF1EE10FA01F10A80DAED09AAF5EE7C
:1048B000C0AAF1EE10FA01F102809AED07AAB5EE56
:1048C000C0AAF1EE10FA00F1FA87DAED0A9AF5EED5
:1048D000C09AF1EE10FA00F1F2879AED0B9AB5EE5C
:1048E000C09AF1EE10FA00F1EA87F0EE480A05F0FE
:1048F000A9FDF0EE407AF0EE480AB0EE6A0AC4ED87
:104900000A7A05F09FFDB5EEC0AAF1EE10FA84ED2B
:104910000B0A41F36B8028EE0AAABFEE000A80EE74
:104920000A0A0AF06DFCF0EE407AF5EEC09AF1EE5C
:1049300010FAC4ED0C7A41F3558068EE299ABFEE67
:10494000000A80EE290A0AF05BFCF0EE407AB5EE30
:10495000C09AF1EE10FAC4ED0D7A41F33F8028EED3
:10496000099ABFEE000A80EE090A0AF049FCF0EE4F
:10497000407AF5EEC08AF1EE10FAC4ED0E7A41F3FA
:10498000298028EE288ABFEE000A80EE080A0AF085
:1049900037FCF0EE407A2389C4ED0F7A142003FB34
:1049A00000F032496B2206F0CDFA606520892F496C
:1049B0006C22800006F0C6FAA06520892B49800091
:1049C0006D2206F0BFFA636DE065002B00F0AF8743
:1049D000A36D002B00F0AB87002800F0A887DAF861
:1049E0003C50002323646364A36400232365A4F87C
:1049F0004C302846FC62FDF72BFD00B1686804F0DE
:104A000087FADAF83C00B0EE408AFCF76DFD441EF0
:104A1000DAF83C00E4B2FDF71BFD002800F07587D2
:104A2000032C40F2AE87124E124AD6F880300C4961
:104A300000209847DAF83C002146FDF743FDDAF8FC
:104A40003C00FDF705FD28B1D6F88030094A04493D
:104A500000209847002634461FE000BF0FB03713F0
:104A6000FC600108E460010803B13713B06301087A
:104A7000780000203061010800007042DB0F4940DF
:104A800000000000F304353FF30435BFDAF83C00C2
:104A9000FDF718FD204484B20136DAF83C00FCF73B
:104AA00023FDF5B2A8422946F0D89AF85E30002BD3
:104AB00000F049875FED0E8AB9F802305FED126AA7
:104AC000B9F8062099F80810CBF8007007EE103AF4
:104AD000B9F804308BED018A07EE903AB8EE477AC8
:104AE000F8EE677AC7EE265AB9F80A30ABF83040CC
:104AF000ABF8241087EEA66A07EE903A9BED067A93
:104B0000B9F80030CBED028AF8EEE77ACBED075A20
:104B100067EE877A8BED086AFCEEE77AABF828300F
:104B200017EE900AABF826005008ABF8100019B148
:104B300022F00102013294B207EE903AF8EEE77AE1
:104B40004FF4803367EE877ACBF82C30FCEEE77AAF
:104B5000ABF8124017EE903A99B20129ABF82A103F
:104B600040F2A6860122154605FA02F39BB2501CBC
:104B70009942144682B2F7D8ABF82C40ABF82E30ED
:104B80001FED418AD9F80C408BED318A5B08002279
:104B90000133ABF8B430ABF8C0208BF8C2208BF8EF
:104BA000C8208BED338A204605F0B4FB002800F0C6
:104BB000658694F84230013BDBB2042B40F25F86FD
:104BC0009BED06DA38EE088AB5EE40DA00230122C2
:104BD000F1EE10FACBF8D6308BF8DA308BED348A60
:104BE000B9F80A308BF8D42000F0418600EE103A74
:104BF000BBEECF0AB5EE400AF1EE10FA00F04C869B
:104C0000B7EE007AC7EE0D7AF1EE677A87EE800A8A
:104C10000AF0F6FABBF8283007EE903AFAEEEF7A8F
:104C20008BED0F0AF5EE407AF1EE10FA00F02286D5
:104C3000B7EE007A87EE0D0AB1EE400A80EE270A41
:104C40000AF0DEFAB0EE407ADBED077A5FED75DA56
:104C5000BBF82AA08BED107A77EEA77A4FEA5A03B9
:104C600087EE8D0A0022ABF8DC30ABF83820F6EE88
:104C700000AA20EE2D0AF1EE008A20EE2A0A09F0A1
:104C800045FF1FED818A5FED811A1FED811A60EEED
:104C9000289AF0EE480AB0EE690A0CF045F85FED8C
:104CA000861AB0EE40BAB0EE60AAB0EE611AB0EE6D
:104CB000690AF0EE480A0CF037F878EECBEA38EEE5
:104CC0004AEA78EEC0CA38EE60CAB0EE6C1AF0EE6E
:104CD0004C1AB0EE40FAF0EE60BAB0EE6E0AF0EEAA
:104CE0004E0A0CF021F810EE100A10EE905A08F05F
:104CF000CFFF0246284614460D4608F0C9FF22465B
:104D000006460F462B462046294609F019F832463A
:104D1000804689463B463046394609F011F802463E
:104D20000B464046494608F055FE0022804689461B
:104D300000232046294609F003F832463B4608F096
:104D400047FE42464B4609F025F909F00BFA394671
:104D500009EE100A00223046002308F0F1FF224637
:104D60002B4608F037FE42464B4609F013F909F08E
:104D7000F9F929EE089A07EE900A1EEE900A39EE2C
:104D8000279A08F085FF04461EEE100A0D4608F02B
:104D90007FFF7BEE287A804617EE900A894608F05E
:104DA00077FF7AEE087ACDE9000117EE900A08F055
:104DB0006FFF2246CDE902012B462046294608F026
:104DC000BFFF424606460F464B464046494608F05E
:104DD000B7FF02460B463046394608F0FBFDDDE9D9
:104DE000022306460F462046294608F0A9FFDDE9C2
:104DF0000023CDE904014046494608F0A1FF0246E0
:104E00000B46DDE9040108F0E3FD32463B4609F0BC
:104E1000C1F809F0A7F9DDE900230BEE100A2946D5
:104E2000204608F08DFFDDE9022304460D4640468A
:104E3000494608F085FF02460B462046294608F001
:104E4000C9FD32463B4609F0A5F809F08BF90AEE98
:104E5000100A1CEE900A08F01BFF04461CEE100A14
:104E60000D4608F015FF7FEE287A804617EE900A6F
:104E7000894608F00DFF7BEE887ACDE9000117EE38
:104E8000900A08F005FF2246CDE902012B46204694
:104E9000294608F055FF424606460F464B46404617
:104EA000494608F04DFF02460B463046394608F0A9
:104EB00091FDDDE9022306460F462046294608F00B
:104EC0003FFFDDE90023CDE904014046494608F0F3
:104ED00037FF02460B46DDE9040108F079FD324652
:104EE0003B4609F057F809F03DF9DDE900230BEEE8
:104EF000900A2946204608F023FFDDE902230446F4
:104F00000D464046494608F01BFF02460B46204628
:104F1000294608F05FFD32463B4609F03BF809F0B0
:104F200021F901EE100A0BEE08AA0BEE881AB0EE7A
:104F30004A0A3AEE01AAF0EE6B1AB1EE4AAAF0EE76
:104F40004B0A8BED14AA0BF0EFFEDBED087A8BED2C
:104F5000150A77EEA77A69EEA9FA87EE8D0A29EE8F
:104F60002F9A20EE2D0A39EE097A20EE2A0A8BEDCF
:104F7000127A8BED119A8BED139A09F0C7FD20EE92
:104F8000280ADFEDE51A9FEDE51A60EE297A70EE4A
:104F900069EAB1EEE7BA2EEEAA9AF0EE480AB0EE50
:104FA000490A0BF0C1FEDFEDDD1AF0EE40AAB0EECB
:104FB00060AAB0EE611AB0EE490AF0EE480A0BF0B2
:104FC000B3FEF0EE481AF0EE409AB0EE609AB0EE02
:104FD0004B1AF0EE480AB0EE4B0A0BF0A5FEF0EECD
:104FE0004A1AF0EE40BAB0EE60BAB0EE6A1AF0EECD
:104FF0004A0AB0EE6A0A0BF097FE30EE6B0A70EECA
:10500000CB0A0BF04BFBF0EE491AB0EE691AB0EE8A
:1050100040EAF0EE60DAB0EE690AF0EE490A0BF011
:1050200083FE7AEE8ECA30EE6B0A70EECB0A0BF07E
:1050300035FB3AEE2DCA78EEEC7A79EE80BA17EEAF
:10504000900ACDED077A78EE4C7A39EE20BA79EEF7
:10505000C09A39EE609A3AEE6DAAF0EE67DA08F07F
:1050600017FE04461DEE900A0D46CDED08DA08F055
:105070000FFE7CEEA87A804617EE900A894608F06B
:1050800007FE7CEE087ACDE9000117EE900A08F0E1
:10509000FFFD2246CDE902012B462046294608F0B5
:1050A0004FFE424606460F464B464046494608F0EC
:1050B00047FE02460B463046394608F08BFCDDE9D8
:1050C000022306460F462046294608F039FEDDE950
:1050D0000023CDE904014046494608F031FE02466E
:1050E0000B46DDE9040108F073FC32463B4608F04C
:1050F00051FF09F037F8DDE900230CEE900A29464C
:10510000204608F01DFEDDE9022304460D46404618
:10511000494608F015FE02460B462046294608F08F
:1051200059FC32463B4608F035FF09F01BF878EE93
:10513000EB7A0CEE100A17EE900ACDED067A08F025
:10514000A7FD78EE4BFA04461FEE900A0D4608F0D4
:105150009FFD7BEEA87A804617EE900A894608F0FC
:1051600097FD7BEE087ACDE9000117EE900A08F072
:105170008FFD2246CDE902012B462046294608F044
:10518000DFFD424606460F464B464046494608F07C
:10519000D7FD02460B463046394608F01BFCDDE9D8
:1051A000022306460F462046294608F0C9FDDDE9E0
:1051B0000023CDE904014046494608F0C1FD0246FE
:1051C0000B46DDE9040108F003FC32463B4608F0DB
:1051D000E1FE08F0C7FFDDE900230BEE100A2946C7
:1051E000204608F0ADFDDDE9022304460D464046A9
:1051F000494608F0A5FD02460B462046294608F020
:10520000E9FB32463B4608F0C5FE7AEECEAA08F02E
:10521000A9FF78EEEA7A0BEE900A17EE900ACDED30
:10522000097A08F035FD38EE4AFA04461FEE100AF6
:105230000D4608F02DFD7AEEA87A804617EE900A0A
:10524000894608F025FD7AEE087A02460B4617EEED
:10525000900ACDE9002308F01BFD2246CDE90201AA
:105260002B462046294608F06BFD424606460F466F
:105270004B464046494608F063FD02460B46304621
:10528000394608F0A7FBDDE90223CDE904012046F9
:10529000294608F055FDDDE9002306460F46404645
:1052A000494608F04DFD02460B463046394608F0A7
:1052B0008FFBDDE9042308F06DFE08F053FFDDE904
:1052C000002306462946204608F03AFDDDE9022380
:1052D00004460D464046494608F032FD02460B465C
:1052E0002046294608F076FBDDE9042308F052FE4B
:1052F00008F038FF78EEE9DA0AEE100A1DEE900A9F
:1053000008F0C6FC38EE49EA04461EEE100A0D46C7
:1053100008F0BEFC04E000BFF304353FF30435BFE2
:1053200079EEA87A804617EE900A894608F0B0FC1C
:1053300079EE087A02460B4617EE900ACDE9002373
:1053400008F0A6FC2246CDE902012B46204629465C
:1053500008F0F6FC0AEE906A0F46064642464B46B7
:105360004046494608F0ECFC02460B4630463946BA
:1053700008F030FBDDE90223CDE90401204629468F
:1053800008F0DEFCDDE9002306460F4640464946AC
:1053900008F0D6FC02460B463046394608F018FBAA
:1053A000DDE9042308F0F6FD08F0DCFEDDE900236A
:1053B00006462946204608F0C3FCDDE902230446E0
:1053C0000D464046494608F0BBFC02460B462046C7
:1053D000294608F0FFFADDE9042308F0DBFD08F0B8
:1053E000C1FE9DED061ADDED080A9DED070AF0EEFF
:1053F0006F1A09EE900A0BF097FCB0EE401AF0EE2F
:10540000601A9DED090AF0EE4F0A0BF08DFCB0EE2C
:10541000401AF0EE601AB0EE6D0AF0EE4E0A0BF094
:1054200083FC10EE100A10EE904A08F031FC08EEF2
:10543000906A064620460F4608F02AFC324604468B
:105440000D463B463046394608F07AFC22468046F7
:1054500089462B462046294608F072FC02460B4638
:105460004046494608F0B6FA0022804689460023A5
:105470003046394608F064FCDF4BCDE900010022DC
:105480002046294608F05CFC02460B46DDE9000197
:1054900008F09EFA42464B4608F07CFD08F062FE9A
:1054A000D54B0DEE900A39463046002208F048FCF4
:1054B00002460B462046294614461D46002200237C
:1054C00008F03EFC0CEE88CA02460B464BEE08BACA
:1054D0002046294608F07EFA0AEE88AA42464B4644
:1054E00008F058FD08F03EFE48EE889A7CEE2B7AD4
:1054F00006EE900A77EE8A7A6DEE88DA77EEA97A70
:105500007DEEA6DA2EEEAE7AF1EE677AF0EE4B1A69
:10551000B0EE6B1ACBED1B7AF0EE6C0AB0EE4C0AD3
:105520006DEE87DA0BF000FCF0EE6A1AB0EE409AEE
:10553000B0EE60EAB0EE4A1AF0EE6C0AB0EE4C0A39
:105540000BF0F2FBF0EE681AB0EE407AF0EE607A03
:10555000B0EE4C0AF0EE6C0AB0EE691AB0EE47CA33
:10556000F0EE67CA0BF0E0FBF0EE6A1AB0EE4A1AF2
:10557000B0EE40FAF0EE4B0AB0EE6B0A0BF0D4FB43
:10558000F0EE681AB0EE407AF0EE607AB0EE6B0A98
:10559000F0EE4B0AB0EE691AB0EE47BAF0EE67BA19
:1055A0000BF0C2FBF0EE681AF0EE40EAB0EE691ABA
:1055B000F0EE6A0AB0EE4A0A0BF0B6FB79EE0C7A0E
:1055C000F0EE6A1A77EE8F7AB0EE4A1A77EE8B7A9F
:1055D000F0EE4E0A77EEAE7A2DEEC88A77EE807A3C
:1055E000B0EE490ACBED1C7A0BF09EFBF0EE681A88
:1055F000B0EE40AAF0EE60AAB0EE691AB0EE490A29
:10560000F0EE4E0A0BF090FBF0EE681AB0EE409A06
:10561000B0EE691AF0EE6C0AB0EE4C0A0BF084FBA7
:10562000F0EE681AF0EE407AB0EE691AB0EE4B0A6E
:10563000F0EE6B0AB0EE67BA0BF076FB79EE0A7A01
:10564000F0EE681A77EE8B7AB0EE691A77EE807A10
:10565000F0EE6A0AF1EE677ACBED1D7AB0EE4A0AF7
:105660000BF062FBBBF812408BED1E0AF8EE007ADD
:105670006DEEA77AE500CBED187A2846CBED16DA69
:105680008BED178A8BED198ACBED1ADA0BF094FFAC
:10569000CBF87C00064628460BF08EFFCBF888003E
:1056A0000746182004FB00F00BF086FF2301CBF81F
:1056B00080008046184600930BF07EFFA500CBF8D3
:1056C0008400814628460BF077FFCBF88C000290CF
:1056D00028460BF071FF0490CBF8900028460BF0A1
:1056E0006BFF0690CBF8940028460BF065FF0790FF
:1056F000CBF89800142004FB00F00BF05DFF009B3A
:105700000890CBF89C0018460BF056FF04FB0AF3F8
:105710009B000990CBF8A000184600930BF04CFFBB
:105720000A90CBF8A4004FEA8A000BF045FF009BDB
:10573000CBF8A800054618460BF03EFFBBF8B42096
:10574000CBF8AC000B9004FB02F0C00000920BF011
:1057500033FF009ACBF8B000044690000BF02CFF0A
:10576000CBF8B800002E6ED0002F6CD0B8F1000F2F
:1057700069D0B9F1000F66D00299002963D0049B6B
:10578000002B60D0069A002A5DD0079900295AD0D4
:10579000089B002B57D0099B002B54D00A9B002B51
:1057A00051D0002D4FD00B9B002B4CD0002C4AD059
:1057B000002848D0BBF82E30002B71D0B7EE007A0D
:1057C000C7EE0D6AF5EEC06AF1EE10FA68DD07EE7D
:1057D000903AF8EE677A67EEA67AC7EE276A07EE88
:1057E00090AAF8EE677AB7EE007A77EEC77A9FED67
:1057F000037ACBED2F6A07E000003040DB0FC94091
:105800001F85EB3E713D0A3F87EE278ABAF1000FF4
:105810003EF442AB00241FED069A5FED068AA3B268
:1058200000EE103AB8EE400A013420EE080A09F002
:1058300023FD20EE090AA24538EEC00AA5EC010AB4
:10584000EDD1FEF729BB5846FCF7A8FBFEF722BBBB
:1058500095F86230BB427EF6DDAF032F16D9D8F83B
:105860008030664A664900209847FEF7C2BF654B04
:10587000CBF83C309FED647AFFF7E6B90223634A28
:1058800002EB830393ED158AFFF79AB9142303FB08
:1058900007531B89FEF7AEBF9FED5B0AFFF7BAB94E
:1058A000DFED596A9BE720F8065C0022FEF748BF4F
:1058B0000123FFF765B99FED560AFEF7D4BF554D9A
:1058C000554AD5F88030554900209847544AD5F8B4
:1058D0008030524900209847204603F003FA002305
:1058E000FB62FEF708BC4B4E4E4AD6F880304E495C
:1058F000DDE91678DDE918B95546DDF854A098477A
:10590000B36F20469847FEF7B1BEDAF83C00214657
:10591000FCF7D8FDDAF83C00FCF79AFD00283FF4CC
:1059200099A8032C7FF696A83A4EFFF78DB8394D0B
:105930003E4AD5F88030394900209847204604F087
:1059400001FD3B4AC3E7DAF83C502846FCF780FDEE
:1059500000B1688903F0DCFADAF83C00F0EE408A26
:10596000FCF776FDFFF7A8B89FED290AFEF78DBF7B
:10597000284B304AD3F8803028499847FC62FEF71C
:10598000BABBDAF83C002146FCF79CFDDAF83C0093
:10599000FCF75EFDFFF75EB80A9B0E93FEF738BD7D
:1059A000029BDDF86490D3F898300693DDE915A7E3
:1059B000DDE9178BFEF780BE1F4B0C931F4B0B933B
:1059C0001F4B0D93FEF778BE029A02F1A003D3633A
:1059D000FEF78ABEDFED0E7AFEF7DDBFDFED0C7A53
:1059E000FEF7C7BFDFED0A7AFEF7B1BFDFED087A39
:1059F000FEF79BBF0020FEF7CBBD00BF3061010862
:105A0000FC6001080000C07F0000C07F90210108F9
:105A10000000000078000020F0630108B063010876
:105A2000146401085C6301084863010838640108D4
:105A300050640108D06301086D65000879650008AD
:105A4000F58C000810B520B10C4B02689A42044650
:105A500008D00B4B0B4AD3F880300B49BDE81040FF
:105A60000020184700690023236008B103F03AF9C9
:105A70002046BDE8104003F035B900BF0EB0371323
:105A8000780000204861010860610108DFF838C033
:105A9000F8B51C464FF480530E46CCF82830074624
:105AA000154605F073FC16B13046FCF7EBFC15B15A
:105AB0002846FFF7C7FF14B120460BF085FD384696
:105AC000BDE8F840FCF76ABA000400482DE9F0414F
:105AD00086B030B116461F460268444B9A420546CE
